:020000040000FA
:10000000D02B00204D0300005503000057030000D3
:10001000590300005B0300005D03000000000000C6
:100020000000000000000000000000005F0300006E
:10003000610300000000000063030000650300008E
:100040002D07000067030000F9090000A907000060
:100050006703000067030000050500006703000058
:1000600067030000670300006703000067030000E8
:1000700067030000670300006703000067030000D8
:1000800067030000850700006703000067030000A6
:10009000ED0700006703000067030000670300002E
:1000A00067030000670300006703000067030000A8
:1000B000670300006703000000000000000000006C
:1000C0006703000067030000670300006703000088
:1000D0006703000067030000670300006703000078
:1000E00067030000670300006703000000000000D2
:1000F000000000006703000000000000670300002C
:1001000000000000000000000000000000000000EF
:1001100000000000000000000000000000000000DF
:1001200000000000000000000000000000000000CF
:1001300000000000000000000000000000000000BF
:1001400000000000000000000000000000000000AF
:10015000000000000000000000000000000000009F
:10016000000000000000000000000000000000008F
:10017000000000000000000000000000000000007F
:10018000000000000000000000000000000000006F
:10019000000000000000000000000000000000005F
:1001A000000000000000000000000000000000004F
:1001B000000000000000000000000000000000003F
:1001C000000000000000000000000000000000002F
:1001D000000000000000000000000000000000001F
:1001E000000000000000000000000000000000000F
:1001F00000000000000000000000000000000000FF
:10020000DFF80CD000F040F900480047AD190000BD
:10021000D02B002030B4044654E8000F0D4644E8CB
:100220000053002BF8D1156030BC704730B4044641
:1002300054E8000F40EA010544E80053002BF7D1D1
:10024000156030BC704730B4044654E8000F00EA33
:10025000010544E80053002BF7D1156030BC70470E
:1002600030B4044654E8000F80EA010544E8005326
:10027000002BF7D1156030BC704730B4044654E809
:10028000000F00EB010544E80053002BF7D1156087
:1002900030BC704730B4044654E8000FA0EB0105B1
:1002A00044E80053002BF7D1156030BC70470000C4
:1002B00030B4044654E8000F0D4644E80053002BC8
:1002C000F8D1156030BC704730B4044654E8000FD4
:1002D00040EA010544E80053002BF7D1156030BC1B
:1002E000704730B4044654E8000F00EA010544E8C2
:1002F0000053002BF7D1156030BC704730B4044672
:1003000054E8000F80EA010544E80053002BF7D1C0
:10031000156030BC704730B4044654E8000F00EB61
:10032000010544E80053002BF7D1156030BC70473D
:1003300030B4044654E8000FA0EB010544E8005334
:10034000002BF7D1156030BC70470000064880478D
:1003500006480047FEE7FEE7FEE7FEE7FEE7FEE7AA
:10036000FEE7FEE7FEE7FEE7F107000001020000FE
:100370002DE9F05F0546002092469B4688460646DA
:10038000814640241BE0284641464746224600F06D
:100390006BF853465A46C01A914110D3114618467D
:1003A000224600F016F82D1A67EB01084F46224648
:1003B0000120002100F00DF817EB00094E41201E2E
:1003C000A4F10104DFDC484631462A464346BDE835
:1003D000F09F202A04DB203A00FA02F10020704747
:1003E0009140C2F1200320FA03F319439040704773
:1003F000004870474C4F000040EA01039B0703D0C0
:1004000009E008C9121F08C0042AFAD203E011F853
:10041000013B00F8013B521EF9D27047D2B201E015
:1004200000F8012B491EFBD270470022F6E710B5F9
:1004300013460A4604461946FFF7F0FF204610BD52
:10044000421C10F8011B0029FBD1801A704730B5FF
:1004500004460020034600E05B1C934203D2E05CAC
:10046000CD5C401BF8D030BD202A04DB203A21FAB5
:1004700002F00021704721FA02F3D040C2F12002BD
:100480009140084319467047064C074D06E0E06866
:1004900040F0010394E8070098471034AC42F6D3CB
:1004A000FFF7B2FEF04F00001050000070B58C183E
:1004B00010F8015B15F0070301D110F8013B2A1178
:1004C00006D110F8012B03E010F8016B01F8016B65
:1004D0005B1EF9D12B0705D40023521E0DD401F861
:1004E000013BFAE710F8013BCB1A921C03E013F82A
:1004F000015B01F8015B521EF9D5A142D8D300205F
:1005000070BD00002DE9F04F00268FB0DFF8B081FC
:10051000B14602964FF4807501243746039628466B
:1005200002F03EFC38B1D8F80403204203D028463C
:1005300002F02CFC26432D1D64007F1CADB2082F59
:10054000EDD34FF4BE74204602F02AFC48B1204699
:1005500002F01CFC46F0004602AA0221002002F034
:10056000FFFB584C16F0FF0F15D00127002537422E
:100570000DD008EB8501D1F81005D1F81015C0F3A6
:10058000052054F82520C1F3014102B190477F00B6
:100590006D1C082DEBD3002E7DDA0020CDF82890BD
:1005A000411E0DF1080B08AACDF82C9042F820103E
:1005B000401C91460228F9D300252E46A01910F8B8
:1005C000607F90F9000027F0C008401C49D008A9BE
:1005D000404601F014FB88B34FEA971A404600F0FA
:1005E00041FE54F820701FB1BAF1030F03D00FE0A1
:1005F000BAF1030F35D10AA84FEAD80208F0070371
:10060000815C4FF0010C0CFA03FC41EA0C018154AF
:1006100006A8CDF8188002F03DFB069900EB81009A
:10062000D0F8000702A9C0F301400690404601F04F
:10063000E6FA0028069802D0022802D011E003282A
:100640000FD1BAF1030F08D10698022832D0022147
:10065000404602F0BFFA6D1CEDB217B1514640465C
:10066000B847761C042EA9D3002D20D004AA02215D
:10067000002002F075FB00205A4604A952F82060C1
:1006800051F82030B34217D000200AAE4FEA0903D8
:1006900051F8207000E00AE042F8207056F820700F
:1006A00043F82070401C0228F2D3002D84D10FB0F3
:1006B000BDE8F08F0321CBE7401C0228DED3F6E72C
:1006C00000600040CC04002000F01F020121914096
:1006D0004009800000F1E020C0F88012704700F06F
:1006E0001F02012191404009800000F1E020C0F884
:1006F0000011704700F01F02012191404009800065
:1007000000F1E020C0F8001270474907090E0028E8
:1007100006DA00F00F0000F1E02080F8141D7047A9
:1007200000F1E02080F80014704700002DE9F0414E
:100730004FF48077384601F06AFA0124104EA5077D
:1007400048B1384601F06AFA0120C5F80803747010
:10075000002000F08FFD4FF48277384601F057FA01
:1007600000280BD0384601F059FA0220C5F80803DA
:10077000B470BDE8F041012000F07CBDBDE8F0811F
:10078000B804002007480021C0F84011C0F8441107
:10079000C0F84811C0F84C11C0F80011C0F804119D
:1007A00003F0B0BB0010014038B50F480D4C0025D8
:1007B000C0F80851D0F808110091214603F0E6FB7B
:1007C00000280ED1A07FFF2801D002F0A2FA6577A1
:1007D0002572D4E9002101B004F10800BDE83040E1
:1007E000104738BD340500200030004003F0DCBA6B
:1007F00030B54FF080500022D0F830110123082985
:1008000002D1D0F8344114B1082909D00BE04FF0DF
:100810008041C1F80C21C1F8102168490A6005E047
:10082000D0F8344114B1082957D059E06449096817
:10083000644C21606249091D0968241D21606049DA
:1008400008310968241D21605D490C310968241DA7
:1008500021605B4910310968241D21605849143119
:100860000968241D2160564918310968554C203407
:10087000216053491C310968241D216050492031F1
:100880000968241D21604E4924310968241D216016
:100890004B4928310968241D216049492C310968D8
:1008A000241D2160464930310968464C403421609E
:1008B000434934310968241D2160414938310968B0
:1008C000241D21603E493C310968241D21603C49BA
:1008D00040310968241D216005E0D0F8344114B18D
:1008E000082904D006E0394C3749216005E0D0F8EA
:1008F000344114B1082904D006E0354CFB212160B5
:1009000005E0D0F8344114B1082908D00AE090F885
:1009100058423048016864F30301016005E0D0F8F3
:10092000344114B1082905D00EE02B494FF4007072
:10093000086002E0D0F8340130B928480168C907DE
:1009400002D06FF0010101602548016841F4700197
:100950000160BFF34F8FBFF36F8F4FF01021D1F8BD
:100960000002002803DBD1F80402002822DA1D4C23
:1009700023601D480368002BFCD01223C1F800320D
:100980000568002DFCD0C1F8043201680029FCD0B4
:10099000226001680029FCD0BFF34F8F10487C38DB
:1009A0000168124A01F4E06111430160BFF34F8F07
:1009B00000BFFDE70F490E48086030BD3805004014
:1009C0000404001020C50040488103008C560040FC
:1009D00018F50040E40E004040960240000400403C
:1009E00088ED00E004E5014000E401400400FA0560
:1009F0000090D003600100200448017F04480029D2
:100A0000024901D003F0D3BB03F042BB58050020DC
:100A10000020004002E008C8121F08C1002AFAD1D5
:100A200070477047002001E001C1121F002AFBD16E
:100A30007047022000F08AB970B50024064D06E028
:100A40006868012110F8340001F0F8F9641C287876
:100A50008442F5D3002070BDC0000020F8B51546D3
:100A60000C460646052A01D20720F8BD01F0C8FA57
:100A700018B901F097FA0028F7D1114900224E6009
:100A80000C708D60C1E90422C1E906220D4D0DE014
:100A900006EBC4006968009181788DF80110007838
:100AA000094A694601F016FA0028DED1641EE4B254
:100AB000EED2BDE8F840054A0021024800F050B8E7
:100AC000C0000020344E00003D1400004913000017
:100AD00002F0C6FB02F03CFA0028FBD1104C0121C9
:100AE000208801EB00400FA102F01AFB10480068BB
:100AF000C00700D000BE2088022101EB00400DA1FC
:100B000002F00EFBBFF34F8F0948E43801680D4A2D
:100B100001F4E06111430160BFF34F8F00BFFDE7B7
:100B2000B8010020466174616C206572726F7200BA
:100B3000F0ED00E053797374656D20726573657430
:100B4000000000000400FA050EB500210091CDE977
:100B500001106A4644F20100FFF7BAFF0EBD000023
:100B6000074B9B7823B12AB120B10068037C1BB1ED
:100B70000820704707207047417442610020704789
:100B80009805002070B502F0A5FE104800240B2146
:100B9000047044700E4D817014206C602C706C7069
:100BA000FFF792FD07211420FFF7AFFD1420FFF798
:100BB00096FD0848046007211120FFF7A6FD0548AF
:100BC000001F0068A860002070BD0000980500208C
:100BD000E0000020081501402DE9F843DFF870908F
:100BE00099F802305BB350B3052902D20720BDE863
:100BF000F88343691BB3437C012B22D000270446B2
:100C0000002588461646284600F036F8684603F068
:100C1000A1FBC0B1012101700E4944600968C0E91F
:100C20000218C0E904769DF8000089F80100002050
:100C300000F024F81420FFF75DFD2846D7E70820D0
:100C4000D5E70F46DBE70425002000F017F8F4E7AE
:100C500098050020041501400649897839B130B162
:100C6000416921B100210174022103F02BB9082050
:100C7000704700009805002000F002B800F008B8A6
:100C800072B602480168491C01607047F4000020F8
:100C900003490868401E086000D162B67047000032
:100CA000F400002070B5054608680C46411C04D0CD
:100CB00002F039F8206801F083FF6068411C02D01F
:100CC000002101F06AFF28791F4901EB40102968D3
:100CD000007F0028A069C1F8240523D0607D227D13
:100CE00029681043C1F86C05D4E900122868C0F8DF
:100CF0000C15C0F8142522E0A068411C02D0002188
:100D000001F04BFFE068411C04D002F00CF8E068F1
:100D100001F056FFD4E902122868C0F80825C0F88F
:100D2000101570BD607D217D2A680843C2F86C05EE
:100D3000D4E900122868C0F81425C0F80C15207DED
:100D40000128D9D070BD000058050020094908B518
:100D5000085C0090684601F08FFFD0F80425009BE6
:100D60000121994021EA0203C0F808351140C0F87A
:100D70000C1508BD044600000249085C012101F081
:100D8000DCBF0000044600000249085C002101F0BD
:100D9000D4BF000004460000084908B5085C009074
:100DA000684601F069FFD0F804050099C84010F0CA
:100DB000010000D0012080F0010008BD04460000C1
:100DC0007CB50024084E25460122305D00950023A5
:100DD0001146019501F074FE641C042CF4D3BDE8A7
:100DE0007C4000F003B800000446000010B5002469
:100DF0002046FFF7C1FF641C042CF9D310BD10B5C9
:100E000000242046FFF7C0FF641C042CF9D310BD5A
:100E100010B50246064B4FF0FF3000215C5C944257
:100E200001D1084610BD491C0429F7D310BD0000AC
:100E3000084600002DE9F0470D468146FFF7E8FF20
:100E40000446042836D2DFF874801B481C4EA8F1F3
:100E50000C0725B3012D0ED0022D2BD104EB44003D
:100E600030444578002D25D0B968002922D0284685
:100E7000BDE8F047084704EB4401755C0E44717807
:100E800049B10E4A4FF40041093A8068FFF7A4FEC9
:100E900008B987F80390B17808F80410E2E7806891
:100EA000FFF7DAFE04EB4401314418F804008D78B2
:100EB000A842D7D0BDE8F0870C460000BC00002057
:100EC0008C0400200E2805D0112805D100210348EC
:100ED00001F09CBC0121FAE7704700005844000073
:100EE00070B50023042810D20D4D00EB4004012AF8
:100EF00002D101290CD00022094E00EB4000304401
:100F000061B1012906D0022906D00723184670BD19
:100F10000E30C2B22A55F9E74270F7E78270F5E762
:100F20008C04002070B506461E480024C0E901610B
:100F3000B00720D50025012211462846FFF7D0FF33
:100F40006D1C0446042D02D2002CF4D013E094B999
:100F500040F2666204211448FFF780FD04000AD1C4
:100F6000FFF76AFD040006D10F48104A0021001F58
:100F7000FFF7F6FD0446F00701D0FFF721FF74B933
:100F800009480B4A00210C38FFF7EAFD040006D19E
:100F90000548084A01210838FFF7E2FD04462046CB
:100FA00070BD0000B000002018460000F9110000DC
:100FB00055170000330A00002DE9F05F6A4C054622
:100FC00000266078B34618B184F801B000F0AAFB9F
:100FD000664F4FF47A694FF4C87A4FF00108182D24
:100FE00062D2DFE805F0AC0C0C31404D62676B74E7
:100FF0006B74BE7D7D7D7D7DACAFB2B5BEBE002085
:10100000FFF7CAFE00284FF0000008D0FFF7B4FE3B
:10101000022D02D14FF4E16008E0484606E0FFF7F8
:10102000B3FE022D01D1C82000E05046410CC003A0
:101030004FF4FA72801841F100012570520000232C
:10104000FFF796F901462AE00020FFF7A5FE0028E9
:101050004FF0000004D0FFF78FFE4FF44870E5E733
:10106000FFF792FEDFE70020FFF796FE00284FF023
:10107000000002D0FFF780FECFE7FFF785FED4E740
:101080000020FFF789FE00284FF0000002D0FFF794
:1010900073FE01E0FFF778FE257041F69A110022F9
:1010A0003868FFF799FD064646E00020FFF74EFE40
:1010B000257008E0002051E025703DE084F80180B3
:1010C0000120FFF743FE002240F6CD41E8E784F817
:1010D00001800120FFF73AFE00224FF48041DFE754
:1010E0007868FFF7B9FD0646D5F1110000D02EB1A2
:1010F0000220FFF741FE84F802B01DE0012816D956
:1011000080B2C8214843C117C90341EA5041C00316
:101110004FF4FA72801841F1000152000023FFF7EA
:1011200027F9014600227868FFF756FD064602209F
:10113000FFF72AFE84F802803046BDE8F09F00F0F9
:10114000F1FAB9E700F0EEFAB4E700F0EBFA04E0E8
:1011500000F0E8FA0020FFF717FE0120FFF714FE69
:10116000AAE7FFF74CFEA7E7B00000200C460000FE
:101170002DE9F041861C0C4601270020FFF77CFD7D
:101180000F4801682160D0E90012891A826804467C
:10119000511AB51C07E000BF00F0BEFBD4E9000106
:1011A000401AA168091A491C8D42F5D820683044BC
:1011B00020600020FFF762FD3846BDE8F0810000A6
:1011C000B007002030B482680468531C8360A154C7
:1011D000D0E901128A4202D330BC01F01AB930BC06
:1011E00070470000034803C8814201D101207047C5
:1011F00000207047B007002000780221FFF71ABED8
:1012000005494FF0FF32082841F8202002D3084456
:1012100080F8582070470000CC040020F0B54FF053
:10122000FF3512B10023082601E008230C260C4CE0
:1012300005E000BF54F823707F1C04D05B1CB34250
:10124000F8D32846F0BD26185DB286F8305044F831
:101250002310002AF5D1E11881F85800F1E70000C9
:10126000CC0400200249084490F930007047000087
:10127000CC04002070B5084C050009D0103421685A
:10128000002907D008682060496828468847F6E7A3
:101290000834F4E770BD0000B80400202DE9F05FC9
:1012A00026484168F1B3DFF898B00E688146DBF854
:1012B000004087688078E11B21F07F45ED1CB0B9C4
:1012C000DFF880804FF48030C8F84403C8F8040386
:1012D0001120FFF7F9F91120FFF701FA4FF0010A89
:1012E000C8F800A02F2000F0E7FC89F802A0B54262
:1012F00000D23546124BE8193C3320F07F4018608D
:10130000DBF800105A46091B21F07F41001B20F03A
:101310007F40C91C81420FD9106818602F2000F04F
:10132000CBFC00E004E0BDE8F05F1120FFF7E2B97C
:10133000BDE8F05F02F0CEBABDE8F09FE00000200B
:1013400004150140001001402DE9F05F0025DFF891
:10135000A48043E06068002100EBC50601203278DC
:101360009146FFF736F8D4E9062300EA020701EABE
:10137000030C57EA0C072FD0C7433A408B4348462B
:10138000C4E9062300F006FE32784FF0000A8146D9
:10139000934601205146FFF71CF8D4E9042300EAE4
:1013A000020401EA03075A4648465146FFF711F87E
:1013B00044404F403C430FD17078012815D00022A3
:1013C00089EA02008AEAE271084310D000207268BC
:1013D00012B1C1B2584690476D1CEDB298F80000AA
:1013E00044468542B6D3BDE8F09F0122E8E70120DC
:1013F000EDE70000C0000020704700000E4910B566
:101400000A784C780023A24212D0521CD2B20A7041
:10141000022A00D10B70084A0B780C3252F82320B4
:1014200002608868104420F07F408860012010BD71
:101430000360002010BD0000E00000202DE9F04115
:101440008046024601200021FEF7C3FF1A4F0546E1
:101450000E463868FFF700FC00280CD1174CD4E981
:10146000062110462A4001EA06031A4305D0A84384
:10147000B143C4E90601BDE8F081404600F08AFDB1
:1014800030B1D4E9040128433143C4E9040105E043
:10149000D4E90410A943B043C4E90410D4E9060117
:1014A00028433143C4E90601A1683868BDE8F0412A
:1014B0000022FFF791BB0000344E0000C000002066
:1014C000F0B593B01546064631B1012907D002297F
:1014D00007D0072013B0F0BD6FF0270102E0002114
:1014E00000E02821404C01AF0DF1100C0DCC87E835
:1014F0000D0001F14002ADF80420ADF8082089CCC0
:101500008CE88900501FADF81000C01CADF8140025
:10151000B4E888100DF11C0E8EE88810ADF81C00A0
:10152000001DADF82000B4E888100DF1280E8EE8FB
:101530008810ADF82800C01CADF82C0054E91A033F
:10154000CDE90D03ADF8342054E91802CDE90F02BE
:1015500001F13C00ADF83C0054E91602CDE911025E
:101560004331ADF844102A4601A9304601F051F943
:1015700008B1FFF7E9FA2A4604A9304601F049F913
:1015800008B1FFF7E1FA2A4607A9304601F041F910
:1015900008B1FFF7D9FA2A460AA9304601F039F90D
:1015A00008B1FFF7D1FA00232A460DA9304601F011
:1015B00029F808B1FFF7C8FA01242B4622460FA9E3
:1015C0003046009401F0F8F908B1FFF7BDFA2B4658
:1015D000012211A93046009401F0EEF908B1FFF79D
:1015E000B3FA002076E70000784400002DE9FC5FA4
:1015F0000E008346DDE90C47C6F10000984692468E
:10160000814600D40846012503E000BF90FBFAF0B4
:101610006D1C5045FADAA84500D9454624B1002E84
:1016200001DB780700D5641EB80702D5B8F1000FBA
:101630000AD0F80708D13CB1A54205D2202158466E
:10164000641EFFF7BFFDF6E7002E02DA4E462D219D
:1016500002E0780703D52B215846FFF7B3FD07F0CA
:10166000030002280BD1B8F1000F08D13CB1A5420C
:1016700005D230215846641EFFF7A4FDF6E7CDE9F8
:101680000047434652463146584602F009FEBDE83F
:10169000FC9F000070B50E460446007918494FF4CF
:1016A000A27501EB4010017F2068A1B14FF4887151
:1016B00002F02BF84FF49071206802F026F84FF4F6
:1016C0009271206802F021F82946206802F01DF886
:1016D0000C49206809E04FF48E7102F005F82946A4
:1016E000206802F001F808492068C0F80413206857
:1016F00000F0A1FB3146BDE8704000F080BB000067
:101700005805002010030200800002000268134602
:1017100002E08A4204D01268002AFAD10B6001600C
:10172000704700000A4810B5807860B1002401E0DD
:10173000022C06D02046FFF71FFB641C042CF7D3B5
:1017400010BD0324F6E7BDE81040FFF74FBB0000D3
:10175000B000002003480179C90702D00078FFF7E4
:101760002BBC7047B00000202DE9FF4F83B0994695
:10177000DDF840800F4616464FF0FF30494501D254
:10178000012300E003460193424500DA0120009066
:101790004FF0000BB9EB070000D5404205B2B8EBA3
:1017A000060000D5404204B2119B039802F008F8ED
:1017B000A54204DA65406C4065404FF0010B601BA8
:1017C000400000B2029060000FFA80FAAAEB050018
:1017D00004B21EE0002C09DB0198384487B200985F
:1017E000304486B20298204404B20CE004EB0A00B4
:1017F00004B2BBF1000F03D00098304486B202E07F
:101800000198384487B232463946119B039801F05B
:10181000D7FF4645DED14F45DCD107B0BDE8F08F9C
:101820002DE9F047394E002780463D46DFF8E0902D
:10183000D6F804A057E003D00446D0F81C8035E069
:1018400099F8002002EB4201521CD2B289F8002024
:1018500009EBC10199F80230091D9A4201D189F8BA
:10186000005048680A780446012A12D0022A02D0A1
:10187000032A3BD108E002F0F5FA00B101272574F4
:1018800034E00574C06900E070680028F9D1706028
:101890002CE0207C50BB88686060C868A060086944
:1018A000E0604869A061F07800B165606268B16885
:1018B000184B501A20F07F40984202D2A168084489
:1018C00006E0881AA16820F07F40814202D9081AF8
:1018D000206000E0256065600120A560207420463E
:1018E000E56102F0A1FAB8F10000A4D199F8001066
:1018F00099F801008142A3D117B97168514502D00E
:101900000120BDE8F0870020FBE70000E000002098
:1019100098050020FFFF7F0070B588B0214800F0D7
:101920001BF92048001F064600F016F91E4DD5E9A8
:10193000014105E0C0F3891202EB9050641C04449D
:1019400004EA010005EB8000C0688207F2D00020A5
:101950000DF1080204EA010305EB8303641CDB6854
:1019600042F82030401C0228F4D3029800F0030013
:10197000012808D002280AD10298032101EB9050D7
:1019800004EB900403E00298C0F383100444304653
:10199000002101AAFEF7A5FC002800D06C6008B069
:1019A00070BD0000C80B0020B00700200EB500F08D
:1019B000C9F908B1FFF7C8F8002000F0E5F9FFF712
:1019C000E1F808B1FFF7C0F8264A01212648FFF7E1
:1019D000C7F808B1FFF7B8F8234C00224FF40041D4
:1019E0002068FFF7F9F808B1FFF7AEF801F016FD2F
:1019F00008B1FFF7A9F8002001F0ECFB08B1FFF7F0
:101A0000A3F801F097FA19490220FFF78BFA08B101
:101A1000FFF79AF816480321008801EB004015A152
:101A200001F07EFB1048203000F0E6FE08B1FFF721
:101A30008BF86068029000211748CDE900010A4840
:101A400016A3012202A9203000F05EFF08B1FFF7C3
:101A50007BF801F0F7FC00BF01F07AFA0028FBD117
:101A6000F7E70000153D000038440000C50E0000F7
:101A7000B8010020535049207472616E7361637421
:101A8000696F6E206D616E61676572206578616D4A
:101A9000706C650A0D000000284E000020204E4F9B
:101AA0005244494353454D49000000002DE9F04799
:101AB000C7880446181D16468946B0FBF7F1B0FBEF
:101AC000F7F207FB12009A193A44D21CB2FBF7F264
:101AD000DDF820A001E02468491E0029FBD13D1A51
:101AE0008846B54216D818E0BAF1000F05D0211883
:101AF00009EB08002A46091D04E0204409EB08010F
:101B00002A46001DFEF778FC00202468761BA844B6
:101B1000B74201D9354600E03D46002EE4D1BDE88C
:101B2000F087000030B5024669B101F081FB002169
:101B3000084C0BE001EB410304EB830315685B8861
:101B4000AB4202D11160002030BD491C8142F1D36B
:101B5000052030BD6401002008B501216A46FEF76A
:101B6000B3FB009808BD70B5044600252846FFF772
:101B700083F821686268086890420ED9401E0860A8
:101B80000178238AE26801FB0325227A2168101A72
:101B9000C0B20A79824200D208710020FFF76EF8C5
:101BA000284670BD70B505460C460020FFF764F866
:101BB000E868298A201AB0FBF1F12A681068431CF2
:101BC00013600170BDE870400020FFF757B810B5F2
:101BD00030B1017A42680368891AC9B21A6006E016
:101BE0000E2010BD03681A68541C1C601170491E39
:101BF000C9B2F7D2006800210171084610BDC208C1
:101C000000F007030120895C98400840704700F10C
:101C100080400068002800D00120704708B500F11E
:101C20008040002101600068009008BD00283ED07F
:101C30001F49204A096800BF00BF00BF00BF00BFA6
:101C400000BF00BF00BF91422FD000BF00BF00BF48
:101C500000BF00BF00BF00BF00BF00BF00BF00BF8C
:101C600000BF00BF00BF00BF00BF00BF00BF00BF7C
:101C700000BF00BF00BF00BF00BF00BF00BF00BF6C
:101C800000BF00BF00BF00BF00BF00BF00BF00BF5C
:101C900000BF00BF00BF00BF00BF00BF00BF00BF4C
:101CA00000BF00BF00BF00BF00BF0138C3D17047F5
:101CB000600100200024F40000283ED01F49204A83
:101CC000096800BF00BF00BF00BF00BF00BF00BF6A
:101CD00000BF91422FD000BF00BF00BF00BF00BFB8
:101CE00000BF00BF00BF00BF00BF00BF00BF00BFFC
:101CF00000BF00BF00BF00BF00BF00BF00BF00BFEC
:101D000000BF00BF00BF00BF00BF00BF00BF00BFDB
:101D100000BF00BF00BF00BF00BF00BF00BF00BFCB
:101D200000BF00BF00BF00BF00BF00BF00BF00BFBB
:101D300000BF00BF00BF0138C3D170476001002061
:101D40000024F40070B50E4C0025207808B18525DC
:101D500013E00021A16061602161E1604FF0E020AB
:101D6000D0F80001012610F0010F03D10721002057
:101D700000F045F8034806602670284670BD000054
:101D8000B80400201805004070B5154D0446A87829
:101D900038B114B16168012088470020FEF76CFF5C
:101DA00015E00020FEF768FF24B10D4821461030F1
:101DB000FFF7ACFCE86850B94FF48270FFF72EFFD4
:101DC00002204107C1F80403064901200860E868C1
:101DD000401CE860BDE870400020FEF74FBF0000E7
:101DE000B80400200800004000F01F0201219140CB
:101DF0004009800000F1E020C0F8801170474907D9
:101E0000090E002806DA00F00F0202F1E02282F843
:101E1000141D03E000F1E02282F8001400F01F021C
:101E2000012191404009800000F1E020C0F88012BB
:101E3000C0F800117047000B40B270472DE9F04127
:101E40000E46804601F068FC204D0028404616D022
:101E5000FFF708FA284490F858008009032802D0B8
:101E600001280AD003E0404600F03EFF28B10321DC
:101E70004046BDE8F04100F0ADBE0221F8E701F0B8
:101E800057FC002820D04046FFF7ECF90446104FDD
:101E90004FF4807007EB840100EB8400D1F810252B
:101EA00080B242F00102C1F8102500F06FFF002E51
:101EB0000AD04046FFF7D6F955F82000002803D095
:101EC0000120A040C7F80403BDE8F081CC04002045
:101ED000006000402DE9FC41DFF8AC80044608EBCF
:101EE0000400002790F930001346C0170E46401C2E
:101EF00001D0082744E0F27819462046FFF78EF912
:101F00000546401C3BD0B07868B16846009400F0AC
:101F1000C1FE009900EB8100D0F8001721F002010A
:101F2000C0F8001707E000217378204600910A46A8
:101F3000019100F0DEFDF078C0B11448317800EB7B
:101F40008500D0F81025124B1A40C0F810254FF428
:101F50007C524FF4403302EA042203EA01410A436F
:101F6000D0F810150A43C0F8102509E008EB050069
:101F7000327810F8581F41EA8211017000E00427FE
:101F80003846BDE8FC810000CC0400200060004021
:101F9000FFC0FCFF10B500F0A7FE002800D0012014
:101FA00010BD000070B5144D95F8640008B108200C
:101FB00070BD0020411E2A18401CC0B282F83010AB
:101FC0003028F8D300242046FFF71AF9641CE4B245
:101FD0000C2CF8D307210620FFF711FF4FF4BE7039
:101FE00000F0D4FE05494FF00040C1F80403012081
:101FF00085F86400002070BDCC0400200060004023
:10200000034890F86400002800D0012070470000C9
:10201000CC0400200121B1EB507F01D10120704799
:10202000002070472DE9FC47074640790C46DFF851
:102030000CA100EBC0010AEB8106307F10B1082033
:10204000BDE8FC87C6E90023207B0128207802D860
:1020500000F0E2FD01E000F05CFE4FF00009CDF879
:102060000090CDF8049020784B464A46012100F0BC
:1020700059FD60784FF0FF35FF2806D0804600F00C
:10208000CBFD404600F092FD00E0A846A078FF2876
:1020900009D0002205460123CDF800901146CDF865
:1020A000049000F03FFDE078FF2804D000F031FEFE
:1020B000E07800F07BFD7979E07801EBC1010AEB73
:1020C0008101887738682378C0F80835C0F80C8516
:1020D000C0F81055A168C0F82415237B617B01B1BD
:1020E0000121012B04D0022B05D0032B08D105E0E0
:1020F00041F0020104E041F0040101E041F0060179
:10210000C0F854157B79617903EBC3030AEB8302B2
:10211000D177316811B10421C0F804130125C0F84A
:102120000055306820B1217997F90400FFF767FE68
:10213000484686F81D90357782E700003405002078
:102140001FB5069C00918DF8042002938DF80C4079
:102150000022694600F026F804B010BD10B54179A0
:102160000F4A01EBC10102EB8102116859B190F9EC
:102170000410012301F01F04A3404909890001F163
:10218000E021C1F880310068116819B14FF0FF31CA
:10219000C0F808130021C0F80015117710BD000029
:1021A000340500202DE9F04106468846407919495A
:1021B00000EBC00001EB80041546607F002710B1E2
:1021C0001120BDE8F081206820B115F0140F01D175
:1021D0000120607798E80E00D8F80C00C4E90530BB
:1021E000C4E9031294F8210020F0070084F82100CC
:1021F000A07FFF2801D000F00FFD1DB10020607707
:10220000062704E042462146306801F0DFFB3846ED
:10221000D7E70000340500202DE9F041054600799C
:10222000164F904607EB40140E46E07E10B1082092
:10223000BDE8F081707F20772846FEF733FD5FEA26
:10224000080060603169216003D0317F2846FFF7C4
:1022500021FA287907EB4010007F0028286801D078
:10226000082100E00421C0F800150020E075207668
:10227000A0750121E176A076DAE70000580500207C
:102280002DE9F047054600793F4E904606EB401495
:102290000F46207F18B10846FFF7BCFE30B1284634
:1022A00000F074F820B11120BDE8F0871020FBE7A2
:1022B00084F81680A7600027A78228794FF00108CC
:1022C00006EB40143E46207F0028286825D04FF4B6
:1022D0009079494601F019FA4FF4AC7A51462868D2
:1022E00001F013FA2868A17DA268C0F84425C0F85F
:1022F00048152868C0F808806068F0B94946286821
:1023000001F0FEF980465146286801F0F9F958EAD3
:102310000001F3D058BBA7750FE04FF48E7A5146F9
:1023200001F0E2F92868C0F808802146286801F029
:1023300063FE61684FF4807089B13046B4E751465E
:10234000286801F0CCF910B9A08A4845F7D1A08AD5
:10235000484505D02146286801F04EFE00E0814640
:10236000A08AA17D8842EAD3A08A484501D10F26E0
:10237000D1E75146286801F0B2F90028F9D0286861
:10238000C0F80C80C7E70000580500200079044918
:1023900001EB4010807D002800D001207047000034
:1023A0005805002070B5044600791149002601EB5C
:1023B000401520682A7FC0F80065686888B12079D8
:1023C00001EB4010007F0028206801D0094901E09E
:1023D00008498C39C0F808132068FFF72CFDFFF777
:1023E00003FD204601F0B0F9EE766E6070BD00008E
:1023F00058050020100302000FB408B50399002906
:1024000004D004AA00926A4600F00FF801B05DF80B
:1024100014FB10B582680446002A05D0D4E90403F1
:10242000216898470020A06010BD2DE9FC47914627
:102430000C00804676D014F8011B39B125290ED046
:102440004046FEF7BFFE20780028F4D198F80C0033
:10245000002867D04046BDE8FC47FFF7DABF002000
:10246000012221782B291BD02D2902D0302908D117
:1024700002E040F0010001E040F00200641C002A8C
:10248000EFD100252A290ED02178A1F130020A2AA5
:1024900011D205EB850201EB4205641C303DF1E7EA
:1024A00040F00400EAE7D9F800100B1DC9F800302D
:1024B0000968641C0D44217800232E290BD114F8DF
:1024C000011FA1F130020A2A05D203EB830201EBBE
:1024D0004203303BF3E76C290DD068290BD0692902
:1024E00021D00BDC252918D0582931D063290ED0F2
:1024F000642915D117E014F8011FECE7702969D0A1
:10250000732932D075291BD0782909D120E0D9F858
:102510000000011DC9F8001001784046FEF752FE88
:10252000641C90E76CE0D9F800100A1DC9F800207F
:102530000968CDE900500A224046FFF757F8EFE757
:10254000D9F800100A1DC9F8002009680A2206E01F
:10255000D9F800100A1DC9F8002009681022CDE939
:102560000050404601F09CFEDAE7D9F80010002741
:102570000A1DC9F800200E68C00705D112E04046C8
:10258000761C7F1CFEF71EFE31780029F7D104E08F
:10259000202140466D1EFEF715FEBD42C0D9002D1C
:1025A000F6D1BDE74EB13046FDF74AFF074604E0DD
:1025B000202140466D1EFEF705FEBD4206D9002DC6
:1025C000F6D103E04046761CFEF7FCFD3178002989
:1025D000F8D1A5E7D9F80000011DC9F80010056879
:1025E00030214046FEF7EEFD78214046FEF7EAFD39
:1025F00008200021CDE90001034610222946B0E75A
:10260000BDE8FC872DE9FF5F0C46B1F90450C169B4
:10261000904683469A462288A08800268B88121A04
:102620003746934206DB62884988101A4FF0010949
:10263000814277DA072004B0BDE8F09FBAF1000FBD
:1026400072D02188881B01D44A1B33D5701CCDF869
:102650000090CDE90180084483B260880021401BCE
:1026600082B2584601F018F9CDE900982188681C1B
:102670000390084483B260880021801B82B25846D0
:1026800001F00AF9CDE9009821880398084483B243
:1026900060880021304482B2584601F0FDF8CDE94F
:1026A000009821880298084483B260880021284459
:1026B00082B233E009EB4601CDF80090CDE901810B
:1026C0008BB26188491B8AB281B2584601F0E4F8A6
:1026D00009EB4500CDE9009883B203906088801B28
:1026E00082B22088401B81B2584601F0D5F8CDE96E
:1026F0000098039883B26088304482B22088401BDF
:1027000081B2584601F0C8F8CDE900986088029976
:10271000284482B220888BB2801B81B2584601F0D7
:10272000BBF851E061E0FFE760884346284482B28D
:102730002088304481B2584601F042F86088434610
:10274000284482B22088801B81B2584601F038F8B4
:1027500060884346304482B22088284481B258467B
:1027600001F02EF860884346304482B22088401B36
:1027700081B2584601F024F860884346401B82B27B
:102780002088801B81B2584601F01AF860884346C1
:10279000401B82B22088304481B2584601F010F8C4
:1027A00060884346801B82B22088401B81B2584615
:1027B00001F006F860884346801B82B220882844D6
:1027C00081B2584600F0FCFF002F07DC761C36B2C1
:1027D00007EB4600401C07B2002F06DD6D1E2DB230
:1027E000684207EB4000401E07B2B542BFF626AF75
:1027F000002020E70069004710B5044600688047C4
:10280000002802D1E2690121117010BD82690846D9
:1028100010472DE9FC47C3690C4681469888098812
:102820004FF000081546C446884203D25A88A6884D
:10283000B24206D36288904206D25888E388984212
:1028400002D20720BDE8FC87A388E688CF1AA2EB56
:10285000060000D57F42002800DA4042874202DDB0
:10286000B4F808C001E0B4F80880994201D0B2423F
:1028700010D1581AB31A00D55B4263449BB2CDE91C
:102880000035002800DA4042404483B2484601F057
:1028900003F836E0B8F1000F15D000260FE0B4F9C8
:1028A0000600CDE90005A0886288304483B2208804
:1028B000304481B24846FEF757FF761CB6B22089F5
:1028C000B042ECD81DE0BCF1000F14D000260EE0A1
:1028D000E088304400B2CDE900056088A388304428
:1028E00082B221884846FEF73FFF761CB6B22089A7
:1028F000B042EDD805E030B2CDE900054846FEF71C
:1029000033FF00209EE700002DE9FE4F8146088836
:102910000C9DADF80800D9F81C0088464C88418809
:1029200028781F46081A9346A04202DA0720BDE81D
:10293000FE8F00264FF00A0A2BE00A2A2ED0CDE99E
:10294000004B02AB2946484601F01CFDB95D687892
:10295000081AC0B220292CD0696811F8200000BFE5
:10296000D9F81C108A88121ABDF8080082420FDAC2
:102970000D9888B1B8F80000ADF8080028784988AB
:10298000B0FBFAF22244024494B2081AA04203DBDC
:10299000761CBA5D002AD0D10020C8E7B8F8000044
:1029A000ADF808002878B0FBFAF12144084484B25D
:1029B000CCE728784008D3E72DE9FE4F9A468B886C
:1029C00015468146581B87B2C8880C46411BDDF866
:1029D00030C08EB2012B13D0012811D0B3EB450FBC
:1029E0000ED3B0EB450F0BD3D9F81C202188B2F8D9
:1029F0000480884507D25288B4F80280424502D24A
:102A00000720BDE8FE8FBCF1000F06D0CDE9000A1B
:102A10006288484600F040FF50E0ADF80010608842
:102A2000ADF802002088A18852460844ADF80400A1
:102A30006088ADF80600ADF8085069464846FFF7D3
:102A4000E8FE2088ADF80000608852463044ADF8BA
:102A500002002088A1880844ADF804006088694617
:102A60003044ADF806004846FFF7D3FE2088ADF8A5
:102A70000000608852462844ADF802002088ADF876
:102A80000400608869463044ADF806004846FFF708
:102A9000C0FE208852463844ADF800006088694680
:102AA0002844ADF8020020883844ADF8040060885E
:102AB0003044ADF806004846FFF7ABFE0020A0E723
:102AC0002DE9FF411C46DDE90A7815460E466846A9
:102AD00000F0D2F846EA450141EA840141EA0722C2
:102AE00042EA0841009A00EB8200C0F80017BDE8F6
:102AF000FF812DE9FF411C46DDE90A7815460E46A7
:102B0000684600F0C7F846EA450141EA840141EA17
:102B1000072242EA0841009A00EB8200C0F8001741
:102B2000BDE8FF812DE9FF411C46DDE90A78154625
:102B30000E46684600F0BCF846EA450141EA8401C9
:102B400041EA072242EA0841009A00EB8200C0F8FD
:102B50000017BDE8FF812DE9FF411C46DDE90A7839
:102B600015460E46684600F0B1F846EA450141EACE
:102B7000840141EA072242EA0841009A00EB820000
:102B8000C0F80017BDE8FF811CB5002100910B467D
:102B900001220191FFF7DFFF1CBD1CB500220B468F
:102BA000009211460192FFF7D6FF1CBD1CB5002113
:102BB00000910B46012201911146FFF7B3FF1CBDA6
:102BC0001CB5002100910B46012201911146FFF72F
:102BD000C2FF1CBD13B50C46684600F05BF80099B7
:102BE00000EB8101D1F8002722F44032C1F8002720
:102BF000009900EB8100D0F8001741EA0441C0F8C9
:102C000000171CBD01B5684600F028F8009A0121A4
:102C10009140C0F80C1508BD01B5684600F048F8B1
:102C2000009A01219140C0F80C1508BD03B581B090
:102C300041B101A800F012F8019A01219140C0F8B9
:102C400018150EBD01980090684600F007F8009A2C
:102C5000002100EB8200C0F800170EBD016820299A
:102C600002D24FF0A040704701F01F0101600148FF
:102C700070470000000300500168202902D24FF085
:102C8000A040704701F01F0101600148704700003B
:102C9000000300500168202902D24FF0A040704785
:102CA00001F01F010160014870470000000300505F
:102CB0000168202902D24FF0A040704701F01F01A7
:102CC000016001487047000000030050016820299E
:102CD00002D24FF0A040704701F01F01016001488F
:102CE000704700000003005001B56846FFF7D2FFAF
:102CF000D0F810050099C84000F0010008BD01B5EA
:102D00006846FFF7ABFF009A01219140C0F8081513
:102D100008BD01B56846FFF7CBFF009A012191403D
:102D2000C0F8081508BD01B56846FFF7CFFF009A47
:102D300001219140C0F8081508BD38B50124009064
:102D4000684631B1FFF798FF00998C40C0F80845FC
:102D500038BDFFF791FF00998C40C0F80C4538BD95
:102D60001CB5094C0144D4E90034CDE900346C466B
:102D700006E000BF54F82030D3F81035401C08C2DC
:102D80008142F7D81CBD000038460000034908B551
:102D90000844002101600068009008BD0060004008
:102DA00002494058012800D00020704700600040D0
:102DB00030B5124B01460020D3F81044224609E0FA
:102DC000157A854205D1401C0A28F7DB4FF0FF3009
:102DD00030BD5268002AF3D1421CF9D00872D3F8F2
:102DE00010242AB152684A60D3F81024516030BDD3
:102DF0000022C3F810144A6030BD0000B007002064
:102E0000F0B595B01C4615460F4608461A9E00F0D0
:102E1000DFFA182109A8FDF708FB0E96CDE9095441
:102E20000023082203A9384600F0ECFA0598069022
:102E30000498ADF81C0000208DF8200003980826A7
:102E400000F00300012802D002281DD03CE00398C6
:102E50003346850AC0F3C2008DF81E0003980FA9FF
:102E6000C0F380008DF81F000398C0F38314A20004
:102E7000384600F0C7FA09A8009006AB22460FA911
:102E8000284600F001FA1FE00398840DC0F3C20049
:102E90008DF81E000398C0F380008DF81F00082CE9
:102EA00001D2254600E0082533462A460FA93846B8
:102EB00000F0A8FA2E44641B09AB06AA29460FA805
:102EC00000F032F9002CEAD1384600F08AFA15B049
:102ED000F0BD7047012001F0B3B8000010B5044800
:102EE000FFF760FABDE81040002001F0A9B800002B
:102EF0000401002008B5034A00924023024AFFF76C
:102F00007FFF08BD5D390000B0060020084A012996
:102F100002EBC00005D0022903D0032903D0042905
:102F200003D0002070470079704740797047000057
:102F30001050000010B5FFF7CDFF04210348FFF744
:102F400037FF02490120487210BD00000C0100202B
:102F50002DE9FE4FFEF746F910B10020BDE8FE8FC7
:102F60006D480021C0F81814BFF34F8FD0E9014617
:102F700004EA060100EB81014FF000090AE000BFFE
:102F8000C1F3891202EB9151641C0C4404EA06015E
:102F900000EB8101C9688A07F2D000216A468046A9
:102FA00004EA060308EB8300641CC06842F82100B1
:102FB000491C0229F4D3009800F00300022802D033
:102FC00001284DD0A2E000985022810D8A46B2EB34
:102FD000905F00D850210D4665F39F500090083156
:102FE0004E4800F0ACF9070077D000F0F1F94B46FD
:102FF00008226946384600F00BFA04EA0600311A46
:103000008900091D09F1080B8D4222D9424E0C3668
:1030100031B1CAB208EB8000691A91460C3004E065
:103020003046EAB2002691463146CDB201465B46B3
:10303000384600F0EDF90BEB09032EB12A46314674
:103040004FEA070000F0E4F90AF1030004EB9004F2
:103050003AE008EB80015B462A4638460C31F1E73E
:103060000098C0F38310062800D30620009960F36F
:103070008911C1F38310801C00918100274800F062
:103080005EF9070042D000F0A3F94B4608226946DA
:10309000384600F0BDF909F1080900250EE000BF2F
:1030A00004EA060008EB80014B46042238460C3146
:1030B000641C00F0ADF909F104096D1C0098C0F31F
:1030C0008310A842ECD847B1D8F81054D8F81804A7
:1030D000464660B1384600F084F917E0687A012866
:1030E00004D12A6828463946126890476D68002D39
:1030F000F4D1384600F075F90020FDF7BDFDD6F893
:10310000180400B974600020FDF7B8FDFEF76AF8F6
:1031100080F0010022E70000B0070020B44E00005C
:1031200000231A4600F0ACBD2DE9F0470E4680465C
:103130001C46924608293ED894F80C900020207333
:103140001946104600F06EFB0025B54206D218F86D
:1031500005201AA12046FFF74FF903E019A12046E8
:10316000FFF74AF96D1C082DEFD317A12046FFF792
:1031700043F90025B54210D218F80570FDF738F96B
:103180000068C05D10F03E0F01D03A4600E02E22EC
:103190000EA12046FFF730F903E00DA12046FFF70E
:1031A0002BF96D1C082DE5D301222146504600F075
:1031B0001BFB84F80C90BDE8F0870000202530321E
:1031C00078000000202020007C0000002563000023
:1031D00020000000114810B5FF218160002101602E
:1031E0004160C0F81814C0F8141480F81C140C487E
:1031F00000F0F5F800280FD10A480B490B4B401A94
:10320000C108002005E000BF00EB400223F82200C7
:10321000401C8842F8D3002010BD0000B0070020F9
:10322000B44E000050500000105000006401002017
:1032300002480349401AC00870470000505000007F
:103240001050000013B56846FEF76CFC08B1002072
:103250001CBD0248009950F831001CBD1050000000
:1032600070B508480125D0F8104480F81C5405E0DA
:10327000657221682046496888476468002CF7D148
:1032800070BD0000B00700202DE9FF4781460C9D6E
:1032900000200C462F7B2873984616462946184670
:1032A00000F0C0FA072E42D2DFE806F004090F163C
:1032B0001F2A360049462846FFF79EF837E0494660
:1032C00028462268FFF798F831E0D4E90023494600
:1032D0002846FFF791F82AE0A0680090D4E900237F
:1032E00049462846FFF788F821E0D4E90201CDE9F4
:1032F0000001D4E9002349462846FFF77DF816E08F
:1033000004F1080007C88DE80700D4E90023494606
:103310002846FFF771F80AE004F108000FC88DE8AD
:103320000F00D4E9002349462846FFF765F800223C
:103330002946404600F058FA2F73BDE8FF872DE973
:10334000F041058A80462D1F4819C01CB0FBF5F0DE
:10335000C6B24046FEF707FC041E19D000202071BB
:1033600001206071E58000272546761EC4F80080A4
:103370000BE04046FEF7F7FB60B16179491C6171D3
:10338000286005467F1CC0F80080B742F1D3204674
:10339000BDE8F081204600F002F80020F8E72DE9B2
:1033A000F041457901466B1E002201E00968521C7C
:1033B0009A42FBD30F680146002605E038460C68A8
:1033C000FEF7F0FB2146761CAE42F7D3BDE8F08154
:1033D00008B501216A46001DFCF74FFF08BDFEF746
:1033E000F6BB38B50446001D01216A46FCF752FFC2
:1033F000009810F0FF0F04D12046BDE83840FFF7D9
:10340000CEBF38BD38B501240094FEF74FFB38BD60
:1034100038B500240094FEF749FB38BD064910B5C5
:1034200000204870091D0860BFF35F8F03490448FE
:1034300000F0DBF8002010BDF8000020644E000012
:10344000A406002010B50020FDF716FCF1EE100ACE
:1034500020F09F00E1EE100ABFF35F8F0549402086
:10346000C1F880020020FDF709FC20BF40BF20BF4B
:1034700010BD000004E000E02DE9F0410446002703
:1034800090460E463846FDF7F7FB204600F038F828
:1034900030B105270020FDF7F1FB3846BDE8F0818B
:1034A00020680568B8F1000F05D10168204600F0DA
:1034B0003FF821680860E268012A0CD0022A0ED089
:1034C000042A11D06068082A13D005FB0201304697
:1034D000FCF792FFDEE76068405D3070DAE7606815
:1034E00030F815003080D5E7606850F8250030606E
:1034F000D0E700EBC500D0E90010C6E90010C9E72D
:10350000016808684968884201D10120704700209D
:10351000704701680A6849688068884201D9491C77
:1035200000E00021914201D1012070470020704746
:103530008068884201D9481C7047002070472DE9F7
:10354000F04104464FF000080E464046FDF794FB5C
:103550002046FFF7DEFF070009D0207C38B14FF08E
:1035600004080020FDF78AFB4046BDE8F081206892
:10357000456841682046FFF7DBFF2168486037B1A6
:10358000206801682046FFF7D3FF21680860E268E1
:10359000012A14D0022A16D0042A19D0082A1CD0D5
:1035A0006068314605FB0200FCF726FF204600F06C
:1035B00067F921688A688242D3D28860D1E761685E
:1035C00030784855F2E76168308821F81500EDE75A
:1035D0006168306841F82500E8E7D6E900016268D3
:1035E00002EBC502C2E90001E0E701600968416041
:1035F000AFF3008010B5D0E900215368994201D1A2
:10360000002104E0D1E90034A34202D019468160D0
:1036100010BD08314160F0E770B5044603460D4621
:10362000084A0830FEF7FEFC010008D1206800229D
:10363000427604C03CCD3CC0A0F1100202600846B6
:1036400070BD0000853900002DE9F0410546046891
:1036500086B01E4690460F460020FDF70DFB607EAB
:1036600020B111250020FDF709FB1AE0012060764A
:103670000020FDF703FB18220C496846FCF7BCFE4E
:10368000CDE902578DF810806946284600F010F801
:10369000050002D005E006B1B047607E0028FAD1EF
:1036A000A57E06B02846BDE8F0810000704E0000FF
:1036B00073B50546406801A9FFF741FF040003D137
:1036C0000021284600F080FA20467CBD10B5044653
:1036D0000830FEF743FD21680020086010BD405807
:1036E000002800D00120704708B500224250405801
:1036F000009008BDD0F80403084000D001207047B6
:103700004058002800D00120704708B500224250E0
:103710004058009008BD00000449084490F930006A
:10372000082801DB0120704700207047CC040020EE
:103730000449084490F93000082801D2012070475C
:1037400000207047CC04002070B5034600791B4967
:1037500001EB40101968027F4FF0FF30002AD1F8CA
:103760000C25D1F81465D1F80855D1F8104504D0CE
:10377000C1F80C05C1F8140503E0C1F81405C1F83F
:103780000C051968C1F80805C1F81005501C02D0D5
:103790001046FFF7F9F9701C02D03046FFF7F4F934
:1037A000601C02D02046FFF7EFF9681C04D02846C1
:1037B000BDE87040FFF7E8B970BD00005805002073
:1037C000F0B40D46C16914468A884988954208D2EA
:1037D0008C4206D2866821462846B446F0BC1A467A
:1037E0006047F0BC7047000010B50C46C17949B184
:1037F0001AB109A12046FEF7FFFD2046BDE81040A2
:10380000FEF707BE007A0028F3D0044804A102683E
:103810002046FEF7F1FDECE70D0A00003C01002018
:103820002573000070B50446C0790D4600281CD1F0
:10383000207A50B1A179A088FFF768FB0B4951F8B5
:1038400020200BA12846FEF7D7FDA0880021FFF716
:10385000F9FC03460549A079143951F8202028467F
:10386000BDE8704003A1FEF7C7BD70BD3C0100205C
:10387000257300003C25733E2025733A200000008C
:1038800001680A684968914201D3881A70478068C4
:10389000801A0844401C7047F8B515460246C069B6
:1038A0001C460E46DDE90637818840888E420FD2DD
:1038B00085420DD2891BA14200DA8CB2401B98428E
:1038C00000DA83B20097D768224629463046B847C7
:1038D000F8BD000070B5012670044FF0E02100250E
:1038E000C1F88001084C4010C4F84803C4F808032C
:1038F00066602F20FEF7E0F9A660044C2F20A5603B
:10390000FEF7DAF9A57070BD00100140E00000205C
:1039100070B50546C87D0C4600284FF484712846D2
:103920000AD0FFF7E1FED5F81805627EE1688854F9
:10393000607E401C607670BDFFF7D6FED5F8180596
:1039400070BD1FB501238DF800308DF8081001926D
:10395000D0E90012684690471FBD000010B5084C22
:103960000020D2B22070201DFEF78AFC08B1FDF7BE
:10397000EBF86078002802D021780029FAD010BD39
:103980000001002010B50C4601462068097849B1B5
:103990000321204600F0F0FA2046BDE81040012146
:1039A00000F012B9027E0021521C0368D2B21B7CC7
:1039B0009342EED90276204600F052F90100E8D198
:1039C00010BD09688876002048767047F8B5002653
:1039D000044681F8206004200D46C4F80803C4F8AA
:1039E0000861D4F808010090107910B110680078CF
:1039F00000E0E87FC4F81C051079012802D910689E
:103A0000407803E0107B012802D9E87FC4F81C0548
:103A1000286818B10420C4F80403F8BDD4F80801DC
:103A20000028FBD0C4F80861D4F8080100902946AA
:103A3000204600F0ABFA0028F0D1A87FFF28ECD098
:103A4000BDE8F840FFF765B9084900EB400001EB1D
:103A5000C001064810B5F038FFF72AFE002803D051
:103A6000BDE81040FDF770B810BD0000B44500007F
:103A700070B500240E4D02E001D3072010E00C4881
:103A800004EB440605EBC6011038FFF711FE30B910
:103A90000748603000EBC6017038FFF709FE08B137
:103AA000FDF752F8641CE4B2042CE5D370BD0000AD
:103AB000D44400001FB51B4C04F158000FC88DE81A
:103AC0000F006946A4F17800FFF7A6FD002826D173
:103AD0004FF400711448FCF7A8FC01212820FFF7DF
:103AE000A5F801212E20FFF7A1F82E20FFF78AF874
:103AF00043F69820FEF79AF82E20FFF700F94FF4CE
:103B0000FA60FEF793F8683494E80F008DE80F0030
:103B1000002301226946A4F1E000FFF795FD04B0FF
:103B200010BD00003C4500004C02002070B5C1F300
:103B3000C703C3EBC314C1F3C7050444C5EBC516E3
:103B400030442844084D2344074C405D074D01F0A4
:103B500007011C44695C01238B400AB1184300E053
:103B60009843207070BD00004C020020BC4400004F
:103B70002DE9F0438618DDF81C908046802E15D282
:103B8000CF18202F12D2CDB20EE000BF08F0FF04F4
:103B900006E04A4629462046FFF7C8FF641CE4B207
:103BA000A642F6D86D1CEDB2AF42EFD8BDE8F08367
:103BB0002820FFF727B82820FFF7A1B80148FFF712
:103BC00085BD0000C44400002DE9F0410E460546C5
:103BD000002700202C68FDF74FF83EB928680068E0
:103BE00020B1BDE8F0410020FDF748B80022214691
:103BF0006868FFF741FC08B12760F2E70020FDF795
:103C00003DF82068406920B320684669102231469B
:103C10006069FCF71CFC58B105F108008046FEF70E
:103C20009DFA2B460D4A31464046FEF7FBF9666188
:103C3000277628680068016809B1806888472846A7
:103C400000F00EF8010006D0284600F095F9012694
:103C5000BFE7261DDAE7BDE8F081000085390000E6
:103C600008B550F8082B117E1268D26802EB0111DA
:103C70000A7B00920A798B680968FEF761FA08BD31
:103C80002DE9F843224C8846054691461F46694671
:103C90001846A668FDF76CFA88B3009800EA06019A
:103CA00004EB810252F80C1F21F00301491C401C57
:103CB00011605FEAC56C02D541F0040101E021F01A
:103CC000040165F3C50167F3891168F39F21116051
:103CD00000EA0602290C04EB8202401CD16000902D
:103CE00000200AE0009959F8203001EA060204EBAE
:103CF0008202491CD360401C0091B842F2D394F870
:103D00001C0401E0FFF724F90028FBD1BDE8F8838B
:103D1000B007002010B5224C207830B301284FF0B6
:103D20000002204811462CD0FDF7CAFB08B1FCF771
:103D30000BFF002201211B48FDF7C2FB08B1FCF775
:103D400003FF012202211748FDF7BAFB08B1FCF777
:103D5000FBFE1448FEF74EFD2078401CC0B22070D8
:103D6000022801D90020207010BD012200210D4839
:103D7000FDF7A6FB08B1FCF7E7FE002207E00022F2
:103D8000E0E7FDF79DFB08B1FCF7DEFE0122012113
:103D90000448FDF795FB0028F1D0FCF7D5FEEEE7CF
:103DA00008000020584400002DE9F84F1D4C002564
:103DB0006846D4E901A6FDF721FB002738B30023AC
:103DC000009A61681CE0D1F800C00846944503D908
:103DD000ACEB02020A6015E0A2EB0C026344076040
:103DE000D0F80CC0C1698146BCF1000F08D006EBC9
:103DF000030828F07F48C0E9018CC9F81C5005462B
:103E00000029E0D128466160FDF70AFD03E028465D
:103E1000FDF706FD10B15046FDF740FAE770BDE82A
:103E2000F88F0000E00000200D4B10B5596831B14B
:103E300002680C68A24204D8A21A0A60C1615860E4
:103E400010BD0B4603E00B46C969121B21B10C687B
:103E50009442F8D3A41A0C600260C161D86110BD0D
:103E6000E00000202DE9F041144E77683D462C46D5
:103E700003E0844204D02546E469002CF9D11BE01C
:103E8000D4B1A5420BD1F869706040B90C4901204A
:103E900088600021B160F0702F20FDF70DFF2168D0
:103EA000E069E86110B102681144016070688742FE
:103EB00002D00120BDE8F0810020FBE7E0000020F7
:103EC00000100140F8B5064600240D462046FCF7D8
:103ED000D3FE684600F03EFA68B1057008494660B6
:103EE0009DF8000048700020FCF7C8FE1420FCF785
:103EF00001FC2046F8BD04240020FCF7BFFEF8E7D3
:103F0000980500202DE9F041194D6C68002C2CD04B
:103F1000184800270068A968B846401A20F07F4674
:103F20002068B0420CD82146361A0744E469087C60
:103F300020B181F81080886949698847002CEFD149
:103F400029786878814206D1401CC0B26870022886
:103F500001D185F80180064869780C3040F821705D
:103F6000BDE8F0411420FCF7C5BBBDE8F0810000BE
:103F7000E00000200415014000680B46006842681C
:103F8000002A02D0816818461047704738B5D0F82B
:103F900018258DF8002091F820200B7E9A4203D23C
:103FA0009DF800304C69A35491F82020521CD3B2E4
:103FB00081F8203091F821405A1C640707D50C7C09
:103FC000944200D90A740C7E944200D90A760D7C82
:103FD000954202D9C968895C03E00C7E944203D9FA
:103FE000C97FC0F81C1503E0AB4201D3A34201D244
:103FF000012038BD002038BD70B50C4605464FF491
:104000008E71FFF771FBA18AA068415CA08A401CF9
:10401000A082C5F81C1570BD1FB500228DF80020C8
:104020008DF80810816801918275D0E90012684608
:1040300090471FBD01490120087070470001002012
:1040400010B588B0044620220E496846FCF7D4F922
:1040500006200090C01F0190029003904FF0EB707B
:1040600006900CB1084A00E0002269460748FEF7B6
:10407000D3F808B1FCF768FD0448001F447008B08D
:1040800010BD0000944E00003540000004010020E7
:104090002DE9FF470C4605464FF40071FFF72AFB58
:1040A00001274FF40178002618B34FF4927949465E
:1040B0002846FFF714FBE0B149462846FFF714FBFA
:1040C000C5F80883A07E00B96F6002208DF800005B
:1040D000D5F88004C5F880040390E07D8DF80800D1
:1040E000E0680190E6752676D4E9001268469047AC
:1040F00027E004212846FFF7FDFA10B34FF484713E
:104100002846FFF7ECFAE0B121462846FFF700FC0D
:10411000E07D617E884214D1207E38B1617EE26804
:10412000E0752069E0602676667607E0A07E00B93B
:104130006F60C5F80883E675617EE2682046FFF788
:1041400000FC4FF48E7841462846FFF7C8FA88B144
:10415000A08AA17D884204D221462846FFF74CFF61
:1041600008E041462846FFF7BFFAA17D11B120467D
:10417000FFF752FF4FF4A27841462846FFF7AFFA07
:10418000002812D041462846FFF7AEFAA07E00B1C3
:104190002F60E07D002808D0E675617EE26804B0FB
:1041A0002046BDE8F047FFF7CCBBBDE8FF872DE90F
:1041B000FF410C464FF4927705463946FFF7A0FAC7
:1041C0000026C0B139462846FFF79FFA02208DF835
:1041D0000000D5F88004C5F880040390D5F83C05AC
:1041E0008DF80800E0680190E6752676D4E90012A3
:1041F0006846904724E04FF4887739462846FFF711
:104200007FFAE8B139462846FFF77FFAD5F83C0532
:10421000C1B2E07D884213D1207E60B1E268D5F85A
:10422000000220F02000C5F80002207EE075206921
:10423000E060267601E0E675E2682046FFF781FB44
:104240004FF4A27739462846FFF75AFA68B1394643
:104250002846FFF75AFAE07D38B1E675D5F83C05F7
:10426000E268C1B22046FFF76CFB4FF4907631460E
:104270002846FFF745FA00280FD031462846FFF7B9
:1042800044FAA07D002808D0D5F84C0504B0C1B28E
:104290002046BDE8F041FFF7BFBEBDE8FF8100004A
:1042A0002DE9F05F8346DDE90A4A994690460D46BE
:1042B0000846012703E000BFB0FBF8F07F1C404533
:1042C000FAD2B94500D94F465FEACA7012D18CB113
:1042D0005FEA8A7002D5B9F1000F01D0202607E00D
:1042E000302605E031465846641EFCF76BFF0CB1E2
:1042F000A742F7D35FF00106B9F1010F02D9A9F186
:10430000010903E0B5FBF6F0404502D306FB08F6D1
:10431000F2E7DFF83C9000BFB5FBF6F000FB165566
:1043200019F800105846FCF74DFFB6FBF8F6002EC2
:10433000F2D15FEACA7009D0002C07D0A74205D29B
:1043400020215846641EFCF73DFFF5E7BDE8F09FCD
:104350003C4E00000A494A788B78521CD2B29342F4
:1043600000D100220B78934201D1002070470270E7
:10437000487800EB400001EBC000001D70470000D2
:10438000980500202DE9FF4F487883B0101AC0B27D
:104390000C4600904968984611F82000C01D4FEA6D
:1043A000D009202A01D0002734E0B8F80000217895
:1043B00000EB51003AE0002628E000250098022199
:1043C00001EB800B109807FB096A38440190616883
:1043D000C5F1070231F80B00A1680144012011F872
:1043E0000A10904001420BD0B8F8000005EBC6015E
:1043F000084481B20198119B82B20398FFF7E0F95B
:104400006D1CEDB2082DE2D3761CB6B24E45D4D366
:104410007F1CBFB22078B842CDD86168009811F8EF
:104420002000E1780144B8F800000844A8F8000032
:1044300007B0BDE8F08F0000C401002005000100B6
:104440000000150008000000000013000200020038
:104450000000130002000200B53A0000BD3B00005E
:104460002D3B0000713B0000713A0000F913000081
:10447000493A00000000002000001400000016006F
:1044800001000000000017000000190001000000FA
:1044900000001900000019000100000000001900D0
:1044A000000017000100000024020020E4010020A9
:1044B0000F000000040000000100000007060504D2
:1044C0000302010030020020A84400000030004038
:1044D00003000000B13B00000000000000000000ED
:1044E0002C0000200100000000000000B13B000093
:1044F00000000000000000003C000020010000005F
:1045000000000000B13B00000000000000000000BF
:104510004C0000200100000000000000B13B000042
:1045200000000000000000005C000020010000000E
:1045300000000000B73B0000000000000000000089
:104540006C0000200100000000000000B73B0000EC
:1045500000000000000000007C00002001000000BE
:1045600000000000B73B0000000000000000000059
:104570008C0000200100000000000000B73B00009C
:1045800000000000000000009C000020010000006E
:10459000000000002F2DFF2C07FF0000000000800E
:1045A000000000001D0000200C00000000000000C2
:1045B00000000000B13B000000000000000000000F
:1045C000E44500000100000000000000B13B0000D5
:1045D0000000000000000000F445000001000000A1
:1045E00000000000AC0000200100000000000000FE
:1045F00000000000AD0000200100000000000000ED
:10460000000000000D0E0F100B0C18194C040020B8
:104610006C040020980400200B000300350E0000FD
:104620000C000300350E000018000300350E0000DA
:1046300019000300350E0000000000500003005078
:104640000000C08080808080800000C000000000EA
:104650000000A0A0A0A000000000000000000000DA
:104660000000222222FF242424FF444400000000F2
:1046700010384480C060380C0484C47810000000F6
:104680000000E3A2A4E808102629498600000000E3
:10469000000038484040205089864639000000001C
:1046A000000080808080000000000000000000000A
:1046B000202040408080808080808080804040201A
:1046C00080C040202020202020202020202040804A
:1046D0000000C0E0C000000000000000000000007A
:1046E00000000008080808FF08080808000000008B
:1046F00000000000000000000000008080808000BA
:104700000000000000000000F800000000000000B1
:104710000000000000000000000000C000000000D9
:10472000000003020404080810102020404080000C
:1047300000003844C682828282C6443800000000ED
:1047400000003070B03030303030303000000000C9
:10475000000078C8840408103060C0FC000000002D
:10476000000070C8080830080484C8780000000001
:1047700000000C0C1414244444FE04040000000047
:1047800000007C8080F88C0404048C780000000019
:1047900000000810207844868286C478000000005B
:1047A0000000FE06040C081010202040000000004D
:1047B000000070C888C87088848488780000000071
:1047C000000078C4868284C4781030600000000045
:1047D0000000000000C00000000000C00000000059
:1047E0000000000000C00000000000C04040800049
:1047F000000000020C3060C06018060200000000DB
:10480000000000000000FF0000FF000000000000AA
:1048100000000080601806020C30C080000000001C
:104820000000708888081830202000200000000058
:104830000000000078489CA4A49C403C00000000BC
:10484000000000000C000C001400120032002300D5
:1048500021007F004080C0800000000000000000B8
:104860000000F88C848CF884828286FC00000000B2
:1048700000003E62C080808080C0623E0000000078
:104880000000F88482828383828284F80000000022
:104890000000F8808080F880808080F800000000B0
:1048A0000000F8808080F880808080800000000018
:1048B00000001E6140808F818141611E0000000068
:1048C000000083838383FF8383838383000000004E
:1048D00000008080808080808080808000000000D8
:1048E0000000202020202020202020C000000000E8
:1048F0000000868890A0C0A09088848200000000FC
:104900000000808080808080808080F8000000002F
:1049100000000000C0C0C0C0A140B34092408C4025
:104920008C40884080408040000000000000000073
:10493000000081C1A1B191898D87838100000000B1
:10494000000000003E006300C18080808080808085
:104950008080C18063003E00000000000000000075
:104960000000F8848484F88080808080000000004B
:10497000000000003E006300C18080808080808055
:104980008480C38063003EC000000000000000007F
:104990000000F8848484FC908888848600000000ED
:1049A000000078C480C0700C048684780000000089
:1049B0000000FE1010101010101010100000000069
:1049C00000008282828282828282463C0000000055
:1049D00000000000C08041804100610022002200F0
:1049E000160014001C000C00000000000000000075
:1049F000000000008404C60C420862182310231033
:104A000013B014A01CE008400000000000000000EB
:104A10000000C362241C1818142662C100000000A4
:104A20000000C162261418080808080800000000E9
:104A30000000FE040C0810302040C0FE0000000002
:104A4000E08080808080808080808080808080E0A6
:104A500000008040402020101008080404020300D9
:104A6000E02020202020202020202020202020E0C6
:104A7000000008000C001400160022002200410073
:104A8000C1800000000000000000000000000000E5
:104A9000000000000000000000000000FE00000018
:104AA0000000C060000000000000000000000000E6
:104AB0000000000000708808F88898E800000000F6
:104AC0000000808080B8CC848484CCB800000000D2
:104AD0000000000000709080808090700000000056
:104AE0000000040404748C8484848C74000000002E
:104AF0000000000000708888FC80887000000000C2
:104B00000000704040E04040404040400000000055
:104B10000000000000748C8484848C74048870000D
:104B20000000808080B8C8848484848400000000F1
:104B30000000C00000808080808080800000000035
:104B40000000600000606060606060606040C00005
:104B5000000080808098B0E0E0B0988808000000F5
:104B60000000808080808080808080600000000065
:104B700000000000000000000000FB80CCC0884066
:104B80008840884088408840000000000000000005
:104B90000000000000B8C884848484840000000001
:104BA0000000000000708884848488700000000089
:104BB0000000000000B8CC848484CCB880808000E1
:104BC0000000000000748C8484848C74040404004D
:104BD0000000000000B0C0808080808000000000E5
:104BE0000000000000384840380CCC78000000007D
:104BF0000000404040F0404040404038000000008D
:104C000000000000008484848484CC7400000000D0
:104C10000000000000C44448682830100000000074
:104C200000000000000000000000D880498049001A
:104C30004D0035003600320000000000000000008A
:104C40000000000000C64C3810384CC600000000C0
:104C500000000000008484848484CC740488700084
:104C60000000000000F818302040C0F800000000EC
:104C700060404040404080808080404040404060F4
:104C80000000808080808080808080808080000024
:104C90008040404040404040604040404040408074
:104CA0000000000000000062528C000000000000C4
:104CB0000200000003001000080020000600300081
:104CC0000800400008005000010060000300700070
:104CD00003008000030090000800A0000100B00065
:104CE0000500C0000200D0000800E0000700F0004E
:104CF0000400000106001001060020010700300139
:104D00000600400107005001070060010600700125
:104D100007008001020090010200A0010700B0011D
:104D20000800C0010700D0010500E0010600F00105
:104D300009000002070020020700300208004002BC
:104D400005005002050060020800700208008002A1
:104D5000010090020300A0020700B0020500C0029B
:104D60000A00D0020800F002090000030600200338
:104D70000A003003070050030700600307007003B8
:104D800007008003090090030E00B0030800D00361
:104D90000800E0030700F00303000004080010040B
:104DA00003002004090030040700500403006004DD
:104DB0000500700406008004040090040600A004AE
:104DC0000600B0040400C0040600D0040600E0049D
:104DD0000200F00403000005050010050300200593
:104DE0000A00300506005005060060050600700543
:104DF00006008005040090050600A0050500B0052A
:104E00000600C0050600D0050900E0050700000601
:104E100006001006050020060300300601004006CB
:104E200003005006070060060F217E02B04C000010
:104E30004046000078050020030000003031323386
:104E40003435363738394142434445460000000086
:104E50000000000000000000000000000000000052
:104E6000000000004C4E0000644E000004000000F2
:104E700000000000C3390000000000000000000036
:104E80000000000000000000F52E0000DD2E0000F4
:104E9000D32E0000FFFFFFFFFFFFFFFFFFFFFFFF1D
:104EA000FFFFFFFF00000000000000000000D6012F
:104EB000070100002001002018010020200100202F
:104EC000F0060020180000000040404040404040F4
:104ED00040404141414141404040404040404040CD
:104EE0004040404040404040400502020202020271
:104EF00002020202020202020220202020202020C0
:104F000020202002020202020202909090909090D3
:104F10001010101010101010101010101010101091
:104F20001010101002020202020288888888888805
:104F300008080808080808080808080808080808F1
:104F4000080808080202020240000000C94E0000E2
:104F50007761726E696E6700646562756700000054
:104F60001B5B313B33306D001B5B306D000000007C
:104F70001B5B313B33316D001B5B313B33326D00CA
:104F80001B5B313B33336D001B5B313B33346D00B6
:104F90001B5B313B33356D001B5B313B33366D00A2
:104FA0001B5B313B33376D00696E666F000000009C
:104FB0006572726F72000000636C6F636B000000BB
:104FC0006770696F74650000737069007561727451
:104FD0000000000062616C6C6F630000676678001F
:104FE0007077725F6D676D74000000006170700013
:104FF0005050000000000020C4010000AC0400007C
:10500000C8500000C40100200C2A0000240A00003F
:10501000B84F000000000000C04F0000000000007A
:10502000C84F000000000000CC4F0000000000004E
:10503000D44F000000000000DC4F0000000003001F
:10504000E04F000000000000EC4F000000000300F3
:10505000211220428013B3402C10E0B2052AB10582
:105060002AB005300DE2AEA2A0C0222F40AF8117BA
:10507000A61A092DB205DA0E10DA1310DA18101379
:105080004C023A206C71DACC10DB4C0320D91003AF
:1050900057A6A712204240031E884E23B04F1A5035
:1050A000041AA8041A58041A68041A60041A70042E
:1050B0001A78041A80041A88041A90041A98041A98
:0850C000A00411046090D0036C
:0400000500000201F4
:00000001FF
