:020000022000DC
:102000000000042079800200A1800200A380020069
:10201000A5800200A7800200A98002000000000045
:10202000000000000000000000000000AB80020083
:10203000AD80020000000000AF800200B18002000D
:10204000914E0200B5C30400E1AD0400B38002006C
:10205000B3800200B3800200D1520200B3800200BC
:10206000B3800200B3800200B3800200B38002009C
:10207000B380020091AA0400B3800200B380020082
:10208000B380020095310200B3800200B3800200E9
:1020900035320200B380020079850200B38002006D
:1020A000B3800200B3800200B3800200B38002005C
:1020B000B3800200B38002000000000000000000B6
:1020C000B3800200B3800200B3800200B38002003C
:1020D00005A30400B3800200B3800200B3800200B5
:1020E000B3800200B3800200B38002000000000051
:1020F00000000000B380020000000000B380020076
:1021000000000000000000000000000000000000CF
:1021100000000000000000000000000000000000BF
:1021200000000000000000000000000000000000AF
:10213000000000000000000000000000000000009F
:10214000000000000000000000000000000000008F
:10215000000000000000000000000000000000007F
:10216000000000000000000000000000000000006F
:10217000000000000000000000000000000000005F
:10218000000000000000000000000000000000004F
:10219000000000000000000000000000000000003F
:1021A000000000000000000000000000000000002F
:1021B000000000000000000000000000000000001F
:1021C000000000000000000000000000000000000F
:1021D00000000000000000000000000000000000FF
:1021E00000000000000000000000000000000000EF
:1021F00000000000000000000000000000000000DF
:1022000010B5054C237833B9044B13B10448AFF330
:1022100000800123237010BD582B00200000000017
:102220001C750600084B10B51BB108480849AFF3F0
:1022300000800848036803B910BD074B002BFBD092
:10224000BDE81040184700BF000000001C750600E4
:102250005C2B0020E82A002000000000154B002B1A
:1022600008BF134B9D46A3F5803A00218B460F46CD
:102270001348144A121A3AF0E5FD0F4B002B00D018
:1022800098470E4B002B00D09847002000210400F7
:102290000D000D48002802D00C48AFF300803AF042
:1022A00075FD2000290004F069F83AF049FD00BFEF
:1022B00000000800000004200000000000000000F2
:1022C000582B00202C10012000000000000000000E
:1022D000704700BF704700BF00B583B0044B009348
:1022E000044A402300F01EF803B05DF804FB00BF71
:1022F000F9220200742B0020F8B5144672B10F4683
:102300000A26002579192246002004F025F9054403
:10231000241A08B9013E01D0002CF3D1F8BD00BF4A
:1023200004F058BAF0B595B0002415460F4608469B
:102330001E4602F0DDF93846234605A90822089515
:102340001A9D09960D950A948DF82C400C9402F074
:102350002DFA9DF81430079806998DF8104003F077
:102360000302012A0290ADF80C102CD0022A04D0EE
:10237000384602F0CDF915B0F0BDBDF81650C3F3E4
:10238000C202C3F38003C5F389158DF80E208DF8C2
:102390000F300826082D2C4628BF08243346224635
:1023A00038460EA902F002FA2D1B21460EA802AAF9
:1023B00008AB264400F0BCFC002DEBD1384602F0FF
:1023C000A7F915B0F0BDBDF81460059DC6F38316DE
:1023D000C3F3C20EB2000EA9C3F38004384608232B
:1023E000C5F395258DF80EE08DF80F4002F0DEF96B
:1023F00008AB0093284632460EA902AB00F000FC61
:10240000B6E700BF10B5054CFFF78AFF2046042150
:1024100000F0B6FB0123637210BD00BF182A002034
:1024200008B5104B10480022FF21C3F8182499600A
:102430001A605A60C3F8142483F81C2402F010F9BF
:1024400070B90A4B0A4A9A1AD20807D009490346BA
:102450000B520133934200F10C00F9D1002008BD6A
:1024600008BD00BFB42B002078EA05009075060077
:1024700048750600EC2A002021B9124A02EBC00080
:102480000068704730B410490E4D491BC9080ED082
:102490000E4B5A88824218BF002205D10FE0DC891A
:1024A000844203F10C0305D001328A42F7D10020A7
:1024B00030BC704705EBC200006830BC704728464E
:1024C000FAE700BF4875060090750600EC2A002068
:1024D000064B032903EBC00005D0042901D1407944
:1024E0007047002070470079704700BF48750600AC
:1024F0002DE9F04F844C626823689A4285B03CD045
:102500000023C4F81834BFF34F8F6068A56805EA4C
:102510000003023304EB8302111D127912F0030F42
:10252000024610D10B884988C3F3891303EB91133A
:1025300001331A4402EA0503023304EB8306311D1A
:102540003679B607EED004EB8303511C5E68019622
:10255000294004EB810306F00306DB680293022E98
:1025600002F10208684F0CD0012E67D02368181AB8
:1025700018BF012005B0BDE8F08F002005B0BDE810
:10258000F08FBDF806306148C3F38919B9F1500FD7
:10259000CA46A8BF4FF0500A6AF38F130AF1080128
:1025A000ADF8063002F05EF80646002800F087809D
:1025B00025EA080B0BF1010B02F09AF84FEA8B0B9E
:1025C000304601A90822002302F0C8F8DA4540F29B
:1025D0008E80BBF1000F74D107F10C0152463046DA
:1025E000082302F0BBF809F1030708EB9707D4F8BA
:1025F0001834DFF81481D4F81054002B59D14DB1A0
:102600006B7A2846314613B12B681B6898476D6872
:10261000002DF5D1304602F07BF804A8002300F825
:102620000D3D01F081FAD4F81834374A03B95760E8
:102630009DF8030001F0A0FA606897E7BDF8043048
:102640003248C3F38312062A28BF0622911C62F384
:1026500089138900ADF8043002F004F8064670B31F
:1026600002F046F80023304601A9082202F076F86D
:10267000BDF8043013F4707F44D04FF0000A4FF0DF
:10268000080908EA050104EB81014B460C3130468C
:10269000042202F063F8BDF804300AF1010AC3F322
:1026A000831308F10107534509F10409B846E8D836
:1026B0009DE7304602F02CF8D8F8040056E7786819
:1026C00054E708EA050107EB8101CBEB0A05304628
:1026D0005A460C31EDB2082302F040F830462A4643
:1026E00007F10C010BF1080302F038F87BE708EA68
:1026F000050107EB81010C3152463046082302F0F8
:102700002DF870E7474672E7B42B002078EA050001
:102710002DE9F04F89B008AB0026564C03F80D6D3B
:1027200002901846A3680391019301F0FDF9A56892
:102730006168D4F800806B180133C8EB0303032BE6
:102740005ED805F10109B646C8EB090904F5836CAA
:1027500004F214470126A2465CE8003F43EA060261
:102760004CE8002090F0000FF6D157E8003F43EA14
:10277000060247E8002090F0000FF6D101EA0503B9
:10278000023304EB8302101D127912F0030F0A4684
:1027900013D103884088C3F3891303EB90130133EB
:1027A0001A4402EA0503023304EB830B0BF1040025
:1027B0009BF804B01BF0030FEBD004EB8303023251
:1027C0005B68059303F00303012B4CD0022B06D169
:1027D000BDF81630C3F38913033302EB930257E8B5
:1027E000003F03EA0E0047E8000B9BF0000FF6D114
:1027F00013B1CAF80420114609EB0103032BABD92E
:1028000008F102039DF81300236001F0B5F9019E61
:10281000029D08EA0603023304EB830301211A79BF
:1028200061F30102C5F3001161F3820265F3C50291
:102830001A719A886FF389129A805968039808F17F
:10284000010260F39F215960324004EB820394F847
:102850001C24290CD9601AB1FFF74AFE0028FBD1CD
:1028600009B0BDE8F08FBDF81430C3F383131A44E8
:10287000B5E700BFB42B00202DE9F04F89B008ABBD
:1028800000265B4C03F80D6D01901846A368029179
:102890000093039201F048F9A5686168D4F80080BC
:1028A0006B180133C8EB0303042B5ED805F1010953
:1028B000B646C8EB090904F5836C04F214470126F7
:1028C000A2465CE8003F43EA06024CE8002090F094
:1028D000000FF6D157E8003F43EA060247E8002020
:1028E00090F0000FF6D101EA0503023304EB8302F6
:1028F000101D127912F0030F0A4613D10388408885
:10290000C3F3891303EB901301331A4402EA05035E
:10291000023304EB830B0BF104009BF804B01BF0B3
:10292000030FEBD004EB830302325B68059303F0E3
:102930000303012B55D0022B06D1BDF81630C3F38B
:102940008913033302EB930257E8003F03EA0E00BA
:1029500047E8000B9BF0000FF6D113B1CAF8042032
:10296000114609EB0103042BABD908F103039DF8D1
:102970001300236001F000F9009D019E08EA0503A1
:10298000023304EB830301211A79C6F3001061F3CB
:10299000010260F3820266F3C5021A719A8861F33C
:1029A00089129A8059683046029E08F1010266F346
:1029B0009F2108F102082A40596004EB820208EACC
:1029C000050304EB8303000C94F81C14D060039AF5
:1029D000DA6019B1FFF78CFD0028FBD109B0BDE822
:1029E000F08FBDF81430C3F383131A44ACE700BF73
:1029F000B42B00202DE9F04F8BB00AAD00265F4CC0
:102A000005F80D6D029005932846A3680391019384
:102A1000049201F089F8A5686168D4F800806B1809
:102A20000133C8EB0303052B5ED805F10109B64657
:102A3000C8EB090904F5836C04F214470126A24689
:102A40005CE8003F43EA06024CE8002090F0000FEB
:102A5000F6D157E8003F43EA060247E8002090F02D
:102A6000000FF6D101EA0503023304EB8302101DC7
:102A7000127912F0030F0A4613D103884088C3F37A
:102A8000891303EB901301331A4402EA050302335E
:102A900004EB830B0BF104009BF804B01BF0030F55
:102AA000EBD004EB830302325B68079303F003036C
:102AB000012B5CD0022B06D1BDF81E30C3F3891365
:102AC000033302EB930257E8003F03EA0E0047E8A6
:102AD000000B9BF0000FF6D113B1CAF80420114689
:102AE00009EB0103052BABD908F104039DF81B008A
:102AF000236001F041F8019D029E08EA05030233BC
:102B000004EB830301211A7961F30102C6F300117A
:102B100061F3820266F3C5021A719A88022161F399
:102B200089129A805868039A08F1010162F39F2084
:102B3000294008F1020208F10308586004EB810102
:102B400008EA05032A4004EB820294F81C0404EB13
:102B50008304330CCB60049BD360059BE36018B106
:102B6000FFF7C6FC0028FBD10BB0BDE8F08FBDF825
:102B70001C30C3F383131A44A5E700BFB42B002015
:102B800030B4144DD5F81044002154B1237A8B424F
:102B900014D0234602E01A7A8A420FD05B68002BD9
:102BA000F9D10172D5F810340A4A7BB15B684360F1
:102BB000D2F810345860084630BC704701310A29F9
:102BC000E3D14FF0FF31084630BC7047C2F8100423
:102BD0004360F0E7B42B002038B5084BD3F810441D
:102BE000012583F81C543CB12368657220465B685C
:102BF00098476468002CF7D138BD00BFB42B002083
:102C00002DE9F04784B01D460C9C002394F80C80FD
:102C10002373EB7981460E4617460BB3062F0FD868
:102C2000DFE807F0363B414804515E00B168F068C8
:102C300096E80C00009101904946204601F060F8AA
:102C4000EB792BB92B7AEBB92046334901F058F8D0
:102C5000204601F049F884F80C8004B0BDE8F08704
:102C60002B7A002B4BD1AA792C4BA88853F822A0A1
:102C70000021FFF701FC524603462949204601F096
:102C80003FF8CBE720462749274A01F039F8DBE730
:102C90004946204601F034F8D2E7494632682046DA
:102CA00001F02EF8CCE74946204696E80C0001F0EA
:102CB00027F8C5E7B16896E80C0020460091494620
:102CC00001F01EF8BCE7B1683069F76896E80C00BF
:102CD0000091029049460197204601F011F8AFE7B4
:102CE00096E80C00B168F068376976690396009140
:102CF000019049460297204601F002F8A0E7A97921
:102D0000A888FFF7E5FB094B064953F82020204629
:102D100000F0F6FFA7E700BFD0F005008CEA050041
:102D2000C8EA0500C4EA0500D4EA0500A0EA0500E7
:102D3000082951D82DE9F0471D46002395F80C903D
:102D40002B73D379904607460E46002B45D00024BE
:102D500005E03A5D013400F0D3FF082C0AD0A6420A
:102D600028463049F5D828462F49013400F0C8FFDD
:102D7000082CF4D128462D49DFF8D4A000F0C0FF7C
:102D800000240DE03A5DDAF80030134401345B783A
:102D900013F0970F08BF2E2200F0B2FF082C0AD0C4
:102DA000A64228462249EDD828462249013400F09F
:102DB000A7FF082CF4D198F8073013B998F8083019
:102DC000F3B928461C4900F09BFF284600F08CFF11
:102DD00085F80C90BDE8F0877047137AB3B998F87E
:102DE0000620164BB8F8040053F822400021FFF7E4
:102DF00043FB224603461249284600F081FFA6E71E
:102E000028461049104A00F07BFFDAE79179908854
:102E1000FFF75EFB0D4B0B4953F82020284600F0CE
:102E20006FFFDCE7DCEA0500E4EA0500E8EA0500FC
:102E3000ECEA0500D0EA0500D0F005008CEA0500B8
:102E4000C8EA0500C4EA0500D4EA0500A0EA0500C6
:102E5000782A00204B4B1978002900F091802DE949
:102E6000F04F87B0DFF828C104910024012504E069
:102E70000134049BE4B29C4265D227B2DCF80060C6
:102E800016F83700A0F1200305FA03F93E4BC0F114
:102E9000200ED3E9002325FA0EFE49EA0E0905FAB1
:102EA00000F808EA020A09EA030B06EBC7015AEA2E
:102EB0000B0E0591DCD03449CDF810C022EA08028F
:102EC00023EA0903C1E9002302F0F2F916F837609A
:102ED000DDF810C0A6F1200205FA02F20192019974
:102EE000C6F120035FFA80FA25FA03F3A6F1200267
:102EF00019430AFA02F30393019105FA06F10091CE
:102F0000C6F120070399214B2AFA07F739430391A9
:102F10000AFA06F1D3E900230291DDE9000110402D
:102F2000194002460B46DDE902018B4208BF82428E
:102F30004FF0000B0AD0134B1B7804930134049B11
:102F4000E4B29C4299D307B0BDE8F08F059A576868
:102F500052780023A2F10102B2FA82F25209002F44
:102F6000E9D05B4506BF5245012100213046CDF82E
:102F700014C0B847034BDDF814C01B78049377E7FF
:102F8000704700BFAC300020D8300020D030002087
:102F9000A83000202DE9F8430746204800F088FDBE
:102FA000D0B91F4E0123A7F1200103FA01F5C7F1A3
:102FB0002002D6E9000123FA02F2154303FA07F4CE
:102FC00004EA000205EA0103134307D020EA0404DF
:102FD00021EA0505C6E90045BDE8F883384602F058
:102FE00067F9104FD7E9002398B144EA020845EA8F
:102FF0000309D6E9002314431D43C7E90089C6E944
:1030000000450949054809680022BDE8F84300F079
:10301000F5BC22EA040823EA0509EAE7B0300020FB
:10302000D8300020D0300020A4300020F0B5042A91
:1030300083B0164602D8072003B0F0BD05460F4600
:1030400001F0D6FF002836D01D4BDFF88CC0DFF82A
:103050008CE01C481C491D60002200237C1E8CF85B
:103060000070CEF80060C0E90023C1E90023E4B29B
:10307000DFB10327002600E01C4623B205EBC302A4
:1030800015F833009378114A8DF8053001A98DF8B1
:1030900004708DF806608DF8076001F0B3FF631EC1
:1030A0000028C9D1DBB2002CE6D1094A0948002129
:1030B00000F092FCC0E701F055FF0028C4D0BBE748
:1030C000A8300020D0300020D8300020952F0200FA
:1030D000552E020050EB0500AC300020A43000203B
:1030E00070B5084D2B785BB1074E00243368012181
:1030F00013F8340002F060F82B780134A342F5D8BD
:10310000002070BDAC300020A830002000B585B094
:1031100000230390194644F2010001AAADF80430DF
:10312000029300F003F805B05DF804FB10B5FFF75B
:1031300053FDFFF7DDF90028FBD1104C1049208822
:10314000000440F00100FFF7E3FA0E4B1B68DB07B9
:1031500000D5FFDE20880C49000440F00200FFF794
:10316000D7FABFF34F8F0949094BCA6802F4E062EE
:103170001343CB60BFF34F8F00BFFDE7EC2A002065
:1031800054EB0500F0ED00E060EB050000ED00E021
:103190000400FA05F8B5204A204B0025C2F840513A
:1031A000C2F84451C2F84851C2F84C51C2F800511B
:1031B000C2F804511B6813B31949D2F804250C68EE
:1031C000141B1A6824F07F44A2422F4609D8197CA8
:1031D000DE69A41A154499B91EB133461A68A24291
:1031E000F5D9104B10491A780B789A420DD00F4937
:1031F0000F4A41F823504FF48013C2F80031F8BD54
:103200001F745A6998699047E6E7531CDBB2022B9A
:1032100008BF00230B70EAE700100140E4300020F3
:10322000E0300020E8300020E9300020F8310020B4
:1032300000E100E02DE9F04F7D4A7E4913780978DE
:103240007D48994287B0066800F0E8810133DBB21F
:10325000022B08BF002379491370794A029108466E
:1032600052F82310036874488A19002522F07F421F
:103270000260AE462846A3B11A688A4200F2D6819F
:10328000DC68C3F800E0891A1044DA6934B18719A0
:1032900027F07F47DD619C605F601D461346002B71
:1032A000EAD1029A04931360049C01230593654BB1
:1032B000DFF894811B7801935F4BDFF890C1D3F85E
:1032C00000A0029B1F680023BB462F460093C14607
:1032D0001E464FF0010E37B37A68B9683D46FF6964
:1032E000CAEB020323F07F4363453CD80B442B60B9
:1032F0006E60AE6085F810E0EE61002C67D021684A
:103300008B4242D9204603E01168994244D21046CC
:10331000C2695B1A002AF7D12B60EA612346C561B6
:103320001C46002FD8D198F8003098F801209A4216
:1033300000F08E805A1C03EB430308EBC30399F89B
:1033400002109D68D2B2914289F800201A7908BF14
:1033500089F80070022A48D0032A3CD0012A22D0E2
:1033600023461C46DDE7C2EB0A0222F07F428A4276
:1033700002D28B1A2B60BBE72E606E60AE6085F8C0
:1033800010E0EE611CB321680023CB1A23602B46AA
:10339000EC61AB461C46C4E7C91A11602B60EA61B8
:1033A0002346C561BCE72A7C0392002AD8D1DA689B
:1033B0006A601969A9605869E86010339B68AB615D
:1033C000019B002B8CD0039B6B601A4688E72B4631
:1033D000AB461C46A5E70CB9C2E71C46E369267458
:1033E000002BFAD19B461C469BE754B1A54200F046
:1033F0000881234602E0954207D01346DA69002A85
:10340000F9D123462E741C468BE7AB4200F0FA80BC
:10341000E9692868D9610029F3D023460A68024483
:103420000A60009A2E749C4218BF01220092EAE7BB
:10343000E8300020E9300020E0300020E4300020B7
:10344000F8310020EA300020EC300020FEFF7F0041
:10345000029B9DF80420C3F800B0764BC3F800A08F
:10346000754B1A70009B1BB9049BA34200F0D081DE
:10347000002C00F03C81714D6E4BD5F804051B68A3
:103480006F4ED4F800C03178C21A22F07F42033266
:10349000002952D16B4FDFF8B091DFF8B0814FF4C3
:1034A00080314FF4003E0124C5F84413C5F80413DD
:1034B000C7F880E1C7F800E02C602F21D9F8005050
:1034C00000BF00BF00BF00BF00BF00BF00BF00BF04
:1034D00045452FD000BF00BF00BF00BF00BF00BFE9
:1034E00000BF00BF00BF00BF00BF00BF00BF00BFE4
:1034F00000BF00BF00BF00BF00BF00BF00BF00BFD4
:1035000000BF00BF00BF00BF00BF00BF00BF00BFC3
:1035100000BF00BF00BF00BF00BF00BF00BF00BFB3
:1035200000BF00BF00BF00BF00BF00BF00BF00BFA3
:1035300000BF00BF0139C3D1347062452CBF9A1857
:1035400003EB0C023D4922F07F43C1F84035D1F82E
:103550000425121A1B1A22F07F4223F07F43033204
:103560009A4248D9D1F80435374AC1F84035126833
:1035700036492F2300BF00BF00BF00BF00BF00BF00
:1035800000BF00BF8A422FD000BF00BF00BF00BFF6
:1035900000BF00BF00BF00BF00BF00BF00BF00BF33
:1035A00000BF00BF00BF00BF00BF00BF00BF00BF23
:1035B00000BF00BF00BF00BF00BF00BF00BF00BF13
:1035C00000BF00BF00BF00BF00BF00BF00BF00BF03
:1035D00000BF00BF00BF00BF00BF00BF00BF00BFF3
:1035E00000BF00BF00BF00BF013BC3D1154B4FF46C
:1035F0000032C3F80021104A0023137007B0BDE861
:10360000F08F2246D4F81CB0BBF1000F22D0D16954
:1036100010685B4600297FF401AF02E70C4B029370
:103620001B680493002505951C4640E6521A1A6053
:1036300037E600BFE0300020EA30002000100140F3
:103640000032002000E100E02C2A00200024F400D9
:10365000E43000207549764BC1F808E075492F2009
:10366000096800BF00BF00BF00BF00BF00BF00BFB0
:1036700000BF99422FD000BF00BF00BF00BF00BFF6
:1036800000BF00BF00BF00BF00BF00BF00BF00BF42
:1036900000BF00BF00BF00BF00BF00BF00BF00BF32
:1036A00000BF00BF00BF00BF00BF00BF00BF00BF22
:1036B00000BF00BF00BF00BF00BF00BF00BF00BF12
:1036C00000BF00BF00BF00BF00BF00BF00BF00BF02
:1036D00000BF00BF00BF0138C3D1D1691068002905
:1036E00000F09B800122DA465B46019296E64F4A43
:1036F000514B504E4E484FF480314FF40037012566
:10370000C3F88070C2F848132F23C2F8081355601D
:1037100031681E4600BF00BF00BF00BF00BF00BF32
:1037200000BF00BF81422FD000BF00BF00BF00BF5D
:1037300000BF00BF00BF00BF00BF00BF00BF00BF91
:1037400000BF00BF00BF00BF00BF00BF00BF00BF81
:1037500000BF00BF00BF00BF00BF00BF00BF00BF71
:1037600000BF00BF00BF00BF00BF00BF00BF00BF61
:1037700000BF00BF00BF00BF00BF00BF00BF00BF51
:1037800000BF00BF00BF00BF013EC3D195602B4A00
:10379000146000BF00BF00BF00BF00BF00BF00BF7C
:1037A00000BF81422FD000BF00BF00BF00BF00BFDD
:1037B00000BF00BF00BF00BF00BF00BF00BF00BF11
:1037C00000BF00BF00BF00BF00BF00BF00BF00BF01
:1037D00000BF00BF00BF00BF00BF00BF00BF00BFF1
:1037E00000BF00BF00BF00BF00BF00BF00BF00BFE1
:1037F00000BF00BF00BF00BF00BF00BF00BF00BFD1
:1038000000BF00BF00BF013BC3D10D4B1C70F2E6EF
:10381000059B002B3FF4EFAE2AE601231A460193E5
:103820008A468B460B4600922E74ECE50010014050
:103830000024F4002C2A002000E100E0E030002009
:10384000003200202DE9F041594B5A4A5A4D5B4E47
:103850004FF480344FF400310120C2F88010C3F8D7
:1038600048432F21C3F8084358602D680C4600BF19
:1038700000BF00BF00BF00BF00BF00BF00BFB54218
:103880002FD000BF00BF00BF00BF00BF00BF00BF00
:1038900000BF00BF00BF00BF00BF00BF00BF00BF30
:1038A00000BF00BF00BF00BF00BF00BF00BF00BF20
:1038B00000BF00BF00BF00BF00BF00BF00BF00BF10
:1038C00000BF00BF00BF00BF00BF00BF00BF00BF00
:1038D00000BF00BF00BF00BF00BF00BF00BF00BFF0
:1038E00000BF013CC3D1364C98600020206000BF6F
:1038F00000BF00BF00BF00BF00BF00BF00BFB54298
:103900002FD000BF00BF00BF00BF00BF00BF00BF7F
:1039100000BF00BF00BF00BF00BF00BF00BF00BFAF
:1039200000BF00BF00BF00BF00BF00BF00BF00BF9F
:1039300000BF00BF00BF00BF00BF00BF00BF00BF8F
:1039400000BF00BF00BF00BF00BF00BF00BF00BF7F
:1039500000BF00BF00BF00BF00BF00BF00BF00BF6F
:1039600000BF0139C3D1174D1749DFF86080DFF878
:1039700060C0DFF860E028704FF48016E0250B2768
:10398000C8F800008CF800008EF80000087048703D
:103990008F70C2F8806182F814531660C3F808056E
:1039A00082F81153D3F804352360BDE8F08100BFDD
:1039B0000010014000E100E02C2A00200024F40067
:1039C000E030002000320020EC300020E430002005
:1039D000E8300020E9300020074B9B780BB9082025
:1039E00070473AB130B10368187C0028F7D1597498
:1039F0005A61704707207047EC3000202DE9F043F2
:103A0000284CA37883B01BB9082003B0BDE8F0832D
:103A10000028F9D0042903D8072003B0BDE8F083BB
:103A20004369002BF0D0064602A8737C0025012BC9
:103A300000F8015D0CBF8946A94690460F4600F08C
:103A400073F86378A07821785A1CD2B2904208BFEC
:103A50002A4691421FD003EB430304EBC3031946EC
:103A60004FF0010E41F8086F0F4883F804E0D0F8DA
:103A700004654E608F609DF80700C3F81490C3F88A
:103A80001880627000F078F8084B4FF480122846D6
:103A9000C3F80021B9E79DF8070000F06DF8042095
:103AA000B3E700BFEC3000200010014000E100E06F
:103AB00070B51B4CA37882B013B9082002B070BD5A
:103AC0000028FAD04369002BF7D0064602A800254B
:103AD00000F8015D357400F027F86278A07821784D
:103AE000531CDBB2984208BF2B46994212D002EB1E
:103AF000420204EBC20202219DF807009660117198
:103B0000637000F039F8074B4FF480122846C3F871
:103B10000021D3E79DF8070000F02EF80420CDE740
:103B2000EC30002000E100E0F0B4EFF3108472B656
:103B30000E4B9A68B2B90E4901259D60D1F880708C
:103B40000C4D2E463D401D60C1F88060D1F8845078
:103B50005D604FF0FF33C1F88430027004B962B683
:103B6000F0BC704701230370F8E700BFC0EE0020EF
:103B700000E100E0FC06FFBD094B9A6872B168B92C
:103B800010B4EFF3108272B606491C680C605C68D2
:103B90004C60986002B962B65DF8044B704700BF94
:103BA000C0EE002000E100E030B482B050E8023FF7
:103BB0001FFAA3F5C488A54202BFBFF32F8F0022CE
:103BC0000DE0C48925448489A54228BF2D1BC3EA82
:103BD000054540E80254002CE8D14FF001028DF871
:103BE00003200193019B9DF803200B6002F0FF036B
:103BF0002AB14B880068184402B030BC70471846A0
:103C000002B030BC704700BF0A884B889A4201D08E
:103C10000020704750E8022FC2EA224240E8022307
:103C2000002BF7D101207047B8B130B441688268E9
:103C30000468521AD2B2531E2160DBB242B101684D
:103C40000A685C1E551C0D601370E3B2FF2BF6D1A1
:103C500003680020187130BC70470E20704700BF09
:103C600070B582B002AB002503F8015D044618462A
:103C7000FFF75AFF236861681A688A4210D9511EFB
:103C800019602168A3680E68087912F8015C228A1D
:103C9000E4689B1BDBB2984205FB024538BF0B7101
:103CA0009DF80700FFF768FF284602B070BD00BF0F
:103CB00030B583B002AB002203F8012D054618464B
:103CC0000C46FFF731FF2A681368591C1160E96838
:103CD0002A8A641AB4FBF2F41C709DF80700FFF7FF
:103CE0004BFF03B030BD00BF826802B9704710B50A
:103CF000044643692168006998470023A36010BD0A
:103D00000EB400B582B0039929B102AA04AB42F8FF
:103D1000043D00F089F802B05DF804EB03B0704791
:103D20002DE9F84F1746B9428A4606461D46DDF88A
:103D300028B00B9A73D30B464FF00108B3FBF7F38F
:103D40009F4208F10108F9D9A84538BFA84612F0EA
:103D5000010902D1BBF1000F41D1B168012402E099
:103D6000013D07FB04F4012DFAD8BAFBF4F39F429E
:103D7000F7D92C4D02E0B168BAFBF4F34A1CB260EB
:103D80003268E85C5054B0687268904204FB13AA31
:103D900002D33046FFF7A8FFB4FBF7F4002CEAD1BA
:103DA000B9F1000F15D0BBF1000F12D0C34510D9E7
:103DB0002024B3683268591CB160D454B268736867
:103DC0009A420BF1FF3B06D2BBF1000F01D0C34575
:103DD000EFD8BDE8F88F3046FFF786FFF4E793078A
:103DE00018D42024C345B8D9B16833684A1CB260DE
:103DF0005C54B168736899420BF1FF3B05D2BBF18B
:103E0000000FABD0C345F0D8A8E73046FFF76CFFF2
:103E1000B168F4E7002D14BF20243024E2E74FF00E
:103E2000010891E778EB05002DE9F04F0D4685B0CC
:103E3000002900F0B2800B78DFF8E8A4064691462E
:103E40000135002B00F0A580252B40F0A2812946EA
:103E50004FF000080D4611F8013B2D2B00F0938127
:103E6000302B00F093812B2B00F085812A2B00F062
:103E70009E81A3F13002092A00F2BE816A1C00244F
:103E800004EB840403EB44042A2BA4F1300415460C
:103E900000F08E811378A3F13001092905F10102A8
:103EA000EED91A462E2A00F09081002701E015F87D
:103EB000012F02F0FB03682BF9D0253A532A63D86F
:103EC000DFE812F027016200620062006200620017
:103ED00062006200620062006200620062006200D2
:103EE00062006200620062006200620062006200C2
:103EF00062006200620062006200620062006200B2
:103F000062006200620062006200620062006200A1
:103F10006200620062006200620062006200620091
:103F2000620062006200620062004A016200620098
:103F30006200620062006200620062006200620071
:103F40003601CE006200620062006200CE006200B4
:103F500062006200620062006200A900620062000A
:103F60006E0062005400620062004A01D9F800301D
:103F70001A1DC9F80020196800943B46CDF804804A
:103F800030460A22FFF7CCFE01352B78002B7FF458
:103F900057AF337B002B40F06C8105B0BDE8F08F4C
:103FA000D9F800301A1DC9F8002018F0010F1F6859
:103FB00040F02581002F00F0A581384639F01DFB27
:103FC0008046444515D9A4B14FF0200B00E084B1E0
:103FD000B2683368511CB16003F802B0B26873680C
:103FE0009A4204F1FF3402D33046FFF77DFE444588
:103FF000EDD8013F17F8013F002BC5D0B2683168FA
:10400000501CB0608B54B26873689A42F2D3304649
:10401000FFF76AFEEEE7D9F80020131DC9F800305B
:10402000B36831681468581C3022B060CA54B36851
:104030007268934280F018813268581C7821B06011
:10404000D154B26873689A4280F00A810823002232
:1040500001922146009330461022FFF761FE93E75C
:10406000D9F800301A1DC9F80020D3F800B08BEA47
:10407000EB73A3EBEB73092B4FF0010108DD8AFB17
:104080000302DB17C3EBA203092B01F10101F6DCEC
:10409000B94238BF394634B1BBF1000F02DB18F02A
:1040A000040F00D0013C18F0020F40F0D58018F04A
:1040B000010F18D1002C00F006818C4213D94FF06B
:1040C000200CB2683368501CB06003F802C0B268BC
:1040D00073689A4204F1FF3480F0F780002C00F0FE
:1040E000F2808C42EDD8BBF1000FC0F20D8118F0C8
:1040F000040F40F0F48008F00303022B00F0BF80AF
:104100008DE8100159463B4630460A22FFF708FE6B
:104110003AE7B3683268581C2521B060D154B268C0
:1041200073689A42FFF430AF3046FFF7DDFD2BE7AE
:10413000D9F80020131DC9F80030B368316812782F
:10414000581CB060CA54B26873689A42FFF41CAF3E
:104150003046FFF7C9FD17E7D9F800301A1DC9F836
:104160000020196800943B46CDF8048030461022A8
:10417000FFF7D6FD08E70D4611F8013B2D2B48F05F
:1041800004087FF46DAE48F0010863E648F00208C9
:1041900060E6B2683168501CB0608B54B2687368D6
:1041A0009A42FFF4F2AE3046FFF79EFDEDE60024A2
:1041B000D9F800301A1DC9F800206A781B682E2A29
:1041C0001C4405F101057FF470AE6A78A2F130035A
:1041D000092B05F101054FF000073FF66AAE07EB2A
:1041E000870702EB470715F8012FA2F13003092BCF
:1041F000A7F13007F3D95CE61A46002452E6B84628
:10420000C7EB080B18F8012B8AB1B1683368481C5A
:10421000B0605A54B26873689A42F1D33046FFF7DF
:1042200063FDC7EB080B18F8012B002AEDD15C45A4
:104230007FF6AAAE2027B3683268591CB160D75404
:10424000B26873689A4204F1FF3402D33046FFF734
:104250004BFD5C45EFD897E6002F3FF444AF26E7CF
:104260003046FFF741FDF1E63046FFF73DFDB3680C
:10427000E2E6304605B0BDE8F04FFFF735BD002F50
:104280007FF43EAF002C3BD08C427FF639AF4FF02D
:10429000300CB2683368501CB06003F802C0B268DA
:1042A00073689A4204F1FF3403D24CB38C42F0D8C5
:1042B00026E73046CDF80CC00291FFF715FDDDF87A
:1042C0000CC00299F1E700240DE73046CDF80CC090
:1042D0000291FFF709FDDDF80CC00299FEE6B26815
:1042E000531CB36033682B209854B26873689A42A9
:1042F000FFF401AF30460291FFF7F6FC0299FAE6AF
:104300000024FDE6B8465CE6B268531CB36033682F
:104310002D209854B26873689A42CBF1000BFFF4D9
:10432000EAAEE7E76766666670B528B103681BB159
:10433000DB69BDE8704018470B4C0C4B0C4D1B1B48
:10434000A5FB03352D090CD005EB850504EB850590
:1043500023682046143413B1DB69984718B9AC427E
:10436000F6D1002070BD70BDEC2A0020EC2A0020A0
:10437000CDCCCCCC29DF704728DF7047034B01221E
:10438000187A5A74B0FA80F0400970471C32002045
:1043900030B5354D2B7A87B0002B51D0334B1C688C
:1043A00002232B722379002B2ED0012B20D02268E0
:1043B0009368C3B100230593019303930493A36807
:1043C0000593032302932379002B44D0012B07D1BB
:1043D000E368616904911B03022103938DF80410C3
:1043E000936801A8984700232B726B6007B030BD1B
:1043F0002069E3681844FFF7BFFFC8B11128D6D180
:1044000001232B7207B030BDA16962692069E3689E
:10441000521AB2F5805F28BF4FF480529208012AE9
:1044200038BF012208441944FFF7A4FF0028E5D152
:104430002B7C002BE6D10146022000F01DF8E1E7BD
:104440000B480C49FFF7B0FB084B044618600028E6
:10445000A6D16860D6E70120216963698DF8040060
:1044600003910493BCE700BF1C32002018320020E7
:10447000043200201432002010B5354C237A012B71
:1044800086B00AD0022B0CD1022810D0032804D108
:10449000E3680133082B1CD8E360637C1BB103F095
:1044A000D5FF06B010BDFFF773FF06B010BD294B56
:1044B00000221B68E2601A79002A3BD0012AECD165
:1044C0001A69596901328A421A61E6D100202072C4
:1044D00005E0204B00221B68E26022720D20196863
:1044E0008A6872B1002205920192039204929A683E
:1044F000029005921A79AAB1012A0AD08B6801A804
:10450000984715481549FFF77FFB637C002BC6D100
:10451000C9E7DA685B6904931303022203938DF8F9
:104520000420EBE71A695B69039201208DF804000F
:104530000493E3E79A695969881AB0F5805F94BFDC
:10454000121802F5805291429A61A6D1BEE700BFCF
:104550001C320020183200200432002014320020C7
:1045600000F0FD03012B00D0704730B5384C237AA2
:10457000A0F101000022B0FA80F0400987B0207459
:104580006274002B48D0334B1D68022323722B79B1
:10459000002B2ED0012B18D02A68936883B10023FA
:1045A0000593019303930493AB680593032302934C
:1045B0002B79002B44D0012B39D0936801A8984760
:1045C00000232372636007B030BD2869EB6818448C
:1045D000FFF7D2FE28B11128DED10123237207B0E4
:1045E00030BD237C002BFAD101460220FFF744FFA7
:1045F000F5E7A9696A692869EB68521AB2F5805F24
:1046000028BF4FF480529208012A38BF0122084483
:104610001944FFF7AFFEDDE70F481049FFF7C4FA72
:104620000C4B054618600028AFD16060D7E7EB68F7
:10463000696904911B03022103938DF80410BCE700
:10464000012029696B698DF8040003910493B4E794
:104650001C320020183200200432002014320020C6
:10466000FFF7E2BA2DE9F041B0F81080A8F1040894
:104670004144CF1C0646FFF7F3FAB7FBF8F70446B0
:1046800078B3FFB200250123013FA0F80680066041
:104690000571437128D0804609E06379AF4203F188
:1046A00001036371C8F80000066080461CD03046E4
:1046B000FFF7D6FA01350028EFD16679721E23463E
:1046C00003D0013082421B68FBD81F684EB1002521
:1046D00023682146013538461C46FFF7E9FAAE4209
:1046E000F6D10020BDE8F0812046BDE8F08100BF92
:1046F00010B40430012350E8002F02EB030140E81E
:10470000001494F0000FF6D15DF8044B704700BF21
:104710000146021DF8B5012052E8004FA4EB00034A
:1047200042E8003595F0000FF6D113F0FF0300D0FA
:10473000F8BD4E79701E0A4603D0013398421268C4
:10474000FBD81768002EF3D000240D6801343846DA
:10475000FFF7AEFAA6422946F7D1F8BD2DE9F041A0
:104760000446181DE688B0FBF6F30F46154606FB17
:10477000130013B1013B2468FCD1321AAA4228BFAE
:104780002A468DB14FF000082044AD1A07EB08010E
:104790000430904438F030FBB5422A46246828BFE4
:1047A00032460020002DEFD1BDE8F0812DE9F04127
:1047B000C688043304460F46B3FBF6F0154606FBE5
:1047C000103110B101382468FCD1721AAA4228BFF6
:1047D0002A468DB14FF000082144AD1A043107EB91
:1047E0000800904438F008FBB5422A46246828BFE8
:1047F00032460021002DEFD1BDE8F08101600B6849
:1048000043604A68934204BF00234360704700BF7F
:10481000426842B101688B68134443604A6893421E
:1048200004BF002343607047184A30B402F1F0051A
:10483000AB1ADB1003EBD3735B1002EBC30152F82E
:104840003330984228BF0C4605D311E052F833307C
:1048500098420CD221468B1ADB1003EBD3735B100A
:10486000914202EBC304F1D8094830BC70470D46B1
:10487000984204D904F10802AA42D9D3F4E7606847
:10488000034B002808BF1846EFE700BF9CEE050069
:104890008CEF050010B40023012401E0202B0AD086
:1048A00004FA03F2024299B203F10103F6D008467A
:1048B0005DF8044B70474FF6FF705DF8044B70478E
:1048C00090B189B130B40238002402E00134202CC8
:1048D00009D030F8025F9542F8D133B10A6801235C
:1048E000A34013430B6030BC70470B680122A24009
:1048F00023EA02030B6030BCF6E700BF70B49DF8FA
:104900000C60B8B1B1B1AAB10238002402E00134A0
:10491000202C0FD030F8025F9D42F8D10120A0403A
:1049200001EB820246B9C0430B68034041F8043BE7
:104930009142F9D170BC70470B68034341F8043BC6
:104940009142F7D00B68034341F8043B9142F3D105
:10495000F0E700BFF0B491B100252B46012606FA1E
:1049600003F4144205D000EB450431F81370A7801E
:1049700001350133202BF2D10560F0BC70470D46A4
:104980000560F0BC704700BF084B1B5C1F2B8ABF43
:10499000074A4FF0A04203F01F03D2F80405D840A5
:1049A00000F0010080F00100704700BFA4EF050097
:1049B00000030050074B1B5C1F2B86BF03F01F0337
:1049C00005494FF0A041012202FA03F3C1F80C356A
:1049D000704700BFA4EF050000030050064B1A5CAF
:1049E0001F2A86BF02F01F0204494FF0A041012395
:1049F0009340C1F808357047A4EF0500000300504C
:104A00004FF0A04310B44FF480404FF400544FF4E3
:104A100000414FF48032C3F80845C3F80805C3F8D5
:104A20000815C3F808255DF8044B70474FF0A04304
:104A300010B44FF480404FF400544FF400414FF451
:104A40008032C3F80C45C3F80C05C3F80C15C3F845
:104A50000C255DF8044B70470A4B195C1F298ABF6F
:104A600009484FF0A04001F01F01D0F804350122A1
:104A70008A4022EA03011340C0F80815C0F80C353B
:104A8000704700BFA4EF05000003005030B44FF0A2
:104A9000A04303224FF400554FF480444FF40040EC
:104AA0004FF48031C3F83427C3F83827C3F83C27C4
:104AB000C3F84027C3F80855C3F80845C3F80805EC
:104AC000C3F8081530BC7047084B1B5C1F2B8ABF0E
:104AD000074A4FF0A04203F01F03D2F81005D84058
:104AE00000F0010080F00100704700BFA0EF05005A
:104AF000000300500B2809D00C2809D0182809D031
:104B0000192814BF4FF0FF30032070470020704772
:104B100001207047022070473FDF704740DF704739
:104B200041DF704700B1704710B5074CA368012200
:104B300062703BB11A68A2605B6800209847A36866
:104B4000002BF7D110BD00BF3032002010B5012876
:104B500082B02AD023D303281FD10020072100F0E0
:104B6000D9F902A80023264C00F8013DFEF7DCFF2E
:104B7000E368013BE360E3685BB9224B01221A6002
:104B80004FF08042D2F81834C3F30043002BF9D120
:104B9000A3709DF80700FEF7EFFF02B010BD1A4B9F
:104BA0000122C3F8802002B010BD02A80023144CDB
:104BB00000F8013DFEF7B8FF237893B9124A63600D
:104BC000A3602361E360106810F0010014D003F0CB
:104BD000CDFC20B94FF080430122C3F818250123F2
:104BE0002370E3689DF8070001330122E360A2709F
:104BF000FEF7C2FF02B010BD072100F08BF9E6E717
:104C0000303200200C00004000E100E010B50E4CF6
:104C100023780BB1852010BD0C4A6360E3601068F7
:104C2000A36010F00100236102D1072100F072F9A6
:104C300003F09CFC20B94FF080430122C3F81825F3
:104C400001232370002010BD3032002000E100E07D
:104C500030B5224DAB7883B0044603F0FF0293B128
:104C600010B143680120984702A8002300F8043DD2
:104C7000FEF75AFFEB689DF804000133EB60FEF786
:104C80007BFF03B030BD02A800F8052DFEF74CFFF6
:104C900064B12A6942B1944208D0134601E09C42B3
:104CA00004D01B68002BFAD122602C61EB6863B939
:104CB0000B4A0C491360136801934FF080420220A5
:104CC0000123019CC2F804030B60EB689DF803000C
:104CD0000133EB60FEF750FF03B030BD30320020EF
:104CE000040100400800004000B583B002A8002382
:104CF00000F8013DFEF718FF0C49CB68013BCB6083
:104D0000CB685BB90A4B01221A604FF08042D2F89F
:104D10001834C3F30043002BF9D18B709DF80700C2
:104D2000FEF72AFF03B05DF804FB00BF303200201D
:104D30000C00004008B503F019FC28B94FF080437F
:104D4000D3F81804C0F3004008BD00BF30B5254DAE
:104D50006B7883B0044603F0FF0293B110B143684F
:104D60000020984702A8002300F8043DFEF7DCFE6F
:104D70006B689DF8040001336B60FEF7FDFE03B025
:104D800030BD02A800F8052DFEF7CEFE64B1AA687A
:104D900042B1944208D0134601E09C4204D01B6803
:104DA000002BFAD12260AC606B6843B16B689DF850
:104DB000030001336B60FEF7DFFE03B030BD03F08C
:104DC000D5FB58B9084B18601B6801934FF080431E
:104DD00001220199C3F804231A60E7E7FFF79CFE5C
:104DE000E4E700BF303200200001004030B583B05E
:104DF00002A80023154C00F8013DFEF795FE6368FC
:104E0000013B636065682DB19DF80700FEF7B4FEB5
:104E100003B030BD03F0AAFB98B90D4B01221A6014
:104E20004FF08042D2F80C3403F00113B3F1011FAC
:104E3000F8D000239DF807006370FEF79DFE03B0D5
:104E400030BDFFF76BFE6570DEE700BF303200203B
:104E50000400004000B583B003F088FB68B94FF050
:104E60008043D3F80C0400F00110A0F10110B0FA57
:104E700080F0400903B05DF804FB01A8FFF750FE85
:104E80000198003018BF012003B05DF804FB00BF9B
:104E900010B51D4B1A6882B0F2B91C4B1A680AB9DA
:104EA00002B010BD00221A601B6801934FF08043CE
:104EB0000222174C0199C3F8082323690122A2702A
:104EC000002BEDD01A6822615B68012098472369A6
:104ED000002BF7D102B010BD00221A601B680093AE
:104EE0004FF0804301220A4C0099C3F80823A368BD
:104EF0006270002BD1D01A68A2605B6800209847CE
:104F0000A368002BF7D1C8E700010040040100406E
:104F100030320020002810B418DB00F1604303F5A4
:104F200061434901C9B283F80013C3B2400980004C
:104F300000F1604000F5614003F01F02012393403F
:104F4000C0F8803103605DF8044B7047C3B2044A77
:104F500003F00F0449012244C9B21176E6E700BF0D
:104F6000FCEC00E030B51F4C94F8645083B015B1F0
:104F7000082003B030BD4FF0FF33FF220620072189
:104F800023636363A363E36323646364A364E364ED
:104F900023656365A365E36523606360A360E360E5
:104FA00023616361A361E361236284F8603063621B
:104FB000A36284F86230E36284F8633084F861208D
:104FC000FFF7A8FF084B094A1D601B680193019871
:104FD0004FF000430121284684F86410C2F80433DE
:104FE00003B030BD443200207C61004000600040CE
:104FF000034B93F86400003018BF0120704700BFD6
:1050000044320020F0B56A4C251895F93030002B59
:1050100001DB0820F0BD91F803E09446BEF1000FDB
:1050200056D02368013300F0BB80082600256B1C96
:105030005F4F54F82320013251D0AB1C9E4245D91A
:1050400057F8232001324AD0EB1C9E423ED957F834
:105050002320013243D02B1D9E4237D957F82320FD
:1050600001323CD06B1D9E4230D957F82370013776
:1050700035D0AB1D9E4229D954F823204C4F013224
:105080002DD0EB1D9E4221D957F82320013226D086
:1050900005F108039E4219D957F8232001321ED08A
:1050A00005F109039E4211D957F82320013216D089
:1050B00005F10A039E4209D957F8237001370ED033
:1050C0000B35AE4202D9E36A013307D00420F0BDAC
:1050D000236A01335CD00C260825A8E70B23261889
:1050E000DDB244F823C0324686F83050BEF1000FDE
:1050F00002D1234483F858008B78DBB91F284A7803
:1051000087BF2C4E00F01F0303464FF0A04603F567
:10511000E073920046F82320CB78E3B96AB2083AEC
:105120001444097894F8602042EA811284F86020DF
:105130001846F0BD1F2887BF1E4B00F01F02024615
:105140004FF0A04303EB8203D3F8002722F00202C2
:10515000C3F80027E0E76BB29B0003F1804303F53F
:10516000C0430A78D3F8101521F44F3121F440716F
:10517000C3F810151204000202F44031D3F81045B0
:1051800000F47C520A432243C3F810250020F0BDEE
:10519000082685F830603346C4F820C03546A8E7B5
:1051A000002385F83030C4F800C01D46A4E700BFD6
:1051B0004432002000030050F0B43A4D2E1882B063
:1051C00096F8302053B2072B20DD2B4493F858304B
:1051D0009B09032B44D0012B0CBF4FF400324FF43A
:1051E00040321F2849D900F01F002F4B03EB8000ED
:1051F000D0F8003723F44033C0F80037D0F8003738
:105200001A43C0F8002702B0F0BC7047072AFAD84A
:10521000980000F1804000F5C04003F14002920088
:10522000D0F8104592B202F18042002744F0010408
:1052300002F5C042C0F81045019701981760002997
:10524000E1D096F9302055F82220002ADBD0012247
:10525000164902FA03F3C1F8043302B0F0BC7047F8
:105260001F280DD9104BD3F8103500F01F00C34094
:10527000DB0713D54FF44032B7E74FF0A043B5E753
:105280004FF0A0421346D2F81025C24012F0010F91
:105290000CBF4FF400324FF44032A7E74FF4003216
:1052A000A3E700BF4432002000030050006000402C
:1052B0001F288ABF054B4FF0A04300F01F00D3F812
:1052C000103523FA00F000F0010070470003005091
:1052D0002DE9F04F89B00025B24B029503951A686D
:1052E000012A00F05081B04B1A68012A00F03D817C
:1052F000AE4B1A68012A00F02A81AD4B1A68012AC8
:1053000000F01781AB4B1A68012A00F00481AA4B08
:105310001A68012A00F0F180A84B1A68012A00F0EF
:10532000DE80A74B1A68012A00F0CB80A54B1A68D3
:10533000012A00F0B58015F0FF0F1AD0A24F012608
:105340000024A30003F180432E4203F5C0434FEA3B
:1053500046060BD0D3F8100557F82420D3F81015C3
:10536000C0F30520C1F3014102B190470134082C7C
:10537000E7D1002D02DB09B0BDE8F08F934F00228A
:105380004FF0FF33A7F16309049205920693079348
:105390008F4C4FF0000A4FF0010814F8013FFF2B2B
:1053A00030D0DBB223F0C00008AAC608951903F07C
:1053B000070215F8081C08FA02F2114222D009EB84
:1053C000000E99099EF930E059F82EC0BCF1000F8B
:1053D00056D0032956D01F288ABF03F01F06064661
:1053E000DFF8F0E115F818BC98BF4FF0A04E06F5B5
:1053F000E0761BEA020F5EF82650C5F301451AD18C
:10540000032D48D0BC42C8D1BAF1000FB3D04FF041
:10541000A0430299D3F810356E4A9942D2F810256C
:1054200002D103999142A6D0049805990293039260
:1054300006900791ACE7022DE4D1032904D0BCF11A
:10544000000FDFD0E047DDE74FF440321F288BBF6D
:10545000604D4FF0A04503F01F03034605EB8303A7
:105460000AF1010AD3F8005725F44035C3F8005774
:10547000D3F800572A435FFA8AFAC3F80027DEE719
:105480000329BFD10DF1100B1BF806E04EEA020E06
:105490000BF806E09FE70329D1D14FF40032D5E79E
:1054A00000221A601B6801934FF0A042019BD2F8C2
:1054B0001025484B0292D3F81035039345F0004570
:1054C00039E7454AD2F8042312067FF52FAF0022B0
:1054D0001A601B680093009B45F0800526E73E4A52
:1054E000D2F8042351067FF51CAF00221A601B6816
:1054F0000093009B45F0400513E7374AD2F8042398
:1055000090067FF509AF00221A601B680093009B8C
:1055100045F0200500E7304AD2F80423D4067FF591
:10552000F6AE00221A601B680093009B45F0100540
:10553000EDE6294AD2F8042316077FF5E3AE0022F0
:105540001A601B680093009B45F00805DAE6224AC2
:10555000D2F8042357077FF5D0AE00221A601B68EB
:105560000093009B45F00405C7E61B4AD2F80423CC
:1055700092077FF5BDAE00221A601B680093009B66
:1055800045F00205B4E61449D1F8041311F0010105
:1055900005D01D601B680093009B1546A3E60D46D1
:1055A000A1E600BF006100400461004008610040C6
:1055B0000C6100401061004014610040186100401F
:1055C0001C6100407C61004044320020A732002072
:1055D000A332002000030050006000400B4A022369
:1055E000C2F80435BFF36F8FBFF34F8FC2F80805C1
:1055F000D2F800340549002BFAD00023C1F8043555
:10560000BFF36F8FBFF34F8F704700BF00E00140C3
:1056100082B32DE9F047184C0D468E18401AA0466B
:105620004FF0FF0C4FF0010E0027431903F0030168
:1056300023EA0103C900D3F8009015F8012BC4F840
:1056400004E50CFA01FA29EA0A09BFF36F8FBFF3E8
:105650004F8F8A404A441A60D4F80034002BFBD0A4
:10566000C8F80475BFF36F8FBFF34F8FB542DCD11D
:10567000BDE8F087704700BF00E001400220FFF75F
:10568000EBB900BF2DE9F0470D460646FFF732FAA9
:10569000032804461DD8012D1FD00ED3022D1AD188
:1056A0001C4B00EB40041C44657895B11A4B1B68F9
:1056B0007BB12846BDE8F04718471848FEF7F8F9CF
:1056C0001449174A04EB44030B44155D9B789D4233
:1056D000EBD0BDE8F087BDE8F087DFF83880470001
:1056E0003B1808EB030218F8035053782BB92744F2
:1056F00047440B4BBA781A55D7E7DFF8289007488C
:105700004A464FF40041FEF779F90028EFD189F8B5
:105710000060ECE724330020FC320020003300203E
:10572000CC3200202133002010B50078FFF7E2F9D9
:1057300003280BD8064B00EB40001844407828B1F2
:10574000044B1B6813B1BDE81040184710BD00BFE3
:1057500024330020FC320020B34B1B68DB0700D44D
:10576000704770B5B14EB24D33782C78FBB9172C19
:105770001CD8DFE814F0F100140114016300760076
:10578000830096005D0039002C0039002C00A30036
:10579000A800A800A800A800A800CE00DE00010113
:1057A000460018001800FFF741F92C7070BDA14B9E
:1057B0001B7800203070002B00F00581FFF70EF9F8
:1057C0000120FFF70BF90320FFF708F9CFE70123CA
:1057D00018463370FFF740F997484FF48041002294
:1057E000BDE87040FEF70AB9012318463370FFF791
:1057F00033F9914840F6CD410022BDE87040FEF7F4
:10580000FDB88C4B1B78002B00F0FE800020FFF7CA
:10581000E5F80120FFF7E2F80320FFF7DFF80020AA
:10582000FFF7C8F80120FFF7C5F815232B7070BDEE
:105830000020FFF7BFF807232B7070BD0020FFF793
:10584000A3F8002800F0D3800020FFF7C7F846F245
:10585000666103232B7078480022BDE87040FEF794
:10586000CDB80020FFF790F8002800F0C580002098
:10587000FFF7B4F84FF400310423EBE70020FFF703
:1058800083F8002800F0BD800020FFF7A7F805236B
:105890002B70694841F69A110022BDE87040FEF76E
:1058A000ADB80020FFF7D8F806232B70624840F609
:1058B000CD410022BDE87040FEF7A0B8FFF7B6F872
:1058C0000C232B7070BD5D48FEF7F2F8D4F1110483
:1058D00005467BD0002879D1012C13D0C82303FBC7
:1058E00004F44FF4FA704FF400430021C3FB0401A9
:1058F0004FF47A72002338F0DDFD2A4601464F4806
:10590000FEF77CF80220FFF755F84A4B01221A7087
:1059100070BD484B1B78002B79D00020FFF75EF854
:105920000120FFF75BF80320FFF758F812232B70D4
:1059300070BD404B1B78002B6FD00020FFF74EF856
:105940000120FFF74BF80320FFF748F80020FFF78E
:1059500031F813232B7070BD364B1B78002B59D0B8
:105960000020FFF73BF80120FFF738F80320FFF78E
:1059700035F800232B7070BD2E4B1B78002B4FD0B9
:105980000020FFF72BF80120FFF728F80320FFF78E
:1059900025F80120FFF70EF814232B7070BD0020AE
:1059A000FEF7F2FFC8B10020FFF718F8022C4EF204
:1059B000666118BF4FF400312C701F480022BDE80B
:1059C0007040FEF71BB8FFF71BF8D0E60220FFF788
:1059D00005F8184B00221A7070BDFEF7EBFF41F678
:1059E0009A1343F23331022C08BF1946E4E7FEF75D
:1059F000E1FF41F69A112CE7FEF7DCFF43F2333169
:105A00003AE7FEF7D7FF42E7FEF7FAFF07E7FEF7B0
:105A1000F7FF8BE7FEF7F4FFABE7FEF7F1FF95E743
:105A2000FEF7EEFFB5E700BFF4320020F8320020A9
:105A300020330020F0320020AC320020D032002091
:105A4000FFF742B838B5C44B1B6813F0010401D10D
:105A5000204638BDC14C23780546E3B9172D00F226
:105A60007881DFE815F00B013101310169007D001B
:105A70009100A5005B003500280035002800B30028
:105A8000BA00BA00BA00BA00BA00E300F6001C017E
:105A9000420063006300B24B1B7800202070002B93
:105AA00000F02781FEF79AFF0120FEF797FF032001
:105AB000FEF794FFD2E7012318462370FEF7CCFFD0
:105AC000A8484FF480410022BDE83840FDF796BF5A
:105AD000012318462370FEF7BFFFA24840F6CD41D0
:105AE0000022BDE83840FDF789BF9D4B1B78002B95
:105AF00000F020810020FEF771FF0120FEF76EFF0D
:105B00000320FEF76BFF0020FEF754FF0120FEF795
:105B100051FF954B15221A70002499E70020FEF7DB
:105B200049FF914B07221A70002491E7FEF77EFF90
:105B30008D4B00241D708BE70020FEF725FF002809
:105B400000F0E1800020FEF749FF46F26661864BD7
:105B5000844803241C700022BDE83840FDF74EBF86
:105B60000020FEF711FF002800F0DC800020FEF787
:105B700035FF4FF400317C4B7A4804241C7000221E
:105B8000BDE83840FDF73ABF0020FEF7FDFE0028D3
:105B900000F0CD800020FEF721FF734B71480524F3
:105BA0001C7041F69A110022BDE83840FDF726BF6F
:105BB0000020FEF751FF6C4B6A4806241C7040F62B
:105BC000CD410022BDE83840FDF718BFFEF72EFF9B
:105BD000654B0C221A7000243AE76448FDF768FF11
:105BE000D5F11105044600F08780002840F084803C
:105BF000012D14D0C82303FB05F54FF4FA704FF4C0
:105C000000430021C3FB05014FF47A72002338F0F2
:105C100051FC224601465548FDF7F0FE044602209D
:105C2000FEF7C8FE4E4B01221A7011E74C4B1B7851
:105C3000002B00F082800020FEF7D0FE0120FEF74E
:105C4000CDFE0320FEF7CAFE474B12221A70002435
:105C5000FEE6434B1B78002B75D00020FEF7BEFEFE
:105C60000120FEF7BBFE0320FEF7B8FE0020FEF782
:105C7000A1FE3D4B13221A700024E9E6384B1B7835
:105C8000002B5DD00020FEF7A9FE0120FEF7A6FE46
:105C90000320FEF7A3FE344B00241C70D8E6304BE3
:105CA0001B78002B52D00020FEF798FE0120FEF753
:105CB00095FE0320FEF792FE0120FEF77BFE2A4BA5
:105CC00014221A700024C3E60020FEF75DFEF8B12E
:105CD0000020FEF783FE022D4EF2666118BF4FF4DE
:105CE0000031214B1F481D700022BDE83840FDF7F0
:105CF00085BEFEF785FEB1E60220FEF76FFE184B6B
:105D000000221A70A4E6FEF755FE41F69A111EE72E
:105D1000FEF750FE41F69A1343F23331022D08BFCD
:105D20001946DEE7FEF746FE43F2333123E7FEF77E
:105D300041FE32E7FEF764FEE5E6FEF761FE83E72B
:105D4000FEF75EFEA7E7FEF75BFE8FE7FEF758FE65
:105D5000B2E700247CE600BFF4320020F8320020D5
:105D6000F0320020AC32002020330020D03200205E
:105D7000F0B5214A214B1060044610F0020083B0B8
:105D8000196015D01E4B1F484FF00E0E0F2710261E
:105D90001125042140F2666283F800E0DF709E71F5
:105DA0005D72FDF743F9A0B1E3071DD403B0F0BD68
:105DB000E20719D41448154A0021FDF70DFE00280A
:105DC000F4D11348134A012103B0BDE8F040FDF7B8
:105DD00003BEFDF785F90028E6D101460E4A0F48BB
:105DE000FDF7FAFDE10703D50190FEF74FFE01989C
:105DF0000028DFD003B0F0BDF4320020FC320020D8
:105E000024330020BCEF0500B8EF0500595702000D
:105E1000E0EF05007D56020029570200DCEF050087
:105E2000032801D907207047012A12D0012917D071
:105E300008D30229F6D10D4B00EB400003440020AB
:105E40005A707047094B00EB4000034400209A70E1
:105E50007047012901D00022E8E700F10E02D2B21A
:105E600000EB400301490020CA547047243300204E
:105E700010B50388102B08D0112B05D1264B1868BC
:105E80000138186038B110BD10BD234C206880B1B6
:105E90000130206010BD02210122FFF7C1FF48B38D
:105EA000072827D01D4B1B68002BECD0BDE8104005
:105EB000184701460122FFF7B3FF48B1072807D072
:105EC000164B1B6803B1984720680130206010BD55
:105ED000012002210722FFF7A3FF08B10728EFD115
:105EE000002002210422FFF79BFF0028ECD00728A6
:105EF000E6D1E9E7012002210722FFF791FF08B16F
:105F00000728CFD1002001460A22FFF789FF002889
:105F1000B9D00728C6D110BD34330020303300205B
:105F20001A4B10B50C46186029B10120FFF788FD07
:105F300030B102232370164B186848B1002010BD01
:105F4000FFF77EFDF8B9124B207018680028F5D1D4
:105F500002210122FFF764FF10B1072800D010BD15
:105F6000012002210722FFF75BFF08B10728F6D1C5
:105F7000002001460A22FFF753FF0028DED0072841
:105F800008BF0020EBE70B232370D4E73033002059
:105F90003433002076DF70477ADF70477CDF70474C
:105FA000A8DF704766DF70473EDF7047FDF7AEB889
:105FB00010B50388112B84B0044641D011D9512B60
:105FC00026D0562B03D03B2B01D004B010BDA088A7
:105FD0001321FFF7DFFF0028F7D0FDF797F804B093
:105FE00010BD012B43D0102BEFD1264B264918882A
:105FF000000440F00300FCF78BFB0720FFF722FDB5
:1060000008B1FDF783F8214BA2881A8004B010BDB7
:106010008279837B002AD8D0043B022BD5D8022A70
:106020000CBF022201224FF4C17380888DF800203A
:106030006946ADF80430FFF7B3FF0028C5D0CCE7C0
:10604000104B13491888000440F00300FCF760FB74
:106050000020FFF7F7FC90B90E4B0C491A784FF669
:10606000FF70032A0880B0D104221A70ADE780883F
:106070000021FFF797FF0028AFD104B010BDFDF756
:1060800045F8E9E7EC2A0020E4EF0500282A002083
:10609000F0EF050038330020F0B5ABB002F030F976
:1060A000002840F0B0802AAC002344F8A43D012031
:1060B000214602F0A3FA002840F0A280204602F018
:1060C00051FB002840F099801320FFF7BBFC08B17A
:1060D000FDF71CF89DF800304C48012262F30303E1
:1060E0002AAC62F3071304F8A83D37F086FA474953
:1060F00082B22046FFF752FF00287BD10021082200
:1061000002A836F09FFE5024A02100224FF4C8734D
:1061100002A8ADF80840ADF80A10ADF80C20ADF8B3
:106120000E30FFF739FF08B1FCF7F0FF38480021C7
:1061300001F084FE08B1FCF7E9FF0021A02202A8CB
:1061400036F080FE022101230627324E324A8DF8B6
:1061500008104FF49675B42430488DF80A3002A91F
:10616000ADF818308DF884308DF80B7007962495B3
:106170002594289201F006F808B1FCF7C7FF2748DC
:10618000012100F0FBFF00211C2202A836F05AFE7C
:106190004FF4203600234FF4702503242049214A70
:1061A000029302A8ADF816308DF8183003960495C6
:1061B0008DF814400791089201F05CFD08B1FCF7DE
:1061C000A5FF194B194A1B78012111704BB1184BCF
:1061D00018491888000440F00300FCF799FA2BB026
:1061E000F0BD0E48032101F07DF80028EFD0FCF748
:1061F0008DFFECE7FCF78AFF80E7FCF787FF63E79A
:10620000FCF784FF5AE7FCF781FF4CE700F005003C
:1062100014340020242A0020E16202003C330020D4
:1062200039620200AD5F02003933002038330020AC
:10623000EC2A002010F0050008B5037803B108BD72
:10624000054B3B211888FFF7A5FE0028F7D0BDE8D5
:106250000840FCF75BBF00BF282A0020043808B5BF
:106260000D280ED8DFE800F0230D0D070D0D0D0DE4
:106270000D0D0D0D150E174B1A884FF6FF739A4230
:1062800021D008BD144B1A78052AFAD106221A70BB
:1062900008BD114B1A78012AF3D10E4A11884FF626
:1062A000FF72914214BF022204221A7008BD094BEA
:1062B00013211888FFF76EFE30F00803E1D0BDE827
:1062C0000840FCF723BF054801F062FA30F00803EC
:1062D000D7D0F4E7282A0020383300203C330020B0
:1062E00008B570B103280BD10B4B0C49188800047A
:1062F00040F00300FCF70CFA0220FFF7A3FB30B9D3
:1063000008BD0748032100F0EDFF0028F8D0BDE8E4
:106310000840FCF7FBBE00BFEC2A002028F0050077
:106320003C330020420700D4704708B5084607F008
:106330000DFD042808D8DFE800F003030808080072
:106340001420FFF77FFB70B908BD0720FFF77AFB29
:1063500068B9084B08491888000440F00300BDE8FC
:106360000840FCF7D5B9BDE80840FCF7CFBEFCF704
:10637000CDFEEEE7EC2A00203CF0050080B50020C1
:1063800082B0FCF74DF808B1FCF7C0FEFCF73AF814
:10639000FDF758FA08B1FCF7B9FE03206249FFF790
:1063A000E7FC08B1FCF7B2FE002001A9FFF7B8FD39
:1063B00008B1FCF7ABFE9DF804305C4A5C4F5D4DC4
:1063C000DFF88C915C4EDFF88C81A3F10203B3FA05
:1063D00083F35B091370FFF75FFE388857490004A9
:1063E00040F00300FCF794F92B78023B042B0DD806
:1063F000DFE803F0220C2D1B0300306807F0A1F941
:1064000024F0A0FC24F052F8FFF746FEFCF770F8E9
:106410000028E9D12B78013B032BE5D8FFF7C4FD19
:106420000028E1D0FCF772FEDEE7306824F051F876
:10643000306807F09EFBE9E7B9F800001321FFF789
:10644000A9FD08B1FCF762FE03232B70DEE701F023
:1064500051FC002855D101F09BFF002857D10020A6
:10646000C8F80000D8F800300193019BFFF7EAFA62
:1064700008B1FCF74BFE0020014623F0FBFF07F0BC
:106480005AF9044602F018FAB7F800A007F0B2FC77
:106490004FEA0A4A4AF0030A024629495046FCF7E5
:1064A000EBF9B7F800A0204607F00DFC4FEA0A4AC6
:1064B0004AF0030A024623495046FCF7DDF920461C
:1064C0002246214907F03FF9204607F0D8F808B3E3
:1064D0000121204607F03DF92046012107F09DFCEF
:1064E0000523142034602B70FFF7ACFA08B1FCF7D9
:1064F0000DFE38881549000440F00300FCF708F948
:1065000084E7FCF703FE01F043FF0028A7D0FCF767
:10651000FDFDA4E720460B2107F094F920464AF63A
:10652000CD3107F0D3F9D3E75D62020039330020A3
:10653000EC2A0020383300202834002060F00500C9
:1065400088F00500A0F0050025630200B8F0050002
:10655000282A0020000100402DE9F84F440004EBF8
:106560000008DFF87CB14FEAC8080BEB0803894646
:10657000D96A01298246164643D034D302293CD138
:1065800000F1010A0AEB4A0A5D6A0BEBCA0A00270E
:106590001DE0126A641BB4422346A2EB050428BF27
:1065A00033469C42DAF8040028BF1C4622462844A1
:1065B000494636F021FC0BEB080325441A6A954244
:1065C00008BF0025361B2744A1445D6216D00BEBA3
:1065D0000802936AAB4203F1FF34DAD8126A13441B
:1065E000013B5C1BD7E79A6A5D6AAA429CBF1B6AA3
:1065F000D218013A521B964232D900273846BDE8DC
:10660000F88F9A6A5D6AAA4225D9571E1B6A7F1BBA
:10661000B74228BF37465E1BB74241D30AF1010893
:1066200008EB48080BEBC808A244D8F80400494618
:10663000324628440BEBCA0BBD1B36F0DDFBD8F805
:10664000040009EB06012A4636F0D6FBCBF82450AD
:106650003846BDE8F88F1B6AD718013F7F1BD7E784
:1066600004440BEBC40B00F1010ADBF820701C4B57
:106670007F1BBE420AEB4A0A25D303EBCA043A4603
:10668000606849462844F51B36F0B6FB09EB070164
:1066900060682A4636F0B0FB3746CBF82450ADE7A9
:1066A0000AF1010303EB43030BEBC303A244586855
:1066B0000BEBCA0B284449463A463D4436F09CFB56
:1066C000CBF824509AE703EBCA0349465868324690
:1066D0002844354436F090FB3746CBF824508DE7FC
:1066E000CCEE00202DE9F04F344C94F800E083B05C
:1066F0000546884617461E46BEF1000F2ED0236978
:10670000DFF8B8A0AB4256D902A84FF0000900F854
:10671000019DFDF709FA6DB929460D4404EBC50446
:106720000C9B9DF80700E362FDF726FA002003B0FA
:10673000BDE8F08F6B1C690003EB4303DB004A19D3
:106740000AEBC2020AEB030E4AF80380CEF804708B
:106750001662C2F82890C2F82490DEE7184BDFF8E2
:106760006CB0DFF86C90C4F828E04FF0100C4FF4D8
:10677000007A0222A361A3641249C4F824E0C4F899
:106780002CE0C4F858E0C4F854E0C4F85CE0C4F865
:1067900050C0E01DC4F81CB0C4F820A0C4F84C9050
:1067A0002261626136F00CFF2046074936F008FF8F
:1067B0002023A371A3E74FF0FF30B8E7CCEE002011
:1067C000D4F00500E0F00500E4F005003C340020C2
:1067D0002C340020F8B5114C114B124AE3614FF4F0
:1067E000007E0023104FA36210266362E362A3655C
:1067F0006365E3650D49C4F820E00225A261A26447
:10680000E01DE76426652561656136F0D9FE204606
:10681000074936F0D5FE2023A371F8BDCCEE002049
:106820003C340020D4F005002C340020E0F00500BA
:10683000E4F005006DDF704772DF704779DF704765
:106840007DDF704764DF7047F0B50488012C83B0AA
:1068500007D0148804F1020E9E4505D90C2003B020
:10686000F0BD072003B0F0BD0578012D04D14578B7
:1068700002352544AB42F1D3023B0F461C1B02A953
:10688000A4B2054621F8024D07EB0E001646FFF7AD
:10689000D7FF0028E3D12B78022B17D0012B11D082
:1068A00023460821FE2BD9D83288581CB854328888
:1068B000013292B23280B9543288013213443380AB
:1068C0000020CCE76B789C42EBD2E9E7BDF80630BC
:1068D0009C42E5D30921E5E72DE9F04F85B08346D9
:1068E0000E9D00882C880194BDF83C9000284ED065
:1068F00000278A46164698463C4604E0BBF800301E
:106900000134A34226DDDBF8043053F82400039061
:106910000DF10B0103A80022FFF794FF18BB9DF8AF
:106920000B30B342EAD10FB32A8893194B4519DCD7
:10693000424403A80DF10B010127FFF783FF90B933
:106940002B889DF80B2013442B80BBF800300134BA
:10695000A342D8DCDFB12B88019A013B9B1A9BB282
:10696000FF2B12D90C2005B0BDE8F08F2B885A1CE4
:10697000334402334B4592B2F4DC2A8008F802A07B
:106980002A88013292B22A80D2E708F80230002029
:1069900005B0BDE8F08F00BF2DE9F0470023178850
:1069A000138090F82D3086B0144605460E46002B15
:1069B00040F0C880AA78002A40F0F080EA78002AE7
:1069C0002CD1696899B1DA1CBA42097822D802221E
:1069D000F254238801339BB20A222380F254238885
:1069E00001339BB22380F1542388013323802B8908
:1069F000002B40F0F7802B8A002B40F00C812B8B72
:106A0000002B40F021812B6A002B5CD02288911D45
:106A1000B94218D90C2006B0BDE8F087D91CB9429C
:106A2000F8D80221F154238801339BB2012123803D
:106A3000F15423880B449BB22380F25423880B44E7
:106A40009BB22380BDE71988052940F2C9806FF405
:106A5000486801EB080080B24FF27D3E704540F27D
:106A6000BF805888052840F2BB806FF4486C84448E
:106A70001FFA8CFCF44540F2B3804FF6FF7E71455F
:106A800004D0704502D0814200F2AA800521B154A1
:106A90002288013292B212212280B154228801321E
:106AA00092B222801988B1543244090A5170228866
:106AB000023292B222805B88B35432441B0A537074
:106AC0002388023323806B6A002B2BD0998820887F
:106AD0000A1D0244BA429DD88A1CFE2A9AD8033164
:106AE00031542288013292B2FF212280B15422888F
:106AF000013292B222801988B1543244090A51708D
:106B00002088023080B220809A885AB19968039315
:106B1000002965D0304436F06FF9039B22889B88AA
:106B20001344238095F82C30002B40F0A680287861
:106B300000283FF470AF2846314622463B46FFF717
:106B400083FE68E7082F7FF665AF04A8FFF772FEA3
:106B500000287FF460AF23880822F2542388013391
:106B60009BB21B222380F2542088013080B2208007
:106B7000062230440DF1110136F03EF923889DF8CC
:106B8000102006339BB212F0FE0218BF01222380B0
:106B9000F254238801339BB223800BE70433BB42BA
:106BA0003FF638AF04A8FFF749FE00287FF433AF63
:106BB0002388BDF810200321F154238801339BB2B0
:106BC00019212380F154238801339BB2F1182380CB
:106BD000100AF2544870238802339BB22380EDE6FA
:106BE000072018E705F1080802218DE890004046CB
:106BF0000A463346FFF770FE00287FF40CAF8DE89D
:106C000090004046062110223346FFF765FE00281B
:106C10007FF401AFEFE605F110088DE890004046E3
:106C2000032102223346FFF757FE00287FF4F3AE1C
:106C30008DE890004046072110223346FFF74CFEB6
:106C400000287FF4E8AEDAE605F118088DE8900038
:106C50004046142102223346FFF73EFE00287FF40F
:106C6000DAAE8DE890004046152110223346FFF73A
:106C700033FE00287FF4CFAEC5E6D5F82880B8F102
:106C8000000FADD0B8F804200232FE2A3FF6C2AEA3
:106C900023884FF000094FF0160A0132F25423887E
:106CA00001339BB2238006F803A0238801339BB2F3
:106CB0002380B8F80020F2543344120A5A70238813
:106CC00002339BB22380B8F80410F0180A4661B171
:106CD000D8F808301946002B82D036F08DF8B8F875
:106CE0000430228813449BB2238009F1010995F8EE
:106CF0002C205FFA89F94A4509EB49087FF617AF5E
:106D0000AA6A02EB8808B8F804200232FE2AC4D925
:106D100080E600BF2DE9F04794B01F230D46ADF883
:106D20000E30044600285AD0C278530753D590F845
:106D30002D300021ADF80C10002B6BD18378002B87
:106D400040F0AB801846032114AE5F1C0233304480
:106D500016FA87F716FA83F64FF0020E8BB201216E
:106D600000F840ECADF80C3007F8401C06F8402C59
:106D70006268B2B1D91C1F29167828D814AF581CE4
:106D80009A1C17FA80F03B4417FA82F24FF0020E79
:106D90000A2703F840ECADF80C1000F8407C02F82C
:106DA000406C2389002B40F08581238A002B40F022
:106DB0009F81238B002B40F0B981236A002B00F0C8
:106DC000D880BDF80C20911D1F2940F28F800C2027
:106DD00014B0BDE8F087072014B0BDE8F087ADF827
:106DE0000C00002D00F00481EB78002BF3D1284635
:106DF0000CA90DF10E02FFF7CFFD0028ECD19DF894
:106E00000E300CAA20469DF80C10FFF715FD14B0AB
:106E1000BDE8F0870CAF3846FFF70CFD0028DBD14A
:106E2000BDF80C3014AA03F1010C12FA8CFC03F12A
:106E3000020E13441FFA8EFE04AE4FF008094FF005
:106E40001B0803F8409C0DF13101062206EB0E00F1
:106E50000CF8408CADF80CE035F0CEFFBDF80C20FE
:106E60009DF83010931D11F0FE019BB240F07C8123
:106E700014A8034403F8401CD31DA2789BB2ADF8BC
:106E80000C30002A40F01181E278002A3FF470AF04
:106E9000D91C1F2918469AD856E70CAF3846FFF779
:106EA000CDFC002898D1BDF80C30BDF83070E278E8
:106EB000991C0DF1500E581C89B204AE0EEB03095B
:106EC0001EFA80F0043306EB010E4FF0030A4FF078
:106ED00019089BB24FEA172C09F840ACADF80C30FA
:106EE00000F8408C77548EF801C0CEE7188805284A
:106EF0007FF671AF6FF4486C00EB0C06B6B24FF240
:106F00007D37BE427FF667AF5E88052E7FF663AFA2
:106F10006FF4486EB6441FFA8EFEBE457FF65BAF37
:106F20004FF6FF77B84204D0BE4202D0B0423FF6DF
:106F300052AF14A8561C10FA86F600EB020E901CF5
:106F400080B212274FF0050C0EF840CCADF80C00C3
:106F500006F8407C1F88ADF80C1004AE3118375489
:106F600004323F0A4F7092B25B88B35432441B0A1A
:106F70005370676A9FB3B888BDF80C30811C9A1CA7
:106F800056181F2E3FF623AFFE293FF620AF14AE52
:106F9000591C06EB030E16FA81F192B20330FF265C
:106FA0000EF8400CADF80C2001F8406C398804AEA6
:106FB000B018B154090A41700433BA8898B2ADF8D8
:106FC0000C0062B1B96800293FF405AF304435F0D8
:106FD00013FFBDF80C30BA881344ADF80C3094F8A8
:106FE0002C3053B904AE2378002B53D13446F8E645
:106FF0002B46ADF80E502A4604E7A76A002F3FF44F
:10700000EAAEB9880231FE293FF6E1AE9E46BDF8F0
:107010000C304FF0000804AE4FF0160914AA581CAB
:1070200002EB030C12FA80F09A1C92B201310CF8B8
:10703000401CADF80C2000F8409C3988B154324413
:10704000090A51700433B9889BB20A46F018ADF8AA
:107050000C3079B1BB681946002B3FF4BCAE35F05B
:10706000CBFEBDF80C30BA8894F82CE013449BB2E8
:10707000ADF80C3008F101085FFA88F8F04508EB2C
:107080004802B0D2A76A07EB8207B9880231FE290D
:10709000C4D99CE62046314603AA1F23FFF7D4FB40
:1070A00000287FF499AE34469BE604331F2B3FF64D
:1070B0008EAEF3E603AA04F1080704AE4FF01F08F2
:1070C00002218DE80401384633460A46FFF704FCE6
:1070D00000287FF481AE03AB8DE8080138463346C3
:1070E00006211022FFF7F8FB00287FF475AE5CE65E
:1070F00003AA04F1100704AE4FF01F088DE8040145
:107100003846334603210222FFF7E6FB00287FF4CE
:1071100063AE03AB8DE808013846334607211022E1
:10712000FFF7DAFB00287FF457AE42E603AA04F12A
:10713000180704AE4FF01F088DE8040138463346A7
:1071400014210222FFF7C8FB00287FF445AE03ABF1
:107150008DE808013846334615211022FFF7BCFBA5
:1071600000287FF439AE28E614A90B44012103F866
:10717000401C81E673DF704774DF704780F824108D
:10718000704700BF002900F0AB80002800F0A88005
:10719000F8B5002401230370C47001F1780E07468E
:1071A0000D46BEE80F003E1D0FC69EE80F0086E8A4
:1071B0000F0087F82440D5F89830C7F8CC30D5F8C0
:1071C0009C30C7F8D0304FF6FF73A7F8C83021467F
:1071D000072207F1250007F1300635F033FE21467E
:1071E00030463C2235F02EFE2B7887F83030AB78D5
:1071F00087F83230EB7887F833306B7887F83130A6
:1072000005F1100393E8030007F1400383E803004E
:1072100005F1080393E8030007F1380383E803004E
:1072200005F1180393E8030007F1480383E803001E
:1072300095F82D3087F85D306B6ACBB107F1780394
:1072400007F16C027A657B676B6A1B88A7F86C3064
:107250006B6A9888A7F8700050B1234607F177024F
:10726000696A8968C95C02F8011F01338342F7D15A
:10727000AB6AF3B107F1980307F1A402C7F8A020A5
:10728000BB65AB6A9888A7F89C00AB6A1B88A7F817
:10729000983050B107F1A3020023A96A8968C95C3C
:1072A00002F8011F01338342F7D195F82C3087F89B
:1072B0005C302B6A53B107F1C4033B652B6A5B88D2
:1072C000A7F8C6302B6A1B88A7F8C4306B6803B1D7
:1072D0007B63304605F13C01BDE8F840FFF71ABD7D
:1072E0000E207047F0B5057885B0044615B9082022
:1072F00005B0F0BDE17000200E46FDF715F820B195
:1073000001236370002005B0F0BD04F1250701469C
:107310000722384635F096FDA37913B3E378012BA5
:1073200025D0E2790AB1022B21D094F8263083B916
:1073300094F827306BB994F8283053B994F8293071
:107340003BB994F82A3023B994F82B50003518BF74
:107350000125013E032E00F2CA80DFE806F0433625
:10736000133EE379002BE0D0E378012BDBD1D4F896
:10737000CC30002B00F09E80012284F82C200820C5
:107380009847D2E7237A43B30322D4F8CC30E27093
:1073900033B1627922B194F8D420002A00F08D80B4
:1073A000002384F8D53010226846002135F04AFDCC
:1073B000E37800228DF800208DF80820042B76D881
:1073C000DFE803F064594C3A1800E379002BD9D078
:1073D000002DD7D00223E370E2E7637A002BFAD0C6
:1073E0000422D2E7A379002BEFD0002DCAD00123CD
:1073F000E370D5E76379E169226AADF80A10ADF868
:107400000C2033B194F8D41019B994F8D630002B6D
:107410003FD10423A370684694F82410FFF7AAFE16
:1074200000287FF465AFD4F8CC30002B3FF46AAF6E
:10743000A078984700205BE763796169A269ADF89D
:107440000A10ADF80C2033B194F8D41019B994F89F
:10745000D630002B39D10323A370DCE702200121B1
:107460002269E3680197A0708DF80010ADF80C2038
:10747000ADF80A30CFE7012200230197A2708DF802
:107480000020ADF80C30ADF80A30C4E70023A3703B
:10749000C9E7042384F8333004F1300002238DF867
:1074A0000830FFF737FC08B90623A370E378002BF8
:1074B000B9D0B0E784F82C3037E7012184F8D62022
:1074C00084F8D510072098476DE7042384F83330FB
:1074D00004F1300002238DF80830FFF71BFC002870
:1074E000E4D10523A370E378002B9CD093E700231D
:1074F000E37055E710B50388112B0C4626D01B2BE3
:1075000009D0102B00D010BDC37B8288012BFAD18B
:10751000A1F8C82010BD037A002BF4D1CB78144910
:10752000013381FB0321DA17C2EB610101EB810119
:10753000591AC9B22046FFF7D5FE0028E3D0D4F887
:10754000D030002BDFD0BDE810401847002381F871
:10755000D4308288B1F8C8309A42D4D10B79002B4C
:10756000D1D108460121FFF7BDFE0028E7D1CAE7C7
:10757000676666660238012801D84B7803B9704700
:10758000F0B50D78CE78002085B00C46487035B93E
:107590000820D4F8D03003B1984705B0F0BDFCF70F
:1075A000C3FE10B101236370F7E704F1250701461C
:1075B0000722384635F046FCA379002B40F0A68020
:1075C000E37933B1E378012B00F0A880022B00F0BF
:1075D000A58094F8263083B994F827306BB994F8D5
:1075E000283053B994F829303BB994F82A3023B99C
:1075F00094F82B50003518BF0125731E032B00F2A1
:10760000C480DFE803F002280530A3791BB345BB33
:10761000237A43B30322D4F8CC30E27033B16279D9
:1076200022B194F8D420002A00F09580002384F839
:10763000D53010226846002135F004FCE3780022A2
:107640008DF800208DF80820042B7ED8DFE803F0A9
:107650005B5043311000E379002BD9D0002DD7D0F7
:107660000226E670E2E7667A002EFAD00422D2E71C
:107670006379E169226AADF80A10ADF80C2033B1E4
:1076800094F8D41019B994F8D630002B4FD10423B4
:10769000A370684694F82410FFF76CFD00287FF46F
:1076A00078AFD4F8CC30002B3FF477AFA078984770
:1076B00073E763796169A269ADF80A10ADF80C202F
:1076C00033B194F8D41019B994F8D630002B4AD1BC
:1076D0000323A370DDE7022001212269E3680197FB
:1076E000A0708DF80010ADF80C20ADF80A30D0E78E
:1076F000012200230197A2708DF80020ADF80C3014
:10770000ADF80A30C5E70023A370CAE7E378012B80
:1077100004D0E279002A7FF459AF5AE7D4F8CC308C
:10772000B3B1012284F82C200820984751E70423A4
:1077300084F8333004F1300002238DF80830FFF76D
:10774000E9FA08B90623A370E378002BA9D0A0E7D3
:1077500084F82C303DE7012184F8D62084F8D51038
:107760000720984765E7042384F8333004F130009C
:1077700002238DF80830FFF7CDFA0028E4D1052365
:10778000A370E378002B8CD083E70026E6704DE7EA
:107790002DE9F043044685B000F130070126FFF7DC
:1077A000EBFC0623002184F83330384684F8D4609B
:1077B00084F8D610FFF7AEFA054610B105B0BDE863
:1077C000F08394F8008094F80390B8F1000F0AD188
:1077D0000820D4F8D03023B19847002005B0BDE888
:1077E000F0831846EAE7FCF79FFD10B16670284663
:1077F000E4E704F1250501460722284635F022FB7F
:10780000A379002B40F0AB80E37933B1E378012B0F
:1078100000F0AD80022B00F0AA8094F8263093B9D6
:1078200094F827307BB994F8283063B994F829305C
:107830004BB994F82A3033B994F82B8018F100082A
:1078400018BF4FF0010809F1FF33032B00F2C68087
:10785000DFE803F0022A0735A3792BB3B8F1000F54
:107860002AD1237A5BB30322D4F8CC30E27033B14F
:10787000627922B194F8D420002A00F09680002387
:1078800084F8D53010226846002135F0DBFAE37821
:1078900000228DF800208DF80820042B7DD8DFE829
:1078A00003F0392E134D3C00E379002BD9D0B8F109
:1078B000000FD6D04FF0020984F80390DFE7637A17
:1078C000002B6DD00422CFE7022001212269E3685A
:1078D0000195A0708DF80010ADF80C20ADF80A30BD
:1078E000684694F82410FFF745FC00287FF471AF38
:1078F000D4F8CC300BB1A078984700205EE7012285
:1079000000230195A2708DF80020ADF80C30ADF881
:107910000A30E5E70023A370EAE76379E169226AA8
:10792000ADF80A10ADF80C202BB194F8D41011B9B1
:1079300094F8D63023BB0423A370D1E7637961693F
:10794000A269ADF80A10ADF80C202BB194F8D41050
:1079500011B994F8D63083BB0323A370C0E7E37852
:10796000012B04D0E279002A7FF454AF55E7D4F814
:10797000CC30BBB1012284F82C20082098474CE77A
:10798000042384F83330384602238DF80830FFF79B
:10799000C1F908B90623A370E378002BA8D09FE7AC
:1079A000994689E784F82C3037E7012184F8D620FE
:1079B00084F8D5100720984764E7042384F833300F
:1079C000384602238DF80830FFF7A4F90028E3D1E8
:1079D0000523A370E378002B8AD081E74FF00009DC
:1079E0006AE700BF75DF704776DF70477ADF704760
:1079F0007BDF704770B51D4C238885B2AB4282B0E7
:107A000001D002B070BD1A4E217A327B91420FD361
:107A1000337C00222272BBB97369002BF1D00022A3
:107A2000ADF806508DF8042001A8984702B070BD4B
:107A3000184604F10A01FFF7D5FF88B11128E0D0FC
:107A4000B369002BF1D1DCE728463B21FFF7CCFFDF
:107A500030F00803E0D0B369002BDDD09847DBE7B6
:107A6000237A0133237202B070BD00BF5836002064
:107A70003C360020F0B50288112A83B0034654D06A
:107A800040D9122A08D0502A04D1774DC188EA89FA
:107A900091425CD003B0F0BD744C82882188914241
:107AA000F8D1E589268A4089618940F2F31C654551
:107AB0004FF6FF7E05EB0C0794BF6D1BCCEB050565
:107AC000764594BFB61BCEEB0606814256D8A189F7
:107AD000814253D399898D4250D88F424ED3DB894E
