:100000000000042071780000997800009B780000BF
:100010009D7800009F780000A1780000000000009B
:10002000000000000000000000000000A3780000B5
:10003000A578000000000000A7780000A978000063
:10004000AD410000F9B70200AB780000AB780000CA
:10005000AB780000AB78000079450000AB78000079
:10006000AB780000AB780000AB780000AB78000004
:10007000AB780000B19E0200AB780000AB780000C6
:10008000AB780000D9120000AB780000AB7800001C
:1000900079130000AB780000AB780000AB7800006B
:1000A000AB780000AB780000AB780000AB780000C4
:1000B000AB780000AB7800000000000000000000FA
:1000C000AB780000AB780000AB780000AB780000A4
:1000D000F1960200AB780000AB780000C16100002F
:1000E000AB780000AB780000AB78000000000000A7
:1000F00000000000AB78000000000000AB780000BA
:1001000000000000000000000000000000000000EF
:1001100000000000000000000000000000000000DF
:1001200000000000000000000000000000000000CF
:1001300000000000000000000000000000000000BF
:1001400000000000000000000000000000000000AF
:10015000000000000000000000000000000000009F
:10016000000000000000000000000000000000008F
:10017000000000000000000000000000000000007F
:10018000000000000000000000000000000000006F
:10019000000000000000000000000000000000005F
:1001A000000000000000000000000000000000004F
:1001B000000000000000000000000000000000003F
:1001C000000000000000000000000000000000002F
:1001D000000000000000000000000000000000001F
:1001E000000000000000000000000000000000000F
:1001F00000000000000000000000000000000000FF
:1002000010B5054C237833B9044B13B10448AFF350
:1002100000800123237010BD280100200000000091
:100220001C650400084B10B51BB108480849AFF322
:1002300000800848036803B910BD074B002BFBD0B2
:10024000BDE81040184700BF000000001C65040016
:100250002C010020D000002000000000154B002BD6
:1002600008BF134B9D46A3F5803A00218B460F46ED
:100270001348144A121A3CF03FF80F4B002B00D0E1
:1002800098470E4B002B00D0984700200021040017
:100290000D000D48002802D00C48AFF300803BF061
:1002A000CFFF2000290007F029F93BF0A3FF00BF92
:1002B0000000080000000420000000000000000012
:1002C0002801002058E80020000000000000000085
:1002D000704700BF704700BF00B583B0044B009368
:1002E000044A402300F01EF803B05DF804FB00BF91
:1002F000F902000044010020F8B5144672B10F461F
:100300000A26002579192246002007F049F90544FC
:10031000241A08B9013E01D0002CF3D1F8BD00BF6A
:1003200007F076BAF0B595B0002415460F4608469A
:100330001E4602F06DFA3846234605A908220895A4
:100340001A9D09960D950A948DF82C400C9402F094
:10035000BDFA9DF81430079806998DF8104003F007
:100360000302012A0290ADF80C102CD0022A04D00E
:10037000384602F05DFA15B0F0BDBDF81650C3F373
:10038000C202C3F38003C5F389158DF80E208DF8E2
:100390000F300826082D2C4628BF08243346224655
:1003A00038460EA902F092FA2D1B21460EA802AA89
:1003B00008AB264400F0ACFC002DEBD1384602F02F
:1003C00037FA15B0F0BDBDF81460059DC6F383166D
:1003D000C3F3C20EB2000EA9C3F38004384608234B
:1003E000C5F395258DF80EE08DF80F4002F06EFAFA
:1003F00008AB0093284632460EA902AB00F0F0FB92
:10040000B6E700BF10B5054CFFF78AFF2046042170
:1004100000F0A6FB0123637210BD00BF00000020A6
:1004200008B5104B10480022FF21C3F8182499602A
:100430001A605A60C3F8142483F81C2402F0A0F94F
:1004400070B90A4B0A4A9A1AD20807D009490346DA
:100450000B520133934200F10C00F9D1002008BD8A
:1004600008BD00BF840100202CDF0300806504006C
:1004700048650400D400002021B9124A02EBC000F4
:100480000068704730B410490E4D491BC9080ED0A2
:100490000E4B5A88824218BF002205D10FE0DC893A
:1004A000844203F10C0305D001328A42F7D10020C7
:1004B00030BC704705EBC200006830BC704728466E
:1004C000FAE700BF4865040080650400D4000020FE
:1004D000064B032903EBC00005D0042901D1407964
:1004E0007047002070470079704700BF48650400DE
:1004F0002DE9F04F824C626823689A4285B03CD067
:100500000023C4F81834BFF34F8F6068A56805EA6C
:100510000003023304EB8302111D127912F0030F62
:10052000024610D10B884988C3F3891303EB91135A
:1005300001331A4402EA0503023304EB8306311D3A
:100540003679B607EED004EB8303511C5E68019642
:10055000294004EB810306F00306DB680293022EB8
:1005600002F10208664F0CD0012E63D02368181ADE
:1005700018BF012005B0BDE8F08F002005B0BDE830
:10058000F08FBDF806305F48C3F38919B9F1500FF9
:10059000CA46A8BF4FF0500A6AF38F130AF1080148
:1005A000ADF8063002F0EEF80646002800F0838031
:1005B00025EA080B0BF1010B02F02AF94FEA8B0B2D
:1005C000304601A90822002302F058F9DA4540F22A
:1005D0008A80BBF1000F70D107F10C015246304602
:1005E000082302F04BF909F1030708EB9707D4F849
:1005F0001834DFF80C81D4F81054002B55D14DB1CC
:100600006B7A2846314613B12B681B6898476D6892
:10061000002DF5D1304602F00BF9002001F090FCDE
:10062000D4F81834364A03B95760002001F090FC22
:1006300060689BE7BDF804303248C3F38312062A92
:1006400028BF0622911C62F389138900ADF804309B
:1006500002F098F8064670B302F0DAF8002330464C
:1006600001A9082202F00AF9BDF8043013F4707FE2
:1006700044D04FF0000A4FF0080908EA050104EBE6
:1006800081014B460C313046042202F0F7F8BDF8E8
:1006900004300AF1010AC3F3831308F1010753453B
:1006A00009F10409B846E8D8A1E7304602F0C0F8DD
:1006B000D8F804005AE7786858E708EA050107EB1C
:1006C0008101CBEB0A0530465A460C31EDB20823C6
:1006D00002F0D4F830462A4607F10C010BF108036A
:1006E00002F0CCF87FE708EA050107EB81010C3145
:1006F00052463046082302F0C1F874E7474676E7D1
:10070000840100202CDF03002DE9F04F554C89B007
:10071000A368029000200391019301F011FCA568E9
:100720006168D4F800806B180133C8EB0303032B16
:100730005FD805F10109C8EB090904F5836C04F2DF
:1007400014470126A2464FF0000E5CE8003F43EA42
:1007500006024CE8002090F0000FF6D157E8003F69
:1007600043EA060247E8002090F0000FF6D101EAC4
:100770000503023304EB8302101D127912F0030FFC
:100780000A4613D103884088C3F3891303EB9013FF
:1007900001331A4402EA0503023304EB830B0BF125
:1007A00004009BF804B01BF0030FEBD004EB8303B1
:1007B00002325B68059303F00303012B4BD0022B3D
:1007C00006D1BDF81630C3F38913033302EB93024D
:1007D00057E8003F03EA0E0047E8000B9BF0000FCC
:1007E000F6D113B1CAF80420114609EB0103032B1B
:1007F000ABD908F102030020236001F0A9FB019EA0
:10080000029D08EA0603023304EB830301211A79EF
:1008100061F30102C5F3001161F3820265F3C502C1
:100820001A719A886FF389129A805968039808F1AF
:10083000010260F39F215960324004EB820394F877
:100840001C24290CD9601AB1FFF752FE0028FBD1F5
:1008500009B0BDE8F08FBDF81430C3F383131A4418
:10086000B6E700BF840100202DE9F04F5A4C89B053
:10087000A3680190002002910093039201F060FBB5
:10088000A5686168D4F800806B180133C8EB0303D6
:10089000042B5FD805F10109C8EB090904F5836C45
:1008A00004F214470126A2464FF0000E5CE8003F18
:1008B00043EA06024CE8002090F0000FF6D157E81A
:1008C000003F43EA060247E8002090F0000FF6D10F
:1008D00001EA0503023304EB8302101D127912F0C2
:1008E000030F0A4613D103884088C3F3891303EB2F
:1008F000901301331A4402EA0503023304EB830B1D
:100900000BF104009BF804B01BF0030FEBD004EBD9
:10091000830302325B68059303F00303012B54D079
:10092000022B06D1BDF81630C3F38913033302EB53
:10093000930257E8003F03EA0E0047E8000B9BF0E4
:10094000000FF6D113B1CAF80420114609EB0103D8
:10095000042BABD908F103030020236001F0F8FA5F
:10096000009D019E08EA0503023304EB8303012185
:100970001A79C6F3001061F3010260F3820266F394
:10098000C5021A719A8861F389129A8059683046B3
:10099000029E08F1010266F39F2108F102082A4035
:1009A000596004EB820208EA050304EB8303000CA0
:1009B00094F81C14D060039ADA6019B1FFF798FD1F
:1009C0000028FBD109B0BDE8F08FBDF81430C3F3A7
:1009D00083131A44ADE700BF840100202DE9F04FD6
:1009E0005E4C8BB0029005930020A36803910193A5
:1009F000049201F0A5FAA5686168D4F800806B182C
:100A00000133C8EB0303052B5FD805F10109C8EBDF
:100A1000090904F5836C04F214470126A2464FF03D
:100A2000000E5CE8003F43EA06024CE8002090F02C
:100A3000000FF6D157E8003F43EA060247E80020DE
:100A400090F0000FF6D101EA0503023304EB8302B4
:100A5000101D127912F0030F0A4613D10388408843
:100A6000C3F3891303EB901301331A4402EA05031D
:100A7000023304EB830B0BF104009BF804B01BF072
:100A8000030FEBD004EB830302325B68079303F0A0
:100A90000303012B5BD0022B06D1BDF81E30C3F33C
:100AA0008913033302EB930257E8003F03EA0E0079
:100AB00047E8000B9BF0000FF6D113B1CAF80420F1
:100AC000114609EB0103052BABD908F10403002003
:100AD000236001F03DFA019D029E08EA05030233FE
:100AE00004EB830301211A7961F30102C6F30011BB
:100AF00061F3820266F3C5021A719A88022161F3DA
:100B000089129A805868039A08F1010162F39F20C4
:100B1000294008F1020208F10308586004EB810142
:100B200008EA05032A4004EB820294F81C0404EB53
:100B30008304330CCB60049BD360059BE36018B146
:100B4000FFF7D6FC0028FBD10BB0BDE8F08FBDF855
:100B50001C30C3F383131A44A6E700BF84010020AE
:100B600030B4144DD5F81044002154B1237A8B428F
:100B700014D0234602E01A7A8A420FD05B68002B19
:100B8000F9D10172D5F810340A4A7BB15B68436031
:100B9000D2F810345860084630BC704701310A2939
:100BA000E3D14FF0FF31084630BC7047C2F8100463
:100BB0004360F0E78401002038B5084BD3F81044B7
:100BC000012583F81C543CB12368657220465B689C
:100BD00098476468002CF7D138BD00BF840100201D
:100BE0002DE9F04784B01D460C9C002394F80C803E
:100BF0002373EB7981460E4617460BB3062F0FD8A9
:100C0000DFE807F0363B414804515E00B168F06808
:100C100096E80C00009101904946204601F09CFAAC
:100C2000EB792BB92B7AEBB92046334901F094FAD2
:100C3000204601F085FA84F80C8004B0BDE8F08706
:100C40002B7A002B4BD1AA792C4BA88853F822A0E1
:100C50000021FFF711FC524603462949204601F0C6
:100C60007BFACBE720462749274A01F075FADBE7F4
:100C70004946204601F070FAD2E7494632682046DC
:100C800001F06AFACCE74946204696E80C0001F0EC
:100C900063FAC5E7B16896E80C0020460091494622
:100CA00001F05AFABCE7B1683069F76896E80C00C1
:100CB0000091029049460197204601F04DFAAFE7B6
:100CC00096E80C00B168F068376976690396009180
:100CD000019049460297204601F03EFAA0E7A97923
:100CE000A888FFF7F5FB094B064953F8202020465A
:100CF00001F032FAA7E700BF1CE3030040DF030066
:100D00007CDF030078DF030088DF030054DF03008B
:100D1000082951D82DE9F0471D46002395F80C907D
:100D20002B73D379904607460E46002B45D00024FE
:100D300005E03A5D013401F00FFA082C0AD0A64212
:100D400028463049F5D828462F49013401F004FAE5
:100D5000082CF4D128462D49DFF8D4A001F0FCF985
:100D600000240DE03A5DDAF80030134401345B787A
:100D700013F0970F08BF2E2201F0EEF9082C0AD0CD
:100D8000A64228462249EDD828462249013401F0DE
:100D9000E3F9082CF4D198F8073013B998F8083023
:100DA000F3B928461C4901F0D7F9284601F0C8F9E3
:100DB00085F80C90BDE8F0877047137AB3B998F8BE
:100DC0000620164BB8F8040053F822400021FFF724
:100DD00053FB224603461249284601F0BDF9A6E717
:100DE00028461049104A01F0B7F9DAE7917990885E
:100DF000FFF76EFB0D4B0B4953F82020284601F0FE
:100E0000ABF9DCE790DF030098DF03009CDF030011
:100E1000A0DF030084DF03001CE3030040DF0300C6
:100E20007CDF030078DF030088DF030054DF03006A
:100E300060000020084B1B5C1F2B8ABF074A4FF045
:100E4000A04203F01F03D2F80405D84000F00100CF
:100E500080F00100704700BF04E003000003005071
:100E6000074B1B5C1F2B86BF03F01F0305494FF088
:100E7000A041012202FA03F3C1F80C35704700BF0C
:100E800004E0030000030050064B1A5C1F2A86BFD3
:100E900002F01F0204494FF0A04101239340C1F822
:100EA0000835704704E00300000300504FF0A043F2
:100EB00010B44FF480404FF400544FF400414FF40D
:100EC0008032C3F80845C3F80805C3F80815C3F80D
:100ED00008255DF8044B70474FF0A04310B44FF461
:100EE00080404FF400544FF400414FF48032C3F877
:100EF0000C45C3F80C05C3F80C15C3F80C255DF8B8
:100F0000044B70470A4B195C1F298ABF09484FF0F0
:100F1000A04001F01F01D0F8043501228A4022EAE6
:100F200003011340C0F80815C0F80C35704700BF26
:100F300004E003000003005030B44FF0A04303224C
:100F40004FF400554FF480444FF400404FF480318B
:100F5000C3F83427C3F83827C3F83C27C3F8402721
:100F6000C3F80855C3F80845C3F80805C3F80815C1
:100F700030BC70470B2809D00C2809D0182809D09C
:100F8000192814BF4FF0FF3003207047002070472E
:100F900001207047022070474B4B1978002900F060
:100FA00091802DE9F04F87B0DFF828C1049100242B
:100FB000012504E00134049BE4B29C4265D227B2CF
:100FC000DCF8006016F83700A0F1200305FA03F9F9
:100FD0003E4BC0F1200ED3E9002325FA0EFE49EA6C
:100FE0000E0905FA00F808EA020A09EA030B06EB03
:100FF000C7015AEA0B0E0591DCD03449CDF810C078
:1010000022EA080223EA0903C1E9002303F0A4FA53
:1010100016F83760DDF810C0A6F1200205FA02F2DA
:1010200001920199C6F120035FFA80FA25FA03F3D1
:10103000A6F1200219430AFA02F30393019105FA7B
:1010400006F10091C6F120070399214B2AFA07F710
:10105000394303910AFA06F1D3E900230291DDE94D
:1010600000011040194002460B46DDE902018B42A7
:1010700008BF82424FF0000B0AD0134B1B78049339
:101080000134049BE4B29C4299D307B0BDE8F08FD1
:10109000059A576852780023A2F10102B2FA82F24F
:1010A0005209002FE9D05B4506BF524501210021BE
:1010B0003046CDF814C0B847034BDDF814C01B7898
:1010C000049377E7704700BF7C060020A806002045
:1010D000A0060020780600202DE9F84307462048A6
:1010E00000F082FDD0B91F4E0123A7F1200103FAC1
:1010F00001F5C7F12002D6E9000123FA02F21543F7
:1011000003FA07F404EA000205EA0103134307D0D7
:1011100020EA040421EA0505C6E90045BDE8F88394
:10112000384603F019FA104FD7E9002398B144EA82
:10113000020845EA0309D6E9002314431D43C7E921
:101140000089C6E900450949054809680022BDE84B
:10115000F84300F0F5BC22EA040823EA0509EAE7AF
:1011600080060020A8060020A006002074060020AB
:10117000F0B5042A83B0164602D8072003B0F0BDAC
:1011800005460F4603F088F8002836D01D4BDFF8DF
:101190008CC0DFF88CE01C481C491D600022002335
:1011A0007C1E8CF80070CEF80060C0E90023C1E915
:1011B0000023E4B2DFB10327002600E01C4623B27F
:1011C00005EBC30215F833009378114A8DF805300A
:1011D00001A98DF804708DF806608DF8076003F0A2
:1011E00065F8631E0028C9D1DBB2002CE6D1094A9C
:1011F0000948002100F092FCC0E703F007F800283E
:10120000C4D0BBE778060020A0060020A806002076
:10121000D9100000990F000008E003007C060020B0
:101220007406002070B5084D2B785BB1074E002482
:101230003368012113F8340003F012F92B780134DC
:10124000A342F5D8002070BD7C060020780600205F
:1012500000B585B000230390194644F2010001AAAD
:10126000ADF80430029300F003F805B05DF804FB1C
:1012700010B5FFF7A1FCFFF73BF90028FBD1104C9C
:1012800010492088000440F00100FFF73DFA0E4BA2
:101290001B68DB0700D5FFDE20880C49000440F006
:1012A0000200FFF731FABFF34F8F0949094BCA68B3
:1012B00002F4E0621343CB60BFF34F8F00BFFDE742
:1012C000D40000200CE00300F0ED00E018E0030083
:1012D00000ED00E00400FA05F8B5204A204B002597
:1012E000C2F84051C2F84451C2F84851C2F84C51BA
:1012F000C2F80051C2F804511B6813B31949D2F85F
:1013000004250C68141B1A6824F07F44A2422F465F
:1013100009D8197CDE69A41A154499B91EB133465F
:101320001A68A242F5D9104B10491A780B789A42E4
:101330000DD00F490F4A41F823504FF48013C2F8E3
:101340000031F8BD1F745A6998699047E6E7531C4D
:10135000DBB2022B08BF00230B70EAE7001001404C
:10136000B4060020B0060020B8060020B906002010
:10137000C807002000E100E02DE9F04F7D4A7E49DA
:10138000137809787D48994287B0066800F0E881B3
:101390000133DBB2022B08BF002379491370794A6D
:1013A0000291084652F82310036874488A190025F0
:1013B00022F07F420260AE462846A3B11A688A42F4
:1013C00000F2D681DC68C3F800E0891A1044DA69BB
:1013D00034B1871927F07F47DD619C605F601D464F
:1013E0001346002BEAD1029A04931360049C012354
:1013F0000593654BDFF894811B7801935F4BDFF811
:1014000090C1D3F800A0029B1F680023BB462F4663
:101410000093C1461E464FF0010E37B37A68B96893
:101420003D46FF69CAEB020323F07F4363453CD886
:101430000B442B606E60AE6085F810E0EE61002C0E
:1014400067D021688B4242D9204603E01168994257
:1014500044D21046C2695B1A002AF7D12B60EA61B8
:101460002346C5611C46002FD8D198F8003098F863
:1014700001209A4200F08E805A1C03EB430308EBD4
:10148000C30399F802109D68D2B2914289F80020F6
:101490001A7908BF89F80070022A48D0032A3CD084
:1014A000012A22D023461C46DDE7C2EB0A0222F0C5
:1014B0007F428A4202D28B1A2B60BBE72E606E609D
:1014C000AE6085F810E0EE611CB321680023CB1AF2
:1014D00023602B46EC61AB461C46C4E7C91A116079
:1014E0002B60EA612346C561BCE72A7C0392002A8F
:1014F000D8D1DA686A601969A9605869E860103360
:101500009B68AB61019B002B8CD0039B6B601A46E0
:1015100088E72B46AB461C46A5E70CB9C2E71C463C
:10152000E3692674002BFAD19B461C469BE754B115
:10153000A54200F00881234602E0954207D01346F9
:10154000DA69002AF9D123462E741C468BE7AB4298
:1015500000F0FA80E9692868D9610029F3D02346B0
:101560000A6802440A60009A2E749C4218BF012245
:101570000092EAE7B8060020B9060020B006002075
:10158000B4060020C8070020BA060020BC060020D0
:10159000FEFF7F00029B9DF80420C3F800B0764B4D
:1015A000C3F800A0754B1A70009B1BB9049BA342A3
:1015B00000F0D081002C00F03C81714D6E4BD5F8CD
:1015C00004051B686F4ED4F800C03178C21A22F0AF
:1015D0007F420332002952D16B4FDFF8B091DFF820
:1015E000B0814FF480314FF4003E0124C5F844131C
:1015F000C5F80413C7F880E1C7F800E02C602F217C
:10160000D9F8005000BF00BF00BF00BF00BF00BF3F
:1016100000BF00BF45452FD000BF00BF00BF00BFC7
:1016200000BF00BF00BF00BF00BF00BF00BF00BFC2
:1016300000BF00BF00BF00BF00BF00BF00BF00BFB2
:1016400000BF00BF00BF00BF00BF00BF00BF00BFA2
:1016500000BF00BF00BF00BF00BF00BF00BF00BF92
:1016600000BF00BF00BF00BF00BF00BF00BF00BF82
:1016700000BF00BF00BF00BF0139C3D13470624555
:101680002CBF9A1803EB0C023D4922F07F43C1F8AE
:101690004035D1F80425121A1B1A22F07F4223F09C
:1016A0007F4303329A4248D9D1F80435374AC1F80A
:1016B0004035126836492F2300BF00BF00BF00BF6E
:1016C00000BF00BF00BF00BF8A422FD000BF00BFD5
:1016D00000BF00BF00BF00BF00BF00BF00BF00BF12
:1016E00000BF00BF00BF00BF00BF00BF00BF00BF02
:1016F00000BF00BF00BF00BF00BF00BF00BF00BFF2
:1017000000BF00BF00BF00BF00BF00BF00BF00BFE1
:1017100000BF00BF00BF00BF00BF00BF00BF00BFD1
:1017200000BF00BF00BF00BF00BF00BF013BC3D16F
:10173000154B4FF40032C3F80021104A00231370F8
:1017400007B0BDE8F08F2246D4F81CB0BBF1000F03
:1017500022D0D16910685B4600297FF401AF02E70F
:101760000C4B02931B680493002505951C4640E62C
:10177000521A1A6037E600BFB0060020BA060020F1
:1017800000100140D007002000E100E0140000201C
:101790000024F400B40600207549764BC1F808E037
:1017A00075492F20096800BF00BF00BF00BF00BF00
:1017B00000BF00BF00BF99422FD000BF00BF00BFD5
:1017C00000BF00BF00BF00BF00BF00BF00BF00BF21
:1017D00000BF00BF00BF00BF00BF00BF00BF00BF11
:1017E00000BF00BF00BF00BF00BF00BF00BF00BF01
:1017F00000BF00BF00BF00BF00BF00BF00BF00BFF1
:1018000000BF00BF00BF00BF00BF00BF00BF00BFE0
:1018100000BF00BF00BF00BF00BF0138C3D1D16906
:101820001068002900F09B800122DA465B46019295
:1018300096E64F4A514B504E4E484FF480314FF48C
:1018400000370125C3F88070C2F848132F23C2F86F
:101850000813556031681E4600BF00BF00BF00BFBF
:1018600000BF00BF00BF00BF81422FD000BF00BF3C
:1018700000BF00BF00BF00BF00BF00BF00BF00BF70
:1018800000BF00BF00BF00BF00BF00BF00BF00BF60
:1018900000BF00BF00BF00BF00BF00BF00BF00BF50
:1018A00000BF00BF00BF00BF00BF00BF00BF00BF40
:1018B00000BF00BF00BF00BF00BF00BF00BF00BF30
:1018C00000BF00BF00BF00BF00BF00BF013EC3D1CB
:1018D00095602B4A146000BF00BF00BF00BF00BF6F
:1018E00000BF00BF00BF81422FD000BF00BF00BFBC
:1018F00000BF00BF00BF00BF00BF00BF00BF00BFF0
:1019000000BF00BF00BF00BF00BF00BF00BF00BFDF
:1019100000BF00BF00BF00BF00BF00BF00BF00BFCF
:1019200000BF00BF00BF00BF00BF00BF00BF00BFBF
:1019300000BF00BF00BF00BF00BF00BF00BF00BFAF
:1019400000BF00BF00BF00BF00BF013BC3D10D4BB4
:101950001C70F2E6059B002B3FF4EFAE2AE6012354
:101960001A4601938A468B460B4600922E74ECE58C
:10197000001001400024F4001400002000E100E009
:10198000B0060020D00700202DE9F041594B5A4AFB
:101990005A4D5B4E4FF480344FF400310120C2F8B1
:1019A0008010C3F848432F21C3F8084358602D68BE
:1019B0000C4600BF00BF00BF00BF00BF00BF00BF9C
:1019C00000BFB5422FD000BF00BF00BF00BF00BFA7
:1019D00000BF00BF00BF00BF00BF00BF00BF00BF0F
:1019E00000BF00BF00BF00BF00BF00BF00BF00BFFF
:1019F00000BF00BF00BF00BF00BF00BF00BF00BFEF
:101A000000BF00BF00BF00BF00BF00BF00BF00BFDE
:101A100000BF00BF00BF00BF00BF00BF00BF00BFCE
:101A200000BF00BF00BF013CC3D1364C986000200E
:101A3000206000BF00BF00BF00BF00BF00BF00BFED
:101A400000BFB5422FD000BF00BF00BF00BF00BF26
:101A500000BF00BF00BF00BF00BF00BF00BF00BF8E
:101A600000BF00BF00BF00BF00BF00BF00BF00BF7E
:101A700000BF00BF00BF00BF00BF00BF00BF00BF6E
:101A800000BF00BF00BF00BF00BF00BF00BF00BF5E
:101A900000BF00BF00BF00BF00BF00BF00BF00BF4E
:101AA00000BF00BF00BF0139C3D1174D1749DFF890
:101AB0006080DFF860C0DFF860E028704FF48016C7
:101AC000E0250B27C8F800008CF800008EF8000015
:101AD000087048708F70C2F8806182F814531660E5
:101AE000C3F8080582F81153D3F804352360BDE824
:101AF000F08100BF0010014000E100E01400002070
:101B00000024F400B0060020D0070020BC0600200E
:101B1000B4060020B8060020B9060020074B9B78C9
:101B20000BB9082070473AB130B10368187C00281F
:101B3000F7D159745A61704707207047BC060020DE
:101B40002DE9F041254CA37813B90820BDE8F081B8
:101B50000028FAD0042902D80720BDE8F0814369A3
:101B6000002BF2D0437C0546012B4FF000000CBF48
:101B70008846804617460E4600F0E2F96378A07862
:101B800021785A1CD2B2904208BF002291421ED046
:101B900003EB430304EBC30319464FF0010E41F876
:101BA000085F0F4883F804E0D0F8040548608E60B1
:101BB0000020C3F814809F61627000F0C9F9094BDE
:101BC0004FF48012C3F800210020BDE8F08100200E
:101BD00000F0BEF90420BDE8F08100BFBC06002083
:101BE0000010014000E100E070B5184CA3780BB97B
:101BF000082070BD0028FBD04369002BF8D00025D9
:101C000005740646284600F09BF96278A078217892
:101C1000531CDBB2984208BF2B46994211D002EB0D
:101C2000420204EBC20202212846966011716370E1
:101C300000F08EF9064B4FF48012C3F800212846BD
:101C400070BD284600F084F9042070BDBC06002059
:101C500000E100E083690B6040697047F0B50B78E4
:101C600087B00C4606460A2B2CD8DFE803F027275E
:101C700027272B062F444A2727004B78DA09C3F37E
:101C800041136AD1012B1DD18B780268202B42D0E1
:101C9000222B17D1B1F80730A3B9B1F80330117F67
:101CA000938303F0010301F001029A4206D0002B56
:101CB00000F08E80C3690BB10221984700242046B2
:101CC00007B0F0BD0624204607B0F0BD037A8A783D
:101CD000FBB1837A00F10901CBB1C37ACB5C9342AB
:101CE000ECD013064AD4E378012BE7D04DD3032B75
:101CF000E4D00324E3E701F0CFFB0446204607B01D
:101D0000F0BD01F0D7FB0446204607B0F0BD1B78BC
:101D1000FFDE5B78FFDEB1F807100729D2D113721E
:101D2000B4F807300024DBB2537220460A32049321
:101D30000392059400F004F9204603A901F034FC55
:101D4000044630B9344B029601A9019302F0E4F83D
:101D50000446002000F0FCF8B1E7EBB1012BB1D153
:101D60008B780168212BADD1B4F80720072AA9D1BF
:101D7000601C143101F090FD0446A0E7E478F4B152
:101D8000032C0CBF0024032499E7C369002B95D0D2
:101D900000219847002492E78D78062D92D106AF56
:101DA000097947F80C3DE2783B4600F0EFFD01462B
:101DB00060B1601C039A01F06FFD04467FE7C369C0
:101DC000002B3FF47BAF0121984778E72C4676E75C
:101DD000C3690BB103219847337A012B15D9737B63
:101DE000002B94D0B37B06F10C04E05C04F040FBC4
:101DF000337A012B09D9737B012B09D9B37B234497
:101E00000024587804F034FB59E700235B78FFDEA8
:101E100000231B78FFDE00BF1D1E000008B1032059
:101E2000704709680B7A202B01D00620704710B547
:101E30000722044601F114000A313AF037FA20462D
:101E400010BD00BF03689B8BDB0701D408207047DF
:101E5000037A012B03D9437B23B91B78FFDE0023D0
:101E60005B78FFDE00B5837B85B0184401910023C9
:101E700001A9007B0292039301F096FB05B05DF887
:101E800004FB00BF037A012B14D9437B012B00F123
:101E90000C020CD900B5837B134483B001A9587898
:101EA00003F096FF48B9019803B05DF804FB0023E6
:101EB0001B78FFDE00235B78FFDE002003B05DF8B7
:101EC00004FB00BF03689B8BDB0701D4082070472D
:101ED000037A012B15D910B5437B012B84B000F197
:101EE0000C040BD9837B0191234401A90024587869
:101EF0000292039401F058FB04B010BD00231B783C
:101F0000FFDE00235B78FFDE70B50C46066800201C
:101F1000154600F015F8631E012B05D90624002094
:101F200000F016F8204670BDB38B1C4214BF01238D
:101F300000232B600024002000F00AF8204670BD2A
:101F400072B6024A1368013313607047D407002049
:101F5000034A1368013B136003B962B6704700BFC0
:101F6000D407002099B110B4B2FBF3F403FB14249E
:101F7000A4B21CB109205DF8044B704780E8120040
:101F800084608281C38120465DF8044B70470E2037
:101F9000704700BF30B482B050E8013F9DB2C489A1
:101FA00025448489A54228BF2D1B0489A54202BF70
:101FB000BFF32F8F002207E0C5EA030540E8015474
:101FC000002CE9D14FF001028DF803200193019B11
:101FD0009DF803200B6002F0FF032AB10B88006814
:101FE000184402B030BC7047184602B030BC70478D
:101FF0000A884B889A4201D00020704750E8012F90
:10200000C2EA024240E80123002BF7D101207047C9
:1020100030B482B050E8023F1FFAA3F5C488A5424D
:1020200002BFBFF32F8F00220DE0C48925448489AD
:10203000A54228BF2D1BC3EA054540E80254002CE9
:10204000E8D14FF001028DF803200193019B9DF828
:1020500003200B6002F0FF032AB14B88006818448C
:1020600002B030BC7047184602B030BC704700BFA9
:102070000A884B889A4201D00020704750E8022F0E
:10208000C2EA224240E80223002BF7D10120704728
:10209000B8B130B4416882680468521AD2B2531E93
:1020A0002160DBB242B101680A685C1E551C0D60FC
:1020B0001370E3B2FF2BF6D103680020187130BC17
:1020C00070470E20704700BF70B504460020FFF730
:1020D00037FF236861681A688A4215D9511E196052
:1020E0002168A3680D68087912F8016C228AE468F7
:1020F0005B1BDBB2984206FB024400D20B7100204E
:10210000FFF726FF204670BD00240020FFF720FFC8
:10211000204670BD38B5054600200C46FFF710FF7D
:102120002A681368591C1160E9682A8A641AB4FB8A
:10213000F2F41C700020BDE83840FFF709BF00BF73
:10214000826802B9704710B5044643692168006986
:1021500098470023A36010BD0EB400B582B0039968
:1021600029B102AA04AB42F8043D00F089F802B09C
:102170005DF804EB03B070472DE9F84F1746B942FC
:102180008A4606461D46DDF828B00B9A73D30B46E7
:102190004FF00108B3FBF7F39F4208F10108F9D9AA
:1021A000A84538BFA84612F0010902D1BBF1000FC3
:1021B00041D1B168012402E0013D07FB04F4012D87
:1021C000FAD8BAFBF4F39F42F7D92C4D02E0B1687C
:1021D000BAFBF4F34A1CB2603268E85C5054B06851
:1021E0007268904204FB13AA02D33046FFF7A8FF9F
:1021F000B4FBF7F4002CEAD1B9F1000F15D0BBF114
:10220000000F12D0C34510D92024B3683268591C7E
:10221000B160D454B26873689A420BF1FF3B06D2A6
:10222000BBF1000F01D0C345EFD8BDE8F88F3046B1
:10223000FFF786FFF4E7930718D42024C345B8D9E5
:10224000B16833684A1CB2605C54B16873689942E3
:102250000BF1FF3B05D2BBF1000FABD0C345F0D86B
:10226000A8E73046FFF76CFFB168F4E7002D14BF14
:1022700020243024E2E74FF0010891E74CE003000E
:102280002DE9F04F0D4685B0002900F0B2800B78A3
:10229000DFF8E8A4064691460135002B00F0A58042
:1022A000252B40F0A28129464FF000080D4611F879
:1022B000013B2D2B00F09381302B00F093812B2BD1
:1022C00000F085812A2B00F09E81A3F13002092ABB
:1022D00000F2BE816A1C002404EB840403EB440476
:1022E0002A2BA4F13004154600F08E811378A3F157
:1022F0003001092905F10102EED91A462E2A00F013
:102300009081002701E015F8012F02F0FB03682BF4
:10231000F9D0253A532A63D8DFE812F0270162008A
:10232000620062006200620062006200620062009D
:10233000620062006200620062006200620062008D
:10234000620062006200620062006200620062007D
:10235000620062006200620062006200620062006D
:10236000620062006200620062006200620062005D
:10237000620062006200620062006200620062004D
:1023800062004A0162006200620062006200620054
:1023900062006200620062003601CE0062006200EC
:1023A00062006200CE0062006200620062006200B1
:1023B0006200A900620062006E00620054006200C8
:1023C00062004A01D9F800301A1DC9F800201968C6
:1023D00000943B46CDF8048030460A22FFF7CCFE3D
:1023E00001352B78002B7FF457AF337B002B40F067
:1023F0006C8105B0BDE8F08FD9F800301A1DC9F81E
:10240000002018F0010F1F6840F02581002F00F018
:10241000A58138463AF04BFB8046444515D9A4B116
:102420004FF0200B00E084B1B2683368511CB160FA
:1024300003F802B0B26873689A4204F1FF3402D321
:102440003046FFF77DFE4445EDD8013F17F8013FC8
:10245000002BC5D0B2683168501CB0608B54B26894
:1024600073689A42F2D33046FFF76AFEEEE7D9F876
:102470000020131DC9F80030B36831681468581C77
:102480003022B060CA54B3687268934280F01881F9
:102490003268581C7821B060D154B26873689A428F
:1024A00080F00A81082300220192214600933046E1
:1024B0001022FFF761FE93E7D9F800301A1DC9F822
:1024C0000020D3F800B08BEAEB73A3EBEB73092B7E
:1024D0004FF0010108DD8AFB0302DB17C3EBA20307
:1024E000092B01F10101F6DCB94238BF394634B19C
:1024F000BBF1000F02DB18F0040F00D0013C18F014
:10250000020F40F0D58018F0010F18D1002C00F018
:1025100006818C4213D94FF0200CB2683368501CEE
:10252000B06003F802C0B26873689A4204F1FF34E5
:1025300080F0F780002C00F0F2808C42EDD8BBF1E7
:10254000000FC0F20D8118F0040F40F0F48008F085
:102550000303022B00F0BF808DE8100159463B4673
:1025600030460A22FFF708FE3AE7B3683268581C83
:102570002521B060D154B26873689A42FFF430AF3D
:102580003046FFF7DDFD2BE7D9F80020131DC9F811
:102590000030B36831681278581CB060CA54B26811
:1025A00073689A42FFF41CAF3046FFF7C9FD17E786
:1025B000D9F800301A1DC9F80020196800943B466C
:1025C000CDF8048030461022FFF7D6FD08E70D460F
:1025D00011F8013B2D2B48F004087FF46DAE48F054
:1025E000010863E648F0020860E6B2683168501CF2
:1025F000B0608B54B26873689A42FFF4F2AE304612
:10260000FFF79EFDEDE60024D9F800301A1DC9F849
:1026100000206A781B682E2A1C4405F101057FF40E
:1026200070AE6A78A2F13003092B05F101054FF075
:1026300000073FF66AAE07EB870702EB470715F87E
:10264000012FA2F13003092BA7F13007F3D95CE683
:102650001A46002452E6B846C7EB080B18F8012BBF
:102660008AB1B1683368481CB0605A54B268736864
:102670009A42F1D33046FFF763FDC7EB080B18F819
:10268000012B002AEDD15C457FF6AAAE2027B36866
:102690003268591CB160D754B26873689A4204F129
:1026A000FF3402D33046FFF74BFD5C45EFD897E689
:1026B000002F3FF444AF26E73046FFF741FDF1E637
:1026C0003046FFF73DFDB368E2E6304605B0BDE8B1
:1026D000F04FFFF735BD002F7FF43EAF002C3BD00D
:1026E0008C427FF639AF4FF0300CB2683368501C23
:1026F000B06003F802C0B26873689A4204F1FF3414
:1027000003D24CB38C42F0D826E73046CDF80CC04B
:102710000291FFF715FDDDF80CC00299F1E70024E6
:102720000DE73046CDF80CC00291FFF709FDDDF84A
:102730000CC00299FEE6B268531CB36033682B20CC
:102740009854B26873689A42FFF401AF3046029120
:10275000FFF7F6FC0299FAE60024FDE6B8465CE6CF
:10276000B268531CB36033682D209854B268736804
:102770009A42CBF1000BFFF4EAAEE7E767666666C4
:10278000FFF786BC2DE9F041B0F81080A8F10408ED
:102790004144CF1C0646FFF797FCB7FBF8F7044609
:1027A00078B3FFB200250123013FA0F80680066040
:1027B0000571437128D0804609E06379AF4203F187
:1027C00001036371C8F80000066080461CD03046E3
:1027D000FFF77AFC01350028EFD16679721E234697
:1027E00003D0013082421B68FBD81F684EB1002520
:1027F00023682146013538461C46FFF78BFCAE4264
:10280000F6D10020BDE8F0812046BDE8F08100BF90
:1028100010B40430012350E8002F02EB030140E81C
:10282000001494F0000FF6D15DF8044B704700BF20
:102830000146021DF8B5012052E8004FA4EB000349
:1028400042E8003595F0000FF6D113F0FF0300D0F9
:10285000F8BD4E79701E0A4603D0013398421268C3
:10286000FBD81768002EF3D000240D6801343846D9
:10287000FFF750FCA6422946F7D1F8BD2DE9F041FB
:102880000446181DE688B0FBF6F30F46154606FB16
:10289000130013B1013B2468FCD1321AAA4228BFAD
:1028A0002A468DB14FF000082044AD1A07EB08010D
:1028B0000430904439F0FAFCB5422A46246828BF17
:1028C00032460020002DEFD1BDE8F0812DE9F04126
:1028D000C688043304460F46B3FBF6F0154606FBE4
:1028E000103110B101382468FCD1721AAA4228BFF5
:1028F0002A468DB14FF000082144AD1A043107EB90
:102900000800904439F0D2FCB5422A46246828BF1A
:1029100032460021002DEFD1BDE8F08110B582B024
:10292000044601A90848FFF735FB58B12368036046
:1029300001A90548FFF75CFB044B1B6801460BB17E
:102940002046984702B010BD5C0800206C080020AB
:1029500010B582B001A90A48FFF71CFB034660B11D
:10296000084C2068186001A90548FFF741FB064B99
:102970001B6801460BB12046984702B010BD00BF4E
:102980005C08002074E003006C0800202DE9F0478B
:102990004468994688466368494692469847C8B154
:1029A000D9F80070AFB10026314603E02478214405
:1029B000B9420BD2441865784545F7D1B2450BD0E2
:1029C000247821440136B942F6B2F3D30020BDE8A1
:1029D000F0873846BDE8F0872378C9F800302046F4
:1029E000BDE8F087F0B5324983B00446842231480F
:1029F0000423FFF7B7FA10B1032003B0F0BD01F0D4
:102A0000B3FA2D4802F03CFF0028F6D1002C4AD042
:102A100094E80700294B83E80700294D294B2A4EEB
:102A20002A482B4F0024214648222C60294D1C6047
:102A3000347039F061FC48222146254839F05CFCAD
:102A40002B7A6E68DFF884E04FF0030C0CFB035C1C
:102A50000CF1090C05F1090262451BD0D2B1547882
:102A6000002111E093780344DA4210D0D35C13F0D4
:102A7000800F03F00F0314BF0EEBC30307EBC30378
:102A800001311D6030685860C8B2A042EAD30332F9
:102A90006245E3D102A9072301F8043D0D483368DC
:102AA000984703B0F0BD054B1C605C601C72B4E736
:102AB000D80700205C0800201D2900006C080020B9
:102AC000C4080020C008002011090020C808002008
:102AD00078080020A4E0030010B502F083FF04464C
:102AE00008BB12490B682BB11A68086013681146BD
:102AF000002BF9D10E490B6800202BB11A68086031
:102B00005368111D002BF9D100214822094839F0E2
:102B1000F3FB00214822084839F0EEFB074800216A
:102B20000C2239F0E9FB204610BD00BFC40800208C
:102B3000C0080020C8080020780800206C08002089
:102B400002F060BF03F03ABE4FF0804303E0D3F8D9
:102B50003824D1071AD5D3F838249207F7D510B501
:102B600082B001A90A48FFF715FA034660B1094C83
:102B70002068186001A90648FFF73AFA064B1B685F
:102B800001460BB12046984702B010BD704700BF08
:102B90005C0800205CE003006C08002010B582B0E7
:102BA000822301A90B488DF80030FFF7F3F90346A3
:102BB00068B102AC01A954F8080D18600548FFF788
:102BC00017FA054B1B6801460BB12046984702B027
:102BD00010BD00BF5C0800206C0800202DE9F04FFC
:102BE00083460078062881B000F0588117D98128E3
:102BF00000F0E58140F20381832844D0C0F06C816D
:102C0000842809D19F4D2B78032B00F0C08202F05D
:102C10009FFF002840F0948201B0BDE8F08F0228A9
:102C200000F002817BD9042849D000F22281954D21
:102C30002B789A1ED2B2062A00F2668292498A5CEA
:102C4000012A40F06182022B00F06382082B00F021
:102C500060828E4B5B6805222A700BB10320984777
:102C60008B4B594693E8050090478A4B1C68002C13
:102C7000D2D0636820461B685946984723681C6871
:102C8000002CF6D1C8E77F4D2B78032BC4D103F07D
:102C900057FC0028C0D02B789A1ED2B2062A05D83D
:102CA00079498A5C12B101F01DFA2B78022B00F0F1
:102CB0008582082B00F0828204232B70ACE7734BD3
:102CC0005B680BB103209847714B734993E805008B
:102CD0009047704B1C6844B163686F491B6820467D
:102CE000984723681C68002CF6D1664D2B78062B7C
:102CF00000F03682082B0FD09A1ED2B2062A00F2BC
:102D0000418261498A5C012A40F03C82022B03D057
:102D1000082B01D002F040FF02232B707CE7002833
:102D200000F0B68101287FF477AFDFF86891D9F819
:102D30000070002F36D097F808A0BAF1000F2DD000
:102D40004FF00008444607F109057B68DB6813B1C2
:102D50003846214698473B7AA34214D96E78AEB1E3
:102D600000242346324609E0AB782A190134D05CAE
:102D700003F0D4FDE3B2B34208D26A789342F3D3AE
:102D800000231B78FFDE00235B78FFDE08F10108DB
:102D90005FFA88F4544505F10305D6D33B681F68F4
:102DA000002FC8D1374D2B789A1ED2B2062A00F2D6
:102DB000A68135498A5C012A40F0A181022B03D00B
:102DC000082B01D002F0E8FE304B5B6802222A702B
:102DD0000BB1032098472E4B594693E805009047C6
:102DE000D9F80040002C3FF417AF636820461B68F9
:102DF0005946984723681C68002CF6D10CE70B282D
:102E000000F0598180287FF407AF1E4C2378062BF1
:102E100000F0A981072B02D0052B7FF4FDAE02F054
:102E2000BBFE02232370F7E6164D2B789A1ED2B212
:102E3000062A05D814498A5C12B101F053F92B789F
:102E4000022B01D0082B01D102F09CFE0F4B5B68D6
:102E500003222A700BB1022098470E4B1C6844B124
:102E6000636820461B685946984723681C68002CF5
:102E7000F6D1074B93E80500594601B0BDE8F04F85
:102E8000104700BF110900206CE003006C0800200F
:102E900078080020C408002080E003009BF802208E
:102EA00013064CBF9C4B9D4B02F00F0203EBC20379
:102EB00093E805005946904700283FF4ADAE9BF8D3
:102EC000020000F00F03013B062B3FF6A5AE01B058
:102ED000BDE8F04F02F09CBFDFF85C92D9F80070BB
:102EE000002F34D097F808A0BAF1000F2BD04FF084
:102EF0000008444607F109057B68DB6813B13846D2
:102F0000214698473B7AA3427FF63DAF6E7896B153
:102F100000242346324609E0AB782A190134D05CFC
:102F200003F0FCFCE3B2B34205D26A789A42F3D8CC
:102F300000231B78FFDE08F101085FFA88F4A24540
:102F400005F10305D8D83B681F68002FCAD1744D1E
:102F500003F098FB2B789A1ED2B2062A40F2C68064
:102F6000022B29D0082B27D0D9F8004000232B7042
:102F700044B163686B491B682046984723681C6806
:102F8000002CF6D1654B674993E805009047664BE6
:102F90005B680BB10A2098472B78023BDBB2062B0B
:102FA0003FF63AAE614AD35C002B3FF435AE01B038
:102FB000BDE8F04F01F096B802F0E4FDD4E7574BBE
:102FC000DFF874915A4993E805009047D9F800401A
:102FD00044B1636856491B682046984723681C68BB
:102FE000002CF6D1504C63680BB109209847514B27
:102FF0001B68002B00F0BC80012002F051FDD9F8C5
:103000000070002F34D097F80890B9F1000F2BD042
:103010004FF00008444607F109057B68DB6813B1EF
:103020003846214698473B7AA3427FF6ACAE6E788D
:1030300096B100242346324609E0AB782A190134C0
:10304000D05C03F06BFCE3B29E4205D96A789342F0
:10305000F3D300231B78FFDE08F101085FFA88F440
:10306000A14505F10305D8D83B681F68002FCAD1D8
:103070002B4D2B789A1ED2B2062A2FD9022B04D0C0
:10308000082B02D001232B70C6E502F07BFDF9E787
:10309000254B5B6803B19847264B1C68002C3FF416
:1030A000BBAD636820461B685946984723685C6837
:1030B000002CF6D1B0E51C4B5B6803B198471E4B62
:1030C0001C68002C3FF4A8AD636820461B68594675
:1030D000984723681C68002CF6D19DE513498A5C4B
:1030E000002ACBD000F0FEFF2B78C7E70F498A5C9F
:1030F000002A3FF435AF00F0F5FF2B7830E70F489A
:1031000000F0B6FF2B7859E60C4800F0B1FF2B78A1
:1031100099E502F037FD9CE5C808002078080020FA
:10312000110900207CE003006C0800206CE0030023
:1031300078E00300C0080020C40800200C00002034
:103140002B789A1ED2B2062A17D81F498A5C012A08
:1031500013D1022B0ED0082B0CD006232B705BE56D
:1031600007232B7058E502F017FD0823237053E561
:10317000207A42E702F006FDEFE7144800F078FFFE
:103180002B78E6E7114800F073FF2B78BEE503F0DB
:10319000D7F900283FF43BAD2B789A1ED2B2062A0D
:1031A00005D809498A5C12B100F09CFF2B78022BEC
:1031B00007D0082B05D004232B7028E502F0E2FC91
:1031C0007AE502F0DFFCF6E76CE003000C0000207B
:1031D00000B583B001A90848FEF71AFF48B1FFF710
:1031E000FDFC01A90448FEF743FF012003B05DF890
:1031F00004FB03B05DF804FB5C0800202DE9F041FE
:1032000090F808E0314D324F032606FB0E0600F120
:10321000090C09366246B24282B01BD0D2B1547852
:10322000002110E093784344DA4210D0D35C13F0CD
:10323000800F03F00F0314BF07EBC30305EBC303B9
:1032400001311B6873BB5FFA81F8A045EAD30332F2
:10325000B242E3D11D491E4D0024E2B2724525D28F
:1032600002EB42021CEB020220D0002712E093780E
:103270003344DA4212D0D35C13F0800F03F00F0313
:1032800014BF05EBC30301EBC303013718604668A5
:1032900036685E605378FEB2B342E8D890F808E032
:1032A0000134DAE7112002B0BDE8F081094A136861
:1032B0001BB11A681368002BFBD102A9106007220A
:1032C00001F8042D43681B689847ECE77808002054
:1032D000C8080020C40800202DE9F04F6B4DDFF82E
:1032E000B0B1DFF8B0A183B02F46D946D04608264A
:1032F0002C68002C65D002A9636801F8046D204693
:103300001B68984700285DD123681B683B602368D1
:103310001860DBF800309C42DBF8083004BFC9F8C5
:103320000000C9F804009C4200F0A980DBF81030CE
:103330009C4200F09E80DBF818309C4200F09380A5
:10334000DBF820309C4200F08880DBF828309C427B
:103350007DD0DBF830309C4273D0DBF838309C42B3
:1033600069D0DBF840309C425FD0DAF800309C42F4
:1033700055D0DAF808309C424BD0DAF810309C4235
:1033800041D0DAF818309C4237D0DAF820309C422D
:103390002DD0DAF828309C4223D0DAF830309C4225
:1033A00019D0DAF838309C420FD0DAF840309C421D
:1033B0009ED12C680023CAF84030CAF84430002C53
:1033C00099D1204603B0BDE8F08F0023CAF8383009
:1033D000CAF83C30E9E70023CAF83030CAF8343084
:1033E000DFE70023CAF82830CAF82C30D5E70023DD
:1033F000CAF82030CAF82430CBE70023CAF81830C6
:10340000CAF81C30C1E70023CAF81030CAF81430DB
:10341000B7E70023CAF80830CAF80C30ADE700233C
:10342000C8F80030C8F80430A3E70023CBF84030D8
:10343000CBF8443099E70023CBF83830CBF83C3058
:103440008FE70023CBF83030CBF8343085E700230A
:10345000CBF82830CBF82C307BE70023CBF820309A
:10346000CBF8243071E70023CBF81830CBF81C30B0
:1034700066E70023CBF81030CBF814305BE700236D
:10348000CBF80830CBF80C3050E700BFC408002060
:10349000C808002078080020054A136823B11A687C
:1034A0005368002BFBD1043210600020704700BF2E
:1034B000C00800200A4A136843B1984202D108E0CC
:1034C000984205D01A685368002BF9D1052070473F
:1034D000043203685B68136003680020586070471B
:1034E000C0080020024B1878003018BF0120704738
:1034F00010090020014B1868704700BFC408002065
:10350000F0B4104B1F6897B13C7AB4B100231D464C
:103510003A4605E00133DDB2AC4202F103020CD9B8
:10352000A34207D0567A8642F4D101B10D703846D5
:10353000F0BC704700231B78FFDE3B681F68002F3C
:10354000E2D1F4E7C4080020436811461B6818471D
:1035500000F00F03082B01D91020704702064CBF62
:10356000044A054A02EBC30318680028F4D04368F4
:103570001B681847C80800207808002038B5094B98
:103580001C6805461CB90AE023681C683CB16368E6
:1035900020461B68294698470628F5D038BD0620E6
:1035A00038BD00BFC408002038B50C46054602F0FF
:1035B0000DFB08B9082038BD044B1B78022BF9D14C
:1035C00028462146BDE8384002F010BB1109002012
:1035D00038B50C46054602F0F9FA08B9082038BD9E
:1035E000044B1B78022BF9D128462146BDE8384010
:1035F00002F090BB11090020F8B543689B680646AD
:103600000D4614461BB19847062800D0F8BD0CB1F2
:103610000720F8BD337AAB4222D9093605EB4505C0
:1036200035446F78F7B123463A4614E0AB782A194F
:10363000D65C06F00F03072B05D8304602F020FCBD
:10364000304602F0F1FB3046013402F0BBFEE3B23B
:103650009F4207D96A789A42E8D800231B78FFDE98
:103660006378FFDE0020F8BD43681B6903B118478B
:10367000184670472DE9F0472A4BD3F80080B8F17F
:10368000000F4DD098F808A0BAF1000F3FD00027E6
:103690003C4608F109050BE04046214600229847C8
:1036A00006280AD00137FCB2A24505F103052ED940
:1036B000D8F804309B68002BEED198F80830A3426C
:1036C00022D995F80190B9F1000FEBD000242346E0
:1036D0004A4614E0AB782A19D65C06F00F03072B94
:1036E00005D8304602F0CCFB304602F09DFB304658
:1036F000013402F067FEE3B29945D3D96A78934268
:10370000E8D300231B78FFDE00235B78FFDED8F8C8
:103710000030D3F80080B8F1000FB3D1BDE8F087D6
:10372000BDE8F087C40800202DE9F8431F4B1F684F
:10373000002F38D097F80890B9F1000F2DD04FF036
:103740000008444607F109057B68DB6813B1384679
:10375000214698473B7AA34214D96E78AEB1002433
:103760002346324609E0AB782A190134D05C03F0D5
:10377000D5F8E3B29E4208D96A789342F3D3002386
:103780001B78FFDE00235B78FFDE08F101085FFA9B
:1037900088F4A14505F10305D6D83B681F68002FC2
:1037A000C8D1BDE8F883BDE8F88300BFC408002095
:1037B000002070472DE9F04F4E6883B0002E61D095
:1037C0000C4615460192804602F0FEFA02F0FCFA21
:1037D000E3689D422A4628BF1A4607469246002AB9
:1037E00056D00025012604F10809A368F3B9E3685F
:1037F000BBB1236849461846002B3BD05B685B6829
:103800009847236860601B681B682360BAF1000F4B
:10381000EBD13046C8F80070C8F8045003B0BDE8DA
:10382000F08F1E46BAF1000FDFD1F2E7534528BFF3
:1038300053461A46781961689B4638F037FDA368ED
:10384000E2686168CBEB0303CBEB02025944CBEB9C
:103850000A0A5D44A360E260616022B91646BAF1CB
:10386000000FC2D1D5E7002BD0D1236849461846B6
:10387000002BC3D16360002DCBD0019BAB4288BF2E
:103880000026C6E706604660304603B0BDE8F08F0C
:1038900015460126BDE700BF70B5C3889A4215469C
:1038A00028BF1D46934284B014460E4618D8002205
:1038B0000020039201960295FEF742FB802001A9A9
:1038C000FFF772FE044628B10020FEF741FB2046B8
:1038D00004B070BD02F054FB80280CD01024F3E734
:1038E000802002F063F9B4FBF0F303FB1040B0FA60
:1038F00080F25209DCE7034A034B92E8030083E8B5
:103900000300E1E7D0E0030014090020F0B50B78D4
:10391000013B89B00D46092B00F2B680DFE803F0C9
:1039200072487DB492A34857614C9DF80A1006294D
:1039300000F0B881082900F09381002940F0DD8073
:10394000AF4D0222284638F0D7FCAE4A2B781278C9
:1039500043F001012970910744BF43F003032B702A
:10396000BDF80F30022B1C4628BF0224022B00F2A8
:103970004D8200230020069407930595FEF7E0FA98
:10398000802005A9FFF710FE0446002800F0C28140
:103990000020FEF7DDFA062C00F0AF80002C40F08E
:1039A0009E80994B1C68002C00F0A48002F09EFAC7
:1039B0000024204609B0F0BD944C2378012BF7D0A9
:1039C0000123934823700024FFF708F9F1E78F4B98
:1039D0001A78002AECD000248D481C70FFF7FEF8FE
:1039E000E7E74FF08043D3F83834DA07E4D5874B64
:1039F0001A78022ADCD0022285481A700024FFF7C8
:103A0000EDF8D6E7814B1A78032A3DD0032280488F
:103A10001A700624FFF7E2F8CBE77E4B002453E848
:103A2000002F02EA040143E8001090F0000FF6D1E5
:103A3000002ABDD0784B01221A60BFF36F8FBFF30D
:103A40004F8FB6E705230DF109008DF8083002F01D
:103A500027FA9DF8092002F01F03032B5BD8DFE84B
:103A600003F05C17514C684EC8783368002B00F0A7
:103A7000A9800022326071689847044678BB336899
:103A800083B302F033FA94E70624204609B0F0BD70
:103A90009DF80D000DF10701FFF732FD05460028E6
:103AA00000F092809DF8071002AAFFF74DFD06284E
:103AB00004467FF473AF9DF809309DF80710C3F3F7
:103AC000411666B9514ADF0912789DF80A3040F074
:103AD00028810B2B03D1052A00F0F881082402F07D
:103AE00045FA66E7AB78002B7FF462AF4B4B1B784F
:103AF000082B75D002F030FA5BE702A8FFF73EFD15
:103B000004464BE79DF80D0004075FD1C2F3411452
:103B1000002C00F08B800624E1E7C2F34114002C56
:103B2000EBD1D2097FF401AF9DF80A30013B082B9D
:103B3000E3D801A252F823F0953B0000FB3A0000C5
:103B4000813B0000FB3A00005D3B0000FB3A0000B7
:103B5000FB3A0000FB3A0000A93B00002B4C237805
:103B6000033B022BBAD8FFF7DFFD2278274B042A4C
:103B70003FF417AF042226481A70FFF72FF810E71A
:103B8000BDF80B30012BB8D11E4A137843F0020365
:103B9000137006E7BDF80B30012BAED1194A13782C
:103BA00023F002031370FCE6184C2378043B012B2E
:103BB00094D89DF80B30002BD5D0012B00F07A81E2
:103BC00007248CE70E248AE7102488E702A9FFF770
:103BD000BFFC062804467FF4E1AE9DF8092095E776
:103BE0000F4B1B681B0785D10E4B1B6813F0F00FA2
:103BF00080D10D4B1B6813F0F00F7FF47BAFD7E63D
:103C00001C090020780900201409002079090020EF
:103C1000D8E00300640900205C700240E00F00F06F
:103C2000E40F00F0E80F00F0EC0F00F09DF80A3010
:103C30009DF80D50012B00F0B880C0F0A380032B3D
:103C40007FF469AF05F00F03072B3FF664AFBDF8B3
:103C50000B30002B7FF45FAF284602F0D9F8A0E6C6
:103C6000A44B1B78052B00F0DD80042B7FF445AFBF
:103C7000A14D2C70BDF80F30012B1C4628BF01242C
:103C8000012B7FF676AE802001F090FF0123B3FB7D
:103C9000F0F303FB00F000F1FF3CDCF1000343EB29
:103CA0000C0367E69DF80C30022B00F0CF80032B4D
:103CB00000F0BB80012B7FF420AF0DF109008F498C
:103CC0001222FFF7E9FD044665E6044609268A4DFF
:103CD0008B4928463A4638F0E9FA2C716E80FFF796
:103CE00001FC18B1EB7943F02003EB71FFF702FC04
:103CF000844BBDF80F20186000205D609F60DA6083
:103D0000FEF71EF980208049FFF762FC0446002878
:103D10007FF43EAE02F034F9802800F0E3801024F6
:103D200036E6002B52D00A2B7FF4D9AE052A7FF459
:103D3000D5AE2846FFF798FCBDF80F306E4D012B2D
:103D40001C4628BF0124012B287009D9802001F0CE
:103D50002DFFB7FBF0F303FB00F0471E7E427E41D0
:103D60000020059506940796FEF7EAF8802005A93D
:103D7000FFF71AFC0446002800F083800020FEF7BD
:103D8000E7F80BE6284602F059F8BDF80F305A4D17
:103D9000022B1E4628BF0226022B288077D82246F7
:103DA0000020059506960792DEE705F00F03072B26
:103DB0003FF6B1AEBDF80B30002B7FF4ACAE284619
:103DC00002F05EF8284602F02FF8EAE5052A7FF4B3
:103DD00085AEBDF80F20484D022A144628BF0224A4
:103DE000022A2B800DD9802001F0E0FE0223B3FBD4
:103DF000F0F303FB00F0A0F1020EDEF1000343EB51
:103E00000E030020059506940793ADE7802001F08E
:103E1000CDFE0223B3FBF0F303FB00F0821E5342FE
:103E20005341A7E5344D2A7024E7BDF80D109DF8E5
:103E30000B0000F085F8014600283FF45EAE0DF15E
:103E400009000A78FFF728FD0446A4E5BDF80F70C5
:103E5000092F28BF0927FFF74DFB054600283FF42F
:103E600034AF09266B6828465B6805A9984729681E
:103E70002A7A059B0D681444E4B21E44002DF1D14A
:103E800025E702F07DF880280DD0102476E7802009
:103E900001F08CFE0223B3FBF0F303FB00F0811E64
:103EA0004A424A417CE7194A194B92E8030083E8E9
:103EB000030063E7FFF7DEFB2378052B3FF471ADCA
:103EC000052314482370FEF789FE6AE5BDF80B3020
:103ED000FF2B3FF675AE28469DF80B20FFF78CFBB5
:103EE00004465BE5094A0A4B92E8030083E80300B5
:103EF0004EE500BF790900201C09002090E0030076
:103F000084E0030068090020B4E00300D0E003006F
:103F100014090020D8E0030038B504460D4602F02D
:103F20002FF8A04202D01023184638BD95E80300B0
:103F3000024A82E803000023184638BD1409002015
:103F400050B1042806D8054B185C20B1044B53F837
:103F5000200070470020704702487047F0E00300DF
:103F6000DCE00300F8E0030010B50C4C23780BB143
:103F7000852010BD0A4A6360E3601068A36010F0FA
:103F80000100236102D1072100F018F94FF08042AF
:103F90000123C2F818352370002010BD7C090020D1
:103FA00000E100E030B51B4DAB78044683B003F070
:103FB000FF0073B114B16368012098470020FDF73A
:103FC000BFFFEB6800200133EB60FDF7C1FF03B0DA
:103FD00030BDFDF7B5FF64B12A6942B1944208D003
:103FE000134601E09C4204D01B68002BFAD12260EA
:103FF0002C61EB68002BE4D1074A08491360136871
:1040000001934FF0804202200123019CC2F8040377
:104010000B60D6E77C090020040100400800004046
:1040200008B50020FDF78CFF0B49CB68013BCB6046
:10403000CB685BB9094B01221A604FF08042D2F87D
:104040001834C3F30043002BF9D18B700020BDE876
:104050000840FDF77DBF00BF7C0900200C00004038
:104060004FF08043D3F81804C0F30040704700BFFE
:1040700030B51A4D6B78044683B003F0FF0073B17E
:1040800014B16368002098470020FDF759FF6B6862
:10409000002001336B60FDF75BFF03B030BDFDF71F
:1040A0004FFF64B1AA6842B1944208D0134601E0C0
:1040B0009C4204D01B68002BFAD12260AC606B6874
:1040C000002BE4D1064A1360136801934FF080433C
:1040D00001220199C3F804231A60D8E77C09002063
:1040E0000001004008B50020FDF72AFF0C494B688D
:1040F000013B4B604B686BB90A4B01221A604FF0D1
:104100008042D2F80C3403F00113B3F1011FF8D050
:1041100000234B700020BDE80840FDF719BF00BF29
:104120007C0900200400004010B51D4B1A6882B0C5
:10413000F2B91C4B1A680AB902B010BD00221A600D
:104140001B6801934FF080430222174C0199C3F87A
:10415000082323690122A270002BEDD01A68226186
:104160005B68012098472369002BF7D102B010BD8E
:1041700000221A601B6800934FF0804301220A4C12
:104180000099C3F80823A3686270002BD1D01A6885
:10419000A2605B6800209847A368002BF7D1C8E7AE
:1041A00000010040040100407C09002008B5FFF731
:1041B000BBFFBDE8084000F0CFBB00BF002810B433
:1041C00018DB00F1604303F561434901C9B283F88C
:1041D0000013C3B24009800000F1604000F5614067
:1041E00003F01F0201239340C0F8803103605DF8A3
:1041F000044B7047C3B2044A03F00F044901224440
:10420000C9B21176E6E700BFFCEC00E030B51F4C08
:1042100094F8645083B015B1082003B030BD4FF05E
:10422000FF33FF220620072123636363A363E36355
:1042300023646364A364E36423656365A365E36542
:1042400023606360A360E36023616361A361E36152
:10425000236284F860306362A36284F86230E362B0
:1042600084F8633084F86120FFF7A8FF084B094AFF
:104270001D601B68019301984FF0004301212846FF
:1042800084F86410C2F8043303B030BD90090020F4
:104290007C61004000600040034B93F864000030F4
:1042A00018BF0120704700BF90090020F0B56A4C8C
:1042B000251895F93030002B01DB0820F0BD91F86E
:1042C00003E09446BEF1000F56D02368013300F09E
:1042D000BB80082600256B1C5F4F54F82320013259
:1042E00051D0AB1C9E4245D957F8232001324AD009
:1042F000EB1C9E423ED957F82320013243D02B1DA0
:104300009E4237D957F8232001323CD06B1D9E4284
:1043100030D957F82370013735D0AB1D9E4229D9CB
:1043200054F823204C4F01322DD0EB1D9E4221D951
:1043300057F82320013226D005F108039E4219D9EF
:1043400057F8232001321ED005F109039E4211D9EE
:1043500057F82320013216D005F10A039E4209D9ED
:1043600057F8237001370ED00B35AE4202D9E36AFD
:10437000013307D00420F0BD236A01335CD00C2642
:104380000825A8E70B232618DDB244F823C03246DF
:1043900086F83050BEF1000F02D1234483F8580054
:1043A0008B78DBB91F284A7887BF2C4E00F01F039B
:1043B00003464FF0A04603F5E073920046F8232031
:1043C000CB78E3B96AB2083A1444097894F86020CB
:1043D00042EA811284F860201846F0BD1F2887BF8A
:1043E0001E4B00F01F0202464FF0A04303EB820376
:1043F000D3F8002722F00202C3F80027E0E76BB2EF
:104400009B0003F1804303F5C0430A78D3F81015ED
:1044100021F44F3121F44071C3F810151204000249
:1044200002F44031D3F8104500F47C520A43224391
:10443000C3F810250020F0BD082685F8306033460B
:10444000C4F820C03546A8E7002385F83030C4F80A
:1044500000C01D46A4E700BF9009002000030050E3
:10446000F0B43A4D2E1882B096F8302053B2072B94
:1044700020DD2B4493F858309B09032B44D0012BAB
:104480000CBF4FF400324FF440321F2849D900F0DE
:104490001F002F4B03EB8000D0F8003723F440338C
:1044A000C0F80037D0F800371A43C0F8002702B030
:1044B000F0BC7047072AFAD8980000F1804000F558
:1044C000C04003F140029200D0F8104592B202F1D0
:1044D0008042002744F0010402F5C042C0F81045B4
:1044E0000197019817600029E1D096F9302055F81E
:1044F0002220002ADBD00122164902FA03F3C1F878
:10450000043302B0F0BC70471F280DD9104BD3F80C
:10451000103500F01F00C340DB0713D54FF44032C5
:10452000B7E74FF0A043B5E74FF0A0421346D2F8EB
:104530001025C24012F0010F0CBF4FF400324FF4AF
:104540004032A7E74FF40032A3E700BF90090020F4
:1045500000030050006000401F288ABF054B4FF049
:10456000A04300F01F00D3F8103523FA00F000F04C
:1045700001007047000300502DE9F04F89B000257D
:10458000B24B029503951A68012A00F05081B04B96
:104590001A68012A00F03D81AE4B1A68012A00F02A
:1045A0002A81AD4B1A68012A00F01781AB4B1A68BB
:1045B000012A00F00481AA4B1A68012A00F0F18058
:1045C000A84B1A68012A00F0DE80A74B1A68012A5E
:1045D00000F0CB80A54B1A68012A00F0B58015F0D9
:1045E000FF0F1AD0A24F01260024A30003F180433D
:1045F0002E4203F5C0434FEA46060BD0D3F8100510
:1046000057F82420D3F81015C0F30520C1F3014159
:1046100002B190470134082CE7D1002D02DB09B02C
:10462000BDE8F08F934F00224FF0FF33A7F16309ED
:1046300004920592069307938F4C4FF0000A4FF0B7
:10464000010814F8013FFF2B30D0DBB223F0C0008B
:1046500008AAC608951903F0070215F8081C08FAFD
:1046600002F2114222D009EB000E99099EF930E0C6
:1046700059F82EC0BCF1000F56D0032956D01F2880
:104680008ABF03F01F060646DFF8F0E115F818BCF4
:1046900098BF4FF0A04E06F5E0761BEA020F5EF8D9
:1046A0002650C5F301451AD1032D48D0BC42C8D1CC
:1046B000BAF1000FB3D04FF0A0430299D3F81035F0
:1046C0006E4A9942D2F8102502D103999142A6D0A0
:1046D000049805990293039206900791ACE7022D86
:1046E000E4D1032904D0BCF1000FDFD0E047DDE7BF
:1046F0004FF440321F288BBF604D4FF0A04503F0B0
:104700001F03034605EB83030AF1010AD3F80057A0
:1047100025F44035C3F80057D3F800572A435FFA11
:104720008AFAC3F80027DEE70329BFD10DF1100B89
:104730001BF806E04EEA020E0BF806E09FE703299D
:10474000D1D14FF40032D5E700221A601B680193E3
:104750004FF0A042019BD2F81025484B0292D3F8AB
:104760001035039345F0004539E7454AD2F8042354
:1047700012067FF52FAF00221A601B680093009B82
:1047800045F0800526E73E4AD2F8042351067FF51E
:104790001CAF00221A601B680093009B45F0400587
:1047A00013E7374AD2F8042390067FF509AF0022B9
:1047B0001A601B680093009B45F0200500E7304A13
:1047C000D2F80423D4067FF5F6AE00221A601B68E7
:1047D0000093009B45F01005EDE6294AD2F804232A
:1047E00016077FF5E3AE00221A601B680093009B5A
:1047F00045F00805DAE6224AD2F8042357077FF588
:10480000D0AE00221A601B680093009B45F004059F
:10481000C7E61B4AD2F8042392077FF5BDAE0022FB
:104820001A601B680093009B45F00205B4E614492A
:10483000D1F8041311F0010105D01D601B6800932D
:10484000009B1546A3E60D46A1E600BF00610040AF
:1048500004610040086100400C61004010610040AC
:1048600014610040186100401C6100407C61004000
:1048700090090020F3090020EF09002000030050F8
:104880000060004010B5104C23780BB1852010BD9E
:104890000E4B0F49002808BF18464FF0804203789E
:1048A000C3F34003C2F88035037803F00103C2F874
:1048B0007835086810F0010002D10721FFF77EFC6F
:1048C00001232370002010BD040A002080E10300B2
:1048D00000E100E0F0B54FF080420A4F0A4D0B486E
:1048E0000B4900234FF0040E60264FF46074C2F8A9
:1048F00008E33B60C2F808632B60C2F8084303601A
:104900000B70F0BDFC090020000A0020F80900200F
:10491000040A002010B44FF080434FF46072C3F8D3
:1049200008230649006800240C6010B10860C3F831
:10493000042300205DF8044B704700BFF8090020F5
:104940004FF08041034B4FF460700022C1F8080320
:104950001A607047F809002010B54FF08043D3F873
:104960000443620705D5D3F8082103F58473002AB0
:104970003CD1A30603D5204B1A68002A30D160062B
:1049800002D51E4B1A6822BB210602D51C4B1A68A1
:10499000CAB9E20502D51B4B1A686AB9A3050AD544
:1049A000194B1A683AB10021184A1960136802209D
:1049B000BDE81040184710BD0021144A1960136863
:1049C00001209847EAE70020104A186013689847CA
:1049D000DFE700210E4A1960136801209847D3E7EA
:1049E00000200B4A186013689847C8E70021094A5D
:1049F000196013689847BCE7140100401801004093
:104A00001C0100402001004024010040F809002062
:104A1000000A0020FC090020034B6FF07F410522B3
:104A200059601A60704700BF10E000E0084B094968
:104A30001B68094AA1FB03139B0C916803FB00F060
:104A40009368CB1A23F07F439842F9D8704700BF90
:104A50001400002083DE1B4310E000E030B44C68FB
:104A60009C4208D200254560096801609A420CD03A
:104A7000002030BC704743600D6805600868E41A88
:104A800018449A4281E81100F2D1201C18BF01207D
:104A900030BC70474B689A4228BF1A4610B40C6865
:104AA0000460426048680B685DF8044B801A134448
:104AB0004860003018BF01200B6070474B689A4275
:104AC00028BF1A4662B10B680360426048680B68F1
:104AD000801A13444860101C0B6018BF01207047F7
:104AE0001346F1E710B582B002A800230121064A5F
:104AF0000193064C00F8041D0549126823700B70E1
:104B0000904702B010BD00BF4C0A0020740B00207B
:104B1000050A002010B40E4B0E4993F89E20002089
:104B2000032A087005D0D3F8903013B15DF8044B18
:104B30007047094B6FF0010253E8001F01EA0200C1
:104B400043E8000494F0000FF6D15DF8044B704781
:104B5000540A0020510A0020480A002010B40E4BCD
:104B60000E4993F80E210020032A087005D0D3F8CF
:104B7000003113B15DF8044B7047094B6FF08002B0
:104B800053E8001F01EA020043E8000494F0000F1C
:104B9000F6D15DF8044B7047540A0020510A0020FA
:104BA000480A002010B50A4A0A4813680A4982B028
:104BB00000248DF80440D0F82005ADF8060043F03D
:104BC00001230968136001A8884702B010BD00BF27
:104BD000780B0020007002404C0A0020704700BF94
:104BE000F8B50C4622C90A4F954228BF154606461D
:104BF0002A46384637F05AFB75603760236860688C
:104C00002B44401B60602360003018BF0120F8BDBA
:104C1000080A0020F8B54C68944228BF14460D4697
:104C200006465CB9046074606A682B68121B2344F2
:104C3000201C6A602B6018BF0120F8BD034F096873
:104C40003846224637F032FB3760ECE7080A00208E
:104C5000094AD2F86834C2F86834BFF36F8FBFF3E3
:104C60004F8F43B1012193FAA3F2B2FA82F201FA13
:104C700002F29343F7D170470070024010B5244B05
:104C8000D3F80044C3F8004482B0BFF36F8FBFF382
:104C90004F8FBFF36F8FBFF34F8FE1052AD4A2056B
:104CA0001CD4630502D51B4B1A780AB902B010BD9B
:104CB000174C1948012100221A70C4F80815016028
:104CC000BFF36F8FBFF34F8F144B019202A80421E3
:104CD00000F8041D1B68984702B010BD02A800230D
:104CE00003210E4A019300F8041D0A4912680B7053
:104CF0009047D6E702A8002301930222074B00F851
:104D0000042D044A1B68012111709847C7E700BFB2
:104D100000700240740B0020587002404C0A0020C2
:104D20002DE9F04FDFF898B2DFF89892DBF8003009
:104D3000D9F800401C4085B04DD094FAA4F4B4FAE0
:104D400084F4E5B20F2CC6BF103DEDB245F08005EE
:104D50004FFA85FABAF1000FC0F2858005F00F080E
:104D60008C4A4FEA0813B8F1070F02EB030772D819
:104D700008F59472884951F82260864A796852F899
:104D800003C0BA89334602A8E047029B002B00F01B
:104D9000FA80039B9E4221D90123A3400222DB43D8
:104DA000BA7359E8001F01EA030049E8000494F0CF
:104DB000000FF6D106238DF80430784B8DF806509D
:104DC0001B688DF8072001A89847DBF80030D9F858
:104DD00000401C40B1D105B0BDE8F08F4646B84652
:104DE00000285DD06E4FDBF80010D8F80820029D37
:104DF00001203870A04021EA00001A44BAF1000FE7
:104E0000CBF80000C8F80820C0F2A880072E49D8C7
:104E1000B1008A19920002F1804202F51C32C2F8F8
:104E20000057C2F804375F4B1B78082B45D0BAF106
:104E3000000FB4BF042328230B44DBB203F18043EB
:104E400003F51C3301221A60BFF36F8FBFF34F8F3E
:104E500005B0BDE8F08F504AD2F8C06416F4803F28
:104E600018BF002689E7DFF8609105F00F063701CB
:104E700009EB070802A8D8F80410B8F80C2059F874
:104E80000730984750B9802D49F8070001BF424AC2
:104E9000D2F8003243F00403C2F80032039BA1E7CA
:104EA00038609FE73C4AC2F8A057C2F8A4373D4B90
:104EB0001B78082B4FEA8601B9D13B4B1B681807BA
:104EC000B5D13A4B1B6813F0F00FB0D1384B1B68CB
:104ED00013F0F005ABD1BAF1000FB4BF04272827B7
:104EE000344B354A354CDFF8E4800F44FFB2B4BF91
:104EF0009946914607F1804709EB460907F51C37AB
:104F000001262560BFF36F8FBFF34F8F3E60BFF365
:104F10006F8FBFF34F8F0220FFF788FD2368002BB0
:104F2000EFD01E20FFF782FDD8F800309A0606D495
:104F30000220FFF77BFDD8F800309B06F8D5012052
:104F4000FFF774FDB9F8003003F1804303F51C331B
:104F50001B68002BD5D005B0BDE8F08F072E06D911
:104F60000D4AB100C2F8A056C2F8A4365BE7B10002
:104F70008A19920002F1804202F51C32C2F80056F2
:104F8000C2F804364FE74646039BB84600287FF434
:104F900029AF85E7540A0020007002404C0A002027
:104FA000510A0020E00F00F0E40F00F0E80F00F0DD
:104FB000EC0F00F014E2030098E1030004710240DA
:104FC000780B0020480A0020E40A00207474024094
:104FD00070B51C4B1C4C93F85E200021032A82B054
:104FE000217005D01B6D83B1FFF79AFE02B070BD32
:104FF000164B6FF4001253E8001F01EA020043E869
:10500000000494F0000FF6D1EEE7104A6FF400119F
:1050100052E8000F00EA010542E8005696F0000F42
:10502000F6D10B4A8DF80730062105238DF806309E
:105030008DF80410136801A898472378002BD3D06B
:1050400002B070BD540A0020510A0020480A002016
:105050004C0A0020134B144993F88E200020032A99
:10506000087002D0D3F8803003B1704730B50F4AD2
:1050700083B06FF0807152E8000F00EA010442E84B
:10508000004595F0000FF6D1094A8DF8073006214A
:1050900008238DF806308DF8041001A8136898478E
:1050A00003B030BD540A0020510A0020480A0020F5
:1050B0004C0A002030B51B4B1B4993F81E210020E1
:1050C000032A83B0087004D0D3F810317BB103B049
:1050D00030BD164B6FF4807253E8001F01EA0200E6
:1050E00043E8000494F0000FF6D103B030BD0F4A3E
:1050F0006FF4807152E8000F00EA010442E80045B5
:1051000095F0000FF6D10A4A8DF807300621882362
:105110008DF806308DF8041001A81368984703B085
:1051200030BD00BF540A0020510A0020480A002068
:105130004C0A002010B40E4B0E4993F8CE200020EC
:10514000032A087005D0D3F8C03013B15DF8044BC2
:105150007047094B6FF0080253E8001F01EA020094
:1051600043E8000494F0000FF6D15DF8044B70475B
:10517000540A0020510A0020480A002010B40E4BA7
:105180000E4993F8DE200020032A087005D0D3F8DA
:10519000D03013B15DF8044B7047094B6FF010022B
:1051A00053E8001F01EA020043E8000494F0000FF6
:1051B000F6D15DF8044B7047540A0020510A0020D4
:1051C000480A002010B40E4B0E4993F8EE20002040
:1051D000032A087005D0D3F8E03013B15DF8044B12
:1051E0007047094B6FF0200253E8001F01EA0200EC
:1051F00043E8000494F0000FF6D15DF8044B7047CB
:10520000540A0020510A0020480A002010B40E4B16
:105210000E4993F8FE200020032A087005D0D3F829
:10522000F03013B15DF8044B7047094B6FF040024A
:1052300053E8001F01EA020043E8000494F0000F65
:10524000F6D15DF8044B7047540A0020510A002043
:10525000480A002010B40E4B0E4993F8AE200020EF
:10526000032A087005D0D3F8A03013B15DF8044BC1
:105270007047094B6FF0020253E8001F01EA020079
:1052800043E8000494F0000FF6D15DF8044B70473A
:10529000540A0020510A0020480A002010B40E4B86
:1052A0000E4993F8BE200020032A087005D0D3F8D9
:1052B000B03013B15DF8044B7047094B6FF0040236
:1052C00053E8001F01EA020043E8000494F0000FD5
:1052D000F6D15DF8044B7047540A0020510A0020B3
:1052E000480A002070B51C4B1C4C9A7F0021032AF1
:1052F00082B0217005D01B6983B1FFF711FD02B0A8
:1053000070BD174B6FF4003253E8001F01EA020032
:1053100043E8000494F0000FF6D1EEE7104A6FF472
:10532000003152E8000F00EA010542E8005696F00D
:10533000000FF6D10B4A8DF80730062101238DF8B6
:1053400006308DF80410136801A898472378002BC5
:10535000D3D002B070BD00BF540A0020510A002013
:10536000480A00204C0A002070B51C4B1C4C93F8D6
:105370006E200021032A82B0217005D01B6E83B1FC
:10538000FFF7CEFC02B070BD164B6FF4800253E8FD
:10539000001F01EA020043E8000494F0000FF6D178
:1053A000EEE7104A6FF4800152E8000F00EA0105B1
:1053B00042E8005696F0000FF6D10B4A8DF8073000
:1053C00006238DF804308DF8063001A8136898473D
:1053D0002378002BD4D002B070BD00BF540A002047
:1053E000510A0020480A00204C0A002070B51C4BCE
:1053F0001C4C93F87E200021032A82B0217005D036
:105400001B6F83B1FFF78CFC02B070BD164B6FF4BD
:10541000000253E8001F01EA020043E8000494F090
:10542000000FF6D1EEE7104A6FF4000152E8000FCA
:1054300000EA010542E8005696F0000FF6D10B4A4B
:105440008DF80730062107238DF806308DF80410FB
:10545000136801A898472378002BD3D002B070BD01
:10546000540A0020510A0020480A00204C0A00205B
:1054700070B51C4B1C4C93F82E200021032A82B0DF
:10548000217005D01B6A83B1FFF74AFC02B070BDE2
:10549000164B6FF4802253E8001F01EA020043E834
:1054A000000494F0000FF6D1EEE7104A6FF480216B
:1054B00052E8000F00EA010542E8005696F0000F9E
:1054C000F6D10B4A8DF80730062102238DF80630FD
:1054D0008DF80410136801A898472378002BD3D0C7
:1054E00002B070BD540A0020510A0020480A002072
:1054F0004C0A002070B51C4B1C4C93F83E20002138
:10550000032A82B0217005D01B6B83B1FFF708FC22
:1055100002B070BD164B6FF4002253E8001F01EA81
:10552000020043E8000494F0000FF6D1EEE7104AC1
:105530006FF4002152E8000F00EA010542E800562E
:1055400096F0000FF6D10B4A8DF8073006210323A1
:105550008DF806308DF80410136801A89847237859
:10556000002BD3D002B070BD540A0020510A002095
:10557000480A00204C0A002070B51D4B1D4C93F8C2
:105580004E200021032A82B0217005D01B6C83B10C
:10559000FFF7C6FB02B070BD174B6FF4801253E8E3
:1055A000001F01EA020043E8000494F0000FF6D166
:1055B000EEE7114A6FF4801152E8000F00EA01058E
:1055C00042E8005696F0000FF6D10C4A8DF80730ED
:1055D000062104238DF806300DEB03008DF804102E
:1055E000136898472378002BD2D002B070BD00BF5B
:1055F000540A0020510A0020480A00204C0A0020CA
:1056000030B5304B30499A7B0020032A83B00870B4
:105610000FD01B68002B3DD02C4B1B78082B18D0CB
:105620002B4B01221A60BFF36F8FBFF34F8F03B074
:1056300030BD284B6FF4803253E8001F01EA0200AE
:1056400043E8000494F0000FF6D1204B1B78082BA0
:10565000E6D1214B1B681B07E2D1204B1B6813F0DE
:10566000F00FDDD11E4B1B6813F0F00FD8D1EFF314
:10567000108372B6164A01211160BFF36F8FBFF31A
:105680004F8F1160BFF36F8FBFF34F8F83F310887D
:1056900003B030BD0F4A6FF4803152E8000F00EACA
:1056A000010442E8004595F0000FF6D10D4A8DF84F
:1056B000063006218DF807308DF8041001A8136814
:1056C0009847B4E7540A0020510A0020E00F00F088
:1056D0004C700240480A0020E40F00F0E80F00F090
:1056E000EC0F00F04C0A002030B51D4B1B781A0659
:1056F00083B01CD41B491C480D68026803F00F01DD
:105700001031012404FA01F10A432942026001D058
:1057100003B030BD15498DF8063006228DF80740DC
:105720000B688DF8042001A8984703B030BD0E4CDB
:105730000C4A2168106803F00F050122AA401143AA
:1057400002402160E4D109488DF806300621036843
:105750008DF807208DF8041001A89847D8E700BFFE
:10576000050A0020480A0020780B00204C0A00207F
:105770002DE9F043384BD3F86C44C3F86C4483B044
:10578000BFF36F8FBFF34F8FBFF36F8FBFF34F8F99
:10579000324B1B78082B48D01CB3314DDFF8D88032
:1057A000DFF8D8900127062694FAA4F3B3FA83F31E
:1057B000DAB20F2BA2F11001C8BFCAB2296807FAEA
:1057C00003F041EA0001D8BF42F0800229601106CF
:1057D00024EA0004D8F8003018D4184209D0002C6C
:1057E000E2D1204B1B780BB9FFF79AFA03B0BDE862
:1057F000F0838DF804608DF806208DF80770D9F8D5
:10580000003001A89847002CCED1EAE70340E6D14A
:105810008DF807308DF804608DF80620D9F8003037
:1058200001A89847002CBFD1DBE70F4B1B68180776
:10583000B2D10E4B1B6813F0F00FADD10C4B1B68AF
:1058400013F0F00FA8D10B4A136803F0011123F0F5
:10585000011311601C439FE700700240E00F00F04D
:10586000780B0020510A0020E40F00F0E80F00F050
:10587000EC0F00F07C0B0020480A00204C0A0020AE
:1058800038B5514B1B78082B044605D0B4B14F48AE
:105890000278AAB1082038BD4D4B1B681B07F5D113
:1058A0004C4B1B6813F0F00FF0D14B4B1B6813F0FF
:1058B000F00FEBD1FFF7B0F8002CE8D1072038BD8E
:1058C0004649474B0C60012540214FF40074057098
:1058D00083F89E20C3F89020C3F8982083F8AE2068
:1058E000C3F8A020C3F8A82083F8BE20C3F8B020D6
:1058F000C3F8B82083F8CE20C3F8C020C3F8C8206E
:1059000083F8DE20C3F8D020C3F8D82083F8EE2037
:10591000C3F8E020C3F8E82083F8FE20C3F8F020A5
:10592000C3F8F82083F80E21C3F80021A3F89C10D7
:10593000A3F8AC10A3F8BC10A3F8CC10A3F8DC10AB
:10594000A3F8EC10A3F8FC10A3F80C11C3F808217D
:1059500083F81E21C3F81021C3F8182199819A7386
:105960001A609A6099839A771A619A61998583F887
:105970002E201A629A62998783F83E201A639A63EE
:10598000A3F84C1083F84E201A649A64A3F85C10B4
:1059900083F85E201A659A65A3F86C1083F86E2070
:1059A0001A669A66A3F87C10A3F81C4183F87E203F
:1059B0001A679A67A3F88C4083F88E20C3F880207A
:1059C000C3F88820104638BDE00F00F0500A0020D0
:1059D000E40F00F0E80F00F0EC0F00F04C0A00209C
:1059E000540A0020054B1A78012A01D0082070477C
:1059F000034A002010601870704700BF500A002052
:105A00004C0A00201E4A4FF40063C2F80034BFF372
:105A10006F8FBFF34F8F0123C2F80035BFF36F8F35
:105A2000BFF34F8FD2F8003415491B05FAD54FF458
:105A30000063F0B5C1F80034BFF36F8FBFF34F8F31
:105A40001048114B40F2E374402204601A60BFF327
:105A50006F8FBFF34F8F0D4F0D4E0E4D0E4C0F4AF3
:105A600000234FF0800C40F2FF1E0220C1F81CC53D
:105A7000C7F800E033602B7023701070F0BD00BFDA
:105A8000007002400078024004780240780B002049
:105A9000480A0020510A0020050A0020500A002070
:105AA000174B002210B51A7028B9164B1B78082B1B
:105AB00011D0154B00E0154B154C2720C4F80433CA
:105AC0000721FEF77BFB0123C4F80435BFF36F8F7A
:105AD000BFF34F8F10BD0F4B1B681B07E9D10E4B57
