:1000000000000420F1410000194200001B420000E2
:100010001D4200001F4200002142000000000000BD
:10002000000000000000000000000000234200006B
:100030002542000000000000274200002942000085
:10004000B92800002D810200596B02002B420000EC
:100050002B4200002B420000F92C00002B42000034
:100060002B4200002B4200002B4200002B420000DC
:100070002B420000096802002B4200002B420000C6
:100080002B420000B51400002B4200002B42000060
:10009000551500002B4200002B4200002B420000AF
:1000A0002B4200002B4200002B4200002B4200009C
:1000B0002B4200002B420000000000000000000066
:1000C0002B4200002B4200002B4200002B4200007C
:1000D0007D6002002B4200002B4200002B420000FA
:1000E0002B4200002B4200002B42000000000000C9
:1000F000000000002B420000000000002B42000026
:1001000000000000000000000000000000000000EF
:1001100000000000000000000000000000000000DF
:1001200000000000000000000000000000000000CF
:1001300000000000000000000000000000000000BF
:1001400000000000000000000000000000000000AF
:10015000000000000000000000000000000000009F
:10016000000000000000000000000000000000008F
:10017000000000000000000000000000000000007F
:10018000000000000000000000000000000000006F
:10019000000000000000000000000000000000005F
:1001A000000000000000000000000000000000004F
:1001B000000000000000000000000000000000003F
:1001C000000000000000000000000000000000002F
:1001D000000000000000000000000000000000001F
:1001E000000000000000000000000000000000000F
:1001F00000000000000000000000000000000000FF
:1002000010B5054C237833B9044B13B10448AFF350
:1002100000800123237010BD0001002000000000B9
:100220009C2D0400084B10B51BB108480849AFF3DA
:1002300000800848036803B910BD074B002BFBD0B2
:10024000BDE81040184700BF000000009C2D0400CE
:1002500004010020C800002000000000154B002B06
:1002600008BF134B9D46A3F5803A00218B460F46ED
:100270001348144A121A38F0D9FC0F4B002B00D047
:1002800098470E4B002B00D0984700200021040017
:100290000D000D48002802D00C48AFF3008038F064
:1002A00069FC2000290003F0DFFC38F03DFC00BFB2
:1002B0000000080000000420000000000000000012
:1002C0000001002058E400200000000000000000B1
:1002D000704700BF704700BF00B583B0044B009368
:1002E000044A402300F01EF803B05DF804FB00BF91
:1002F000F90200001C010020F8B5144672B10F4647
:100300000A26002579192246002003F009FE05443B
:10031000241A08B9013E01D0002CF3D1F8BD00BF6A
:1003200003F036BFF0B595B0002415460F460846D9
:100330001E4602F04FF93846234605A908220895C3
:100340001A9D09960D950A948DF82C400C9402F094
:100350009FF99DF81430079806998DF8104003F026
:100360000302012A0290ADF80C102CD0022A04D00E
:10037000384602F03FF915B0F0BDBDF81650C3F392
:10038000C202C3F38003C5F389158DF80E208DF8E2
:100390000F300826082D2C4628BF08243346224655
:1003A00038460EA902F074F92D1B21460EA802AAA8
:1003B00008AB264400F09AFD002DEBD1384602F040
:1003C00019F915B0F0BDBDF81460059DC6F383168C
:1003D000C3F3C20EB2000EA9C3F38004384608234B
:1003E000C5F395258DF80EE08DF80F4002F050F919
:1003F00008AB0093284632460EA902AB00F0DEFCA3
:10040000B6E700BF10B5054CFFF78AFF2046042170
:1004100000F094FC0123637210BD00BF00000020B7
:1004200008B5104B10480022FF21C3F8182499602A
:100430001A605A60C3F8142483F81C2402F082F86E
:1004400070B90A4B0A4A9A1AD20807D009490346DA
:100450000B520133934200F10C00F9D1002008BD8A
:1004600008BD00BF5C01002060A80300E82D040067
:10047000C82D0400CC00002021B9124A02EBC000B4
:100480000068704730B410490E4D491BC9080ED0A2
:100490000E4B5A88824218BF002205D10FE0DC893A
:1004A000844203F10C0305D001328A42F7D10020C7
:1004B00030BC704705EBC200006830BC704728466E
:1004C000FAE700BFC82D0400E82D0400CC0000208E
:1004D000064B032903EBC00005D0042901D1407964
:1004E0007047002070470079704700BFC82D040096
:1004F0002DE9F04F824C626823689A4285B03CD067
:100500000023C4F81834BFF34F8F6068A56805EA6C
:100510000003023304EB8302111D127912F0030F62
:10052000024610D10B884988C3F3891303EB91135A
:1005300001331A4402EA0503023304EB8306311D3A
:100540003679B607EED004EB8303511C5E68019642
:10055000294004EB810306F00306DB680293022EB8
:1005600002F10208664F0CD0012E63D02368181ADE
:1005700018BF012005B0BDE8F08F002005B0BDE830
:10058000F08FBDF806305F48C3F38919B9F1500FF9
:10059000CA46A8BF4FF0500A6AF38F130AF1080148
:1005A000ADF8063001F0D0FF0646002800F0838049
:1005B00025EA080B0BF1010B02F00CF84FEA8B0B4C
:1005C000304601A90822002302F03AF8DA4540F249
:1005D0008A80BBF1000F70D107F10C015246304602
:1005E000082302F02DF809F1030708EB9707D4F868
:1005F0001834DFF80C81D4F81054002B55D14DB1CC
:100600006B7A2846314613B12B681B6898476D6892
:10061000002DF5D1304601F0EDFF002001F008FC7F
:10062000D4F81834364A03B95760002001F008FCAA
:1006300060689BE7BDF804303248C3F38312062A92
:1006400028BF0622911C62F389138900ADF804309B
:1006500001F07AFF064670B301F0BCFF002330467C
:1006600001A9082201F0ECFFBDF8043013F4707FFB
:1006700044D04FF0000A4FF0080908EA050104EBE6
:1006800081014B460C313046042201F0D9FFBDF800
:1006900004300AF1010AC3F3831308F1010753453B
:1006A00009F10409B846E8D8A1E7304601F0A2FFF5
:1006B000D8F804005AE7786858E708EA050107EB1C
:1006C0008101CBEB0A0530465A460C31EDB20823C6
:1006D00001F0B6FF30462A4607F10C010BF1080382
:1006E00001F0AEFF7FE708EA050107EB81010C315D
:1006F00052463046082301F0A3FF74E7474676E7E9
:100700005C01002060A803002DE9F04F8DB016AD0C
:10071000E0CD734C009007930020199B0191089540
:100720000B930692D4F808A009960A9701F080FB73
:10073000A5686168D4F800806B180133C8EB030327
:10074000092B5FD805F10109C8EB090904F5836C91
:1007500004F2144701264FF0000E5CE8003F43EA24
:1007600006024CE8002090F0000FF6D157E8003F59
:1007700043EA060247E8002090F0000FF6D101EAB4
:100780000503023304EB8302101D127912F0030FEC
:100790000A4613D103884088C3F3891303EB9013EF
:1007A00001331A4402EA0503023304EB830B0BF115
:1007B00004009BF804B01BF0030FEBD004EB8303A1
:1007C00002325B68039303F00303012B00F0818086
:1007D000022B06D1BDF80E30C3F38913033302EBAD
:1007E000930257E8003F03EA0E0047E8000B9BF036
:1007F000000FF6D113B13A4B11465A6009EB0103D1
:10080000092BAAD908EA0A05023504EB850508F187
:1008100008030020236001F013FB2E79009B06994A
:10082000079A0998012767F30106C3F3001767F3D6
:10083000820663F3C5062E71AE88062767F3891614
:10084000AE806E68019F08F1010967F39F2608F1E9
:10085000020C08F1030E08F1040709EA0A096E60A8
:1008600004EB890908F1050608F106050CEA0A0CF3
:100870000EEA0A0E07EA0A0704EB8C0C04EB8E0E54
:1008800004EB87071B0C06EA0A0608F1070805EACD
:100890000A05C9F80C3004EB860604EB8505089BB5
:1008A000CCF80C1008EA0A08CEF80C2004EB8808F3
:1008B000FB6094F81C440A9BF060EB600B9BC8F84B
:1008C0000C301CB1FFF714FE0028FBD10DB0BDE8C1
:1008D000F08FBDF80C30C3F383131A4481E700BFD7
:1008E0005C0100202DE9F04F554C89B0A3680290BF
:1008F00000200391019301F09BFAA5686168D4F888
:1009000000806B180133C8EB0303032B5FD805F19C
:100910000109C8EB090904F5836C04F214470126A8
:10092000A2464FF0000E5CE8003F43EA06024CE8A6
:10093000002090F0000FF6D157E8003F43EA06028E
:1009400047E8002090F0000FF6D101EA05030233DA
:1009500004EB8302101D127912F0030F0A4613D123
:1009600003884088C3F3891303EB901301331A44BF
:1009700002EA0503023304EB830B0BF104009BF83E
:1009800004B01BF0030FEBD004EB830302325B686F
:10099000059303F00303012B4BD0022B06D1BDF8C6
:1009A0001630C3F38913033302EB930257E8003F79
:1009B00003EA0E0047E8000B9BF0000FF6D113B1DD
:1009C000CAF80420114609EB0103032BABD908F147
:1009D00002030020236001F033FA019E029D08EA21
:1009E0000603023304EB830301211A7961F3010248
:1009F000C5F3001161F3820265F3C5021A719A888A
:100A00006FF389129A805968039808F1010260F324
:100A10009F215960324004EB820394F81C24290C76
:100A2000D9601AB1FFF764FD0028FBD109B0BDE819
:100A3000F08FBDF81430C3F383131A44B6E700BF38
:100A40005C0100202DE9F04F5A4C89B0A368019059
:100A5000002002910093039201F0EAF9A568616811
:100A6000D4F800806B180133C8EB0303042B5FD864
:100A700005F10109C8EB090904F5836C04F2144778
:100A80000126A2464FF0000E5CE8003F43EA060252
:100A90004CE8002090F0000FF6D157E8003F43EA01
:100AA000060247E8002090F0000FF6D101EA0503A6
:100AB000023304EB8302101D127912F0030F0A4671
:100AC00013D103884088C3F3891303EB90130133D8
:100AD0001A4402EA0503023304EB830B0BF1040012
:100AE0009BF804B01BF0030FEBD004EB830302323E
:100AF0005B68059303F00303012B54D0022B06D14E
:100B0000BDF81630C3F38913033302EB930257E8A1
:100B1000003F03EA0E0047E8000B9BF0000FF6D100
:100B200013B1CAF80420114609EB0103042BABD919
:100B300008F103030020236001F082F9009D019E6B
:100B400008EA0503023304EB830301211A79C6F393
:100B5000001061F3010260F3820266F3C5021A71AC
:100B60009A8861F389129A8059683046029E08F18A
:100B7000010266F39F2108F102082A40596004EB44
:100B8000820208EA050304EB8303000C94F81C14AA
:100B9000D060039ADA6019B1FFF7AAFC0028FBD1F4
:100BA00009B0BDE8F08FBDF81430C3F383131A44C5
:100BB000ADE700BF5C0100202DE9F04F5E4C8BB02B
:100BC000029005930020A36803910193049201F021
:100BD0002FF9A5686168D4F800806B180133C8EB61
:100BE0000303052B5FD805F10109C8EB090904F5DA
:100BF000836C04F214470126A2464FF0000E5CE815
:100C0000003F43EA06024CE8002090F0000FF6D1C6
:100C100057E8003F43EA060247E8002090F0000F43
:100C2000F6D101EA0503023304EB8302101D1279A9
:100C300012F0030F0A4613D103884088C3F38913C7
:100C400003EB901301331A4402EA0503023304EB69
:100C5000830B0BF104009BF804B01BF0030FEBD0E7
:100C600004EB830302325B68079303F00303012B59
:100C70005BD0022B06D1BDF81E30C3F389130333BA
:100C800002EB930257E8003F03EA0E0047E8000B2F
:100C90009BF0000FF6D113B1CAF80420114609EBFE
:100CA0000103052BABD908F104030020236001F0F8
:100CB000C7F8019D029E08EA0503023304EB830393
:100CC00001211A7961F30102C6F3001161F3820276
:100CD00066F3C5021A719A88022161F389129A801B
:100CE0005868039A08F1010162F39F20294008F136
:100CF000020208F10308586004EB810108EA0503C9
:100D00002A4004EB820294F81C0404EB8304330CA5
:100D1000CB60049BD360059BE36018B1FFF7E8FB51
:100D20000028FBD10BB0BDE8F08FBDF81C30C3F339
:100D300083131A44A6E700BF5C01002030B4144DB1
:100D4000D5F81044002154B1237A8B4214D02346A5
:100D500002E01A7A8A420FD05B68002BF9D1017247
:100D6000D5F810340A4A7BB15B684360D2F810347E
:100D70005860084630BC704701310A29E3D14FF072
:100D8000FF31084630BC7047C2F810044360F0E7FA
:100D90005C01002038B5084BD3F81044012583F8D6
:100DA0001C543CB12368657220465B6898476468B0
:100DB000002CF7D138BD00BF5C0100202DE9F047C1
:100DC00084B01D460C9C002394F80C802373EB79AF
:100DD00081460E4617460BB3062F0FD8DFE807F003
:100DE000363B414804515E00B168F06896E80C005B
:100DF000009101904946204601F090F8EB792BB91B
:100E00002B7AEBB92046334901F088F8204601F0EF
:100E100079F884F80C8004B0BDE8F0872B7A002BB9
:100E20004BD1AA792C4BA88853F822A00021FFF7B8
:100E300023FB524603462949204601F06FF8CBE7D1
:100E400020462749274A01F069F8DBE74946204652
:100E500001F064F8D2E749463268204601F05EF8B6
:100E6000CCE74946204696E80C0001F057F8C5E764
:100E7000B16896E80C0020460091494601F04EF812
:100E8000BCE7B1683069F76896E80C000091029001
:100E900049460197204601F041F8AFE796E80C007B
:100EA000B168F06837697669039600910190494608
:100EB0000297204601F032F8A0E7A979A888FFF749
:100EC00007FB094B064953F82020204601F026F87D
:100ED000A7E700BFD0AB030074A80300B0A80300CD
:100EE000ACA80300BCA8030088A80300082951D8B7
:100EF0002DE9F0471D46002395F80C902B73D3790C
:100F0000904607460E46002B45D0002405E03A5D8A
:100F1000013401F003F8082C0AD0A64228463049D3
:100F2000F5D828462F49013400F0F8FF082CF4D1F9
:100F300028462D49DFF8D4A000F0F0FF00240DE092
:100F40003A5DDAF80030134401345B7813F0970F00
:100F500008BF2E2200F0E2FF082C0AD0A642284645
:100F60002249EDD828462249013400F0D7FF082C49
:100F7000F4D198F8073013B998F80830F3B9284637
:100F80001C4900F0CBFF284600F0BCFF85F80C9010
:100F9000BDE8F0877047137AB3B998F80620164B6E
:100FA000B8F8040053F822400021FFF765FA224602
:100FB00003461249284600F0B1FFA6E7284610492B
:100FC000104A00F0ABFFDAE791799088FFF780FADA
:100FD0000D4B0B4953F82020284600F09FFFDCE71B
:100FE000C4A80300CCA80300D0A80300D4A8030021
:100FF000B8A80300D0AB030074A80300B0A8030096
:10100000ACA80300BCA8030088A803005800002077
:10101000084B1B5C1F2B8ABF074A4FF0A04203F00E
:101020001F03D2F80405D84000F0010080F0010051
:10103000704700BF38A9030000030050074B1B5C3A
:101040001F2B86BF03F01F0305494FF0A04101226B
:1010500002FA03F3C1F80C35704700BF38A903004A
:1010600000030050064B1A5C1F2A86BF02F01F02C5
:1010700004494FF0A04101239340C1F8083570475F
:1010800038A90300000300504FF0A04310B44FF400
:1010900080404FF400544FF400414FF48032C3F8C5
:1010A0000845C3F80805C3F80815C3F808255DF816
:1010B000044B70474FF0A04310B44FF480404FF4FE
:1010C00000544FF400414FF48032C3F80C45C3F88C
:1010D0000C05C3F80C15C3F80C255DF8044B7047DC
:1010E0000A4B195C1F298ABF09484FF0A04001F044
:1010F0001F01D0F8043501228A4022EA030113407F
:10110000C0F80815C0F80C35704700BF38A90300B7
:101110000003005030B44FF0A04303224FF40055B9
:101120004FF480444FF400404FF48031C3F834272B
:10113000C3F83827C3F83C27C3F84027C3F808553D
:10114000C3F80845C3F80805C3F8081530BC704754
:101150000B2809D00C2809D0182809D0192814BF49
:101160004FF0FF3003207047002070470120704788
:10117000022070474B4B1978002900F091802DE92F
:10118000F04F87B0DFF828C104910024012504E066
:101190000134049BE4B29C4265D227B2DCF80060C3
:1011A00016F83700A0F1200305FA03F93E4BC0F111
:1011B000200ED3E9002325FA0EFE49EA0E0905FAAE
:1011C00000F808EA020A09EA030B06EBC7015AEA2B
:1011D0000B0E0591DCD03449CDF810C022EA08028C
:1011E00023EA0903C1E9002301F076FD16F8376010
:1011F000DDF810C0A6F1200205FA02F20192019971
:10120000C6F120035FFA80FA25FA03F3A6F1200263
:1012100019430AFA02F30393019105FA06F10091CA
:10122000C6F120070399214B2AFA07F739430391A6
:101230000AFA06F1D3E900230291DDE9000110402A
:10124000194002460B46DDE902018B4208BF82428B
:101250004FF0000B0AD0134B1B7804930134049B0E
:10126000E4B29C4299D307B0BDE8F08F059A576865
:1012700052780023A2F10102B2FA82F25209002F41
:10128000E9D05B4506BF5245012100213046CDF82B
:1012900014C0B847034BDDF814C01B78049377E7FC
:1012A000704700BF5406002080060020780600200A
:1012B000500600202DE9F8430746204800F082FD43
:1012C000D0B91F4E0123A7F1200103FA01F5C7F1A0
:1012D0002002D6E9000123FA02F2154303FA07F4CB
:1012E00004EA000205EA0103134307D020EA0404DC
:1012F00021EA0505C6E90045BDE8F883384601F056
:10130000EBFC104FD7E9002398B144EA020845EA04
:101310000309D6E9002314431D43C7E90089C6E940
:1013200000450949054809680022BDE8F84300F076
:10133000F5BC22EA040823EA0509EAE7580600207A
:1013400080060020780600204C060020F0B5042A14
:1013500083B0164602D8072003B0F0BD05460F46FD
:1013600001F05AFB002836D01D4BDFF88CC0DFF8A7
:101370008CE01C481C491D60002200237C1E8CF858
:101380000070CEF80060C0E90023C1E90023E4B298
:10139000DFB10327002600E01C4623B205EBC302A1
:1013A00015F833009378114A8DF8053001A98DF8AE
:1013B00004708DF806608DF8076001F037FB631E3E
:1013C0000028C9D1DBB2002CE6D1094A0948002126
:1013D00000F092FCC0E701F0D9FA0028C4D0BBE7C6
:1013E000500600207806002080060020B51200007C
:1013F000751100003CA90300540600204C06002093
:1014000070B5084D2B785BB1074E0024336801217D
:1014100013F8340001F0E4FB2B780134A342F5D833
:10142000002070BD540600205006002000B585B095
:1014300000230390194644F2010001AAADF80430DC
:10144000029300F003F805B05DF804FB10B5FFF758
:10145000A1FCFFF74DF80028FBD1104C1049208863
:10146000000440F00100FFF73DFA0E4B1B68DB075C
:1014700000D5FFDE20880C49000440F00200FFF791
:1014800031FABFF34F8F0949094BCA6802F4E06291
:101490001343CB60BFF34F8F00BFFDE7CC000020AC
:1014A00040A90300F0ED00E04CA9030000ED00E0CE
:1014B0000400FA05F8B5204A204B0025C2F8405137
:1014C000C2F84451C2F84851C2F84C51C2F8005118
:1014D000C2F804511B6813B31949D2F804250C68EB
:1014E000141B1A6824F07F44A2422F4609D8197CA5
:1014F000DE69A41A154499B91EB133461A68A2428E
:10150000F5D9104B10491A780B789A420DD00F4933
:101510000F4A41F823504FF48013C2F80031F8BD50
:101520001F745A6998699047E6E7531CDBB2022B97
:1015300008BF00230B70EAE7001001408C06002072
:10154000880600209006002091060020A0070020B9
:1015500000E100E02DE9F04F7D4A7E4913780978DB
:101560007D48994287B0066800F0E8810133DBB21C
:10157000022B08BF002379491370794A029108466B
:1015800052F82310036874488A19002522F07F421C
:101590000260AE462846A3B11A688A4200F2D6819C
:1015A000DC68C3F800E0891A1044DA6934B187199D
:1015B00027F07F47DD619C605F601D461346002B6E
:1015C000EAD1029A04931360049C01230593654BAE
:1015D000DFF894811B7801935F4BDFF890C1D3F85B
:1015E00000A0029B1F680023BB462F460093C14604
:1015F0001E464FF0010E37B37A68B9683D46FF6961
:10160000CAEB020323F07F4363453CD80B442B60B5
:101610006E60AE6085F810E0EE61002C67D0216846
:101620008B4242D9204603E01168994244D21046C9
:10163000C2695B1A002AF7D12B60EA612346C561B3
:101640001C46002FD8D198F8003098F801209A4213
:1016500000F08E805A1C03EB430308EBC30399F898
:1016600002109D68D2B2914289F800201A7908BF11
:1016700089F80070022A48D0032A3CD0012A22D0DF
:1016800023461C46DDE7C2EB0A0222F07F428A4273
:1016900002D28B1A2B60BBE72E606E60AE6085F8BD
:1016A00010E0EE611CB321680023CB1A23602B46A7
:1016B000EC61AB461C46C4E7C91A11602B60EA61B5
:1016C0002346C561BCE72A7C0392002AD8D1DA6898
:1016D0006A601969A9605869E86010339B68AB615A
:1016E000019B002B8CD0039B6B601A4688E72B462E
:1016F000AB461C46A5E70CB9C2E71C46E369267455
:10170000002BFAD19B461C469BE754B1A54200F042
:101710000881234602E0954207D01346DA69002A81
:10172000F9D123462E741C468BE7AB4200F0FA80B9
:10173000E9692868D9610029F3D023460A68024480
:101740000A60009A2E749C4218BF01220092EAE7B8
:101750009006002091060020880600208C060020BC
:10176000A00700209206002094060020FEFF7F00C4
:10177000029B9DF80420C3F800B0764BC3F800A08C
:10178000754B1A70009B1BB9049BA34200F0D081DB
:10179000002C00F03C81714D6E4BD5F804051B68A0
:1017A0006F4ED4F800C03178C21A22F07F42033263
:1017B000002952D16B4FDFF8B091DFF8B0814FF4C0
:1017C00080314FF4003E0124C5F84413C5F80413DA
:1017D000C7F880E1C7F800E02C602F21D9F800504D
:1017E00000BF00BF00BF00BF00BF00BF00BF00BF01
:1017F00045452FD000BF00BF00BF00BF00BF00BFE6
:1018000000BF00BF00BF00BF00BF00BF00BF00BFE0
:1018100000BF00BF00BF00BF00BF00BF00BF00BFD0
:1018200000BF00BF00BF00BF00BF00BF00BF00BFC0
:1018300000BF00BF00BF00BF00BF00BF00BF00BFB0
:1018400000BF00BF00BF00BF00BF00BF00BF00BFA0
:1018500000BF00BF0139C3D1347062452CBF9A1854
:1018600003EB0C023D4922F07F43C1F84035D1F82B
:101870000425121A1B1A22F07F4223F07F43033201
:101880009A4248D9D1F80435374AC1F84035126830
:1018900036492F2300BF00BF00BF00BF00BF00BFFD
:1018A00000BF00BF8A422FD000BF00BF00BF00BFF3
:1018B00000BF00BF00BF00BF00BF00BF00BF00BF30
:1018C00000BF00BF00BF00BF00BF00BF00BF00BF20
:1018D00000BF00BF00BF00BF00BF00BF00BF00BF10
:1018E00000BF00BF00BF00BF00BF00BF00BF00BF00
:1018F00000BF00BF00BF00BF00BF00BF00BF00BFF0
:1019000000BF00BF00BF00BF013BC3D1154B4FF468
:101910000032C3F80021104A0023137007B0BDE85D
:10192000F08F2246D4F81CB0BBF1000F22D0D16951
:1019300010685B4600297FF401AF02E70C4B02936D
:101940001B680493002505951C4640E6521A1A6050
:1019500037E600BF880600209206002000100140F4
:10196000A807002000E100E00C0000200024F400A3
:101970008C0600207549764BC1F808E075492F2088
:10198000096800BF00BF00BF00BF00BF00BF00BFAD
:1019900000BF99422FD000BF00BF00BF00BF00BFF3
:1019A00000BF00BF00BF00BF00BF00BF00BF00BF3F
:1019B00000BF00BF00BF00BF00BF00BF00BF00BF2F
:1019C00000BF00BF00BF00BF00BF00BF00BF00BF1F
:1019D00000BF00BF00BF00BF00BF00BF00BF00BF0F
:1019E00000BF00BF00BF00BF00BF00BF00BF00BFFF
:1019F00000BF00BF00BF0138C3D1D1691068002902
:101A000000F09B800122DA465B46019296E64F4A3F
:101A1000514B504E4E484FF480314FF40037012562
:101A2000C3F88070C2F848132F23C2F8081355601A
:101A300031681E4600BF00BF00BF00BF00BF00BF2F
:101A400000BF00BF81422FD000BF00BF00BF00BF5A
:101A500000BF00BF00BF00BF00BF00BF00BF00BF8E
:101A600000BF00BF00BF00BF00BF00BF00BF00BF7E
:101A700000BF00BF00BF00BF00BF00BF00BF00BF6E
:101A800000BF00BF00BF00BF00BF00BF00BF00BF5E
:101A900000BF00BF00BF00BF00BF00BF00BF00BF4E
:101AA00000BF00BF00BF00BF013EC3D195602B4AFD
:101AB000146000BF00BF00BF00BF00BF00BF00BF79
:101AC00000BF81422FD000BF00BF00BF00BF00BFDA
:101AD00000BF00BF00BF00BF00BF00BF00BF00BF0E
:101AE00000BF00BF00BF00BF00BF00BF00BF00BFFE
:101AF00000BF00BF00BF00BF00BF00BF00BF00BFEE
:101B000000BF00BF00BF00BF00BF00BF00BF00BFDD
:101B100000BF00BF00BF00BF00BF00BF00BF00BFCD
:101B200000BF00BF00BF013BC3D10D4B1C70F2E6EC
:101B3000059B002B3FF4EFAE2AE601231A460193E2
:101B40008A468B460B4600922E74ECE5001001404D
:101B50000024F4000C00002000E100E088060020D2
:101B6000A80700202DE9F041594B5A4A5A4D5B4EC7
:101B70004FF480344FF400310120C2F88010C3F8D4
:101B800048432F21C3F8084358602D680C4600BF16
:101B900000BF00BF00BF00BF00BF00BF00BFB54215
:101BA0002FD000BF00BF00BF00BF00BF00BF00BFFD
:101BB00000BF00BF00BF00BF00BF00BF00BF00BF2D
:101BC00000BF00BF00BF00BF00BF00BF00BF00BF1D
:101BD00000BF00BF00BF00BF00BF00BF00BF00BF0D
:101BE00000BF00BF00BF00BF00BF00BF00BF00BFFD
:101BF00000BF00BF00BF00BF00BF00BF00BF00BFED
:101C000000BF013CC3D1364C98600020206000BF6B
:101C100000BF00BF00BF00BF00BF00BF00BFB54294
:101C20002FD000BF00BF00BF00BF00BF00BF00BF7C
:101C300000BF00BF00BF00BF00BF00BF00BF00BFAC
:101C400000BF00BF00BF00BF00BF00BF00BF00BF9C
:101C500000BF00BF00BF00BF00BF00BF00BF00BF8C
:101C600000BF00BF00BF00BF00BF00BF00BF00BF7C
:101C700000BF00BF00BF00BF00BF00BF00BF00BF6C
:101C800000BF0139C3D1174D1749DFF86080DFF875
:101C900060C0DFF860E028704FF48016E0250B2765
:101CA000C8F800008CF800008EF80000087048703A
:101CB0008F70C2F8806182F814531660C3F808056B
:101CC00082F81153D3F804352360BDE8F08100BFDA
:101CD0000010014000E100E00C0000200024F400AE
:101CE00088060020A8070020940600208C0600200B
:101CF0009006002091060020074B9B780BB9082026
:101D000070473AB130B10368187C0028F7D1597494
:101D10005A61704707207047940600202DE9F04172
:101D2000254CA37813B90820BDE8F0810028FAD02B
:101D3000042902D80720BDE8F0814369002BF2D0C6
:101D4000437C0546012B4FF000000CBF88468046BF
:101D500017460E4600F06CF86378A07821785A1C7C
:101D6000D2B2904208BF002291421ED003EB43033F
:101D700004EBC30319464FF0010E41F8085F0F480A
:101D800083F804E0D0F8040548608E600020C3F8B2
:101D900014809F61627000F053F8094B4FF4801279
:101DA000C3F800210020BDE8F081002000F048F8D1
:101DB0000420BDE8F08100BF94060020001001401F
:101DC00000E100E070B5184CA3780BB9082070BD95
:101DD0000028FBD04369002BF8D000250574064687
:101DE000284600F025F86278A0782178531CDBB2F1
:101DF000984208BF2B46994211D002EB420204EBF5
:101E0000C2020221284696601171637000F018F832
:101E1000064B4FF48012C3F80021284670BD2846B7
:101E200000F00EF8042070BD9406002000E100E0F0
:101E300072B6024A1368013313607047AC07002082
:101E4000034A1368013B136003B962B6704700BFD1
:101E5000AC070020B8B130B4416882680468521AF7
:101E6000D2B2531E2160DBB242B101680A685C1E27
:101E7000551C0D601370E3B2FF2BF6D103680020F0
:101E8000187130BC70470E20704700BF70B5044613
:101E90000020FFF7CDFF236861681A688A4215D9D0
:101EA000511E19602168A3680D68087912F8016C49
:101EB000228AE4685B1BDBB2984206FB024400D234
:101EC0000B710020FFF7BCFF204670BD00240020EE
:101ED000FFF7B6FF204670BD38B5054600200C461A
:101EE000FFF7A6FF2A681368591C1160E9682A8A5F
:101EF000641AB4FBF2F41C700020BDE83840FFF710
:101F00009FBF00BF826802B9704710B5044643699D
:101F10002168006998470023A36010BD0EB400B586
:101F200082B0039929B102AA04AB42F8043D00F043
:101F300089F802B05DF804EB03B070472DE9F84F63
:101F40001746B9428A4606461D46DDF828B00B9A68
:101F500073D30B464FF00108B3FBF7F39F4208F130
:101F60000108F9D9A84538BFA84612F0010902D1E5
:101F7000BBF1000F41D1B168012402E0013D07FB34
:101F800004F4012DFAD8BAFBF4F39F42F7D92C4D93
:101F900002E0B168BAFBF4F34A1CB2603268E85C54
:101FA0005054B0687268904204FB13AA02D33046C2
:101FB000FFF7A8FFB4FBF7F4002CEAD1B9F1000F4A
:101FC00015D0BBF1000F12D0C34510D92024B3683F
:101FD0003268591CB160D454B26873689A420BF1EC
:101FE000FF3B06D2BBF1000F01D0C345EFD8BDE8DF
:101FF000F88F3046FFF786FFF4E7930718D42024C4
:10200000C345B8D9B16833684A1CB2605C54B16842
:10201000736899420BF1FF3B05D2BBF1000FABD0C7
:10202000C345F0D8A8E73046FFF76CFFB168F4E786
:10203000002D14BF20243024E2E74FF0010891E77F
:1020400064A903002DE9F04F0D4685B0002900F08A
:10205000B2800B78DFF8E8A4064691460135002BE4
:1020600000F0A580252B40F0A28129464FF0000802
:102070000D4611F8013B2D2B00F09381302B00F021
:1020800093812B2B00F085812A2B00F09E81A3F1F8
:102090003002092A00F2BE816A1C002404EB840489
:1020A00003EB44042A2BA4F13004154600F08E8182
:1020B0001378A3F13001092905F10102EED91A467E
:1020C0002E2A00F09081002701E015F8012F02F080
:1020D000FB03682BF9D0253A532A63D8DFE812F0C6
:1020E000270162006200620062006200620062001A
:1020F00062006200620062006200620062006200D0
:1021000062006200620062006200620062006200BF
:1021100062006200620062006200620062006200AF
:10212000620062006200620062006200620062009F
:10213000620062006200620062006200620062008F
:102140006200620062004A01620062006200620096
:102150006200620062006200620062003601CE002E
:102160006200620062006200CE00620062006200F3
:10217000620062006200A900620062006E006200FC
:102180005400620062004A01D9F800301A1DC9F8F3
:102190000020196800943B46CDF8048030460A229E
:1021A000FFF7CCFE01352B78002B7FF457AF337B44
:1021B000002B40F06C8105B0BDE8F08FD9F80030FD
:1021C0001A1DC9F8002018F0010F1F6840F0258182
:1021D000002F00F0A581384637F003F980464445CA
:1021E00015D9A4B14FF0200B00E084B1B268336878
:1021F000511CB16003F802B0B26873689A4204F1EE
:10220000FF3402D33046FFF77DFE4445EDD8013F51
:1022100017F8013F002BC5D0B2683168501CB06080
:102220008B54B26873689A42F2D33046FFF76AFE65
:10223000EEE7D9F80020131DC9F80030B368316803
:102240001468581C3022B060CA54B3687268934254
:1022500080F018813268581C7821B060D154B2687F
:1022600073689A4280F00A81082300220192214675
:10227000009330461022FFF761FE93E7D9F8003053
:102280001A1DC9F80020D3F800B08BEAEB73A3EB5A
:10229000EB73092B4FF0010108DD8AFB0302DB170A
:1022A000C3EBA203092B01F10101F6DCB94238BFEF
:1022B000394634B1BBF1000F02DB18F0040F00D037
:1022C000013C18F0020F40F0D58018F0010F18D132
:1022D000002C00F006818C4213D94FF0200CB2681C
:1022E0003368501CB06003F802C0B26873689A4249
:1022F00004F1FF3480F0F780002C00F0F2808C4273
:10230000EDD8BBF1000FC0F20D8118F0040F40F0C2
:10231000F48008F00303022B00F0BF808DE8100169
:1023200059463B4630460A22FFF708FE3AE7B368B3
:102330003268581C2521B060D154B26873689A4243
:10234000FFF430AF3046FFF7DDFD2BE7D9F8002072
:10235000131DC9F80030B36831681278581CB0609A
:10236000CA54B26873689A42FFF41CAF3046FFF754
:10237000C9FD17E7D9F800301A1DC9F800201968FF
:1023800000943B46CDF8048030461022FFF7D6FD7E
:1023900008E70D4611F8013B2D2B48F004087FF4A7
:1023A0006DAE48F0010863E648F0020860E6B268E6
:1023B0003168501CB0608B54B26873689A42FFF465
:1023C000F2AE3046FFF79EFDEDE60024D9F800306E
:1023D0001A1DC9F800206A781B682E2A1C4405F1D2
:1023E00001057FF470AE6A78A2F13003092B05F184
:1023F00001054FF000073FF66AAE07EB870702EBD7
:10240000470715F8012FA2F13003092BA7F1300778
:10241000F3D95CE61A46002452E6B846C7EB080B2F
:1024200018F8012B8AB1B1683368481CB0605A545F
:10243000B26873689A42F1D33046FFF763FDC7EB89
:10244000080B18F8012B002AEDD15C457FF6AAAEE7
:102450002027B3683268591CB160D754B2687368DA
:102460009A4204F1FF3402D33046FFF74BFD5C453E
:10247000EFD897E6002F3FF444AF26E73046FFF74A
:1024800041FDF1E63046FFF73DFDB368E2E6304638
:1024900005B0BDE8F04FFFF735BD002F7FF43EAF2C
:1024A000002C3BD08C427FF639AF4FF0300CB26835
:1024B0003368501CB06003F802C0B26873689A4277
:1024C00004F1FF3403D24CB38C42F0D826E73046F7
:1024D000CDF80CC00291FFF715FDDDF80CC0029994
:1024E000F1E700240DE73046CDF80CC00291FFF76C
:1024F00009FDDDF80CC00299FEE6B268531CB3601A
:1025000033682B209854B26873689A42FFF401AF85
:1025100030460291FFF7F6FC0299FAE60024FDE648
:10252000B8465CE6B268531CB36033682D209854FB
:10253000B26873689A42CBF1000BFFF4EAAEE7E7AA
:1025400067666666FFF786BC2DE9F041B0F810803B
:10255000A8F104084144CF1C0646FFF797FCB7FBDF
:10256000F8F7044678B3FFB200250123013FA0F835
:10257000068006600571437128D0804609E06379C2
:10258000AF4203F101036371C8F8000006608046A2
:102590001CD03046FFF77AFC01350028EFD1667970
:1025A000721E234603D0013082421B68FBD81F688D
:1025B0004EB1002523682146013538461C46FFF7F9
:1025C0008BFCAE42F6D10020BDE8F0812046BDE88C
:1025D000F08100BF10B40430012350E8002F02EB5B
:1025E000030140E8001494F0000FF6D15DF8044BAD
:1025F000704700BF0146021DF8B5012052E8004FA8
:10260000A4EB000342E8003595F0000FF6D113F07B
:10261000FF0300D0F8BD4E79701E0A4603D0013387
:1026200098421268FBD81768002EF3D000240D687A
:1026300001343846FFF750FCA6422946F7D1F8BDD1
:102640002DE9F0410446181DE688B0FBF6F30F466D
:10265000154606FB130013B1013B2468FCD1321A66
:10266000AA4228BF2A468DB14FF000082044AD1A77
:1026700007EB08010430904436F0B2FAB5422A461E
:10268000246828BF32460020002DEFD1BDE8F0813C
:102690002DE9F041C688043304460F46B3FBF6F03B
:1026A000154606FB103110B101382468FCD1721AAE
:1026B000AA4228BF2A468DB14FF000082144AD1A26
:1026C000043107EB0800904436F08AFAB5422A46F6
:1026D000246828BF32460021002DEFD1BDE8F081EB
:1026E00010B50C4C23780BB1852010BD0A4A6360ED
:1026F000E3601068A36010F00100236102D107219C
:1027000000F01CF94FF080420123C2F81835237005
:10271000002010BDB007002000E100E030B51B4DE7
:10272000AB78044683B003F0FF0073B114B1636863
:10273000012098470020FFF77BFBEB680020013366
:10274000EB60FFF77DFB03B030BDFFF771FB64B1B9
:102750002A6942B1944208D0134601E09C4204D059
:102760001B68002BFAD122602C61EB68002BE4D1AE
:10277000074A08491360136801934FF08042022012
:102780000123019CC2F804030B60D6E7B0070020C8
:10279000040100400800004008B50020FFF748FB96
:1027A0000B49CB68013BCB60CB685BB9094B01227D
:1027B0001A604FF08042D2F81834C3F30043002B64
:1027C000F9D18B700020BDE80840FFF739BB00BF8E
:1027D000B00700200C0000404FF08043D3F81804ED
:1027E000C0F30040704700BF30B51A4D6B78044607
:1027F00083B003F0FF0073B114B163680020984701
:102800000020FFF715FB6B68002001336B60FFF7BA
:1028100017FB03B030BDFFF70BFB64B1AA6842B1F0
:10282000944208D0134601E09C4204D01B68002B60
:10283000FAD12260AC606B68002BE4D1064A1360C9
:10284000136801934FF0804301220199C3F80423D8
:102850001A60D8E7B00700200001004008B500204A
:10286000FFF7E6FA0C494B68013B4B604B686BB9CC
:102870000A4B01221A604FF08042D2F80C3403F068
:102880000113B3F1011FF8D000234B700020BDE805
:102890000840FFF7D5BA00BFB00700200400004091
:1028A0004FF08043D3F80C0400F00110A0F10110A8
:1028B000B0FA80F04009704710B51D4B1A6882B01D
:1028C000F2B91C4B1A680AB902B010BD00221A6096
:1028D0001B6801934FF080430222174C0199C3F803
:1028E000082323690122A270002BEDD01A6822610F
:1028F0005B68012098472369002BF7D102B010BD17
:1029000000221A601B6800934FF0804301220A4C9A
:102910000099C3F80823A3686270002BD1D01A680D
:10292000A2605B6800209847A368002BF7D1C8E736
:102930000001004004010040B0070020002810B44E
:1029400018DB00F1604303F561434901C9B283F824
:102950000013C3B24009800000F1604000F56140FF
:1029600003F01F0201239340C0F8803103605DF83B
:10297000044B7047C3B2044A03F00F0449012244D8
:10298000C9B21176E6E700BFFCEC00E030B51F4CA1
:1029900094F8645083B015B1082003B030BD4FF0F7
:1029A000FF33FF220620072123636363A363E363EE
:1029B00023646364A364E36423656365A365E365DB
:1029C00023606360A360E36023616361A361E361EB
:1029D000236284F860306362A36284F86230E36249
:1029E00084F8633084F86120FFF7A8FF084B094A98
:1029F0001D601B68019301984FF000430121284698
:102A000084F86410C2F8043303B030BDC40700205A
:102A10007C61004000600040034B93F8640000308C
:102A200018BF0120704700BFC4070020F0B56A4CF2
:102A3000251895F93030002B01DB0820F0BD91F806
:102A400003E09446BEF1000F56D02368013300F036
:102A5000BB80082600256B1C5F4F54F823200132F1
:102A600051D0AB1C9E4245D957F8232001324AD0A1
:102A7000EB1C9E423ED957F82320013243D02B1D38
:102A80009E4237D957F8232001323CD06B1D9E421D
:102A900030D957F82370013735D0AB1D9E4229D964
:102AA00054F823204C4F01322DD0EB1D9E4221D9EA
:102AB00057F82320013226D005F108039E4219D988
:102AC00057F8232001321ED005F109039E4211D987
:102AD00057F82320013216D005F10A039E4209D986
:102AE00057F8237001370ED00B35AE4202D9E36A96
:102AF000013307D00420F0BD236A01335CD00C26DB
:102B00000825A8E70B232618DDB244F823C0324677
:102B100086F83050BEF1000F02D1234483F85800EC
:102B20008B78DBB91F284A7887BF2C4E00F01F0333
:102B300003464FF0A04603F5E073920046F82320C9
:102B4000CB78E3B96AB2083A1444097894F8602063
:102B500042EA811284F860201846F0BD1F2887BF22
:102B60001E4B00F01F0202464FF0A04303EB82030E
:102B7000D3F8002722F00202C3F80027E0E76BB287
:102B80009B0003F1804303F5C0430A78D3F8101586
:102B900021F44F3121F44071C3F8101512040002E2
:102BA00002F44031D3F8104500F47C520A4322432A
:102BB000C3F810250020F0BD082685F830603346A4
:102BC000C4F820C03546A8E7002385F83030C4F8A3
:102BD00000C01D46A4E700BFC4070020000300504A
:102BE000F0B43A4D2E1882B096F8302053B2072B2D
:102BF00020DD2B4493F858309B09032B44D0012B44
:102C00000CBF4FF400324FF440321F2849D900F076
:102C10001F002F4B03EB8000D0F8003723F4403324
:102C2000C0F80037D0F800371A43C0F8002702B0C8
:102C3000F0BC7047072AFAD8980000F1804000F5F0
:102C4000C04003F140029200D0F8104592B202F168
:102C50008042002744F0010402F5C042C0F810454C
:102C60000197019817600029E1D096F9302055F8B6
:102C70002220002ADBD00122164902FA03F3C1F810
:102C8000043302B0F0BC70471F280DD9104BD3F8A5
:102C9000103500F01F00C340DB0713D54FF440325E
:102CA000B7E74FF0A043B5E74FF0A0421346D2F884
:102CB0001025C24012F0010F0CBF4FF400324FF448
:102CC0004032A7E74FF40032A3E700BFC40700205B
:102CD00000030050006000401F288ABF054B4FF0E2
:102CE000A04300F01F00D3F8103523FA00F000F0E5
:102CF00001007047000300502DE9F04F89B0002516
:102D0000B24B029503951A68012A00F05081B04B2E
:102D10001A68012A00F03D81AE4B1A68012A00F0C2
:102D20002A81AD4B1A68012A00F01781AB4B1A6853
:102D3000012A00F00481AA4B1A68012A00F0F180F0
:102D4000A84B1A68012A00F0DE80A74B1A68012AF6
:102D500000F0CB80A54B1A68012A00F0B58015F071
:102D6000FF0F1AD0A24F01260024A30003F18043D5
:102D70002E4203F5C0434FEA46060BD0D3F81005A8
:102D800057F82420D3F81015C0F30520C1F30141F2
:102D900002B190470134082CE7D1002D02DB09B0C5
:102DA000BDE8F08F934F00224FF0FF33A7F1630986
:102DB00004920592069307938F4C4FF0000A4FF050
:102DC000010814F8013FFF2B30D0DBB223F0C00024
:102DD00008AAC608951903F0070215F8081C08FA96
:102DE00002F2114222D009EB000E99099EF930E05F
:102DF00059F82EC0BCF1000F56D0032956D01F2819
:102E00008ABF03F01F060646DFF8F0E115F818BC8C
:102E100098BF4FF0A04E06F5E0761BEA020F5EF871
:102E20002650C5F301451AD1032D48D0BC42C8D164
:102E3000BAF1000FB3D04FF0A0430299D3F8103588
:102E40006E4A9942D2F8102502D103999142A6D038
:102E5000049805990293039206900791ACE7022D1E
:102E6000E4D1032904D0BCF1000FDFD0E047DDE757
:102E70004FF440321F288BBF604D4FF0A04503F048
:102E80001F03034605EB83030AF1010AD3F8005739
:102E900025F44035C3F80057D3F800572A435FFAAA
:102EA0008AFAC3F80027DEE70329BFD10DF1100B22
:102EB0001BF806E04EEA020E0BF806E09FE7032936
:102EC000D1D14FF40032D5E700221A601B6801937C
:102ED0004FF0A042019BD2F81025484B0292D3F844
:102EE0001035039345F0004539E7454AD2F80423ED
:102EF00012067FF52FAF00221A601B680093009B1B
:102F000045F0800526E73E4AD2F8042351067FF5B6
:102F10001CAF00221A601B680093009B45F040051F
:102F200013E7374AD2F8042390067FF509AF002251
:102F30001A601B680093009B45F0200500E7304AAB
:102F4000D2F80423D4067FF5F6AE00221A601B687F
:102F50000093009B45F01005EDE6294AD2F80423C2
:102F600016077FF5E3AE00221A601B680093009BF2
:102F700045F00805DAE6224AD2F8042357077FF520
:102F8000D0AE00221A601B680093009B45F0040538
:102F9000C7E61B4AD2F8042392077FF5BDAE002294
:102FA0001A601B680093009B45F00205B4E61449C3
:102FB000D1F8041311F0010105D01D601B680093C6
:102FC000009B1546A3E60D46A1E600BF0061004048
:102FD00004610040086100400C6100401061004045
:102FE00014610040186100401C6100407C61004099
:102FF000C4070020270800202308002000030050F9
:10300000006000400B4A0223C2F80435BFF36F8F03
:10301000BFF34F8FC2F80805D2F800340549002BE2
:10302000FAD00023C1F80435BFF36F8FBFF34F8F81
:10303000704700BF00E0014082B32DE9F047184C13
:103040000D468E18401AA0464FF0FF0C4FF0010EAF
:103050000027431903F0030123EA0103C900D3F851
:10306000009015F8012BC4F804E50CFA01FA29EADE
:103070000A09BFF36F8FBFF34F8F8A404A441A602B
:10308000D4F80034002BFBD0C8F80475BFF36F8F61
:10309000BFF34F8FB542DCD1BDE8F087704700BF6A
:1030A00000E001400220FEF71BB800BF2DE9F04709
:1030B0000D460646FEF74CF8032804461DD8012DA0
:1030C0001FD00ED3022D1AD11C4B00EB40041C4420
:1030D000657895B11A4B1B687BB12846BDE8F0476F
:1030E00018471848FEF76EFE1449174A04EB4403CC
:1030F0000B44155D9B789D42EBD0BDE8F087BDE8A1
:10310000F087DFF8388047003B1808EB030218F817
:10311000035053782BB9274447440B4BBA781A55C0
:10312000D7E7DFF8289007484A464FF40041FEF7FA
:10313000F5FD0028EFD189F80060ECE7A408002035
:103140007C080020800800204C080020A1080020F6
:1031500010B50078FDF7FCFF03280BD8064B00EBF9
:1031600040001844407828B1044B1B6813B1BDE8F7
:103170001040184710BD00BFA40800207C080020A4
:10318000B34B1B68DB0700D4704770B5B14EB24D2E
:1031900033782C78FBB9172C1CD8DFE814F0F10039
:1031A0001401140163007600830096005D0039006D
:1031B0002C0039002C00A300A800A800A800A8003B
:1031C000A800CE00DE000101460018001800FDF73F
:1031D00071FF2C7070BDA14B1B7800203070002B4C
:1031E00000F00581FDF73EFF0120FDF73BFF0320C6
:1031F000FDF738FFCFE7012318463370FDF770FF66
:1032000097484FF480410022BDE87040FEF786BD2C
:10321000012318463370FDF763FF914840F6CD4116
:103220000022BDE87040FEF779BD8C4B1B78002B67
:1032300000F0FE800020FDF715FF0120FDF712FFD2
:103240000320FDF70FFF0020FDF7F8FE0120FDF73A
:10325000F5FE15232B7070BD0020FDF7EFFE072350
:103260002B7070BD0020FDF7D3FE002800F0D38046
:103270000020FDF7F7FE46F2666103232B707848C5
:103280000022BDE87040FEF749BD0020FDF7C0FEFA
:10329000002800F0C5800020FDF7E4FE4FF4003167
:1032A0000423EBE70020FDF7B3FE002800F0BD800B
:1032B0000020FDF7D7FE05232B70694841F69A11CF
:1032C0000022BDE87040FEF729BD0020FDF708FF91
:1032D00006232B70624840F6CD410022BDE87040C5
:1032E000FEF71CBDFDF7E6FE0C232B7070BD5D489C
:1032F000FEF768FDD4F1110405467BD0002879D192
:10330000012C13D0C82303FB04F44FF4FA704FF4DC
:1033100000430021C3FB04014FF47A72002336F00E
:10332000BDFF2A4601464F48FEF7F8FC0220FDF794
:1033300085FE4A4B01221A7070BD484B1B78002B4A
:1033400079D00020FDF78EFE0120FDF78BFE0320D3
:10335000FDF788FE12232B7070BD404B1B78002BAD
:103360006FD00020FDF77EFE0120FDF77BFE0320DD
:10337000FDF778FE0020FDF761FE13232B7070BD72
:10338000364B1B78002B59D00020FDF76BFE012037
:10339000FDF768FE0320FDF765FE00232B7070BD6E
:1033A0002E4B1B78002B4FD00020FDF75BFE012039
:1033B000FDF758FE0320FDF755FE0120FDF73EFE08
:1033C00014232B7070BD0020FDF722FEC8B1002031
:1033D000FDF748FE022C4EF2666118BF4FF4003133
:1033E0002C701F480022BDE87040FEF797BCFDF727
:1033F0004BFED0E60220FDF735FE184B00221A7076
:1034000070BDFDF71BFE41F69A1343F23331022CD7
:1034100008BF1946E4E7FDF711FE41F69A112CE7C3
:10342000FDF70CFE43F233313AE7FDF707FE42E7C2
:10343000FDF72AFE07E7FDF727FE8BE7FDF724FEE1
:10344000ABE7FDF721FE95E7FDF71EFEB5E700BFF0
:103450007408002078080020A008002070080020D0
:103460002C0800205008002038B5C44B1B6813F00E
:10347000010401D1204638BDC14C23780546E3B98B
:10348000172D00F27881DFE815F00B0131013101D1
:1034900069007D009100A5005B0035002800350023
:1034A0002800B300BA00BA00BA00BA00BA00E300BC
:1034B000F6001C01420063006300B24B1B78002041
:1034C0002070002B00F02781FDF7CCFD0120FDF7D7
:1034D000C9FD0320FDF7C6FDD2E70123184623707E
:1034E000FDF7FEFDA8484FF480410022BDE83840BA
:1034F000FEF714BC012318462370FDF7F1FDA24826
:1035000040F6CD410022BDE83840FEF707BC9D4B98
:103510001B78002B00F020810020FDF7A3FD012087
:10352000FDF7A0FD0320FDF79DFD0020FDF786FDC2
:103530000120FDF783FD954B15221A70002499E7B1
:103540000020FDF77BFD914B07221A70002491E7C4
:10355000FDF7B0FD8D4B00241D708BE70020FDF7BB
:1035600057FD002800F0E1800020FDF77BFD46F2CA
:103570006661864B844803241C700022BDE83840F5
:10358000FEF7CCBB0020FDF743FD002800F0DC80F7
:103590000020FDF767FD4FF400317C4B7A4804248E
:1035A0001C700022BDE83840FEF7B8BB0020FDF7D4
:1035B0002FFD002800F0CD800020FDF753FD734B58
:1035C000714805241C7041F69A110022BDE838406C
:1035D000FEF7A4BB0020FDF783FD6C4B6A48062470
:1035E0001C7040F6CD410022BDE83840FEF796BB86
:1035F000FDF760FD654B0C221A7000243AE7644821
:10360000FEF7E0FBD5F11105044600F087800028A5
:1036100040F08480012D14D0C82303FB05F54FF43E
:10362000FA704FF400430021C3FB05014FF47A7296
:10363000002336F033FE224601465548FEF76EFB66
:1036400004460220FDF7FAFC4E4B01221A7011E7E6
:103650004C4B1B78002B00F082800020FDF702FD10
:103660000120FDF7FFFC0320FDF7FCFC474B122275
:103670001A700024FEE6434B1B78002B75D0002007
:10368000FDF7F0FC0120FDF7EDFC0320FDF7EAFC5F
:103690000020FDF7D3FC3D4B13221A700024E9E60D
:1036A000384B1B78002B5DD00020FDF7DBFC0120A0
:1036B000FDF7D8FC0320FDF7D5FC344B00241C702B
:1036C000D8E6304B1B78002B52D00020FDF7CAFC07
:1036D0000120FDF7C7FC0320FDF7C4FC0120FDF726
:1036E000ADFC2A4B14221A700024C3E60020FDF71B
:1036F0008FFCF8B10020FDF7B5FC022D4EF266619B
:1037000018BF4FF40031214B1F481D700022BDE847
:103710003840FEF703BBFDF7B7FCB1E60220FDF72A
:10372000A1FC184B00221A70A4E6FDF787FC41F6B5
:103730009A111EE7FDF782FC41F69A1343F23331EA
:10374000022D08BF1946DEE7FDF778FC43F233315E
:1037500023E7FDF773FC32E7FDF796FCE5E6FDF79E
:1037600093FC83E7FDF790FCA7E7FDF78DFC8FE75F
:10377000FDF78AFCB2E700247CE600BF7408002055
:1037800078080020700800202C080020A0080020E5
:1037900050080020F0B5214A214B1060044610F07B
:1037A000020083B0196015D01E4B1F484FF00E0E5B
:1037B0000F2710261125042140F2666283F800E0ED
:1037C000DF709E715D72FDF7C1FDA0B1E3071DD4EE
:1037D00003B0F0BDE20719D41448154A0021FEF7E2
:1037E0008BFA0028F4D11348134A012103B0BDE835
:1037F000F040FEF781BAFDF703FE0028E6D101464E
:103800000E4A0F48FEF778FAE10703D50190FDF75D
:1038100081FC01980028DFD003B0F0BD74080020BF
:103820007C080020A408002088A9030084A90300C4
:1038300081310000ACA90300A53000005131000027
:10384000A8A90300420700D4704708B5084606F04F
:103850004AF988B1831E022B0A4A06D9062313703F
:103860001846BDE80840FFF7FFBD07231370184650
:10387000BDE80840FFF7F8BD024A1070BDE80840F7
:10388000FFF7F2BDBE08002008B51C4B1B78032BC8
:1038900027D8DFE803F0211207020120BDE8084025
:1038A000FDF7CCBB0120FDF71BFC154840F6CD41D0
:1038B0000022BDE80840FEF731BA0120FDF7A8FB61
:1038C00080B90120FDF7BAFB41F69A110C4800229D
:1038D000BDE80840FEF722BA0120BDE80840FDF728
:1038E000C1BB08BD0120FDF7BDFB46F2666104487F
:1038F0000022BDE80840FEF711BA00BFBD08002055
:10390000E008002008B51B78802B00D008BD0D4BC7
:10391000072201201A70FDF77BFB68B10020FDF73C
:10392000A1FB0120FDF79EFB074841F69A110022FA
:10393000BDE80840FEF7F2B9FDF780FB0120FDF776
:103940007DFBF1E7BC080020C008002008B52C4A28
:103950001378013BDBB2137083B10120FDF758FBF4
:10396000A0B9FDF76BFB0120FDF768FB254841F688
:103970009A110022BDE80840FEF7D0B9224B1B780F
:10398000032B0DD8DFE803F0121B2B090020FDF7F5
:1039900069FB0120FDF766FBE8E70120FDF74EFB20
:1039A0001A4B1878BDE80840FFF75EBD0120FDF70F
:1039B00059FB164B1878BDE80840FFF755BD0120AC
:1039C000FDF726FBA8B10120FDF74CFB46F266612E
:1039D0000F480022FEF7A2F90028E1D008BD01201F
:1039E000FDF77EFB40F6CD4100220948FEF796F92F
:1039F000F2E70120FDF722FB41F69A11E8E700BF4C
:103A0000BC080020C0080020BD080020BE0800201F
:103A1000E0080020F8B5134E134B144F0024214644
:103A20000C22054630461C703C7035F0FFF82146EC
:103A30000F4B1048104A3360FEF75EF9044628B970
:103A400001460E4A0E48FEF757F904462A46284614
:103A50000C4905F036FD2846024905F022FD2046B6
:103A6000F8BD00BFB0080020BD080020BE0800203F
:103A700005390000B0A90300893800004D39000065
:103A8000B4A9030045380000014B01221A707047A9
:103A90005009002070B5084B05461C88084606F002
:103AA00022F8240444F0030403462A46204603492E
:103AB000BDE87040FDF780B8CC000020BCA9030031
:103AC000112800D0704770B5B2B001220EA81021A5
:103AD00005F098FB0EA8022105F0AAFB23490EA8C9
:103AE00005F0A8FB00F050FD0EA905F0BFFB054650
:103AF00090B300212C2203A835F098F801238DF80B
:103B0000303000F041FD05F0A6FF034600689A68DA
:103B10005968DB6803AC0FC441F2336607A9144847
:103B2000ADF82E6005F018FD00F02EFD0023009387
:103B300003AA29460F4B05F0A2FB58B10E4B0F49C3
:103B40001B881B04024643F00300FCF77BFF28465A
:103B500005F028FE32B070BD074B094918880004F3
:103B600040F00300FCF7BEFEF4E700BFECA9030041
:103B700024AA0300853B0000CC0000202CAA0300EF
:103B8000F4A9030070B5104614461E4605F010FE59
:103B9000134D014605F148022046022305F00CFEB4
:103BA000022800D070BD102206F1100105F1380086
:103BB00035F016F80B4B0C491888000440F0030050
:103BC0000024EC64FCF78EFE224608484FF4A471F2
:103BD000FEF7A4F80028E5D0BDE87040FDF726BC4C
:103BE00000090020CC00002050AA03005409002046
:103BF00070B588B09DF830300BB108B070BD10467C
:103C0000144605F0D5FD05AA01460C23204605F013
:103C1000D3FD0C28F1D1079A0F49059B08880F4E58
:103C2000029342F21071C2F57A7301FB03F1A6FB15
:103C300001610B4D069C0394890985FB01656D09A3
:103C4000642606FB151100040191009540F0030065
:103C50000449FCF759FDD0E7CC000020D34D621099
:103C60001F85EB518CAA030080B50020B2B0FCF791
:103C7000D7FB08B1FDF7DAFBFCF7C4FBFDF772FFD9
:103C800008B1FDF7D3FB00234FF4F0304FF0A04113
:103C9000032203E0ED0748BF41F824200133202B25
:103CA00040FA03F503F5E074F4D14FF0A04200238D
:103CB0004FF4F031C2F808150EA8C2F80C350122F5
:103CC0000E930F9310938DF83A2000F08DFB00F0C7
:103CD00039FC814800F05EFC03208049FFF75AFD63
:103CE00008B1FDF7A3FB00F04FFCFFF793FE08B10E
:103CF000FDF79CFB00F048FC41F2336105F0C4FA8B
:103D0000774D784F002114220EA834F08FFF00F079
:103D10003BFC00222946134606F06EF8002800F00E
:103D2000CF803B8870491B04024643F00300FCF738
:103D300089FE6E486E4A0121FDF7DEFF08B1FDF7EE
:103D400075FB6C4CDFF89881264621E06A49042215
:103D500003A834F045FF00F017FC012106F03CF801
:103D60008146002800F09C8003A9042205F022FD72
:103D700000285AD038886149000440F00100FCF75F
:103D8000B1FD484605F00EFDFCF7B2FB002879D0E6
:103D900000F0E4FB2378002BF6D0EB6C0022B3F5A7
:103DA0007A7F3270D2D35648FEF70CF800286CD1D7
:103DB00001220EA8102105F025FA0EA8022105F017
:103DC00037FA50490EA805F035FA00F0DDFB0EA9D0
:103DD00005F04CFA814600285AD000212C2203A875
:103DE00034F024FF012241F2336347498DF830203B
:103DF00007A81022ADF82E3034F0F2FE00F0C4FB1C
:103E0000824600F0C1FB4946009003AA50463F4B52
:103E100005F035FA0028B7D03B883D491B0402461F
:103E200043F00300FCF70EFEABE701462C220EA880
:103E300034F0FCFE0122B8F8483033498DF85C209C
:103E400012A81022ADF85A3034F0CAFE00F09CFBE4
:103E500005F001FE0346006859689A68DB680DF1B9
:103E6000380EAEE80F001E4849460EAA05F0E4FFE2
:103E7000F0B9D8F84C300133C8F84C30FCF738FBB7
:103E8000002885D100F076FB82E7FDF7CFFA8FE7B7
:103E900038882049000440F00300FCF723FD73E755
:103EA00038881D49000440F00100FCF71BFD6BE75A
:103EB00038881A49000440F00100FCF713FD60E760
:103EC00049F6414328460EA9ADF8483005F0B0FF49
:103ED00000283FF42EAF24E7953A0000C13A0000D5
:103EE00000090020CC00002088AB0300B8A9030023
:103EF000893A0000500900204C090020D4AB03008F
:103F00005409002028AC030038090020F13B0000D0
:103F10002CAA0300F4A90300A8AB030008AC03001B
:103F20002DE9F84F440004EB0008DFF87CB14FEABC
:103F3000C8080BEB08038946D96A01298246164650
:103F400043D034D302293CD100F1010A0AEB4A0ADA
:103F50005D6A0BEBCA0A00271DE0126A641BB442BB
:103F60002346A2EB050428BF33469C42DAF804003E
:103F700028BF1C4622462844494634F031FE0BEB4C
:103F8000080325441A6A954208BF0025361B2744BA
:103F9000A1445D6216D00BEB0802936AAB4203F1B9
:103FA000FF34DAD8126A1344013B5C1BD7E79A6AE4
:103FB0005D6AAA429CBF1B6AD218013A521B964204
:103FC00032D900273846BDE8F88F9A6A5D6AAA425E
:103FD00025D9571E1B6A7F1BB74228BF37465E1B79
:103FE000B74241D30AF1010808EB48080BEBC808B7
:103FF000A244D8F804004946324628440BEBCA0BC9
:10400000BD1B34F0EDFDD8F8040009EB06012A468B
:1040100034F0E6FDCBF824503846BDE8F88F1B6A33
:10402000D718013F7F1BD7E704440BEBC40B00F10B
:10403000010ADBF820701C4B7F1BBE420AEB4A0AC8
:1040400025D303EBCA043A46606849462844F51B69
:1040500034F0C6FD09EB070160682A4634F0C0FD64
:104060003746CBF82450ADE70AF1010303EB4303D5
:104070000BEBC303A24458680BEBCA0B2844494618
:104080003A463D4434F0ACFDCBF824509AE703EBBC
:10409000CA034946586832462844354434F0A0FDE6
:1040A0003746CBF824508DE7F8C200202DE9F84FB1
:1040B000314C94F800E00546884617461E46BEF18E
:1040C000000F27D02369DFF8B090AB424FD9002012
:1040D000FDF7AEFE5DB929460D4404EBC5040A9B0D
:1040E000E3620020FDF7ACFE0020BDE8F88F6B1CFA
:1040F000690003EB4303DB004A1909EBC20209EB39
:10410000030E49F803800023CEF804701662536250
:104110009362E1E7194BDFF870B0DFF87090C4F8F4
:1041200028E04FF0100C4FF4007A0222A361A36440
:104130001349C4F824E0C4F82CE0C4F858E0C4F8EB
:1041400054E0C4F85CE0C4F850C0E01DC4F81CB0F2
:10415000C4F820A0C4F84C902261626135F024F9C3
:104160002046084935F020F92023A371AAE74FF033
:10417000FF30BDE8F88F00BFF8C2002030AC03006C
:104180003CAC030040AC030084090020740900200B
:10419000F8B5114C114B124AE3614FF4007E002335
:1041A000104FA36210266362E362A3656365E36553
:1041B0000D49C4F820E00225A261A264E01DE76475
:1041C00026652561656135F0EFF82046074935F031
:1041D000EBF82023A371F8BDF8C200208409002069
:1041E00030AC0300740900203CAC030040AC030079
:1041F0000649074A074B9B1A03DD043BC858D050B9
:10420000FBDC00F013F8FCF729F80000F02D0400A7
:104210000000002000010020FEE7FEE7FEE7FEE7C9
:10422000FEE7FEE7FEE7FEE7FEE7FEE7F0B4624BDF
:104230001B68082B19D0614AD2F8883043F4700308
:10424000C2F88830BFF34F8FBFF36F8F4FF010234A
:10425000D3F80022002A7DDBD3F80432002B79DB6F
:10426000574B584A1A60F0BC7047574B19680029E1
:10427000E1D14FF080404FF08052C0F80C11534B09
:10428000C0F81011C0F83815D2F80414C3F820157E
:10429000D2F80814C3F82415D2F80C14C3F8281562
:1042A000D2F81014C3F82C15D2F81414C3F8301532
:1042B000D2F81814C3F83415D2F81C14C3F84015FA
:1042C000D2F82014C3F84415D2F82414C3F84815C2
:1042D000D2F82814C3F84C15D2F82C14C3F8501592
:1042E000D2F83014C3F85415D2F83414C3F860155A
:1042F000D2F83814C3F86415D2F83C14C3F8681522
:10430000D2F84014C3F86C15D2F84474304D3149DA
:10431000C3F87075304C314E2E60FB23C1F8183550
:104320002368D2F8581205F50F3523F00F0205F572
:104330006D7501F00F0313434FF4007223602A6080
:10434000D0F80034DB077FF576AF6FF00103C0F8DB
:10435000003470E7224B0122C3F80425D3F800246F
:10436000002AFBD04FF0102312221D49C3F800226F
:10437000D1F80034002BFBD04FF010231222184943
:10438000C3F80422D1F80024154B002AFAD00022E9
:10439000C3F80425D3F80024002AFBD0BFF34F8FC5
:1043A0000649104BCA6802F4E0621343CB60BFF3C6
:1043B0004F8F00BFFDE700BF3001001000ED00E0AF
:1043C0000C0000200090D0033401001000C0004019
:1043D0008C56004000F00040E40E0040488103008D
:1043E00000E001400400FA05F0B50746002083B064
:1043F000014621F0FBFE494E494C05F05CF835883A
:10440000206005F0C5FB2D0445F003050246454933
:104410002846FCF717FB3588206805F021FB2D04A2
:1044200045F00305024640492846FCF70BFB20688F
:1044300004F0E5FF10B9BB78002B4ED13A78012A81
:1044400057D0B968002944D17B780BB103B0F0BDD7
:104450002068012105F03BF8206804F0D0FF10B976
:10446000BB78002BF2D02068012105F0A4FB308836
:104470002E49000440F00300FCF734FA3588206828
:1044800005F09AF82D0445F0030502462849284610
:10449000FCF7D8FA3588206805F0D2F82D0445F0ED
:1044A0000305024623492846FCF7CCFA33882068E6
:1044B0001C0405F06EFA204B204A214910F0010F30
:1044C00044F0030418BF1A462046FCF7BBFA03B0B9
:1044D000F0BD206805F026FAB6E70B21206805F04C
:1044E0006FF820684AF6CD3105F0AEF83A78012A27
:1044F000A7D101A8002134F099FB9DF80430206871
:1045000003F0FE0343F0020319468DF8043005F072
:1045100068FA2068796805F0B6F892E7CC000020C8
:10452000840B002048AC030060AC030078AC0300AF
:10453000A0AC0300B8AC0300D4AC0300DCAC0300B7
:10454000E8AC030010B5044C206800F075F8206852
:10455000BDE8104025F00CBA840B002010B5044CC7
:10456000206805F0C4F92068BDE8104021F06DBE58
:10457000840B002008B5034B186805F0C4F900B996
:1045800020BF08BD840B0020014B1868704700BF96
:10459000840B0020034B1B6801461A46184604F0A2
:1045A00090BF00BF840B00200EB410B5A3B025ABA4
:1045B000044653F8042B0193802102A835F088F8B3
:1045C00002A834F00EFF236882B21B68204602A9BD
:1045D000984723B0BDE8104003B07047B0F80636E6
:1045E000B0F80826C3F580618A42CCBFA0F80A164D
:1045F000A0F80A26B0F80A1621B1184400F20620E5
:1046000022F088BA7047000010B50A4B03600446D8
:1046100000F20C6000F074FB0023A4F80432A4F84C
:104620000636A4F80836A4F80A3622F0E1F9204646
:1046300010BD00BF10AD030010B5044C014620466C
:10464000FFF7E2FF024B1C6010BD00BF900B002083
:10465000880B002010B5B0F80432C2180446D27896
:104660000A2A01BF03F1FF339BB2A0F804321B18E2
:1046700004BF00221A71B0F80432C218211DD2788A
:104680000D2A01BF03F1FF339BB2A0F804321B18BF
:1046900004BF00221A7100F20C60B4F80422234611
:1046A00003F03CFB0020A4F8040210BD70B50446E2
:1046B0008E180D46B542294649D20B780A2B05F1D2
:1046C000010507D001D8082B02E00D2B02D07F2B6B
:1046D00016D028E023681E491B682046022298470E
:1046E000B4F804322BB1234400221A712046FFF79C
:1046F000B1FF236817491B68204602229847D9E773
:10470000B4F80432002BD5D0236813491B68032268
:1047100020469847B4F80432013B9BB2A4F8043217
:104720000022234411E0B4F80432B3F5007FC1D273
:10473000236801221B6820469847B4F804325A1CAB
:10474000A4F8042215F8012C23441A71B2E770BDB5
:104750001BAD030000AD030018AD03000A4603497A
:10476000034608681946FFF7A1BF00BF880B002069
:10477000B0F80A360BB9FFF731BF704770B5B0F823
:104780000846C4F58064A4B2944228BF14460D467E
:104790006B1AA3420FDAB0F80826B0F8063615F8FF
:1047A000016B1344C3F309030344013283F8066227
:1047B000A0F80826ECE7FFF7DBFF204670BDB0F855
:1047C0000A16B0F806260A44C2F30902A0F8062623
:1047D000B0F80826521AA0F808260022A0F80A26E7
:1047E000FFF7FCBE014B1868FFF7E9BF880B0020FC
:1047F00038B505460024E86B0C4A0368A2585B688C
:104800000B490C349847B4F53D7FF4D1002495F85A
:1048100038309C4209D2E86B6A6B036852F8342046
:104820005B68034998470134F1E738BD20AD0300C8
:10483000AFC00300D0F8680104F047BED0F86801AB
:1048400004F041BE70B5C56B2B680446D0F8680112
:104850005E6805F054F9054902462846B047E06B0A
:1048600003490368BDE870405B68184786B60300DB
:1048700014B0030070B5C46B2368084611465D6828
:1048800025F078F82B46024602492046BDE87040E4
:10489000184700BFAFC00300C06B024903685B68E4
:1048A000184700BF14B0030070B5044659B9C06B77
:1048B000694903685B689847E06B68490368BDE82D
:1048C00070405B6818471068654934F063FD002844
:1048D00040F0C180D4F8680104F049FF0546E06B60
:1048E0002A6803685F495B689847E06B6A680368F9
:1048F0005D495B689847E06BAA6803685B495B6841
:104900009847E06BEA68036859495B689847E06B31
:104910002A69036857495B689847E06B6A690368CE
:1049200055495B689847E06BAA69036853495B681F
:104930009847E06BEA69036851495B689847E06B08
:104940002A6A03684F495B689847E06B6A6A0368A4
:104950004D495B689847E06BAA6A03684B495B68FE
:104960009847E06BEA6A036849495B689847E06BDF
:104970002A6B036847495B689847E06BAA6B03683A
:1049800045495B689847E06BEA6B036843495B689D
:104990009847E06B2A6C036841495B689847E06B75
:1049A0006A6C03683F495B689847E06BAA6C0368D0
:1049B0003D495B689847E06BEA6C03683B495B687C
:1049C0009847E06B2A6D036839495B689847E06B4C
:1049D0006A6D036837495B689847E06BAA6D0368A6
:1049E00035495B689847E06BEA6D036833495B685B
:1049F0009847E06B2A6E036831495B689847E06B23
:104A00006A6E03682F495B689847E06BAA6E03687B
:104A10002D495B689847E06BEA6E03682B495B6839
:104A20009847E06B2A6F036829495B689847E06BF9
:104A30006A6F036827495B689847E06BAA6F036851
:104A400025495B689847E06BEA6F036823495B6818
:104A5000BDE87040184770BD1BB0030014B00300E0
:104A600021B0030025B0030033B0030047B00300BA
:104A70005DB0030076B0030088B00300A3B003006C
:104A8000B4B00300C9B00300DCB00300F6B003000B
:104A900008B103001AB103002DB1030048B10300AF
:104AA00056B103006AB1030080B1030091B1030065
:104AB000A6B10300B9B10300D3B10300E5B103000F
:104AC00001B203001EB2030035B203004CB2030072
:104AD0006DB203008BB203009EB20300B1B20300BB
:104AE00010B5044605F054F80246E06B044903682B
:104AF0005B6898472046BDE81040FFF7CDBE00BF79
:104B0000AFC0030030B504468BB06946D0F86801E9
:104B100004F059FEE06BBDF8002003682F495B6884
:104B20009847E06BBDF8022003682D495B68984701
:104B3000E06BBDF8042003682A495D68BDF80630C3
:104B4000A847E06BBDF80820036827495D68BDF8F9
:104B50000A30A847E06BBDF80C20036823495D6864
:104B6000BDF80E30A847E06BBDF81020036820495F
:104B70005D68BDF81230A847E06BBDF814200368EB
:104B80001C495D68BDF81630A847E06BBDF81820D9
:104B9000036819495D68BDF81A30A847E06BBDF895
:104BA0001C20036815495D68BDF81E30A847E06BFE
:104BB000BDF82020036812495D68BDF82230A8477F
:104BC000E06B10490368BDF824205D68BDF826300D
:104BD000A8472046FFF760FE0BB030BDC6B2030009
:104BE000D2B20300DDB20300EFB2030001B3030051
:104BF0000EB303001BB3030028B3030056B3030036
:104C000035B303004AB30300F0B504468FB0002566
:104C1000D4F86801E9B209AA05F0AEF800284BD132
:104C20009DF83630DB0745D5BDF82430BDF8287037
:104C3000E06BC3F3072242EA0322BDF82630066880
:104C4000C3F3072141EA0323C7F3072141EA072100
:104C5000BDF82A7089B20091C7F3072141EA072104
:104C6000BDF82C7089B20191C7F3072141EA0721F1
:104C7000BDF82E7089B20291C7F3072141EA0721DE
:104C8000BDF8307089B20391C7F3072141EA0721CB
:104C9000BDF8327089B20491C7F3072141EA0721B8
:104CA00089B20591BDF8341006917668054992B233
:104CB0009BB2B0470135ABE72046FFF7EDFD0FB0E3
:104CC000F0BD00BF64B3030010B50446D0F868011E
:104CD00004F0ADFFE36B1A68526810B1184605493D
:104CE00001E00549184690472046BDE81040FFF70F
:104CF000D3BD00BF83B303008AB3030000BA70477B
:104D000070B50446002520630E46456380F8385090
:104D1000C56329462C22403033F088FF0823A4F8CD
:104D20006C300123A4F86E304FF47A732367184B6C
:104D3000636704F17403E3672946A56784F8EC50C0
:104D4000C4F82C41C4F8686104F18000602233F09B
:104D50006DFF224630460F4904F0B3FB2246D4F8DB
:104D600068010D4904F018FF0C4BC4F8E03004F161
:104D7000E001C4F8E440D4F8680104F092FB04F1C7
:104D8000ED0029463E2233F051FF204670BD00BFA2
:104D90007D700000797E0000E97E0000496F000010
:104DA0002DE9F041074690460C4634F01AFB3D18B9
:104DB00000F001060130B8EB500F03D3384621460E
:104DC000002306E04FF0FF30BDE8F0811B01DBB2AD
:104DD0000126A8421AD210F8012BA2F14107052F93
:104DE00001D8373A04E0A2F16107052F03D8573AFA
:104DF0001343DBB204E0303AD2B2092AE2D81343BB
:104E0000002EE3D00B7000260131D9E7081BBDE866
:104E1000F081000070B50C4619B9BDE87040FFF78D
:104E20003BBDC56B2B6808465E6806F055F9224607
:104E30000346B44628460249BDE87040604700BFBB
:104E4000A5C0030070B505460E4681B9D0F86801CB
:104E500004F0C8FE0446E86B03685B681CB11249A5
:104E6000984731461AE011499847214616E01468E0
:104E70000F49204634F08EFA18B9D5F8680101219F
:104E800007E00C49204634F085FA014628B9D5F8E8
:104E9000680104F0C1FE014600E007212846BDE894
:104EA0007040FFF7B7BF00BF83B303008AB30300AE
:104EB00095D30300D1D3030010B5044603F0A8FF37
:104EC00001462046BDE81040FFF7A4BF10B50446D8
:104ED000D0F86801E36B03F069FD01462046BDE8A8
:104EE0001040FFF797BF000070B505460E4681B928
:104EF000D0F8680104F0F3FA0446E86B03685B68D5
:104F00001CB11249984731461AE011499847214689
:104F100016E014680F49204634F03CFA18B9D5F869
:104F20006801012107E00C49204634F033FA0146BC
:104F300028B9D5F8680104F0CAFA014600E000215A
:104F40002846BDE87040FFF765BF00BF92B303007D
:104F500097B3030063F103009EB3030037B5044623
:104F60006946D0F8680104F0C2FD054608BBE06B55
:104F700013490368009A5B689847E06B114903681E
:104F80009DF804205B689847E06B0F4903689DF823
:104F900005205B689847E06B0C4903689DF8062084
:104FA0005B689847E06B0A4903689DF807205B68D7
:104FB000984720462946FFF72DFF03B030BD00BFBC
:104FC000A3B30300B6B30300CDB30300C6B303001D
:104FD000E0B303007FB50446B1B9D0F8680104F02E
:104FE000D3FE461E00F10F05E06B16F8012F036893
:104FF0000F495B689847AE42F6D1E06B0D490368F4
:105000005B68984700210EE0106869461022FFF7A0
:10501000C7FE102806D16946D4F8680104F0B9FE2D
:10502000014600E006212046FFF7F4FE04B070BD03
:10503000D6E10300D4C0030073B5002304468DF805
:10504000043000292ED1D0F8680104F0A2FC8DF8BC
:105050000400C00704D5E06B2C4903685B689847DF
:105060009DF80430990704D5E06B294903685B6813
:1050700098479DF804305A0704D5E06B254903682A
:105080005B6898479DF804301B0704D5E06B224904
:1050900003685B689847E06B204903685B68984742
:1050A00000212DE011681E461D461846013911F8F1
:1050B000012FA2B16E2A0ED002D8642A09D006E0D0
:1050C000722A02D0732A08D001E00123EFE70621FB
:1050D00016E00125EBE70120E9E70126E7E79DF867
:1050E000041063F3000166F3410165F3820160F38C
:1050F000C301D4F868018DF8041004F072FC014675
:10510000204602B0BDE87040FFF784BED3CA03005A
:1051100018ED0300440604006DCA0300D4C0030068
:10512000F0B5002389B099420446ADF8023040F34F
:105130008D8015684849284634F02CF9B0FA80F67D
:1051400076092EB92846454934F024F978B17DE036
:10515000E06B434903685B689847E06B414903682B
:105160005B68984703E04049BDF81020984701AFBD
:10517000D4F868010DF102013A4604F0ABFC054693
:10518000E06B03685B68002D5CD1002EEBD09DF8CE
:105190001F20364912F0100F14BF432252229847A5
:1051A000E06B33490368BDF810205B689847E06BFB
:1051B00030490368039A5B689847E06B2E4903689F
:1051C0009DF91D205B689847E06B2C4903689DF9A9
:1051D0001E205B689847E06B9DF81F2003682849F4
:1051E0005B6802F001029847E06B9DF81F2003689E
:1051F00023495B68C2F340029847E06B9DF81F208B
:1052000003681F495B68C2F380029847E06B9DF812
:105210001F2003681A495B68C2F3C0029847E06B1D
:10522000184903685B689847E06B7A5D0368164924
:105230005B6801359847082DF6D1E06B1349036888
:105240005B688EE712499847002100E0062120465E
:10525000FFF7E0FD09B0F0BDF7B303000BBB03009F
:10526000FDB3030049B403009FB4030095B40300E9
:105270009DB40300A7B40300AEB40300B5B40300AB
:10528000BCB403000BBA0300D6E10300EBB7030084
:10529000D4C0030010B50446D0F8680104F0A2F8A9
:1052A00001462046BDE81040FFF7B4BDF0B587B019
:1052B00001AF04463946D0F8680104F025FC0646E3
:1052C00000282FD1E06B1A4903685B689847354680
:1052D000E06B7A5D036817495B6801359847082DD4
:1052E000F6D1E06B144903685B689847E06B13499B
:1052F0000368BDF80C205B689847E06B10490368B1
:105300009DF811205B689847E06B0E4903689DF893
:1053100012205B689847E06B0B4903689DF81320E7
:105320005B68984720463146FFF774FD07B0F0BD33
:10533000C1B40300D6E10300D4C00300CCB4030021
:10534000D7B40300EDB4030004B5030038B5044638
:105350000D4681B9D0F8680104F0F6F970B3D4F8BD
:10536000680121F067F848B3E06B1A4903685B688D
:105370009847294628E015681749284634F00AF866
:1053800048B9D4F868011549224604F0D8F9D4F890
:10539000680101210EE02846114933F0FBFF054664
:1053A00088B9D4F8680129462A4604F0C8F9D4F827
:1053B0006801294604F0CDF9014605E0E06B094992
:1053C00003685B68984700212046BDE83840FFF736
:1053D00021BD00BF1DB503000EB50300A57100007F
:1053E00015B5030075BA030070B505460E4679B9C8
:1053F000D0F8680104F03DFC0446E86B03685B6884
:105400001CB11249984731461BE0114998470BE0FF
:1054100016681049304633F0BDFF044630B9D5F860
:105420006801012104F02AFC21460AE030460A49BD
:1054300033F0B0FF044618B9D5F868012146F1E70A
:1054400006212846BDE87040FFF7E4BC1DB5030007
:1054500075BA03000EB5030015B5030038B5044650
:1054600000292BD1D0F8680104F03DFBE36B042840
:105470001DD8DFE800F003080D1217001A6827494D
:105480005268184617E01A6825495268184612E013
:105490001A682449526818460DE01A682249526871
:1054A000184608E01A6821495268184603E01A684D
:1054B0001F4952681846904700212AE015681D4987
:1054C000284633F067FF20B9D4F8680104F0F7FAF2
:1054D0001CE02846184933F05DFF20B9D4F8680174
:1054E00004F0F2FA12E02846144933F053FF20B9D1
:1054F000D4F8680104F000FC08E02846104933F0B5
:1055000049FF28B9D4F8680104F008FC014600E01E
:1055100006212046BDE83840FFF77CBC27B50300D4
:1055200032B503003DB5030045B503004EB5030099
:1055300057B5030067B503004DCD030070B50300F8
:1055400077B50300002938B5044615DD15680D4907
:10555000284633F01FFF18B9D4F86801012107E08D
:105560000949284633F016FF014628B9D4F86801E6
:1055700004F021FB014600E006212046BDE838404A
:10558000FFF748BCD9BB03007EB5030010B5044645
:1055900000F5967003F08AFD01462046BDE81040F4
:1055A000FFF738BCF0B50F1E87B00546164626DD5E
:1055B00014681749204633F0EDFEB0B9012F1ED014
:1055C000144B0093144B0193022F4FF00004134B24
:1055D00003930CBF0246B26802940495D5F86801A3
:1055E00071680F4B03F0C3FF0BE020460D4933F009
:1055F000D1FE30B9D5F8680103F0C1FF01E0062102
:1056000000E00021284607B0BDE8F040FFF702BCEB
:10561000D9BB03008EB5030097B50300497800009D
:1056200083B503007EB503007FB50446B1B9D0F859
:10563000680104F0EEF9461E00F10F05E06B16F864
:10564000012F03680F495B689847AE42F6D1E06BC3
:105650000D4903685B68984700210EE010686946B1
:105660001022FFF79DFB102806D16946D4F8680187
:1056700004F0D4F9014600E006212046FFF7CAFBFA
:1056800004B070BDD6E10300D4C0030070B5054678
:105690000C46D0F8680151B904F0E2F90346E86B12
:1056A0000749026856681022B047214603E0116896
:1056B00004F0DAF901462846BDE87040FFF7AABBBE
:1056C000A6B50300F8B507460D4616460C46631B03
:1056D000B34207DAF86B0449036814F8012B5B68DE
:1056E0009847F4E7F8BD00BFD6E1030037B505469B
:1056F0000C4681B9D0F86801694603F096FF284648
:1057000069460822FFF7DEFFE86B064903685B681D
:105710009847214600E006212846FFF77BFB03B0AF
:1057200030BD00BFD4C0030037B505460C4681B973
:105730006946D0F8680103F027FF28466946082229
:10574000FFF7C0FFE86B064903685B68984721468E
:1057500000E006212846FFF75DFB03B030BD00BF27
:10576000D4C0030037B505460C4679B9D0F86801B6
:1057700003F041FF082201462846FFF7A3FFE86B2C
:105780000C4903685B68984721460EE0106869463B
:105790000822FFF705FB002801DA062105E069462B
:1057A000D5F8680103F02AFF01462846FFF732FBCF
:1057B00003B030BDD4C0030037B505460C4679B9F7
:1057C000D0F8680104F0B3F8082201462846FFF734
:1057D00079FFE86B0C4903685B68984721460EE047
:1057E000106869460822FFF7DBFA002801DA062173
:1057F00005E06946D5F8680104F09DF801462846A1
:10580000FFF708FB03B030BDD4C0030013B500227E
:105810000C4601A933F09AFE019B20601B78002BF7
:1058200014BF0620002002B010BD0000F7B50546E9
:105830000C4661B9C66BD0F8680133685F6803F045
:10584000BBFE0C4902463046B84721460CE001A990
:105850001068FFF7DBFF014630B99DF80410D5F85A
:10586000680103F0ADFE01462846FFF7D3FA03B006
:10587000F0BD00BF7BB603002DE9F04100298AB0DE
:10588000044640F31B8115689049284633F082FD99
:10589000B0FA80F676092EB928468D4933F07AFDA4
:1058A00050B187E0E06B8B4903685B689847E06B19
:1058B000894903685B68984700270DF10808D4F808
:1058C0006801F9B2424604F047FA054640B117288C
:1058D0006ED0E06B814903685B6898470025EEE075
:1058E000049B002B64D0E06BBDF81A2003685B6852
:1058F000002E5BD07A499847E06B7A490368BDF87F
:1059000018205B689847E06B77490368049A5B68E6
:105910009847E06B74490368059A5B689847E06BA9
:10592000724903689DF81D205B689847E06B7049D9
:1059300003689DF81C205B689847E06B9DF8202069
:1059400003686C495B6802F001029847E06B9DF8C0
:105950002020036867495B68C2F340029847E06B08
:105960009DF82020036863495B68C2F38002984772
:10597000E06B9DF8202003685E495B68C2F3C002BB
:105980009847E06B5C4903685B689847E06B18F8E0
:105990000520036859495B6801359847082DF5D102
:1059A000E06B574903685B68984701E055499847A1
:1059B000013782E7284601A9FFF728FF054600289E
:1059C0007DD102AFD4F86801BDF804103A4604F066
:1059D000BBF90546002872D1E06B4B490368BDF85E
:1059E0001A205B689847E06B48490368BDF81820A7
:1059F0005B689847E06B464903685B6898472E46AA
:105A0000E06BBA5D03683D495B6801369847082E34
:105A1000F6D1E06B314903685B689847E06B3D491C
:105A200003685B6898479DF82030D80704D5E06B81
:105A3000394903685B6898479DF82030990704D579
:105A4000E06B364903685B6898479DF820305A0739
:105A500004D5E06B324903685B6898479DF82030B5
:105A60001B0704D5E06B2F4903685B689847E06B20
:105A70001A4903685B689847E06B9DF81C2003682F
:105A800029495B689847E06B049A036827495B687B
:105A90009847E06B059A036825495B689847E06B77
:105AA0009DF81D20036823495B689847E06B2249F5
:105AB00003689DF91E205B68984700E00625204694
:105AC0002946FFF7A7F90AB0BDE8F081F7B3030054
:105AD0000BBB0300ADB5030004B60300D4C0030044
