:020000040000FA
:10000000A0240020150200001D0200001F020000B5
:100010002102000023020000250200000000000071
:1000200000000000000000000000000027020000A7
:1000300029020000000000002B0200002D02000039
:10004000010700002F0200002F0200002F02000015
:100050002F020000B9040000450300002F02000039
:100060002F0200002F0200002F0200002F020000CC
:100070002F0200002F0200002F0200002F020000BC
:100080002F020000590700002F0200002F0200007D
:100090007D0700002F0200002F0200002F02000049
:1000A0002F0200002F0200002F0200007D0A000036
:1000B0002F0200002F0200000000000000000000DE
:1000C0002F0200002F0200002F0200002F0200006C
:1000D0002F0200002F0200002F020000000000008D
:1000E0000000000000000000000000000000000010
:1000F0000000000000000000000000000000000000
:1001000000000000000000000000000000000000EF
:1001100000000000000000000000000000000000DF
:1001200000000000000000000000000000000000CF
:1001300000000000000000000000000000000000BF
:1001400000000000000000000000000000000000AF
:10015000000000000000000000000000000000009F
:10016000000000000000000000000000000000008F
:10017000000000000000000000000000000000007F
:10018000000000000000000000000000000000006F
:10019000000000000000000000000000000000005F
:1001A000000000000000000000000000000000004F
:1001B000000000000000000000000000000000003F
:1001C000000000000000000000000000000000002F
:1001D000000000000000000000000000000000001F
:1001E000000000000000000000000000000000000F
:1001F00000000000000000000000000000000000FF
:10020000DFF80CD000F08CF8004800476D1A0000B1
:10021000A02400200648804706480047FEE7FEE786
:10022000FEE7FEE7FEE7FEE7FEE7FEE7FEE7FEE7A6
:1002300081070000010200002DE9F05F0546002063
:1002400092469B4688460646814640241BE0284647
:1002500041464746224600F053F853465A46C01AD4
:10026000914110D311461846224600F016F82D1A77
:1002700067EB01084F4622460120002100F00DF8EF
:1002800017EB00094E41201EA4F10104DFDC4846B3
:1002900031462A464346BDE8F09F202A04DB203A37
:1002A00000FA02F1002070479140C2F1200320FAC9
:1002B00003F319439040704740EA01039B0703D0C2
:1002C00009E008C9121F08C0042AFAD203E011F895
:1002D000013B00F8013B521EF9D27047D2B201E057
:1002E00000F8012B491EFBD270470022F6E710B53B
:1002F00013460A4604461946FFF7F0FF204610BD94
:10030000202A04DB203A21FA02F00021704721FA6A
:1003100002F3D040C2F120029140084319467047D1
:10032000064C074D06E0E06840F0010394E8070042
:1003300098471034AC42F6D3FFF766FF502900000F
:10034000702900002DE9F04700268CB0DFF860919D
:10035000B0464FF48075012437460696284602F0D1
:10036000FFF838B1D9F80403204203D0284602F040
:10037000EDF826432D1D64007F1CADB2082FEDD390
:100380004FF4BE74204602F0EBF848B1204602F06C
:10039000DDF846F0004606AA0121002002F0C2F86E
:1003A000444D16F0FF0F15D00127002437420DD021
:1003B00009EB8401D1F81005D1F81015C0F3042021
:1003C00055F82420C1F3014102B190477F00641C1D
:1003D000082CEBD3002E67DA4FF0FF30CDE9088010
:1003E00000263446281910F8507F90F9000027F0B5
:1003F000C008401C44D009A9404601F049FE58B34A
:100400004FEA9719404600F0B3FE55F820701FB12F
:10041000B9F1030F03D00FE0B9F1030F30D108A8F1
:100420004FEAD80208F00703815C4FF0010C0CFA88
:1004300003FC41EA0C0181544FF0A04101EB88001C
:10044000D0F8000706A9C0F3014A404601F020FE9B
:1004500018B1BAF1020F03D012E0BAF1030F0FD1B5
:10046000B9F1030F08D1BAF1020F1BD002214046A7
:1004700002F03CF8761CF6B217B149464046B84740
:10048000641C042CAED3002E0ED06A46012100203D
:1004900002F048F806990098884205D0069008981E
:1004A00009909DE70321E2E70CB0BDE8F08700006A
:1004B000006000401C0200202DE9F05F5D4CD4F884
:1004C00004015D4D012690B1D4F8000380070ED5DC
:1004D0005A4802F055F8687840B905F1100001F06B
:1004E00057FE5748C66006600020A8606E70D4F8BA
:1004F0001801544F08B3D4F8000340061DD55248E4
:100500000068C0F3C800A0F102084C48143002F0A3
:1005100037F83878302803D0387850280BD00BE0E3
:10052000D5F804C0BCF1000F07D04346454A02216C
:10053000E868E04701E02E70E661D4F81001DFF8CA
:1005400008A14FF0100BAAF1140AD0B1D4F800039F
:10055000C00616D539480C3002F012F8C4F808B3BA
:10056000CAF800700AF10401C1F800B0E661D5F8DC
:1005700004C0BCF1000F04D000231A460321E86830
:10058000E047D4F84C01DFF8C4904FF00D0838B3C1
:10059000D4F80003000323D52848483001F0F0FFC9
:1005A0002648143001F0ECFF2448243001F0E8FF25
:1005B000CAF8007024491039C1F800B0E6614FF460
:1005C0008860C4F8040321490831C1F80080C9F8E3
:1005D00000806F6827B100231A461946E868B847BB
:1005E000D4F8280160B1D4F80003400508D5174FAE
:1005F000083738681148243001F0C2FFC7F800807E
:10060000D4F81C01002813D0D4F8000300060FD53D
:10061000D9F800704C460948183001F0B1FFF807CE
:1006200004D0287810B1266000202870C4F800801B
:10063000BDE8F09F005000405400002004510040ED
:1006400000B0014014040020245500400454004030
:1006500000F01F02012191404009800000F1E020DC
:10066000C0F88012704700F01F020121914040093C
:10067000800000F1E020C0F88012704700F01F02F7
:10068000012191404009800000F1E020C0F80011F4
:10069000704700F01F02012191404009800000F1E5
:1006A000E020C0F80011704700F01F0201219140C6
:1006B0004009800000F1E020C0F8001270474907AF
:1006C000090E002806DA00F00F0000F1E02080F8A3
:1006D000141D704700F1E02080F8001470474907AE
:1006E000090E002806DA00F00F0000F1E02080F883
:1006F000141D704700F1E02080F8001470470000DE
:100700002DE9F0414FF48077384601F0C9FC01240F
:10071000104EA50748B1384601F0C9FC0120C5F8C4
:1007200008037470002000F02BFD4FF482773846E8
:1007300001F0B6FC00280BD0384601F0B8FC0220CE
:10074000C5F80803B470BDE8F041012000F018BD01
:10075000BDE8F0810802002007480021C0F84011E0
:10076000C0F84411C0F84811C0F84C11C0F800118D
:10077000C0F8041102F04AB80010014001F098BF1F
:10078000F0B5AE480023021D01780125101D4FF081
:10079000805406290BD11678360708D10678C6F39F
:1007A0000316032E06D0042E04D0052E02D00629EF
:1007B00007D00EE0B4F82463A14FC6F304263E60D0
:1007C00002E01678360704D10678C6F30316032E26
:1007D00002D0062904D00FE09B4F9A4E7E670EE0B0
:1007E0001678360708D10678C6F30316032E06D00E
:1007F000042E04D0052E02D0062907D00EE0D4F82E
:100800004462924FC6F342363E6002E016783607E5
:1008100004D10678C6F30316032E02D0062906D0AB
:1008200011E08B4E376827F0807737600EE016783E
:10083000360708D10678C6F30316032E06D0042E19
:1008400004D0052E02D006290AD011E04FF08046D0
:10085000C6F80C31C6F810317C4E361F336002E00A
:100860001678360704D10678C6F30316032E02D095
:10087000062905D00CE0754F032664373E600AE078
:100880001678360704D10678C6F30316032E02D075
:1008900006290DD014E06F4F05263E606D4E783668
:1008A00035606C4E083633603F263F1D3E6002E0E7
:1008B0001678360704D10678C6F30316052E02D043
:1008C000062957D062E0644E3668644F3E60624E3F
:1008D000361D36683F1D3E605F4E083636683F1D48
:1008E0003E605D4E0C3636683F1D3E605A4E1036F7
:1008F00036683F1D3E60584E143636683F1D3E60D8
:10090000554E18363668554F20373E60524E1C36CD
:1009100036683F1D3E60504E203636683F1D3E60B3
:100920004D4E243636683F1D3E604B4E28363668A5
:100930003F1D3E60484E2C3636683F1D3E60464E99
:1009400030363668454F40373E60434E3436366861
:100950003F1D3E60404E383636683F1D3E603E4E7D
:100960003C3636683F1D3E603B4E403636683F1D84
:100970003E6002E01678360708D10678C6F3031603
:10098000032E06D0042E04D0052E02D0062907D04F
:1009900019E0D4F85812324A01F04F01116002E018
:1009A000117809070FD10078C0F30310032803D092
:1009B000042801D0052806D12A480168C90702D0B9
:1009C0006FF00101016022487438016841F4700140
:1009D0000160BFF34F8FBFF36F8F4FF01021D1F83D
:1009E0000002002803DBD1F80402002822DA1E4AA4
:1009F00015601E480468002CFCD01524C1F8004284
:100A00000568002DFCD0C1F8044201680029FCD023
:100A1000136001680029FCD0BFF34F8F0C48F038F9
:100A20000168134A01F4E06111430160BFF34F8F85
:100A300000BFFDE710490F480860F0BDE00F00F06F
:100A4000403501400DF0ADBA00C007403C05004004
:100A5000FCED00E0105600400404001020C50040EA
:100A6000E40E00400004004004E5014000E40140C1
:100A70000400FA050090D0036C00002010B500F0CF
:100A8000FFFC02490020C1F8400110BD00B0014048
:100A900002E008C8121F08C1002AFAD17047704747
:100AA000002001E001C1121F002AFBD17047022083
:100AB00000F012B970B50024064D06E06868012107
:100AC00010F8340001F0FEFB641C28788442F5D352
:100AD000002070BD18000020F8B515460C460646EB
:100AE000052A01D20720F8BD01F0D2FC18B901F0A7
:100AF000A1FC0028F7D1114900224E600C708D60D6
:100B0000C1E90422C1E906220D4D0DE006EBC40047
:100B10006968009181788DF801100078094A69466A
:100B200001F022FC0028DED1641EE4B2EED2BDE862
:100B3000F840054A0021024800F02CB818000020B7
:100B400014290000451300005512000009480068F0
:100B5000C00700D000BEBFF34F8F0648E4380168DD
:100B6000054A01F4E06111430160BFF34F8F00BFFC
:100B7000FDE70000F0ED00E00400FA050EB50021ED
:100B80000091CDE901106A4644F20100FFF7DEFF53
:100B90000EBD0000074B9B7823B12AB120B100683D
:100BA000037C1BB1082070470720704741744261E5
:100BB000002070479402002070B501F05BFD1048E2
:100BC00000240B21047044700E4D817014206C6061
:100BD0002C706C70FFF73CFD07211420FFF76FFDB0
:100BE0001420FFF74BFD0848046007211120FFF790
:100BF00066FD0548001F0068A860002070BD000069
:100C00009402002038000020081501402DE9F84327
:100C1000DFF8709099F802305BB350B3052902D227
:100C20000720BDE8F88343691BB3437C012B22D026
:100C300000270446002588461646284600F036F868
:100C4000684601F01DFEC0B1012101700E494460EB
:100C50000968C0E90218C0E904769DF8000089F827
:100C60000100002000F024F81420FFF71DFD2846A5
:100C7000D7E70820D5E70F46DBE70425002000F082
:100C800017F8F4E79402002004150140064989781A
:100C900039B130B1416921B100210174022101F063
:100CA00095BD0820704700009402002000F002B8B3
:100CB00000F008B872B602480168491C016070472C
:100CC0004C00002003490868401E086000D162B64D
:100CD000704700004C00002007490B5C4FF0A0411A
:100CE000D1F804250120984020EA0203C1F8083514
:100CF0001040C1F80C057047DC2800000249085C70
:100D0000012101F004BC0000DC2800000249085C5D
:100D1000002101F0FCBB0000DC2800000649095C52
:100D20004FF0A040D0F80405C84010F0010000D0FA
:100D3000012080F001007047DC2800007CB5002411
:100D4000084E25460122305D00950023114601958D
:100D500001F0A8FB641C042CF4D3BDE87C4000F037
:100D600003B80000DC28000010B500242046FFF77F
:100D7000C5FF641C042CF9D310BD10B50024204617
:100D8000FFF7C4FF641C042CF9D310BD10B5024654
:100D9000064B4FF0FF3000215C5C944201D10846C5
:100DA00010BD491C0429F7D310BD0000E028000045
:100DB0002DE9F0470D468146FFF7E8FF0446042879
:100DC00036D2DFF874801B481C4EA8F10C0725B3FF
:100DD000012D0ED0022D2BD104EB44003044457878
:100DE000002D25D0B968002922D02846BDE8F0475B
:100DF000084704EB4401755C0E44717849B10E4A12
:100E00004FF40041093A8068FFF700FF08B987F8FE
:100E10000390B17808F80410E2E78068FFF736FF26
:100E200004EB4401314418F804008D78A842D7D06F
:100E3000BDE8F087E428000014000020DC01002059
:100E400070B50023042810D20D4D00EB4004012A98
:100E500002D101290CD00022094E00EB40003044A1
:100E600061B1012906D0022906D00723184670BDBA
:100E70000E30C2B22A55F9E74270F7E78270F5E703
:100E8000DC0100200B490E2808D00F2809D01028BB
:100E90000DD011280AD14FF4801004E04FF4003037
:100EA00001E04FF4802048600120087070474FF443
:100EB0000020F8E70000002070B506461E48002418
:100EC000C0E90161B00720D500250122114628465E
:100ED000FFF7B6FF6D1C0446042D02D2002CF4D09F
:100EE00013E094B940F2666204211448FFF7F4FD60
:100EF00004000AD1FFF7DEFD040006D10F48104AB6
:100F00000021001FFFF746FE0446F00701D0FFF75F
:100F100015FF74B909480B4A00210C38FFF73AFE57
:100F2000040006D10548084A01210838FFF732FEBF
:100F30000446204670BD000008000020F028000094
:100F400005110000A5180000AF0A00002DE9F05FB0
:100F50006A4C054600266078B34618B184F801B0A3
:100F600000F088FC664F4FF47A694FF4C87A4FF06E
:100F70000108182D62D2DFE805F0AC0C0C31404DB1
:100F800062676B746B74BE7D7D7D7D7DACAFB2B5E9
:100F9000BEBE0020FFF7C2FE00284FF0000008D0C0
:100FA000FFF7ACFE022D02D14FF4E16008E04846A5
:100FB00006E0FFF7ABFE022D01D1C82000E050464D
:100FC000410CC0034FF4FA72801841F10001257002
:100FD00052000023FFF730F901462AE00020FFF716
:100FE0009DFE00284FF0000004D0FFF787FE4FF46D
:100FF0004870E5E7FFF78AFEDFE70020FFF78EFE87
:1010000000284FF0000002D0FFF778FECFE7FFF78F
:101010007DFED4E70020FFF781FE00284FF000009E
:1010200002D0FFF76BFE01E0FFF770FE257041F67E
:101030009A1100223868FFF7E9FD064646E00020D5
:10104000FFF74AFE257008E0002051E025703DE0E2
:1010500084F801800120FFF73FFE002240F6CD41D9
:10106000E8E784F801800120FFF736FE00224FF404
:101070008041DFE77868FFF709FE0646D5F11100E9
:1010800000D02EB10220FFF739FE84F802B01DE037
:10109000012816D980B2C8214843C117C90341EAC3
:1010A0005041C0034FF4FA72801841F10001520020
:1010B0000023FFF7C1F8014600227868FFF7A6FD7C
:1010C00006460220FFF722FE84F802803046BDE883
:1010D000F09F00F0CFFBB9E700F0CCFBB4E700F0E5
:1010E000C9FB04E000F0C6FB0020FFF70FFE012063
:1010F000FFF70CFEAAE7FFF740FEA7E70800002075
:10110000E428000000780221FFF752BE05494FF0A5
:10111000FF32082841F8202002D3084480F84820F4
:10112000704700001C020020F0B54FF0FF3512B1EF
:101130000023082601E008230C260C4C05E000BF24
:1011400054F823707F1C04D05B1CB342F8D32846AC
:10115000F0BD26185DB286F8305044F82310002AFE
:10116000F5D1E11881F84800F1E700001C020020E9
:101170000249084490F93000704700001C0200202A
:1011800070B5084C050009D010342168002907D03B
:1011900008682060496828468847F6E70834F4E77D
:1011A00070BD0000080200202DE9F05F264841686C
:1011B000F1B3DFF898B00E688146DBF8004087682D
:1011C0008078E11B21F07F45ED1CB0B9DFF880800D
:1011D0004FF48030C8F84403C8F804031120FFF727
:1011E00037FA1120FFF74AFA4FF0010AC8F800A0B9
:1011F0002F2000F073FF89F802A0B54200D23546D7
:10120000124BE8193C3320F07F401860DBF80010E7
:101210005A46091B21F07F41001B20F07F40C91C6A
:1012200081420FD9106818602F2000F057FF00E0AE
:1012300004E0BDE8F05F1120FFF736BABDE8F05FCB
:1012400001F018BABDE8F09F3800002004150140F5
:10125000001001402DE9F05F0025DFF8A48043E095
:101260006068002100EBC506012032789146FFF747
:1012700014F8D4E9062300EA020701EA030C57EA4E
:101280000C072FD0C7433A408B434846C4E9062396
:1012900001F0C6F832784FF0000A814693460120EB
:1012A0005146FEF7FAFFD4E9042300EA020401EAFA
:1012B00003075A4648465146FEF7EFFF44404F4069
:1012C0003C430FD17078012815D0002289EA020032
:1012D0008AEAE271084310D00020726812B1C1B2EC
:1012E000584690476D1CEDB298F800004446854280
:1012F000B6D3BDE8F09F0122E8E70120EDE700004A
:10130000180000200E4910B50A784C780023A2423C
:1013100012D0521CD2B20A70022A00D10B70084AB5
:101320000B780C3252F8232002608868104420F0B9
:101330007F408860012010BD0360002010BD0000C8
:10134000380000202DE9F0418046024601200021AE
:10135000FEF7A3FF1A4F05460E463868FFF796FCC6
:1013600000280CD1174CD4E9062110462A4001EA86
:1013700006031A4305D0A843B143C4E90601BDE8FA
:10138000F081404601F04CF830B1D4E90401284323
:101390003143C4E9040105E0D4E90410A943B04392
:1013A000C4E90410D4E9060128433143C4E9060125
:1013B000A1683868BDE8F0410022FFF727BC0000B3
:1013C000142900001800002070B5254CA0421ED141
:1013D000F1B1012936D0022928D0032917D10720DD
:1013E00000F0C8FB002812D194F8680094F8691046
:1013F00088420CD194F86A00002808D10023D4E96F
:1014000001501A460321A847012084F86A0070BDE4
:10141000052000F0AFFB0028F9D1A0686468002324
:10142000A446BDE870401A460121604710461900E5
:10143000EDD00028EBD00278302AE8D1BDE870402A
:1014400000F0B8BB082000F095FB28B9A068002385
:1014500064681A460221A047BDE8704000F044BC11
:101460003004002004480221C0F804130349C0F8E6
:10147000041300F09DB800000050004080000800F8
:1014800070B513480068134C10F0030F4FF00005BF
:1014900001D0A56070BDA068401CA0600728F9D9E4
:1014A0000D480126066100F05FFEBFF35F8F0B4819
:1014B0000560BFF35F8F0660666826B100231A4699
:1014C0000121E068B0476570BDE87040FFF7CABF12
:1014D0003C5400405400002000B00140FC5F00403C
:1014E000FEB5224887780A2F23D0214A0324072FEC
:1014F000167855789378D1788DF800608DF8015082
:1015000086EA05008DF802301AD04B4058408DF81D
:1015100003108DF80400FF2204210DF10500FEF7F1
:10152000DDFE00BF8DF809400A21684600F016FD77
:10153000FEBD03B00A21BDE8F0400D4800F00EBD2D
:1015400083F0880358408DF803008DF80410137958
:101550008DF8053050798DF8060092795940504049
:1015600041408DF807208DF80810DBE7540000207B
:10157000240400200C4810B50268001D0168001DFD
:1015800003680A48140A02704470120C8270C17019
:101590000A0A02710A0C4271090E8171C371190A9B
:1015A0000172190C417210BD500400102404002077
:1015B0001B491A48897804292BD007292BD010F809
:1015C000011B10F8012B090441EA022110F8012B3C
:1015D0001143144A1160022110F8012B10F8013B4D
:1015E000120442EA032210F8013B1A430D4B1B1F61
:1015F0001A600268C07812BA22F0FF02024309485A
:1016000008380260042000EB8110064908310860A8
:1016100070470021EDE70121DEE7000024040020EF
:10162000540000209855004070B50C00054613D0BA
:101630000A4800F0A5FF0A480560094940F6FF7016
:101640000C3100EAC400086006481021C0F80413F9
:101650000121C160002070BD0C2070BD1051004000
:10166000105500400050004070B51D4AD1605060D8
:10167000907818B907209070FFF77CFFFFF7F2FE13
:10168000FFF72EFF1648174910300024C0E900412B
:1016900000F0AAFD054614480460001D04601249CC
:1016A00004200C310860104964203C3108600F4868
:1016B0000121C0F800120904C0F804131B20FEF732
:1016C000D2FF07211B20FFF70AF81B20FEF7E1FFDE
:1016D0001DB1852D01D0032070BD002070BD00001C
:1016E000540000207125000004B5014000B0014005
:1016F000094910B50D2008600849012088600520BF
:10170000FEF7B1FF07210520FEF7E9FF0520FEF7F0
:10171000C0FF002010BD00000454004000500040F5
:10172000054910B501200860012000F0C9FC00281F
:10173000FAD10249487010BD0400004008020020A0
:101740000268134602E08A4204D01268002AFAD1E5
:101750000B600160704700002DE9F04104464078BD
:10176000D8B3A178884238D9E078B0B3E068A0B3A4
:1017700054211B48FEF7B9FD1948142221460C30AC
:10178000FEF79AFD164D0126174A6E70A078E17893
:101790000844A88000202870E068A860287B85F8AD
:1017A0002000E068A86220696862FF2085F82100B7
:1017B0000C4805F12001E86201F11000074600F035
:1017C000FFF800280AD1AE70A078E1780844C1B2D1
:1017D0003846BDE8F04100F0EBB80720BDE8F081E5
:1017E000A00300201C290000ED17000070B5194966
:1017F00019480A68002A2ADC02464478D37B92887A
:1018000064B1447BE51A954206DC00224270848074
:1018100042690BE0521D0BE0D1180CE0847BE51807
:10182000954207D30122427084800269002AF1D1D7
:101830000A6001E0D11A818001790748303000F058
:10184000B7F8002805D0BDE87040FFF797B9FF3A18
:10185000EEE770BD50000020A003002001460148C3
:1018600000F0DCB8D0030020014800F0EDB8000023
:10187000D00300200A4810B5807860B1002401E050
:10188000022C06D02046FFF739FA641C042CF7D34B
:1018900010BD0324F6E7BDE81040FFF765BA00006D
:1018A0000800002003480179C90702D00078FFF73B
:1018B0004DBB7047080000202DE9F047394E002746
:1018C00080463D46DFF8E090D6F804A057E003D00C
:1018D0000446D0F81C8035E099F8002002EB420164
:1018E000521CD2B289F8002009EBC10199F80230EC
:1018F000091D9A4201D189F8005048680A780446C7
:10190000012A12D0022A02D0032A3BD108E000F0BB
:101910002DFF00B10127257434E00574C06900E093
:1019200070680028F9D170602CE0207C50BB88687A
:101930006060C868A0600869E0604869A061F078EC
:1019400000B165606268B168184B501A20F07F40A2
:10195000984202D2A168084406E0881AA16820F0E3
:101960007F40814202D9081A206000E0256065604E
:101970000120A56020742046E56100F0D9FEB8F191
:101980000000A4D199F8001099F801008142A3D178
:1019900017B97168514502D00120BDE8F0870020D9
:1019A000FBE700003800002094020020FFFF7F00CA
:1019B00082788A4201D207207047C17000207047A8
:1019C00070B58261044608788E6820708868A060CF
:1019D0008868E060486820624878A070C868002580
:1019E0000D4A2946E061FFF7D5F8002812D14FF0E3
:1019F000A041032046B1F20703D001EB8502C2F8F3
:101A0000000776086D1CF5E7204600F0D7FD0120A1
:101A10002071002070BD0000ED25000070B5044667
:101A2000022020710D462046E16000F0C7FDA0684D
:101A30002843A06000202075A569A061204600F021
:101A4000D5FD0020A56170BD70B50446C069006871
:101A5000FFF71CF90546204600F0B0FD0DB1284601
:101A600070BD01202071002070BD000086B000F024
:101A7000BBFB08B1FFF782F8002000F0D7FBFFF7AF
:101A80009BF808B1FFF77AF814221F496846FEF761
:101A900013FC4FF40040019040100290C8208DF8D4
:101AA000010004208DF8020001208DF80300684633
:101AB000FFF752FE08B1FFF761F814490220FFF763
:101AC000FBF908B1FFF75AF800F076F9104C4FF423
:101AD000003060606068FFF7C1FE08B1FFF74EF8A4
:101AE000002520BF20780028FBD02570FFF7BCFE22
:101AF00008B1FFF743F86068FFF7B0FE0028F0D0A8
:101B0000FFF73CF8EDE70000C8280000850E000054
:101B10000000002010B51C46934200D9144622460E
:101B2000FEF7CAFB204610BD10B51C46934200D9F3
:101B300014460A462146FEF7D1FB204610BD0000A0
:101B40000B4900F1100213464A610A6913448B6184
:101B500028B14FF47C73CB614FF4806301E0002324
:101B6000CB61C01C104480080B6281F8690070478B
:101B70003004002070B50D4D0D4A00212C7800BFB7
:101B800001EB4103D65CA6420AD113445B78834241
:101B900006D101EB4100104480782870002070BD10
:101BA000491C0E29ECD3082070BD00003004002031
:101BB0007000002070B50446022920D10620FFF7EE
:101BC000D9FF00281BD10E4964784B69A20020463A
:101BD000934208D88D69103D954204D3C968C3EB80
:101BE0008400084403E000F017F80548383010215D
:101BF000FFF71AFD2046BDE8704000F099B870BDAF
:101C000030040020034902684A6242688A620089FF
:101C100088857047300400202DE9F041264F84006C
:101C2000102529463846FEF760FBA7F13806706993
:101C3000A0420BD9021B31192B4638462431FFF73D
:101C400069FFD0F110050444074432D0B069A042C6
:101C50000CD970693169201A0A1AF1682B460144BF
:101C60003846FFF757FF2D1A04440744002D20D0B3
:101C7000F069A04209D9021B2B4600213846FFF724
:101C800053FF2D1A0444074413D0306AA04208D9E8
:101C9000021B2B46FF213846FFF746FF2D1A07444B
:101CA00007D02B463846BDE8F0411A460021FFF721
:101CB0003BBFBDE8F08100006804002070B50C4611
:101CC0000546914201D90C2070BD0120FFF752FF5B
:101CD00008B1082070BD05B900240248C0E90354CA
:101CE000002070BD3004002070B5002103230A4697
:101CF0000C460E4801260CE006FA03F50D43E9B246
:101D00005B1E05D5831883F8481007230021521C59
:101D1000641C90F86950A542EEDC024482F8481039
:101D2000002100F8681F817070BD000030040020A1
:101D3000F0B5C208514200EBC1010024124BC1F1C1
:101D400007010125042813D305FA01F603EB020C61
:101D5000F7B29CF848603E4204D0BE438CF848601D
:101D60002E4600E0002693F868703E4483F86860D1
:101D7000491E01D50721521C401C10F0FF0002D063
:101D8000641C042CDEDBF0BD3004002010B50129FA
:101D900009D002290DD1FEF7E7FF06484068BDE8EB
:101DA0001040FFF75BBDFFF75FFDBDE81040FEF799
:101DB000E4BF10BD000000201CB54FF480700190FE
:101DC00000210F4800F0F8F808B1FEF7D7FE01A88F
:101DD00000900C4B18220C49012000F017F908B1B3
:101DE000FEF7CCFE0748019900F0C6F808B1FEF7EF
:101DF000C5FE00F0A8F8002801D0FEF7BFFE1CBD0C
:101E00008D1D00009C000020B02800002DE9F84343
:101E10009046894607004FF0000606D0B8F1000F43
:101E200003D03D680DB1002422E00E20BDE8F88308
:101E300024B1611C884207D1402106E0012801D06D
:101E4000802102E0C02100E00021D8F800006B46AC
:101E5000801B00904A46286800F01FF80028E5D152
:101E60000098B9F1000F064400D08144641C2D1D78
:101E7000B868A042DCD80020C8F80060D6E7D0E9F6
:101E800001329A4201D304207047036843F82210BC
:101E90008168491C8160002070472DE9F843144691
:101EA00098460A4605004FF000074AD06878297A1C
:101EB0004618B61D00B1761C8CB332F0C00002D0BB
:101EC0000720BDE8F883D8F80000B04201D2042012
:101ED000F7E722702B78601C1A4322702A7A00F8E8
:101EE000012B21460746041D687828B104F8010B30
:101EF000087840F0080008702A7A2046E968FEF762
:101F0000DBF9287A6A7804442AB120466968FEF72A
:101F1000D3F968780444D8F80000801B00902B693E
:101F20007BB16A462146686998470028C9D114B137
:101F3000009800BA3860009831180020C8F80010E6
:101F4000BFE70E20BDE710B50420FFF713FE08B170
:101F5000082010BDBDE81040FFF7CABB10B518B18E
:101F60000A2902D00C2010BD0248FFF74BFE0020CA
:101F700010BD00004529000010B54FF47772FFF73F
:101F80009DFE040013D10B480322016900F8342F91
:101F9000FE2902D84170022005E0FF2242700A0AA1
:101FA0008270C1700420FFF7CBFDFFF79DFE204635
:101FB00010BD00003004002070B50E46050005D0AD
:101FC0000020FFF7D7FD18B1082070BD072070BDB5
:101FD0000B4C0C48C4E901561434FFF713FEFF20E4
:101FE000A076E076E1202077112060777C20A07732
:101FF0000F20E077BDE8704001490348FFF734BB8C
:102000003004002045290000C913000070B51D46AA
:10201000134B0C468EB0D3E90113129ECDE9071382
:102020000DA906910E498DF824008DF82C200A94F4
:1020300018220C316846FEF73FF909A80590694659
:1020400006A8FFF71CFF002805D134B13246294607
:1020500006A8FFF7DBFE0EB070BD0E20FBE7000008
:102060002029000070B51546044661B1207A2A681F
:10207000904201D3042070BD20780870481C227A59
:102080006168FEF719F9207A401C2860002070BDB5
:10209000C20800F007030120895C9840084070479F
:1020A00000F180400068002800D00120704708B58A
:1020B00000F18040002101600068009008BD000030
:1020C0000549096840F4803001F00111814201D1D5
:1020D00001207047002070470C04004000283ED0CB
:1020E0001F49204A096800BF00BF00BF00BF00BFF2
:1020F00000BF00BF00BF91422FD000BF00BF00BF94
:1021000000BF00BF00BF00BF00BF00BF00BF00BFD7
:1021100000BF00BF00BF00BF00BF00BF00BF00BFC7
:1021200000BF00BF00BF00BF00BF00BF00BF00BFB7
:1021300000BF00BF00BF00BF00BF00BF00BF00BFA7
:1021400000BF00BF00BF00BF00BF00BF00BF00BF97
:1021500000BF00BF00BF00BF00BF0138C3D1704740
:102160006C0000200024F40010B50020FEF79EFD56
:1021700006484168491E4160406808B9FFF7D0FA37
:10218000BDE810400020FEF793BD000008020020CB
:1021900070B5144D0446687838B114B161680020F8
:1021A00088470020FEF782FD13E00020FEF77EFD49
:1021B00024B10C4821460830FFF7C2FA686840B9DC
:1021C0004FF48070FFF773FF01208107C1F804030B
:1021D00008606868401C6860BDE870400020FEF739
:1021E00067BD00000802002070B50E4C0025207865
:1021F00008B1852513E00021A16061602161E160E3
:102200004FF0E020D0F80001012610F0010F03D1BB
:102210000721002000F03AF803480660267028469F
:1022200070BD0000080200201805004070B5154D73
:102230000446A87838B114B16168012088470020AD
:10224000FEF734FD15E00020FEF730FD24B10D4807
:1022500021461030FFF774FAE86850B94FF48270E5
:10226000FFF725FF02204107C1F8040306490120BA
:102270000860E868401CE860BDE870400020FEF798
:1022800017BD000008020020080000404907090EA1
:10229000002806DA00F00F0202F1E02282F8141D95
:1022A00003E000F1E02282F8001400F01F02012197
:1022B00091404009800000F1E020C0F88012C0F891
:1022C000001170472DE9F0418846054600F05EF99F
:1022D000234E002828461AD0FEF74AFF304490F8D3
:1022E00048008009032802D001280ED007E04FF0F3
:1022F000A040D0F81005E84010F0010F05D00321F0
:102300002846BDE8F04100F0F1B80221F8E700F0FE
:1023100049F9002822D02846FEF72AFF04464FF448
:10232000807000EB84000F4F81B207EB8400D0F87F
:10233000102542F00102C0F81025084600F006F909
:10234000B8F1000F0AD02846FEF712FF56F8200019
:10235000002803D00120A040C7F80403BDE8F081A5
:102360001C020020006000402DE9FC41DFF8A48041
:10237000044608EB0400002790F930001346C0170C
:102380000E46401C01D0082741E0F278194620464D
:10239000FEF7CAFE0546401C38D0B07850B14FF069
:1023A000A04000EB8400D0F8001721F00201C0F833
:1023B000001707E000217378204600910A4601913A
:1023C00000F082F8F078C0B11348317800EB850056
:1023D000D0F81025114B1A40C0F810254FF4F852D0
:1023E0004FF4403302EA042203EA01410A43D0F8E1
:1023F00010150A43C0F8102509E008EB05003278F3
:1024000010F8481F41EA8211017000E004273846A5
:10241000BDE8FC811C02002000600040FFE0FCFFE2
:102420004FF0A041D1F81015C14011F0010000D0CB
:102430000120704770B5144D95F8540008B108207C
:1024400070BD0020411E2A18401CC0B282F8301016
:102450002028F8D300242046FEF758FE641CE4B27E
:102460000C2CF8D307210620FFF710FF4FF4BE70A5
:1024700000F06CF805494FF00040C1F8040301205A
:1024800085F85400002070BD1C0200200060004050
:10249000034890F85400002800D001207047000045
:1024A0001C02002070B541EA4201DDE904564FF0FC
:1024B000A04441EA830141EA052104EB800041EA9E
:1024C0000641C0F8001770BD70B541EA4201DDE970
:1024D00004564FF0A04441EA830141EA052104EB90
:1024E000800041EA0641C0F8001770BD4FF0A042DD
:1024F00002EB8000D0F8002722F44032C0F8002719
:10250000D0F8002742EA0141C0F8001770470122C5
:102510004FF0A043824011B1C3F808257047C3F8BB
:102520000C25704718B5084B6C4601441B68009396
:1025300006E000BF54F82030D3F81035401C08C224
:102540008142F7D818BD000010290000034908B5E2
:102550000844002101600068009008BD0060004050
:1025600002494058012800D0002070470060004018
:10257000002802D101490120086070470050004046
:1025800008B5002101600068009008BD04490844B6
:1025900090F93000082801DB0120704700207047C7
:1025A0001C0200200449084490F93000082801D298
:1025B00001207047002070471C0200200378026A47
:1025C000C16813B1C2F80C1501E0C2F8081500216A
:1025D000417070470378026AC16813B1C2F80815E8
:1025E00001E0C2F80C1501214170704770B5044636
:1025F000007D052660B12046FFF7E0FF0020207532
:10260000A078E178411A11FB00F006EB20201FE0D2
:10261000A16921B1204688472079022828D1E57890
:10262000A078A84203D12046FFF7D4FF0EE0204651
:1026300055B1FFF7CFFFA07810FB05F006EB102097
:1026400020610120207504E0FFF7B8FFA078401D4D
:102650002061207902280BD1E069216922460068B7
:10266000FEF7D4FA002803D0BDE87040FEF786BA22
:1026700070BD000070B5012670044FF0E021002508
:10268000C1F88001084C4010C4F84803C4F808039E
:1026900066602F20FFF722FDA660044C2F20A56066
:1026A000FFF71CFDA57070BD001001403800002030
:1026B0002DE9F84F1D4C00256846D4E901A6FEF728
:1026C00021FE002738B30023009A61681CE0D1F88E
:1026D00000C00846944503D9ACEB02020A6015E03D
:1026E000A2EB0C0263440760D0F80CC0C1698146BC
:1026F000BCF1000F08D006EB030828F07F48C0E9C2
:10270000018CC9F81C5005460029E0D128466160BB
:10271000FFF7D2F803E02846FFF7CEF810B1504695
:10272000FEF742FDE770BDE8F88F0000380000209A
:102730000D4B10B5596831B102680C68A24204D83B
:10274000A21A0A60C161586010BD0B4603E00B4637
:10275000C969121B21B10C689442F8D3A41A0C6009
:102760000260C161D86110BD380000202DE9F04140
:10277000144E77683D462C4603E0844204D025463B
:10278000E469002CF9D11BE0D4B1A5420BD1F86962
:10279000706040B90C49012088600021B160F07080
:1027A0002F20FFF79BFC2168E069E86110B1026807
:1027B000114401607068874202D00120BDE8F081B9
:1027C0000020FBE73800002000100140F8B5064665
:1027D00000240D462046FEF769FA684600F050F8DE
:1027E00068B10570084946609DF8000048700020F7
:1027F000FEF75EFA1420FDF757FF2046F8BD0424CB
:102800000020FEF755FAF8E7940200202DE9F04188
:10281000194D6C68002C2CD0184800270068A96856
:10282000B846401A20F07F462068B0420CD82146B6
:10283000361A0744E469087C20B181F81080886961
:1028400049698847002CEFD129786878814206D100
:10285000401CC0B26870022801D185F8018006488A
:1028600069780C3040F82170BDE8F0411420FDF784
:102870001BBFBDE8F08100003800002004150140B6
:102880000A494A788B78521CD2B2934200D1002276
:102890000B78934201D1002070470270487800EB1A
:1028A000400001EBC000001D7047000094020020B2
:1028B0006E6F7264696373656D692E636F6D2F73DC
:1028C000746172743532646B00DC00050000010035
:1028D0000000000000001E00000000501112131440
:1028E0000D0E0F109C010020BC010020E80100200B
:1028F0000D000300B10D00000E000300B10D00003B
:102900000F000300B10D000010000300B10D000026
:10291000000000507402002003000000F4030020B7
:1029200000000000010000000000000001000000A5
:1029300000000000010000004429000065200000A4
:102940000000000055000102030405060708090005
:1029500070290000000000209C000000900A000088
:102960000C2A00009C00002004240000A00A0000A3
:102970000000000000000000000000000000000057
:102980000000000000000000000000000000000047
:102990000000000000000000000000000000000037
:1029A0000000000000000000000000000000000027
:1029B0000000000000000000000000000000000017
:1029C0000000000000000000000000000000000007
:1029D0000000000000000000000000000090D00394
:1029E0000406050408030409020507040508030595
:1029F00009020305040309020000010101020204A7
:0C2A000003020A000201020209020000A9
:0400000500000201F4
:00000001FF
