:020000040000FA
:1000000078220020150200001D0200001F020000DF
:100010002102000023020000250200000000000071
:1000200000000000000000000000000027020000A7
:1000300029020000000000002B0200002D02000039
:10004000D50400002F0200002F0200002F02000044
:100050002F0200002F020000FD0200002F0200000E
:100060002F0200002F0200002F0200002F020000CC
:100070002F0200002F0200002F0200002F020000BC
:100080002F0200002D0500002F0200002F020000AB
:10009000510500002F0200002F0200002F02000077
:1000A0002F0200002F0200002F0200002F0200008C
:1000B0002F0200002F0200000000000000000000DE
:1000C0002F0200002F0200002F0200002F0200006C
:1000D0002F0200002F0200002F020000000000008D
:1000E0000000000000000000000000000000000010
:1000F0000000000000000000000000000000000000
:1001000000000000000000000000000000000000EF
:1001100000000000000000000000000000000000DF
:1001200000000000000000000000000000000000CF
:1001300000000000000000000000000000000000BF
:1001400000000000000000000000000000000000AF
:10015000000000000000000000000000000000009F
:10016000000000000000000000000000000000008F
:10017000000000000000000000000000000000007F
:10018000000000000000000000000000000000006F
:10019000000000000000000000000000000000005F
:1001A000000000000000000000000000000000004F
:1001B000000000000000000000000000000000003F
:1001C000000000000000000000000000000000002F
:1001D000000000000000000000000000000000001F
:1001E000000000000000000000000000000000000F
:1001F00000000000000000000000000000000000FF
:10020000DFF80CD000F068F80048004751130000F8
:10021000782200200648804706480047FEE7FEE7B0
:10022000FEE7FEE7FEE7FEE7FEE7FEE7FEE7FEE7A6
:1002300055050000010200002DE9F05F0546002091
:1002400092469B4688460646814640241BE0284647
:1002500041464746224600F02FF853465A46C01AF8
:10026000914110D311461846224600F016F82D1A77
:1002700067EB01084F4622460120002100F00DF8EF
:1002800017EB00094E41201EA4F10104DFDC4846B3
:1002900031462A464346BDE8F09F202A04DB203A37
:1002A00000FA02F1002070479140C2F1200320FAC9
:1002B00003F3194390407047202A04DB203A21FAC7
:1002C00002F00021704721FA02F3D040C2F120026F
:1002D0009140084319467047064C074D06E0E06818
:1002E00040F0010394E8070098471034AC42F6D37D
:1002F000FFF78AFFB81B0000D81B00002DE9F0476C
:1003000000268CB0DFF86091B0464FF48075012470
:1003100037460696284601F0B7FA38B1D9F80403F3
:10032000204203D0284601F0A5FA26432D1D640083
:100330007F1CADB2082FEDD34FF4BE74204601F000
:10034000A3FA48B1204601F095FA46F0004606AA05
:100350000121002001F07AFA444D16F0FF0F15D06C
:100360000127002437420DD009EB8401D1F8100594
:10037000D1F81015C0F3042055F82420C1F3014131
:1003800002B190477F00641C082CEBD3002E67DA83
:100390004FF0FF30CDE9088000263446281910F8C8
:1003A000507F90F9000027F0C008401C44D009A9F4
:1003B000404600F0E5FF58B34FEA9719404600F079
:1003C000F1FD55F820701FB1B9F1030F03D00FE014
:1003D000B9F1030F30D108A84FEAD80208F007039B
:1003E000815C4FF0010C0CFA03FC41EA0C018154D2
:1003F0004FF0A04101EB8800D0F8000706A9C0F338
:10040000014A404600F0BCFF18B1BAF1020F03D018
:1004100012E0BAF1030F0FD1B9F1030F08D1BAF10D
:10042000020F1BD00221404601F0F4F9761CF6B20F
:1004300017B149464046B847641C042CAED3002E81
:100440000ED06A460121002001F000FA06990098BA
:10045000884205D00690089809909DE70321E2E7BD
:100460000CB0BDE8F087000000600040F400002000
:1004700000F01F02012191404009800000F1E020BE
:10048000C0F88012704700F01F020121914040091E
:10049000800000F1E020C0F80011704700F01F025A
:1004A000012191404009800000F1E020C0F80012D5
:1004B00070474907090E002806DA00F00F0000F126
:1004C000E02080F8141D704700F1E02080F800144F
:1004D000704700002DE9F0414FF48077384600F076
:1004E00057FF0124104EA50748B1384600F057FFCA
:1004F0000120C5F808037470002000F05BFD4FF484
:100500008277384600F044FF00280BD0384600F0D0
:1005100046FF0220C5F80803B470BDE8F041012091
:1005200000F048BDBDE8F081E00000200748002150
:10053000C0F84011C0F84411C0F84811C0F84C117F
:10054000C0F80011C0F8041101F08ABA001001408F
:1005500001F0D8B9F0B5AE480023021D017801259D
:10056000101D4FF0805406290BD11678360708D19C
:100570000678C6F30316032E06D0042E04D0052EEB
:1005800002D0062907D00EE0B4F82463A14FC6F3C9
:1005900004263E6002E01678360704D10678C6F3DA
:1005A0000316032E02D0062904D00FE09B4F9A4E6B
:1005B0007E670EE01678360708D10678C6F3031674
:1005C000032E06D0042E04D0052E02D0062907D013
:1005D0000EE0D4F84462924FC6F342363E6002E029
:1005E0001678360704D10678C6F30316032E02D018
:1005F000062906D011E08B4E376827F080773760E8
:100600000EE01678360708D10678C6F30316032ED7
:1006100006D0042E04D0052E02D006290AD011E0FF
:100620004FF08046C6F80C31C6F810317C4E361FAC
:10063000336002E01678360704D10678C6F3031655
:10064000032E02D0062905D00CE0754F032664372F
:100650003E600AE01678360704D10678C6F3031622
:10066000032E02D006290DD014E06F4F05263E6000
:100670006D4E783635606C4E083633603F263F1D30
:100680003E6002E01678360704D10678C6F30316FA
:10069000052E02D0062957D062E0644E3668644FBA
:1006A0003E60624E361D36683F1D3E605F4E083626
:1006B00036683F1D3E605D4E0C3636683F1D3E601D
:1006C0005A4E103636683F1D3E60584E1436366816
:1006D0003F1D3E60554E18363668554F20373E60F8
:1006E000524E1C3636683F1D3E60504E20363668EE
:1006F0003F1D3E604D4E243636683F1D3E604B4EDA
:10070000283636683F1D3E60484E2C3636683F1D01
:100710003E60464E30363668454F40373E60434E69
:10072000343636683F1D3E60404E383636683F1DD1
:100730003E603E4E3C3636683F1D3E603B4E403686
:1007400036683F1D3E6002E01678360708D106780D
:10075000C6F30316032E06D0042E04D0052E02D0B5
:10076000062907D019E0D4F85812324A01F04F0197
:10077000116002E0117809070FD10078C0F303106F
:10078000032803D0042801D0052806D12A4801688F
:10079000C90702D06FF00101016022487438016876
:1007A00041F470010160BFF34F8FBFF36F8F4FF0C3
:1007B0001021D1F80002002803DBD1F80402002840
:1007C00022DA1E4A15601E480468002CFCD015244D
:1007D000C1F800420568002DFCD0C1F80442016850
:1007E0000029FCD0136001680029FCD0BFF34F8FB3
:1007F0000C48F0380168134A01F4E06111430160CC
:10080000BFF34F8F00BFFDE710490F480860F0BDF0
:10081000E00F00F0403501400DF0ADBA00C00740D8
:100820003C050040FCED00E01056004004040010C0
:1008300020C50040E40E00400004004004E50140F3
:1008400000E401400400FA050090D00350000020AD
:1008500002E008C8121F08C1002AFAD17047704789
:10086000002001E001C1121F002AFBD170470220C5
:1008700000F02CB970B50024084D05E0686810F848
:10088000340000F08FFE641C28788442F6D30448BC
:100890000068BDE8704000F0F3B8000018000020C8
:1008A000B01B000070B50024064D06E06868012109
:1008B00010F8340000F09AFE641C28788442F5D3C6
:1008C000002070BD18000020F8B515460C460646FD
:1008D000052A01D20720F8BD00F06EFF18B900F01C
:1008E0003DFF0028F7D1114900224E600C708D6049
:1008F000C1E90422C1E906220D4D0DE006EBC4005A
:100900006968009181788DF801100078094A69467C
:1009100000F0BEFE0028DED1641EE4B2EED2BDE8D7
:10092000F840054A0021024800F02EB818000020C7
:10093000B01B000079110000891000000948006810
:10094000C00700D000BEBFF34F8F0648E4380168EF
:10095000054A01F4E06111430160BFF34F8F00BF0E
:10096000FDE70000F0ED00E00400FA050EB50021FF
:100970000091CDE901106A4644F20100FFF7DEFF65
:100980000EBD012000F0A2B8074B9B7823B12AB11D
:1009900020B10068037C1BB1082070470720704716
:1009A00041744261002070476C01002070B500F076
:1009B0008BFF104800240B21047044700E4D817091
:1009C00014206C602C706C70FFF752FD072114200E
:1009D000FFF76FFD1420FFF756FD0848046007215C
:1009E0001120FFF766FD0548001F0068A860002081
:1009F00070BD00006C010020380000200815014087
:100A00002DE9F843DFF8709099F802305BB350B3EA
:100A1000052902D20720BDE8F88343691BB3437C54
:100A2000012B22D00027044600258846164628467A
:100A300000F036F8684601F04DF8C0B101210170B0
:100A40000E4944600968C0E90218C0E904769DF8BF
:100A5000000089F80100002000F024F81420FFF7BE
:100A60001DFD2846D7E70820D5E70F46DBE704251C
:100A7000002000F017F8F4E76C0100200415014095
:100A80000649897839B130B1416921B10021017439
:100A9000022100F0C5BF0820704700006C01002053
:100AA00000F002B800F008B872B602480168491CAC
:100AB000016070474C00002003490868401E086030
:100AC00000D162B6704700004C00002007490B5C63
:100AD0004FF0A041D1F804250120984020EA0203FC
:100AE000C1F808351040C1F80C057047781B0000AC
:100AF0000249085C012100F09EBE0000781B000046
:100B00000249085C002100F096BE0000781B00003E
:100B10000649095C4FF0A040D0F80405C84010F029
:100B2000010000D0012080F001007047781B000018
:100B30007CB50024084E25460122305D0095002337
:100B40001146019500F042FE641C042CF4D3BDE86C
:100B50007C4000F003B80000781B000010B50024B2
:100B60002046FFF7C5FF641C042CF9D310BD10B557
:100B700000242046FFF7C4FF641C042CF9D310BDE9
:100B800010B50246064B4FF0FF3000215C5C9442EA
:100B900001D1084610BD491C0429F7D310BD00003F
:100BA0007C1B00002DE9F0470D468146FFF7E8FF6A
:100BB0000446042836D2DFF874801B481C4EA8F186
:100BC0000C0725B3012D0ED0022D2BD104EB4400D0
:100BD00030444578002D25D0B968002922D0284618
:100BE000BDE8F047084704EB4401755C0E4471789A
:100BF00049B10E4A4FF40041093A8068FFF700FFFF
:100C000008B987F80390B17808F80410E2E7806823
:100C1000FFF736FF04EB4401314418F804008D78E7
:100C2000A842D7D0BDE8F087801B0000100000204C
:100C3000B4000020FFF71EBE10B50A2816D100F040
:100C400067F908B1FFF792FEFFF7F4FF08B1FFF76D
:100C50008DFE07480068FFF713FF08B1FFF786FE17
:100C60000020FFF745FF03490120087010BD000078
:100C7000741B00000000002070B50023042810D26F
:100C80000D4D00EB4004012A02D101290CD00022B5
:100C9000094E00EB4000304461B1012906D0022921
:100CA00006D00723184670BD0E30C2B22A55F9E7A8
:100CB0004270F7E78270F5E7B400002070B5064691
:100CC0001E480024C0E90161B00720D5002501229B
:100CD00011462846FFF7D0FF6D1C0446042D02D2B2
:100CE000002CF4D013E094B940F266620421144859
:100CF000FFF7EAFD04000AD1FFF7D4FD040006D196
:100D00000F48104A0021001FFFF73EFE0446F0077F
:100D100001D0FFF70DFF74B909480B4A00210C38C8
:100D2000FFF732FE040006D10548084A01210838C1
:100D3000FFF72AFE0446204670BD00000400002094
:100D40008C1B0000390F0000451200006F080000E6
:100D50002DE9F05F6A4C054600266078B34618B16D
:100D600084F801B000F056FA664F4FF47A694FF4F8
:100D7000C87A4FF00108182D62D2DFE805F0AC0CFC
:100D80000C31404D62676B746B74BE7D7D7D7D7DE3
:100D9000ACAFB2B5BEBE0020FFF7BAFE00284FF0E0
:100DA000000008D0FFF7A4FE022D02D14FF4E1604D
:100DB00008E0484606E0FFF7A3FE022D01D1C82057
:100DC00000E05046410CC0034FF4FA72801841F124
:100DD0000001257052000023FFF72EFA01462AE099
:100DE0000020FFF795FE00284FF0000004D0FFF729
:100DF0007FFE4FF44870E5E7FFF782FEDFE7002053
:100E0000FFF786FE00284FF0000002D0FFF770FECB
:100E1000CFE7FFF775FED4E70020FFF779FE002843
:100E20004FF0000002D0FFF763FE01E0FFF768FE1D
:100E3000257041F69A1100223868FFF7E1FD064659
:100E400046E00020FFF742FE257008E0002051E058
:100E500025703DE084F801800120FFF737FE002275
:100E600040F6CD41E8E784F801800120FFF72EFE2F
:100E700000224FF48041DFE77868FFF701FE064665
:100E8000D5F1110000D02EB10220FFF731FE84F819
:100E900002B01DE0012816D980B2C8214843C1170D
:100EA000C90341EA5041C0034FF4FA72801841F17E
:100EB000000152000023FFF7BFF9014600227868C5
:100EC000FFF79EFD06460220FFF71AFE84F8028017
:100ED0003046BDE8F09F00F09DF9B9E700F09AF9BF
:100EE000B4E700F097F904E000F094F90020FFF770
:100EF00007FE0120FFF704FEAAE7FFF738FEA7E789
:100F000004000020801B00000A220021FFF7B4BE6D
:100F100010B50020FFF7C4FD05480078400702D156
:100F20000449012088600020FFF7BCFD002010BDAF
:100F3000105400400050004000780221FFF732BEFC
:100F400005494FF0FF32082841F8202002D3084419
:100F500080F8482070470000F4000020F0B54FF002
:100F6000FF3512B10023082601E008230C260C4CA3
:100F700005E000BF54F823707F1C04D05B1CB34213
:100F8000F8D32846F0BD26185DB286F8305044F8F4
:100F90002310002AF5D1E11881F84800F1E700009C
:100FA000F40000200249084490F930007047000026
:100FB000F400002070B5084C050009D010342168F9
:100FC000002907D008682060496828468847F6E766
:100FD0000834F4E770BD0000E00000202DE9F05F68
:100FE00026484168F1B3DFF898B00E688146DBF817
:100FF000004087688078E11B21F07F45ED1CB0B987
:10100000DFF880804FF48030C8F84403C8F8040348
:101010001120FFF72DFA1120FFF735FA4FF0010AE2
:10102000C8F800A02F2000F009FA89F802A0B54204
:1010300000D23546124BE8193C3320F07F4018604F
:10104000DBF800105A46091B21F07F41001B20F0FD
:101050007F40C91C81420FD9106818602F2000F012
:10106000EDF900E004E0BDE8F05F1120FFF716BAEB
:10107000BDE8F05F00F028BCBDE8F09F380000201C
:1010800004150140001001402DE9F05F0025DFF854
:10109000A48043E06068002100EBC506012032789F
:1010A0009146FFF7FAF8D4E9062300EA020701EABD
:1010B000030C57EA0C072FD0C7433A408B434846EE
:1010C000C4E9062300F040FB32784FF0000A814665
:1010D000934601205146FFF7E0F8D4E9042300EAE3
:1010E000020401EA03075A4648465146FFF7D5F87D
:1010F00044404F403C430FD17078012815D0002266
:1011000089EA02008AEAE271084310D0002072687E
:1011100012B1C1B2584690476D1CEDB298F800006C
:1011200044468542B6D3BDE8F09F0122E8E701209E
:10113000EDE70000180000200E4910B50A784C7841
:101140000023A24212D0521CD2B20A70022A00D14D
:101150000B70084A0B780C3252F823200260886822
:10116000104420F07F408860012010BD0360002003
:1011700010BD0000380000202DE9F04180460246F5
:1011800001200021FFF789F81A4F05460E463868FE
:10119000FFF776FC00280CD1174CD4E90621104645
:1011A0002A4001EA06031A4305D0A843B143C4E923
:1011B0000601BDE8F081404600F0C6FA30B1D4E93E
:1011C000040128433143C4E9040105E0D4E90410D3
:1011D000A943B043C4E90410D4E9060128433143CC
:1011E000C4E90601A1683868BDE8F0410022FFF7B4
:1011F00007BC0000B01B0000180000200268134666
:1012000002E08A4204D01268002AFAD10B60016021
:10121000704700000A4810B5807860B1002401E0F2
:10122000022C06D02046FFF763FC641C042CF7D385
:1012300010BD0324F6E7BDE81040FFF78FBC0000A7
:101240000400002003480179C90702D00078FFF7A5
:101250007FBD7047040000202DE9F047394E00277C
:1012600080463D46DFF8E090D6F804A057E003D072
:101270000446D0F81C8035E099F8002002EB4201CA
:10128000521CD2B289F8002009EBC10199F8023052
:10129000091D9A4201D189F8005048680A7804462D
:1012A000012A12D0022A02D0032A3BD108E000F022
:1012B00087FB00B10127257434E00574C06900E0A4
:1012C00070680028F9D170602CE0207C50BB8868E1
:1012D0006060C868A0600869E0604869A061F07853
:1012E00000B165606268B168184B501A20F07F4009
:1012F000984202D2A168084406E0881AA16820F04A
:101300007F40814202D9081A206000E025606560B4
:101310000120A56020742046E56100F033FBB8F1A0
:101320000000A4D199F8001099F801008142A3D1DE
:1013300017B97168514502D00120BDE8F08700203F
:10134000FBE70000380000206C010020FFFF7F0059
:1013500000F0D8FB0020FFF7D3FB064C064F074EEA
:10136000012520780028FCD0384600F021F83560AF
:10137000F7E7000000000020A08601000005004003
:10138000C20800F007030120895C984008407047BC
:1013900000F180400068002800D00120704708B5A7
:1013A00000F18040002101600068009008BD00004D
:1013B00000283ED01F49204A096800BF00BF00BF77
:1013C00000BF00BF00BF00BF00BF91422FD000BFD1
:1013D00000BF00BF00BF00BF00BF00BF00BF00BF15
:1013E00000BF00BF00BF00BF00BF00BF00BF00BF05
:1013F00000BF00BF00BF00BF00BF00BF00BF00BFF5
:1014000000BF00BF00BF00BF00BF00BF00BF00BFE4
:1014100000BF00BF00BF00BF00BF00BF00BF00BFD4
:1014200000BF00BF00BF00BF00BF00BF00BF01384A
:10143000C3D17047500000200024F40000283ED0A3
:101440001F49204A096800BF00BF00BF00BF00BF9E
:1014500000BF00BF00BF91422FD000BF00BF00BF40
:1014600000BF00BF00BF00BF00BF00BF00BF00BF84
:1014700000BF00BF00BF00BF00BF00BF00BF00BF74
:1014800000BF00BF00BF00BF00BF00BF00BF00BF64
:1014900000BF00BF00BF00BF00BF00BF00BF00BF54
:1014A00000BF00BF00BF00BF00BF00BF00BF00BF44
:1014B00000BF00BF00BF00BF00BF0138C3D17047ED
:1014C000500000200024F40070B50E4C0025207858
:1014D00008B1852513E00021A16061602161E16010
:1014E0004FF0E020D0F80001012610F0010F03D1E9
:1014F0000721002000F03AF80348066026702846CD
:1015000070BD0000E00000201805004070B5154DCA
:101510000446A87838B114B16168012088470020DA
:10152000FFF7BEFA15E00020FFF7BAFA24B10D4824
:1015300021461030FFF762FEE86850B94FF4827020
:10154000FFF72DFF02204107C1F8040306490120DF
:101550000860E868401CE860BDE870400020FFF7C4
:10156000A1BA0000E0000020080000404907090E71
:10157000002806DA00F00F0202F1E02282F8141DC2
:1015800003E000F1E02282F8001400F01F020121C4
:1015900091404009800000F1E020C0F88012C0F8BE
:1015A0000011704710B5044600F076F928B12046C6
:1015B000BDE81040002100F02DB9204600F078F978
:1015C00000280FD02046FFF7EDFC074A02EB800110
:1015D000D1F8103523F00103C1F810350121814005
:1015E000C2F8081310BD0000006000402DE9F04172
:1015F0008846054600F050F9234E002828461AD0A8
:10160000FFF7D0FC304490F848008009032802D04E
:1016100001280ED007E04FF0A040D0F81005E840B8
:1016200010F0010F05D003212846BDE8F04100F07D
:10163000F1B80221F8E700F03BF9002822D0284653
:10164000FFF7B0FC04464FF4807000EB84000F4FAE
:1016500081B207EB8400D0F8102542F00102C0F8F7
:101660001025084600F006F9B8F1000F0AD0284608
:10167000FFF798FC56F82000002803D00120A04076
:10168000C7F80403BDE8F081F400002000600040CA
:101690002DE9FC41DFF8A480044608EB0400002794
:1016A00090F930001346C0170E46401C01D00827A1
:1016B00041E0F27819462046FFF750FC0546401CF1
:1016C00038D0B07850B14FF0A04000EB8400D0F893
:1016D000001721F00201C0F8001707E0002173781D
:1016E000204600910A46019100F082F8F078C0B1DE
:1016F0001348317800EB8500D0F81025114B1A40C3
:10170000C0F810254FF4F8524FF4403302EA042297
:1017100003EA01410A43D0F810150A43C0F8102526
:1017200009E008EB0500327810F8481F41EA821101
:10173000017000E004273846BDE8FC81F400002079
:1017400000600040FFE0FCFF4FF0A041D1F8101511
:10175000C14011F0010000D00120704770B5144D58
:1017600095F8540008B1082070BD0020411E2A18C9
:10177000401CC0B282F830102028F8D30024204644
:10178000FFF7DEFB641CE4B20C2CF8D30721062023
:10179000FFF7ECFE4FF4BE7000F06CF805494FF017
:1017A0000040C1F80403012085F85400002070BDFA
:1017B000F400002000600040034890F85400002826
:1017C00000D0012070470000F400002070B541EA0D
:1017D0004201DDE904564FF0A04441EA830141EAA9
:1017E000052104EB800041EA0641C0F8001770BDF6
:1017F00070B541EA4201DDE904564FF0A04441EAE8
:10180000830141EA052104EB800041EA0641C0F86A
:10181000001770BD4FF0A04202EB8000D0F8002707
:1018200022F44032C0F80027D0F8002742EA0141F4
:10183000C0F80017704701224FF0A043824011B159
:10184000C3F808257047C3F80C25704718B5084B36
:101850006C4601441B68009306E000BF54F820303A
:10186000D3F81035401C08C28142F7D818BD0000DB
:10187000AC1B0000034908B5084400210160006862
:10188000009008BD0060004002494058012800D087
:1018900000207047006000400449084490F930007F
:1018A000082801DB0120704700207047F400002069
:1018B0000449084490F93000082801D201207047FB
:1018C00000207047F400002070B5012670044FF02E
:1018D000E0210025C1F88001084C4010C4F84803FD
:1018E000C4F8080366602F20FFF7A8FDA660044C2B
:1018F0002F20A560FFF7A2FDA57070BD001001406C
:10190000380000202DE9F84F1D4C00256846D4E929
:1019100001A6FFF711FC002738B30023009A616885
:101920001CE0D1F800C00846944503D9ACEB020294
:101930000A6015E0A2EB0C0263440760D0F80CC00B
:10194000C1698146BCF1000F08D006EB030828F0FE
:101950007F48C0E9018CC9F81C5005460029E0D138
:1019600028466160FFF778FC03E02846FFF774FC27
:1019700010B15046FFF732FBE770BDE8F88F00006A
:10198000380000200D4B10B5596831B102680C6861
:10199000A24204D8A21A0A60C161586010BD0B4669
:1019A00003E00B46C969121B21B10C689442F8D3BD
:1019B000A41A0C600260C161D86110BD380000201B
:1019C0002DE9F041144E77683D462C4603E08442F1
:1019D00004D02546E469002CF9D11BE0D4B1A5421E
:1019E0000BD1F869706040B90C4901208860002172
:1019F000B160F0702F20FFF721FD2168E069E861F8
:101A000010B10268114401607068874202D0012061
:101A1000BDE8F0810020FBE7380000200010014005
:101A2000F8B5064600240D462046FFF739F868460B
:101A300000F050F868B10570084946609DF8000054
:101A400048700020FFF72EF81420FEF727FD2046EF
:101A5000F8BD04240020FFF725F8F8E76C0100200A
:101A60002DE9F041194D6C68002C2CD01848002746
:101A70000068A968B846401A20F07F462068B04246
:101A80000CD82146361A0744E469087C20B181F855
:101A90001080886949698847002CEFD129786878D7
:101AA000814206D1401CC0B26870022801D185F87D
:101AB0000180064869780C3040F82170BDE8F0419B
:101AC0001420FEF7EBBCBDE8F081000038000020D8
:101AD000041501400A494A788B78521CD2B29342CD
:101AE00000D100220B78934201D100207047027090
:101AF000487800EB400001EBC000001D704700007B
:101B00006C01002010B5FFF7DFFC08B1FEF72EFFD7
:101B10000020FFF7FBFCFEF749FF08B1FEF726FFA8
:101B200011490320FFF7CAF808B1FEF71FFF002094
:101B3000FFF7EAF908B1FEF719FF0C4A01210C483A
:101B4000FEF722FF08B1FEF711FF094800224FF40B
:101B500080410068FEF754FF002803D0BDE8104024
:101B6000FEF704BF10BD0000390C0000830900001F
:101B7000741B000054000020111213140D0E0F10DE
:101B80007400002094000020C00000200D0003001D
:101B9000A50B00000E000300A50B00000F000300C2
:101BA000A50B000010000300A50B00000000005072
:101BB0004C01002003000000D81B000000000020A2
:101BC00054000000500800002C1C000054000020AD
:101BD0002422000060080000000000000000000057
:101BE00000000000000000000000000000000000F5
:101BF00000000000000000000000000000000000E5
:101C000000000000000000000000000000000000D4
:101C100000000000000000000000000000000000C4
:0C1C200000000000000000000090D00355
:0400000500000201F4
:00000001FF
