:1000000000000420194A0000414A0000434A000051
:10001000454A0000474A0000494A0000000000002D
:100020000000000000000000000000004B4A00003B
:100030004D4A0000000000004F4A0000514A0000F5
:10004000312C000005A20200318C0200534A00004E
:10005000534A0000534A000071300000534A000028
:10006000534A0000534A0000534A0000534A00001C
:10007000534A0000E1880200534A0000534A00003E
:10008000534A000095160000534A0000534A0000EE
:1000900035170000534A0000534A0000534A00003D
:1000A000534A0000534A0000534A0000534A0000DC
:1000B000534A0000534A0000000000000000000006
:1000C000534A0000534A0000534A0000534A0000BC
:1000D00055810200534A0000534A0000534A000071
:1000E000534A0000534A0000534A00000000000039
:1000F00000000000534A000000000000534A0000C6
:1001000000000000000000000000000000000000EF
:1001100000000000000000000000000000000000DF
:1001200000000000000000000000000000000000CF
:1001300000000000000000000000000000000000BF
:1001400000000000000000000000000000000000AF
:10015000000000000000000000000000000000009F
:10016000000000000000000000000000000000008F
:10017000000000000000000000000000000000007F
:10018000000000000000000000000000000000006F
:10019000000000000000000000000000000000005F
:1001A000000000000000000000000000000000004F
:1001B000000000000000000000000000000000003F
:1001C000000000000000000000000000000000002F
:1001D000000000000000000000000000000000001F
:1001E000000000000000000000000000000000000F
:1001F00000000000000000000000000000000000FF
:1002000010B5054C237833B9044B13B10448AFF350
:1002100000800123237010BD400100200000000079
:10022000B4580400084B10B51BB108480849AFF397
:1002300000800848036803B910BD074B002BFBD0B2
:10024000BDE81040184700BF00000000B45804008B
:10025000440100200001002000000000154B002B8D
:1002600008BF134B9D46A3F5803A00218B460F46ED
:100270001348144A121A3AF045FD0F4B002B00D0D8
:1002800098470E4B002B00D0984700200021040017
:100290000D000D48002802D00C48AFF300803AF062
:1002A000D5FC2000290000F0F1FF3AF0A9FC00BFC6
:1002B0000000080000000420000000000000000012
:1002C0004001002028EE0020000000000000000097
:1002D000704700BF704700BF00B583B0044B009368
:1002E000044A402300F01EF803B05DF804FB00BF91
:1002F000F90200005C010020F8B5144672B10F4607
:100300000A26002579192246002004F01DFA05442A
:10031000241A08B9013E01D0002CF3D1F8BD00BF6A
:1003200004F04ABBF0B595B0002415460F460846C8
:100330001E4602F00BFB3846234605A90822089505
:100340001A9D09960D950A948DF82C400C9402F094
:100350005BFB9DF81430079806998DF8104003F068
:100360000302012A0290ADF80C102CD0022A04D00E
:10037000384602F0FBFA15B0F0BDBDF81650C3F3D5
:10038000C202C3F38003C5F389158DF80E208DF8E2
:100390000F300826082D2C4628BF08243346224655
:1003A00038460EA902F030FB2D1B21460EA802AAEA
:1003B00008AB264400F0ACFC002DEBD1384602F02F
:1003C000D5FA15B0F0BDBDF81460059DC6F38316CF
:1003D000C3F3C20EB2000EA9C3F38004384608234B
:1003E000C5F395258DF80EE08DF80F4002F00CFB5B
:1003F00008AB0093284632460EA902AB00F0F0FB92
:10040000B6E700BF10B5054CFFF78AFF2046042170
:1004100000F0A6FB0123637210BD00BF00000020A6
:1004200008B5104B10480022FF21C3F8182499602A
:100430001A605A60C3F8142483F81C2402F03EFAB0
:1004400070B90A4B0A4A9A1AD20807D009490346DA
:100450000B520133934200F10C00F9D1002008BD8A
:1004600008BD00BF9C01002038C9030008590400E2
:10047000E05804000401002021B9124A02EBC00038
:100480000068704730B410490E4D491BC9080ED0A2
:100490000E4B5A88824218BF002205D10FE0DC893A
:1004A000844203F10C0305D001328A42F7D10020C7
:1004B00030BC704705EBC200006830BC704728466E
:1004C000FAE700BFE05804000859040004010020C6
:1004D000064B032903EBC00005D0042901D1407964
:1004E0007047002070470079704700BFE058040053
:1004F0002DE9F04F824C626823689A4285B03CD067
:100500000023C4F81834BFF34F8F6068A56805EA6C
:100510000003023304EB8302111D127912F0030F62
:10052000024610D10B884988C3F3891303EB91135A
:1005300001331A4402EA0503023304EB8306311D3A
:100540003679B607EED004EB8303511C5E68019642
:10055000294004EB810306F00306DB680293022EB8
:1005600002F10208664F0CD0012E63D02368181ADE
:1005700018BF012005B0BDE8F08F002005B0BDE830
:10058000F08FBDF806305F48C3F38919B9F1500FF9
:10059000CA46A8BF4FF0500A6AF38F130AF1080148
:1005A000ADF8063002F08CF90646002800F0838092
:1005B00025EA080B0BF1010B02F0C8F94FEA8B0B8F
:1005C000304601A90822002302F0F6F9DA4540F28C
:1005D0008A80BBF1000F70D107F10C015246304602
:1005E000082302F0E9F909F1030708EB9707D4F8AB
:1005F0001834DFF80C81D4F81054002B55D14DB1CC
:100600006B7A2846314613B12B681B6898476D6892
:10061000002DF5D1304602F0A9F9002001F0FEFCD2
:10062000D4F81834364A03B95760002001F0FEFCB4
:1006300060689BE7BDF804303248C3F38312062A92
:1006400028BF0622911C62F389138900ADF804309B
:1006500002F036F9064670B302F078F9002330460E
:1006600001A9082202F0A8F9BDF8043013F4707F44
:1006700044D04FF0000A4FF0080908EA050104EBE6
:1006800081014B460C313046042202F095F9BDF849
:1006900004300AF1010AC3F3831308F1010753453B
:1006A00009F10409B846E8D8A1E7304602F05EF93E
:1006B000D8F804005AE7786858E708EA050107EB1C
:1006C0008101CBEB0A0530465A460C31EDB20823C6
:1006D00002F072F930462A4607F10C010BF10803CB
:1006E00002F06AF97FE708EA050107EB81010C31A6
:1006F00052463046082302F05FF974E7474676E732
:100700009C01002038C903002DE9F04F554C89B0F9
:10071000A368029000200391019301F07FFCA5687B
:100720006168D4F800806B180133C8EB0303032B16
:100730005FD805F10109C8EB090904F5836C04F2DF
:1007400014470126A2464FF0000E5CE8003F43EA42
:1007500006024CE8002090F0000FF6D157E8003F69
:1007600043EA060247E8002090F0000FF6D101EAC4
:100770000503023304EB8302101D127912F0030FFC
:100780000A4613D103884088C3F3891303EB9013FF
:1007900001331A4402EA0503023304EB830B0BF125
:1007A00004009BF804B01BF0030FEBD004EB8303B1
:1007B00002325B68059303F00303012B4BD0022B3D
:1007C00006D1BDF81630C3F38913033302EB93024D
:1007D00057E8003F03EA0E0047E8000B9BF0000FCC
:1007E000F6D113B1CAF80420114609EB0103032B1B
:1007F000ABD908F102030020236001F017FC019E31
:10080000029D08EA0603023304EB830301211A79EF
:1008100061F30102C5F3001161F3820265F3C502C1
:100820001A719A886FF389129A805968039808F1AF
:10083000010260F39F215960324004EB820394F877
:100840001C24290CD9601AB1FFF752FE0028FBD1F5
:1008500009B0BDE8F08FBDF81430C3F383131A4418
:10086000B6E700BF9C0100202DE9F04F5A4C89B03B
:10087000A3680190002002910093039201F0CEFB47
:10088000A5686168D4F800806B180133C8EB0303D6
:10089000042B5FD805F10109C8EB090904F5836C45
:1008A00004F214470126A2464FF0000E5CE8003F18
:1008B00043EA06024CE8002090F0000FF6D157E81A
:1008C000003F43EA060247E8002090F0000FF6D10F
:1008D00001EA0503023304EB8302101D127912F0C2
:1008E000030F0A4613D103884088C3F3891303EB2F
:1008F000901301331A4402EA0503023304EB830B1D
:100900000BF104009BF804B01BF0030FEBD004EBD9
:10091000830302325B68059303F00303012B54D079
:10092000022B06D1BDF81630C3F38913033302EB53
:10093000930257E8003F03EA0E0047E8000B9BF0E4
:10094000000FF6D113B1CAF80420114609EB0103D8
:10095000042BABD908F103030020236001F066FBF0
:10096000009D019E08EA0503023304EB8303012185
:100970001A79C6F3001061F3010260F3820266F394
:10098000C5021A719A8861F389129A8059683046B3
:10099000029E08F1010266F39F2108F102082A4035
:1009A000596004EB820208EA050304EB8303000CA0
:1009B00094F81C14D060039ADA6019B1FFF798FD1F
:1009C0000028FBD109B0BDE8F08FBDF81430C3F3A7
:1009D00083131A44ADE700BF9C0100202DE9F04FBE
:1009E0005E4C8BB0029005930020A36803910193A5
:1009F000049201F013FBA5686168D4F800806B18BD
:100A00000133C8EB0303052B5FD805F10109C8EBDF
:100A1000090904F5836C04F214470126A2464FF03D
:100A2000000E5CE8003F43EA06024CE8002090F02C
:100A3000000FF6D157E8003F43EA060247E80020DE
:100A400090F0000FF6D101EA0503023304EB8302B4
:100A5000101D127912F0030F0A4613D10388408843
:100A6000C3F3891303EB901301331A4402EA05031D
:100A7000023304EB830B0BF104009BF804B01BF072
:100A8000030FEBD004EB830302325B68079303F0A0
:100A90000303012B5BD0022B06D1BDF81E30C3F33C
:100AA0008913033302EB930257E8003F03EA0E0079
:100AB00047E8000B9BF0000FF6D113B1CAF80420F1
:100AC000114609EB0103052BABD908F10403002003
:100AD000236001F0ABFA019D029E08EA0503023390
:100AE00004EB830301211A7961F30102C6F30011BB
:100AF00061F3820266F3C5021A719A88022161F3DA
:100B000089129A805868039A08F1010162F39F20C4
:100B1000294008F1020208F10308586004EB810142
:100B200008EA05032A4004EB820294F81C0404EB53
:100B30008304330CCB60049BD360059BE36018B146
:100B4000FFF7D6FC0028FBD10BB0BDE8F08FBDF855
:100B50001C30C3F383131A44A6E700BF9C01002096
:100B600030B4144DD5F81044002154B1237A8B428F
:100B700014D0234602E01A7A8A420FD05B68002B19
:100B8000F9D10172D5F810340A4A7BB15B68436031
:100B9000D2F810345860084630BC704701310A2939
:100BA000E3D14FF0FF31084630BC7047C2F8100463
:100BB0004360F0E79C01002038B5084BD3F810449F
:100BC000012583F81C543CB12368657220465B689C
:100BD00098476468002CF7D138BD00BF9C01002005
:100BE0002DE9F04784B01D460C9C002394F80C803E
:100BF0002373EB7981460E4617460BB3062F0FD8A9
:100C0000DFE807F0363B414804515E00B168F06808
:100C100096E80C00009101904946204601F03AFB0D
:100C2000EB792BB92B7AEBB92046334901F032FB33
:100C3000204601F023FB84F80C8004B0BDE8F08767
:100C40002B7A002B4BD1AA792C4BA88853F822A0E1
:100C50000021FFF711FC524603462949204601F0C6
:100C600019FBCBE720462749274A01F013FBDBE7B6
:100C70004946204601F00EFBD2E74946326820463D
:100C800001F008FBCCE74946204696E80C0001F04D
:100C900001FBC5E7B16896E80C0020460091494683
:100CA00001F0F8FABCE7B1683069F76896E80C0023
:100CB0000091029049460197204601F0EBFAAFE718
:100CC00096E80C00B168F068376976690396009180
:100CD000019049460297204601F0DCFAA0E7A97985
:100CE000A888FFF7F5FB094B064953F8202020465A
:100CF00001F0D0FAA7E700BFD4CA03004CC9030033
:100D000088C9030084C9030094C9030060C90300B3
:100D1000082951D82DE9F0471D46002395F80C907D
:100D20002B73D379904607460E46002B45D00024FE
:100D300005E03A5D013401F0ADFA082C0AD0A64274
:100D400028463049F5D828462F49013401F0A2FA47
:100D5000082CF4D128462D49DFF8D4A001F09AFAE6
:100D600000240DE03A5DDAF80030134401345B787A
:100D700013F0970F08BF2E2201F08CFA082C0AD02E
:100D8000A64228462249EDD828462249013401F0DE
:100D900081FA082CF4D198F8073013B998F8083084
:100DA000F3B928461C4901F075FA284601F066FAA5
:100DB00085F80C90BDE8F0877047137AB3B998F8BE
:100DC0000620164BB8F8040053F822400021FFF724
:100DD00053FB224603461249284601F05BFAA6E778
:100DE00028461049104A01F055FADAE791799088BF
:100DF000FFF76EFB0D4B0B4953F82020284601F0FE
:100E000049FADCE79CC90300A4C90300A8C9030090
:100E1000ACC9030090C90300D4CA03004CC9030045
:100E200088C9030084C9030094C9030060C9030092
:100E300090000020084B1B5C1F2B8ABF074A4FF015
:100E4000A04203F01F03D2F80405D84000F00100CF
:100E500080F00100704700BF10CA0300000300507B
:100E6000074B1B5C1F2B86BF03F01F0305494FF088
:100E7000A041012202FA03F3C1F80C35704700BF0C
:100E800010CA030000030050064B1A5C1F2A86BFDD
:100E900002F01F0204494FF0A04101239340C1F822
:100EA0000835704710CA0300000300504FF0A043FC
:100EB00010B44FF480404FF400544FF400414FF40D
:100EC0008032C3F80845C3F80805C3F80815C3F80D
:100ED00008255DF8044B70474FF0A04310B44FF461
:100EE00080404FF400544FF400414FF48032C3F877
:100EF0000C45C3F80C05C3F80C15C3F80C255DF8B8
:100F0000044B70470A4B195C1F298ABF09484FF0F0
:100F1000A04001F01F01D0F8043501228A4022EAE6
:100F200003011340C0F80815C0F80C35704700BF26
:100F300010CA03000003005030B44FF0A043032256
:100F40004FF400554FF480444FF400404FF480318B
:100F5000C3F83427C3F83827C3F83C27C3F8402721
:100F6000C3F80855C3F80845C3F80805C3F80815C1
:100F700030BC70470B2809D00C2809D0182809D09C
:100F8000192814BF4FF0FF3003207047002070472E
:100F9000012070470220704770B5084B05461C8839
:100FA00008460AF00CFE240444F0030403462A46D3
:100FB00020460349BDE87040FFF710BD0401002042
:100FC00014CA03002DE9F0470B780C460D2B08D806
:100FD000DFE803F01C60889B07AF070707070707D8
:100FE0000709BDE8F087584D58492888000440F0AB
:100FF0000300FFF789FB28886279E38854490004DD
:1010000040F00300BDE8F047FFF7E8BCDFF8389197
:101010005049B9F80000504DDFF874814F4E00047C
:1010200040F00300FFF770FBA768DFF868E138685D
:101030007968BA68FB680FC53B8A2B80237988F8EA
:1010400000303C210123002245488EF80030B37067
:101050003180F2703AF031FA4149034682B206F12A
:101060004800A6F8603039F027FE98F800203D4887
:10107000A5F11001334603F02DFE02460028B0D042
:10108000B9F800003849000440F00100BDE8F0471D
:10109000FFF7EABB2C4C35492088000440F00300E0
:1010A000FFF732FB4FF0A0430021314A4FF480306C
:1010B000C3F80C05C3F808152E4815683AF0FDF979
:1010C000294682B22C4B274803F0BEFE0246002878
:1010D00087D020882949000440F00100BDE8F0478E
:1010E000FFF7C2BB184B26491888000440F00300E4
:1010F000FFF70AFB4FF0A0434FF480310022C3F802
:101100000815C3F80C25BDE8F0870F4D1D49288848
:10111000000440F00300FFF7F7FA2888144B228BF5
:101120009A800004184940F00300BDE8F047FFF73B
:101130009BBB054B15491888000440F00300BDE82F
:10114000F047FFF7E1BA00BF04010020D8CB03004D
:1011500018CC030044CA030090060020B00700200A
:101160002C000020A40600207CCA0300B4CA03009F
:10117000240000200C000020AE070020D8CA030085
:1011800010CB030038CB030064CB03009CCB0300DF
:10119000120800208C06002030B5102885B016D02B
:1011A000112812D12C4C2D4A237891882C4A009278
:1011B00013F1FF3304AA18BF012302F8013D237085
:1011C0002848012303F01CFE60BB05B030BD254C50
:1011D00094F82830042B30D0234B1B786BB9204671
:1011E00003F04CFD0028F0D0204B21491888000462
:1011F00040F00100FFF788FAE7E71E4B1E491A7816
:101200001E4B0225204684F8285003F063FD002879
:10121000DBD0164B1A491888000440F00100FFF794
:1012200073FAD2E7114B17491B881B04024643F09F
:101230000100FFF719FB05B030BD204603F0D4FDD7
:101240000028C2D0094B10491888000440F0010062
:10125000FFF75AFAB9E700BFAC07002024000020CE
:10126000AE070020A40600208C0600200401002008
:1012700078CC03001208002090060020B007002060
:10128000A4CC0300CCCC030050CC030000B500205C
:1012900085B0FFF7C5F808B100F0B8F9FFF7B2F86C
:1012A00000F050FD08B100F0B1F900234FF4F03028
:1012B0004FF0A041032203E0ED0748BF41F824208E
:1012C0000133202B40FA03F503F5E074F4D14FF01D
:1012D000A04200234FF4F031C2F8081501A8C2F86B
:1012E0000C350121019302938DF80610039305F04C
:1012F000E7F805F093F9134805F0B8F9032012490F
:1013000002F004FC08B100F081F905F0A9F902F03F
:101310003DFD08B100F07AF905F0A2F90B4A034649
:101320004BF659010A4803F073FC08B100F06EF95E
:1013300005F080F9FFF7DCF80028F9D105F086F90F
:10134000F6E700BF990F000099110000C50F0000DB
:10135000A40600204B4B1978002900F091802DE95C
:10136000F04F87B0DFF828C104910024012504E084
:101370000134049BE4B29C4265D227B2DCF80060E1
:1013800016F83700A0F1200305FA03F93E4BC0F12F
:10139000200ED3E9002325FA0EFE49EA0E0905FACC
:1013A00000F808EA020A09EA030B06EBC7015AEA49
:1013B0000B0E0591DCD03449CDF810C022EA0802AA
:1013C00023EA0903C1E9002301F042FE16F8376061
:1013D000DDF810C0A6F1200205FA02F2019201998F
:1013E000C6F120035FFA80FA25FA03F3A6F1200282
:1013F00019430AFA02F30393019105FA06F10091E9
:10140000C6F120070399214B2AFA07F739430391C4
:101410000AFA06F1D3E900230291DDE90001104048
:10142000194002460B46DDE902018B4208BF8242A9
:101430004FF0000B0AD0134B1B7804930134049B2C
:10144000E4B29C4299D307B0BDE8F08F059A576883
:1014500052780023A2F10102B2FA82F25209002F5F
:10146000E9D05B4506BF5245012100213046CDF849
:1014700014C0B847034BDDF814C01B78049377E71A
:10148000704700BF1C0800204808002040080020CA
:10149000180800202DE9F8430746204800F082FD97
:1014A000D0B91F4E0123A7F1200103FA01F5C7F1BE
:1014B0002002D6E9000123FA02F2154303FA07F4E9
:1014C00004EA000205EA0103134307D020EA0404FA
:1014D00021EA0505C6E90045BDE8F883384601F074
:1014E000B7FD104FD7E9002398B144EA020845EA56
:1014F0000309D6E9002314431D43C7E90089C6E95F
:1015000000450949054809680022BDE8F84300F094
:10151000F5BC22EA040823EA0509EAE720080020CE
:10152000480800204008002014080020F0B5042AD4
:1015300083B0164602D8072003B0F0BD05460F461B
:1015400001F026FC002836D01D4BDFF88CC0DFF8F8
:101550008CE01C481C491D60002200237C1E8CF876
:101560000070CEF80060C0E90023C1E90023E4B2B6
:10157000DFB10327002600E01C4623B205EBC302BF
:1015800015F833009378114A8DF8053001A98DF8CC
:1015900004708DF806608DF8076001F003FC631E8F
:1015A0000028C9D1DBB2002CE6D1094A0948002144
:1015B00000F092FCC0E701F0A5FB0028C4D0BBE717
:1015C000180800204008002048080020951400005A
:1015D0005513000004CD03001C080020140800204F
:1015E00070B5084D2B785BB1074E0024336801219C
:1015F00013F8340001F0B0FC2B780134A342F5D885
:10160000002070BD1C0800201808002000B585B01F
:1016100000230390194644F2010001AAADF80430FA
:10162000029300F003F805B05DF804FB10B5FFF776
:10163000C3FAFEF75DFF0028FBD1104C104920884B
:10164000000440F00100FFF75FF80E4B1B68DB075A
:1016500000D5FFDE20880C49000440F00200FFF7AF
:1016600053F8BFF34F8F0949094BCA6802F4E0628F
:101670001343CB60BFF34F8F00BFFDE70401002091
:1016800008CD0300F0ED00E014CD030000ED00E014
:101690000400FA05F8B5204A204B0025C2F8405155
:1016A000C2F84451C2F84851C2F84C51C2F8005136
:1016B000C2F804511B6813B31949D2F804250C6809
:1016C000141B1A6824F07F44A2422F4609D8197CC3
:1016D000DE69A41A154499B91EB133461A68A242AC
:1016E000F5D9104B10491A780B789A420DD00F4952
:1016F0000F4A41F823504FF48013C2F80031F8BD6F
:101700001F745A6998699047E6E7531CDBB2022BB5
:1017100008BF00230B70EAE70010014054080020C6
:1017200050080020580800205908002068090020AF
:1017300000E100E02DE9F04F7D4A7E4913780978F9
:101740007D48994287B0066800F0E8810133DBB23A
:10175000022B08BF002379491370794A0291084689
:1017600052F82310036874488A19002522F07F423A
:101770000260AE462846A3B11A688A4200F2D681BA
:10178000DC68C3F800E0891A1044DA6934B18719BB
:1017900027F07F47DD619C605F601D461346002B8C
:1017A000EAD1029A04931360049C01230593654BCC
:1017B000DFF894811B7801935F4BDFF890C1D3F879
:1017C00000A0029B1F680023BB462F460093C14622
:1017D0001E464FF0010E37B37A68B9683D46FF697F
:1017E000CAEB020323F07F4363453CD80B442B60D4
:1017F0006E60AE6085F810E0EE61002C67D0216865
:101800008B4242D9204603E01168994244D21046E7
:10181000C2695B1A002AF7D12B60EA612346C561D1
:101820001C46002FD8D198F8003098F801209A4231
:1018300000F08E805A1C03EB430308EBC30399F8B6
:1018400002109D68D2B2914289F800201A7908BF2F
:1018500089F80070022A48D0032A3CD0012A22D0FD
:1018600023461C46DDE7C2EB0A0222F07F428A4291
:1018700002D28B1A2B60BBE72E606E60AE6085F8DB
:1018800010E0EE611CB321680023CB1A23602B46C5
:10189000EC61AB461C46C4E7C91A11602B60EA61D3
:1018A0002346C561BCE72A7C0392002AD8D1DA68B6
:1018B0006A601969A9605869E86010339B68AB6178
:1018C000019B002B8CD0039B6B601A4688E72B464C
:1018D000AB461C46A5E70CB9C2E71C46E369267473
:1018E000002BFAD19B461C469BE754B1A54200F061
:1018F0000881234602E0954207D01346DA69002AA0
:10190000F9D123462E741C468BE7AB4200F0FA80D7
:10191000E9692868D9610029F3D023460A6802449E
:101920000A60009A2E749C4218BF01220092EAE7D6
:1019300058080020590800205008002054080020B2
:10194000680900205A0800205C080020FEFF7F0084
:10195000029B9DF80420C3F800B0764BC3F800A0AA
:10196000754B1A70009B1BB9049BA34200F0D081F9
:10197000002C00F03C81714D6E4BD5F804051B68BE
:101980006F4ED4F800C03178C21A22F07F42033281
:10199000002952D16B4FDFF8B091DFF8B0814FF4DE
:1019A00080314FF4003E0124C5F84413C5F80413F8
:1019B000C7F880E1C7F800E02C602F21D9F800506B
:1019C00000BF00BF00BF00BF00BF00BF00BF00BF1F
:1019D00045452FD000BF00BF00BF00BF00BF00BF04
:1019E00000BF00BF00BF00BF00BF00BF00BF00BFFF
:1019F00000BF00BF00BF00BF00BF00BF00BF00BFEF
:101A000000BF00BF00BF00BF00BF00BF00BF00BFDE
:101A100000BF00BF00BF00BF00BF00BF00BF00BFCE
:101A200000BF00BF00BF00BF00BF00BF00BF00BFBE
:101A300000BF00BF0139C3D1347062452CBF9A1872
:101A400003EB0C023D4922F07F43C1F84035D1F849
:101A50000425121A1B1A22F07F4223F07F4303321F
:101A60009A4248D9D1F80435374AC1F8403512684E
:101A700036492F2300BF00BF00BF00BF00BF00BF1B
:101A800000BF00BF8A422FD000BF00BF00BF00BF11
:101A900000BF00BF00BF00BF00BF00BF00BF00BF4E
:101AA00000BF00BF00BF00BF00BF00BF00BF00BF3E
:101AB00000BF00BF00BF00BF00BF00BF00BF00BF2E
:101AC00000BF00BF00BF00BF00BF00BF00BF00BF1E
:101AD00000BF00BF00BF00BF00BF00BF00BF00BF0E
:101AE00000BF00BF00BF00BF013BC3D1154B4FF487
:101AF0000032C3F80021104A0023137007B0BDE87C
:101B0000F08F2246D4F81CB0BBF1000F22D0D1696F
:101B100010685B4600297FF401AF02E70C4B02938B
:101B20001B680493002505951C4640E6521A1A606E
:101B300037E600BF500800205A080020001001407E
:101B40007009002000E100E0400000200024F400C3
:101B5000540800207549764BC1F808E075492F20DC
:101B6000096800BF00BF00BF00BF00BF00BF00BFCB
:101B700000BF99422FD000BF00BF00BF00BF00BF11
:101B800000BF00BF00BF00BF00BF00BF00BF00BF5D
:101B900000BF00BF00BF00BF00BF00BF00BF00BF4D
:101BA00000BF00BF00BF00BF00BF00BF00BF00BF3D
:101BB00000BF00BF00BF00BF00BF00BF00BF00BF2D
:101BC00000BF00BF00BF00BF00BF00BF00BF00BF1D
:101BD00000BF00BF00BF0138C3D1D1691068002920
:101BE00000F09B800122DA465B46019296E64F4A5E
:101BF000514B504E4E484FF480314FF40037012581
:101C0000C3F88070C2F848132F23C2F80813556038
:101C100031681E4600BF00BF00BF00BF00BF00BF4D
:101C200000BF00BF81422FD000BF00BF00BF00BF78
:101C300000BF00BF00BF00BF00BF00BF00BF00BFAC
:101C400000BF00BF00BF00BF00BF00BF00BF00BF9C
:101C500000BF00BF00BF00BF00BF00BF00BF00BF8C
:101C600000BF00BF00BF00BF00BF00BF00BF00BF7C
:101C700000BF00BF00BF00BF00BF00BF00BF00BF6C
:101C800000BF00BF00BF00BF013EC3D195602B4A1B
:101C9000146000BF00BF00BF00BF00BF00BF00BF97
:101CA00000BF81422FD000BF00BF00BF00BF00BFF8
:101CB00000BF00BF00BF00BF00BF00BF00BF00BF2C
:101CC00000BF00BF00BF00BF00BF00BF00BF00BF1C
:101CD00000BF00BF00BF00BF00BF00BF00BF00BF0C
:101CE00000BF00BF00BF00BF00BF00BF00BF00BFFC
:101CF00000BF00BF00BF00BF00BF00BF00BF00BFEC
:101D000000BF00BF00BF013BC3D10D4B1C70F2E60A
:101D1000059B002B3FF4EFAE2AE601231A46019300
:101D20008A468B460B4600922E74ECE5001001406B
:101D30000024F4004000002000E100E050080020F2
:101D4000700900202DE9F041594B5A4A5A4D5B4E1B
:101D50004FF480344FF400310120C2F88010C3F8F2
:101D600048432F21C3F8084358602D680C4600BF34
:101D700000BF00BF00BF00BF00BF00BF00BFB54233
:101D80002FD000BF00BF00BF00BF00BF00BF00BF1B
:101D900000BF00BF00BF00BF00BF00BF00BF00BF4B
:101DA00000BF00BF00BF00BF00BF00BF00BF00BF3B
:101DB00000BF00BF00BF00BF00BF00BF00BF00BF2B
:101DC00000BF00BF00BF00BF00BF00BF00BF00BF1B
:101DD00000BF00BF00BF00BF00BF00BF00BF00BF0B
:101DE00000BF013CC3D1364C98600020206000BF8A
:101DF00000BF00BF00BF00BF00BF00BF00BFB542B3
:101E00002FD000BF00BF00BF00BF00BF00BF00BF9A
:101E100000BF00BF00BF00BF00BF00BF00BF00BFCA
:101E200000BF00BF00BF00BF00BF00BF00BF00BFBA
:101E300000BF00BF00BF00BF00BF00BF00BF00BFAA
:101E400000BF00BF00BF00BF00BF00BF00BF00BF9A
:101E500000BF00BF00BF00BF00BF00BF00BF00BF8A
:101E600000BF0139C3D1174D1749DFF86080DFF893
:101E700060C0DFF860E028704FF48016E0250B2783
:101E8000C8F800008CF800008EF800000870487058
:101E90008F70C2F8806182F814531660C3F8080589
:101EA00082F81153D3F804352360BDE8F08100BFF8
:101EB0000010014000E100E0400000200024F40098
:101EC00050080020700900205C0800205408002001
:101ED0005808002059080020074B9B780BB90820B0
:101EE00070473AB130B10368187C0028F7D15974B3
:101EF0005A617047072070475C0800202DE9F041C7
:101F0000254CA37813B90820BDE8F0810028FAD049
:101F1000042902D80720BDE8F0814369002BF2D0E4
:101F2000437C0546012B4FF000000CBF88468046DD
:101F300017460E4600F072F86378A07821785A1C94
:101F4000D2B2904208BF002291421ED003EB43035D
:101F500004EBC30319464FF0010E41F8085F0F4828
:101F600083F804E0D0F8040548608E600020C3F8D0
:101F700014809F61627000F059F8094B4FF4801291
:101F8000C3F800210020BDE8F081002000F04EF8E9
:101F90000420BDE8F08100BF5C0800200010014073
:101FA00000E100E070B5184CA3780BB9082070BDB3
:101FB0000028FBD04369002BF8D0002505740646A5
:101FC000284600F02BF86278A0782178531CDBB209
:101FD000984208BF2B46994211D002EB420204EB13
:101FE000C2020221284696601171637000F01EF84B
:101FF000064B4FF48012C3F80021284670BD2846D6
:1020000000F014F8042070BD5C08002000E100E03E
:10201000014BD3F8040570470010014072B6024A24
:10202000136801331360704774090020034A136872
:10203000013B136003B962B6704700BF740900200A
:102040000B685A1EFF2A02D948F207107047202B4E
:10205000F0B51AD802220023174CDFF868E054F8D4
:102060002240DEF80060154F082B34BF02250325FF
:1020700026FA03F2D20757F825500FD401330C2B60
:102080002C44F1D148F20410F0BD402BE2D9802B52
:102090008BBF0322022208230023DDE7084A012721
:1020A00007FA03F31444046026EA0306CEF800603E
:1020B00000200D60F0BD00BF4CCD030024CD030017
:1020C000780900207C110020054A064913686FEA50
:1020D00013336FEA03330120087013600020704748
:1020E0007C1100207811002000B50A4B83B01B78CA
:1020F0000190002200921BB9002003B05DF804FBA0
:10210000684601A9FFF79CFF0028F5D1009803B0AD
:102110005DF804FB78110020284B1B78C3B3B8B3DB
:10212000274B984235D003F18002904233D003F51B
:102130008072904237D003F5C072904231D003F5DF
:102140000072904237D003F52072904231D003F5EF
:10215000407290422BD003F56073984225D0194B02
:1021600098421CD003F58072904216D003F500729D
:10217000904208BF0A2004D003F54073984207D16B
:102180000B20114901220B68824013430B607047FA
:1021900070470020F5E70120F3E70920F1E7082068
:1021A000EFE70320EDE70220EBE70720E9E7062051
:1021B000E7E70520E5E70420E3E700BF781100200A
:1021C00078090020780D00207C110020B8B130B4CF
:1021D000416882680468521AD2B2531E2160DBB291
:1021E00042B101680A685C1E551C0D601370E3B2B1
:1021F000FF2BF6D103680020187130BC70470E2009
:10220000704700BF70B504460020FFF707FF236842
:1022100061681A688A4215D9511E19602168A3683D
:102220000D68087912F8016C228AE4685B1BDBB246
:10223000984206FB024400D20B710020FFF7F6FE25
:10224000204670BD00240020FFF7F0FE204670BD40
:1022500038B5054600200C46FFF7E0FE2A681368F3
:10226000591C1160E9682A8A641AB4FBF2F41C70E4
:102270000020BDE83840FFF7D9BE00BF826802B930
:10228000704710B5044643692168006998470023E8
:10229000A36010BD0EB400B582B0039929B102AAA3
:1022A00004AB42F8043D00F089F802B05DF804EB9D
:1022B00003B070472DE9F84F1746B9428A460646E3
:1022C0001D46DDF828B00B9A73D30B464FF001087A
:1022D000B3FBF7F39F4208F10108F9D9A84538BFCD
:1022E000A84612F0010902D1BBF1000F41D1B1683B
:1022F000012402E0013D07FB04F4012DFAD8BAFBEA
:10230000F4F39F42F7D92C4D02E0B168BAFBF4F325
:102310004A1CB2603268E85C5054B06872689042FF
:1023200004FB13AA02D33046FFF7A8FFB4FBF7F46F
:10233000002CEAD1B9F1000F15D0BBF1000F12D07B
:10234000C34510D92024B3683268591CB160D454F5
:10235000B26873689A420BF1FF3B06D2BBF1000FE3
:1023600001D0C345EFD8BDE8F88F3046FFF786FFB0
:10237000F4E7930718D42024C345B8D9B16833686B
:102380004A1CB2605C54B168736899420BF1FF3B20
:1023900005D2BBF1000FABD0C345F0D8A8E730465B
:1023A000FFF76CFFB168F4E7002D14BF2024302440
:1023B000E2E74FF0010891E770CD03002DE9F04FFF
:1023C0000D4685B0002900F0B2800B78DFF8E8A454
:1023D000064691460135002B00F0A580252B40F0E4
:1023E000A28129464FF000080D4611F8013B2D2B24
:1023F00000F09381302B00F093812B2B00F085812E
:102400002A2B00F09E81A3F13002092A00F2BE813E
:102410006A1C002404EB840403EB44042A2BA4F17B
:102420003004154600F08E811378A3F1300109299C
:1024300005F10102EED91A462E2A00F090810027FC
:1024400001E015F8012F02F0FB03682BF9D0253AC3
:10245000532A63D8DFE812F02701620062006200AD
:10246000620062006200620062006200620062005C
:10247000620062006200620062006200620062004C
:10248000620062006200620062006200620062003C
:10249000620062006200620062006200620062002C
:1024A000620062006200620062006200620062001C
:1024B00062006200620062006200620062004A0123
:1024C00062006200620062006200620062006200FC
:1024D000620062003601CE006200620062006200AB
:1024E000CE00620062006200620062006200A90029
:1024F000620062006E0062005400620062004A01E5
:10250000D9F800301A1DC9F80020196800943B461C
:10251000CDF8048030460A22FFF7CCFE01352B7837
:10252000002B7FF457AF337B002B40F06C8105B05C
:10253000BDE8F08FD9F800301A1DC9F8002018F056
:10254000010F1F6840F02581002F00F0A58138465B
:1025500038F0B3FF8046444515D9A4B14FF0200BA5
:1025600000E084B1B2683368511CB16003F802B076
:10257000B26873689A4204F1FF3402D33046FFF721
:102580007DFE4445EDD8013F17F8013F002BC5D033
:10259000B2683168501CB0608B54B26873689A425C
:1025A000F2D33046FFF76AFEEEE7D9F80020131D9C
:1025B000C9F80030B36831681468581C3022B06024
:1025C000CA54B3687268934280F018813268581C0C
:1025D0007821B060D154B26873689A4280F00A8161
:1025E0000823002201922146009330461022FFF773
:1025F00061FE93E7D9F800301A1DC9F80020D3F81E
:1026000000B08BEAEB73A3EBEB73092B4FF00101E6
:1026100008DD8AFB0302DB17C3EBA203092B01F1E0
:102620000101F6DCB94238BF394634B1BBF1000FC5
:1026300002DB18F0040F00D0013C18F0020F40F04C
:10264000D58018F0010F18D1002C00F006818C42C3
:1026500013D94FF0200CB2683368501CB06003F8F7
:1026600002C0B26873689A4204F1FF3480F0F780C8
:10267000002C00F0F2808C42EDD8BBF1000FC0F2CC
:102680000D8118F0040F40F0F48008F00303022BD2
:1026900000F0BF808DE8100159463B4630460A22C3
:1026A000FFF708FE3AE7B3683268581C2521B0608E
:1026B000D154B26873689A42FFF430AF3046FFF7E6
:1026C000DDFD2BE7D9F80020131DC9F80030B368F1
:1026D00031681278581CB060CA54B26873689A4264
:1026E000FFF41CAF3046FFF7C9FD17E7D9F80030FB
:1026F0001A1DC9F80020196800943B46CDF80480E3
:1027000030461022FFF7D6FD08E70D4611F8013BD1
:102710002D2B48F004087FF46DAE48F0010863E605
:1027200048F0020860E6B2683168501CB0608B5413
:10273000B26873689A42FFF4F2AE3046FFF79EFD2E
:10274000EDE60024D9F800301A1DC9F800206A7897
:102750001B682E2A1C4405F101057FF470AE6A78CF
:10276000A2F13003092B05F101054FF000073FF6F8
:102770006AAE07EB870702EB470715F8012FA2F1B6
:102780003003092BA7F13007F3D95CE61A46002481
:1027900052E6B846C7EB080B18F8012B8AB1B168AE
:1027A0003368481CB0605A54B26873689A42F1D3D7
:1027B0003046FFF763FDC7EB080B18F8012B002A22
:1027C000EDD15C457FF6AAAE2027B3683268591C6C
:1027D000B160D754B26873689A4204F1FF3402D3EF
:1027E0003046FFF74BFD5C45EFD897E6002F3FF4EE
:1027F00044AF26E73046FFF741FDF1E63046FFF7EC
:102800003DFDB368E2E6304605B0BDE8F04FFFF7A6
:1028100035BD002F7FF43EAF002C3BD08C427FF6BD
:1028200039AF4FF0300CB2683368501CB06003F819
:1028300002C0B26873689A4204F1FF3403D24CB309
:102840008C42F0D826E73046CDF80CC00291FFF755
:1028500015FDDDF80CC00299F1E700240DE73046C4
:10286000CDF80CC00291FFF709FDDDF80CC002990C
:10287000FEE6B268531CB36033682B209854B268EC
:1028800073689A42FFF401AF30460291FFF7F6FCFD
:102890000299FAE60024FDE6B8465CE6B268531CED
:1028A000B36033682D209854B26873689A42CBF1B4
:1028B000000BFFF4EAAEE7E767666666FFF786BCE3
:1028C0002DE9F041B0F81080A8F104084144CF1C74
:1028D0000646FFF797FCB7FBF8F7044678B3FFB25C
:1028E00000250123013FA0F80680066005714371B1
:1028F00028D0804609E06379AF4203F10103637198
:10290000C8F80000066080461CD03046FFF77AFC0D
:1029100001350028EFD16679721E234603D00130BD
:1029200082421B68FBD81F684EB1002523682146F0
:10293000013538461C46FFF78BFCAE42F6D100202D
:10294000BDE8F0812046BDE8F08100BF10B404303E
:10295000012350E8002F02EB030140E8001494F03B
:10296000000FF6D15DF8044B704700BF0146021D11
:10297000F8B5012052E8004FA4EB000342E800350F
:1029800095F0000FF6D113F0FF0300D0F8BD4E799B
:10299000701E0A4603D0013398421268FBD81768AC
:1029A000002EF3D000240D6801343846FFF750FCA8
:1029B000A6422946F7D1F8BD2DE9F0410446181D7D
:1029C000E688B0FBF6F30F46154606FB130013B17D
:1029D000013B2468FCD1321AAA4228BF2A468DB195
:1029E0004FF000082044AD1A07EB08010430904472
:1029F00038F062F9B5422A46246828BF32460020E2
:102A0000002DEFD1BDE8F0812DE9F041C6880433F7
:102A100004460F46B3FBF6F0154606FB103110B125
:102A200001382468FCD1721AAA4228BF2A468DB107
:102A30004FF000082144AD1A043107EB0800904420
:102A400038F03AF9B5422A46246828BF32460021B8
:102A5000002DEFD1BDE8F08110B50C4C23780BB1FF
:102A6000852010BD0A4A6360E3601068A36010F01F
:102A70000100236102D1072100F01CF94FF08042D0
:102A80000123C2F818352370002010BD80110020EA
:102A900000E100E030B51B4DAB78044683B003F095
:102AA000FF0073B114B16368012098470020FFF75D
:102AB000B5FAEB6800200133EB60FFF7B7FA03B01B
:102AC00030BDFFF7ABFA64B12A6942B1944208D035
:102AD000134601E09C4204D01B68002BFAD122600F
:102AE0002C61EB68002BE4D1074A08491360136896
:102AF00001934FF0804202200123019CC2F804039D
:102B00000B60D6E78011002004010040080000405F
:102B100008B50020FFF782FA0B49CB68013BCB6078
:102B2000CB685BB9094B01221A604FF08042D2F8A2
:102B30001834C3F30043002BF9D18B700020BDE89B
:102B40000840FFF773BA00BF801100200C0000405E
:102B50004FF08043D3F81804C0F30040704700BF23
:102B600030B51A4D6B78044683B003F0FF0073B1A3
:102B700014B16368002098470020FFF74FFA6B6894
:102B8000002001336B60FFF751FA03B030BDFFF74F
:102B900045FA64B1AA6842B1944208D0134601E0F4
:102BA0009C4204D01B68002BFAD12260AC606B6899
:102BB000002BE4D1064A1360136801934FF0804361
:102BC00001220199C3F804231A60D8E7801100207C
:102BD0000001004008B50020FFF720FA0C494B68BF
:102BE000013B4B604B686BB90A4B01221A604FF0F6
:102BF0008042D2F80C3403F00113B3F1011FF8D076
:102C000000234B700020BDE80840FFF70FBA00BF5B
:102C100080110020040000404FF08043D3F80C04E2
:102C200000F00110A0F10110B0FA80F040097047E7
:102C300010B51D4B1A6882B0F2B91C4B1A680AB95C
:102C400002B010BD00221A601B6801934FF0804350
:102C50000222174C0199C3F8082323690122A270AC
:102C6000002BEDD01A6822615B6801209847236928
:102C7000002BF7D102B010BD00221A601B68009330
:102C80004FF0804301220A4C0099C3F80823A3683F
:102C90006270002BD1D01A68A2605B680020984750
:102CA000A368002BF7D1C8E70001004004010040F1
:102CB00080110020002810B418DB00F1604303F5F8
:102CC00061434901C9B283F80013C3B240098000CF
:102CD00000F1604000F5614003F01F0201239340C2
:102CE000C0F8803103605DF8044B7047C3B2044AFA
:102CF00003F00F0449012244C9B21176E6E700BF90
:102D0000FCEC00E030B51F4C94F8645083B015B172
:102D1000082003B030BD4FF0FF33FF22062007210B
:102D200023636363A363E36323646364A364E3646F
:102D300023656365A365E36523606360A360E36067
:102D400023616361A361E361236284F8603063629D
:102D5000A36284F86230E36284F8633084F861200F
:102D6000FFF7A8FF084B094A1D601B6801930198F3
:102D70004FF000430121284684F86410C2F8043360
:102D800003B030BD941100207C6100400060004021
:102D9000034B93F86400003018BF0120704700BF58
:102DA00094110020F0B56A4C251895F93030002BAD
:102DB00001DB0820F0BD91F803E09446BEF1000F5E
:102DC00056D02368013300F0BB80082600256B1C19
:102DD0005F4F54F82320013251D0AB1C9E4245D99D
:102DE00057F8232001324AD0EB1C9E423ED957F8B7
:102DF0002320013243D02B1D9E4237D957F8232080
:102E000001323CD06B1D9E4230D957F823700137F8
:102E100035D0AB1D9E4229D954F823204C4F0132A6
:102E20002DD0EB1D9E4221D957F82320013226D008
:102E300005F108039E4219D957F8232001321ED00C
:102E400005F109039E4211D957F82320013216D00B
:102E500005F10A039E4209D957F8237001370ED0B5
:102E60000B35AE4202D9E36A013307D00420F0BD2E
:102E7000236A01335CD00C260825A8E70B2326180B
:102E8000DDB244F823C0324686F83050BEF1000F60
:102E900002D1234483F858008B78DBB91F284A7885
:102EA00087BF2C4E00F01F0303464FF0A04603F5EA
:102EB000E073920046F82320CB78E3B96AB2083A6F
:102EC0001444097894F8602042EA811284F8602062
:102ED0001846F0BD1F2887BF1E4B00F01F02024698
:102EE0004FF0A04303EB8203D3F8002722F0020245
:102EF000C3F80027E0E76BB29B0003F1804303F5C2
:102F0000C0430A78D3F8101521F44F3121F44071F1
:102F1000C3F810151204000202F44031D3F8104532
:102F200000F47C520A432243C3F810250020F0BD70
:102F3000082685F830603346C4F820C03546A8E737
:102F4000002385F83030C4F800C01D46A4E700BF58
:102F50009411002000030050F0B43A4D2E1882B0B6
:102F600096F8302053B2072B20DD2B4493F85830CD
:102F70009B09032B44D0012B0CBF4FF400324FF4BC
:102F800040321F2849D900F01F002F4B03EB80006F
:102F9000D0F8003723F44033C0F80037D0F80037BA
:102FA0001A43C0F8002702B0F0BC7047072AFAD8CD
:102FB000980000F1804000F5C04003F1400292000B
:102FC000D0F8104592B202F18042002744F001048B
:102FD00002F5C042C0F8104501970198176000291A
:102FE000E1D096F9302055F82220002ADBD00122CA
:102FF000164902FA03F3C1F8043302B0F0BC70477B
:103000001F280DD9104BD3F8103500F01F00C34016
:10301000DB0713D54FF44032B7E74FF0A043B5E7D5
:103020004FF0A0421346D2F81025C24012F0010F13
:103030000CBF4FF400324FF44032A7E74FF4003298
:10304000A3E700BF9411002000030050006000407F
:103050001F288ABF054B4FF0A04300F01F00D3F894
:10306000103523FA00F000F0010070470003005013
:103070002DE9F04F89B00025B24B029503951A68EF
:10308000012A00F05081B04B1A68012A00F03D81FE
:10309000AE4B1A68012A00F02A81AD4B1A68012A4A
:1030A00000F01781AB4B1A68012A00F00481AA4B8B
:1030B0001A68012A00F0F180A84B1A68012A00F072
:1030C000DE80A74B1A68012A00F0CB80A54B1A6856
:1030D000012A00F0B58015F0FF0F1AD0A24F01268B
:1030E0000024A30003F180432E4203F5C0434FEABE
:1030F00046060BD0D3F8100557F82420D3F8101546
:10310000C0F30520C1F3014102B190470134082CFE
:10311000E7D1002D02DB09B0BDE8F08F934F00220C
:103120004FF0FF33A7F163090492059206930793CA
:103130008F4C4FF0000A4FF0010814F8013FFF2BAD
:1031400030D0DBB223F0C00008AAC608951903F0FE
:10315000070215F8081C08FA02F2114222D009EB06
:10316000000E99099EF930E059F82EC0BCF1000F0D
:1031700056D0032956D01F288ABF03F01F060646E3
:10318000DFF8F0E115F818BC98BF4FF0A04E06F537
:10319000E0761BEA020F5EF82650C5F301451AD10E
:1031A000032D48D0BC42C8D1BAF1000FB3D04FF0C4
:1031B000A0430299D3F810356E4A9942D2F81025EF
:1031C00002D103999142A6D00498059902930392E3
:1031D00006900791ACE7022DE4D1032904D0BCF19D
:1031E000000FDFD0E047DDE74FF440321F288BBFF0
:1031F000604D4FF0A04503F01F03034605EB83032A
:103200000AF1010AD3F8005725F44035C3F80057F6
:10321000D3F800572A435FFA8AFAC3F80027DEE79B
:103220000329BFD10DF1100B1BF806E04EEA020E88
:103230000BF806E09FE70329D1D14FF40032D5E720
:1032400000221A601B6801934FF0A042019BD2F844
:103250001025484B0292D3F81035039345F00045F2
:1032600039E7454AD2F8042312067FF52FAF002232
:103270001A601B680093009B45F0800526E73E4AD4
:10328000D2F8042351067FF51CAF00221A601B6898
:103290000093009B45F0400513E7374AD2F804231A
:1032A00090067FF509AF00221A601B680093009B0F
:1032B00045F0200500E7304AD2F80423D4067FF514
:1032C000F6AE00221A601B680093009B45F01005C3
:1032D000EDE6294AD2F8042316077FF5E3AE002273
:1032E0001A601B680093009B45F00805DAE6224A45
:1032F000D2F8042357077FF5D0AE00221A601B686E
:103300000093009B45F00405C7E61B4AD2F804234E
:1033100092077FF5BDAE00221A601B680093009BE8
:1033200045F00205B4E61449D1F8041311F0010187
:1033300005D01D601B680093009B1546A3E60D4653
:10334000A1E600BF00610040046100400861004048
:103350000C610040106100401461004018610040A1
:103360001C6100407C61004094110020F711002096
:10337000F311002000030050006000400B4A0223BC
:10338000C2F80435BFF36F8FBFF34F8FC2F8080543
:10339000D2F800340549002BFAD00023C1F80435D7
:1033A000BFF36F8FBFF34F8F704700BF00E0014046
:1033B00082B32DE9F047184C0D468E18401AA046EE
:1033C0004FF0FF0C4FF0010E0027431903F00301EB
:1033D00023EA0103C900D3F8009015F8012BC4F8C3
:1033E00004E50CFA01FA29EA0A09BFF36F8FBFF36B
:1033F0004F8F8A404A441A60D4F80034002BFBD027
:10340000C8F80475BFF36F8FBFF34F8FB542DCD19F
:10341000BDE8F087704700BF00E001400220FDF7E3
:1034200071BD00BF2DE9F0470D460646FDF7A2FD30
:10343000032804461DD8012D1FD00ED3022D1AD10A
:103440001C4B00EB40041C44657895B11A4B1B687B
:103450007BB12846BDE8F04718471848FEF7A2FDA3
:103460001449174A04EB44030B44155D9B789D42B5
:10347000EBD0BDE8F087BDE8F087DFF83880470083
:103480003B1808EB030218F8035053782BB9274474
:1034900047440B4BBA781A55D7E7DFF8289007480E
:1034A0004A464FF40041FEF729FD0028EFD189F884
:1034B0000060ECE7741200204C1200205012002033
:1034C0001C1200207112002010B50078FDF752FD8B
:1034D00003280BD8064B00EB40001844407828B175
:1034E000044B1B6813B1BDE81040184710BD00BF66
:1034F000741200204C120020B34B1B68DB0700D471
:10350000704770B5B14EB24D33782C78FBB9172C9B
:103510001CD8DFE814F0F1001401140163007600F8
:10352000830096005D0039002C0039002C00A300B8
:10353000A800A800A800A800A800CE00DE00010195
:10354000460018001800FDF7C7FC2C7070BDA14B99
:103550001B7800203070002B00F00581FDF794FCF3
:103560000120FDF791FC0320FDF78EFCCFE701233E
:1035700018463370FDF7C6FC97484FF4804100228F
:10358000BDE87040FEF7BABC012318463370FDF762
:10359000B9FC914840F6CD410022BDE87040FEF7ED
:1035A000ADBC8C4B1B78002B00F0FE800020FDF79B
:1035B0006BFC0120FDF768FC0320FDF765FC002093
:1035C000FDF74EFC0120FDF74BFC15232B7070BD61
:1035D0000020FDF745FC07232B7070BD0020FDF790
:1035E00029FC002800F0D3800020FDF74DFC46F2B6
:1035F000666103232B7078480022BDE87040FEF717
:103600007DBC0020FDF716FC002800F0C5800020DE
:10361000FDF73AFC4FF400310423EBE70020FDF7FF
:1036200009FC002800F0BD800020FDF72DFC0523DB
:103630002B70694841F69A110022BDE87040FEF7F0
:103640005DBC0020FDF75EFC06232B70624840F64F
:10365000CD410022BDE87040FEF750BCFDF73CFCB8
:103660000C232B7070BD5D48FEF79CFCD4F1110457
:1036700005467BD0002879D1012C13D0C82303FB49
:1036800004F44FF4FA704FF400430021C3FB04012B
:103690004FF47A72002338F06DFE2A4601464F48F7
:1036A000FEF72CFC0220FDF7DBFB4A4B01221A70CF
:1036B00070BD484B1B78002B79D00020FDF7E4FB50
:1036C0000120FDF7E1FB0320FDF7DEFB12232B7049
:1036D00070BD404B1B78002B6FD00020FDF7D4FB52
:1036E0000120FDF7D1FB0320FDF7CEFB0020FDF705
:1036F000B7FB13232B7070BD364B1B78002B59D0B2
:103700000020FDF7C1FB0120FDF7BEFB0320FDF704
:10371000BBFB00232B7070BD2E4B1B78002B4FD0B2
:103720000020FDF7B1FB0120FDF7AEFB0320FDF704
:10373000ABFB0120FDF794FB14232B7070BD002020
:10374000FDF778FBC8B10020FDF79EFB022C4EF27E
:10375000666118BF4FF400312C701F480022BDE88D
:103760007040FEF7CBBBFDF7A1FBD0E60220FDF7D2
:103770008BFB184B00221A7070BDFDF771FB41F6F0
:103780009A1343F23331022C08BF1946E4E7FDF7E0
:1037900067FB41F69A112CE7FDF762FB43F23331E8
:1037A0003AE7FDF75DFB42E7FDF780FB07E7FDF732
:1037B0007DFB8BE7FDF77AFBABE7FDF777FB95E742
:1037C000FDF774FBB5E700BF44120020481200204B
:1037D0007012002040120020FC1100202012002056
:1037E00038B5C44B1B6813F0010401D1204638BD25
:1037F000C14C23780546E3B9172D00F27881DFE844
:1038000015F00B013101310169007D009100A50027
:103810005B003500280035002800B300BA00BA006C
:10382000BA00BA00BA00E300F6001C0142006300CF
:103830006300B24B1B7800202070002B00F0278122
:10384000FDF722FB0120FDF71FFB0320FDF71CFB0A
:10385000D2E7012318462370FDF754FBA8484FF424
:1038600080410022BDE83840FEF748BB01231846DE
:103870002370FDF747FBA24840F6CD410022BDE88A
:103880003840FEF73BBB9D4B1B78002B00F020819E
:103890000020FDF7F9FA0120FDF7F6FA0320FDF705
:1038A000F3FA0020FDF7DCFA0120FDF7D9FA954B79
:1038B00015221A70002499E70020FDF7D1FA914BE8
:1038C00007221A70002491E7FDF706FB8D4B0024B8
:1038D0001D708BE70020FDF7ADFA002800F0E180B5
:1038E0000020FDF7D1FA46F26661864B8448032436
:1038F0001C700022BDE83840FEF700BB0020FDF739
:1039000099FA002800F0DC800020FDF7BDFA4FF4A2
:1039100000317C4B7A4804241C700022BDE83840FA
:10392000FEF7ECBA0020FDF785FA002800F0CD8004
:103930000020FDF7A9FA734B714805241C7041F66D
:103940009A110022BDE83840FEF7D8BA0020FDF7F2
:10395000D9FA6C4B6A4806241C7040F6CD4100220F
:10396000BDE83840FEF7CABAFDF7B6FA654B0C223F
:103970001A7000243AE76448FEF714FBD5F11105EC
:10398000044600F08780002840F08480012D14D088
:10399000C82303FB05F54FF4FA704FF400430021F0
:1039A000C3FB05014FF47A72002338F0E3FC224692
:1039B00001465548FEF7A2FA04460220FDF750FAE8
:1039C0004E4B01221A7011E74C4B1B78002B00F074
:1039D00082800020FDF758FA0120FDF755FA0320F8
:1039E000FDF752FA474B12221A700024FEE6434BB1
:1039F0001B78002B75D00020FDF746FA0120FDF75B
:103A000043FA0320FDF740FA0020FDF729FA3D4B69
:103A100013221A700024E9E6384B1B78002B5DD086
:103A20000020FDF731FA0120FDF72EFA0320FDF703
:103A30002BFA344B00241C70D8E6304B1B78002B3B
:103A400052D00020FDF720FA0120FDF71DFA0320D7
:103A5000FDF71AFA0120FDF703FA2A4B14221A7017
:103A60000024C3E60020FDF7E5F9F8B10020FDF7DA
:103A70000BFA022D4EF2666118BF4FF40031214B54
:103A80001F481D700022BDE83840FEF737BAFDF729
:103A90000DFAB1E60220FDF7F7F9184B00221A7073
:103AA000A4E6FDF7DDF941F69A111EE7FDF7D8F916
:103AB00041F69A1343F23331022D08BF1946DEE76F
:103AC000FDF7CEF943F2333123E7FDF7C9F932E7C9
:103AD000FDF7ECF9E5E6FDF7E9F983E7FDF7E6F92F
:103AE000A7E7FDF7E3F98FE7FDF7E0F9B2E7002478
:103AF0007CE600BF44120020481200204012002043
:103B0000FC1100207012002020120020F0B5214A84
:103B1000214B1060044610F0020083B0196015D0EC
:103B20001E4B1F484FF00E0E0F27102611250421A3
:103B300040F2666283F800E0DF709E715D72FDF70F
:103B4000F5FCA0B1E3071DD403B0F0BDE20719D422
:103B50001448154A0021FEF7BFF90028F4D1134894
:103B6000134A012103B0BDE8F040FEF7B5B9FDF7F7
:103B700037FD0028E6D101460E4A0F48FEF7ACF9A2
:103B8000E10703D50190FDF7D7F901980028DFD0B0
:103B900003B0F0BD441200204C120020741200202B
:103BA00094CD030090CD0300F9340000B8CD03009C
:103BB0001D340000C9340000B4CD0300420700D416
:103BC000704708B5084607F0FAFF88B1831E022B3C
:103BD0000A4A06D9062313701846BDE80840FFF7C5
:103BE000FFBD072313701846BDE80840FFF7F8BD76
:103BF000024A1070BDE80840FFF7F2BD8E120020A7
:103C000008B51C4B1B78032B27D8DFE803F02112E3
:103C100007020120BDE80840FDF722B90120FDF7A9
:103C200071F9154840F6CD410022BDE80840FEF785
:103C300065B90120FDF7FEF880B90120FDF710F904
:103C400041F69A110C480022BDE80840FEF756B92B
:103C50000120BDE80840FDF717B908BD0120FDF7B8
:103C600013F946F2666104480022BDE80840FEF7F9
:103C700045B900BF8D120020B012002008B51B7896
:103C8000802B00D008BD0D4B072201201A70FDF7D4
:103C9000D1F868B10020FDF7F7F80120FDF7F4F83E
:103CA000074841F69A110022BDE80840FEF726B900
:103CB000FDF7D6F80120FDF7D3F8F1E78C120020CC
:103CC0009012002008B52C4A1378013BDBB2137028
:103CD00083B10120FDF7AEF8A0B9FDF7C1F80120CE
:103CE000FDF7BEF8254841F69A110022BDE80840CC
:103CF000FEF704B9224B1B78032B0DD8DFE803F045
:103D0000121B2B090020FDF7BFF80120FDF7BCF8BE
:103D1000E8E70120FDF7A4F81A4B1878BDE8084041
:103D2000FFF75EBD0120FDF7AFF8164B1878BDE830
:103D30000840FFF755BD0120FDF77CF8A8B1012030
:103D4000FDF7A2F846F266610F480022FEF7D6F8AA
:103D50000028E1D008BD0120FDF7D4F840F6CD41A0
:103D600000220948FEF7CAF8F2E70120FDF778F8CB
:103D700041F69A11E8E700BF8C1200209012002053
:103D80008D1200208E120020B0120020F8B5134EC4
:103D9000134B144F002421460C22054630461C705C
:103DA0003C7036F0AFFF21460F4B1048104A33608D
:103DB000FEF792F8044628B901460E4A0E48FEF76F
:103DC0008BF804462A4628460C4907F0E6FB2846AD
:103DD000024907F0D2FB2046F8BD00BF8012002048
:103DE0008D1200208E1200207D3C0000BCCD03000F
:103DF000013C0000C53C0000C0CD0300BD3B0000FD
:103E0000F0B502F1080583B007460C46164695E862
:103E10000700019700F0F4FA053000F073FAA042B1
:103E20002ADC0146019800F073FA019B02AC1844A9
:103E300044F8040D0421204600F09AFAB27DF37D87
:103E400000216FF3070162F3820163F3C30120468F
:103E5000C9B200F08DFA2046012100F089FA20460F
:103E6000B18A00F08BFA204695E80E0000F0A4FA23
:103E70000198C01B03B0F0BD6FF00100FAE700BF6E
:103E800030B50B4683B01146054601AA184600938B
:103E900000F04CFA009B019A0344022A0446009366
:103EA00002DC204603B030BD684600F05BFA05280E
:103EB000F7D1684600F056FA01242860F1E700BF08
:103EC00070B582B0161E044601900D4619DD032020
:103ED00000F018FA854227DB0146019800F018FA35
:103EE000019B02AD184445F8040D1821284600F046
:103EF0003FFA2846314600F041FA0198001B02B013
:103F000070BD012000F0FEF985420DDB01460198ED
:103F100000F0FEF9019A02AB104443F8040D182199
:103F2000184600F025FAE8E76FF00100E7E700BF68
:103F300082B030B583B006AC84E80C0006AB054611
:103F40000C4693E80700019500F05AFA013000F0A2
:103F5000D9F9A04218DC0146019800F0D9F9019B7B
:103F600002AC184444F8040D1621204600F000FA73
:103F700006AB20460ECB00F01FFA0198401B03B0A1
:103F8000BDE8304002B070476FF00100F7E700BFB6
:103F90002DE9F04184B090460AAA06460D4607CAAC
:103FA00001AC84E807001F46009600F029FA0230B1
:103FB00000F0A8F9854221DB0146009800F0A8F93D
:103FC000009B04AD184445F8100D0721284600F069
:103FD000CFF900216FF3070168F3461167F304116D
:103FE0002846C9B200F0C4F9284694E80E0000F053
:103FF000E3F90098801B04B0BDE8F0816FF0010088
:10400000F9E700BF82B070B584B008AC84E80C005A
:1040100006460D4694E8070001AC84E807000096C8
:1040200000F0EEF9013000F06DF9854218DB014631
:10403000009800F06DF9009B04AD184445F8100D90
:104040000921284600F094F9284694E80E0000F073
:10405000B3F90098801B04B0BDE8704002B070470F
:104060006FF00100F7E700BF10B50B4682B01146B4
:10407000044601AA1846009300F058F9009B019AE3
:104080001844022A009003DC0023184602B010BD39
:10409000684600F067F91B28F6D1684600F062F91F
:1040A00001232060F1E700BF10B50B4682B0114636
:1040B000044601AA1846009300F038F9009B019AC3
:1040C0001844022A009003DC0023184602B010BDF9
:1040D000684600F047F91D28F6D1684600F042F91D
:1040E00001232060F1E700BF2DE9F04383B002AF68
:1040F000002447F8044D0E9D0D9C009481460E4609
:104100002046904629463A461F4600F00FF9009B8C
:10411000019A18441444231A9D42009003DA0020A7
:1041200003B0BDE8F083684600F01CF90C28F6D116
:10413000684600F017F9002360F30703C3F3010298
:1041400043F3C015C3F34110C3F3001389F80050C3
:10415000306088F800300A9BD1B21A70E9B10129A9
:104160001ED0684600F0FEF80A9B1871684600F001
:10417000F9F80A9B5871684600F0ECF80A9B388001
:104180001B7813B93368032B10D0009B0C9AE41AE8
:1041900014600B9A01201360C2E73368032B0CD024
:1041A000684600F0D7F80A9B9880E4E70A9B009ADB
:1041B0009B680A9913444A60E8E7684600F0CAF829
:1041C0000A9B9860D7E700BF2DE9F04182B00DF15E
:1041D000080E00244EF8044D089C009307460E4636
:1041E0001546214672461846984600F09FF89DE80D
:1041F000060008444244121A9442009004DA002354
:10420000184602B0BDE8F081684600F0ABF80D2812
:10421000F5D1684600F09EF83880684600F09AF8BC
:104220003080684600F09EF801232870E8E700BF60
:104230002DE9F04383B00DF1080E00260A9D4EF8DB
:10424000046D8146884618462946174672461C4624
:10425000009300F06BF8009A019910440C44231A63
:104260009D42009003DA002003B0BDE8F083684669
:1042700000F078F80A28F6D1684600F06BF8A9F843
:104280000000684600F066F8009BA8F80000E41AF9
:104290003E607C60BB600120E6E700BF2DE9F04195
:1042A00082B00DF1080E00244EF8044D089C0093D6
:1042B00007460E461546214672461846984600F0B7
:1042C00035F89DE8060008444244121A94420090D2
:1042D00004DA0023184602B0BDE8F081684600F019
:1042E00041F80B28F5D1684600F034F8388068466C
:1042F00000F030F83080684600F034F80123287070
:10430000E8E700BFFF28CCBF03300130704700BF93
:10431000FF29034606DD81700A1201214270032045
:1043200019707047C9B201201970704700290EDD5D
:104330000378012B02D0136001207047022906DDAB
:104340004178837803EB01231360032070474FF01B
:10435000FF307047036819785A780233036002EB24
:10436000012070470368024613F8010B1360704781
:1043700003681970036801330360704700290268FD
:104380000B46B8BF01F1FF031B1210B41370094BA9
:1043900002680B40541C002B046006DB537003685A
:1043A0005DF8044B013303607047013B63F0FF038A
:1043B0000133F3E7FF00008070B584B004AC04E97A
:1043C0000E00029C019E002C05460EDC5EB13046BC
:1043D00037F073F8314604460246286836F06CFC24
:1043E0002B681C442C6004B070BD22460399006801
:1043F00036F062FC2B681C442C6004B070BD00BF1A
:1044000084B004AB03E90700019810B104B037F0A1
:1044100054B8029804B0704770B582B005460220C7
:104420000C4601951646FFF76DFFA04214DC0146CD
:104430000198FFF76DFF019B02AC184444F8040D8E
:1044400001212046FFF794FF20463146FFF790FFF9
:104450000198401B02B070BD6FF00100FAE700BF89
:104460002DE9F04F85B007469DF84040129E019619
:104470009DF838A0BDF83C90149D03900E469346DD
:1044800098460CB9032B4AD006202844FFF73AFF80
:10449000B04247DC01460398FFF73AFF039A04AEA7
:1044A000104446F8040D0C213046FFF761FF00214F
:1044B0006FF307016BF3C71168F346116AF3041138
:1044C00064F301013046C9B2FFF752FF3046CCB168
:1044D000012C1AD99DF84410FFF74AFF30469DF889
:1044E0004510FFF745FF30464946FFF747FF039861
:1044F00013992A4636F0E0FB03982844C01B05B008
:10450000BDE8F08FB8F1030F0FD0BDF84410FFF7EE
:1045100035FF30464946FFF731FF0398E8E7019B36
:10452000981DB2E76FF00100E9E7019C2146FFF713
:1045300025FF30464946FFF721FF0398119922468F
:1045400036F0BAFB039820440390D1E72DE9F041FF
:1045500082B0054606200C46019590461F469DF800
:104560002060FFF7CFFEA0421DDC01460198FFF757
:10457000CFFE019B02AC184444F8040D0D212046E7
:10458000FFF7F6FE20464146FFF7F8FE2046394683
:10459000FFF7F4FE20463146FFF7EAFE0198401B84
:1045A00002B0BDE8F0816FF00100F9E72DE9F043BA
:1045B00083B007460A9E019034680D46914698469E
:1045C0004CB3204636F079FF0446601DFFF79AFE93
:1045D000A84224DC01460198FFF79AFE019B02AD38
:1045E000184445F8040D0A212846FFF7C1FE284665
:1045F0004946FFF7C3FE28464146FFF7BFFE316834
:10460000019851B1224636F057FB01982044C01B57
:1046100003B0BDE8F0837468D7E7B168F2E76FF0E4
:104620000100F5E72DE9F04182B0054606200C4671
:10463000019590461F469DF82060FFF763FEA0425B
:104640001DDC01460198FFF763FE019B02AC184494
:1046500044F8040D0B212046FFF78AFE2046414610
:10466000FFF78CFE20463946FFF788FE204631468C
:10467000FFF77EFE0198401B02B0BDE8F0816FF0AD
:104680000100F9E72DE9F04383B002AD002445F8BD
:10469000044DDDF828900B9CCDF8009080460F4625
:1046A000164648462A4621461D46FFF73FFE9DE82E
:1046B0000C0010444B441B1A9C42009004DA002367
:1046C000184603B0BDE8F0836846FFF74BFE132899
:1046D000F5D16846FFF746FEC0F34110C8F8000068
:1046E0006846FFF737FE38806846FFF733FE3080B4
:1046F0006846FFF737FE01232870E1E770B582B006
:1047000002AB002443F8044D16460C461A460546F3
:10471000084631460094FFF709FE009B01991844B2
:104720002144091A8E42009003DA0023184602B091
:1047300070BD6846FFF716FE1528F6D16846FFF7EC
:1047400009FE01232880F1E72DE9F84F440004EB2E
:104750000008DFF87CB14FEAC8080BEB0803894674
:10476000D96A01298246164643D034D302293CD166
:1047700000F1010A0AEB4A0A5D6A0BEBCA0A00273C
:104780001DE0126A641BB4422346A2EB050428BF55
:1047900033469C42DAF8040028BF1C4622462844CF
:1047A000494636F089FA0BEB080325441A6A95420C
:1047B00008BF0025361B2744A1445D6216D00BEBD1
:1047C0000802936AAB4203F1FF34DAD8126A134449
:1047D000013B5C1BD7E79A6A5D6AAA429CBF1B6AD1
:1047E000D218013A521B964232D900273846BDE80A
:1047F000F88F9A6A5D6AAA4225D9571E1B6A7F1BE9
:10480000B74228BF37465E1BB74241D30AF10108C1
:1048100008EB48080BEBC808A244D8F80400494646
:10482000324628440BEBCA0BBD1B36F045FAD8F8CC
:10483000040009EB06012A4636F03EFACBF8245074
:104840003846BDE8F88F1B6AD718013F7F1BD7E7B2
:1048500004440BEBC40B00F1010ADBF820701C4B85
:104860007F1BBE420AEB4A0A25D303EBCA043A4631
:10487000606849462844F51B36F01EFA09EB07012B
:1048800060682A4636F018FA3746CBF82450ADE770
:104890000AF1010303EB43030BEBC303A244586883
:1048A0000BEBCA0B284449463A463D4436F004FA1D
:1048B000CBF824509AE703EBCA03494658683246BE
:1048C0002844354436F0F8F93746CBF824508DE7C4
:1048D000C8CC00202DE9F84F314C94F800E0054693
:1048E000884617461E46BEF1000F27D02369DFF821
:1048F000B090AB424FD90020FDF790FB5DB929463F
:104900000D4404EBC5040A9BE3620020FDF78EFB17
:104910000020BDE8F88F6B1C690003EB4303DB004C
:104920004A1909EBC20209EB030E49F80380002380
:10493000CEF80470166253629362E1E7194BDFF818
:1049400070B0DFF87090C4F828E04FF0100C4FF40E
:10495000007A0222A361A3641349C4F824E0C4F8D6
:104960002CE0C4F858E0C4F854E0C4F85CE0C4F8A3
:1049700050C0E01DC4F81CB0C4F820A0C4F84C908E
:104980002261626136F07CFD2046084936F078FDF0
:104990002023A371AAE74FF0FF30BDE8F88F00BFD6
:1049A000C8CC0020C4CD0300D0CD0300D4CD03007B
:1049B000E0120020D0120020F8B5114C114B124A21
:1049C000E3614FF4007E0023104FA3621026636260
:1049D000E362A3656365E3650D49C4F820E0022541
:1049E000A261A264E01DE76426652561656136F079
:1049F00047FD2046074936F043FD2023A371F8BD4B
:104A0000C8CC0020E0120020C4CD0300D01200204A
:104A1000D0CD0300D4CD03000649074A074B9B1AAB
:104A200003DD043BC858D050FBDC00F013F8FBF763
:104A300015FC000010590400000000204001002077
:104A4000FEE7FEE7FEE7FEE7FEE7FEE7FEE7FEE73E
:104A5000FEE7FEE7F0B4624B1B68082B19D0614AF1
:104A6000D2F8883043F47003C2F88830BFF34F8F18
:104A7000BFF36F8F4FF01023D3F80022002A7DDBA5
:104A8000D3F80432002B79DB574B584A1A60F0BC3C
:104A90007047574B19680029E1D14FF080404FF023
:104AA0008052C0F80C11534BC0F81011C0F83815E3
:104AB000D2F80414C3F82015D2F80814C3F824154A
:104AC000D2F80C14C3F82815D2F81014C3F82C151A
:104AD000D2F81414C3F83015D2F81814C3F83415EA
:104AE000D2F81C14C3F84015D2F82014C3F84415AA
:104AF000D2F82414C3F84815D2F82814C3F84C157A
:104B0000D2F82C14C3F85015D2F83014C3F8541549
:104B1000D2F83414C3F86015D2F83814C3F8641509
:104B2000D2F83C14C3F86815D2F84014C3F86C15D9
:104B3000D2F84474304D3149C3F87075304C314E61
:104B40002E60FB23C1F818352368D2F8581205F5FA
:104B50000F3523F00F0205F56D7501F00F031343B8
:104B60004FF4007223602A60D0F80034DB077FF531
:104B700076AF6FF00103C0F8003470E7224B0122DA
:104B8000C3F80425D3F80024002AFBD04FF01023EB
:104B900012221D49C3F80022D1F80034002BFBD0AB
:104BA0004FF0102312221849C3F80422D1F8002430
:104BB000154B002AFAD00022C3F80425D3F80024AC
:104BC000002AFBD0BFF34F8F0649104BCA6802F48E
:104BD000E0621343CB60BFF34F8F00BFFDE700BF20
:104BE0003001001000ED00E0400000200090D003F4
:104BF0003401001000C000408C56004000F000401E
:104C0000E40E00404881030000E001400400FA0582
:104C1000A8B1A2B19BB1F8B507461D4614460E4691
:104C200000F05EFAFDF750FA58B1104B10491888A1
:104C3000000440F00100FBF767FD0320F8BD0E20E3
:104C4000704731462A46384601F09EFB10B1074BAB
:104C50000849ECE701F0E6FA28B90523C7F8044152
:104C600087F82830F8BD014B0349E0E70401002034
:104C7000DCCD030004CE030028CE030040B190F841
:104C800028300BB90F207047052B03D00820704740
:104C90000E20704710B504464FF4FA6001F00EFB89
:104CA00001F0FEFA0146204601F0CAFA18B90123C4
:104CB00084F8283010BD054B05491888000440F0E1
:104CC0000100FBF721FD032010BD00BF04010020FF
:104CD00048CE0300F0B5044683B020B10D4611B1B3
:104CE0000BB1164612B90E2003B0F0BD1A88002A87
:104CF000F9D0B3F86020002AF5D0DA78012A04D080
:104D000094F828204AB90F20EEE7B3F84620002A8D
:104D1000E9D09A8C002AE6D0F2E7022A03D0082ACA
:104D200001D00820E0E704F12C07002112223846C8
:104D3000019335F0E7FF12223846294635F0BCFFD3
:104D4000019B84F82A601A88E2879A7884F84020C8
:104D5000DA7884F84120DA78EAB9B3F86020A4F868
:104D60009E2004F18605B3F86020019328460021B7
:104D700035F0C8FF019B284603F14801B3F86020D5
:104D800035F09AFF0323204684F8283003B0BDE8AD
:104D9000F04000F0D5BF9A8CA4F8622004F14205DF
:104DA0009A8C01932846002135F0ACFF019B2846E0
:104DB000191D9A8C35F080FF019BB3F84620A4F8AA
:104DC000842004F16405B3F846200021284635F01C
:104DD00099FF019B284603F12601B3F8462035F0E0
:104DE0006BFF019BB9E700BF28B190F82830042B76
:104DF00003D00F2070470E207047002101F0C2B988
:104E000070B5044682B010B10AB10D4611B90E203A
:104E100002B070BD002BFAD090F82810042903D0FE
:104E2000082901D00F20F3E70026204669460196A5
:104E30000096ADF8045001F0D1F8069B002BE7D0A6
:104E40001A4623881380E3E730B129B170B582B0E8
:104E500022B90E2002B070BD0E20704790F8284095
:104E6000042C054618BF0F20F4D10C4602A91E469B
:104E700041F8084D0023019300F0EAFF002EE9D02D
:104E80002B883380E6E700BF2DE9F04F054689B057
:104E900001F0F6F995F82830012B00F0DC8095F848
:104EA00000318146002B00F0CC80DFF830822C46A8
:104EB00000274FF0FF36D4F8AC30D8F80020C2EB12
:104EC000030B01F0E9F91BEA000F2FD1D4F8AC3045
:104ED00095F80021C9EB03039E4207F1010728BFA3
:104EE0001E46BA4204F11804E5DCD8F800305A1C1A
:104EF00005D06A68D41A01F0CFF9204270D16B68EE
:104F0000C9EB03094E4562D828463146C8F800600F
:104F100001F096F938B16D4B6D491888000440F0E6
:104F20000100FBF7F1FB09B0BDE8F08F94F8A0B0E9
:104F3000BBF1000F2CD159462022684635F0E2FE25
:104F40004FF0010A0D23D4F8A4008DF800308DF83D
:104F500004A000F015FAB4F8AA308DF80500D4F8D2
:104F6000A400ADF8063000F00BFA06285DD0072843
:104F700000F0818000285ED05A462846B4F8AA1076
:104F800000F0DAF86946D5F80431284698479DE7DD
:104F90000BF1FF3B84F8A0B04FF4FA5001F080F918
:104FA00005F12C01C4F8AC00D4F8A420B4F8A83062
:104FB000284600F003FE002888D0444B45491B8852
:104FC0001B04024643F00100FBF74EFC7EE701F0B4
:104FD00063F90023B9FBF0F62B7306FB109693E7F9
:104FE000297C00294DD02B7B002B88D195F82820D7
:104FF000082A59D0013929744FF4FA5001F050F9B8
:1050000005F12C0168606A692B8B284600F0D6FDFB
:1050100000283FF474AF2D4B2E491B881B04024619
:1050200043F00100FBF720FC69E7524628461A21AD
:1050300000F082F8A6E752462846042100F07CF8EA
:10504000A0E7DFF89880D8F800305A1C4FF0FF3600
:105050007FF44FAF53E7284600F0B2FD00283FF43D
:1050600062AF1A4B1C491B881B04024643F0010027
:10507000FBF7FAFB57E7524628461C2100F05CF884
:1050800080E76846202235F03DFE0D2001220523F1
:105090008DF800008DF8053069468DF80420D5F8AC
:1050A0000431284698472AE708A90C220093019367
:1050B00001F8202D0293039304930593069307931D
:1050C0002846D5F804319847297C93E7040100204D
:1050D00014CF0300E0CE0300A0CE03004400002064
:1050E000A0300021642235F00DBE00BFF8B590F865
:1050F0000061042E074610D00D460FCD06EB460486
:1051000007EBC404A0340FC495E8030084E803004F
:10511000013687F800610020F8BD054B0549188865
:10512000000440F00100FBF7EFFA3046F8BD00BF85
:105130000401002054CF03002DE9F84390F800311A
:105140000546002B47D00024002A52D0012A40F007
:10515000AD8004EB440205EBC2022046D2F8A42045
:105160001678012E0CBF03260126925D8A4246D096
:105170000134A3422FDD04EB440205EBC202D2F856
:10518000A4201678012E0CBF03260126925D8A42C8
:1051900035D0841CA3421EDD04EB440205EBC202A1
:1051A000D2F8A4201678012E0CBF03260126925DAA
:1051B0008A4224D0C41CA3420DDD04EB440305EB5A
:1051C000C303D3F8A4301A78012A0CBF03220122AA
:1051D0009B5C8B4213D0384B38491888000440F050
:1051E0000100FBF791FA0520BDE8F88301349C42E9
:1051F000F1D0B0F8AA208A4200F11800F6D1042CB0
:10520000E9D004EB440605EBC606A0367068FCF74F
:1052100083FF95F80071BC4242DA04F1010808EB03
:10522000480C05EBCC0C0CF1A00CE646BEE80F00D8
:105230000FC69EE80300B84586E8030030DA04F1A3
:10524000020909EB490E05EBCE0E0EF1A00EF04659
:10525000B8E80F0066460FC698E803004F4586E899
:1052600003001DDD04F1030808EB480605EBC60644
:10527000A036B446BCE80F00AEE80F009CE803007F
:10528000B8458EE803000BDA043404EB440405EB64
:10529000C404A0340FCC0FC694E8030086E80300D2
:1052A000013F85F800710020BDE8F88301349C427D
:1052B0007FF44CAF8FE700BF0401002078CF0300DC
:1052C00070B490F80041002C47D005460023002A16
:1052D00049D0012A50D103EB430200EBC2021D4624
:1052E000D2F8A4201678012E0CBF03260126925D69
:1052F0008A423ED00133A3422FDA03EB430200EB94
:10530000C202D2F8A4201678012E0CBF0326012673
:10531000925D8A422DD0AB1C9C421EDD03EB430202
:1053200000EBC202D2F8A4201678012E0CBF03268F
:105330000126925D8A421CD0EB1C9C420DDD03EBE2
:10534000430200EBC200D0F8A420107801280CBF63
:1053500003200120125C8A420BD0042070BC7047ED
:105360000133A342F9D0B5F8AA208A4205F1180505
:10537000F6D1184670BC70470133A342A9D1ECE7BF
:105380000378012B0CBF03230123C35C043BDBB276
:10539000182B9ABF014AD05C08207047E0D3030065
:1053A0002DE9F0431D461B78012B0CBF032301237D
:1053B00097B0EB5CBDF878E0064617461D2B00F26F
:1053C000DB81DFE813F01E00D9012300D901D901E8
:1053D0002D004100D9014500D90149005D00AC0014
:1053E000E900D901D901D901D901D9010601D901B1
:1053F0002E01D9013C014D01D901D9015C01D9012E
:10540000A3010824204617B0BDE8F08390F82830A7
:10541000012B00F057820024204617B0BDE8F0832E
:1054200090F828400027032C0B9700F0C382AE4B66
:10543000AE491888000440F00100FBF765F9032429
:10544000204617B0BDE8F08300F0F4FB0446D9E72E
:1054500000F034FC0446D5E716A8002720F8387D74
:105460002B46CDF800E00DF11E010BAAADF81E7021
:10547000FEF7DEFE002840F0B8819B4B9C49D8E740
:105480000027CDF800E008A809A90DF11E022B465F
:10549000ADF82070ADF824708DF81E70FEF7FEFE9A
:1054A000002800F079819DF81E40002C00F0298230
:1054B000012C8D4B40F0238218888E49000440F067
:1054C00003000DF13808FBF71FF93946202240464A
:1054D00035F018FC2B78BDF824108DF83C70012BAA
:1054E0000CBF032301230D22EB5C8DF83820043B15
:1054F000DBB2182B98BF804A4FF0000494BFD35CF6
:105500000823224630468DF83D30ADF83E40FFF787
:1055100013FE4146D6F804313046984772E70BA98E
:1055200009AA08AB8DE80E000395CDF810E0002520
:1055300007A80DF11B010DF11D020DF11E03ADF8C1
:105540001E5008958DF81B508DF81C508DF81D507D
:10555000FEF7CAFD002800F025819DF81B40002CB5
:1055600040F05E820EA800212022BDF830700A258E
:1055700035F0C8FBBDF81E00099BADF846000022BF
:105580001593ADF850700EA98DF838501392D6F8D7
:1055900004313046984735E70027CDF800E009A8E8
:1055A0000BA908AA2B46ADF82470ADF82C708DF825
:1055B0002070FEF709FE002800F0EB809DF82040E7
:1055C000002C00F0E581012C474B00F050814B4945
:1055D0001EE016A8002700F8387D09A98DE82040B4
:1055E0000BAA0DF11E03ADF82470ADF82C708DF8E8
:1055F0001E70FFF747F8002800F0D1809DF81E408C
:10560000002C00F0AB81012C374B00F030813C497D
:1056100018880004224640F00100FBF725F9032416
:10562000F0E616A8002420F82C4D29467246FFF714
:1056300065F8002840F0B9802B4B3249F9E68068C4
:1056400000F02EFE96F82830706001210322082B0E
:10565000317332747FF4DFAE16A900240B23B5E05A
:1056600090F82830062B00F00582072B00F0E98027
:10567000032380F8283000F063FB0446C2E616A836
:10568000002740F82C7D72462946FEF7EDFC0028E5
:105690007CD00B9C002C00F07381012C124B40F04D
:1056A0000F8118881849000440F003000DF13808F4
:1056B000FBF72AF839462022404635F023FB2B78A9
:1056C0008DF83C70012B08BF03240D222B5D8DF853
:1056D0003820043BDBB2182B96BF074A0823D35C63
:1056E000002430461A2145E004010020A8CF030021
:1056F000A4D00300F8D00300E0D3030008D20300D5
:1057000088D20300B8D2030040D3030016A80027B4
:1057100040F82C7D72462946FEF7C6FC002835D09D
:105720000B9C002C00F0E380012CC44B40F0C8809F
:105730001888C349000440F003000DF13808FAF757
:10574000E3FF39462022404635F0DCFA2B788DF80D
:105750003C70012B08BF03240D222B5D8DF83820EF
:10576000043BDBB2182B9ABFB64AD35C0823002453
:1057700030461C210122C6E6B04BB349188800040C
:1057800040F00100FAF7C0FF06243BE6AB4BAF49FF
:105790004FE6AA4BAE494CE6A84BAE4949E6A74BAB
:1057A000AD4946E6A54BAD4943E63046BDF82C1061
:1057B0002246FFF785FD042800F03C81BDF82C103F
:1057C00030462246FFF7B8FC16A907230E9401F8CD
:1057D000203D0F94109411941294139414941594E2
:1057E000D6F80431304698470CE63B46BDF8201009
:1057F000BDF81E20304600F0BBFB09AD394608223B
:105800000446284635F07EFABDF820200B9BADF803
:105810002820394620220EA8099335F073FABDF8E6
:105820001E2095E8030013AB04258DF8385083E85B
:105830000300ADF846200EA9D6F80431304698474B
:10584000E0E516A9002402230E9401F8203D05236B
:1058500080F828300F94D0F80431109411941294E9
:10586000139414941594984700F004FDCAE5188821
:105870007B49000440F003000DF13808FAF744FFBB
:1058800039462022404635F03DFA2B788DF83C70A1
:10589000012B0CBF032301230D22EB5C8DF8382074
:1058A000043BDBB2182B98BF664ABDF82C1098BF9A
:1058B000D35C4FF0000488BF08232246304622E61E
:1058C0006849A5E60EA80021202235F01BFAAB7826
:1058D0008DF83C300024022386F828300EA910975A
:1058E0008DF83840D6F80431304698478AE51C21B7
:1058F00030460122FFF720FC16A9092366E75A4922
:1059000086E63046BDF824102246FFF7D9FC04286D
:10591000054600F0D180BDF8241022460BAF30467A
:10592000FFF70AFC05EB450521460822384635F00D
:10593000E9F906EBC5032146D3F8B0200B92BDF878
:105940002030ADF8303020220EA835F0DBF90325E9
:1059500097E8030013ABBDF8242066E73046BDF896
:105960002C102246FFF7ACFC042800F0A880BDF8FC
:105970002C1030462246FFF7DFFB16A9062325E749
:105980001A2130460122FFF7D7FB16A908231DE78D
:105990003046BDF82C102246FFF792FC042800F098
:1059A0009180BDF82C1030462246FFF7C5FB16A9A2
:1059B00005230BE772460BA82946FEF761FA00287B
:1059C00071D0DDF82C90B9F1000F7ED0B9F1010F44
:1059D00040F0D780194B25491888000440F0030097
:1059E0000DF13808FAF790FE39462022404635F08E
:1059F00089F92B788DF83C70012B08BF4FF0030913
:105A00000D2215F809308DF83820043BDBB2182B35
:105A100096BF0C4A0823D35C002430460421A9E633
:105A20002B463046BDF83010BDF81E2000F074FB48
:105A3000044697E5014B0E49FBE400BF040100203A
:105A400040D30300E0D30300ACD3030010D3030022
:105A5000B4D10300D0D0030034D2030088D10300B6
:105A6000F8D003007CD303005CD1030044D00300D2
:105A7000E4D20300806800F013FC16A900240B2375
:105A80000E94706001F8203D0F94D6F80431109404
:105A90001194129413941494159430469847082343
:105AA00086F82830AEE43D4B3D491888000440F0AC
:105AB0000100FAF729FEA5E4384B3A49B9E4374B1F
:105AC0003949B6E4354B3949B3E404210122304663
:105AD000FFF732FB1720CDF83C90CDF84090FCF753
