:020000040001F9
:10900000F83500204D950100559501005795010058
:10901000599501005B9501005D950100000000007D
:109020000000000000000000000000005F9501004B
:109030006195010000000000639501006595010045
:10904000DD98010067950100499C010067950100CA
:109050006795010000000000059701006795010079
:10906000679501006795010067950100679501000C
:1090700067950100679501006795010067950100FC
:10908000679501003599010067950100679501001A
:1090900059990100679501005D99010067950100EC
:1090A00067950100679501000000000000000000C6
:1090B00067950100679501000000000000000000B6
:1090C00000000000000000000000000000000000A0
:1090D0000000000000000000000000000000000090
:1090E0000000000000000000000000000000000080
:1090F0000000000000000000000000000000000070
:10910000000000000000000000000000000000005F
:10911000000000000000000000000000000000004F
:10912000000000000000000000000000000000003F
:10913000000000000000000000000000000000002F
:10914000000000000000000000000000000000001F
:10915000000000000000000000000000000000000F
:1091600000000000000000000000000000000000FF
:1091700000000000000000000000000000000000EF
:1091800000000000000000000000000000000000DF
:1091900000000000000000000000000000000000CF
:1091A00000000000000000000000000000000000BF
:1091B00000000000000000000000000000000000AF
:1091C000000000000000000000000000000000009F
:1091D000000000000000000000000000000000008F
:1091E000000000000000000000000000000000007F
:1091F000000000000000000000000000000000006F
:10920000DFF80CD000F040FA0048004731DF0100E1
:10921000F835002030B4044654E8000F0D4644E809
:109220000053002BF8D1156030BC704730B40446B1
:1092300054E8000F40EA010544E80053002BF7D141
:10924000156030BC704730B4044654E8000F00EAA3
:10925000010544E80053002BF7D1156030BC70477E
:1092600030B4044654E8000F80EA010544E8005396
:10927000002BF7D1156030BC704730B4044654E879
:10928000000F00EB010544E80053002BF7D11560F7
:1092900030BC704730B4044654E8000FA0EB010521
:1092A00044E80053002BF7D1156030BC7047000034
:1092B00030B450E8012F93B2C48923448489A34277
:1092C00028BF1B1B0489A34202BFBFF32F8F0020BE
:1092D00007E0C3EA020340E80134002CE9D14FF073
:1092E00001000A6030BC704750E8012FC2EA024218
:1092F00040E801210029F7D1704730B450E8022F2F
:109300001FFAA2F3C488A34202BFBFF32F8F00202D
:109310000DE0C48923448489A34228BF1B1BC2EAF1
:10932000034340E80234002CE8D14FF001000A600A
:1093300030BC704750E8022FC2EA224240E80221C6
:109340000029F7D17047034653E8022FD988B2EBC2
:10935000324F4FF0000017BF92B241EA014142EA9A
:10936000014104E05A68B2EB324F08BF012043E8E4
:109370000212002AE8D1704730B4044654E8000FC6
:109380000D4644E80053002BF8D1156030BC7047FF
:1093900030B4044654E8000F40EA010544E80053A5
:1093A000002BF7D1156030BC704730B4044654E848
:1093B000000F00EA010544E80053002BF7D11560C7
:1093C00030BC704730B4044654E8000F80EA010511
:1093D00044E80053002BF7D1156030BC704730B41F
:1093E000044654E8000F00EB010544E80053002B4D
:1093F000F7D1156030BC704730B4044654E8000F14
:10940000A0EB010544E80053002BF7D1156030BCF8
:109410007047000030B4044654E8000F0D4644E89D
:109420000053002BF8D1156030BC704730B40446AF
:1094300054E8000F40EA010544E80053002BF7D13F
:10944000156030BC704730B4044654E8000F00EAA1
:10945000010544E80053002BF7D1156030BC70477C
:1094600030B4044654E8000F80EA010544E8005394
:10947000002BF7D1156030BC704730B4044654E877
:10948000000F00EB010544E80053002BF7D11560F5
:1094900030BC704730B4044654E8000FA0EB01051F
:1094A00044E80053002BF7D1156030BC7047000032
:1094B00030B4044654E8000F0D4644E80053002B36
:1094C000F8D1156030BC704730B4044654E8000F42
:1094D00040EA010544E80053002BF7D1156030BC89
:1094E000704730B4044654E8000F00EA010544E830
:1094F0000053002BF7D1156030BC704730B40446E0
:1095000054E8000F80EA010544E80053002BF7D12E
:10951000156030BC704730B4044654E8000F00EBCF
:10952000010544E80053002BF7D1156030BC7047AB
:1095300030B4044654E8000FA0EB010544E80053A2
:10954000002BF7D1156030BC7047000006488047FB
:1095500006480047FEE7FEE7FEE7FEE7FEE7FEE718
:10956000FEE7FEE7FEE7FEE77D99010001920100BC
:109570002DE9F05F0546002092469B468846064648
:10958000814640241BE0284641464746224600F0DB
:109590006BF853465A46C01A914110D311461846EB
:1095A000224600F016F82D1A67EB01084F462246B6
:1095B0000120002100F00DF817EB00094E41201E9C
:1095C000A4F10104DFDC484631462A464346BDE8A3
:1095D000F09F202A04DB203A00FA02F100207047B5
:1095E0009140C2F1200320FA03F3194390407047E1
:1095F000004870477835020040EA01039B0703D01A
:1096000009E008C9121F08C0042AFAD203E011F8C1
:10961000013B00F8013B521EF9D27047D2B201E083
:1096200000F8012B491EFBD270470022F6E710B567
:1096300013460A4604461946FFF7F0FF204610BDC0
:10964000421C10F8011B0029FBD1801A704730B56D
:1096500004460020034600E05B1C934203D2E05C1A
:10966000CD5C401BF8D030BD202A04DB203A21FA23
:1096700002F00021704721FA02F3D040C2F120022B
:109680009140084319467047064C074D06E0E068D4
:1096900040F0010394E8070098471034AC42F6D339
:1096A000FFF7B2FD583B0200783B020070B58C1802
:1096B00010F8015B15F0070301D110F8013B2A11E6
:1096C00006D110F8012B03E010F8016B01F8016BD3
:1096D0005B1EF9D12B0705D40023521E0DD401F8CF
:1096E000013BFAE710F8013BCB1A921C03E013F898
:1096F000015B01F8015B521EF9D5A142D8D30020CD
:1097000070BD00002DE9F04700268CB0DFF86091B5
:10971000B0464FF48075012437460696284605F07A
:10972000ADFC38B1D9F80403204203D0284605F037
:109730009BFC26432D1D64007F1CADB2082FEDD38A
:109740004FF4BE74204605F099FC48B1204605F060
:109750008BFC46F0004606AA0121002005F070FCB3
:10976000444D16F0FF0F15D00127002437420DD0CD
:1097700009EB8401D1F81005D1F81015C0F30420CD
:1097800055F82420C1F3014102B190477F00641CC9
:10979000082CEBD3002E67DA4FF0FF30CDE90880BC
:1097A00000263446281910F8507F90F9000027F061
:1097B000C008401C44D009A9404604F08FFE58B3AD
:1097C0004FEA9719404602F039FB55F820701FB157
:1097D000B9F1030F03D00FE0B9F1030F30D108A89E
:1097E0004FEAD80208F00703815C4FF0010C0CFA35
:1097F00003FC41EA0C0181544FF0A04101EB8800C9
:10980000D0F8000706A9C0F3014A404604F066FEFE
:1098100018B1BAF1020F03D012E0BAF1030F0FD161
:10982000B9F1030F08D1BAF1020F1BD00221404653
:1098300005F0EAFB761CF6B217B149464046B84738
:10984000641C042CAED3002E0ED06A4601210020E9
:1098500005F0F6FB06990098884205D00690089816
:1098600009909DE70321E2E70CB0BDE8F087000016
:10987000006000408C25002000F01F020121914073
:109880004009800000F1E020C0F88012704700F02D
:109890001F02012191404009800000F1E020C0F842
:1098A0000011704700F01F02012191404009800023
:1098B00000F1E020C0F8001270474907090E0028A7
:1098C00006DA00F00F0000F1E02080F8141D704768
:1098D00000F1E02080F80014704700002DE9F0410D
:1098E0004FF48077384604F08DFE0124104EA50712
:1098F00048B1384604F08DFE0120C5F808037470A5
:10990000002002F00FFB4FF48277384604F07AFE15
:1099100000280BD0384604F07CFE0220C5F808036E
:10992000B470BDE8F041012002F0FCBABDE8F0815E
:109930007825002007480021C0F84011C0F84411E4
:10994000C0F84811C0F84C11C0F80011C0F804115B
:1099500008F0E2BF0010014008F02CBF10B5002154
:10996000054A084600F04AFB002803D0BDE8104035
:1099700000F038BB10BD00002DA30100F0B5A148D8
:109980000127031D01783A07181D06290BD11C7801
:10999000240708D10478C4F30314032C06D0042C44
:1099A00004D0052C02D0062907D011E0B2F82443D8
:1099B000954DC4F304242C6002E01C78240707D1E1
:1099C0000478C4F30314032C02D1914D8F4C6C67BF
:1099D000D2F844428F4DC4F342342C6006290CD196
:1099E0001C78240709D10478C4F30314032C04D190
:1099F000894C256825F0807525604FF0804400254E
:109A0000C4F80C51C4F81051824C241F256006295B
:109A100007D11C78240704D10478C4F30314032C61
:109A200002D0062908D01FE0DFF8E8C103240CF1BA
:109A3000640CCCF8004007E01C78240714D10478AB
:109A4000C4F30314032C0FD1DFF8D0C10524CCF8E4
:109A50000040724C78342760704C083425600CF15B
:109A6000040C3F24CCF800406D4C2468DFF8B4C1EE
:109A7000CCF800406A4C241D24680CF1040CCCF88E
:109A80000040674C083424680CF1040CCCF800400A
:109A9000634C0C3424680CF1040CCCF80040604C8E
:109AA000103424680CF1040CCCF800405C4C1434E5
:109AB00024680CF1040CCCF80040594C183424688C
:109AC000DFF860C10CF1200CCCF80040544C1C3481
:109AD00024680CF1040CCCF80040514C203424686C
:109AE0000CF1040CCCF800404D4C243424680CF1EB
:109AF000040CCCF800404A4C283424680CF1040CC7
:109B0000CCF80040464C2C3424680CF1040CCCF802
:109B10000040434C30342468DFF808C10CF1400C9D
:109B2000CCF800403E4C343424680CF1040CCCF8E2
:109B300000403B4C383424680CF1040CCCF8004055
:109B4000374C3C3424680CF1040CCCF80040344C05
:109B5000403424680CF1040CCCF80040DFF8C8C095
:109B6000FB24CCF80040062913D11C78240710D11F
:109B70000478C4F30314032C03D0042C01D0052C67
:109B800007D1D2F85842DFF8A4C004F04F04CCF853
:109B9000004027480168C90702D06FF00101016049
:109BA0004FF01021D1F80002002803DBD1F80402A5
:109BB000002822DA1F4A17601F480368002BFCD0D8
:109BC0001523C1F800320468002CFCD0C1F804321F
:109BD00001680029FCD0156001680029FCD0BFF3A2
:109BE0004F8F0D48F0380168144A01F4E0611143C9
:109BF0000160BFF34F8F00BFFDE7124910480860B6
:109C0000F0BD0000E00F00F0403501400DF0ADBAAE
:109C100000C007403C050040FCED00E0105600404D
:109C20000404001020C5004018F50040E40E004078
:109C30000004004004E5014000E401400400FA058E
:109C40000090D003B01D00200149024808F0D6BEA4
:109C5000E42500200020004002E008C8121F08C1CF
:109C6000002AFAD170477047002001E001C1121F9D
:109C7000002AFBD1704700000121202803DA81402F
:109C80000548014003E0402802DA2038814009B14C
:109C90000120704700207047FC06FFBD082806D24F
:109CA00028B1012803D0042801D0012070470020EA
:109CB000704710B560B159B102780B785208B2EB19
:109CC000530F05D10622401C491CFFF7C0FC08B108
:109CD000002010BD012010BD800701D0002070477A
:109CE00001207047C3688B4206D811440069491EA1
:109CF000814201D8012070470020704710B5012231
:109D00000221002001F0C2FE08B1072810D107226D
:109D10000221012001F0BAFE08B1072808D1002174
:109D20000A22084601F0B2FE08B1072800D100203F
:109D300010BD000000B5A9B0A0216846FFF775FC72
:109D400002208DF80000012005218DF802008DF819
:109D50000310154905918DF879008DF87A000021DE
:109D6000ADF8100020918DF87C0021918DF87D00D8
:109D70004FF448608DF87B1024902821B420229164
:109D800025900A4826901E2109482391279069466C
:109D9000084800F03FFD08B100F024F90121054812
:109DA00000F033FD29B000BD6E1B00204DFB01000B
:109DB00011A80100B02000202DE9F04750B125483E
:109DC0000321008801EB004023A105F01BFB07F0F5
:109DD000E9F937E04FF6FF78424610212248FFF7B5
:109DE0001DFC224D08200446E8601F4F05F10C06BB
:109DF000404607F09FF80021B1463160464608E032
:109E0000D9F800104B00491CC9F80010F85207F0AF
:109E100091F8B04201D0641EF2D21348E96807F00D
:109E200045FA08B100F0DEF80F48E96806F0F6FEE2
:109E3000062802D008B100F0D5F80B480321E83815
:109E400000F0FFFD002803D0BDE8F04700F0CAB8DD
:109E5000BDE8F087101E0020457261736520626FB7
:109E60006E6473210000000098210020681B002010
:109E700070B58CB015460E4600236C46C3F10F0139
:109E8000415CE1545B1C102BF8D30D2104F1100050
:109E9000FFF7CBFB0020C0F10F02315C2244401CD5
:109EA00011740328F7D3684643DF0020C0F10F0187
:109EB000214491F820102954401C0328F6D30CB0FB
:109EC00070BD022001F0BEBC0149097900F0BABFA3
:109ED000641C002070B50024064D06E0686801216E
:109EE00010F8340004F03AFC641C28788442F5D35E
:109EF000002070BDD01C0020F8B515460C46064663
:109F0000052A01D20720F8BD04F00EFD18B904F0AF
:109F1000DDFC0028F7D1114900224E600C708D60E5
:109F2000C1E90422C1E906220D4D0DE006EBC40093
:109F30006968009181788DF801100078094A6946B6
:109F400004F05EFC0028DED1641EE4B2EED2BDE86F
:109F5000F840054A0021024800F0D6B8D01C002085
:109F6000AC32020011CE010091C1010005F002FBEC
:109F700005F05CF90028FBD1104C0121208801EB91
:109F800000400FA105F03EFA10480068C00700D05D
:109F900000BE2088022101EB00400DA105F032FA3D
:109FA000BFF34F8F0948E43801680D4A01F4E061BE
:109FB00011430160BFF34F8F00BFFDE7101E00206B
:109FC000466174616C206572726F7200F0ED00E0A2
:109FD00053797374656D20726573657400000000B9
:109FE0000400FA050EB500210091CDE901106A4682
:109FF00044F20100FFF7BAFF0EBD00002DE9F84F53
:10A00000254C8146924660880E46814241D8002701
:10A010004FF6FF788DF80070684600F005F9227859
:10A020006078A188884201DA401C00E00020C0B2BC
:10A03000904204D19DF8000000F01AF927E06578FD
:10A040006078884201DA401C00E0002060709DF8D2
:10A05000000000F00DF9454519D0A068B9F1000FD6
:10A0600040F835A00DD066B16188E068324605FB46
:10A0700001004946FFF7C0FAA06800EBC5008680E2
:10A0800002E000EBC50087800020BDE8F88F0420C7
:10A09000FBE70920F9E70000F01C002010B50E4C8A
:10A0A00003E0401C00E000202070207861788142AD
:10A0B00010D022786188E068A36802FB010003EBFE
:10A0C000C20153F83220898890472078A1888842BD
:10A0D000E9DAE6E710BD0000F01C002030B5CB0047
:10A0E00008339DB293074FF0000401D0072030BD24
:10A0F000044B9A602A44DA605C701C705880998026
:10A10000002030BDF01C0020074B9B7823B12AB102
:10A1100020B10068037C1BB10820704707207047FE
:10A1200041744261002070472026002070B507F07E
:10A13000FFFC104800240B21047044700E4D817008
:10A1400014206C602C706C70FFF796FB07211420B4
:10A15000FFF7B3FB1420FFF79AFB084804600721C0
:10A160001120FFF7AAFB0548001F0068A860002027
:10A1700070BD000020260020001D002008150140B1
:10A180002DE9FC47DFF8789099F8023073B368B393
:10A19000052902D20720BDE8FC87436933B3437C1D
:10A1A000012B25D0002704460025884616468DF849
:10A1B0000050684600F038F801A808F04BFDC8B11F
:10A1C000012101700F4944600968C0E90218C0E923
:10A1D00004769DF8040089F801009DF8000000F065
:10A1E00047F81420FFF75EFB2846D4E70820D2E7A3
:10A1F0000F46D8E704259DF8000000F039F8F3E792
:10A2000020260020041501400649897839B130B173
:10A21000416921B100210174022108F059BB0820D5
:10A22000704700002026002030B5EFF3108172B691
:10A230000D4A9468012324B10370002900D162B64D
:10A2400030BD93604FF0E023D3F88051074C254098
:10A250001560C3F88041D3F8844154605A17C3F89D
:10A26000842100220270E8E72C270020FC06FFBDB5
:10A270000B498A68002A11D000280FD1EFF3108013
:10A2800072B60B684FF0E022C2F800314B68C2F89A
:10A29000043100228A60002800D162B670470000B5
:10A2A0002C2700202DE9F041064608680C46411C89
:10A2B0004FF0A0474FF0010506D005FA00F1C7F8AE
:10A2C0000815206804F085FE6068411C02D000215A
:10A2D00004F076FE3168A069C1F82405607D217D17
:10A2E00032680843C2F86C05D4E900123068C0F83F
:10A2F0000C15C0F81425207D012815D1A068411C3B
:10A3000002D0002104F05CFEE068411C05D08540CD
:10A31000C7F80855E06804F05CFED4E90212306822
:10A32000C0F80825C0F81015BDE8F08105F070BB35
:10A330002DE9F047074600888EB0804600F04AFDC0
:10A340000646404603F0F4F9824604462E480025AE
:10A350002A460178404600F08BFD002E50D07879D7
:10A36000400734D501254FF6FF7603AB2A46072177
:10A37000504605F0BBFF010004D0404607F038FE10
:10A3800000252BE0B1463146049803F024F9064637
:10A3900048450FD004460146404603F0B3F9404615
:10A3A000FFF792FD30B9404607F0F4FD4046FFF755
:10A3B0008BFD48B122460721504606F02DF80100DA
:10A3C00003D0404607F014FE00254E4506D0404617
:10A3D00006F090F910B1504603F096F902208DF87E
:10A3E0001800ADF81A807879400701D5012000E007
:10A3F00002208DF820008DF8215006A802F07AF88E
:10A400000EB0BDE8F0870000641C002000B585B0E8
:10A4100014216846FFF709F900200090029064209B
:10A420008DF80C009DF80D00012120F00F00401C5C
:10A4300020F0F00020308DF80D009DF80E008DF812
:10A44000041020F00F00401C20F0F00020308DF8A8
:10A450000E009DF80F00694620F0FF008DF80F00F8
:10A460009DF8100020F00F00401C20F0F00020307C
:10A470008DF81000044800F018FC002801D0FFF708
:10A48000B1FD05B000BD0000101F00202DE9F04314
:10A490000546007D93B00E460024A0B107949DF8B8
:10A4A0001C0020F00F00401C20F0F00010308DF850
:10A4B0001C00707B8DF81D009DF81E0020F006002A
:10A4C000801C8DF81E001C216846FFF7AEF89DF831
:10A4D000000040F002008DF80000297D11B140F02D
:10A4E000100001E020F010008DF8000001940394AA
:10A4F0000494287D00B107A8CDE9050401278DF853
:10A50000427042F61920ADF840000D94B07B8DF8F2
:10A510003400F07B8DF835009DF83600142120F0D2
:10A520000600801C20F019008DF83600307B8DF875
:10A53000440008A8FFF779F80DF140080DF134093F
:10A54000ADF8287011A8CDE90889ADF82A40ADF81A
:10A550002C700C90A888AB1D08AA6946A2DF0028C1
:10A5600038D1B06898B38DF8427042F60810ADF853
:10A5700040000D94307C8DF834009DF8350020F0BB
:10A58000FF008DF835009DF8360020F00600801C95
:10A5900020F019008DF836000EA8B16801F08AF895
:10A5A0000646142108A8FFF740F8ADF828600EA869
:10A5B000CDE90889ADF82A40ADF82C600C90E88808
:10A5C00005F10E0208A9A3DF002803D101E0FFE78F
:10A5D000EC81002013B0BDE8F083000010B50D49F8
:10A5E0000D4807F040FDC1B20C4800F021FB0028E7
:10A5F0000FD011280DD013280BD00F2809D0082810
:10A6000007D043F20141884203D0BDE81040FFF774
:10A61000E9BC10BD88210020781B0020101F0020FD
:10A620002DE9FC47002517880646158090F82D0077
:10A630001446894630B13A462146484600F030FC7F
:10A64000050009D1B0784FF00C0A18B32088C8462D
:10A65000001DB84202D95046BDE8FC87684679DF44
:10A660000028F9D12088032108F80010208819213A
:10A67000401C80B2208008F800102088401C80B266
:10A68000208000EB0801BDF8000008F033FA2188B3
:10A6900008442080F0780222C8B1218896F903305E
:10A6A00001F1030C4846BC45D5D8425421884FF0EF
:10A6B000010C491C89B2218000F801C02188491C85
:10A6C00089B2218009F801302088401C2080706800
:10A6D000B8B1218890F9003001F1030C4846BC451F
:10A6E000B9D8425421880A22491C89B22180425497
:10A6F0002188491C89B2218009F801302088401C3A
:10A700002080308950B1CDE900474B460622022116
:10A7100006F1080008F0B6FA05009DD1308A50B164
:10A72000CDE900474B460722032106F1100008F04F
:10A73000A9FA050090D1308B50B1CDE900474B46C6
:10A740001522142106F1180008F09CFA050083D1A7
:10A75000306A30B13B462246494601F04DFC0500C7
:10A76000DBD1706A30B13B462246494603F0ADFC6E
:10A770000500D2D196F82C0038B13B462246494616
:10A78000304607F0F9FC0500C7D1307838B13B46B8
:10A7900022464946304603F05FFD0500BDD12846FC
:10A7A0005AE7F0B50C4693B01F210726ADF800100C
:10A7B000ADF80410002750B1C17849070DD56A469D
:10A7C00002A9FFF72DFF002808D102AD02E0002505
:10A7D000ADF800706CB1E07810B1304613B0F0BD48
:10A7E00001AA0AA92046FFF71BFF0028F6D10AAAF2
:10A7F00002E00022ADF80470BDF80400C3B2BDF859
:10A800000000C1B2284672DFE8E780F824107047E4
:10A81000FFF7E8BB70B50D00044653D0F4B3012038
:10A8200020700026E670202205F17801201DFEF739
:10A83000E3FE84F82460D5F89800C4F8CC00D5F87D
:10A840009C00C4F8D0004FF6FF70A4F8C800C4F80C
:10A850002560A4F8296084F82B6004F130003C21C5
:10A860000646FEF7E2FE287884F83000A87884F8DF
:10A870003200E87884F83300687884F83100D5E94C
:10A880000401C4E91001D5E90201C4E90E01D5E9CA
:10A890000601C4E9120195F82D0000E012E084F8E9
:10A8A0005D00686AD8B104F1780104F16C00616759
:10A8B0006065696A09880180686A616D808888803E
:10A8C000002008E00E2070BD696A22188968095CC2
:10A8D00082F87810401C616D89888142F4D8A86A9A
:10A8E000E8B104F1A400C4F8A0000C38A065A96A7E
:10A8F00089888180A86AA16D00880880002006E010
:10A90000A96A22188968095C82F8A410401CA16D0C
:10A9100089888142F4D895F82C0084F85C00286A74
:10A9200048B104F1C4002065296A49884180286A39
:10A93000216D00880880686800B1606305F13C0102
:10A940003046BDE87040FFF72CBF10B50288102AD2
:10A950001AD0112A1FD01B2A1CD1007A0C460028BD
:10A9600018D1E0780521401CB0FBF1F201FB120187
:10A97000204600F066F800280CD0D4F8D01000294A
:10A9800008D0BDE810400847C27B012A02D1808868
:10A99000A1F8C80010BD0C46002184F8D4108088AE
:10A9A000B4F8C8108842F5D120790028F2D10121ED
:10A9B000DEE710B50C46022801D0032811D16078DB
:10A9C00000280ED000206070E178204600F039F8B1
:10A9D000002806D0D4F8D010002902D0BDE81040DD
:10A9E000084710BD90F82C205AB1002280F82C2086
:10A9F0000A6840F8252F8A88828089798171002031
:10AA000070470820704710B5044674DF012084F8B1
:10AA1000D400002084F8D600062084F833000021FA
:10AA200004F13000FFF7BDFE002809D1E17820468F
:10AA300000F007F818B1D4F8D01001B18847002011
:10AA400010BD2DE9FF47044600780F4638B1E77086
:10AA5000002004F0ADF9012628B16670D2E008208C
:10AA600004B0BDE8F0870025C4F82550A4F82950AB
:10AA700084F82B50A07910B1E078012806D0E07955
:10AA800070B1E078012801D0022809D1D4F8CC10A7
:10AA900021B184F82C600820884701E084F82C500C
:10AAA00004F1260100200A5C0AB1304603E0401C94
:10AAB0000628F8D300204FF002084FF0030A4FF0A9
:10AAC0000409012F06D0022F09D0032F0CD0042F28
:10AAD00012D10DE0A17911B108B130460DE0E17954
:10AAE00011B108B1404608E0207A08B1504604E0B0
:10AAF000607A08B1484600E02846E070D4F8CC10EF
:10AB000041B1032801D0042804D1607910B194F830
:10AB1000D400A8B184F8D55000950295019503950D
:10AB20008DF800508DF80850E17804F1250004F10B
:10AB30003002052958D2DFE801F0670A131F3B00F5
:10AB400084F8D65084F8D56007208847E4E7A670DB
:10AB500001908DF80060ADF80C50ADF80A5043E05C
:10AB600084F8028001908DF80060208AADF80C0016
:10AB7000A089ADF80A0037E0A08AADF80A00208B62
:10AB8000ADF80C00607980B194F8D40068B994F8FD
:10AB9000D60050B18DF8088084F83390002110461B
:10ABA000FFF7FFFD00BB05211AE084F802A01BE0BF
:10ABB000A08BADF80A00208CADF80C00607988B14C
:10ABC00094F8D40070B994F8D60058B18DF8088084
:10ABD00084F8339000211046FFF7E3FD20B90621E9
:10ABE000A17001E084F80290E07830B194F824106C
:10ABF000684673DF00287FF433AFD4F8CC1009B176
:10AC0000A078884700202BE7A570F6E790F8D530AC
:10AC1000009933B1002380F8D5300A4303D00121D5
:10AC200002E008207047002180F8D610002070470D
:10AC300073B586B0040034D0217C9DF81C20002020
:10AC400091422CD0002501260095ADF8006007A8A0
:10AC5000ADF802500190E188608A6A46A4DF0028BE
:10AC60001DD19DF81C002074608AA0F57F41FF393A
:10AC700019D0207DB8B10295039504950595E0881B
:10AC8000ADF80800BDF80200ADF80C0001988DF891
:10AC90000A60CDF810D00590608A02A9A6DF08B03E
:10ACA00070BD0E20FBE70820F9E738B50D4604001B
:10ACB0001BD0D5B1286820604FF6FF7060822879DC
:10ACC0002075FF20207401208DF8020041F60F004E
:10ACD000ADF80000221D69460120A0DF002803D145
:10ACE00029462046FFF7D2FB38BD0E2038BD38B5C7
:10ACF000002922D0002820D00288102A18D0112A3A
:10AD000018D0502A19D10C46097D002915D030F8E9
:10AD1000061F6289914210D1418902290DD1216813
:10AD200000290AD00C3000F0C1FC38B1002006E048
:10AD3000808801E04FF6FF70488238BD01208DF811
:10AD40000000226869462046904738BD70B504006F
:10AD500012D001461C221448FEF74EFC1248134D37
:10AD60000560206850B17ADF002806D120680168AC
:10AD700029604068686005E00E2070BD0B487BDFED
:10AD80000028FAD108484FF6FF711438084A20F815
:10AD9000041B0549343901600021FFF7B5F900288B
:10ADA000EBD0032070BD000048220020201C0020B2
:10ADB000D52B020002494A6C091D06F0ABBF00000A
:10ADC0006422002002460248016D001D06F08FBF7C
:10ADD0006422002070B5084E054600242A46301D26
:10ADE000716C06F084FF28B12A46301DF16C06F024
:10ADF0007EFF0124204670BD6422002010B500248F
:10AE0000204607F01BFF28B1641CE4B2182CF7D3CE
:10AE1000182010BD03480122A240016811430160BF
:10AE2000204610BD6422002010B5044607F006FF3E
:10AE3000002803D0024800EB8400806D10BD0000A4
:10AE40006422002070B505460C46084607F0F6FE61
:10AE5000002809D005482A4600EB8401001D896DB1
:10AE6000BDE8704006F043BF70BD000064220020C2
:10AE700070B5064615460C46084607F0DFFE00286A
:10AE80000AD006482B4600EB84013246BDE87040EC
:10AE9000001D583106F063BF70BD00006422002021
:10AEA0007CB5054608880C460930904201D90C2033
:10AEB0007CBD68466DDF0028FAD1218808206854DF
:10AEC00020881B21401C80B2208029542088401CEF
:10AED00080B220802844DDF801100160BDF8051023
:10AEE00081802088801D80B220809DF80010490854
:10AEF00000D0012129542088401C208000207CBDE6
:10AF00007FB5044601208DF8060041F60A00ADF831
:10AF10000400454A01A90120A0DF00287ED1228833
:10AF200004F13C0552B140482B46801C009042F68B
:10AF30002920616800F08AFF002873D1228952B16C
:10AF400039482B460A30009042F62420E16800F090
:10AF50007DFF002866D1228A52B133482B46123039
:10AF6000009042F62520616900F070FF002859D159
:10AF7000228B52B12C482B461A30009042F62720E3
:10AF8000E16900F063FF00284CD1228C52B12648C1
:10AF90002B462230009042F62620616A00F056FFD0
:10AFA00000283FD1228D52B11F482B462A300090F5
:10AFB00042F62820E16A00F049FF002832D1216BD7
:10AFC00071B102A807F0C8FB17482B463230009039
:10AFD000082202A942F6232000F038FF002821D1E0
:10AFE000606B58B110492B463A31009102790168E3
:10AFF00042F62A2000F02AFF002813D1A16B81B16C
:10B0000002A806F05DF908482B464230009007225E
:10B0100002A942F6502000F019FF00E002E00028EB
:10B0200000D1002004B070BD821C002030B5028821
:10B0300089B00446212A2FD011DC314D012A38D0A5
:10B0400030480321102A008801EB004017D0112A54
:10B0500020D12DA104F0D6F94FF6FF7019E03B2A5C
:10B0600023D0512A29D0562A14D18088132176DF83
:10B0700000280FD009B0BDE83040FEF7B3BF26A1CD
:10B0800004F0C0F9072000F023FD08B1FEF7AAFF85
:10B09000A088688009B030BD00200090A088694673
:10B0A0008FDF28E0FEF79EFFF4E78088132176DF2C
:10B0B000DEE70021688866DFDAE71022A11D04A818
:10B0C000FEF79AFA9DF810100029E3D09DF81800B9
:10B0D000042803D0062801D00528DBD102290DD091
:10B0E0005FF001008DF800004FF4C170ADF804006E
:10B0F000A0886946A8DF0028D4D1CBE70220F1E779
:10B10000681B0020101E0020446973636F6E6E651B
:10B110006374656400000000436F6E6E6563746560
:10B120006400000010B51A4C0188606810290ED028
:10B1300011292BD1401E606028D1FEF7DFFD0028C9
:10B1400024D02168002921D0BDE810400847D0B99B
:10B1500000210122084600F099FC08B107280FD110
:10B1600007220221012000F091FC08B1072807D135
:10B1700004220221002000F089FC20B1072802D01F
:10B18000216801B188476068401C606010BD000004
:10B19000181C00202DE9F04701883B4E40F2F319BE
:10B1A0004FF6FF7510291BD011293ED0122954D01B
:10B1B000502946D1C188F289841D914241D16189CB
:10B1C00002293ED18688304602F0F2FB050038D0D5
:10B1D00004F10C0000F06AFAA8B3294630464EE0AC
:10B1E000C17B8788044601292BD1A846284602F056
:10B1F000DFFB050017D02F8000202872234843462C
:10B200004A460168C5F80A104068C5F80E0004F106
:10B21000100105F10A0002F031FC6872F089002883
:10B220000FD129462AE0042013E0808802F0C0FBF9
:10B23000040006D06068FEF7E7FF08B106F0BCFE28
:10B240002580BDE8F087FFE76868FEF7DDFF00288E
:10B25000F7D0BDE8F04706F0AFBE8788064638460F
:10B2600002F0A6FB0400ECD02B464A4606F108018A
:10B2700004F10A0002F002FC607221463846BDE883
:10B28000F04700F0FFBE000048220020201C0020F4
:10B290002DE9F0470546038839480122A4B000F1A2
:10B2A000480A102B09D0112B48D01A2B64D1297AC7
:10B2B000B2EB111F47D2012346E0D0E911218A43A6
:10B2C0000446011D12A806F025FD442212A901A87A
:10B2D000FEF792F9DFF8A8900026374609F14409F5
:10B2E0000DF104080AE000BF08EB46001D22838828
:10B2F0004946201D009706F0BFFC761C0198B0421D
:10B30000F2D8606CAD88C04306F0D8FCA0F57F4150
:10B31000FF390DD004EB4000012385802A465146B9
:10B32000201D06F01CFD01232A464946201D1EE073
:10B3300024B00420BDE8F047FEF754BE0023AA88DD
:10B340005146001D13E000230D490446AA885031E0
:10B35000001D06F004FD287A0221B1EB101F01D276
:10B36000012300E000230649AA885431201D24B09F
:10B37000BDE8F04706F0F3BC24B0BDE8F08700005C
:10B380006422002010B504460748007800280AD03F
:10B39000204602F053F8204606F048FF2046BDE85C
:10B3A000104001F00FBC10BD541C0020F0B5054644
:10B3B00087B01646B5F87641DDE90C20A4F57F4745
:10B3C000FF3F2FD0D41CA7B2ADF80070082F26D8AD
:10B3D0008DF814108DF815608DF8163005AE1AB181
:10B3E0000146F01CFEF708F900200190029003903E
:10B3F0000490B5F85E11ADF8041001218DF8061027
:10B40000ADF808006846CDE90306B5F8760101A954
:10B41000A6DF002804D1BDF80010A14200D00C2006
:10B4200007B0F0BD0820FBE7F0B50546887A85B087
:10B430000C460A2805D8207C0A2802D8207E0A2833
:10B4400002D9072005B0F0BD2068286060686860F8
:10B45000A07AA874207C85F87800207E85F8DE002C
:10B460004FF6FF70A5F8760101208DF80E0041F629
:10B470001200ADF80C0005F1080203A90120A0DFBD
:10B480000028DFD1002609E0A06B6A4630F81610CC
:10B490002889A1DF0028D5D1761CF6B294F83600B1
:10B4A000B042F1D8207A002708B9607A30B104F1AF
:10B4B0003C01284605F06AFF0028C3D121462846F2
:10B4C00002F03AFA0028BDD12146284604F0FDFCDE
:10B4D0000028B7D1207E30B3E06920B300261FE0FA
:10B4E000E069049700EBC6039DF8100006EB8601A7
:10B4F00040F00A008DF8100005EB4100D979E030EA
:10B5000001F00102191D0091CDE9012033F8022B51
:10B5100004A9284606F090F9002893D1761CF6B2CB
:10B52000207EB042DCD82146284606F01EFA0028CC
:10B5300088D1207A90B105F5A770009004F14303FB
:10B54000082242F62221284600F0BAF8002898D1B5
:10B550002146284600F01CF9002892D1607A60B19B
:10B5600005F5AF70009004F14003082242F6332144
:10B57000284600F0A5F800288DD12146284601F084
:10B58000BEFD002887D104F13E01284601F072FD7E
:10B5900058E730B51446827C85B08A422BD901EB3E
:10B5A0008101B0F8762100EB41011431A2F57F450D
:10B5B000FF3D1ED00022ADF800400192029203929E
:10B5C00004920988ADF8041001218DF80610ADF839
:10B5D00008206946CDE90313B0F8760101A9A6DF7A
:10B5E000002804D1BDF80010A14200D00C2005B005
:10B5F00030BD0820FBE70720F9E730B50C4601888D
:10B6000087B0102920D011293BD050293ED0512994
:10B6100018D1054610F8061F012913D1418805AA43
:10B62000204606F041FA00280CD021682046002967
:10B6300008D007218DF80010059904950191026842
:10B640006946904707B030BD8088A4F876016089CC
:10B650000028F7D0012000210091ADF800008DF8FE
:10B66000080002A8ADF8021001906189B4F87601D3
:10B670006A46A4DF0028E5D061680029E2D0884747
:10B68000E0E74FF6FF70A4F87601DBE7014607B06C
:10B690002046BDE8304004F09BBB70B504460D4623
:10B6A0000846FDF7CDFF2080656070BD007800F092
:10B6B000010070470A780270497841700220704793
:10B6C0002DE9F0438FB00024DDF8589080460794B0
:10B6D0009DF81C000F4620F00F00401C20F0F000E9
:10B6E00010308DF81C0018788DF81D009DF81E0094
:10B6F0001D4620F00600801C8DF81E0016461C21F9
:10B700006846FDF792FF9DF8000040F002008DF8BA
:10B710000000A978090702D040F0080001E020F0FD
:10B72000080040F010008DF8000007A8CDE90440A3
:10B730000120019403948DF83A000694ADF8387016
:10B740000D9468788DF83400A8788DF835009DF850
:10B750003600142120F00600801C20F019008DF81E
:10B76000360008A8FDF761FF0EA808900DA8ADF8F7
:10B7700028400990ADF82A40ADF82C600C94B8F838
:10B7800008004B4608AA6946A2DF0FB0BDE8F08367
:10B79000F0B58FB00E4605461C216846FDF745FF03
:10B7A00000249DF80000039440F00E008DF8000086
:10B7B000012701948DF8367042F6322004940594E6
:10B7C0000694ADF834000C9416F8460F8DF830004E
:10B7D00070788DF831009DF83200142120F00600B9
:10B7E000801C20F019008DF8320007A8FDF71DFF1E
:10B7F0000DA807900CA8ADF824400890ADF826409D
:10B80000ADF828700B94288905F5AB7307AA694633
:10B81000A2DF0FB0F0BD00000149085C70470000D6
:10B82000683102000649095C4FF0A040D0F81005CD
:10B83000C84010F0010000D0012080F001007047E6
:10B840006831020007490B5C4FF0A041D1F8042594
:10B850000120984020EA0203C1F808351040C1F8E1
:10B860000C057047643102000249085C012103F0B5
:10B87000DCBB0000643102000249085C002103F0D7
:10B88000D4BB0000643102000649095C4FF0A040BF
:10B89000D0F80405C84010F0010000D0012080F06D
:10B8A00001007047643102007CB50024084E254633
:10B8B0000122305D009500231146019503F041FB04
:10B8C000641C042CF4D3BDE87C4000F003B80000F5
:10B8D0006431020010B500242046FFF7C5FF641C48
:10B8E000042CF9D310BD10B500242046FFF7C4FF87
:10B8F000641C042CF9D310BD10B50246064B4FF062
:10B90000FF3000215C5C944201D1084610BD491C07
:10B910000429F7D310BD00006831020070B50C4E49
:10B920000C004FF0000530600BD0012000F06AF8E9
:10B9300008B1022004E0002000F064F800B10B2000
:10B940002070706810B9FEF7D9F90546284670BD19
:10B95000181C002010B5002000F0ECF908B10628F2
:10B9600006D1012000F0E6F908B1062800D1002038
:10B9700010BD00002DE9F0470D468146FFF7BCFFE2
:10B980000446042836D2DFF874801B481C4EA8F108
:10B990000C0725B3012D0ED0022D2BD104EB440052
:10B9A00030444578002D25D0B968002922D028469A
:10B9B000BDE8F047084704EB4401755C0E4471781C
:10B9C00049B10E4A4FF40041093A8068FEF7D8FBAE
:10B9D00008B987F80390B17808F80410E2E78068A6
:10B9E000FEF712FC04EB4401314418F804008D7892
:10B9F000A842D7D0BDE8F0876C310200141C0020AB
:10BA0000E8210020FFF70EBF011F1E4810B5408837
:10BA10004FF6FF726FF004030E291CD2DFE801F02D
:10BA20000B1B1B141B1B071B1B1B1C21252ABDE802
:10BA3000104006F0E7BB132176DF0AE000280AD0A9
:10BA4000BDE81040FEF7CEBA904204D10E48FEF792
:10BA5000DAFF0828F2D110BD9042FCD00021184630
:10BA60000CE09042F7D0194607E09042F3D0002155
:10BA7000052003E09042EED005210020BDE81040F3
:10BA800002F0AABB681B0020B020002070B5002384
:10BA9000042810D20D4D00EB4004012A02D10129E7
:10BAA0000CD00022094E00EB4000304461B1012966
:10BAB00006D0022906D00723184670BD0E30C2B248
:10BAC0002A55F9E74270F7E78270F5E7E821002090
:10BAD000044A014600201279D20702D0084600F03D
:10BAE0004DB87047081C002070B506461E4800245B
:10BAF000C0E90161B00720D5002501221146284682
:10BB0000FFF7C4FF6D1C0446042D02D2002CF4D0B4
:10BB100013E094B940F2666204211448FEF7ECF990
:10BB200004000AD1FEF7D6F9040006D10F48104AE6
:10BB30000021001FFEF7E8FA0446F00701D0FFF7E6
:10BB4000B3FE74B909480B4A00210C38FEF7DCFA41
:10BB5000040006D10548084A01210838FEF7D4FA46
:10BB60000446204670BD0000081C00207831020009
:10BB7000D1BD010011DB0100C39E01002DE9F05F82
:10BB80006A4C054600266078B34618B184F801B0C7
:10BB900001F0A6FF664F4FF47A694FF4C87A4FF070
:10BBA0000108182D62D2DFE805F0AC0C0C31404DD5
:10BBB00062676B746B74BE7D7D7D7D7DACAFB2B50D
:10BBC000BEBE0020FFF760FE00284FF0000008D046
:10BBD000FFF74AFE022D02D14FF4E16008E048462B
:10BBE00006E0FFF749FE022D01D1C82000E05046D3
:10BBF000410CC0034FF4FA72801841F10001257026
:10BC000052000023FDF7B4FC01462AE00020FFF7B4
:10BC10003BFE00284FF0000004D0FFF725FE4FF454
:10BC20004870E5E7FFF728FEDFE70020FFF72CFE6E
:10BC300000284FF0000002D0FFF716FECFE7FFF715
:10BC40001BFED4E70020FFF71FFE00284FF0000086
:10BC500002D0FFF709FE01E0FFF70EFE257041F666
:10BC60009A1100223868FEF78BFA064646E000205B
:10BC7000FFF7E8FD257008E0002051E025703DE069
:10BC800084F801800120FFF7DDFD002240F6CD4160
:10BC9000E8E784F801800120FFF7D4FD00224FF48B
:10BCA0008041DFE77868FEF7AFFA0646D5F111006C
:10BCB00000D02EB10220FFF7D7FD84F802B01DE0BE
:10BCC000012816D980B2C8214843C117C90341EAE7
:10BCD0005041C0034FF4FA72801841F10001520044
:10BCE0000023FDF745FC014600227868FEF748FA7C
:10BCF00006460220FFF7C0FD84F802803046BDE80A
:10BD0000F09F01F0EDFEB9E701F0EAFEB4E701F0C3
:10BD1000E7FE04E001F0E4FE0020FFF7ADFD0120A6
:10BD2000FFF7AAFDAAE7FFF7DEFDA7E7081C002042
:10BD30006C31020010B5FFF76FFD032103F053F9DA
:10BD4000002010BDF8B5861C00208DF800000C46C0
:10BD500001276846FEF768FA0F4801682160D0E9BC
:10BD60000012891A82680446511AB51C07E000BF08
:10BD700002F094F8D4E90001401AA168091A491C9C
:10BD80008D42F5D82068304420609DF80000FEF711
:10BD90006FFA3846F8BD0000D829002030B4826818
:10BDA0000468531C8360A154D0E901128A4202D373
:10BDB00030BC02F0D4BE30BC70470000034803C85A
:10BDC000814201D10120704700207047D82900200E
:10BDD00000780221FFF7CEBD05494FF0FF32082859
:10BDE00041F8202002D3084480F848207047000022
:10BDF0008C250020F0B54FF0FF3512B10023082646
:10BE000001E008230C260C4C05E000BF54F8237019
:10BE10007F1C04D05B1CB342F8D32846F0BD261823
:10BE20005DB286F8305044F82310002AF5D1E118AD
:10BE300081F84800F1E700008C2500200249084401
:10BE400090F93000704700008C2500202DE9F04368
:10BE50008FB01E46DDF8589015460F00804602D17F
:10BE60000020FEF7BFF815B90020FEF7BBF81C2133
:10BE70006846FDF7DAFB00249DF80000039440F0CB
:10BE800002008DF80000012001948DF83600049422
:10BE900005940694ADF834800C9430788DF8300019
:10BEA00070788DF831009DF83200142120F00600E2
:10BEB000801C20F019008DF8320007A8FDF7B5FBB3
:10BEC0000DA807900CA808900748ADF82450ADF8CD
:10BED0002640ADF828500B974B4607AA69460088C4
:10BEE000A2DF0FB0BDE8F083821C002070B50446CD
:10BEF0004FF6FF750A462846AC4208D14FF48074CD
:10BF00002146104604F0D2FFA04209D070BDFF2C9C
:10BF1000FCD82146104604F0BCFF08B1204670BD95
:10BF2000284670BD70B5084C050009D01034216852
:10BF3000002907D008682060496828468847F6E746
:10BF40000834F4E770BD0000782500202DE9F05F8B
:10BF500026484168F1B3DFF898B00E688146DBF8F7
:10BF6000004087688078E11B21F07F45ED1CB0B967
:10BF7000DFF880804FF48030C8F84403C8F8040329
:10BF80001120FDF779FC1120FDF781FC4FF0010A2B
:10BF9000C8F800A02F2002F045FB89F802A0B542A6
:10BFA00000D23546124BE8193C3320F07F40186030
:10BFB000DBF800105A46091B21F07F41001B20F0DE
:10BFC0007F40C91C81420FD9106818602F2002F0F1
:10BFD00029FB00E004E0BDE8F05F1120FDF762BC42
:10BFE000BDE8F05F05F0A4BDBDE8F09F001D002096
:10BFF00004150140001001402DE9F0411788064664
:10C00000B81D14460D46984202D90C20BDE8F081B7
:10C010003188072206290AD34FF4486C4FF6FF7384
:10C02000614501D9994202D17088062801D2104693
:10C03000ECE7604501D99842F9D1994203D0984282
:10C0400001D08142F3D80520E85520881221401CF8
:10C0500080B2208029542088401C80B22080411961
:10C06000308806F047FD2188084480B220804119BD
:10C07000708806F03FFD2188084420800020C5E735
:10C08000FDF7B0BF38B54A7A0F4B62B100220A7291
:10C090005969002906D001228DF80020ADF8020070
:10C0A0006846884738BD0A7A62B19B684C68024688
:10C0B00019462046FEF764F80028F3D0BDE8384062
:10C0C00005F07ABF5B68F1E748220020F0B585B043
:10C0D00016460F4604461D4614220B496846FDF7D6
:10C0E0008BFA0A488DF80870ADF80240ADF80A6086
:10C0F0008DF80C50017800222046FEF7B9FE684604
:10C1000000F0F8F905B0F0BD7C320200641C00209C
:10C110007FB50C4610B1012004B070BD2079002617
:10C1200038B141F61D5501281BD0022826D00F201A
:10C13000F2E70220207102960396E06801906946BA
:10C1400001A805F0D7FA50B102988188E1800088F3
:10C150002081BDF80010029805F04AFBDCE70A20B8
:10C16000DAE70A4B6A460021A01D05F07FFA38B1D4
:10C17000064918398E61CE610A28CDD12846CBE711
:10C1800002488188019805F033FBF5E72C1D00205B
:10C190002DE9F05F0025DFF8A48043E0606800210E
:10C1A00000EBC506012032789146FDF712FAD4E97A
:10C1B000062300EA020701EA030C57EA0C072FD016
:10C1C000C7433A408B434846C4E9062302F074FB58
:10C1D00032784FF0000A8146934601205146FDF720
:10C1E000F8F9D4E9042300EA020401EA03075A46F5
:10C1F00048465146FDF7EDF944404F403C430FD1CE
:10C200007078012815D0002289EA02008AEAE271DA
:10C21000084310D00020726812B1C1B2584690474E
:10C220006D1CEDB298F8000044468542B6D3BDE8D7
:10C23000F09F0122E8E70120EDE70000D01C00207C
:10C2400000B593B002208DF8400041F61510ADF80E
:10C2500042004EF6EE60ADF844000120ADF8460015
:10C2600040216846FDF7E1F90FA16846FFF715FA8E
:10C2700010A80E909DF83C0020F00F00401C20F00C
:10C28000F00020308DF83C009DF83D0020F0FF00CC
:10C290008DF83D006846FEF733FE002801D0FDF71B
:10C2A000A1FE13B000BD00004E6F72646963536558
:10C2B0006D69636F6E647563746F72000E4910B5BB
:10C2C0000A784C780023A24212D0521CD2B20A70D3
:10C2D000022A00D10B70084A0B780C3252F8232046
:10C2E00002608868104420F07F408860012010BD03
:10C2F0000360002010BD0000001D002013460A4608
:10C300000021FFF7E3BE00002DE9F843104D0F4672
:10C3100080461E4691466946286802F054F804009B
:10C3200014D01C21FDF781F901202071C4F814906C
:10C33000380BC4F80080C4E902606946286802F03E
:10C3400063F805F02FF90020BDE8F8830420FBE72F
:10C35000DC32020010B503780022072B06D2DFE89A
:10C3600003F005040610202930000A7010BD0123D7
:10C370000B7003898B818388CB81C06888600A74C5
:10C3800010BD02220A7002898A818288CA81C2682D
:10C390008A60807D062802D00020087410BD01202C
:10C3A000FBE703220A70C2888A810289CA81C068B9
:10C3B000886010BD04230B70C0888881CA818A60A0
:10C3C00010BD0520087010BD70B5064D064600244E
:10C3D00055F8241009B130468847641C042CF7D363
:10C3E00070BD00004427002030B50446006885B0C9
:10C3F0000D46806800281CD014216846FDF715F909
:10C400000195A0680490207910B101280DD104E0B5
:10C4100001208DF80000206904E002208DF8000062
:10C42000E0680003029060690390206881686846B4
:10C43000884705B030BD70B586B015460C0006467D
:10C4400019D0112C17D0082C15D014216846FDF7EF
:10C45000ECF8ADF80260304601F06AF9ADF804007E
:10C460000D2C0AD0862C1CD007208DF800000294D9
:10C47000684600F04DF806B070BD03208DF800004E
:10C4800025B12878C00701D0012000E002208DF8F6
:10C49000080000208DF80C0041F20110ADF80A00F0
:10C4A000E6E706208DF80000E2E7000010B504463C
:10C4B000408801F03DF9A080024801682046BDE8AF
:10C4C00010400847301C00202DE9F04107460024A9
:10C4D000064E074D05E000BF56F824103846884741
:10C4E000641CE8788442F7DBBDE8F0812C2500204D
:10C4F000541C002010B50446408801F019F9A080B2
:10C50000024801682046BDE810400847503202004A
:10C510000149096808470000A432020070B586B0DE
:10C52000044614216846FDF780F8A0890026A0F58E
:10C530004040ADF8040020782D4D062835D2DFE8C4
:10C5400000F0340303032E4EA08900F0C9F9012145
:10C5500030B9E08943F6FE72A0F54040904224D8FD
:10C56000A07B8DF808002078032810D05FF0000031
:10C570008DF80900A0680390606850B109208DF81B
:10C58000000060680490684603F08EFF0DE0012013
:10C59000EEE708208DF800008DF81010F3E7A08971
:10C5A00000F09EF908B1E08938B16878002802D01F
:10C5B0006E7004F0A9F806B070BD606838B10B2049
:10C5C0008DF800006E70AE7004F09EF8DBE70A2074
:10C5D0008DF80000BDF8040004F026F9F2E71320FE
:10C5E0008DF800004FF6FF70ADF80400CBE70000B7
:10C5F000401C002038B504460E480078A8B1A4F5C8
:10C600007F40FF380FD0684604F006FF78B105215F
:10C61000017001210171C480684604F00BFF04F031
:10C62000B1FF002038BD042038BD022038BD0820ED
:10C6300038BD0000341D00200C4808B5007888B1D2
:10C64000684604F0E9FE78B106210170684604F0FE
:10C65000F1FE0748017809B10121017304F092FF4E
:10C66000002008BD022008BD082008BD341D0020A0
:10C6700008280020F0B589B014216846FCF7D5FFE2
:10C680002D4C207818B16846FFF79EFE52E0201D21
:10C69000012105AAFCF7CAFDC8BB4FF01020406974
:10C6A0004FF080510969421C02D101EB41000001A9
:10C6B000224900220861A0F54050C86020491F4867
:10C6C00002F06DFB002820D11F481C238C221D493D
:10C6D000006801F065FE03F09BFC050014D0022DFC
:10C6E00012D000270126062D12D006A804F094FED1
:10C6F00088B106700C2D18D2DFE805F0170F170F60
:10C7000017161716171113110B2009B0F0BD11E001
:10C7100026706760B7E70820F7E7077105E0032197
:10C7200000E00221017100E0067106A804F082FE1B
:10C7300004F028FF0020E8E7341D0020B41D00208D
:10C74000EC32020054270020B432020038B5040055
:10C7500014D0694604F0CEFFA0B1BDF8000000EB94
:10C760008001094800EB8100C16849B1A17A39B163
:10C77000C168491EC1600020A07238BD052038BDC7
:10C78000062038BD0A2038BDE02700201FB501A9CA
:10C79000684604F06BFF04B010BD07B513460A46A7
:10C7A0006946002004F062FF0EBD07B513460A4635
:10C7B0000021684604F05AFF0EBD20B119B100688F
:10C7C0000860002070470520704700007CB50D46CA
:10C7D000040019D0C5B1694604F08CFFB0B1BDF8B2
:10C7E00000000B4900EB800001EB8000012101AA51
:10C7F0000C306668FCF741FD2E6060680C306860A4
:10C800000120A07200207CBD05207CBD0A207CBDDB
:10C81000E027002018B10323002206F079BB052091
:10C8200070470223002206F073BB12B1022306F008
:10C830006FBB052070470000094908B50A69042A42
:10C840000BD0084A096942F821000548012110303F
:10C850006A46FCF712FD002008BD0C2008BD000050
:10C86000141D00204427002038B5044609480D4611
:10C87000007858B164B16946284606F043FC0028A8
:10C8800003D1BDF800102180658038BD022038BD7D
:10C89000052038BD341D002010B504460E48007830
:10C8A00098B1A4B12188022913D80C4A01EB810068
:10C8B00002EB800260885289C31C934209D806F0BB
:10C8C00015FC00202080608010BD022010BD0520D6
:10C8D00010BD042010BD0000341D0020E027002002
:10C8E00043F6FE71A0F54040884201D80120704710
:10C8F0000020704710B504460078182802D1FEF7D2
:10C900007DFA207010BD10B504460078182802D1B9
:10C91000FEF774FA207010BD70B51346002206466B
:10C920001546862902D0112902D002E0012200E03A
:10C9300001250D4C73B1A179FEF79AFA2A46617967
:10C940003046FEF795FA0022A1783046FEF790FABD
:10C95000002203E0A178FEF78BFA2A466178304680
:10C96000BDE87040FEF784BA6C1C0020406804F0FB
:10C9700069BD00000EB517A19DF8080020F00F005A
:10C98000401C20F0F00010308DF808000C2202A8A6
:10C990007CDF08B1FDF726FB40F2C23078DF08B13A
:10C9A000FDF720FB0020009001900620ADF800006C
:10C9B0000C20ADF802001420ADF804004FF496707E
:10C9C000ADF8060068467ADF002801D0FDF70AFBC3
:10C9D0000EBD00004E6F726469635F4D6F757365C5
:10C9E0000000000070B508B1012070BD194C002591
:10C9F000207B08B1257301E000F0A0F8207808281A
:10CA000026D2DFE800F02504080C10251420BDE82C
:10CA1000704000F021B8BDE8704000F07DB8BDE87E
:10CA2000704000F05FB8BDE8704000F03BB860882F
:10CA3000084900EB8000283901EB80004068BDE820
:10CA4000704003F0C5BA6560BDE8704003F0CEBA2F
:10CA50000F2070BD082800201149F0B48A1C002066
:10CA60000346A1F128050C18A67A4EB1A37200EB7B
:10CA7000800405EB8404E66816B9247C012C0AD0F6
:10CA8000401C80B20228EED30B704B804B60F0BC90
:10CA900041F61D5070471080F0BC00F03DB800001A
:10CAA000082800200C48418801EB8102A0F12801F0
:10CAB00001EB8201CA6852B10521017007480221C9
:10CAC0008180016800230122054802F041B9042257
:10CAD00002704968F6E70000082800203C1D00208D
:10CAE000B41D002038B50A49084803240B68426881
:10CAF000898803EB810153880470DB1C00201B0430
:10CB000000909B0B034802F0E9F938BD082800208B
:10CB10003C1D0020B41D0020074910B54888091DA0
:10CB200004F038FE18B1BDE81040FFF7DBBFBDE8E8
:10CB30001040FFF7B7BF000008280020F0B51F48DD
:10CB40001F490125067802248B88A0F12802082EAF
:10CB500019D2DFE806F00418181B222F2F170189BD
:10CB6000491C01810021418080F80C1001EB8103F8
:10CB700012F8233043B100234418491C89B2A37230
:10CB80000229F3D30570F0BD0123F5E7426852880E
:10CB9000D21C1A448A800470F0BD46880D6806EBEA
:10CBA000860602EB860256680E60556013818C8003
:10CBB000062100E007210170F0BD000008280020D8
:10CBC0003C1D002030B501888588224C85B0502955
:10CBD00024D0522902D0542932D103E0284601F052
:10CBE00007F92DE014221C496846FCF705FDADF855
:10CBF0000250284600F09CFDADF8040000F04AF910
:10CC0000002261792846FEF733F90022217928466F
:10CC1000FEF72EF96846FFF749FC11E0017B012978
:10CC20000ED1817A01290BD10089A0F52451023956
:10CC300006D10121284601F00FF9A07803F0ECFE9F
:10CC4000E07803F0E9FE207905B0BDE8304003F05C
:10CC5000E3BE0000281C0020D431020010B50446B9
:10CC6000007800280FD1608801F0C2F8608800F0D9
:10CC7000B9F9002807D00449608801220979BDE884
:10CC80001040FEF7F5B810BD281C002010B5124C5E
:10CC900000202070FEF7B2F8A070FEF7AFF8E07049
:10CCA000FEF7ACF82071FEF7A9F86071A178182999
:10CCB0000FD0E17818290CD02179182909D018282B
:10CCC00007D00121601C04F0DDF801202070002055
:10CCD00010BD032010BD0000281C00202DE9F041EC
:10CCE00092B000F0EFF86846FEF764F800246E4654
:10CCF0000D4D4FF6FF780DE006EB4407B88800F0C5
:10CD000017FD404504D1B88801222979FEF7B0F813
:10CD1000641CA4B20098A042EED8287903F07CFEEF
:10CD200012B0BDE8F0810000281C00207CB504464C
:10CD300000781C4D08282FD1607A38BB207A4FF636
:10CD4000FF7601280DD0072802D0082824D11EE044
:10CD5000A08800F0D7FBB0421ED0012101F07CF882
:10CD60001AE0A0886A46012103F096FA70B901988A
:10CD7000007858B1A08800F0C5FBB0420CD0012269
:10CD80002979FEF775F8287903F046FE04E0054896
:10CD90000021401C04F0B1F8A878BDE87C4003F005
:10CDA0003BBE0000281C002010B504460A4841780C
:10CDB0002046FEF747F868B10848002101EB410220
:10CDC00000EB82025288A24201D1C8B210BD491CB8
:10CDD0001429F3D3FF2010BD3A1C00201C2300208F
:10CDE00070B5094D094E002404EB440005EB8000AA
:10CDF00071784088FEF726F820B1641C142CF3D318
:10CE0000FF2070BDE0B270BD1C2300203A1C002042
:10CE10002DE9F0418046024601200021FCF7D9FBB4
:10CE20001A4F05460E463868FDF7EEF900280CD17A
:10CE3000174CD4E9062110462A4001EA06031A439A
:10CE400005D0A843B143C4E90601BDE8F0814046DE
:10CE500001F032FD30B1D4E9040128433143C4E983
:10CE6000040105E0D4E90410A943B043C4E9041067
:10CE7000D4E9060128433143C4E90601A1683868B2
:10CE8000BDE8F0410022FDF77BB90000AC320200A2
:10CE9000D01C00201CB5054AD2E90212CDE90012CF
:10CEA0000022694603F01DFA1CBD0000EC310200AF
:10CEB00003484FF6FF718180012101700020704707
:10CEC000341C002010B54FF6FF7003F09DF90349A4
:10CED0008880BDE8104005F0E7B80000341C002051
:10CEE0002DE9FC41804600F023FC002403250127A6
:10CEF000A0F57F412646FF3908D06A46082103F095
:10CF0000CBF918B90198841D8688056832462B46EE
:10CF100021464046A9DF042804D0082804D00B2865
:10CF200008D002E0112000E00020002F00D10B20EB
:10CF3000BDE8FC810027A80701D50125E6E73443B9
:10CF4000F5D0002426460325E0E72DE9FC41804684
:10CF500000F0EEFB0646A0F57F40FF380ED001251D
:10CF60002A466D1C0027ADB26B460821304603F0FF
:10CF7000BDF9040006D0072C25D025E043F20200BD
:10CF8000BDE8FC81019903230A1D0B604046891D01
:10CF9000AADF040004D00C2C09D0052C09D009E02C
:10CFA00032460821104603F037FA04460CE0012708
:10CFB00000E000240821304603F01AFA00B10324EF
:10CFC000002FCDD100E00C242046D9E7044880880A
:10CFD000A0F57F41FF3901D005F066B87047000029
:10CFE000341C00200EB502A9019100F0A1FB6A4695
:10CFF000012103F051F908B100200EBD019800781D
:10D000000EBD00002DE9F04107464FF6FF760A48B5
:10D01000ABDF10B10320BDE8F081074C43F20305FC
:10D02000A41E324661883846A7DFA842F3D1608843
:10D03000401C6080F5E70000361C0020428800EBB1
:10D0400082020C328A4201D9022070478188A1F500
:10D050007F42FF3A03D0008808B1002070470120CA
:10D060007047884204D20068401C01D001207047FC
:10D0700000207047F0B58FB00F4605461C2168466A
:10D08000FCF7D3FA00249DF80000039440F004005C
:10D090008DF80000012601948DF8366042F64C2090
:10D0A000049405940694ADF834000C9438788DF807
:10D0B000300078788DF831009DF832008DF83840D6
:10D0C00020F00600801C20F019008DF83200142199
:10D0D00007A8FCF7AAFA0DA807900CA80890ADF8CD
:10D0E00024600EA8ADF82640ADF828600B90288982
:10D0F00005F5B77307AA6946A2DF0FB0F0BD70B59A
:10D1000090B00D4606461C2105A8FCF78EFA0024B7
:10D110009DF81400069440F002008DF814000A9463
:10D1200001208DF83E00089442F64A2009940B94A1
:10D13000ADF83C000D9495F834008DF8340095F866
:10D1400035008DF835009DF83600142120F00600DA
:10D15000801C20F019008DF8360035F8300F8DF85E
:10D160003800000A8DF83900A8788DF83A00E87880
:10D170008DF83B0004256846FCF757FA0FA800908D
:10D180000DA80190ADF808500EA8ADF80A40ADF812
:10D190000C500490308906F5B3736A4605A9A2DFE6
:10D1A00010B070BD30B599B018216846FCF73DFA53
:10D1B0009DF80400032520F00F00401C20F0F00033
:10D1C00020308DF804009DF80500ADF8085020F0DF
:10D1D0000F00401C20F0F00020308DF805009DF875
:10D1E0000600012420F00F00401C20F0F000203049
:10D1F0008DF8060002208DF80A009DF80C00ADF8AD
:10D20000005020F00F00401C20F0F00020308DF87E
:10D210000C009DF80D008DF8024020F00F00401C1E
:10D2200020F0F00020308DF80D009DF80E008DF8F4
:10D23000034020F00F00401C20F0F00020308DF85B
:10D240000E009DF81400ADF8104020F00F00401CB7
:10D2500020F0F00020308DF814009DF815008DF8B6
:10D26000125020F00F00401C20F0F00020308DF80C
:10D2700015009DF816008DF80B4020F00F00401CA3
:10D2800020F0F00020308DF816008DF81340482172
:10D2900006A8FCF7CAF947480690474807900020BF
:10D2A0008DF828008821ADF83C108DF82000CDF8CD
:10D2B00024D042498DF821400E918DF822500D90D6
:10D2C00040F20111ADF848100B908DF830008DF848
:10D2D0004A008DF84E0014909DF844008DF84B5094
:10D2E00020F00F00401C20F0F00020308DF84400AA
:10D2F0009DF8450020F0FF008DF845009DF84C009A
:10D3000020F00F00401C20F0F00020308DF84C0081
:10D310009DF84D0020F0FF008DF84D009DF858005D
:10D3200020F00F00401C20F0F00020308DF8580055
:10D330009DF8590020F00F00401C20F0F000203034
:10D340008DF859009DF85A0020F00F00401C20F085
:10D35000F00020308DF85A009DF8540020F00F00A6
:10D36000401C20F0F00020308DF854009DF855004E
:10D3700020F00F00401C20F0F00020308DF8550008
:10D380009DF8560020F0FF008DF856009DF85700DC
:10D3900006A920F00F00401C20F0F00020308DF88E
:10D3A00057000748FEF740F8002801D0FCF71AFEA6
:10D3B00019B030BD49FD010001220200801B002090
:10D3C000281F00203EB5027802230C46B3EB520F13
:10D3D00017D1B0F80110ADF80010C1788DF8021027
:10D3E0008188ADF8041080798DF8060002AA01A9A1
:10D3F0002046FCF73DFD032202A96846FCF727F909
:10D4000008B100203EBD01203EBD000010B50C4615
:10D41000FFF7CAFCFF280CD0074900EB400001EBE6
:10D420008000416821600189A180807AA07100207C
:10D4300010BD052010BD00001C23002070B5018820
:10D4400092B0102959D1011D34226846FCF7D4F856
:10D450009DF804004FF6FF76032134466D46B1EB8C
:10D46000500F2AD003F08EF89DF8040040080ED02B
:10D4700001280CD0022820D118E00F99281D113165
:10D48000FCF717FC18B100BFBDF8344015E00EAA38
:10D490000DA9072003F04AF80028EED10DE00F99FE
:10D4A000281D491CFFF78EFF0028EDD10EAA0DA9FB
:10D4B000072003F03BF80028F1D1BDF80000291D3A
:10D4C00000F018FFB44218D0BDF80000214600F06B
:10D4D00019F9BDF80000ADF836000020ADF838406D
:10D4E000074E8DF834000DAD044600BF56F82410E9
:10D4F00028468847641C022CF8D312B070BD000087
:10D5000000320200094A002101EB410332F82330C6
:10D51000834205D101EB410002EB80004088704757
:10D52000491C1429F0D34FF6FF7070471C230020CC
:10D530002DE9F041CEB00D46070019D0C5B10DF16F
:10D54000B8085020CDE94B80B8216846FCF76DF84B
:10D55000002042A94FEA0D06C0EBC00202EB001208
:10D56000324441F82020401C0828F5D300242BE049
:10D570000022114610466FDF4EB0BDE8F081502109
:10D580002EA8FCF752F837F814004CAB4AAA072132
:10D5900003F000F805280AD0072808D09DF8C90034
:10D5A000400806D0012804D043F20220E4E7052019
:10D5B000E2E7C4EBC40000EB04103044172208F18A
:10D5C0000101FCF719F8641CAC42D8D3EAB200217F
:10D5D00042A86FDFD0E73EB50C46054602F0D2FF09
:10D5E0000BE0BDF80000A04207D02846029900F0E9
:10D5F0002FF810B1BDF800003EBD01AA6946072012
:10D6000002F094FF0028ECD14FF6FF703EBD000001
:10D6100010B50D4C18200D4A607000204FF6FF71B8
:10D6200000EB400302EB8303401C59801428F7D31E
:10D63000FDF7E4FB6070182803D001202070002063
:10D6400010BD032010BD00003A1C00201C23002048
:10D650002DE9F0410C46054600F1110701F11106D4
:10D660001022491C401CFBF7F2FF48B9681C00F06F
:10D6700027FA28B1601C00F023FA08B1012400E069
:10D68000002431463846FCF714FB3B780222B2EB0B
:10D69000530F0CD00321B1EB530F08D03378B2EB0A
:10D6A000530F04D0B1EB530F01D0012100E0002152
:10D6B000084201D18C4302D00120BDE8F081002056
:10D6C000FBE7018811B9421892780AB1012070472E
:10D6D000491C0829F7D30020704710B50C460346B3
:10D6E000FFF7EFFF00280AD018882188884205D16B
:10D6F0000822A11C981CFBF7AAFF08B1002010BD4E
:10D70000012010BD03F0E4B870B50446FFF7FAFE3F
:10D710000546204602F0C3FD4FF6FF7104468D42D8
:10D7200003D014B9284603F0D3F8204670BD00009A
:10D7300010B5FFF739FBFF2805D0044900EB400086
:10D7400031F8200010BD4FF6FF7010BD1C230020E3
:10D750003EB5044602F016FF0EE001992046463120
:10D76000FFF7BBFF28B9019920462A31FFF7B5FF23
:10D7700010B1BDF808003EBD6A4602A9072002F0BC
:10D78000D5FE0028E9D14FF6FF703EBD7CB51446AA
:10D790000A000A49897802D015688D4203D323B163
:10D7A0001D688D4201D204207CBDCDE900431346A3
:10D7B0000246034803F0D0F87CBD00003A1C00206C
:10D7C0000C24002070B50C4606469AB0102118486B
:10D7D000FBF72BFF174800252EB324B3847062009B
:10D7E00031461348FBF708FF382102A81895FBF7CC
:10D7F0001CFF009518AB02AA21463046019503F0A4
:10D80000ABF800280DD110AA0DF10801C0EBC00340
:10D810000B4442F82030401C0828F7D3E1B21046F0
:10D820006EDF1AB070BD8570002108466EDFF8E724
:10D830000C2400203A1C002038B504460A48012177
:10D840006A46FBF7A5FD68B90848606002F0F2F887
:10D8500005491C238C22087404488C39001F006879
:10D8600000F09EFD002038BDB4280020E032020008
:10D870002DE9F0412D4F002518B17D600120BDE854
:10D88000F0810879012258B1294E01280CD0274C8B
:10D890004FF002080834022821D0032842D128E0A2
:10D8A0000A7102F0A3FB3BE05FF0000000EB800197
:10D8B00016F82110022908D0401C80B20228F5D3A6
:10D8C0003A707D6041F61D50D9E700EB800006F804
:10D8D000205006EB8000406802F07AFB20E00D71DA
:10D8E000A4F80480002301221248216801F030FAD4
:10D8F00016E00D71206802F06BFB0D49236828319A
:10D90000498801EB810206EB8201D1F804C0C4F81A
:10D9100000C04B60A3880B81A4F8048006F8225055
:10D920000028ACD07D600E20A9E70000341D002047
:10D93000E0270020B41D00207FB50646887A0D46FA
:10D9400098B3E86888B300242CE0E86800EBC403CF
:10D95000002003909DF80C0040F002008DF80C00B0
:10D960009979090702D040F0080001E020F0080092
:10D9700040F010008DF80C00D97904EB840001F020
:10D9800001011A1D06EB4000CDE900211430029080
:10D9900033F8022B03A9304603F04EFF002805D1CF
:10D9A000641CE4B2A87AA042CFD8002004B070BDB5
:10D9B0000146034802888A4200D0002070470000D8
:10D9C000342200202DE9FC5F0E008346DDE90C4780
:10D9D000C6F1000098469246814600D408460125CB
:10D9E00003E000BF90FBFAF06D1C5045FADAA84541
:10D9F00000D9454624B1002E01DB780700D5641E0E
:10DA0000B80702D5B8F1000F0AD0F80708D13CB129
:10DA1000A54205D220215846641EFEF7BFF9F6E75D
:10DA2000002E02DA4E462D2102E0780703D52B2185
:10DA30005846FEF7B3F907F0030002280BD1B8F1FE
:10DA4000000F08D13CB1A54205D230215846641ED2
:10DA5000FEF7A4F9F6E7CDE90047434652463146C2
:10DA6000584605F05DF8BDE8FC9F00000248007ACA
:10DA7000002800D001207047B4280020F0B5848829
:10DA8000A518944200D82246A41AC288D6189A42F1
:10DA900000D81346D21A4B880788BB420CD3408863
:10DAA000834209D88888A04206D3A84204D8C888EF
:10DAB000904201D3B04201D90020F0BD0120F0BD59
:10DAC0000021425C0AB101207047491C1029F8D39B
:10DAD00000207047800701D0002070470120704768
:10DAE0000A4810B5807860B1002401E0022C06D00D
:10DAF0002046FDF7B9FE641C042CF7D310BD0324A7
:10DB0000F6E7BDE81040FDF7E5BE0000081C002068
:10DB100003480179C90702D00078FEF72FB8704793
:10DB2000081C002006490120086006480168C1F36E
:10DB300000410029FAD10449002088707047000094
:10DB40000C000040180400407825002017210180B7
:10DB50004180002101714171704700002DE9FE4FA5
:10DB60002A4D984691460F00824601D000260DE0CE
:10DB7000684600F0EBFB6A460021504602F0FBFAD3
:10DB80002878009E10B99DF8090098B14A463146A0
:10DB9000504604F097FC0446014600225046FEF72A
:10DBA000BBFE112C1AD008DC74B3082C2CD00D2C21
:10DBB00009D129E00520BDE8FE8F862C1AD0A4F5F6
:10DBC0004050023820D00325B8F1000F04D032466F
:10DBD00021465046FEF72FFC2846ECE73A462979C5
:10DBE0005046FDF745F94A46E9785046FDF740F9B9
:10DBF0000025E9E73A4629795046FDF739F94A46C2
:10DC0000E9785046FDF734F92546DDE76C1C002025
:10DC10002DE9F041204F0E46154604463978FDF7B0
:10DC200011F9002835D0204602F080FA50B3204682
:10DC3000FFF77EFD80462046B978FDF703F908B16D
:10DC4000012700E00227204602F054FD002840464C
:10DC500002D0FFF759FD0DE0A8F57F41FF3909D04B
:10DC6000072102F0C5FB010004D0052902D020469F
:10DC700004F0BEF92B46324639462046BDE8F04155
:10DC8000FEF724BA2A4631462046BDE8F041FEF7A9
:10DC900035BBBDE8F0810000641C00202DE9F04395
:10DCA00091B08146FDF7C0F8002820D06846FDF706
:10DCB00081F800246E4617E006EB44054946A88823
:10DCC000FDF7C0F878B10B4FA888F978FDF7BAF8DE
:10DCD0008046A8883979FDF7B5F80146A888012360
:10DCE0004246FFF73BFF641C0098A042E4D811B005
:10DCF000BDE8F0836C1C00202DE9F047394E002769
:10DD000080463D46DFF8E090D6F804A057E003D007
:10DD10000446D0F81C8035E099F8002002EB42015F
:10DD2000521CD2B289F8002009EBC10199F80230E7
:10DD3000091D9A4201D189F8005048680A780446C2
:10DD4000012A12D0022A02D0032A3BD108E004F0B3
:10DD50008FFD00B10127257434E00574C06900E02F
:10DD600070680028F9D170602CE0207C50BB886876
:10DD70006060C868A0600869E0604869A061F078E8
:10DD800000B165606268B168184B501A20F07F409E
:10DD9000984202D2A168084406E0881AA16820F0DF
:10DDA0007F40814202D9081A206000E0256065604A
:10DDB0000120A56020742046E56104F03BFDB8F128
:10DDC0000000A4D199F8001099F801008142A3D174
:10DDD00017B97168514502D00120BDE8F0870020D5
:10DDE000FBE70000001D002020260020FFFF7F0031
:10DDF00030B585B00546002414216846FBF715FCB4
:10DE0000A5F57F40ADF80250FF3815D02846FFF742
:10DE100067F898B10B2815D0112811D0A0F5405102
:10DE2000023903D00146284604F0CEF809482246BC
:10DE3000C1782846FDF71CF805B030BD0E2002E081
:10DE40000124F3E70F208DF800006846FEF72EFB53
:10DE5000ECE70000281C00200A4602498978FDF7FB
:10DE600007B80000281C0020F8B5054600780C46CD
:10DE7000002620420FD100208DF800006846FCF7F4
:10DE8000D3F92878204202D12043287001269DF83A
:10DE90000000FCF7EDF93046F8BD000070B588B021
:10DEA000214800F0BCFA2048001F064600F0B7FAEF
:10DEB0001E4DD5E9014105E0C0F3891202EB9050F7
:10DEC000641C044404EA010005EB8000C06882077A
:10DED000F2D000200DF1080204EA010305EB8303F0
:10DEE000641CDB6842F82030401C0228F4D30298FE
:10DEF00000F00300012808D002280AD1029803216B
:10DF000001EB905004EB900403E00298C0F38310FF
:10DF100004443046002101AAFBF7E3FA002800D0B0
:10DF20006C6008B070BD0000F02D0020D8290020E2
:10DF300088B0002001F0D8FA08B1FCF753F801F0DE
:10DF400067F9FCF7F3F808B1FCF74CF84B4A0121EC
:10DF50004B48FCF7D9F808B1FCF744F849490320CD
:10DF6000FDF7C2FD08B1FCF73DF869460020FDF75A
:10DF7000D5FC08B1FCF736F89DF8000002287AD0ED
:10DF80005FF0000501F00EFD08B1FCF72BF800244E
:10DF900069460120009401F0D5FB08B1FCF722F896
:10DFA000684601F04DFC08B1FCF71CF8364A0A211E
:10DFB0000820FCF793F808B1FCF714F8FEF7DAFC38
:10DFC0000021324800F092FA08B1FCF70BF8FBF799
:10DFD000B1FEFEF735F9FCF719FAFFF7E3F82B4825
:10DFE0005121E830016064214160012181600173A9
:10DFF0000146274804F02CF81C216846FBF715FB66
:10E000004FF42030CDE900404FF4702003260290F9
:10E010008DF80C601F48ADF80E408DF81040CDE92A
:10E0200005406846FCF792FE08B1FBF7DBFF02F003
:10E030005DFC194819A1008806EB004001F0E2F9E7
:10E040000F4800224FF480310068FCF799F808B1BE
:10E05000FBF7C8FF2846FBF7AFFE00BFFCF71EF832
:10E0600001F0E4F80028F9D13EDF0028F6D0FBF7F4
:10E07000B9FFF3E7FFE7012584E70000DDA5010014
:10E080006031020009BA0100601E0020A0200020BB
:10E09000781B002081C00100101E00204849442048
:10E0A0004D6F757365206578616D706C6520737454
:10E0B00061727465642E0000002360F30F0318463C
:10E0C00061F3174062F31F60704770B51446828891
:10E0D0000E4605462088111D0144921C994201D824
:10E0E000FE2A01D90C2070BD521C32542088FF2119
:10E0F000401C80B2208031542088401C80B2208097
:10E100008119288804F0F6FC2188084480B2208018
:10E11000AA8842B1A96841B13044FBF76DFA208862
:10E12000A98808442080002070BD072070BD2DE91B
:10E13000F047C7880446181D16468946B0FBF7F11C
:10E14000B0FBF7F207FB12009A193A44D21CB2FB5B
:10E15000F7F2DDF820A001E02468491E0029FBD178
:10E160003D1A8846B54216D818E0BAF1000F05D01E
:10E17000211809EB08002A46091D04E0204409EB98
:10E1800008012A46001DFBF737FA00202468761B99
:10E19000A844B74201D9354600E03D46002EE4D1FF
:10E1A000BDE8F08730B5024669B101F0CBF9002136
:10E1B000084C0BE001EB410304EB830315685B881B
:10E1C000AB4202D11160002030BD491C8142F1D325
:10E1D000052030BDC81D00201CB51D4A12787AB13B
:10E1E000FF2800DBFF20FF2900DBFF210022009237
:10E1F00001924BB242B200211648FDF7D7F818E061
:10E2000040F6FF72904200DB1046914200DB11465F
:10E210008DF80000C0F3032040EA01108DF80100E2
:10E2200008098DF802006B46032201210948FDF719
:10E23000B0F900280BD0082809D0132807D043F2E2
:10E240000141884203D0BDE81C40FBF7CBBE1CBD9A
:10E25000681B0020281F0020F8B50E4601781446E0
:10E260000546012901D1687830B12088821C9A4284
:10E270002DD8012902D006E00720F8BD69780144B5
:10E28000891C994223D8181A801E87B2ADF80070F5
:10E290002188B01C084469467DDF0028EDD128782C
:10E2A000022805D1BDF80010B94201D809210AE0C1
:10E2B0000821012805D16878B84202D8ADF80000DD
:10E2C00001E0ADF80070BDF80000FE2801D90C2077
:10E2D000F8BD2288401CB0542088401C80B22080A9
:10E2E00031542088401C2080BDF800100844208054
:10E2F0000020F8BD70B505460C004FF0FF0020D09F
:10E300004FF6FF76B5421CD00E48012241782846D0
:10E31000FCF7AEFD2846FEF747FDFF2803D1FEF7C8
:10E320005FFDFF280DD0084B00EB400203EB82019C
:10E330004D8023F8226022684A60A2880A81A2796F
:10E340008A7270BD3A1C00201C230020034A002161
:10E350009268C0E900218160704700006C1C0020B9
:10E3600070B54FF6FF750E46A84201D1002000E0BF
:10E37000401C84B208E02146304602F0B2FD08B1EC
:10E38000204670BD641CA4B2FF2CF4D9284670BD91
:10E3900010B5FAF7D8FF08B1002010BD112010BD4C
:10E3A00010B531B1B2FBF3F403FB14241CB1092006
:10E3B00010BD0E2010BD016000214160816082818E
:10E3C000C381084610BD70B50C460546FAF770FFCC
:10E3D000002802D021882868084470BD10B50A883A
:10E3E00049888A4203D1FAF7A5FF012010BD002019
:10E3F00010BD70B50C460546FAF77FFF002802D025
:10E4000061882868084470BD10B50A8849888A4226
:10E4100003D1FAF769FF012010BD002010BD08B537
:10E4200001216A46FBF750F8009808BD08B56A4616
:10E43000FAF723FF009808BD38B5044600258DF88B
:10E4400000506846FBF7F0FE216862680868904259
:10E450000ED9401E08600178238AE26801FB03257B
:10E46000227A2168101AC0B20A79824200D2087159
:10E470009DF80000FBF7FCFE284638BD38B5054680
:10E4800000208DF800000C466846FBF7CDFEE868DA
:10E49000298A201AB0FBF1F12A681068431C136026
:10E4A00001709DF80000FBF7E3FE38BD10B530B1F8
:10E4B000017A42680368891AC9B21A6006E00E2020
:10E4C00010BD03681A68541C1C601170491EC9B243
:10E4D000F7D2006800210171084610BDC20800F0A3
:10E4E00007030120895C98400840704710B560B16F
:10E4F000C160172120F8021B20F8021B1B2100F825
:10E50000021BFFF723FB002010BD0E2010BD0000F2
:10E510002DE9FC4182880C46002A51D10188012650
:10E52000354F0025102906D0112925D03A2927D0AA
:10E5300055294BD146E0C07B04F1060E012802D1DB
:10E540002088AEF80000BEF80010BEF8020081423C
:10E550003CD910469EDF020008D0112A09D0388825
:10E56000264906EB004000F051FF2FE08EF80560D1
:10E570002CE08EF804602CE0A01DFFF7E7FA25E000
:10E580002346408934F8061F814200D8084660803F
:10E59000172800D217206080D86878B1607968B1F8
:10E5A0001749D1E90001CDE90001ADF802206088EA
:10E5B000ADF80400DA686946184690476571257120
:10E5C000BDE8FC810146204601F082FBA07A0028CC
:10E5D000F6D02846E1889EDF02000AD0112AEFD04B
:10E5E000388802B006EB0040BDE8F041034900F076
:10E5F0000DBFA572E672E3E7C81D00207C3502005E
:10E600000832020000F180400068002800D001209C
:10E61000704708B500F1804000210160006800905B
:10E6200008BD000000283ED01F49204A096800BFED
:10E6300000BF00BF00BF00BF00BF00BF00BF9142CE
:10E640002FD000BF00BF00BF00BF00BF00BF00BF92
:10E6500000BF00BF00BF00BF00BF00BF00BF00BFC2
:10E6600000BF00BF00BF00BF00BF00BF00BF00BFB2
:10E6700000BF00BF00BF00BF00BF00BF00BF00BFA2
:10E6800000BF00BF00BF00BF00BF00BF00BF00BF92
:10E6900000BF00BF00BF00BF00BF00BF00BF00BF82
:10E6A00000BF0138C3D17047B01D00200024F40022
:10E6B00070B50F4C0025207808B1852516E00021A3
:10E6C000A16061602161E1604FF0E020D0F80001BD
:10E6D000012610F0010F03D10721002000F022F8DD
:10E6E00001F0A8F908B9034806602670284670BDF5
:10E6F000782500201805004008B500208DF800009E
:10E700006846FBF791FD0648C168491EC160C068B4
:10E7100008B9FFF707FA9DF80000FBF7A9FD08BD4F
:10E72000782500204907090E002806DA00F00F02BC
:10E7300002F1E02282F8141D03E000F1E02282F8E9
:10E74000001400F01F02012191404009800000F1F7
:10E75000E020C0F88012C0F8001170472DE9F041A8
:10E760008846054602F0C4F9234E002828461AD0F0
:10E77000FDF764FB304490F848008009032802D07C
:10E7800001280ED007E04FF0A040D0F81005E84077
:10E7900010F0010F05D003212846BDE8F04100F03C
:10E7A00033BC0221F8E702F0AFF9002822D0284656
:10E7B000FDF744FB04464FF4807000EB84000F4FDC
:10E7C00081B207EB8400D0F8102542F00102C0F8B6
:10E7D0001025084600F048FCB8F1000F0AD0284682
:10E7E000FDF72CFB56F82000002803D00120A040A4
:10E7F000C7F80403BDE8F0818C25002000600040CC
:10E800002DE9FC41DFF8A480044608EB0400002752
:10E8100090F930001346C0170E46401C01D008275F
:10E8200041E0F27819462046FDF7E4FA0546401C1F
:10E8300038D0B07850B14FF0A04000EB8400D0F851
:10E84000001721F00201C0F8001707E000217378DB
:10E85000204600910A46019100F085FBF078C0B196
:10E860001348317800EB8500D0F81025114B1A4081
:10E87000C0F810254FF4F8524FF4403302EA042256
:10E8800003EA01410A43D0F810150A43C0F81025E5
:10E8900009E008EB0500327810F8481F41EA8211C0
:10E8A000017000E004273846BDE8FC818C2500207B
:10E8B00000600040FFE0FCFF4FF0A041D1F81015D0
:10E8C000C14011F0010000D00120704770B5144D17
:10E8D00095F8540008B1082070BD0020411E2A1888
:10E8E000401CC0B282F830102028F8D30024204603
:10E8F000FDF772FA641CE4B20C2CF8D30721062051
:10E90000FFF710FF4FF4BE7000F0AEFB05494FF06B
:10E910000040C1F80403012085F85400002070BDB8
:10E920008C25002000600040034890F85400002827
:10E9300000D00120704700008C2500200121B1EBA0
:10E94000507F01D101207047002070472DE9F04130
:10E9500005460F4600791F49C0EBC00001EB80045B
:10E960001646E07E10B10820BDE8F0813946284601
:10E97000FBF798FC666038692060F6B13E7F4FF483
:10E980008871286801F0DBF84FF49071286801F075
:10E99000D6F84FF49271286801F0D1F84FF4A271C3
:10E9A000286801F0CCF828680B49C0F804132868DF
:10E9B0003146000B40B2FFF7B5FE28680821C0F8C9
:10E9C00000150020E0752076A0750121E176A07683
:10E9D000CAE70000E4250020100302002DE9F047FB
:10E9E00004460079254FC0EBC00007EB8005904638
:10E9F0000E460846FFF7A2FF30B1204600F040F86F
:10EA000020B11120BDE8F0871020FBE785F81680C3
:10EA10004FF00008AE60A5F8148020794FF490798B
:10EA2000C0EBC00007EB800546464946206801F070
:10EA300086F84FF4AC773946206801F080F82068FA
:10EA4000A97DAA68C0F84425C0F8481520680121AE
:10EA50008160686880B9CA46B9465146206801F0AD
:10EA600069F807464946206801F064F80743F4D086
:10EA700000B10F2685F816803046C3E7E425002054
:10EA800000790549C0EBC00001EB8000807D0028C3
:10EA900000D0012070470000E42500202DE9F0415E
:10EAA000024600792549C0EBC00001EB80071068E1
:10EAB0004FF00008C0F80085786880B110682049E0
:10EAC000C0F8081310680121000B40B200F01F03CA
:10EAD00099404009800000F1E020C0F880111068E2
