:020000040000FA
:10000000502B00201D04000025040000B102000058
:10001000290400002B0400002D0400000000000053
:100020000000000000000000000000002F0400009D
:10003000310400000000000033040000350400001B
:100040008F09000037040000CD0B000037040000CA
:100050003704000037040000A10500003704000049
:1000600037040000370400003704000037040000A4
:100070003704000037040000370400003704000094
:10008000370400009D090000370400003704000019
:10009000C1090000370400003704000037040000E5
:1000A0003704000037040000370400003704000064
:1000B00037040000370400000000000000000000CA
:1000C0003704000037040000370400003704000044
:1000D000370400003704000037040000E90B00007B
:1000E000370400003704000037040000000000005F
:1000F000000000003704000000000000370400008A
:1001000000000000000000000000000000000000EF
:1001100000000000000000000000000000000000DF
:1001200000000000000000000000000000000000CF
:1001300000000000000000000000000000000000BF
:1001400000000000000000000000000000000000AF
:10015000000000000000000000000000000000009F
:10016000000000000000000000000000000000008F
:10017000000000000000000000000000000000007F
:10018000000000000000000000000000000000006F
:10019000000000000000000000000000000000005F
:1001A000000000000000000000000000000000004F
:1001B000000000000000000000000000000000003F
:1001C000000000000000000000000000000000002F
:1001D000000000000000000000000000000000001F
:1001E000000000000000000000000000000000000F
:1001F00000000000000000000000000000000000FF
:10020000DFF80CD000F09CF900480047C124000042
:10021000502B002030B4044654E8000F0D4644E84B
:100220000053002BF8D1156030BC704730B4044641
:1002300054E8000F40EA010544E80053002BF7D1D1
:10024000156030BC704730B4044654E8000F00EA33
:10025000010544E80053002BF7D1156030BC70470E
:1002600030B4044654E8000F80EA010544E8005326
:10027000002BF7D1156030BC704730B4044654E809
:10028000000F00EB010544E80053002BF7D1156087
:1002900030BC704730B4044654E8000FA0EB0105B1
:1002A00044E80053002BF7D1156030BC70470000C4
:1002B000094B1EF0040F1CBFEFF309801847EFF342
:1002C00008800649064A884201D8904202D88D46E5
:1002D0004FF000001847000065070000502B002079
:1002E000500B002030B4044654E8000F0D4644E89B
:1002F0000053002BF8D1156030BC704730B4044671
:1003000054E8000F40EA010544E80053002BF7D100
:10031000156030BC704730B4044654E8000F00EA62
:10032000010544E80053002BF7D1156030BC70473D
:1003300030B4044654E8000F80EA010544E8005355
:10034000002BF7D1156030BC704730B4044654E838
:10035000000F00EB010544E80053002BF7D11560B6
:1003600030BC704730B4044654E8000FA0EB0105E0
:1003700044E80053002BF7D1156030BC70470000F3
:1003800030B4044654E8000F0D4644E80053002BF7
:10039000F8D1156030BC704730B4044654E8000F03
:1003A00040EA010544E80053002BF7D1156030BC4A
:1003B000704730B4044654E8000F00EA010544E8F1
:1003C0000053002BF7D1156030BC704730B40446A1
:1003D00054E8000F80EA010544E80053002BF7D1F0
:1003E000156030BC704730B4044654E8000F00EB91
:1003F000010544E80053002BF7D1156030BC70476D
:1004000030B4044654E8000FA0EB010544E8005363
:10041000002BF7D1156030BC7047000006488047BC
:1004200006480047FEE7FEE7FEE7FEE7FEE7FEE7D9
:10043000FEE7FEE7FEE7FEE7C50900000102000057
:100440002DE9F05F0546002092469B468846064609
:10045000814640241BE0284641464746224600F09C
:100460005EF853465A46C01A914110D311461846B9
:10047000224600F016F82D1A67EB01084F46224677
:100480000120002100F00DF817EB00094E41201E5D
:10049000A4F10104DFDC484631462A464346BDE864
:1004A000F09F202A04DB203A00FA02F10020704776
:1004B0009140C2F1200320FA03F3194390407047A2
:1004C00000487047BC69000040EA01039B0703D065
:1004D00009E008C9121F08C0042AFAD203E011F883
:1004E000013B00F8013B521EF9D27047D2B201E045
:1004F00000F8012B491EFBD270470022F6E710B529
:1005000013460A4604461946FFF7F0FF204610BD81
:10051000421C10F8011B0029FBD1801A7047202AC9
:1005200004DB203A21FA02F00021704721FA02F39D
:10053000D040C2F1200291400843194670470000A4
:10054000064C074D06E0E06840F0010394E8070020
:1005500098471034AC42F6D3FFF756FECC74000037
:10056000EC74000030B58C1810F8012B12F00F035A
:1005700001D110F8013B120906D110F8012B03E05C
:1005800010F8015B01F8015B5B1EF9D101E001F895
:10059000013B521EFBD1A142E6D3002030BD00003A
:1005A0002DE9F04F00268FB0DFF8B081B1460296FA
:1005B0004FF48075012437460396284604F004F969
:1005C00038B1D8F80403204203D0284604F0F2F8EA
:1005D00026432D1D64007F1CADB2082FEDD34FF4D0
:1005E000BE74204604F0F0F848B1204604F0E2F86A
:1005F00046F0004602AA0221002004F0A1F8584C5F
:1006000016F0FF0F15D00127002537420DD008EB5B
:100610008501D1F81005D1F81015C0F3052054F864
:100620002520C1F3014102B190477F006D1C082DC8
:10063000EBD3002E7DDA0020CDF82890411E0DF17D
:10064000080B08AACDF82C9042F82010401C9146C7
:100650000228F9D300252E46A01910F8607F90F9E2
:10066000000027F0C008401C49D008A9404602F00D
:10067000B3F988B34FEA971A404601F037F954F8B6
:1006800020701FB1BAF1030F03D00FE0BAF1030FCE
:1006900035D10AA84FEAD80208F00703815C4FF071
:1006A000010C0CFA03FC41EA0C01815406A8CDF8B8
:1006B000188003F0B5FF069900EB8100D0F8000721
:1006C00002A9C0F301400690404602F085F90028D7
:1006D000069802D0022802D011E003280FD1BAF107
:1006E000030F08D10698022832D00221404603F0B9
:1006F0004AFF6D1CEDB217B151464046B847761C13
:10070000042EA9D3002D20D004AA0221002004F039
:1007100017F800205A4604A952F8206051F82030FA
:10072000B34217D000200AAE4FEA090351F82070F7
:1007300000E00AE042F8207056F8207043F820707C
:10074000401C0228F2D3002D84D10FB0BDE8F08FF9
:100750000321CBE7401C0228DED3F6E7006000400F
:10076000200200201CB5814604F0B8FA04F00CF910
:100770000028FBD130484D460768304E012430A197
:100780003088D9F8182004EB004004F0E9F9D5E9E5
:100790000201CDE900013088D5E9002304EB0040D7
:1007A0002DA104F0F5F9E8690090D5E9042330881B
:1007B00037A104EB004004F0E2F91F48001D006877
:1007C000800705D530883C4904EB004004F0C4F9AB
:1007D000DFF8E880002500BF04FA05F0384208D0B1
:1007E00058F825202AB1308835A104EB004004F0E8
:1007F000B7F96D1C1A2DEFD3380608D50E480C300A
:100800000268308831A104EB004004F0A9F93804F3
:1008100008D5094810300268308834A104EB004044
:1008200004F09EF90448C8300068C00700D000BE3C
:10083000484600F069F8000028ED00E07C01002047
:1008400048415244204641554C5420617420307830
:100850002530385800000000202052303A20203047
:100860007825303858202052313A202030782530F1
:100870003858202052323A202030782530385820FD
:100880002052333A202030782530385800000000BC
:1008900020205231323A2030782530385820204CF0
:1008A000523A202030782530385820205053523A80
:1008B0002030782530385800A86B000080000020D8
:1008C00043617573653A2025732E00004D656D4DAB
:1008D000616E616765204661756C74204164647265
:1008E0006573733A2030782530385800427573208C
:1008F0004661756C7420416464726573733A20308C
:100900007825303858000000BFF34F8F0548016844
:10091000054A01F4E06111430160BFF34F8F00BF4E
:10092000FDE700000CED00E00400FA0500F01F02F6
:10093000012191404009800000F1E020C0F88012C0
:10094000704700F01F02012191404009800000F132
:10095000E020C0F80011704700F01F020121914013
:100960004009800000F1E020C0F8001270474907FC
:10097000090E002806DA00F00F0000F1E02080F8F0
:10098000141D704700F1E02080F80014704710B586
:1009900002F0CCF9BDE8104002F082BB074800210C
:1009A000C0F84011C0F84411C0F84811C0F84C110B
:1009B000C0F80011C0F8041104F07ABF0010014023
:1009C00004F0C8BE30B54FF080500022D0F830118E
:1009D0000123082902D1D0F8344114B1082909D0E3
:1009E0000BE04FF08041C1F80C21C1F8102168499B
:1009F0000A6005E0D0F8344114B1082957D059E015
:100A000064490968644C21606249091D0968241D14
:100A10002160604908310968241D21605D490C315D
:100A20000968241D21605B4910310968241D21607B
:100A3000584914310968241D216056491831096844
:100A4000554C2034216053491C310968241D216014
:100A5000504920310968241D21604E49243109681C
:100A6000241D21604B4928310968241D2160494912
:100A70002C310968241D2160464930310968464CF3
:100A800040342160434934310968241D21604149C3
:100A900038310968241D21603E493C310968241D14
:100AA00021603C4940310968241D216005E0D0F8EF
:100AB000344114B1082904D006E0394C374921608B
:100AC00005E0D0F8344114B1082904D006E0354CD3
:100AD000FB21216005E0D0F8344114B1082908D089
:100AE0000AE090F858423048016864F3030101605D
:100AF00005E0D0F8344114B1082905D00EE02B49A7
:100B00004FF40070086002E0D0F8340130B9284892
:100B10000168C90702D06FF0010101602548016832
:100B200041F470010160BFF34F8FBFF36F8F4FF03F
:100B30001021D1F80002002803DBD1F804020028BC
:100B400022DA1D4C23601D480368002BFCD01223C1
:100B5000C1F800320568002DFCD0C1F804320168EC
:100B60000029FCD0226001680029FCD0BFF34F8F20
:100B700010487C380168124A01F4E06111430160B9
:100B8000BFF34F8F00BFFDE70F490E48086030BD2F
:100B9000380500400404001020C5004048810300CF
:100BA0008C56004018F50040E40E0040409602408C
:100BB0000004004088ED00E004E5014000E401404D
:100BC0000400FA050090D003480100200448017F8A
:100BD00004480029024901D004F083BF04F0F2BEAA
:100BE00088020020002000402DE9F05F5448D0F832
:100BF000045300242E464FF0010913E096FAA6F0A4
:100C0000B0FA80F7B80000F58070804604F05AFB17
:100C100028B1404604F05EFB09FA07F0044309FAE4
:100C200007F08643002EE9D102F066FF002869D064
:100C3000444AD078F0BBA00264D5434940F2A97879
:100C4000C1F80080081D036813F0FF0C02D0036890
:100C500003EA0C0C40F2AA7AC1F800A0036813F072
:100C6000FF0301D00668334040F2AB7BC1F800B00F
:100C7000066816F0FF0601D007683E4040F2AC77E8
:100C80000F60076817EA0C0709D0D2F810C04CEAC9
:100C9000070CC2F810C0C1F800800760076840F276
:100CA000AD770F6007681F4009D0136943EA074317
:100CB000136100E026E0C1F800A00760036840F27D
:100CC000AE730B60036833400BD0DE0701D044F4F1
:100CD0000004DE0601D544F00104C1F800B0036051
:100CE0000068106930F0011102D005F080710C43EA
:100CF00010F0011F06D0690504D520F0011044F45E
:100D000080641061C4F3C05624F400044F46DFF839
:100D10003C8009E094FAA4F0B0FA80F558F8250078
:100D2000804707FA05F08443002CF3D104F0E8FF74
:100D3000002E03D0BDE8F05F01F03EB8BDE8F09FA3
:100D40000070024030000020007802403C67000044
:100D500002E008C8121F08C1002AFAD17047704784
:100D6000002001E001C1121F002AFBD170470220C0
:100D700000F0B0BA70B50A4D686818B909A19020A2
:100D800000F060FA002406E06868012110F83400E1
:100D900002F040F8641C28788442F5D3002070BD2E
:100DA000480000202E2E5C2E2E5C2E2E5C2E2E5CFB
:100DB0002E2E5C2E2E5C636F6D706F6E656E74737D
:100DC0005C6C69627261726965735C627574746F80
:100DD0006E5C6170705F627574746F6E2E6300007C
:100DE000F8B515460C460646052A01D20720F8BD7F
:100DF00002F014F918B902F0E3F80028F7D111490C
:100E000000224E600C708D60C1E90422C1E9062207
:100E10000D4D0DE006EBC4006968009181788DF8F6
:100E200001100078094A694602F054F80028DED122
:100E3000641EE4B2EED2BDE8F840054A0021024843
:100E400000F0B2B848000020DC670000991F0000E5
:100E5000D11900002DE9FC4114468846074603F0ED
:100E60003DFF00BF03F090FD0028FBD16FF48040F0
:100E7000194D38184FF001061ED0012813D02888CC
:100E8000424606EB004015A103F06AFE19480068CF
:100E9000C00700D000BE224602B041463846BDE839
:100EA000F04100F04FB82888238806EB004012A1DB
:100EB000626803F05CFEE9E7A06804F013F80346FB
:100EC00021886068CDE90001288812A106EB004066
:100ED000A26803F05DFED9E794010020554E4B4E09
:100EE0004F574E204641554C542061742030782590
:100EF00030385800F0ED00E0415353455254494F0B
:100F00004E204641494C45442061742025733A25C2
:100F1000750000004552524F52202575205B257305
:100F20005D2061742025733A257500000EB5ADF87B
:100F30000010CDE901206A46002144F20100FFF7CC
:100F400089FF0EBD08B501238DF800309DF80030F3
:100F5000144B186059609A606FF48041401807D0B4
:100F600001280FD1DA60D86800889861D86807E056
:100F70001A61186980685861186900889861186951
:100F80004068D861186858689868D86818695869BE
:100F90009869D86972B600BF9DF800000028FBD19F
:100FA00062B608BD00050020074B9B7823B12AB12B
:100FB00020B10068037C1BB10820704707207047F0
:100FC00041744261002070472005002070B504F094
:100FD0000DFB104800240B21047044700E4D8170ED
:100FE00014206C602C706C70FFF7A0FC072114209B
:100FF000FFF7BDFC1420FFF7A4FC0848046007219C
:101000001120FFF7B4FC0548001F0068A86000200D
:1010100070BD000020050020680000200815014078
:101020002DE9F843DFF8709099F802305BB350B3C4
:10103000052902D20720BDE8F88343691BB3437C2E
:10104000012B22D000270446002588461646284654
:1010500000F036F8684605F0A5FAC0B1012101702C
:101060000E4944600968C0E90218C0E904769DF899
:10107000000089F80100002000F050F81420FFF76C
:101080006BFC2846D7E70820D5E70F46DBE70425A9
:10109000002000F043F8F4E720050020041501408B
:1010A0000649897839B130B1416921B10021017413
:1010B000022104F0DDBB082070470000200500205D
:1010C00010B504F04BFA012803D004A11D2000F054
:1010D000B9F8BDE8104000F04FB800002E2E5C2E8D
:1010E0002E5C2E2E5C2E2E5C2E2E5C2E2E5C636FC4
:1010F0006D706F6E656E74735C6C6962726172693B
:1011000065735C7574696C5C6170705F7574696C33
:101110005F706C6174666F726D2E630010B504F0C1
:101120001DFA012803D004A12B2000F08BF8BDE8A4
:10113000104000F029B800002E2E5C2E2E5C2E2EC2
:101140005C2E2E5C2E2E5C2E2E5C636F6D706F6E8F
:10115000656E74735C6C69627261726965735C75EB
:1011600074696C5C6170705F7574696C5F706C61E0
:1011700074666F726D2E630072B602480168491C76
:10118000016070477C00002003490868401E086029
:1011900000D162B6704700007C00002070B50546A3
:1011A00008680C46411C04D003F0ADFA206803F037
:1011B000E0F96068411C02D0002103F0D1F92879E0
:1011C0001F4901EB40102968007F0028A069C1F881
:1011D000240523D0607D227D29681043C1F86C0569
:1011E000D4E900122868C0F80C15C0F8142522E0D4
:1011F000A068411C02D0002103F0B2F9E068411C54
:1012000004D003F080FAE06803F0B3F9D4E90212E5
:101210002868C0F80825C0F8101570BD607D217DD4
:101220002A680843C2F86C05D4E900122868C0F89F
:101230001425C0F80C15207D0128D9D070BD000000
:10124000880200201CB56A46ADF80000019100211B
:1012500044F20200FFF7FEFD1CBD102802D3103837
:10126000C0B2704740F080007047000038B50446B7
:10127000042803D30AA15D20FFF7E4FF1448005DB2
:101280000090684603F098F9D0F810050099C8401E
:1012900010F0010000D0012080F0010038BD0000F6
:1012A0002E2E5C2E2E5C2E2E5C2E2E5C2E2E5C2E78
:1012B0002E5C636F6D706F6E656E74735C626F61D0
:1012C0007264735C626F617264732E63000000006D
:1012D000CC66000038B50446042803D30BA13620A1
:1012E000FFF7B0FF1548005D0090684603F064F911
:1012F000D0F80425009B0121994021EA0203C0F89F
:1013000008351140C0F80C1538BD00002E2E5C2E9B
:101310002E5C2E2E5C2E2E5C2E2E5C2E2E5C636F91
:101320006D706F6E656E74735C626F617264735C16
:10133000626F617264732E6300000000C866000073
:1013400010B50446042803D305A11E20FFF77AFF39
:101350000F480121005DBDE8104003F0DEB9000038
:101360002E2E5C2E2E5C2E2E5C2E2E5C2E2E5C2EB7
:101370002E5C636F6D706F6E656E74735C626F610F
:101380007264735C626F617264732E6300000000AC
:10139000C866000010B50446042803D305A1182030
:1013A000FFF750FF0F480021005DBDE8104003F03B
:1013B000B4B900002E2E5C2E2E5C2E2E5C2E2E5CE0
:1013C0002E2E5C2E2E5C636F6D706F6E656E747367
:1013D0005C626F617264735C626F617264732E63CE
:1013E00000000000C866000038B50446042803D396
:1013F0000AA11120FFF726FF1448005D00906846FF
:1014000003F0DAF8D0F804050099C84010F00100A4
:1014100000D0012080F0010038BD00002E2E5C2E8F
:101420002E5C2E2E5C2E2E5C2E2E5C2E2E5C636F80
:101430006D706F6E656E74735C626F617264735C05
:10144000626F617264732E6300000000C866000062
:101450007CB50024084E25460122305D009500230E
:101460001146019503F028F8641C042CF4D3BDE860
:101470007C4000F003B80000C866000010B50024EE
:101480002046FFF75DFF641C042CF9D310BD10B596
:1014900000242046FFF77EFF641C042CF9D310BD06
:1014A00010B50246064B4FF0FF3000215C5C9442C1
:1014B00001D1084610BD491C0429F7D310BD000016
:1014C000CC6600002DE9F0470D468146FFF7E8FFA6
:1014D0000446042836D2DFF874801B481C4EA8F15D
:1014E0000C0725B3012D0ED0022D2BD104EB4400A7
:1014F00030444578002D25D0B968002922D02846EF
:10150000BDE8F047084704EB4401755C0E44717870
:1015100049B10E4A4FF40041093A8068FFF780FD57
:1015200008B987F80390B17808F80410E2E78068FA
:10153000FFF7B6FD04EB4401314418F804008D7840
:10154000A842D7D0BDE8F087D06600001C0000207C
:10155000E0010020FFF78ABE70B50023042810D2F6
:101560000D4D00EB4004012A02D101290CD00022CC
:10157000094E00EB4000304461B1012906D0022938
:1015800006D00723184670BD0E30C2B22A55F9E7BF
:101590004270F7E78270F5E7E00100200C2802D1E5
:1015A00001490120887170470000002070B506468F
:1015B0001E480024C0E90161B00720D500250122A2
:1015C00011462846FFF7C8FF6D1C0446042D02D2C1
:1015D000002CF4D013E094B940F266620421144860
:1015E000FFF7FEFB04000AD1FFF7C4FB040006D19D
:1015F0000F48104A0021001FFFF7D6FC0446F007F1
:1016000001D0FFF725FF74B909480B4A00210C38B7
:10161000FFF7CAFC040006D10548084A0121083832
:10162000FFF7C2FC0446204670BD000010000020F9
:10163000DC66000081180000E12100006F0D000051
:101640002DE9F05F6A4C054600266078B34618B174
:1016500084F801B000F0ACFD664F4FF47A694FF4A6
:10166000C87A4FF00108182D62D2DFE805F0AC0C03
:101670000C31404D62676B746B74BE7D7D7D7D7DEA
:10168000ACAFB2B5BEBE0020FFF7AEFE00284FF0F3
:10169000000008D0FFF754FE022D02D14FF4E160A4
:1016A00008E0484606E0FFF775FE022D01D1C8208C
:1016B00000E05046410CC0034FF4FA72801841F12B
:1016C0000001257052000023FEF7BAFE01462AE011
:1016D0000020FFF789FE00284FF0000004D0FFF73C
:1016E0002FFE4FF44870E5E7FFF754FEDFE70020D8
:1016F000FFF77AFE00284FF0000002D0FFF720FE2F
:10170000CFE7FFF747FED4E70020FFF76DFE002884
:101710004FF0000002D0FFF713FE01E0FFF73AFEA2
:10172000257041F69A1100223868FFF779FC0646C9
:1017300046E00020FFF7CEFD257008E0002051E0D4
:1017400025703DE084F801800120FFF7C3FD0022F1
:1017500040F6CD41E8E784F801800120FFF7BAFDAB
:1017600000224FF48041DFE77868FFF799FC0646D6
:10177000D5F1110000D02EB10220FFF7E1FD84F871
:1017800002B01DE0012816D980B2C8214843C11714
:10179000C90341EA5041C0034FF4FA72801841F185
:1017A000000152000023FEF74BFE0146002278683C
:1017B000FFF736FC06460220FFF7ECFD84F80280B6
:1017C0003046BDE8F09F00F0F3FCB9E700F0F0FC14
:1017D000B4E700F0EDFC04E000F0EAFC0020FFF7C5
:1017E000D9FD0120FFF7D6FDAAE7FFF750FEA7E7D6
:1017F00010000020D06600002DE9F041861C0C4648
:1018000001270020FFF75CFC0F4801682160D0E948
:101810000012891A82680446511AB51C07E000BFFD
:1018200000F0FCFDD4E90001401AA168091A491C26
:101830008D42F5D82068304420600020FFF76EFC10
:101840003846BDE8F08100002C07002030B48268E3
:101850000468531C8360A154D0E901128A4202D368
:1018600030BC02F0D3BC30BC70470000034803C852
:10187000814201D101207047002070472C070020D1
:1018800000780221FFF71EBE05494FF0FF320828FD
:1018900041F8202002D3084480F858207047000007
:1018A00020020020F0B54FF0FF3512B100230826CA
:1018B00001E008230C260C4C05E000BF54F823700F
:1018C0007F1C04D05B1CB342F8D32846F0BD261819
:1018D0005DB286F8305044F82310002AF5D1E118A3
:1018E00081F85800F1E70000200200200249084476
:1018F00090F93000704700002002002070B5084CBD
:10190000050009D010342168002907D0086820603C
:10191000496828468847F6E70834F4E770BD0000B8
:101920000C0200202DE9F05F26484168F1B3DFF892
:1019300098B00E688146DBF8004087688078E11B2C
:1019400021F07F45ED1CB0B9DFF880804FF4803086
:10195000C8F84403C8F804031120FEF7E7FF11207C
:10196000FEF7EFFF4FF0010AC8F800A02F2001F0AA
:1019700059F889F802A0B54200D23546124BE81951
:101980003C3320F07F401860DBF800105A46091BFA
:1019900021F07F41001B20F07F40C91C81420FD9FC
:1019A000106818602F2001F03DF800E004E0BDE869
:1019B000F05F1120FEF7D0BFBDE8F05F03F016BE68
:1019C000BDE8F09F680000200415014000100140B0
:1019D0002DE9F05F0025DFF8A48043E06068002176
:1019E00000EBC506012032789146FEF75AFDD4E996
:1019F000062300EA020701EA030C57EA0C072FD07E
:101A0000C7433A408B434846C4E9062301F0C6FA6F
:101A100032784FF0000A8146934601205146FEF786
:101A200040FDD4E9042300EA020401EA03075A4610
:101A300048465146FEF735FD44404F403C430FD1E8
:101A40007078012815D0002289EA02008AEAE27142
:101A5000084310D00020726812B1C1B258469047B6
:101A60006D1CEDB298F8000044468542B6D3BDE83F
:101A7000F09F0122E8E70120EDE700004800002088
:101A80000E4910B50A784C780023A24212D0521C9D
:101A9000D2B20A70022A00D10B70084A0B780C32BD
:101AA00052F8232002608868104420F07F4088604C
:101AB000012010BD0360002010BD00006800002060
:101AC00010B50446010600F00F00092804D306A152
:101AD00040F2AE20FFF7B6FB6FEA0460C10F20466C
:101AE00061F31F1010BD00002E2E5C2E2E5C2E2EDA
:101AF0005C2E2E5C2E2E5C2E2E5C636F6D706F6ED6
:101B0000656E74735C647269766572735F6E72661B
:101B10005C757362645C6E72665F6472765F757327
:101B200062642E630000000010B50D4C012802D045
:101B300060B1072010BD812001F00CFE812001F072
:101B4000CBFE812001F00AFE012003E0812001F09C
:101B5000D1FD0020207002F079F9002010BD0000B6
:101B60000000002070B50546000605F00F0402D500
:101B7000092C09D301E0092C08D307A140F29B20CE
:101B8000FFF760FB280601D5134801E012489038A2
:101B900000EB041070BD00002E2E5C2E2E5C2E2E4D
:101BA0005C2E2E5C2E2E5C2E2E5C636F6D706F6E25
:101BB000656E74735C647269766572735F6E72666B
:101BC0005C757362645C6E72665F6472765F757377
:101BD00062642E63000000003803002010B5044644
:101BE000010600F00F00092804D3034940F27E20CB
:101BF000FFF728FB204610BDC05C000070470000C6
:101C00000C4910B50020C8708020FFF7ABFF817B26
:101C10000124032902D0006800280AD18020FFF7A0
:101C20004FFF8440E1430348BDE810400C3000F012
:101C3000CCBD10BD30000020812003F017BA8220F7
:101C400003F014BA832003F011BA842003F00EBA13
:101C5000852003F00BBA862003F008BA872003F032
:101C600005BA882003F056BA38B5144D0020E87044
:101C7000FFF778FF817B0124032902D0006868B157
:101C800008E00020FFF71CFF84400C48E1430C30C3
:101C900000F09BFDBDE8384002F0DBB80020FFF704
:101CA0000FFF84400548E1430C3000F08EFD0448EE
:101CB000C068009069686846884738BD30000020D9
:101CC00008670000012003F067BA022003F064BA3D
:101CD000032003F061BA042003F05EBA052003F08C
:101CE0005BBA062003F058BA072003F055BA00008B
:101CF00038B5104D00200824E8702046FFF732FF69
:101D0000817B032914D00068002811D12046FFF7F9
:101D1000D7FE01218140C94305F10C0000F055FDBB
:101D20000548406900908DF8024069686846884718
:101D300038BD0000300000200867000070B515486D
:101D400004680460BFF36F8FBFF34F8FBFF36F8FD3
:101D5000BFF34F8F01F0D0FE38B10F48016921F079
:101D6000011201F001111443016101266CB194FAD2
:101D7000A4F0B0FA80F52846FFF76FFA06FA05F1ED
:101D80008C43294604F028F9F0E7BDE8704003F0E1
:101D9000B7BF00006C7402403000002010B5054C45
:101DA000A078FFF78DFE0146A078BDE8104004F052
:101DB00013B9000030000020F8B51E48D0F800121A
:101DC00021F00401C0F800121B4800681B4DC6B288
:101DD000A878FFF775FE012404FA00F12889EA6863
:101DE000C04380B21043014202D0A87804F072F8D8
:101DF00006F08000A8700020FFF762FE04FA00F6EB
:101E00008020FFF75DFE04FA00F006430B48F14323
:101E10000C3000F0DAFC8020FFF752FE8440A86806
:101E200004430748AC60006A0090696868468847C8
:101E3000F8BD0000007002408074024030000020B5
:101E40000867000038B5002000900B480068ADF826
:101E500002008820FFF734FE012505FA00F408206F
:101E6000FFF72EFE054985402C43886804438C60AB
:101E700049686846884738BD207502403000002018
:101E800070B50B4804680460BFF36F8FBFF34F8FCA
:101E9000012609E094FAA4F0B0FA80F52846FFF78D
:101EA000DCF906FA05F08443002CF3D170BD000084
:101EB00068740240F8B51C480568284603F016FA15
:101EC000BFF36F8FBFF34F8F184E194CE80506D53F
:101ED00001206070706A0090616868468847A805B4
:101EE0004FF0000705D56770B06A009061686846DA
:101EF0008847680516D56078002813D003F000FAEB
:101F000020B10CA140F2AB40FFF79CF96770194972
:101F100001200860582003F0FBF9F06A0090616826
:101F200068468847F8BD000000740240086700005A
:101F3000300000202E2E5C2E2E5C2E2E5C2E2E5C71
:101F40002E2E5C2E2E5C636F6D706F6E656E7473DB
:101F50005C647269766572735F6E72665C757362DB
:101F6000645C6E72665F6472765F757362642E6322
:101F70000000000008750240054908B500204870BF
:101F8000887004484068009049686846884708BDE2
:101F900030000020086700002DE9F041804602462D
:101FA00001200021FEF77DFA1A4F05460E463868DB
:101FB000FFF776F800280CD1174CD4E9062110461B
:101FC0002A4001EA06031A4305D0A843B143C4E9F5
:101FD0000601BDE8F081404600F0E0FF30B1D4E9F1
:101FE000040128433143C4E9040105E0D4E90410A5
:101FF000A943B043C4E90410D4E90601284331439E
:10200000C4E90601A1683868BDE8F0410022FFF785
:1020100007B80000DC6700004800002010B500F0A1
:10202000D3FD20B1134A40F2F531FEF77FFF0020C7
:1020300001F00EF820B10F4A40F2F731FEF776FFBB
:10204000002000F065FD002000F012FE00F030FDE1
:102050000028FBD000F0DAFD0028F7D0FEF7B6FF2D
:10206000002806D0BDE81040024A40F20141FEF7C8
:102070005DBF10BD142600002DE9FC5F0E008346F5
:10208000DDE90C47C6F1000098469246814600D42F
:102090000846012503E000BF90FBFAF06D1C504597
:1020A000FADAA84500D9454624B1002E01DB7807AD
:1020B00000D5641EB80702D5B8F1000F0AD0F807A2
:1020C00008D13CB1A54205D220215846641EFFF735
:1020D000BDFBF6E7002E02DA4E462D2102E078071E
:1020E00003D52B215846FFF7B1FB07F00300022868
:1020F0000BD1B8F1000F08D13CB1A54205D2302177
:102100005846641EFFF7A2FBF6E7CDE900474346B9
:1021100052463146584603F05DFDBDE8FC9F000085
:1021200070B50E460446007918494FF4A27501EBCC
:102130004010017F2068A1B14FF4887102F0F2FED7
:102140004FF49071206802F0EDFE4FF49271206818
:1021500002F0E8FE2946206802F0E4FE0C492068FF
:1021600009E04FF48E7102F0CCFE2946206802F09F
:10217000C8FE08492068C0F80413206800F046FE35
:102180003146BDE8704000F009BE00008802002022
:1021900010030200800002000268134602E08A4237
:1021A00004D01268002AFAD10B6001607047000069
:1021B0000A4810B5807860B1002401E0022C06D0F6
:1021C0002046FFF7BDF8641C042CF7D310BD032490
:1021D000F6E7BDE81040FFF751B9000010000020FD
:1021E00003480179C90702D00078FFF729BA704780
:1021F000100000202DE9F047394E002780463D466B
:10220000DFF8E090D6F804A057E003D00446D0F8F9
:102210001C8035E099F8002002EB4201521CD2B23A
:1022200089F8002009EBC10199F80230091D9A4292
:1022300001D189F8005048680A780446012A12D072
:10224000022A02D0032A3BD108E003F0E1FA00B1F0
:102250000127257434E00574C06900E07068002827
:10226000F9D170602CE0207C50BB88686060C86841
:10227000A0600869E0604869A061F07800B165601D
:102280006268B168184B501A20F07F40984202D221
:10229000A168084406E0881AA16820F07F408142C6
:1022A00002D9081A206000E0256065600120A56061
:1022B00020742046E56103F08DFAB8F10000A4D146
:1022C00099F8001099F801008142A3D117B97168FB
:1022D000514502D00120BDE8F0870020FBE7000057
:1022E0006800002020050020FFFF7F0070B52E4809
:1022F00004682E4D03262EA1288806EB004002F02C
:102300002BFC2CB928882EA106EB004002F024FCFF
:10231000E00705D028882CA106EB004002F01CFC49
:10232000A00705D528882BA106EB004002F014FC7D
:10233000600705D5288829A106EB004002F00CFCB7
:10234000200705D5288827A106EB004002F004FCF1
:10235000E00305D5288826A106EB004002F0FCFB2F
:10236000A00305D5288824A106EB004002F0F4FB69
:10237000600305D5288823A106EB004002F0ECFBA2
:10238000200305D5288821A106EB004002F0E4FBDC
:10239000E00207D528881FA106EB0040BDE8704089
:1023A00002F0DABB70BD0000000400409401002080
:1023B000526573657420726561736F6E733A0000C5
:1023C0002D204E4F4E4500002D2052455345545070
:1023D000494E00002D20444F470000002D2053524D
:1023E000455100002D204C4F434B5550000000003C
:1023F0002D204F46460000002D204C50434F4D509D
:10240000000000002D204449460000002D204E46CB
:10241000430000002D2056425553000070B588B08F
:10242000244800F0CBF92348001F064600F0C6F907
:10243000214DD5E9014105E0C0F3891202EB90502E
:10244000641C044404EA010005EB8000C0688207B4
:10245000F2D000200DF1080204EA010305EB83032A
:10246000641CDB6842F82030401C0228F4D3029838
:1024700000F00300012817D002280ED00F4940F2C7
:102480002710FEF7DFFE3046002101AAFDF791FF7D
:10249000002800D06C6008B070BD0298032101EBE9
:1024A000905004EB9004EEE70298C0F383100444CC
:1024B000E9E70000440B00202C070020E473000033
:1024C000FFF7ACFD52490220FFF770F820B151A28E
:1024D00040F20B41FEF72AFD0C2200210120FFF7FC
:1024E0003BF820B14BA240F21141FEF71FFD002046
:1024F00002F0AEFB02F032FA01F0E2FA08B149A2B2
:1025000000E04AA24C4D03264CA1288806EB00406F
:1025100002F026FB01F0D4FA08B142A200E043A287
:1025200028884BA106EB004002F01AFBFFF7DEFE05
:102530004C49086808604C4801F02AFC20B135A2DB
:1025400040F25741FEF7F2FC4021002001F056F91D
:102550004021802001F052F9FEF77AFF0220FEF7B9
:1025600019FF0320FEF716FF404800F02BFE20B1B4
:1025700028A240F26A41FEF7D9FC3D4CA079B0B1E7
:1025800028883CA106EB004002F0E6FA02F0FCF9D4
:102590000028FBD10220FEF7D3FE0320FEF7D0FE79
:1025A000394901200860BFF34F8F20BFFDE76078F5
:1025B000617988420AD0607930B101F021FD607004
:1025C00020B1FEF75BFF01E000206070207890B141
:1025D0000020FEF7BFFF70B1607820B1A07850B145
:1025E00001F0BCFD07E0288828A106EB004002F0BE
:1025F000B3FA00F0B7F802F0C7F90220FEF7A0FE28
:1026000020BF40BF20BF0220FEF7C4FEB6E7000097
:102610009D1500002E2E5C2E2E5C2E2E5C6D6169A9
:102620006E2E6300656E61626C656400646973613F
:10263000626C656400000000940100205553422044
:10264000657272617461203130342025730000009E
:1026500055534220657272617461203135342025F2
:10266000730000000004004019600000E4650000F1
:1026700000000020476F696E6720746F20737973C4
:1026800074656D204F464600000500402020205410
:102690005820706F696E7465720000002DE9F05F5C
:1026A000C7888A46191D1646B1FBF7F2B1FBF7F54C
:1026B00007FB121999193944C91CB1FBF7F10446FB
:1026C0004079C9B2DDF828B0884206D21749942073
:1026D000FEF7B8FD01E024686D1E002DFBD1A84671
:1026E000A7EB0905B5421AD81CE000BFBBF1000FEB
:1026F00006D004EB09010AEB08002A46091D05E093
:1027000004EB09000AEB08012A46001DFDF7DCFE78
:102710002468761B4FF00009A844B74201D935461A
:1027200000E03D46002EE1D1BDE8F09FE86F0000DB
:1027300030B5024669B102F0B9FA0021084C0BE04D
:1027400001EB410304EB830315685B88AB4202D1C4
:102750001160002030BD491C8142F1D3052030BDFD
:102760004C01002013480178002922D0017900296A
:102770001FD1C17811F0030106D0012907D0022929
:1027800008D003290CD108E04FF4206107E04FF492
:10279000202104E04FF4764101E04FF47601C1605E
:1027A000C178491CC170012101710349812001F0E8
:1027B000E7B8704700000020BC66000008B50121A2
:1027C0006A46FDF7E9FD009808BD08B56A46FDF7C1
:1027D0003AFD009808BD000070B5040003D113A1B4
:1027E000C620FEF72FFD00252846FEF769FC20686D
:1027F00062680168914214D9491E01600D781CB9C4
:1028000019A18920FEF71EFD208AE16805FB00154D
:102810002068217A0278891A0279C9B28A4200D2E4
:1028200001710020FEF77AFC284670BD2E2E5C2E2A
:102830002E5C2E2E5C2E2E5C2E2E5C2E2E5C636F5C
:102840006D706F6E656E74735C6C696272617269D3
:1028500065735C62616C6C6F635C6E72665F626113
:102860006C6C6F632E6300002E2E5C2E2E5C2E2E61
:102870005C2E2E5C2E2E5C2E2E5C636F6D706F6E48
:10288000656E74735C6C69627261726965735C62B7
:10289000616C6C6F635C6E72665F62616C6C6F63BF
:1028A0002E63000070B50C46050003D10FA1EA208D
:1028B000FEF7C8FC1CB90DA1EB20FEF7C3FC0020FD
:1028C000FEF7FEFB1DB918499620FEF7BBFCE86831
:1028D0002A68211A288AB1FBF0F11068431C1360A2
:1028E0000170BDE870400020FEF718BC2E2E5C2E53
:1028F0002E5C2E2E5C2E2E5C2E2E5C2E2E5C636F9C
:102900006D706F6E656E74735C6C69627261726912
:1029100065735C62616C6C6F635C6E72665F626152
:102920006C6C6F632E6300006828000010B5040013
:1029300002D0206830B901E00E2010BD17A1A02000
:10294000FEF780FC606818B914A1A120FEF77AFC9C
:10295000A06818B911A1A220FEF774FCE06818B9AC
:102960000EA1A320FEF76EFC208A18B90BA1A420AB
:10297000FEF768FC207A61682268401AC0B21160D4
:1029800004E0226811684B1C13600870401EC0B23E
:10299000F7D221680020087110BD00002E2E5C2E99
:1029A0002E5C2E2E5C2E2E5C2E2E5C2E2E5C636FEB
:1029B0006D706F6E656E74735C6C69627261726962
:1029C00065735C62616C6C6F635C6E72665F6261A2
:1029D0006C6C6F632E630000C20800F007030120D7
:1029E000895C98400840704700F1804000680028EA
:1029F00000D00120704708B500F18040002101603F
:102A00000068009008BD00000549096840F4803066
:102A100001F00111814201D101207047002070476F
:102A20000C04004000283ED01F49204A096800BF1E
:102A300000BF00BF00BF00BF00BF00BF00BF91428A
:102A40002FD000BF00BF00BF00BF00BF00BF00BF4E
:102A500000BF00BF00BF00BF00BF00BF00BF00BF7E
:102A600000BF00BF00BF00BF00BF00BF00BF00BF6E
:102A700000BF00BF00BF00BF00BF00BF00BF00BF5E
:102A800000BF00BF00BF00BF00BF00BF00BF00BF4E
:102A900000BF00BF00BF00BF00BF00BF00BF00BF3E
:102AA00000BF0138C3D17047480100200024F40062
:102AB000064810B5007820B905A14FF4A170FEF7C3
:102AC000C1FBBDE810400120FFF79EBF0C020020B3
:102AD0002E2E5C2E2E5C2E2E5C2E2E5C2E2E5C2E30
:102AE0002E5C636F6D706F6E656E74735C6472697B
:102AF000766572735F6E72665C636C6F636B5C6E3F
:102B000072665F6472765F636C6F636B2E63000046
:102B100070B51C4C0546207820B91BA140F213105B
:102B2000FEF790FB607838B115B1696800208847DE
:102B30000020FEF7C5FA13E00020FEF7C1FA25B128
:102B4000104829460830FFF727FB606840B94FF46A
:102B50008070FFF750FF01208107C1F8040308606F
:102B60006068401C60600020FEF7D8FA60680028AA
:102B700006D1BDE8704004A140F22F10FEF762BB01
:102B800070BD00000C0200202E2E5C2E2E5C2E2E1E
:102B90005C2E2E5C2E2E5C2E2E5C636F6D706F6E25
:102BA000656E74735C647269766572735F6E72666B
:102BB0005C636C6F636B5C6E72665F6472765F639E
:102BC0006C6F636B2E63000070B50E4C002520788F
:102BD00008B1852513E00021A16061602161E160F9
:102BE0004FF0E020D0F80001012610F0010F03D1D2
:102BF0000721002000F0D2F803480660267028461E
:102C000070BD00000C02002018050040064810B5F9
:102C1000007820B905A140F20510FEF713FB134818
:102C20000068C0F3004010BD0C0200202E2E5C2E68
:102C30002E5C2E2E5C2E2E5C2E2E5C2E2E5C636F58
:102C40006D706F6E656E74735C64726976657273B5
:102C50005F6E72665C636C6F636B5C6E72665F6402
:102C600072765F636C6F636B2E6300001804004024
:102C700070B51C4C0546207818B91BA1D620FEF76C
:102C8000E1FAA07838B115B16968012088470020C1
:102C9000FEF716FA15E00020FEF712FA25B11148EA
:102CA00029461030FFF778FAE06850B94FF4827087
:102CB000FFF7A1FE02204107C1F804031A490120D1
:102CC0000860E068401CE0600020FEF727FAE0683A
:102CD000002805D1BDE8704003A1F220FEF7B2BA8A
:102CE00070BD00000C0200202E2E5C2E2E5C2E2EBD
:102CF0005C2E2E5C2E2E5C2E2E5C636F6D706F6EC4
:102D0000656E74735C647269766572735F6E726609
:102D10005C636C6F636B5C6E72665F6472765F633C
:102D20006C6F636B2E630000080000402DE9F041DA
:102D30004FF480773846FFF757FE0124104EA50761
:102D400048B13846FFF757FE0120C5F808037470F4
:102D50000020FEF7D3FD4FF482773846FFF744FE9C
:102D600000280BD03846FFF746FE0220C5F80803BE
:102D7000B470BDE8F0410120FEF7C0BDBDE8F081B0
:102D80000C02002000F01F02012191404009800048
:102D900000F1E020C0F880117047000070B50D46CA
:102DA0000446082903D31049FE20FEF74BFA6807B2
:102DB000000E002C06DA04F00F0101F1E02181F889
:102DC000140D03E004F1E02181F8000404F01F0178
:102DD000012088406109890001F1E021C1F88002E9
:102DE000C1F8000170BD0000046A000041098900BB
:102DF00001F1E021D1F8001100F01F020120904004
:102E0000014201D00120704700207047000B40B202
:102E1000704700002DE9F0410E468046302804D36B
:102E2000294940F2FF10FEF70DFA404602F07CFA05
:102E300020B925494FF40070FEF704FA404602F02D
:102E40007DFA224D0028404616D0FEF74FFD28445B
:102E500090F858008009032802D001280AD003E026
:102E6000404601F045FC28B103214046BDE8F04151
:102E700001F089BB0221F8E702F06CFA002820D0AB
:102E80004046FEF733FD0446114F4FF4807007EBC8
:102E9000840100EB8400D1F8102580B242F00102D9
:102EA000C1F8102501F086FC002E0AD04046FEF73E
:102EB0001DFD55F82000002803D00120A040C7F8D0
:102EC0000403BDE8F0810000486A000020020020F1
:102ED000006000402DE9FC4114460E4605463028AE
:102EE00004D32A4940F2D110FEF7ACF90027284656
:102EF00002F01AFA08B1082744E0F2782146284681
:102F0000FEF7D0FC0446401C3BD0B07868B1684660
:102F1000009501F085FB009900EB8100D0F80017C7
:102F200021F00201C0F8001707E00021737828465D
:102F300000910A46019101F0D8FAF078C0B1144826
:102F4000317800EB8400D0F81025124B1A40C0F8FD
:102F500010254FF47C524FF4403302EA052203EA75
:102F600001410A43D0F810150A43C0F8102509E0C2
:102F700009483278204410F8581F41EA8211017044
:102F800000E004273846BDE8FC810000486A0000E4
:102F900000600040FFC0FCFF2002002010B5044686
:102FA000302804D305494FF41370FEF74BF920463F
:102FB00001F09EFB002800D0012010BD486A0000EF
:102FC00070B5144D95F8640008B1082070BD00205C
:102FD000411E2A18401CC0B282F830103028F8D3A5
:102FE00000242046FEF750FC641CE4B20C2CF8D3FD
:102FF00007210620FFF7D2FE4FF4BE7001F0DAFB86
:1030000005494FF00040C1F80403012085F8640031
:10301000002070BD2002002000600040034890F8AE
:103020006400002800D0012070470000200200202A
:103030000121B1EB507F01D1012070470020704782
:103040000121B1EB507F01D1012070470020704772
:1030500070B5104C217809B1852070BD00B90E48BB
:103060000E4A0178C1F3400111600C49007808391B
:1030700000F0010008604FF0E020D0F800010125C9
:1030800010F0010F03D107210020FFF787FE257004
:10309000002070BD20000020046700008005004073
:1030A00070B54FF08040D0F80453354C68070DD50B
:1030B0004FF4847001F0F0FE40B1606820B931A196
:1030C00040F24110FEF7BEF860688047A8060ED5B2
:1030D0004FF48A7001F0E0FE48B1A06820B929A140
:1030E00040F24910FEF7AEF8A16800208847680654
:1030F0000ED54FF48C7001F0CFFE48B1A06820B916
:1031000020A14FF4A870FEF79DF8A1680120884720
:1031100028060ED54FF48E7001F0BEFE48B1E0686F
:1031200020B918A140F25910FEF78CF8E168002090
:103130008847E8050ED54FF4907001F0ADFE48B118
:10314000E06820B90FA14FF4B070FEF77BF8E1689A
:1031500001208847A80511D54FF4927001F09CFE1C
:1031600000280BD0E06820B906A140F26710FEF7F6
:1031700069F8E168BDE870400220084770BD0000B2
:10318000200000202E2E5C2E2E5C2E2E5C2E2E5C1F
:103190002E2E5C2E2E5C636F6D706F6E656E747379
:1031A0005C647269766572735F6E72665C706F776D
:1031B00065725C6E72665F6472765F706F7765725F
:1031C0002E63000000B5024600F00EF8106838B11A
:1031D0000449C8604FF080414FF46070C1F80403A7
:1031E000002000BD200000204FF080414FF46070AF
:1031F000C1F8080301490020C86070472000002082
:1032000010B50446B0F5000F03D307496C20FEF754
:1032100019F84FF0E020816982698A1A22F07F4212
:10322000A242F9D310BD00008C6A000070B50B4DAE
:1032300004460B4E28680B49B0FBF6F0B1FBF0F0EA
:10324000A04203D208497720FDF7FCFF2868B0FBB5
:10325000F6F06043BDE87040FFF7D2BF48010020A0
:1032600040420F00FFFF7F008C6A00004FF0E0201B
:103270006FF07F4141610521016170472DE9F04107
:1032800090460D00064603D118A1EA20FDF7DAFFAB
:103290003079264F07EB4014E07E10B10820BDE8DE
:1032A000F081687F207729463046FDF777FF5FEA97
:1032B000080060602969216003D0297F3046FEF74D
:1032C0002FFF307907EB4010007F0028306801D0D5
:1032D000082100E00421C0F800150020E0752076E8
:1032E000A0750121E176A076D9E700002E2E5C2E94
:1032F0002E5C2E2E5C2E2E5C2E2E5C2E2E5C636F92
:103300006D706F6E656E74735C64726976657273EE
:103310005F6E72665C756172745C6E72665F647219
:10332000765F756172742E630000000088020020D1
:103330002DE9F0470E460179DFF82881044608EBB5
:1033400041151746E87E012804D047A14FF4B97013
:10335000FDF778FF27B944A140F27310FDF772FF23
:1033600026B941A14FF4BA70FDF76CFF217908EB43
:103370004110007F18B13046FFF75AFE30B12046A9
:1033800000F092F820B11120BDE8F0871020FBE793
:10339000AF750027AE60AF8221793E4608EB41153C
:1033A0004FF00108287F0028206825D04FF490793D
:1033B000494601F0B7FD4FF4AC7A5146206801F060
:1033C000B1FD2068A97DAA68C0F84425C0F8481559
:1033D0002068C0F808806868F0B94946206801F0A4
:1033E0009CFD80465146206801F097FD58EA000197
:1033F000F3D058BBAF750FE04FF48E7A514601F011
:1034000080FD2068C0F808802946206802F08AFA0A
:1034100069684FF4807089B13046B5E7514620683D
:1034200001F06AFD10B9A88A4845F7D1A88A484535
:1034300005D02946206802F075FA00E08146A88A86
:10344000A97D8842EAD3A88A484501D10F26D1E751
:103450005146206801F050FD0028F9D02068C0F8DE
:103460000C80C7E7880200202E2E5C2E2E5C2E2EAC
:103470005C2E2E5C2E2E5C2E2E5C636F6D706F6E3C
:10348000656E74735C647269766572735F6E726682
:103490005C756172745C6E72665F6472765F756192
:1034A00072742E63000000000079044901EB4010A3
:1034B000807D002800D00120704700008802002095
:1034C00070B5044600791149002601EB40152068CB
:1034D0002A7FC0F80065686888B1207901EB401048
:1034E000007F0028206801D0094901E008498C3993
:1034F000C0F808132068FFF789FCFFF743FC20465B
:1035000001F034FFEE766E6070BD0000880200208E
:10351000100302002DE9F0411D46174606460C46F1
:10352000AA4204D213A140F2C510FDF78BFE206819
:1035300038B1FFF785FD20B90EA14FF4E370FDF718
:1035400081FE6068A84204D2002171602168316068
:1035500007E075602168401B316060602168294484
:103560002160AF4203D110B10120BDE8F0810020FD
:10357000FBE700002E2E5C2E2E5C2E2E5C2E2E5C89
:103580002E2E5C2E2E5C636F6D706F6E656E747385
:103590005C647269766572735F6E72665C75736285
:1035A000645C6E72665F6472765F757362642E63CC
:1035B0000000000010B50D4C207820B90CA140F29D
:1035C0009E60FDF73FFE00F0D1FC1949D1F80403DD
:1035D000C1F80803174900200860BFF36F8FBFF3DD
:1035E0004F8FE0700120207010BD000030000020DF
:1035F0002E2E5C2E2E5C2E2E5C2E2E5C2E2E5C2E05
:103600002E5C636F6D706F6E656E74735C6472694F
:10361000766572735F6E72665C757362645C6E72FF
:10362000665F6472765F757362642E6300000000EB
:10363000007002400075024070B51A4C20780128D5
:1036400004D019A140F27D60FDF7FCFD4FF4006548
:10365000284601F04BFE244901200860BFF36F8F1C
:10366000BFF34F8F214801680905FCD5284601F0BA
:103670003DFE1F4940F2E37008604020091D0860CC
:10368000BFF36F8FBFF34F8F174980201C31086045
:1036900040F2FF10A0600020E060E070A070022007
:1036A000207070BD300000202E2E5C2E2E5C2E2E41
:1036B0005C2E2E5C2E2E5C2E2E5C636F6D706F6EFA
:1036C000656E74735C647269766572735F6E726640
:1036D0005C757362645C6E72665F6472765F75734C
:1036E00062642E6300000000007502400074024016
:1036F0000078024070B5054602F0ECFB2846FEF764
:103700006DFA044600F00F00092804D30E4940F278
:10371000E240FDF797FD04F00F0122064FF0010093
:1037200001D50A4A01E0094A121D13688840834303
:103730001360BFF36F8FBFF34F8F284600F0E4F89C
:103740000349C1F8080370BD204100001075024014
:1037500000700240012101F0EBBB000070B505468E
:1037600000F0D2F82149C1F80403284601F02CFCEE
:1037700000283AD12846FEF731FA044600F00F003F
:10378000092804D31A4940F2D140FDF75BFD04F04B
:103790000F0021064FF0010401D5164901E015493B
:1037A000091D0A6804FA00F002430A60BFF36F8F34
:1037B000BFF34F8F280718D0280616D405F00F0046
:1037C000082812D20020FDF77BFC284600F03CFCC4
:1037D0002846FEF775F984400748C168A143C160D7
:1037E000BDE870400020FDF799BC70BD007002403C
:1037F00020410000107502403000002070B50C0020
:10380000054602D0601E044204D011A140F22D7082
:10381000FDF718FD05F00F0008280CD31C480068C0
:10382000C1B2802904D04FF48060A0420AD204E0E3
:103830004FF40070F9E7402C04D905A140F22F7035
:10384000FDF700FD2846FEF78DF9848170BD00006C
:103850002E2E5C2E2E5C2E2E5C2E2E5C2E2E5C2EA2
:103860002E5C636F6D706F6E656E74735C647269ED
:10387000766572735F6E72665C757362645C6E729D
:10388000665F6472765F757362642E630000000089
:103890001C75024010B5FEF7A1F9044600F00F00B8
:1038A000082804D3064940F2FB40FDF7CBFC05494C
:1038B00044F480700860BFF36F8FBFF34F8F10BD6B
:1038C000204100001875024010B5FEF787F9BDE8E9
:1038D000104001F0B5BB000010B5FEF77FF90446BB
:1038E00000F00F00082804D3054940F20350FDF70B
:1038F000A9FC04480460BFF36F8FBFF34F8F10BD66
:10390000204100001875024070B50546000605F01C
:103910000F0402D5092C09D301E0092C08D307A113
:103920004FF4C770FDF78EFC280601D5134801E05F
:1039300012480930015D0120884070BD2E2E5C2E9A
:103940002E5C2E2E5C2E2E5C2E2E5C2E2E5C636F3B
:103950006D706F6E656E74735C6472697665727398
:103960005F6E72665C757362645C6E72665F6472D1
:10397000765F757362642E6300000000C867000004
:103980002DE9F0410D460646FEF79AF8044625B9A2
:1039900030A140F27970FDF755FC0020FDF790FB57
:1039A0003C48310704D181788E4201D0102438E0A0
:1039B00001898046C943C06889B201270143A740F5
:1039C000394201D011242CE03046FEF7CBF80446F2
:1039D00006F00F00310600EB40002AD52E4901EB1E
:1039E00080062868FFF72CFB0028287A4FEAC07071
:1039F00004D008B1294803E0294801E0B8B12948BA
:103A0000206095E8070086E807000020C4E901600F
:103A1000A073D8F80C1004460F43C8F80C7002F0DD
:103A2000EDFC0020FDF77AFB2046BDE8F0811E4842
:103A3000E6E719496C3101EB8006286838B1FFF7D9
:103A4000FFFA20B903A140F2D270FDF7FBFB174843
:103A5000D6E700002E2E5C2E2E5C2E2E5C2E2E5CC9
:103A60002E2E5C2E2E5C636F6D706F6E656E7473A0
:103A70005C647269766572735F6E72665C757362A0
:103A8000645C6E72665F6472765F757362642E63E7
:103A90000000000030000020C8030020FD3C0000B2
:103AA000793C0000D13B0000313B0000153500009F
:103AB00010B5FEF793F8BDE8104001F0D7BB000049
:103AC0000C480078082810D10A48001D007800072B
:103AD0000BD108480830007810F0F00F05D10548E8
:103AE0000C30007810F0F00F01D00020704701205A
:103AF00070470000E00F00F00C480078082810D153
:103B00000A48001D007800070BD1084808300078EB
:103B100010F0F00F05D105480C30007810F0F00FD0
:103B200001D000207047012070470000E00F00F036
:103B30002DE9F041804616460C460868FFF780FAEA
:103B400020B112A140F22E20FDF77CFB65681F4FCB
:103B5000B54200D93546402D04D90CA14FF40E7062
:103B6000FDF770FB2A4638462168FCF7ADFCC8E932
:103B700000756068401B60602068284420606068B1
:103B8000002800D00120BDE8F08100002E2E5C2E20
:103B90002E5C2E2E5C2E2E5C2E2E5C2E2E5C636FE9
:103BA0006D706F6E656E74735C6472697665727346
:103BB0005F6E72665C757362645C6E72665F64727F
:103BC000765F757362642E6300000000A00400201D
:103BD0002DE9F041064690460D460868FFF730FA99
:103BE00020B114A14FF41570FDF72CFB6C68214F28
:103BF0004046444500D90446402C04D90DA140F26A
:103C00005E20FDF71FFB34B1224638462968FCF7D9
:103C10005BFC376001E00020306074606868001B66
:103C2000686028682044286014B10120BDE8F08154
:103C30000020FBE72E2E5C2E2E5C2E2E5C2E2E5CA2
:103C40002E2E5C2E2E5C636F6D706F6E656E7473BE
:103C50005C647269766572735F6E72665C757362BE
:103C6000645C6E72665F6472765F757362642E6305
:103C700000000000A00400202DE9F0410746164690
:103C80000C460868FFF7DCF920B90CA14FF4F67078
:103C9000FDF7D8FA6568B54200D935462068C7E90E
:103CA00000056068401B60602068284420606068F0
:103CB000002800D00120BDE8F08100002E2E5C2EEF
:103CC0002E5C2E2E5C2E2E5C2E2E5C2E2E5C636FB8
:103CD0006D706F6E656E74735C6472697665727315
:103CE0005F6E72665C757362645C6E72665F64724E
:103CF000765F757362642E63000000002DE9F04169
:103D0000074616460C460868FFF79AF920B910A135
:103D100040F20D20FDF796FA6568B54200D93546A8
:103D2000002D0FD0D4F80000C7E900056068A0EBB3
:103D30000500606020682844206006D04FF0010034
:103D4000BDE8F0814FF00000EEE74FF00000F7E72C
:103D50002E2E5C2E2E5C2E2E5C2E2E5C2E2E5C2E9D
:103D60002E5C636F6D706F6E656E74735C647269E8
:103D7000766572735F6E72665C757362645C6E7298
:103D8000665F6472765F757362642E630000000084
:103D90002DE9F0410446FFF7AFFE08B1FFF766FAE0
:103DA0002CB11E49087820B10820BDE8F081072019
:103DB000FBE74C6001200024087046024FEA04052E
:103DC00044F0800707F00F00082801D3314600E0D7
:103DD00040213846FFF712FD3846FDF7C3FE8573D4
:103DE000641C0560E4B28560092CE9D35FF000042F
:103DF00004F00F00082801D3314600E0402120469E
:103E0000FFF7FCFC2046FDF7ADFE8573641C0560E2
:103E1000E4B28560092CEBD30020C6E73000002017
:103E200003480078022801D3012070470020704722
:103E30003000002010B5FFF7F3FF28B12720FEF770
:103E4000D5FF08B1012010BD002010BD502001F0A9
:103E50005FBA10B5FFF750FE58B1EFF3108472B699
:103E60004C2001F055FA4C2001F052FA84F31088EE
:103E700010BDBDE810404C2001F04ABA002101609D
:103E800041601149096801700F49091D09684170B5
:103E90000D49083109680C4A0C32126841EA0221C6
:103EA0004180094910310968074A1432126841EA11
:103EB00002218180044918310968034A1C321268C2
:103EC00041EA0221C180704780740240542001F011
:103ED0001FBA000070B5104C05462078022804D0A7
:103EE0000EA140F2AC60FDF7ADF9002060701B4CF4
:103EF00015B9FFF701FE00B1194C1A48C0F8044388
:103F000007212720FEF74AFF174901200860BFF369
:103F10006F8FBFF34F8F70BD300000202E2E5C2EB0
:103F20002E5C2E2E5C2E2E5C2E2E5C2E2E5C636F55
:103F30006D706F6E656E74735C64726976657273B2
:103F40005F6E72665C757362645C6E72665F6472EB
:103F5000765F757362642E63000000000714C0036F
:103F60000714E0030070024004750240104810B5C9
:103F70000078022804D00FA140F2CB60FDF762F96F
:103F80002720FEF733FF002810D002F005F819496A
:103F900000200860BFF36F8FBFF34F8F164980205A
:103FA000C1F8800148171549C1F8080310BD000089
:103FB000300000202E2E5C2E2E5C2E2E5C2E2E5CD1
:103FC0002E2E5C2E2E5C636F6D706F6E656E74733B
:103FD0005C647269766572735F6E72665C7573623B
:103FE000645C6E72665F6472765F757362642E6382
:103FF000000000000475024004E000E00070024090
:1040000010B500242046FDF75BF80C48407878B1E5
:1040100001F0C2FF0A480168890509D40949012253
:104020000A600068800502D50020086000E00124D5
:104030000020FDF773F8204610BD0000300000207E
:10404000007402402C7502402DE9F0410446000640
:1040500004D521A140F67200FDF7F4F8FFF74CFDFE
:1040600001274FF000082C4D002804F00F064046B1
:1040700012D0FDF725F82046FDF722FD8740A868FD
:104080002649B843A86040F2C57000EB46000860BE
:10409000091DC1F800801AE0FDF712F82046FDF76F
:1040A0000FFD8740A868B843A860200601D4082EF9
:1040B00004D31BA140F28E40FDF7C4F8264A02EB60
:1040C0008601C1F8A084BFF36F8FBFF34F8FBDE8A7
:1040D000F0410020FDF722B82E2E5C2E2E5C2E2EF5
:1040E0005C2E2E5C2E2E5C2E2E5C636F6D706F6EC0
:1040F000656E74735C647269766572735F6E726606
:104100005C757362645C6E72665F6472765F757311
:1041100062642E630000000030000020007802403E
:104120002E2E5C2E2E5C2E2E5C2E2E5C2E2E5C2EC9
:104130002E5C636F6D706F6E656E74735C64726914
:10414000766572735F6E72665C68616C5C6E7266D7
:104150005F757362642E68000070024010B5002421
:104160002046FCF7ADFF0748407830B101F0C8F8B1
:1041700018B105490020086001240020FCF7CEFF9B
:10418000204610BD300000202C7502400FB438B519
:10419000040003D110A11C20FDF754F8606918B980
:1041A0000DA11D20FDF74EF8206818B90AA11E20A8
:1041B000FDF748F8606818B907A11F20FDF742F81D
:1041C0000599002905D006A800906A46204600F00F
:1041D00049F838BC5DF814FB2E2E5C2E2E5C2E2E7A
:1041E0005C2E2E5C2E2E5C2E2E5C65787465726EB5
:1041F000616C5C667072696E74665C6E72665F6636
:104200007072696E74662E630000000010B50400C1
:1042100003D107A10B20FDF715F8A268002A05D0ED
:10422000D4E90403216898470020A06010BD000075
:104230002E2E5C2E2E5C2E2E5C2E2E5C2E2E5C2EB8
:104240002E5C65787465726E616C5C667072696E06
:1042500074665C6E72665F667072696E74662E63F9
:10426000000000002DE9FC4791460C465FEA00087B
:1042700004D183A14FF49F70FCF7E4FFD8F8140039
:1042800020B97FA14FF4A070FCF7DCFFD8F8000044
:1042900020B97BA140F24110FCF7D4FFD8F804000C
:1042A00020B977A14FF4A170FCF7CCFF002C76D099
:1042B00014F8011B39B125290ED04046FDF7C6FA86
:1042C00020780028F4D198F80C00002867D04046E8
:1042D000BDE8FC47FFF79ABF0020012221782B2977
:1042E0001BD02D2902D0302908D102E040F0010076
:1042F00001E040F00200641C002AEFD100252A29C9
:104300000ED02178A1F130020A2A11D205EB8502E4
:1043100001EB4205641C303DF1E740F00400EAE7A0
:10432000D9F800100B1DC9F800300968641C0D4451
:10433000217800232E290BD114F8011FA1F130029E
:104340000A2A05D203EB830201EB4203303BF3E779
:104350006C290DD068290BD0692921D00BDC2529C7
:1043600018D0582931D063290ED0642915D117E00F
:1043700014F8011FECE7702969D0732932D0752930
:104380001BD0782909D120E0D9F80000011DC9F817
:10439000001001784046FDF759FA641C90E76CE084
:1043A000D9F800100A1DC9F800200968CDE90050AD
:1043B0000A224046FDF760FEEFE7D9F800100A1D1B
:1043C000C9F8002009680A2206E0D9F800100A1D81
:1043D000C9F8002009681022CDE90050404601F0DC
:1043E000F9FBDAE7D9F8001000270A1DC9F8002008
:1043F0000E68C00705D112E04046761C7F1CFDF711
:1044000025FA31780029F7D104E0202140466D1EBD
:10441000FDF71CFABD42C0D9002DF6D1BDE74EB163
:104420003046FCF775F8074604E0202140466D1E33
:10443000FDF70CFABD4206D9002DF6D103E0404647
:10444000761CFDF703FA31780029F8D1A5E7D9F8F1
:104450000000011DC9F80010056830214046FDF735
:10446000F5F978214046FDF7F1F908200021CDE962
:104470000001034610222946B0E7BDE8FC87000092
:104480002E2E5C2E2E5C2E2E5C2E2E5C2E2E5C2E66
:104490002E5C65787465726E616C5C667072696EB4
:1044A00074665C6E72665F667072696E74665F6673
:1044B0006F726D61742E63002DE9FF411C46DDE9CA
:1044C0000A7815460E46684600F076F846EA450139
:1044D00041EA840141EA072242EA0841009A00EBDE
:1044E0008200C0F80017BDE8FF812DE9FF411C469E
:1044F000DDE90A7815460E46684600F091F846EA6E
:10450000450141EA840141EA072242EA0841009A52
:1045100000EB8200C0F80017BDE8FF812DE9FF41E4
:104520001C46DDE90A7815460E46684600F0ACF8F0
:1045300046EA450141EA840141EA072242EA08418C
:10454000009A00EB8200C0F80017BDE8FF811CB59F
:10455000002100910B4601220191FFF7DFFF1CBDF6
:104560001CB500220B46009211460192FFF7D6FFC0
:104570001CBD1CB5002100910B4601220191114682
:10458000FFF7CCFF1CBD13B50C46684600F048F899
:10459000009900EB8101D1F8002722F44032C1F8E4
:1045A0000027009900EB8100D0F8001741EA044190
:1045B000C0F800171CBD000010B504460068302884
:1045C00004D308A14FF4D570FCF73CFE20682028E6
:1045D00002D24FF0A04010BD00F01F0020600F4835
:1045E00010BD00002E2E5C2E2E5C2E2E5C2E2E5C1E
:1045F0002E2E5C2E2E5C636F6D706F6E656E747305
:104600005C647269766572735F6E72665C68616C19
:104610005C6E72665F6770696F2E68000003005001
:1046200010B504460068302804D308A14FF4D570B3
:10463000FCF708FE2068202802D24FF0A04010BDF1
:1046400000F01F0020600F4810BD00002E2E5C2ED1
:104650002E5C2E2E5C2E2E5C2E2E5C2E2E5C636F1E
:104660006D706F6E656E74735C647269766572737B
:104670005F6E72665C68616C5C6E72665F677069C3
:104680006F2E68000003005010B504460068302803
:1046900004D308A14FF4D570FCF7D4FD206820287E
:1046A00002D24FF0A04010BD00F01F0020600F4864
:1046B00010BD00002E2E5C2E2E5C2E2E5C2E2E5C4D
:1046C0002E2E5C2E2E5C636F6D706F6E656E747334
:1046D0005C647269766572735F6E72665C68616C49
:1046E0005C6E72665F6770696F2E68000003005031
:1046F00001B56846FFF794FFD0F810050099C8404F
:1047000000F0010008BD01B56846FFF7BDFF009A43
:1047100001219140C0F8081508BD38B5012400906A
:10472000684631B1FFF748FF00998C40C0F8084552
:1047300038BDFFF741FF00998C40C0F80C4538BDEB
:104740007CB5154604460C4A6618022ED2E90002D2
:10475000CDE9000204D909A140F2C220FCF772FDA4
:10476000694605E051F82400D0F81005641C01C525
:10477000A642F7D87CBD0000FC6600002E2E5C2E01
:104780002E5C2E2E5C2E2E5C2E2E5C2E2E5C636FED
:104790006D706F6E656E74735C647269766572734A
:1047A0005F6E72665C68616C5C6E72665F67706992
:1047B0006F2E6800034908B50844002101600068B5
:1047C000009008BD0060004002494058012800D018
:1047D000002070470060004030B5124B01460020B9
:1047E000D3F81044224609E0157A854205D1401CD1
:1047F0000A28F7DB4FF0FF3030BD5268002AF3D1B2
:10480000421CF9D00872D3F810242AB152684A60C9
:10481000D3F81024516030BD0022C3F810144A6050
:1048200030BD00002C070020F0B595B01C461546A1
:104830000F4608461A9E00F009FB182109A8FBF74D
:104840005CFE0E96CDE909540023082203A93846E0
:1048500000F016FB059806900498ADF81C000020A7
:104860008DF820000398082600F00300012802D0EC
:1048700002281DD03CE003983346850AC0F3C200ED
:104880008DF81E0003980FA9C0F380008DF81F005B
:104890000398C0F38314A200384600F0F1FA09A887
:1048A000009006AB22460FA9284600F02BFA1FE025
:1048B0000398840DC0F3C2008DF81E000398C0F366
:1048C00080008DF81F00082C01D2254600E0082545
:1048D00033462A460FA9384600F0D2FA2E44641B0C
:1048E00009AB06AA29460FA800F05CF9002CEAD112
:1048F000384600F0B4FA15B0F0BD7047012001F061
:1049000035B8000010B50448FEF7DAFDBDE81040E8
:10491000002001F02BB80000EC00002008B5034A8D
:1049200000924023024AFFF77FFF08BD7556000042
:104930002C060020084A012902EBC00005D00229FC
:1049400003D0032903D0042903D000207047007945
:104950007047407970470000EC74000010B5FFF715
:10496000CDFF04210648FFF737FF002803DA054989
:104970002220FCF767FC02490120487210BD0000AC
:10498000F40000208C7300002DE9FE4FFCF76EFF51
:1049900010B10020BDE8FE8F6D480021C0F818144A
:1049A000BFF34F8FD0E9014604EA060100EB810115
:1049B0004FF000090AE000BFC1F3891202EB9151E8
:1049C000641C0C4404EA060100EB8101C9688A07F3
:1049D000F2D000216A46804604EA060308EB830011
:1049E000641CC06842F82100491C0229F4D30098D5
:1049F00000F00300022802D001284DD0A2E0009868
:104A00005022810D8A46B2EB905F00D850210D46AE
:104A100065F39F50009008314E4800F0CEF9070032
:104A200077D000F013FA4B4608226946384600F06A
:104A30002DFA04EA0600311A8900091D09F1080B54
:104A40008D4222D9424E0C3631B1CAB208EB8000F9
:104A5000691A91460C3004E03046EAB200269146CD
:104A60003146CDB201465B46384600F00FFA0BEBFB
:104A700009032EB12A4631464FEA070000F006FA34
:104A80000AF1030004EB90043AE008EB80015B4676
:104A90002A4638460C31F1E70098C0F38310062807
:104AA00000D30620009960F38911C1F38310801CA4
:104AB00000918100274800F080F9070042D000F003
:104AC000C5F94B4608226946384600F0DFF909F17E
:104AD000080900250EE000BF04EA060008EB80018B
:104AE0004B46042238460C31641C00F0CFF909F122
:104AF00004096D1C0098C0F38310A842ECD847B19C
:104B0000D8F81054D8F81804464660B1384600F07A
:104B1000A6F917E0687A012804D12A6828463946A0
:104B2000126890476D68002DF4D1384600F097F96F
:104B30000020FCF7C5FAD6F8180400B9746000200C
:104B4000FCF7ECFAFCF792FE80F0010022E700008F
:104B50002C0700202469000000231A4600F0A2BDA3
:104B600008B5012300926A4600F09CFD08BD1CB503
:104B7000CDE9002302236A4600F094FD1CBD3EB53A
:104B8000069C8DE81C0003236A4600F08BFD3EBDA9
:104B90007FB5DDE908458DE83C0004236A4600F056
:104BA00081FD7FBD2DE9F0470E4680461C469246AA
:104BB00008293ED894F80C9000202073194610461E
:104BC00000F09EFC0025B54206D218F805201AA177
:104BD0002046FFF7DBFA03E019A12046FFF7D6FADB
:104BE0006D1C082DEFD317A12046FFF7CFFA002543
:104BF000B54210D218F80570FBF762FC0068C05D82
:104C000010F03E0F01D03A4600E02E220EA12046C1
:104C1000FFF7BCFA03E00DA12046FFF7B7FA6D1CC1
:104C2000082DE5D301222146504600F0DBFB84F835
:104C30000C90BDE8F087000020253032780000009D
:104C4000202020007C0000002563000020000000E0
:104C5000114810B5FF218160002101604160C0F85A
:104C60001814C0F8141480F81C140C4800F0F5F85F
:104C700000280FD10A480B490B4B401AC1080020ED
:104C800005E000BF00EB400223F82200401C8842F0
:104C9000F8D3002010BD00002C070020246900007C
:104CA00024750000EC7400004C0100200248034908
:104CB000401AC0087047000024750000EC74000022
:104CC00013B56846FDF734FD08B100201CBD02484D
:104CD000009950F831001CBDEC74000070B5084814
:104CE0000125D0F8104480F81C5405E06572216855
:104CF0002046496888476468002CF7D170BD0000E1
:104D00002C0700202DE9FF4781460C9D00200C4612
:104D10002F7B2873984616462946184600F0F0FB6C
:104D2000072E42D2DFE806F004090F161F2A3600CC
:104D300049462846FFF72AFA37E0494628462268BE
:104D4000FFF724FA31E0D4E9002349462846FFF76B
:104D50001DFA2AE0A0680090D4E9002349462846BD
:104D6000FFF714FA21E0D4E90201CDE90001D4E90A
:104D7000002349462846FFF709FA16E004F1080027
:104D800007C88DE80700D4E9002349462846FFF705
:104D9000FDF90AE004F108000FC88DE80F00D4E91E
:104DA000002349462846FFF7F1F9002229464046EC
:104DB00000F018FB2F73BDE8FF872DE9F041058A4D
:104DC00080462D1F4819C01CB0FBF5F0C6B2404606
:104DD000FDF702FD041E19D0002020710120607132
:104DE000E58000272546761EC4F800800BE040468B
:104DF000FDF7F2FC60B16179491C617128600546DC
:104E00007F1CC0F80080B742F1D32046BDE8F08196
:104E1000204600F002F80020F8E72DE9F04145793E
:104E200001466B1E002201E00968521C9A42FBD326
:104E30000F680146002605E038460C68FDF732FD94
:104E40002146761CAE42F7D3BDE8F08108B50121BA
:104E50006A46001DFBF779FA08BDFDF767BD38B556
:104E60000446001D01216A46FBF77CFA009810F009
:104E7000FF0F04D12046BDE83840FFF7CEBF38BD54
:104E800038B501240094FDF709FC38BD38B500247D
:104E90000094FDF703FC38BD00F180410868002252
:104EA00010B101200A607047104670470C4A10B5D7
:104EB00002F1F0030EE0991AC91001EBD17149100B
:104EC00002EBC1010C68844201D90B4602E005D215
:104ED00001F108029A42EED3002010BD486810BDCF
:104EE0000868000000B5FFF7E1FF002800D1014885
:104EF00000BD0000F46700004058002800D00120E9
:104F0000704708B5002242504058009008BDD0F8C4
:104F10000403084000D0012070474058002800D00A
:104F20000120704708B5002242504058009008BD4B
:104F300070B50446000604F00F050E46092D04D393
:104F40000B4940F2AE40FCF77DF9082D04D3084927
:104F500040F2AF40FCF776F906480460BFF34F8F8C
:104F600044EA06210160BFF36F8FBFF34F8F70BD1E
:104F7000204100000C75024030B5050600F00F031B
:104F80000E4C03EB830004EB80000AD5082B03D3FF
:104F90000B480160001D09E0C0F80016C0F80426A7
:104FA00030BD082B04D307480160001D026030BDEE
:104FB000C0F80017C0F8042730BD000000700240A0
:104FC000A0760240A077024010B5044600F00F0022
:104FD000092804D30BA140F2C240FCF733F92106A3
:104FE0004FF0010004F00F0200FA02F001D513495E
:104FF00001E01249091D0968014201D0012010BDDC
:10500000002010BD2E2E5C2E2E5C2E2E5C2E2E5CD3
:105010002E2E5C2E2E5C636F6D706F6E656E7473DA
:105020005C647269766572735F6E72665C68616CEF
:105030005C6E72665F757362642E68001075024064
:1050400000F00F0108290DD2020607494FEA00704F
:1050500001EB906002D5D0F8200401E0D0F84404C0
:10506000012800D0002070470070024070B504464F
:10507000000604D416A14FF45F70FCF7E3F804F0C7
:105080000F00082804D312A140F27D30FCF7DAF8B3
:10509000200704D10EA140F27E30FCF7D3F81C4962
:1050A0000020C8702046FCF75DFD817B01250329A7
:1050B00002D0006800280AD12046FCF701FD854097
:1050C000E943BDE8704012480C30FDF77EBB70BD6F
:1050D0002E2E5C2E2E5C2E2E5C2E2E5C2E2E5C2E0A
:1050E0002E5C636F6D706F6E656E74735C64726955
:1050F000766572735F6E72665C757362645C6E7205
:10510000665F6472765F757362642E6300000000F0
:1051100030000020F8B50446000604D41B494FF4C3
:105120006770FCF78FF804F00F00082804D21749C5
:1051300040F29D30FCF786F8154E0020F0702046B6
:10514000FCF710FD817B0125032914D0006800289D
:1051500010D12046FCF7B4FC8540E94306F10C0071
:10516000FDF733FB0B48806800908DF802407168B2
:1051700068468847F8BD2046FCF7A2FC8540E94315
:10518000BDE8F84002480C30FDF71FBBC05C0000D2
:105190003000002008670000F8B50446000604D57A
:1051A00020A14FF47870FCF74DF804F00F000828A8
:1051B00004D31CA140F2E130FCF744F8200704D1ED
:1051C00018A140F2E230FCF73DF8264E0020F070C6
:1051D0002046FCF7C7FC817B0125032902D000682B
:1051E00050B11AE02046FCF76BFC85401D48E943AE
:1051F0000C30FDF7EAFA10E02046FCF761FC854030
:105200001848E9430C30FDF7E0FA174800690090B0
:105210008DF80240716868468847BDE8F84000F0A4
:105220006FBD00002E2E5C2E2E5C2E2E5C2E2E5C72
:105230002E2E5C2E2E5C636F6D706F6E656E7473B8
:105240005C647269766572735F6E72665C757362B8
:10525000645C6E72665F6472765F757362642E63FF
:1052600000000000300000200867000070B505460F
:10527000000605F00F0402D5092C09D301E0092C22
:105280000BD30D4940F26A40FBF7DCFF280604D53A
:10529000094940F26B40FBF7D5FF082C05D30748BE
:1052A0000068C10300D5002070BD054901EB8400F2
:1052B000D0F8A00470BD000020410000C07402407E
:1052C0000070024002494058002800D00120704779
:1052D000007002400449084400210160BFF36F8F51
:1052E000BFF34F8F70470000007002400349086011
:1052F000BFF36F8FBFF34F8F704700000074024001
:1053000002480068002800D0012070472C75024038
:105310000449084401210160BFF36F8FBFF34F8F31
:1053200070470000007002400349084490F93000C3
:10533000C017401C704700002002002004490844A8
:1053400090F93000082801DB0120704700207047E9
:10535000200200200449084490F93000082801D2B6
:1053600001207047002070472002002070B50346DE
:1053700000791B4901EB40101968027F4FF0FF30A4
:10538000002AD1F80C25D1F81465D1F80855D1F8C8
:10539000104504D0C1F80C05C1F8140503E0C1F8AC
:1053A0001405C1F80C051968C1F80805C1F8100505
:1053B000501C02D01046FFF7CAF8701C02D03046CD
:1053C000FFF7C5F8601C02D02046FFF7C0F8681C44
:1053D00004D02846BDE87040FFF7B9B870BD0000A2
:1053E0008802002010B50C46C17949B11AB109A153
:1053F0002046FEF7CBFE2046BDE81040FEF706BF74
:10540000007A0028F3D0044804A102682046FEF781
:10541000BDFEECE70D0A000024010020257300000A
:10542000244910B50988032202EB014250B101283A
:1054300014D002282CD0BDE810401FA14FF4787082
:10544000FBF700BF104620A1FFF786FBFEF7E8FC44
:1054500000282DD1BDE81040FEF7EEB810461FA180
:10546000FFF77AFB2249002008700871FEF7E2FC82
:1054700008B1FEF77BFDFEF7D3FC08B1FEF79AF802
:105480000020FBF75DFFBDE810400120FBF758BF8F
:10549000104618A1FFF760FB0120FBF77BFFFEF72A
:1054A000C9FC002804D1BDE810400120FEF712BD60
:1054B00010BD0000940100202E2E5C2E2E5C2E2E9E
:1054C0005C6D61696E2E630055534220706F776585
:1054D00072206465746563746564000055534220EE
:1054E000706F7765722072656D6F7665640000007D
:1054F000000000205553422072656164790000006D
:1055000070B50446C0790D4600281CD1207A50B1F0
:10551000A179A088FFF70EFA0B4951F820200BA1C2
:105520002846FEF733FEA0880021FFF7C9FB03469B
:105530000549A079143951F820202846BDE870406B
:1055400003A1FEF723BE70BD2401002025730000D7
:105550003C25733E2025733A20000000EFF30580C0
:10556000C005C00D01D001207047EFF3148040F357
:105570000000401C704700000EB50023009301930B
:105580000293C088904200D20246CDE900126946DB
:105590008020FEF7F5F902000CD0074801210088B1
:1055A00001EB004005A1FFF7DBFA0CA14FF4DC7022
:1055B000FBF748FE0EBD0000940100205472616E9E
:1055C00073666572207374617274696E67206661B8
:1055D000696C65643A202564000000002E2E5C2E64
:1055E0002E5C2E2E5C6D61696E2E630070B50126F7
:1055F00070044FF0E0210025C1F88001084C4010F4
:10560000C4F84803C4F8080366602F20FDF70AFABF
:10561000A660044C2F20A560FDF704FAA57070BDAC
:10562000001001406800002070B50546C87D0C469A
:1056300000284FF4847128460AD0FFF762FCD5F8A1
:105640001805627EE1688854607E401C607670BDFB
:10565000FFF757FCD5F8180570BD1FB501238DF86D
:1056600000308DF808100192D0E90012684690478A
:105670001FBD000010B5094C0020D2B22070201DC3
:10568000FDF756FE18B1064A2D21FBF74FFC607856
:10569000002802D021780029FAD010BDE8000020AF
:1056A000387300002DE9F84FDFF8A09088460546D2
:1056B00092461F4669461846D9F80860FCF79CF8E0
:1056C000D8B3009C04EA060009EB800151F80C0FE6
:1056D00020F00300401C641C0860EA0602D540F07C
:1056E000040001E020F0040065F3C50067F38910B1
:1056F00068F39F202D0C0860FFF7D8FAA84204D861
:10570000134940F24310FBF79DFD04EA060009EB44
:105710008000641CC5604946002000940BE000BF77
:10572000009A5AF8204002EA060301EB8303521C58
:10573000DC60401C0092B842F2D399F81C0401E0EE
:10574000FFF722F90028FBD1BDE8F88F2C070020D5
:10575000E47300002DE9F84F1D4C00256846D4E99C
:1057600001A6FCF78DF9002738B30023009A616881
:105770001CE0D1F800C00846944503D9ACEB020206
:105780000A6015E0A2EB0C0263440760D0F80CC07D
:10579000C1698146BCF1000F08D006EB030828F070
:1057A0007F48C0E9018CC9F81C5005460029E0D1AA
:1057B00028466160FCF71EFD03E02846FCF71AFD51
:1057C00010B15046FCF7AEF8E770BDE8F88F000066
:1057D000680000200D4B10B5596831B102680C68A3
:1057E000A24204D8A21A0A60C161586010BD0B46DB
:1057F00003E00B46C969121B21B10C689442F8D32F
:10580000A41A0C600260C161D86110BD680000205C
:105810002DE9F041144E77683D462C4603E0844262
:1058200004D02546E469002CF9D11BE0D4B1A5428F
:105830000BD1F869706040B90C49012088600021E3
:10584000B160F0702F20FDF7EDF82168E069E861A4
:1058500010B10268114401607068874202D00120D3
:10586000BDE8F0810020FBE7680000200010014047
:10587000F8B5064600240D462046FBF721FC684695
:1058800000F090FE68B10570084946609DF8000080
:1058900048700020FBF742FC1420FBF75DF820461F
:1058A000F8BD04240020FBF739FCF8E720050020B0
:1058B0002DE9F041194D6C68002C2CD018480027B8
:1058C0000068A968B846401A20F07F462068B042B8
:1058D0000CD82146361A0744E469087C20B181F8C7
:1058E0001080886949698847002CEFD12978687849
:1058F000814206D1401CC0B26870022801D185F8EF
:105900000180064869780C3040F82170BDE8F0410C
:105910001420FBF721B8BDE8F081000068000020EA
:105920000415014070B50C4605464FF48E71FFF723
:10593000E8FAA18AA068415CA08A401CA082C5F850
:105940001C1570BD1FB500228DF800208DF80810C1
:10595000816801918275D0E90012684690471FBDA9
:105960000149012008707047E800002010B588B098
:10597000044620220F496846FAF7A6FD062000904B
:10598000C01F0190029003904FF0EB7006900CB195
:10599000094A00E0002269460848FDF76FFC18B18B
:1059A000074A1D21FBF7C2FA0448001F447008B0E3
:1059B00010BD00000469000061590000EC000020E7
:1059C000387300002DE9FF470C4605464FF400717F
:1059D000FFF79DFA01274FF40178002618B34FF422
:1059E000927949462846FFF787FAE0B149462846AA
:1059F000FFF787FAC5F80883A07E00B96F60022020
:105A00008DF80000D5F88004C5F880040390E07D8F
:105A10008DF80800E0680190E6752676D4E900125A
:105A20006846904727E004212846FFF770FA10B334
:105A30004FF484712846FFF75FFAE0B1214628460B
:105A4000FFF7F2FDE07D617E884214D1207E38B1FF
:105A5000617EE268E0752069E0602676667607E0A0
:105A6000A07E00B96F60C5F80883E675617EE268C4
:105A70002046FFF7F2FD4FF48E7841462846FFF7A7
:105A80003BFA88B1A08AA17D884204D221462846EB
:105A9000FFF748FF08E041462846FFF732FAA17DAC
:105AA00011B12046FFF74EFF4FF4A2784146284639
:105AB000FFF722FA002812D041462846FFF721FAC4
:105AC000A07E00B12F60E07D002808D0E675617EE1
:105AD000E26804B02046BDE8F047FFF7BEBDBDE870
