:020000040000FA
:10000000B82900204D0300005503000057030000ED
:10001000590300005B0300005D03000000000000C6
:100020000000000000000000000000005F0300006E
:10003000610300000000000063030000650300008E
:100040007909000067030000110C0000F5090000A9
:10005000670300006703000051070000670300000A
:1000600067030000670300006703000067030000E8
:1000700067030000670300006703000067030000D8
:1000800067030000D1090000670300006703000058
:10009000050A000067030000670300006703000013
:1000A00067030000670300006703000067030000A8
:1000B000670300006703000000000000000000006C
:1000C0006703000067030000670300006703000088
:1000D0006703000067030000670300006703000078
:1000E00067030000670300006703000000000000D2
:1000F000000000006703000000000000670300002C
:1001000000000000000000000000000000000000EF
:1001100000000000000000000000000000000000DF
:1001200000000000000000000000000000000000CF
:1001300000000000000000000000000000000000BF
:1001400000000000000000000000000000000000AF
:10015000000000000000000000000000000000009F
:10016000000000000000000000000000000000008F
:10017000000000000000000000000000000000007F
:10018000000000000000000000000000000000006F
:10019000000000000000000000000000000000005F
:1001A000000000000000000000000000000000004F
:1001B000000000000000000000000000000000003F
:1001C000000000000000000000000000000000002F
:1001D000000000000000000000000000000000001F
:1001E000000000000000000000000000000000000F
:1001F00000000000000000000000000000000000FF
:10020000DFF80CD000F074FA00480047B11A000083
:10021000B829002030B4044654E8000F0D4644E8E5
:100220000053002BF8D1156030BC704730B4044641
:1002300054E8000F40EA010544E80053002BF7D1D1
:10024000156030BC704730B4044654E8000F00EA33
:10025000010544E80053002BF7D1156030BC70470E
:1002600030B4044654E8000F80EA010544E8005326
:10027000002BF7D1156030BC704730B4044654E809
:10028000000F00EB010544E80053002BF7D1156087
:1002900030BC704730B4044654E8000FA0EB0105B1
:1002A00044E80053002BF7D1156030BC70470000C4
:1002B00030B4044654E8000F0D4644E80053002BC8
:1002C000F8D1156030BC704730B4044654E8000FD4
:1002D00040EA010544E80053002BF7D1156030BC1B
:1002E000704730B4044654E8000F00EA010544E8C2
:1002F0000053002BF7D1156030BC704730B4044672
:1003000054E8000F80EA010544E80053002BF7D1C0
:10031000156030BC704730B4044654E8000F00EB61
:10032000010544E80053002BF7D1156030BC70473D
:1003300030B4044654E8000FA0EB010544E8005334
:10034000002BF7D1156030BC70470000064880478D
:1003500006480047FEE7FEE7FEE7FEE7FEE7FEE7AA
:10036000FEE7FEE7FEE7FEE7090A000001020000E3
:100370002DE9F05F0546002092469B4688460646DA
:10038000814640241BE0284641464746224600F06D
:100390000AF953465A46C01A914110D311461846DD
:1003A000224600F016F82D1A67EB01084F46224648
:1003B0000120002100F00DF817EB00094E41201E2E
:1003C000A4F10104DFDC484631462A464346BDE835
:1003D000F09F202A04DB203A00FA02F10020704747
:1003E0009140C2F1200320FA03F319439040704773
:1003F00000487047AC46000040EA01039B0703D069
:1004000009E008C9121F08C0042AFAD203E011F853
:10041000013B00F8013B521EF9D27047D2B201E015
:1004200000F8012B491EFBD270470022F6E710B5F9
:1004300013460A4604461946FFF7F0FF204610BD52
:10044000421C10F8011B0029FBD1801A704730B5FF
:1004500004460020034600E05B1C934203D2E05CAC
:10046000CD5C401BF8D030BD2DE9FE4F81EA03047E
:1004700004F0004421F0004100944FF0000B23F001
:10048000004350EA01045ED052EA03045BD0C3F398
:100490000A54C1F30A552C44A4F2F3340194A0FB8E
:1004A0000254C1F3130141F48011C3F3130343F465
:1004B000801301FB024400FB034E840A970A44EABE
:1004C000815447EA8357A4FB076802958D0A05FB10
:1004D00007854FEA932C04FB0C542705029D4FEA35
:1004E000065847EA1637B5EB08056EEB070C870E82
:1004F000920E47EA811742EA8312A7FB0201B6EB8C
:100500000B0164EB00042B0D43EA0C335E1844EB43
:100510001C50DA465146E7FB0201C5F313044FEACB
:100520000B3343EA14534FEA0432019C43EA0603B7
:10053000A4F10C040294009CCDE900B400F089F809
:1005400003B0BDE8F08F00200146F9E70EB5C10FFA
:1005500080EAE0700844CA07002140F233438DE886
:100560000E000A460B4600F074F803B000BD01F01F
:10057000004330B421F0004150EA010206D00A0DD8
:10058000A2F56072C1F31301002A02DC30BC002026
:100590007047440F44EAC104C100E01830BC00EBCE
:1005A000C25000F010B8202A04DB203A21FA02F0F1
:1005B0000021704721FA02F3D040C2F1200291409D
:1005C0000843194670470029A8BF7047401C4900DE
:1005D00008BF20F00100704710B4B0FA80FC00FAA8
:1005E0000CF050EA010404BF10BC704749B1CCF1D3
:1005F000200421FA04F411FA0CF118BF012121435F
:100600000843A3EB0C01CB1D4FEA00614FEA102019
:1006100042BF002010BC704700EBC35010440029BB
:10062000A4BF10BC7047401C490008BF20F0010067
:1006300010BC704710B5141E73F1000408DA401C9A
:1006400041F1000192185B411A4301D120F00100F1
:1006500010BD2DE9F04D92469B4611B1B1FA81F2E1
:1006600002E0B0FA80F220329046FFF7B2FE044674
:100670000F4640EA0A0041EA0B0153465A46084336
:1006800013D0114653EA010019D0C8F14002504678
:10069000FFF789FF05460E46504659464246FFF78A
:1006A00098FE084305D0012004E020463946BDE805
:1006B000F08D0020054346EAE0762C4337430A9844
:1006C0006305E40AA0EB08000022FD0A44EA47544F
:1006D0000A3002D500200146E9E7010510196941F9
:1006E000DDE9084500196941BDE8F04DA2E70000C9
:1006F000064C074D06E0E06840F0010394E807006F
:1007000098471034AC42F6D3FFF77EFD4C4700000B
:100710006C47000030B58C1810F8012B12F00F0355
:1007200001D110F8013B120906D110F8012B03E0AA
:1007300010F8015B01F8015B5B1EF9D101E001F8E3
:10074000013B521EFBD1A142E6D3002030BD000088
:100750002DE9F04F00268FB0DFF8B081B146029648
:100760004FF48075012437460396284602F090F82E
:1007700038B1D8F80403204203D0284602F07EF8AE
:1007800026432D1D64007F1CADB2082FEDD34FF41E
:10079000BE74204602F07CF848B1204602F06EF8A4
:1007A00046F0004602AA0221002002F051F8584CFF
:1007B00016F0FF0F15D00127002537420DD008EBAA
:1007C0008501D1F81005D1F81015C0F3052054F8B3
:1007D0002520C1F3014102B190477F006D1C082D17
:1007E000EBD3002E7DDA0020CDF82890411E0DF1CC
:1007F000080B08AACDF82C9042F82010401C914616
:100800000228F9D300252E46A01910F8607F90F930
:10081000000027F0C008401C49D008A9404601F05C
:1008200060FA88B34FEA971A404600F031FE54F858
:1008300020701FB1BAF1030F03D00FE0BAF1030F1C
:1008400035D10AA84FEAD80208F00703815C4FF0BF
:10085000010C0CFA03FC41EA0C01815406A8CDF806
:10086000188001F099FF069900EB8100D0F800078D
:1008700002A9C0F301400690404601F032FA002878
:10088000069802D0022802D011E003280FD1BAF155
:10089000030F08D10698022832D00221404601F009
:1008A0004AFF6D1CEDB217B151464046B847761C61
:1008B000042EA9D3002D20D004AA0221002001F08B
:1008C000C7FF00205A4604A952F8206051F8203092
:1008D000B34217D000200AAE4FEA090351F8207046
:1008E00000E00AE042F8207056F8207043F82070CB
:1008F000401C0228F2D3002D84D10FB0BDE8F08F48
:100900000321CBE7401C0228DED3F6E7006000405D
:10091000AC02002000F01F0201219140400980003C
:1009200000F1E020C0F88012704700F01F020121A2
:1009300091404009800000F1E020C0F800117047AC
:1009400000F01F02012191404009800000F1E020E9
:10095000C0F8001270474907090E002806DA00F0B7
:100960000F0000F1E02080F8141D704700F1E02036
:1009700080F80014704700002DE9F0414FF48077B3
:10098000384601F0B6F90124104EA50748B13846A3
:1009900001F0B6F90120C5F808037470002000F0DA
:1009A0007FFD4FF48277384601F0A3F900280BD081
:1009B000384601F0A5F90220C5F80803B470BDE877
:1009C000F041012000F06CBDBDE8F08198020020EC
:1009D00007480021C0F84011C0F84411C0F8481180
:1009E000C0F84C11C0F80011C0F8041103F024B98C
:1009F000001001400149024800F00CBF1403002020
:100A00000030004003F06AB830B54FF0805000224B
:100A1000D0F830110123082902D1D0F8344114B1A3
:100A2000082909D00BE04FF08041C1F80C21C1F832
:100A3000102168490A6005E0D0F8344114B1082952
:100A400057D059E064490968644C21606249091D26
:100A50000968241D2160604908310968241D21604E
:100A60005D490C310968241D21605B49103109681A
:100A7000241D2160584914310968241D21605649FC
:100A800018310968554C2034216053491C310968DC
:100A9000241D2160504920310968241D21604E49E0
:100AA00024310968241D21604B4928310968241D1F
:100AB000216049492C310968241D216046493031A3
:100AC0000968464C40342160434934310968241D8B
:100AD0002160414938310968241D21603E493C317B
:100AE0000968241D21603C4940310968241D2160AA
:100AF00005E0D0F8344114B1082904D006E0394C9F
:100B00003749216005E0D0F8344114B1082904D0F8
:100B100006E0354CFB21216005E0D0F8344114B1EA
:100B2000082908D00AE090F858423048016864F378
:100B30000301016005E0D0F8344114B1082905D063
:100B40000EE02B494FF40070086002E0D0F8340149
:100B500030B928480168C90702D06FF0010101606F
:100B60002548016841F470010160BFF34F8FBFF366
:100B70006F8F4FF01021D1F80002002803DBD1F86D
:100B80000402002822DA1D4C23601D480368002B54
:100B9000FCD01223C1F800320568002DFCD0C1F84A
:100BA000043201680029FCD0226001680029FCD0D1
:100BB000BFF34F8F10487C380168124A01F4E0619E
:100BC00011430160BFF34F8F00BFFDE70F490E488F
:100BD000086030BD380500400404001020C5004006
:100BE000488103008C56004018F50040E40E004098
:100BF000409602400004004088ED00E004E501401A
:100C000000E401400400FA050090D0030801002030
:100C10000448017F04480029024901D003F057BB72
:100C200003F0C6BA3C0300200020004002E008C8E0
:100C3000121F08C1002AFAD170477047002001E056
:100C400001C1121F002AFBD17047022000F08AB9AF
:100C500070B50024064D06E06868012110F83400E4
:100C600001F05EF9641C28788442F5D3002070BD41
:100C700068000020F8B515460C460646052A01D244
:100C80000720F8BD01F02EFA18B901F0FDF900288F
:100C9000F7D1114900224E600C708D60C1E9042229
:100CA000C1E906220D4D0DE006EBC4006968009114
:100CB00081788DF801100078094A694601F07CF9C5
:100CC0000028DED1641EE4B2EED2BDE8F840054A49
:100CD0000021024800F050B868000020984500004C
:100CE000651600007515000002F050F801F0A8FE2E
:100CF0000028FBD1104C0121208801EB00400FA1FE
:100D000001F086FF10480068C00700D000BE2088B0
:100D1000022101EB00400DA101F07AFFBFF34F8FDC
:100D20000948E43801680D4A01F4E06111430160AB
:100D3000BFF34F8F00BFFDE754010020466174618F
:100D40006C206572726F7200F0ED00E0537973747D
:100D5000656D207265736574000000000400FA057B
:100D60000EB500210091CDE901106A4644F2010060
:100D7000FFF7BAFF0EBD0000074B9B7823B12AB1E5
:100D800020B10068037C1BB1082070470720704722
:100D900041744261002070477C03002070B502F06E
:100DA0004BFD104800240B21047044700E4D8170DF
:100DB00014206C602C706C70FFF7ACFD07211420C0
:100DC000FFF7C9FD1420FFF7B0FD084804600721B4
:100DD0001120FFF7C0FD0548001F0068A860002033
:100DE00070BD00007C030020880000200815014031
:100DF0002DE9F843DFF8709099F802305BB350B3F7
:100E0000052902D20720BDE8F88343691BB3437C60
:100E1000012B22D000270446002588461646284686
:100E200000F036F8684603F025FBC0B101210170DF
:100E30000E4944600968C0E90218C0E904769DF8CB
:100E4000000089F80100002000F024F81420FFF7CA
:100E500077FD2846D7E70820D5E70F46DBE70425CE
:100E6000002000F017F8F4E77C030020041501408F
:100E70000649897839B130B1416921B10021017445
:100E8000022102F0B9BE0820704700007C03002058
:100E900000F002B800F008B872B602480168491CB8
:100EA000016070479C00002003490868401E0860EC
:100EB00000D162B6704700009C00002070B5054666
:100EC00008680C46411C04D001F0A5FC206801F024
:100ED00028FC6068411C02D0002101F019FC28792F
:100EE0001F4901EB40102968007F0028A069C1F864
:100EF000240523D0607D227D29681043C1F86C054C
:100F0000D4E900122868C0F80C15C0F8142522E0B6
:100F1000A068411C02D0002101F0FAFBE068411CEE
:100F200004D001F078FCE06801F0FBFBD4E9021288
:100F30002868C0F80825C0F8101570BD607D217DB7
:100F40002A680843C2F86C05D4E900122868C0F882
:100F50001425C0F80C15207D0128D9D070BD0000E3
:100F60003C030020094908B5085C0090684601F080
:100F700005FCD0F80425009B0121994021EA0203D9
:100F8000C0F808351140C0F80C1508BD5C450000DC
:100F90000249085C012101F048BC00005C450000EA
:100FA0000249085C002101F040BC00005C450000E3
:100FB000084908B5085C0090684601F0DFFBD0F8EE
:100FC00004050099C84010F0010000D0012080F015
:100FD000010008BD5C4500007CB50024084E254694
:100FE0000122305D009500231146019501F03CFB84
:100FF000641C042CF4D3BDE87C4000F003B800006E
:101000005C45000010B500242046FFF7C1FF641CBA
:10101000042CF9D310BD10B500242046FFF7C0FF03
:10102000641C042CF9D310BD10B50246064B4FF0DA
:10103000FF3000215C5C944201D1084610BD491C80
:101040000429F7D310BD0000604500002DE9F047EA
:101050000D468146FFF7E8FF0446042836D2DFF844
:1010600074801B481C4EA8F10C0725B3012D0ED02F
:10107000022D2BD104EB440030444578002D25D0BF
:10108000B968002922D02846BDE8F047084704EB9C
:101090004401755C0E44717849B10E4A4FF4004129
:1010A000093A8068FFF7A4FE08B987F80390B17881
:1010B00008F80410E2E78068FFF7DAFE04EB440169
:1010C000314418F804008D78A842D7D0BDE8F087E5
:1010D00064450000600000206C02002010B50E285E
:1010E0000BD011280CD10749074802F089F80028D5
:1010F00006D0BDE81040FFF733BE02491439F3E7CC
:1011000010BD00003C000020C444000070B5002366
:10111000042810D20D4D00EB4004012A02D1012910
:101120000CD00022094E00EB4000304461B101298F
:1011300006D0022906D00723184670BD0E30C2B271
:101140002A55F9E74270F7E78270F5E76C02002054
:1011500070B506461E480024C0E90161B00720D5DD
:101160000025012211462846FFF7D0FF6D1C0446DA
:10117000042D02D2002CF4D013E094B940F2666240
:1011800004211448FFF776FD04000AD1FFF760FD43
:10119000040006D10F48104A0021001FFFF7ECFDA4
:1011A0000446F00701D0FFF717FF74B909480B4A4E
:1011B00000210C38FFF7E0FD040006D10548084A7D
:1011C00001210838FFF7D8FD0446204670BD000015
:1011D0005400002070450000251400001119000083
:1011E0004B0C00002DE9F05F6A4C05460026607844
:1011F000B34618B184F801B000F072FB664F4FF4AB
:101200007A694FF4C87A4FF00108182D62D2DFE8EE
:1012100005F0AC0C0C31404D62676B746B74BE7D95
:101220007D7D7D7DACAFB2B5BEBE0020FFF7C0FEB8
:1012300000284FF0000008D0FFF7AAFE022D02D1CF
:101240004FF4E16008E0484606E0FFF7A9FE022DF2
:1012500001D1C82000E05046410CC0034FF4FA729F
:10126000801841F10001257052000023FFF780F83B
:1012700001462AE00020FFF79BFE00284FF0000007
:1012800004D0FFF785FE4FF44870E5E7FFF788FECE
:10129000DFE70020FFF78CFE00284FF0000002D0AF
:1012A000FFF776FECFE7FFF77BFED4E70020FFF7DE
:1012B0007FFE00284FF0000002D0FFF769FE01E03A
:1012C000FFF76EFE257041F69A1100223868FFF78D
:1012D0008FFD064646E00020FFF744FE257008E03B
:1012E000002051E025703DE084F801800120FFF7E7
:1012F00039FE002240F6CD41E8E784F80180012064
:10130000FFF730FE00224FF48041DFE77868FFF7F7
:10131000AFFD0646D5F1110000D02EB10220FFF737
:1013200037FE84F802B01DE0012816D980B2C8212A
:101330004843C117C90341EA5041C0034FF4FA7250
:10134000801841F1000152000023FFF711F8014617
:1013500000227868FFF74CFD06460220FFF720FECA
:1013600084F802803046BDE8F09F00F0B9FAB9E792
:1013700000F0B6FAB4E700F0B3FA04E000F0B0FA17
:101380000020FFF70DFE0120FFF70AFEAAE7FFF796
:1013900042FEA7E754000020644500002DE9F0411B
:1013A000861C0C4601270020FFF772FD0F480168DC
:1013B0002160D0E90012891A82680446511AB51CCE
:1013C00007E000BF00F02AFBD4E90001401AA16841
:1013D000091A491C8D42F5D820683044206000204D
:1013E000FFF758FD3846BDE8F08100009405002065
:1013F00030B482680468531C8360A154D0E90112A0
:101400008A4202D330BC01F036B830BC70470000CD
:10141000034803C8814201D1012070470020704772
:101420009405002000780221FFF710BE05494FF017
:10143000FF32082841F8202002D3084480F85820C1
:1014400070470000AC020020F0B54FF0FF3512B13C
:101450000023082601E008230C260C4C05E000BF01
:1014600054F823707F1C04D05B1CB342F8D3284689
:10147000F0BD26185DB286F8305044F82310002ADB
:10148000F5D1E11881F85800F1E70000AC02002026
:101490000249084490F9300070470000AC02002077
:1014A00070B5084C050009D010342168002907D018
:1014B00008682060496828468847F6E70834F4E75A
:1014C00070BD0000980200202DE9F05F26484168B9
:1014D000F1B3DFF898B00E688146DBF8004087680A
:1014E0008078E11B21F07F45ED1CB0B9DFF88080EA
:1014F0004FF48030C8F84403C8F804031120FFF704
:1015000009FA1120FFF711FA4FF0010AC8F800A0FC
:101510002F2000F043FC89F802A0B54200D23546E6
:10152000124BE8193C3320F07F401860DBF80010C4
:101530005A46091B21F07F41001B20F07F40C91C47
:1015400081420FD9106818602F2000F027FC00E0BE
:1015500004E0BDE8F05F1120FFF7F2B9BDE8F05FED
:1015600002F06AB9BDE8F09F880000200415014030
:10157000001001402DE9F05F0025DFF8A48043E072
:101580006068002100EBC506012032789146FEF725
:1015900020FFD4E9062300EA020701EA030C57EA18
:1015A0000C072FD0C7433A408B434846C4E9062373
:1015B00000F062FD32784FF0000A81469346012028
:1015C0005146FEF706FFD4E9042300EA020401EACB
:1015D00003075A4648465146FEF7FBFE44404F403B
:1015E0003C430FD17078012815D0002289EA02000F
:1015F0008AEAE271084310D00020726812B1C1B2C9
:10160000584690476D1CEDB298F80000444685425C
:10161000B6D3BDE8F09F0122E8E70120EDE7000026
:10162000680000200E4910B50A784C780023A242C9
:1016300012D0521CD2B20A70022A00D10B70084A92
:101640000B780C3252F8232002608868104420F096
:101650007F408860012010BD0360002010BD0000A5
:10166000880000202DE9F04180460246012000213B
:10167000FEF7AFFE1A4F05460E463868FFF7F8FB37
:1016800000280CD1174CD4E9062110462A4001EA63
:1016900006031A4305D0A843B143C4E90601BDE8D7
:1016A000F081404600F0E8FC30B1D4E90401284361
:1016B0003143C4E9040105E0D4E90410A943B0436F
:1016C000C4E90410D4E9060128433143C4E9060102
:1016D000A1683868BDE8F0410022FFF789BB00002F
:1016E00098450000680000202DE9FC5F0E0083464D
:1016F000DDE90C47C6F1000098469246814600D4C9
:101700000846012503E000BF90FBFAF06D1C504530
:10171000FADAA84500D9454624B1002E01DB780746
:1017200000D5641EB80702D5B8F1000F0AD0F8073B
:1017300008D13CB1A54205D220215846641EFFF7CE
:1017400057FEF6E7002E02DA4E462D2102E078071A
:1017500003D52B215846FFF74BFE07F00300022864
:101760000BD1B8F1000F08D13CB1A54205D2302110
:101770005846641EFFF73CFEF6E7CDE900474346B6
:1017800052463146584602F01BFEBDE8FC9F0A68EF
:1017900090760968002048767047000070B50E46C4
:1017A0000446007918494FF4A27501EB4010017FFF
:1017B0002068A1B14FF4887101F046FD4FF490719B
:1017C000206801F041FD4FF49271206801F03CFD6A
:1017D0002946206801F038FD0C49206809E04FF4E3
:1017E0008E7101F020FD2946206801F01CFD08499A
:1017F0002068C0F80413206800F08FFB3146BDE874
:10180000704000F06EBB00003C030020100302009B
:10181000800002007FB50C46054691F8211094F82F
:101820002000CDE9000104F12602D11E2846E3691B
:1018300002F03FFB002823D194F8230008BB207B53
:10184000022801D003281CD12269E169914218D1F4
:101850006269E261E37B84F82030217E0328C1F3D2
:10186000401184F8211006D004B029462046BDE876
:10187000704002F0A7BA00912946204602F09EFB74
:101880007FBD04F10C0001AB07C883E8070094F8A2
:101890002300002168B1D5F8C404C5F8C404820748
:1018A00001D5012002E0400705D502208DF8000097
:1018B00001E08DF8001084F82410207E4007DFD46A
:1018C000D4E90021684690477FBD0268134602E0D4
:1018D0008A4204D01268002AFAD10B600160704776
:1018E0000A4810B5807860B1002401E0022C06D0CF
:1018F0002046FFF74DFB641C042CF7D310BD0324D6
:10190000F6E7BDE81040FFF77DBB00005400002063
:1019100003480179C90702D00078FFF763BC70471C
:10192000540000202DE9F047394E002780463D46FF
:10193000DFF8E090D6F804A057E003D00446D0F8D2
:101940001C8035E099F8002002EB4201521CD2B213
:1019500089F8002009EBC10199F80230091D9A426B
:1019600001D189F8005048680A780446012A12D04B
:10197000022A02D0032A3BD108E002F00DF900B19F
:101980000127257434E00574C06900E07068002800
:10199000F9D170602CE0207C50BB88686060C8681A
:1019A000A0600869E0604869A061F07800B16560F6
:1019B0006268B168184B501A20F07F40984202D2FA
:1019C000A168084406E0881AA16820F07F4081429F
:1019D00002D9081A206000E0256065600120A5603A
:1019E00020742046E56102F0B9F8B8F10000A4D1F6
:1019F00099F8001099F801008142A3D117B97168D4
:101A0000514502D00120BDE8F0870020FBE700002F
:101A1000880000207C030020FFFF7F0070B588B0A5
:101A2000214800F00BF92048001F064600F006F997
:101A30001E4DD5E9014105E0C0F3891202EB90503B
:101A4000641C044404EA010005EB8000C0688207BE
:101A5000F2D000200DF1080204EA010305EB830334
:101A6000641CDB6842F82030401C0228F4D3029842
:101A700000F00300012808D002280AD102980321AF
:101A800001EB905004EB900403E00298C0F3831044
:101A900004443046002101AAFEF723FC002800D0B0
:101AA0006C6008B070BD0000AC09002094050020F7
:101AB0001FB5FFF791FA00F0B7F908B1FFF750F939
:101AC000002000F0D3F9FFF769F908B1FFF748F9F2
:101AD00024490220FFF73CFB08B1FFF741F901F070
:101AE00033FA08B1FFF73CF9002001F009F908B119
:101AF000FFF736F900F096FF1B481321008841EAF2
:101B000000401AA101F084F800F09AFF0028FBD1F0
:101B10001C4B0FCB8DE80F001A486946103801F0B6
:101B20001DFB08B1FFF71CF901F024FE1548002346
:101B300001221549103801F031FB08B1FFF710F907
:101B40001048002301221149103801F027FB08B189
:101B5000FFF706F901F00CFA00F072FF0028FBD144
:101B6000F8E70000DD100000540100200D0A545772
:101B700049206D6173746572206578616D706C6564
:101B80000D0A0000D4440000A444000054450000A5
:101B90002DE9F047C7880446181D16468946B0FB54
:101BA000F7F1B0FBF7F207FB12009A193A44D21C86
:101BB000B2FBF7F2DDF820A001E02468491E0029FD
:101BC000FBD13D1A8846B54216D818E0BAF1000F8D
:101BD00005D0211809EB08002A46091D04E020441D
:101BE00009EB08012A46001DFEF706FC00202468C8
:101BF000761BA844B74201D9354600E03D46002E89
:101C0000E4D1BDE8F087000030B5024669B101F0CB
:101C1000A5F80021084C0BE001EB410304EB830322
:101C200015685B88AB4202D11160002030BD491CB1
:101C30008142F1D3052030BD0C01002008B50121FF
:101C40006A46FEF741FB009808BD70B504460025C2
:101C50002846FFF71DF921686268086890420ED98E
:101C6000401E08600178238AE26801FB0325227A7E
:101C70002168101AC0B20A79824200D2087100208D
:101C8000FFF708F9284670BD70B505460C460020E0
:101C9000FFF7FEF8E868298A201AB0FBF1F12A68FC
:101CA0001068431C13600170BDE870400020FFF70E
:101CB000F1B810B530B1017A42680368891AC9B227
:101CC0001A6006E00E2010BD03681A68541C1C60E0
:101CD0001170491EC9B2F7D200680021017108468F
:101CE00010BDC20800F007030120895C984008403D
:101CF000704700F180400068002800D00120704744
:101D000008B500F18040002101600068009008BD26
:101D100000283ED01F49204A096800BF00BF00BF0D
:101D200000BF00BF00BF00BF00BF91422FD000BF67
:101D300000BF00BF00BF00BF00BF00BF00BF00BFAB
:101D400000BF00BF00BF00BF00BF00BF00BF00BF9B
:101D500000BF00BF00BF00BF00BF00BF00BF00BF8B
:101D600000BF00BF00BF00BF00BF00BF00BF00BF7B
:101D700000BF00BF00BF00BF00BF00BF00BF00BF6B
:101D800000BF00BF00BF00BF00BF00BF00BF0138E1
:101D9000C3D17047080100200024F40000283ED081
:101DA0001F49204A096800BF00BF00BF00BF00BF35
:101DB00000BF00BF00BF91422FD000BF00BF00BFD7
:101DC00000BF00BF00BF00BF00BF00BF00BF00BF1B
:101DD00000BF00BF00BF00BF00BF00BF00BF00BF0B
:101DE00000BF00BF00BF00BF00BF00BF00BF00BFFB
:101DF00000BF00BF00BF00BF00BF00BF00BF00BFEB
:101E000000BF00BF00BF00BF00BF00BF00BF00BFDA
:101E100000BF00BF00BF00BF00BF0138C3D1704783
:101E2000080100200024F40070B50E4C0025207835
:101E300008B1852513E00021A16061602161E160A6
:101E40004FF0E020D0F80001012610F0010F03D17F
:101E50000721002000F045F8034806602670284658
:101E600070BD0000980200201805004070B5154DA7
:101E70000446A87838B114B1616801208847002071
:101E8000FFF706F815E00020FFF702F824B10D482F
:101E900021461030FFF719FDE86850B94FF4827001
:101EA000FFF72EFF02204107C1F804030649012075
:101EB0000860E868401CE860BDE870400020FEF75C
:101EC000E9BF0000980200200800004000F01F0257
:101ED000012191404009800000F1E020C0F880110C
:101EE00070474907090E002806DA00F00F0202F1D8
:101EF000E02282F8141D03E000F1E02282F80014D1
:101F000000F01F02012191404009800000F1E02013
:101F1000C0F88012C0F800117047000B40B2704743
:101F20002DE9F0410E46804601F094F9204D00283D
:101F3000404616D0FFF7ACFA284490F858008009C4
:101F4000032802D001280AD003E0404600F04EFCEE
:101F500028B103214046BDE8F04100F0ECBB02216E
:101F6000F8E701F083F9002820D04046FFF790FA07
:101F70000446104F4FF4807007EB840100EB84009F
:101F8000D1F8102580B242F00102C1F8102500F00E
:101F900075FC002E0AD04046FFF77AFA55F820006B
:101FA000002803D00120A040C7F80403BDE8F08159
:101FB000AC020020006000402DE9FC41DFF8AC805D
:101FC000044608EB0400002790F930001346C017C0
:101FD0000E46401C01D0082744E0F27819462046FE
:101FE000FFF732FA0546401C3BD0B07868B168462E
:101FF000009400F0D1FB009900EB8100D0F80017AD
:1020000021F00201C0F8001707E000217378204694
:1020100000910A46019100F040FBF078C0B11448ED
:10202000317800EB8500D0F81025124B1A40C0F82B
:1020300010254FF47C524FF4403302EA042203EAA5
:1020400001410A43D0F810150A43C0F8102509E0F1
:1020500008EB0500327810F8581F41EA8211017030
:1020600000E004273846BDE8FC810000AC020020F7
:1020700000600040FFC0FCFF10B500F0B7FB002877
:1020800000D0012010BD000070B5144D95F864001B
:1020900008B1082070BD0020411E2A18401CC0B2A3
:1020A00082F830103028F8D300242046FFF7BEF91C
:1020B000641CE4B20C2CF8D307210620FFF711FFB3
:1020C0004FF4BE7000F0DAFB05494FF00040C1F854
:1020D0000403012085F86400002070BDAC020020DC
:1020E00000600040034890F86400002800D0012000
:1020F00070470000AC0200200121B1EB507F01D1FC
:10210000012070470020704701790A4A01EB8101E4
:10211000006802EBC1024FF0FF31C0F80813D0F89D
:1021200000120021C0F80012C0F80015012082F84A
:1021300022007047140300200179064A01EB810157
:10214000006802EBC1010522C0F80025022081F8D9
:10215000220070471403002070B506460D46007932
:102160001F4900EB800001EBC00494F8220008B185
:10217000082070BD0020C4E90023A06084F8250079
:1021800084F82400A87B84F82700687B10B12846D7
:1021900001F099FD296840F20C60890001F1A0412D
:1021A000C1F800076968890001F1A041C1F8000782
:1021B000D5E900123068C0F80815C0F80C25A968E8
:1021C000C0F82415206828B13068297B000B40B284
:1021D000FFF787FE012084F82200002070BD000078
:1021E0001403002010B503460079184900EB800065
:1021F00001EBC004206860B11868000B41B201F027
:102200001F02012090404909890001F1E021C1F835
:1022100080011846FFF778FF94F8270088B91968FD
:1022200040F20230D1F80815890001F1A041C1F84F
:1022300000071968D1F80C15890001F1A041C1F817
:102240000007002084F8220010BD000014030020C5
:1022500030B40379084C03EB830304EBC304930706
:1022600002D030BC06207047006813460A4601467B
:10227000204630BC01F00ABF140300202DE9F041D4
:1022800005460079164F904607EB40140E46E07E57
:1022900010B10820BDE8F081707F20772846FEF756
:1022A0000DFE5FEA080060603169216003D0317F74
:1022B0002846FFF773FA287907EB4010007F0028C3
:1022C000286801D0082100E00421C0F80015002092
:1022D000E0752076A0750121E176A076DAE70000AE
:1022E0003C0300202DE9F047054600793F4E90461B
:1022F00006EB40140F46207F18B10846FFF7FCFE9E
:1023000030B1284600F074F820B11120BDE8F08704
:102310001020FBE784F81680A7600027A7822879A1
:102320004FF0010806EB40143E46207F0028286845
:1023300025D04FF49079494600F086FF4FF4AC7AEF
:102340005146286800F080FF2868A17DA268C0F887
:102350004425C0F848152868C0F808806068F0B9BE
:102360004946286800F06BFF80465146286800F017
:1023700066FF58EA0001F3D058BBA7750FE04FF491
:102380008E7A514600F04FFF2868C0F80880214639
:10239000286801F0C1FE61684FF4807089B1304651
:1023A000B4E75146286800F039FF10B9A08A4845C3
:1023B000F7D1A08A484505D02146286801F0ACFE37
:1023C00000E08146A08AA17D8842EAD3A08A4845E0
:1023D00001D10F26D1E75146286800F01FFF0028E1
:1023E000F9D02868C0F80C80C7E700003C03002043
:1023F0000079044901EB4010807D002800D00120C5
:10240000704700003C03002070B504460079114974
:10241000002601EB401520682A7FC0F80065686837
:1024200088B1207901EB4010007F0028206801D09E
:10243000094901E008498C39C0F808132068FFF702
:102440006CFDFFF743FD204600F01CFFEE766E604A
:1024500070BD00003C030020100302000FB408B55B
:102460000399002904D004AA00926A4600F00FF8EC
:1024700001B05DF814FB10B582680446002A05D04F
:10248000D4E90403216898470020A06010BD2DE91D
:10249000FC4791460C00804676D014F8011B39B1F8
:1024A00025290ED04046FEF7A3FF20780028F4D15E
:1024B00098F80C00002867D04046BDE8FC47FFF7BD
:1024C000DABF0020012221782B291BD02D2902D030
:1024D000302908D102E040F0010001E040F00200A4
:1024E000641C002AEFD100252A290ED02178A1F101
:1024F00030020A2A11D205EB850201EB4205641C69
:10250000303DF1E740F00400EAE7D9F800100B1D78
:10251000C9F800300968641C0D44217800232E2975
:102520000BD114F8011FA1F130020A2A05D203EBE6
:10253000830201EB4203303BF3E76C290DD068299D
:102540000BD0692921D00BDC252918D0582931D08E
:1025500063290ED0642915D117E014F8011FECE7A8
:10256000702969D0732932D075291BD0782909D1F7
:1025700020E0D9F80000011DC9F80010017840469C
:10258000FEF736FF641C90E76CE0D9F800100A1DD6
:10259000C9F800200968CDE900500A224046FFF73B
:1025A000A3F8EFE7D9F800100A1DC9F80020096860
:1025B0000A2206E0D9F800100A1DC9F800200968AF
:1025C0001022CDE90050404601F0FAFEDAE7D9F8D2
:1025D000001000270A1DC9F800200E68C00705D1A9
:1025E00012E04046761C7F1CFEF702FF317800297E
:1025F000F7D104E0202140466D1EFEF7F9FEBD42F2
:10260000C0D9002DF6D1BDE74EB13046FDF718FF19
:10261000074604E0202140466D1EFEF7E9FEBD425C
:1026200006D9002DF6D103E04046761CFEF7E0FE09
:1026300031780029F8D1A5E7D9F80000011DC9F8C3
:102640000010056830214046FEF7D2FE7821404652
:10265000FEF7CEFE08200021CDE90001034610223E
:102660002946B0E7BDE8FC872DE9FF411C46DDE9BE
:102670000A7815460E46684600F080F846EA45019D
:1026800041EA840141EA072242EA0841009A00EB4C
:102690008200C0F80017BDE8FF812DE9FF411C460C
:1026A000DDE90A7815460E46684600F075F846EAF8
:1026B000450141EA840141EA072242EA0841009AC1
:1026C00000EB8200C0F80017BDE8FF812DE9FF4153
:1026D0001C46DDE90A7815460E46684600F078F893
:1026E00046EA450141EA840141EA072242EA0841FB
:1026F000009A00EB8200C0F80017BDE8FF811CB50E
:10270000002100910B4601220191FFF7DFFF1CBD64
:102710001CB500220B46009211460192FFF7D6FF2E
:102720001CBD1CB5002100910B46012201911146F0
:10273000FFF7CCFF1CBD13B50C46684600F02CF823
:10274000009900EB8101D1F8002722F44032C1F852
:102750000027009900EB8100D0F8001741EA0441FE
:10276000C0F800171CBD01B5684600F023F8009AB8
:1027700001219140C0F80C1508BD00000168202916
:1027800002D24FF0A040704701F01F0101600148E4
:1027900070470000000300500168202902D24FF06A
:1027A000A040704701F01F01016001487047000020
:1027B000000300500168202902D24FF0A04070476A
:1027C00001F01F0101600148704700000003005044
:1027D0000168202902D24FF0A040704701F01F018C
:1027E00001600148704700000003005001B56846D1
:1027F000FFF7D2FFD0F810050099C84000F00100A3
:1028000008BD01B56846FFF7D5FF009A0121914048
:10281000C0F8081508BD01B56846FFF7D9FF009A52
:1028200001219140C0F8081508BD38B50124009079
:10283000684631B1FFF7A2FF00998C40C0F8084507
:1028400038BDFFF79BFF00998C40C0F80C4538BDA0
:102850001CB5094C0144D4E90034CDE900346C4680
:1028600006E000BF54F82030D3F81035401C08C2F1
:102870008142F7D81CBD000090450000034908B50F
:102880000844002101600068009008BD006000401D
:1028900002494058012800D00020704700600040E5
:1028A00030B5124B01460020D3F81044224609E00F
:1028B000157A854205D1401C0A28F7DB4FF0FF301E
:1028C00030BD5268002AF3D1421CF9D00872D3F807
:1028D00010242AB152684A60D3F81024516030BDE8
:1028E0000022C3F810144A6030BD00009405002097
:1028F000F0B595B01C4615460F4608461A9E00F0E6
:10290000FDFA182109A8FDF790FD0E96CDE90954AE
:102910000023082203A9384600F00AFB0598069018
:102920000498ADF81C0000208DF8200003980826BC
:1029300000F00300012802D002281DD03CE00398DB
:102940003346850AC0F3C2008DF81E0003980FA914
:10295000C0F380008DF81F000398C0F38314A20019
:10296000384600F0E5FA09A8009006AB22460FA908
:10297000284600F01FFA1FE00398840DC0F3C20040
:102980008DF81E000398C0F380008DF81F00082CFE
:1029900001D2254600E0082533462A460FA93846CD
:1029A00000F0C6FA2E44641B09AB06AA29460FA8FC
:1029B00000F050F9002CEAD1384600F0A8FA15B022
:1029C000F0BD7047012001F0CBBB000010B50448FA
:1029D000FFF71AFDBDE81040002001F0C1BB000068
:1029E000AC00002008B5034A00924023024AFFF7DA
:1029F0007FFF08BDC138000094040020084A012967
:102A000002EBC00005D0022903D0032903D004291A
:102A100003D000207047007970474079704700006C
:102A20006C47000010B5FFF7CDFF04210348FFF706
:102A300037FF02490120487210BD0000B400002099
:102A40002DE9FE4FFEF7E4FC10B10020BDE8FE8F3B
:102A50006D480021C0F81814BFF34F8FD0E901462C
:102A600004EA060100EB81014FF000090AE000BF13
:102A7000C1F3891202EB9151641C0C4404EA060173
:102A800000EB8101C9688A07F2D000216A468046BE
:102A900004EA060308EB8300641CC06842F82100C6
:102AA000491C0229F4D3009800F00300022802D048
:102AB00001284DD0A2E000985022810D8A46B2EB49
:102AC000905F00D850210D4665F39F50009008316B
:102AD0004E4800F0CAF9070077D000F00FFA4B46D5
:102AE00008226946384600F029FA04EA0600311A3D
:102AF0008900091D09F1080B8D4222D9424E0C367E
:102B000031B1CAB208EB8000691A91460C3004E07A
:102B10003046EAB2002691463146CDB201465B46C8
:102B2000384600F00BFA0BEB09032EB12A4631466A
:102B30004FEA070000F002FA0AF1030004EB9004E8
:102B40003AE008EB80015B462A4638460C31F1E753
:102B50000098C0F38310062800D30620009960F384
:102B60008911C1F38310801C00918100274800F077
:102B70007CF9070042D000F0C1F94B4608226946B3
:102B8000384600F0DBF909F1080900250EE000BF26
:102B900004EA060008EB80014B46042238460C315B
:102BA000641C00F0CBF909F104096D1C0098C0F316
:102BB0008310A842ECD847B1D8F81054D8F81804BC
:102BC000464660B1384600F0A2F917E0687A01285D
:102BD00004D12A6828463946126890476D68002D4E
:102BE000F4D1384600F093F90020FEF751F9D6F8F9
:102BF000180400B974600020FEF74CF9FEF708FCD9
:102C000080F0010022E70000940500201446000037
:102C100000231A4600F006BF08B5012300926A4659
:102C200000F000FF08BD3EB5069C8DE81C000323A4
:102C30006A4600F0F7FE3EBDF0B587B00DF1300CEE
:102C40009CE8F0008DE8FC0006236A4600F0EAFEEE
:102C500007B0F0BD2DE9F0470E4680461C4692466F
:102C600008293ED894F80C9000202073194610468D
:102C700000F062FB0025B54206D218F805201AA123
:102C80002046FFF7EBFB03E019A12046FFF7E6FB28
:102C90006D1C082DEFD317A12046FFF7DFFB0025A1
:102CA000B54210D218F80570FDF7A2FB0068C05DB0
:102CB00010F03E0F01D03A4600E02E220EA1204631
:102CC000FFF7CCFB03E00DA12046FFF7C7FB6D1C0F
:102CD000082DE5D301222146504600F00FFB84F871
:102CE0000C90BDE8F087000020253032780000000D
:102CF000202020007C000000256300002000000050
:102D0000114810B5FF218160002101604160C0F8C9
:102D10001814C0F8141480F81C140C4800F0F5F8CE
:102D200000280FD10A480B490B4B401AC10800205C
:102D300005E000BF00EB400223F82200401C88425F
:102D4000F8D3002010BD00009405002014460000B8
:102D5000A44700006C4700000C0100200248034912
:102D6000401AC00870470000A44700006C470000EC
:102D700013B56846FEF748FF08B100201CBD0248A5
:102D8000009950F831001CBD6C47000070B5084830
:102D90000125D0F8104480F81C5405E065722168C4
:102DA0002046496888476468002CF7D170BD000050
:102DB000940500202DE9FF4781460C9D00200C461C
:102DC0002F7B2873984616462946184600F0B4FA19
:102DD000072E42D2DFE806F004090F161F2A36003C
:102DE00049462846FFF73AFB37E04946284622681D
:102DF000FFF734FB31E0D4E9002349462846FFF7CA
:102E00002DFB2AE0A0680090D4E90023494628461B
:102E1000FFF724FB21E0D4E90201CDE90001D4E968
:102E2000002349462846FFF719FB16E004F1080085
:102E300007C88DE80700D4E9002349462846FFF774
:102E40000DFB0AE004F108000FC88DE80F00D4E97B
:102E5000002349462846FFF701FB00222946404649
:102E600000F04CFA2F73BDE8FF872DE9F041058A89
:102E700080462D1F4819C01CB0FBF5F0C6B2404675
:102E8000FEF7E3FE041E19D00020207101206071BE
:102E9000E58000272546761EC4F800800BE04046FA
:102EA000FEF7D3FE60B16179491C61712860054667
:102EB0007F1CC0F80080B742F1D32046BDE8F08106
:102EC000204600F002F80020F8E72DE9F0414579AE
:102ED00001466B1E002201E00968521C9A42FBD396
:102EE0000F680146002605E038460C68FEF7CCFE68
:102EF0002146761CAE42F7D3BDE8F08108B501212A
:102F00006A46001DFDF7B9F908BDFEF7D2BE38B517
:102F10000446001D01216A46FDF7BCF9009810F037
:102F2000FF0F04D12046BDE83840FFF7CEBF38BDC3
:102F300038B501240094FEF72BFE38BD38B50024C7
:102F40000094FEF725FE38BD064910B500204870F4
:102F5000091D0860BFF35F8F0349044800F0DBF8E8
:102F6000002010BDA0000020C845000088040020FB
:102F700010B50020FDF78CFFF1EE100A20F09F0045
:102F8000E1EE100ABFF35F8F05494020C1F88002CF
:102F90000020FDF77FFF20BF40BF20BF10BD000015
:102FA00004E000E02DE9F0410446002790460E467B
:102FB0003846FDF76DFF204600F038F830B10527A0
:102FC0000020FDF767FF3846BDE8F08120680568FE
:102FD000B8F1000F05D10168204600F03FF82168E4
:102FE0000860E268012A0CD0022A0ED0042A11D00F
:102FF0006068082A13D005FB02013046FDF7FCF992
:10300000DEE76068405D3070DAE7606830F8150030
:103010003080D5E7606850F825003060D0E700EBDD
:10302000C500D0E90010C6E90010C9E701680868CA
:103030004968884201D1012070470020704701682B
:103040000A6849688068884201D9491C00E000216B
:10305000914201D10120704700207047806888426A
:1030600001D9481C7047002070472DE9F041044603
:103070004FF000080E464046FDF70AFF2046FFF7D6
:10308000DEFF070009D0207C38B14FF00408002093
:10309000FDF700FF4046BDE8F081206845684168C3
:1030A0002046FFF7DBFF2168486037B120680168E0
:1030B0002046FFF7D3FF21680860E268012A14D098
:1030C000022A16D0042A19D0082A1CD0606831467A
:1030D00005FB0200FDF790F9204600F05BF921683E
:1030E0008A688242D3D28860D1E7616830784855D7
:1030F000F2E76168308821F81500EDE76168306813
:1031000041F82500E8E7D6E90001626802EBC50254
:10311000C2E90001E0E7016009684160AFF30080A7
:1031200010B5D0E900215368994201D1002104E093
:10313000D1E90034A34202D01946816010BD0831A4
:103140004160F0E74058002800D00120704708B5E2
:10315000002242504058009008BD000070B504465F
:10316000034608300D460C4A0646FEF7F5FF0028D8
:1031700010D13046FEF7E0FF216800204876216834
:1031800008602ECD2068001D80E82E002068011DFB
:103190004161002070BD00006B3D0000F0B50446A9
:1031A00085B01D4616460F460020FDF771FE2068CB
:1031B000417E29B10020FDF76DFE112005B0F0BD64
:1031C000012141760020FDF765FE14220B49684677
:1031D000FDF712F9CDE901478DF80C6069462046EC
:1031E00000F00EF80028E9D101E005B1A8472068F9
:1031F000407E0028F9D12068807EDFE7D4450000BA
:1032000073B50546406801A9FFF72FFF040003D1FD
:103210000021284600F068FB20467CBD405800286D
:1032200000D00120704708B500224250405800905D
:1032300008BDD0F80403084000D001207047405872
:10324000002800D00120704708B5002242504058A5
:10325000009008BD0449084490F93000082801DBBB
:103260000120704700207047AC0200200449084448
:1032700090F93000082801D20120704700207047E3
:10328000AC02002070B5034600791B4901EB4010E9
:103290001968027F4FF0FF30002AD1F80C25D1F8D1
:1032A0001465D1F80855D1F8104504D0C1F80C05C3
:1032B000C1F8140503E0C1F81405C1F80C0519683C
:1032C000C1F80805C1F81005501C02D01046FFF7E0
:1032D00016FA701C02D03046FFF711FA601C02D0BB
:1032E0002046FFF70CFA681C04D02846BDE8704061
:1032F000FFF705BA70BD00003C03002010B50C4676
:10330000C17949B11AB109A12046FFF7A7F82046B3
:10331000BDE81040FFF7AFB8007A0028F3D00448AA
:1033200004A102682046FFF799F8ECE70D0A0000B7
:10333000E40000202573000070B50446C0790D46F6
:1033400000281CD1207A50B1A179A088FFF756FB44
:103350000B4951F820200BA12846FFF77FF8A088E1
:103360000021FFF705FD03460549A079143951F8FE
:1033700020202846BDE8704003A1FFF76FB870BD5C
:10338000E4000020257300003C25733E2025733A9D
:103390002000000001680A684968914201D3881A38
:1033A00070478068801A0844401C70472DE9F04F30
:1033B0002DED068B85B070B1C5490222098805B094
:1033C00002EB0143BDEC068B0246C2A11846BDE8E4
:1033D000F04FFFF721BCC54CC54904F1020E22781D
:1033E000BEF8003002EB420001EB400170460D8850
:1033F00045F30A055B1B0FFA83F8AEF800808D7861
:10340000BEF8023045F305055B1B1BB2AEF8023077
:103410009946CD78BEF8043045F305055B1B1BB219
:1034200083809A460D79C38845F305055B1BB04D33
:103430001BB26035AEF8063095F800C06F789B4639
:10344000AE78EB78287947EA0C276D797F090F80F1
:10345000770606D4B60076B2F71706EB9776B61065
:103460008E705E0606D49B005BB2DE1703EB96738C
:103470009B10CB70430606D4800040B2C31700EB0C
:10348000937080100871680600D565780888521C12
:1034900040F30A00404400B2AEF800008F7847F3D2
:1034A000050709EB070636B2AEF80260CF78B146E1
:1034B00047F305070AEB070636B2AEF80460097950
:1034C000B04641F3050159440EB2D1B2AEF80660E0
:1034D0002170102902D30021217005E021B161780B
:1034E00000297DD0A9427BD005F01C01042947D0DA
:1034F000082947D0142947D0182947D07DA700BFF5
:10350000FDF724F882469FED7C8B009153EC182B3D
:10351000FCF7AAFF9FED7A9B53EC192BFCF7A4FF55
:10352000FDF725F800EE100A009953EC182BB5EEC4
:10353000C00AF1EE10FA41EC10AB51EC100B27DD94
:10354000FCF792FF53EC192BFCF78EFFFDF70FF8F9
:1035500000990AEE100A41EC10AB53EC182B51EC19
:10356000100BFCF781FF53EC192BFCF77DFFFCF7E8
:10357000FEFF00EE100ABDEEC00AB8EEC00A26E05B
:1035800061A7BDE762A7BBE763A7B9E764A7B7E791
:10359000FCF76AFF53EC192BFCF766FFFCF7E7FF1B
:1035A00000EE100A009953EC182BBDEEC00AB8EEDD
:1035B000C0AA41EC10AB51EC100BFCF755FF53ECDB
:1035C000192BFCF751FFFCF7D2FF00EE100A3AEE80
:1035D000400ADFED540A20EE200ABDEEC0AA00E04A
:1035E00070E0009953EC182B41EC10AB51EC100B30
:1035F000FCF73AFF53EC192BFCF736FFFCF7B7FF4B
:1036000000EE100A009953EC182BBDEEC00A10EE24
:1036100010BA41EC10AB51EC100BFCF725FF53EC4A
:10362000192BFCF721FFFCF7A2FF00EE100AB5EE04
:10363000C00AF1EE10FA13D2009953EC182B41ECAA
:1036400010AB51EC100BFCF70FFF53EC192BFCF7F0
:103650000BFFFCF78CFF10F1814F01D232A200E08A
:103660002AA2F31706EB13734FEAE87608EB1671FC
:103670004FEAE97609EB16700DF1040A1B110911E6
:1036800000118DED00AA124E8AE80B0031884FF030
:10369000130848EA01405B4624A1FFF7CDFA28064B
:1036A00001D52DA000E019A00090A80601D52CA3FB
:1036B00000E016A331883A4648EA01402AA1FFF704
:1036C000B2FA657005B0BDEC068BBDE8F08F000066
:1036D00054010020726561645F616C6C5F636220FD
:1036E0002D206572726F723A202564000800002058
:1036F000800100203F000000000000000000C03FEB
:10370000000000000000B03F4C454654000000009F
:103710005249474854000000444F574E00000000F3
:10372000555000000000C8422D00000054656D7027
:103730003A20257325642E25303264207C20583AA7
:10374000202533642C20593A202533642C205A3A02
:103750002025336420000000205348414B450000E1
:1037600020544150000000007C20257325732573F0
:103770000D0A000010B50B4A01210B48FDF7FCFAB9
:1037800008B1FDF7EDFA0848002240F266610068D2
:10379000FDF72EFB002803D0BDE81040FDF7E0BA8E
:1037A00010BD0000B93A0000C0440000002809D054
:1037B00005490222098802EB0143024603A118468B
:1037C000FFF72ABA70470000540100207265616457
:1037D0005F6C6D3735625F726567697374657273AC
:1037E0005F6362202D206572726F723A202564003B
:1037F000002809D005490222098802EB014302464C
:1038000003A11846FFF708BA7047000054010020D2
:10381000726561645F6D6D61373636305F72656702
:103820006973746572735F6362202D206572726FB5
:10383000723A20256400000070B5012670044FF034
:10384000E0210025C1F88001084C4010C4F848036D
:10385000C4F8080366602F20FEF7A0FAA660044CA7
:103860002F20A560FEF79AFAA57070BD00100140E8
:103870008800002070B50546C87D0C4600284FF42E
:10388000847128460AD0FFF7CEFCD5F81805627E71
:10389000E1688854607E401C607670BDFFF7C3FC11
:1038A000D5F8180570BD1FB501238DF800308DF8CF
:1038B00008100192D0E90012684690471FBD000031
:1038C00010B5084C0020D2B22070201DFEF70AFD72
:1038D00008B1FDF745FA6078002802D02178002968
:1038E000FAD010BDA80000202DE9F041054604687B
:1038F0000F460020FDF7CCFA00263FB92868006883
:1039000020B1BDE8F0410020FDF7C4BA00222146F5
:103910006868FFF747FB08B12660F2E70020FDF773
:10392000B9FA2068006918B32068016910220F46AF
:103930006069FCF78CFD70B105F108008046FEF768
:1039400051FC2B460C4A39464046FEF705FC4046E2
:10395000FEF7F2FB67612676284600F00FF80100BB
:1039600008D0284600F0A2F90020FDF791FACDE733
:10397000211DDBE7BDE8F0816B3D0000FEB501686D
:103980000B7E0A68926802EBC302547964088DF8D2
:1039900001401468019414798DF802409479E40789
:1039A0002CD05479E50729D10D682E7B5D1CAE42E1
:1039B00024D90D680D2606EBC306AD68AD5D6D0814
:1039C000B5EB540F1AD10A68082404EBC3039268BC
:1039D0001A441368029313798DF803305379DB0787
:1039E00001D0022300E003238DF800309279D20742
:1039F00000D020220B7E5B1C0B760EE0517901F08B
:103A000001018DF80010002102918DF803109179C9
:103A1000C90701D0202200E0002269460830FEF7E5
:103A200017FCFEBD2DE9F843224C88460546914619
:103A30001F4669461846A668FDF7B0FC88B3009893
:103A400000EA060104EB810252F80C1F21F0030189
:103A5000491C401C11605FEAC56C02D541F00401AD
:103A600001E021F0040165F3C50167F3891168F3F2
:103A70009F21116000EA0602290C04EB8202401C1F
:103A8000D160009000200AE0009959F8203001EA46
:103A9000060204EB8202491CD360401C0091B8422C
:103AA000F2D394F81C0401E0FEF7CAFF0028FBD112
:103AB000BDE8F8839405002010B506490648FFF7D5
:103AC0009FFB08B1FDF74CF9BDE810400320FDF75E
:103AD00049BA000014000020C44400002DE9F84F4A
:103AE0001D4C00256846D4E901A6FDF79BFD002783
:103AF00038B30023009A61681CE0D1F800C0084682
:103B0000944503D9ACEB02020A6015E0A2EB0C026B
:103B100063440760D0F80CC0C1698146BCF1000F56
:103B200008D006EB030828F07F48C0E9018CC9F8EB
:103B30001C5005460029E0D128466160FDF7F2FEE1
:103B400003E02846FDF7EEFE10B15046FDF7BCFC41
:103B5000E770BDE8F88F0000880000200D4B10B51D
:103B6000596831B102680C68A24204D8A21A0A60EE
:103B7000C161586010BD0B4603E00B46C969121BBA
:103B800021B10C689442F8D3A41A0C600260C161A0
:103B9000D86110BD880000202DE9F041144E7768EF
:103BA0003D462C4603E0844204D02546E469002CBF
:103BB000F9D11BE0D4B1A5420BD1F869706040B9CE
:103BC0000C49012088600021B160F0702F20FEF7C1
:103BD000E5F82168E069E86110B10268114401600C
:103BE0007068874202D00120BDE8F0810020FBE729
:103BF0008800002000100140F8B5064600240D465C
:103C00002046FDF745F9684600F034FC68B10570C0
:103C1000084946609DF8000048700020FDF73AF919
:103C20001420FCF78DFE2046F8BD04240020FDF78B
:103C300031F9F8E77C0300202DE9F041194D6C685B
:103C4000002C2CD0184800270068A968B846401AF4
:103C500020F07F462068B0420CD82146361A07442F
:103C6000E469087C20B181F8108088694969884737
:103C7000002CEFD129786878814206D1401CC0B26F
:103C80006870022801D185F80180064869780C30F7
:103C900040F82170BDE8F0411420FCF751BEBDE8AA
:103CA000F0810000880000200415014000680B46E8
:103CB00001680968002905D0016800684968026840
:103CC00018461047704738B5044640F20C6021682A
:103CD000890001F1A041C1F800076168890001F184
:103CE000A041C1F800072068FEF78BFD6068FEF771
:103CF00088FD216840F20D60890001F1A041C1F802
:103D000000076168890001F1A041C1F800070420A3
:103D1000FDF7FEFF0025606800906846FEF74AFD4B
:103D2000D0F810050099C84010F0010F02D0002D06
:103D30001AD00EE02068FEF716FD0420FDF7E8FF1C
:103D40002068FEF75EFD0420FDF7E2FF6D1C092DE3
:103D5000E1DB6068FEF707FD0420FDF7D9FF60682E
:103D6000BDE83840FEF74DBD38BD10B500780C46B3
:103D700048B103212046FFF799FF2046BDE81040D7
:103D80000121FFF7B1BD20680021027E0368521CAB
:103D9000D2B21B7B9342EDD902762046FFF7EEFDAF
:103DA0000100E7D110BD01460320CA0701D04FF43E
:103DB00002408A0701D548F20120490701D548F29F
:103DC000022070472DE9FE4F05460C4642F2107066
:103DD00002901F46934600264FF482712046FFF75B
:103DE000B6F94FF492712046FFF7B1F94FF48E7196
:103DF0002046FFF7ACF94FF484712046FFF7A7F98E
:103E0000002085F8260085F82300012F0ED001211F
:103E1000C4F80012012121622160296861B140F2D9
:103E20008620A860A868C4F804032BE00221EFE70D
:103E30000298401E029005E08046029805F1260A8D
:103E400005F12309002809DDCDE900785B465246DB
:103E50004946204600F02DF80028E9D195F82300C6
:103E600038B1D4F8C404C4F8C40410B1FFF79BFF00
:103E700006460298002805DCC4F800850520C4F831
:103E8000000503263046BDE8FE8F30B51C78039D43
:103E9000944206D2095DC0F81C151878401C1870B1
:103EA00005E0012115B1C161002030BD4161012053
:103EB00030BD2DE9FF4F81B0044608780E9E904634
:103EC0000F4618B998F80010B14201D1012100E065
:103ED000002189464FF48E7B4FF4927160B12046E9
:103EE000FFF735F959462046FFF731F94FF4847151
:103EF0002046FFF72CF94DE08A462046FFF722F9CD
:103F0000012540BB59462046FFF71CF998B1594698
:103F10002046FFF71CF951462046FFF713F9D0B9A8
:103F20000F9800904346324620460499FFF7ADFFB4
:103F300000283ED02EE04FF4847B59462046FFF700
:103F400001F938B359462046FFF701F9514620469A
:103F5000FFF7F8F830B151462046FFF7F8F86561F1
:103F60003D7017E098F8002004994046B24211D203
:103F7000D4F818358B540178701E491CC9B288F8E2
:103F80000010814203D10220C4F8000201E0B142D6
:103F900000D02562B9F1000F0ED04FF4827529468A
:103FA0002046FFF7CFF838B129462046FFF7CFF873
:103FB000002005B0BDE8F08F0120FAE72DE9F04FB1
:103FC00087B005460C4642F2107004909A4693461C
:103FD0000026109F4FF482712046FFF7B8F84FF487
:103FE00092712046FFF7B3F84FF48E712046FFF729
:103FF000AEF84FF484712046FFF7A9F80020C4F80A
:10400000000285F82600804685F823000120206202
:10401000A06005F1260352465946204600970293B8
:10402000FFF733FF286850B140F28620A860A868E7
:10403000C4F8040326E00498401E049002E00498AB
:1040400005F12309002809DDCDE900A75B464946B3
:104050002046029AFFF72DFF0028ECD195F82300A7
:1040600038B1D4F8C404C4F8C40410B1FFF79BFEFF
:1040700006460498002805DCC4F800850520C4F82D
:104080000005032607B03046BDE8F08FF8B50446BA
:104090004FF0FF30C1F8080394F8240020B1A06865
:1040A000C1F804031120F8BD43F38000401C84F8DC
:1040B0002400180701D50620F8BDA36192E861002D
:1040C00004F10C0787E86100907884F820005068BC
:1040D000E0615078C1F888051078002501280ED0DD
:1040E00008B9980601D5012000E0002084F82100DD
:1040F0000090937852682046FFF760FF06E084F84E
:104100002150937852682046FFF75CFE2168002911
:10411000D2D184F82450F8BD70B50C4605464FF452
:104120008E71FFF780F8A18AA068415CA08A401CCC
:10413000A082C5F81C1570BD1FB500228DF80020A7
:104140008DF80810816801918275D0E900126846E7
:1041500090471FBD0149012008707047A80000204A
:1041600010B588B0044620220E496846FCF744F991
:1041700006200090C01F0190029003904FF0EB705A
:1041800006900CB1084A00E0002269460748FEF795
:1041900075F808B1FCF7E4FD0448001F447008B04E
:1041A00010BD0000F445000055410000AC000020A7
:1041B0002DE9FF470C4605464FF40071FFF739F82B
:1041C00001274FF40178002618B34FF4927949463D
:1041D0002846FFF723F8E0B149462846FFF723F8C1
:1041E000C5F80883A07E00B96F6002208DF800003A
:1041F000D5F88004C5F880040390E07D8DF80800B0
:10420000E0680190E6752676D4E90012684690478A
:1042100027E004212846FFF70CF810B34FF484710F
:104220002846FEF7FBFFE0B121462846FFF722FBB8
:10423000E07D617E884214D1207E38B1617EE268E3
:10424000E0752069E0602676667607E0A07E00B91A
:104250006F60C5F80883E675617EE2682046FFF767
:1042600022FB4FF48E7841462846FEF7D7FF88B1EF
:10427000A08AA17D884204D221462846FFF74CFF40
:1042800008E041462846FEF7CEFFA17D11B1204649
:10429000FFF752FF4FF4A27841462846FEF7BEFFD3
:1042A000002812D041462846FEF7BDFFA07E00B18F
:1042B0002F60E07D002808D0E675617EE26804B0DA
:1042C0002046BDE8F047FFF7EEBABDE8FF872DE9CD
:1042D000FF410C464FF4927705463946FEF7AFFF93
:1042E0000026C0B139462846FEF7AEFF02208DF801
:1042F0000000D5F88004C5F880040390D5F83C058B
:104300008DF80800E0680190E6752676D4E9001281
:104310006846904724E04FF4887739462846FEF7F0
:104320008EFFE8B139462846FEF78EFFD5F83C05EA
:10433000C1B2E07D884213D1207E60B1E268D5F839
:10434000000220F02000C5F80002207EE075206900
:10435000E060267601E0E675E2682046FFF7A3FA02
:104360004FF4A27739462846FEF769FF68B139460F
:104370002846FEF769FFE07D38B1E675D5F83C05C3
:10438000E268C1B22046FFF78EFA4FF490763146CC
:104390002846FEF754FF00280FD031462846FEF786
:1043A00053FFA07D002808D0D5F84C0504B0C1B259
:1043B0002046BDE8F041FFF7BFBEBDE8FF81000029
:1043C0002DE9F05F8346DDE90A4A994690460D469D
:1043D0000846012703E000BFB0FBF8F07F1C404512
:1043E000FAD2B94500D94F465FEACA7012D18CB1F2
:1043F0005FEA8A7002D5B9F1000F01D0202607E0EC
:10440000302605E031465846641EFCF7F1FF0CB13A
:10441000A742F7D35FF00106B9F1010F02D9A9F164
:10442000010903E0B5FBF6F0404502D306FB08F6B0
:10443000F2E7DFF83C9000BFB5FBF6F000FB165545
:1044400019F800105846FCF7D3FFB6FBF8F6002E1B
:10445000F2D15FEACA7009D0002C07D0A74205D27A
:1044600020215846641EFCF7C3FFF5E7BDE8F09F26
:10447000A04500000A494A788B78521CD2B2934278
:1044800000D100220B78934201D1002070470270C6
:10449000487800EB400001EBC000001D70470000B1
:1044A0007C03002004000020029000000402002091
:1044B000EC010020050000000400000001000000E5
:1044C0006001002010020020AC44000000300040D9
:1044D000000000001B0000001A000000000098010E
:1044E000070000000100002001900100E001002011
:1044F000029100005000002001980100E20100201C
:10450000049900000000002001900100E00100205B
:10451000019100000100002001900100E101002054
:10452000029100000200002001900100E301002040
:10453000029100000300002001900100E50100202D
:10454000029100005000002001980100E0010020CD
:104550000B99000051000020029800000D0E0F1072
:104560000B0C18192C0200204C02002078020020AD
:104570000B0003004D1000000C0003004D10000064
:10458000180003004D100000190003004D1000003A
:1045900000000050000300505C03002003000000F6
:1045A0003031323334353637383941424344454669
:1045B00000000000000000000000000000000000FB
:1045C0000000000000000000B0450000C8450000E9
:1045D000040000008F170000000000000000000031
:1045E0000000000000000000E5290000CD290000C7
:1045F000C3290000FFFFFFFFFFFFFFFFFFFFFFFFDB
:10460000FFFFFFFF00000000000000000000D601D7
:1046100007010000C8000020C0000020C8000020E2
:10462000D4040020180000000040404040404040BA
:104630004040414141414140404040404040404075
:104640004040404040404040400502020202020219
:104650000202020202020202022020202020202068
:10466000202020020202020202029090909090907C
:10467000101010101010101010101010101010103A
:1046800010101010020202020202888888888888AE
:10469000080808080808080808080808080808089A
:1046A0000808080802020202400000002946000033
:1046B0007761726E696E67006465627567000000FD
:1046C0001B5B313B33306D001B5B306D0000000025
:1046D0001B5B313B33316D001B5B313B33326D0073
:1046E0001B5B313B33336D001B5B313B33346D005F
:1046F0001B5B313B33356D001B5B313B33366D004B
:104700001B5B313B33376D00696E666F0000000044
:104710006572726F72000000636C6F636B00000063
:104720006770696F746500007477690075617274F1
:104730000000000062616C6C6F6300007077725F54
:104740006D676D740000000061707000A447000088
:10475000000000206001000014070000FC4700007A
:1047600060010020582800003C0C000018470000A1
:104770000000000020470000000000002847000063
:10478000000000002C47000000000000344700003B
:10479000000000003C470000000000004847000007
:1047A000000003000610010003020173AD3333E47F
:1047B00044820473AD37330445820873F1373344C0
:1047C000459202035B070154200040031FE8453374
:1047D000104733B04633084733B84633C84633C072
:1047E0004633D04633D84633E04633E84633F046C6
:0C47F00043F8464247045590D0030000F7
:0400000500000201F4
:00000001FF
