:02000002F0000C
:108000000440002009940F0031940F0033940F00B6
:1080100035940F0037940F0039940F0000000000D2
:108020000000000000000000000000003B940F0072
:108030003D940F00000000003F940F0041940F009A
:1080400011850F0043940F0043940F0043940F00D9
:1080500043940F0043940F0071840F0043940F006A
:1080600043940F0043940F0043940F0043940F0078
:1080700043940F0043940F0043940F0043940F0068
:1080800043940F0091850F0043940F0043940F0019
:1080900025870F0043940F0043940F0043940F0073
:1080A00043940F0043940F0043940F0043940F0038
:1080B00043940F0043940F000000000000000000F4
:1080C00043940F0043940F0043940F0043940F0018
:1080D00043940F0043940F0043940F0043940F0008
:1080E00043940F0043940F0043940F0000000000DE
:1080F0000000000043940F000000000043940F00B4
:10810000000000000000000000000000000000006F
:10811000000000000000000000000000000000005F
:10812000000000000000000000000000000000004F
:10813000000000000000000000000000000000003F
:10814000000000000000000000000000000000002F
:10815000000000000000000000000000000000001F
:10816000000000000000000000000000000000000F
:1081700000000000000000000000000000000000FF
:1081800000000000000000000000000000000000EF
:1081900000000000000000000000000000000000DF
:1081A00000000000000000000000000000000000CF
:1081B00000000000000000000000000000000000BF
:1081C00000000000000000000000000000000000AF
:1081D000000000000000000000000000000000009F
:1081E000000000000000000000000000000000008F
:1081F000000000000000000000000000000000007F
:1082000010B5054C237833B9044B13B10448AFF3D0
:1082100000800123237010BD8800002000000000B2
:1082200034950F00084B10B51BB108480849AFF34F
:1082300000800848036803B910BD074B002BFBD032
:10824000BDE81040184700BF0000000034950F0043
:108250008C0000207000002000000000154B002B57
:1082600008BF134B9D46A3F5803A00218B460F466D
:108270001348144A121A01F02AF90F4B002B00D0B0
:1082800098470E4B002B00D0984700200021040097
:108290000D000D48002802D00C48AFF3008001F01B
:1082A000E5F82000290000F093FB01F0CBF800BFB7
:1082B0000000080004400020000000000000000052
:1082C00088000020000600200000000000000000E0
:1082D00038B5084B03F108040546002808BF1C46C2
:1082E00023682BB11A6822605B6828469847F7E735
:1082F00038BD00BFBC000020024B1868003018BF1A
:108300000120704724030020002070470846704772
:10831000014B436000207047FC940F002DE9F041B1
:10832000074686B00E46984601251F4850E8004F84
:1083300044EA050340E8003191F0000FF6D174BB28
:10834000944219D01948022306EB0435C0F80435CD
:10835000BFF36F8FBFF34F8FC0F80855D0F80034CC
:10836000002BFBD0114B0021C3F80415BFF36F8F16
:10837000BFF34F8F0134E3E700F08AFEBA680025AF
:108380005AB1022301A88DF8043002950396049493
:10839000CDF814809047284602E0104600E01120F6
:1083A00006B0BDE8F08100BF2403002000E00140DA
:1083B000F0B506460D4687B01F4601201F4951E81B
:1083C000003F43EA000441E8004E9EF0000FF6D162
:1083D00083BB1B4BC3F80405BFF36F8FBFF34F8FF5
:1083E00027F00301043A294428468842144B08D058
:1083F00052F8044F40F8044BD3F80044002CFBD053
:10840000F3E70024C3F80445BFF36F8FBFF34F8F2A
:1084100000F03EFEB2685AB101238DF804300C9B87
:10842000029401A80395049705939047204602E023
:10843000104600E0112007B0F0BD00BF240300206B
:1084400000E0014008B500F023FE002008BD08B59B
:1084500010461A4601F030F8002008BD082910B572
:1084600001D000F0A3FA03684068BDE81040184747
:10847000224A13B500230121104652F8044B012C67
:108480000CD11F4CD4F8044321421FBF002442F8F2
:10849000044C006800901CBF00980B4319488242AE
:1084A0004FEA4101E8D1184A116801290DD1002194
:1084B000116012680192019A4FF0A04243F000430C
:1084C000D2F81025114AD2F8102513F0FF0F13D05F
:1084D0000120002118421EBF8A0002F1804202F5ED
:1084E000C04201F101011CBFD2F81045D2F810259D
:1084F00008294FEA4000EDD102B010BD00610040F4
:1085000000600040206100407C610040000300509A
:10851000134B07B51A686AB1002018601B680093F6
:108520004FF08042009B0123C2F808330D4A53707C
:10853000FFF7CEFE0C4B1A6872B100221A601B685E
:108540000193019B4FF080430222C3F80823054B9F
:1085500001209870FFF7BCFE03B05DF804FB00BF7C
:1085600000010040B400002004010040034A1368E9
:10857000013B136003B962B6704700BFA40000203E
:1085800072B6024A1368013313607047A4000020DA
:108590002DE9F347444A454B0024C2F84041C2F854
:1085A0004441C2F84841C2F84C41C2F80041C2F807
:1085B00004411B68002B74D03D49D2F804250D6896
:1085C000551B25F07F451A68954251D3AD1A1444C6
:1085D0001A7CDE69002A48D04FF00008354F5A69EE
:1085E00083F810809B6901933B880092072B56D932
:1085F000FFF7C6FF304B314918780A78D3B2304ABA
:108600001288934238BF0133C0B238BF5FFA83F893
:1086100080450AD091F800800B78DBB293423ABFD4
:108620000133DBB200230B7001E04FF6FF78FFF758
:108630009DFF4FF6FF73984531D0DFF8A0A0214A87
:10864000DAF8003043F838201F4B38881B68694639
:1086500000FB0830082200F02FFFDAF800304FEA64
:10866000C80999440823A9F804300EB13346AAE793
:10867000164B174A197813788B4205D10133DBB2B8
:10868000022B08BF002313701278124B03EB8203F6
:108690004FF480125C60104BC3F8002101E000F041
:1086A00085F902B0BDE8F08700100140C800002045
:1086B000D00000200E0200200D0200200C0200203D
:1086C000100200205D840F0008020020CC00002072
:1086D000CD000020A400002000E100E0F400002014
:1086E00038B50C4B0C4C4FF40032C3F880200125F8
:1086F0004FF48033C4F84833C4F80833656000F0A1
:108700001DFC064BA56000241C6000F017FC044B08
:108710001C7338BD00E100E000100140D0000020D3
:10872000A40000202DE9F74F974A9849137809785B
:10873000974F984E3C68994231D00133DBB2022BFF
:1087400008BF002313701278934B03EB82030025BC
:1087500059680B1923F07F433B60AC463368DBB1AB
:108760001A68914202D2521A1A6015E0891A94448A
:1087700000221A60D3F80CE0864AD8691060BEF176
:10878000000FEBD00CEB040222F07F42DD615A6057
:10879000C3F808E01D46E1E74FF0010801E00025BD
:1087A000A846336801934FF0000A55B12C46ED6995
:1087B0002FE0D6F800B05B46D946002B62D10023EB
:1087C000237476494B780A7893420B4666D08C78AE
:1087D000501CC0B28442087008BF0D70182101FB04
:1087E00002331A799C68022AE3D0032A48D0012A6E
:1087F000E7D1217C0029E4D1DA6862601A69A260BD
:108800005A69E26010339B68A361634B5B7B03B1E1
:10881000616060683A68831A23F07F41604B994237
:10882000A36801D80B4406E0121A22F07F4293425B
:108830008CBF9B1A0023236000236360A360E36165
:10884000336854480122227433B121681A68914276
:1088500004D8521A1A60E3610460A6E718461A6841
:10886000914205D9891ADA6918462AB11346F6E702
:10887000521A1A601A4603462160E261DC6194E7ED
:10888000336804E0A34263D09946DB6995E71BB1E6
:1088900000221A74DB69FAE7336092E73E4DBAF1C1
:1088A000000F06D13368019A934202D1B8F1000F4C
:1088B00049D03368002B44D03A4E3C68D6F8048542
:1088C000D3F800A02B7BC4EB080727F07F470337C2
:1088D000A3B9354A4FF480334FF400314FF001090A
:1088E000C6F84433C6F80433C2F880111160C6F8E4
:1088F000009000F023FB284B83F80C9057452CBFC9
:10890000E31904EB0A0323F07F44C6F84045D6F888
:108910000435244AC8EB030323F07F43C8EB040467
:10892000033324F07F44A3420DD9D2F80435C2F8B2
:10893000403500F003FB1C4B4FF40032C3F800211C
:1089400001E0FFF7CDFE00236B7303B0BDE8F08FAD
:10895000A1450BD1DBF81C3033603BB91149012232
:108960008A603B600C4B5A7300F0E8FAE2692168B8
:10897000C9F81C2012B113680B44136033689B457F
:1089800018BF4FF0010A1AE7CC000020CD000020EC
:10899000D0000020C8000020A40000201802002001
:1089A000FEFF7F000010014000E100E0BFF34F8FA9
:1089B0000549064BCA6802F4E0621343CB60BFF37B
:1089C0004F8F00BFFDE700BF00ED00E00400FA0597
:1089D0002DE9F04F002089B0AE4A835C1F2B88BF81
:1089E00003F01F03114603F5E0738CBFAA4A4FF052
:1089F000A04201300324042842F82340ECD1002394
:108A0000CA5C01201F2A86BF02F01F02A24C4FF051
:108A1000A044034400FA02F2042BC4F80825EFD165
:108A20004FF0A0434FF400429C48C3F80C250021AE
:108A30009B4B0360FFF76CFC08B1FFF7B7FF994E43
:108A4000994930464FF4AE7200F036FD3468611C2F
:108A500005D0301D582100F0B7FAA0420CD0914843
:108A600000214FF4AE7200F032FD0123002073604C
:108A700000F06AFB0028E0D18C4C2378002BDCD17D
:108A80006360A360E3602361894B884F1A68D20753
:108A900058BFE0224FF0804858BF83F800234FF0C2
:108AA00001055EBF0122C3F880211A60C8F818557D
:108AB000A37825702BB1FFF763FDFB682B44FB60A7
:108AC00010E0FFF75DFDFA684AB97A4B1A601B683F
:108AD0000393039B0223C8F80433774B1D60E368BC
:108AE0000133E360FFF742FD4FF08043D3F81834C1
:108AF000DB03F9D5FFF7F4FD704A6D4800234FF40E
:108B000080150B21E02791701370537063612376F9
:108B10006376C0F8805180F81473056005F18045D4
:108B2000A5F56F256149C5F8083580F81173D5F8AA
:108B30000435E36193780192002B3FF47EAF91F806
:108B40003030002B7FF479AF81F8303081F831304C
:108B50005B4B4B633369534F012B0CD07B6953B193
:108B6000BD6905F6FF7525F47F6525F00F0505F550
:108B7000F835243702E04FF4F8351837BB68012B7D
:108B800002D0AA2B60D0A5E07269464B012A40F0C2
:108B9000A180D3F824A01B6B03F5F837C3EB0A09B7
:108BA0001D44DFF82CB1DBF8003038460133CBF838
:108BB000003000F04DFA0346002840F02981DBF830
:108BC00000200132CBF80020002D00F02181B9F502
:108BD000805FCB4628BF4FF4805B384629465A4613
:108BE00000F00AFA002840F013810323049304A83C
:108BF0004FEA9B0305970695079300F0D3FA0028E8
:108C000040F00681326BDFF89C805A44326300F0FA
:108C10009BFAB9EB0B095F445D44C2D151464FF456
:108C2000F83000F0D1F9D8F82820904204BF012292
:108C3000C8F81C00234804BFC8F82020C8F818A0B2
:108C400000F070FA002013E03B68726B06959B1AE7
:108C50004FEA93090323049304A81B4B0593CDF813
:108C60001C9000F09FFA30B9384600F05BFA1748C4
:108C700000F06AFA0AE004A80021102200F027FCA4
:108C800004A80595CDF8189000F08CFA003018BFB4
:108C9000012020E008950F00000300507400002020
:108CA0000C950F002803002000F00F00B4000020F6
:108CB00000E100E00401004008000040180200202C
:108CC000938E0F004C03002000800F00E5900F00F2
:108CD0001402002000204FF08043D3F81C35DBB293
:108CE000B12B0AD0B36D012B08D1504B00209865F1
:108CF00000F02AFA00287FF4A0AE01204FF0804552
:108D00000023C5F81C3518B900F0D4F900285FD14C
:108D1000474800F14403236400F1CC03C4F8543104
:108D2000002384F8583184F859310823A4F85A31C3
:108D30001023A4F85C31019B9B78002B3FF47DAE9F
:108D4000436B002B3FF479AE90F831304FF4701143
:108D5000012B0CBF0A460022203000F0B7F8002893
:108D60007FF46BAE334B344EF61AF60805461F46B9
:108D7000B54208D057F83530984700287FF45DAEEB
:108D80000135F5E720BF94F8593194F85821284D62
:108D90009A42F7D095F859312A6CB5F85A71D5F83E
:108DA0005401DBB219B202EBC10607FB030052F813
:108DB0003120B188904795F85931B5F85C21DBB284
:108DC0009A4286BF0133DBB2002384F85931DAE7D7
:108DD0001A4A0123C2F880304FF0FF32C5F8082349
:108DE000174A13604FF08043D3F81834C3F300439D
:108DF000002BF7D1A370134B01221A604FF0804370
:108E0000D3F80C3403F00113B3F1011FF6D001E0E5
:108E1000012060E700256570257000F0C5F900F0BD
:108E2000C3F9284609B0BDE8F08F00BF2803002031
:108E3000B4000020880000208800002000E100E04D
:108E40000C00004004000040F0B54FF4F8331868FF
:108E500080F308885868FF2464B2EFF30585002D7D
:108E600008D1EFF31481022221EA020181F3148870
:108E7000A64600472546064621273FBAF0B40024FF
:108E8000002500260027F0B4F92040B2004700BFBB
:108E9000F0BDBFF34F8F0549054BCA6802F4E0628D
:108EA0001343CB60BFF34F8F00BFFDE700ED00E041
:108EB0000400FA05044B1A6812B11A68013A1A60E4
:108EC000036903B118477047140200202DE9F843E5
:108ED000174D174681468846FFF752FB6B79AA79F2
:108EE0005C1CE4B2A24208BF00242A79A24212D03C
:108EF000182202FB035301221A720E4AC3F80C9087
:108F0000D2F804251A6100206C71C3F814809F61A7
:108F1000D861044600E00424FFF728FB24B9064B7F
:108F20004FF48012C3F800212046BDE8F88300BF4B
:108F3000140200200010014000E100E0204B214914
:108F40001A682F2300BF00BF00BF00BF00BF00BFD3
:108F500000BF00BF8A422FD000BF00BF00BF00BFCC
:108F600000BF00BF00BF00BF00BF00BF00BF00BF09
:108F700000BF00BF00BF00BF00BF00BF00BF00BFF9
:108F800000BF00BF00BF00BF00BF00BF00BF00BFE9
:108F900000BF00BF00BF00BF00BF00BF00BF00BFD9
:108FA00000BF00BF00BF00BF00BF00BF00BF00BFC9
:108FB00000BF00BF00BF00BF013BC3D1704700BF6F
:108FC000040000200024F40030B501444FF0FF33CA
:108FD00088420DD010F8012B53400822054D13F0A4
:108FE000010418BF2C46013A84EA5303F6D1EFE797
:108FF000D84330BD2083B8EDF7B5054613480E467B
:1090000001681446A1B1AAB142685768B4FBF7F2EF
:1090100007FB124272B946EA050292070CD1C268F8
:10902000954209D36A1E07692244BA4204D805E072
:10903000082009E0092007E0102005E00093CF6830
:10904000324629462346B84703B0F0BD74000020DD
:1090500030B501460D4804686CB143681A68013A9E
:1090600011EA020309D1C568A94206D305690A4479
:10907000AA4202D803E0082030BD102030BD246988
:109080000122A446BDE83040604700BF74000020C4
:1090900000B50020064B53E8002F02EA000E43E81B
:1090A00000E191F0000FF6D170465DF804FB00BFBF
:1090B0002403002010B50A4BD3F8340101280CD149
:1090C000D3F8304154B1D3F82C114FF4F830FFF7F6
:1090D0007BFF031B5842584110BD002010BD00BF4C
:1090E0001402002008B5FFF7E5FFA8B10B4883790B
:1090F00083B190F880226AB9094B80F8802280F809
:109100008122C0F884324FF4A02100F51C70FFF7D3
:10911000DDFE08B1FFF74AFC08BD00BF14020020C5
:10912000938E0F0008B50C22002100F0D0F9054BFA
:109130000022C3F84421C3F84821C3F82421C3F80E
:10914000282108BD1402002038B5144C23680546B8
:10915000013313482360FFF77BFF08B1032038BDBC
:10916000582104F58C70FFF72FFF04F58A71C4F8BD
:1091700014014FF4AE7204F5247000F09DF92368D9
:1091800007480133236004F524714FF4AE722B4677
:10919000FFF732FF0028E1D138BD00BF14020020E4
:1091A00000F00F0018DF70471FB50C4B4FF0FF3277
:1091B000C3F8802068461022002100F088F90622BA
:1091C0004FF4F83368468DE80C00FFF7EBFF08B961
:1091D000FFF73AFE05B05DF804FB00BF00E100E0D8
:1091E0007B4B1A68082A1A4604D104331B68002BEB
:1091F00000F083801368082B04D1764B1B68002B8A
:1092000000F08480724B1A68082A04D1714A1268EF
:10921000002A00F0C3801B68082B04D16D4B1B682B
:10922000002B00F0BF806A4B1B68082B04D1694BF0
:109230001B68002B00F0BB80654B1A68082A04D11C
:10924000644A1268002A00F0BD801B68082B0CD10C
:10925000604B1B684BB94FF08043D3F80024D20712
:1092600003D56FF00102C3F800245B4AD2F88830BE
:1092700043F47003C2F88830BFF34F8FBFF36F8F92
:109280004FF01023D3F80022002A03DBD3F8043276
:10929000002B2EDA514B0122C3F80425D3F8002409
:1092A000002AFBD04FF010221221C2F80012D3F88E
:1092B0000024002AFBD04FF010231222C3F804220E
:1092C000464BD3F80024002AFAD00022C3F8042524
:1092D000D3F80024002AFBD0BFF34F8F3E49404B08
:1092E000CA6802F4E0621343CB60BFF34F8F00BF44
:1092F000FDE73C4B3C4A1A6070474FF08041C1F893
:109300000C31C1F81031C1F8383573E74FF0805295
:10931000364BD2F80414C3F82015D2F80814C3F859
:109320002415D2F80C14C3F82815D2F81014C3F879
:109330002C15D2F81414C3F83015D2F81814C3F849
:109340003415D2F81C14C3F84015D2F82014C3F811
:109350004415D2F82414C3F84815D2F82814C3F8D9
:109360004C15D2F82C14C3F85015D2F83014C3F8A9
:109370005415D2F83414C3F86015D2F83814C3F871
:109380006415D2F83C14C3F86815D2F84014C3F839
:109390006C15D2F84424C3F8702533E7144A1549F4
:1093A000116038E7144BFB22C3F818253BE713493B
:1093B000134A0B68126823F00F0302F00F021343E5
:1093C0000B6039E70F4A4FF4007111603DE700BFB1
:1093D000300100103401001000ED00E000E0014019
:1093E0000400FA05040000200090D00300C00040F3
:1093F0008C5600404881030000F00040E40E00401D
:1094000058020010409602400649074A074B9B1A33
:1094100003DD043BC858D050FBDCFFF7E1FEFEF74C
:109420001DFF000040950F00040000208800002070
:10943000FEE7FEE7FEE7FEE7FEE7FEE7FEE7FEE704
:10944000FEE7FEE708B5074B044613B10021AFF372
:109450000080054B1868836A03B19847204600F0E6
:109460003FF800BF0000000030950F0070B50E4BB4
:109470000E4CE41AA41000251E46A54204D056F84E
:10948000253098470135F8E700F02CF8084C094BD7
:10949000E41AA41000251E46A54204D056F8253033
:1094A00098470135F8E770BD68000020680000208B
:1094B0006C0000206800002010B5431E0A44914251
:1094C00004D011F8014B03F8014FF8E710BD024436
:1094D0000346934202D003F8011BFAE770470000ED
:1094E000FEE700BFF8B500BFF8BC08BC9E46704759
:1094F000F8B500BFF8BC08BC9E46704700100000DD
:1095000004000000010000000D0E0F1011830F0079
:1095100045840F004F840F00B1830F001D830F009F
:109520000D830F0009830F00F9820F004300000034
:0895300008000020000000000B
:0895380024EDFF7F010000009B
:109540000090D003000000000000000000000000B8
:10955000000000000000000000000000000000000B
:10956000000000002C950F0000000000000000002B
:1095700000000000000000000000000000000000EB
:1095800000000000000000000000000000000000DB
:1095900000000000000000000000000000000000CB
:1095A0000000000025820F0001820F000000000073
:1095B0000000000000000000B58E0F000010000049
:0495C0000000100097
:020000020000FC
:020000041000EA
:0410140000800F0049
:0410180000E00F00E5
:04000003F00094096C
:00000001FF
