:020000040001F9
:10900000604100204D9301005593010057930100EA
:10901000599301005B9301005D9301000000000083
:109020000000000000000000000000005F9301004D
:10903000619301000000000063930100659301004B
:10904000ED950100679301003D99010067930100D0
:109050006793010000000000159401006793010070
:109060006793010067930100679301006793010014
:109070006793010067930100679301006793010004
:109080006793010045960100679301006793010013
:1090900069960100679301006D96010067930100D6
:1090A00067930100679301000000000000000000CA
:1090B00067930100679301000000000000000000BA
:1090C00000000000000000000000000000000000A0
:1090D0000000000000000000000000000000000090
:1090E0000000000000000000000000000000000080
:1090F0000000000000000000000000000000000070
:10910000000000000000000000000000000000005F
:10911000000000000000000000000000000000004F
:10912000000000000000000000000000000000003F
:10913000000000000000000000000000000000002F
:10914000000000000000000000000000000000001F
:10915000000000000000000000000000000000000F
:1091600000000000000000000000000000000000FF
:1091700000000000000000000000000000000000EF
:1091800000000000000000000000000000000000DF
:1091900000000000000000000000000000000000CF
:1091A00000000000000000000000000000000000BF
:1091B00000000000000000000000000000000000AF
:1091C000000000000000000000000000000000009F
:1091D000000000000000000000000000000000008F
:1091E000000000000000000000000000000000007F
:1091F000000000000000000000000000000000006F
:10920000DFF80CD000F0F4F80048004779AE010018
:109210006041002030B4044654E8000F0D4644E895
:109220000053002BF8D1156030BC704730B40446B1
:1092300054E8000F40EA010544E80053002BF7D141
:10924000156030BC704730B4044654E8000F00EAA3
:10925000010544E80053002BF7D1156030BC70477E
:1092600030B4044654E8000F80EA010544E8005396
:10927000002BF7D1156030BC704730B4044654E879
:10928000000F00EB010544E80053002BF7D11560F7
:1092900030BC704730B4044654E8000FA0EB010521
:1092A00044E80053002BF7D1156030BC7047000034
:1092B00030B4044654E8000F0D4644E80053002B38
:1092C000F8D1156030BC704730B4044654E8000F44
:1092D00040EA010544E80053002BF7D1156030BC8B
:1092E000704730B4044654E8000F00EA010544E832
:1092F0000053002BF7D1156030BC704730B40446E2
:1093000054E8000F80EA010544E80053002BF7D130
:10931000156030BC704730B4044654E8000F00EBD1
:10932000010544E80053002BF7D1156030BC7047AD
:1093300030B4044654E8000FA0EB010544E80053A4
:10934000002BF7D1156030BC7047000006488047FD
:1093500006480047FEE7FEE7FEE7FEE7FEE7FEE71A
:10936000FEE7FEE7FEE7FEE77196010001920100CD
:10937000202A04DB203A00FA02F1002070479140D5
:10938000C2F1200320FA03F3194390407047000014
:109390000048704734D4010040EA01039B0703D022
:1093A00009E008C9121F08C0042AFAD203E011F824
:1093B000013B00F8013B521EF9D27047D2B201E0E6
:1093C00000F8012B491EFBD270470022F6E710B5CA
:1093D00013460A4604461946FFF7F0FF204610BD23
:1093E000421C10F8011B0029FBD1801A70470000B5
:1093F000064C074D06E0E06840F0010394E80700E2
:1094000098471034AC42F6D3FFF7FEFE08DA0100AD
:1094100028DA01002DE9F04700268CB0DFF86091D2
:10942000B0464FF48075012437460696284602F070
:109430002DFC38B1D9F80403204203D0284602F0AD
:109440001BFC26432D1D64007F1CADB2082FEDD3FD
:109450004FF4BE74204602F019FC48B1204602F0D9
:109460000BFC46F0004606AA0121002002F0F0FBAA
:10947000444D16F0FF0F15D00127002437420DD0C0
:1094800009EB8401D1F81005D1F81015C0F30420C0
:1094900055F82420C1F3014102B190477F00641CBC
:1094A000082CEBD3002E67DA4FF0FF30CDE90880AF
:1094B00000263446281910F8507F90F9000027F054
:1094C000C008401C44D009A9404601F0DEFE58B354
:1094D0004FEA9719404601F041F955F820701FB145
:1094E000B9F1030F03D00FE0B9F1030F30D108A891
:1094F0004FEAD80208F00703815C4FF0010C0CFA28
:1095000003FC41EA0C0181544FF0A04101EB8800BB
:10951000D0F8000706A9C0F3014A404601F0B5FEA5
:1095200018B1BAF1020F03D012E0BAF1030F0FD154
:10953000B9F1030F08D1BAF1020F1BD00221404646
:1095400002F06AFB761CF6B217B149464046B847AE
:10955000641C042CAED3002E0ED06A4601210020DC
:1095600002F076FB06990098884205D0069008988C
:1095700009909DE70321E2E70CB0BDE8F087000009
:10958000006000409432002000F01F020121914051
:109590004009800000F1E020C0F88012704700F020
:1095A0001F02012191404009800000F1E020C0F835
:1095B0000011704700F01F02012191404009800016
:1095C00000F1E020C0F8001270474907090E00289A
:1095D00006DA00F00F0000F1E02080F8141D70475B
:1095E00000F1E02080F80014704700002DE9F04100
:1095F0004FF48077384601F0F3FE0124104EA507A2
:1096000048B1384601F0F3FE0120C5F80803747034
:10961000002001F0ABF84FF48277384601F0E0FE0D
:1096200000280BD0384601F0E2FE0220C5F80803FE
:10963000B470BDE8F041012001F098B8BDE8F081B8
:109640008032002007480021C0F84011C0F84411C2
:10965000C0F84811C0F84C11C0F80011C0F804114E
:1096600003F096BB0010014003F0E0BA02F0B6BF71
:10967000F0B5A1480127031D01783A07181D0629F6
:109680000BD11C78240708D10478C4F30314032CED
:1096900006D0042C04D0052C02D0062907D011E0F6
:1096A000B2F82443954DC4F304242C6002E01C78E6
:1096B000240707D10478C4F30314032C02D1914D7D
:1096C0008F4C6C67D2F844428F4DC4F342342C6007
:1096D00006290CD11C78240709D10478C4F303149B
:1096E000032C04D1894C256825F0807525604FF046
:1096F00080440025C4F80C51C4F81051824C241F3A
:109700002560062907D11C78240704D10478C4F306
:109710000314032C02D0062908D01FE0DFF8E8C1AB
:1097200003240CF1640CCCF8004007E01C782407FB
:1097300014D10478C4F30314032C0FD1DFF8D0C183
:109740000524CCF80040724C78342760704C083403
:1097500025600CF1040C3F24CCF800406D4C2468CB
:10976000DFF8B4C1CCF800406A4C241D24680CF129
:10977000040CCCF80040674C083424680CF1040C4D
:10978000CCF80040634C0C3424680CF1040CCCF889
:109790000040604C103424680CF1040CCCF80040FC
:1097A0005C4C143424680CF1040CCCF80040594C87
:1097B00018342468DFF860C10CF1200CCCF80040AC
:1097C000544C1C3424680CF1040CCCF80040514C6F
:1097D000203424680CF1040CCCF800404D4C2434A7
:1097E00024680CF1040CCCF800404A4C283424685E
:1097F0000CF1040CCCF80040464C2C3424680CF1DD
:10980000040CCCF80040434C30342468DFF808C125
:109810000CF1400CCCF800403E4C343424680CF180
:10982000040CCCF800403B4C383424680CF1040C98
:10983000CCF80040374C3C3424680CF1040CCCF8D4
:109840000040344C403424680CF1040CCCF8004047
:10985000DFF8C8C0FB24CCF80040062913D11C78DF
:10986000240710D10478C4F30314032C03D0042C70
:1098700001D0052C07D1D2F85842DFF8A4C004F07B
:109880004F04CCF8004027480168C90702D06FF0A8
:10989000010101604FF01021D1F80002002803DB24
:1098A000D1F80402002822DA1F4A17601F48036813
:1098B000002BFCD01523C1F800320468002CFCD02A
:1098C000C1F8043201680029FCD015600168002944
:1098D000FCD0BFF34F8F0D48F0380168144A01F4F3
:1098E000E06111430160BFF34F8F00BFFDE71249F4
:1098F00010480860F0BD0000E00F00F04035014066
:109900000DF0ADBA00C007403C050040FCED00E0A2
:10991000105600400404001020C5004018F5004017
:10992000E40E00400004004004E5014000E4014072
:109930000400FA050090D0033030002001490248AD
:1099400003F08EBAEC3200200020004002E008C88C
:10995000121F08C1002AFAD170477047002001E0A9
:1099600001C1121F002AFBD17047000001212028ED
:1099700003DA81400548014003E0402802DA20383C
:10998000814009B10120704700207047FC06FFBDEF
:10999000082806D228B1012803D0042801D00120CC
:1099A0007047002070471FB5002002908DF8080016
:1099B00000900390402101908DF80000ADF80A104E
:1099C000ADF80C000121684673DF08B100F0A4F87F
:1099D000002000F065FD1FBD70B50024084D05E0B6
:1099E000686810F8340001F0A7FD641C28788442F0
:1099F000F6D304480068BDE8704000F019B90000D3
:109A0000982F0020B0D1010070B50024064D06E06B
:109A10006868012110F8340001F0B2FD641C287858
:109A20008442F5D3002070BD982F0020F8B515466C
:109A30000C460646052A01D20720F8BD01F086FE35
:109A400018B901F055FE0028F7D1114900224E60E7
:109A50000C708D60C1E90422C1E906220D4D0DE0B4
:109A600006EBC4006968009181788DF801100078D8
:109A7000094A694601F0D6FD0028DED1641EE4B231
:109A8000EED2BDE8F840054A0021024800F050B887
:109A9000982F0020B0D1010005AA010015A90100EE
:109AA00002F068FB02F0CAF90028FBD1104C01213A
:109AB000208801EB00400FA102F0ACFA10480068CA
:109AC000C00700D000BE2088022101EB00400DA19C
:109AD00002F0A0FABFF34F8F0948E43801680D4A3D
:109AE00001F4E06111430160BFF34F8F00BFFDE758
:109AF00070300020466174616C206572726F720074
:109B0000F0ED00E053797374656D207265736574D0
:109B1000000000000400FA050EB500210091CDE917
:109B200001106A4644F20100FFF7BAFF0EBD0000C3
:109B3000074B9B7823B12AB120B10068037C1BB18D
:109B40000820704707207047417442610020704729
:109B50002833002070B502F071FE104800240B215C
:109B6000047044700E4D817014206C602C706C7009
:109B7000FFF70AFD07211420FFF727FD1420FFF748
:109B80000EFD0848046007211120FFF71EFD05485F
:109B9000001F0068A860002070BD0000283300206E
:109BA000B82F0020081501402DE9FC47DFF8789018
:109BB00099F8023073B368B3052902D20720BDE8D3
:109BC000FC87436933B3437C012B25D0002704462F
:109BD0000025884616468DF80050684600F038F893
:109BE00001A803F04DFAC8B1012101700F4944608A
:109BF0000968C0E90218C0E904769DF8040089F8F4
:109C000001009DF8000000F047F81420FFF7D2FC97
:109C10002846D4E70820D2E70F46D8E704259DF868
:109C2000000000F039F8F3E7283300200415014064
:109C30000649897839B130B1416921B100210174F7
:109C4000022103F081B8082070470000283300206B
:109C500030B5EFF3108172B60D4A9468012324B138
:109C60000370002900D162B630BD93604FF0E0234D
:109C7000D3F88051074C25401560C3F88041D3F8D4
:109C8000844154605A17C3F8842100220270E8E727
:109C900034340020FC06FFBD0B498A68002A11D02D
:109CA00000280FD1EFF3108072B60B684FF0E0225E
:109CB000C2F800314B68C2F8043100228A600028E3
:109CC00000D162B670470000343400202DE9F04125
:109CD000064608680C46411C4FF0A0474FF00105AE
:109CE00006D005FA00F1C7F80815206801F08AFFD0
:109CF0006068411C02D0002101F07BFF3168A0693F
:109D0000C1F82405607D217D32680843C2F86C05E6
:109D1000D4E900123068C0F80C15C0F81425207D75
:109D2000012815D1A068411C02D0002101F061FF7B
:109D3000E068411C05D08540C7F80855E06801F08F
:109D400061FFD4E902123068C0F80825C0F8101588
:109D5000BDE8F081B8210148FFF737BBC8310020CA
:109D60002DE9FC47002517880646158090F82D0040
:109D70001446894630B13A462146484600F03CF93F
:109D8000050009D1B0784FF00C0A18B32088C846F6
:109D9000001DB84202D95046BDE8FC87684679DF0D
:109DA0000028F9D12088032108F800102088192103
:109DB000401C80B2208008F800102088401C80B22F
:109DC000208000EB0801BDF8000003F0C5F82188F1
:109DD00008442080F0780222C8B1218896F9033027
:109DE00001F1030C4846BC45D5D8425421884FF0B8
:109DF000010C491C89B2218000F801C02188491C4E
:109E000089B2218009F801302088401C20807068C8
:109E1000B8B1218890F9003001F1030C4846BC45E7
:109E2000B9D8425421880A22491C89B2218042545F
:109E30002188491C89B2218009F801302088401C02
:109E40002080308950B1CDE900474B4606220221DF
:109E500006F1080003F02CF905009DD1308A50B1BD
:109E6000CDE900474B460722032106F1100003F01D
:109E70001FF9050090D1308B50B1CDE900474B461A
:109E80001522142106F1180003F012F9050083D100
:109E9000306A30B13B462246494600F0D1FC05000D
:109EA000DBD1706A30B13B462246494601F0BEF82C
:109EB0000500D2D196F82C0038B13B4622464946DF
:109EC000304602F0F1FD0500C7D1307838B13B468D
:109ED00022464946304601F031F90500BDD12846F9
:109EE0005AE7F0B50C4693B01F210726ADF80010D5
:109EF000ADF80410002750B1C17849070DD56A4666
:109F000002A9FFF72DFF002808D102AD02E00025CD
:109F1000ADF800706CB1E07810B1304613B0F0BD10
:109F200001AA0AA92046FFF71BFF0028F6D10AAABA
:109F300002E00022ADF80470BDF80400C3B2BDF821
:109F40000000C1B2284672DFE8E700002DE9F041C9
:109F5000040012D001461C221A48FFF71DFA1948C6
:109F6000194D0560206858B17ADF002806D12068B5
:109F7000016829604068686006E00E20BDE8F08155
:109F800011487BDF0028F9D10E4D0024503D4FF6DB
:109F9000FF76A5F1800700BF04EB840005EB80008D
:109FA00007EB441120F8046B084A01600021FFF719
:109FB000BFFD08B10320E1E7641C042CECD30020B2
:109FC000DCE70000AC310020902F002019D0010008
:109FD000FFF7C0BE0249D1E91201884302F032BD49
:109FE000C83100200349D1E912239A43091D02F028
:109FF00004BD0000C83100207CB5054608880C4629
:10A000000930904201D90C207CBD68466DDF0028E4
:10A01000FAD121880820685420881B21401C80B276
:10A02000208029542088401C80B220802844DDF8FC
:10A0300001100160BDF8051081802088801D80B26C
:10A0400020809DF80010490800D001212954208863
:10A05000401C208000207CBDF0B50446008889B0FB
:10A06000212855D00FDC012866D0464E0327102842
:10A0700015D011282DD0132852D10023A0881A46BC
:10A0800085217FDF3DE03B2852D0512858D052280F
:10A0900048D0562844D1A088132176DF31E0FFF75D
:10A0A00099FF05463088A28807EB004036A101F0F1
:10A0B000B5FFFFF7A9FC08B1FFF72EFD012000F066
:10A0C000EFF9042D13D109B00020BDE8F04000F0F5
:10A0D000DFB9FFF77FFF05463088237AA28807EBB8
:10A0E000004033A101F0A1FF35B1032D18D109B013
:10A0F000BDE8F040FFF757BC012000F0C9F9FFF7B9
:10A100006BFC00280CD009B0BDE8F040FFF704BD9F
:10A1100000200090A08869468FDF2EE0FFF7FCFC4E
:10A1200009B0F0BD0023A0881A461946A9DFE8E768
:10A13000A088132176DFE4E7A088002166DFE0E74E
:10A140001022A11D04A8FFF727F99DF8101000297F
:10A15000E6D09DF81800042803D0062801D0052871
:10A16000DED102290CD001208DF800004FF4C1701F
:10A17000ADF80400A0886946A8DF0028CED1CFE75B
:10A180000220F1E770300020436F6E6E65637469E2
:10A190006F6E2077697468206C696E6B203078254B
:10A1A000782065737461626C69736865642E000061
:10A1B000436F6E6E656374696F6E2030782578200A
:10A1C000686173206265656E20646973636F6E6E8B
:10A1D00065637465642E20526561736F6E3A20303A
:10A1E000782558002DE9F04701883B4E40F2F319DD
:10A1F0004FF6FF7510291BD011293ED0122954D0DB
:10A20000502946D1C188F289841D914241D161898A
:10A2100002293ED18688304600F036FC050038D051
:10A2200004F10C0000F030F9A8B3294630464EE0A6
:10A23000C17B8788044601292BD1A846284600F017
:10A2400023FC050017D02F800020287223484346A6
:10A250004A460168C5F80A104068C5F80E0004F1C6
:10A26000100105F10A0000F076FC6872F089002800
:10A270000FD129462AE0042013E0808800F004FC76
:10A28000040006D06068FFF7D3FC08B102F0F0FBD1
:10A290002580BDE8F087FFE76868FFF7C9FC002864
:10A2A000F7D0BDE8F04702F0E3BB878806463846A2
:10A2B00000F0EAFB0400ECD02B464A4606F1080108
:10A2C00004F10A0000F047FC607221463846BDE800
:10A2D000F04700F0FBBA0000AC310020902F0020C6
:10A2E0002DE9F0470546038839480122A4B000F162
:10A2F000480A102B09D0112B48D01A2B64D1297A87
:10A30000B2EB111F47D2012346E0D0E911218A4365
:10A310000446011D12A802F070FB442212A901A8F4
:10A32000FFF73AF8DFF8A8900026374609F144090C
:10A330000DF104080AE000BF08EB46001D228388E7
:10A340004946201D009702F01DFB761C0198B04283
:10A35000F2D8606CAD88C04302F036FBA0F57F41B7
:10A36000FF390DD004EB4000012385802A46514679
:10A37000201D02F076FB01232A464946201D1EE0DF
:10A3800024B00420BDE8F047FFF7C6BB0023AA882D
:10A390005146001D13E000230D490446AA885031A0
:10A3A000001D02F05EFB287A0221B1EB101F01D2E2
:10A3B000012300E000230649AA885431201D24B05F
:10A3C000BDE8F04702F04DBB24B0BDE8F0870000C7
:10A3D000C831002030B50446134B85B008680D46DF
:10A3E00060610FCB8DE80F0004F11201684662DF57
:10A3F000002816D1A07C8DF8120041F22350ADF850
:10A400001000224604A90120A0DF002809D1294616
:10A41000204600F0B3F8002803D12946204600F07A
:10A42000BCFB05B030BD00009CD1010030B40288F7
:10A43000502A10D1034630F8062F4C88A2420AD188
:10A440004289012A07D14C69002C04D0027B9888EC
:10A45000A44630BC604730BC704707B586B00122C7
:10A4600000230093ADF810200193029303938DF81D
:10A4700002204989ADF8001008A9039104A90291AE
:10A480006946A6DF09B000BD007800F00100704702
:10A490000249085C012101F0D0BB000084D1010019
:10A4A0000249085C002101F0C8BB000084D1010012
:10A4B0007CB50024084E25460122305D009500231E
:10A4C0001146019501F056FB641C042CF4D3BDE841
:10A4D0007C4000F003B8000084D1010010B50024D6
:10A4E0002046FFF7D5FF641C042CF9D310BD0000F3
:10A4F000F8B5861C00208DF800000C460127684640
:10A50000FFF7A6FB0F4801682160D0E90012891A05
:10A5100082680446511AB51C07E000BF00F062FCD7
:10A52000D4E90001401AA168091A491C8D42F5D8E6
:10A530002068304420609DF80000FFF7ADFB3846EE
:10A54000F8BD00004035002030B482680468531C18
:10A550008360A154D0E901128A4202D330BC01F0D9
:10A5600010BA30BC70470000034803C8814201D1D3
:10A5700001207047002070474035002030B58FB073
:10A580000024054607949DF81C001C2120F00F00B4
:10A59000401C20F0F00010308DF81C009DF81D00CC
:10A5A00020F00F00401C20F0F00010308DF81D004E
:10A5B0009DF81E0020F00600801C8DF81E006846E5
:10A5C000FEF703FF9DF80000019440F012008DF8A3
:10A5D000000007A8CDE9044003940694A87C8DF8F8
:10A5E0003A0041F22450ADF838000D949DF8340043
:10A5F000142120F00F00401C20F0F00010308DF8E6
:10A6000034009DF8350020F0FF008DF835009DF8EE
:10A61000360020F00600801C20F019008DF836006E
:10A6200008A8FEF7D2FE0EA808900DA809900120F8
:10A63000ADF82800ADF82A40ADF82C000C9428881D
:10A6400005F10A0308AA6946A2DF0FB030BD000079
:10A650002DE9F04192B00D2804D012B0BDE8F041D0
:10A66000FFF75ABA0D466846FFF7BCFC00246E4659
:10A6700043F2020743F2014812E000BF06EB440038
:10A680002A4680880D49FFF7E8FE38B1B84205D068
:10A69000082803D0404501D0FFF73EFA641CE4B21D
:10A6A0000098A042EAD806480321008812B001EBC6
:10A6B0000040BDE8F04103A101F0ACBCA030002097
:10A6C0007030002053656E7420627574746F6E2054
:10A6D0007374617465206368616E676520746F20B0
:10A6E000616C6C20636F6E6E656374656420636576
:10A6F0006E7472616C732E0005494FF0FF320828AA
:10A7000041F8202002D3084480F848207047000018
:10A7100094320020F0B54FF0FF3512B10023082627
:10A7200001E008230C260C4C05E000BF54F8237010
:10A730007F1C04D05B1CB342F8D32846F0BD26181A
:10A740005DB286F8305044F82310002AF5D1E118A4
:10A7500081F84800F1E700009432002002490844E3
:10A7600090F93000704700009432002070B5084C1A
:10A77000050009D010342168002907D0086820603E
:10A78000496828468847F6E70834F4E770BD0000BA
:10A79000803200202DE9F05F26484168F1B3DFF8F0
:10A7A00098B00E688146DBF8004087688078E11B2E
:10A7B00021F07F45ED1CB0B9DFF880804FF4803088
:10A7C000C8F84403C8F804031120FEF7DDFE112089
:10A7D000FEF7E5FE4FF0010AC8F800A02F2000F0B8
:10A7E0000FFE89F802A0B54200D23546124BE81997
:10A7F0003C3320F07F401860DBF800105A46091BFC
:10A8000021F07F41001B20F07F40C91C81420FD9FD
:10A81000106818602F2000F0F3FD00E004E0BDE8B0
:10A82000F05F1120FEF7C6BEBDE8F05F02F006B88B
:10A83000BDE8F09FB82F0020041501400010014032
:10A840002DE9F04117880646B81D14460D4698427A
:10A8500002D90C20BDE8F0813188072206290AD3ED
:10A860004FF4486C4FF6FF73614501D9994202D10C
:10A870007088062801D21046ECE7604501D998425D
:10A88000F9D1994203D0984201D08142F3D80520F2
:10A89000E85520881221401C80B22080295420884D
:10A8A000401C80B220804119308802F055FB21887D
:10A8B000084480B220804119708802F04DFB218845
:10A8C000084420800020C5E7FFF726B938B54A7A4A
:10A8D0000F4B62B100220A725969002906D0012289
:10A8E0008DF80020ADF802006846884738BD0A7A26
:10A8F00062B19B684C68024619462046FFF754F93E
:10A900000028F3D0BDE8384002F0B2B85B68F1E748
:10A91000AC3100202DE9F05F0025DFF8A48043E092
:10A920006068002100EBC506012032789146FEF7F1
:10A930001FFDD4E9062300EA020701EA030C57EAE7
:10A940000C072FD0C7433A408B434846C4E906233F
:10A9500000F0C4FE32784FF0000A81469346012091
:10A960005146FEF705FDD4E9042300EA020401EA9A
:10A9700003075A4648465146FEF7FAFC44404F400A
:10A980003C430FD17078012815D0002289EA0200DB
:10A990008AEAE271084310D00020726812B1C1B295
:10A9A000584690476D1CEDB298F800004446854229
:10A9B000B6D3BDE8F09F0122E8E70120EDE70000F3
:10A9C000982F00200E4910B50A784C780023A24237
:10A9D00012D0521CD2B20A70022A00D10B70084A5F
:10A9E0000B780C3252F8232002608868104420F063
:10A9F0007F408860012010BD0360002010BD000072
:10AA0000B82F00202DE9F0418046024601200021A8
:10AA1000FEF7AEFC1A4F05460E463868FFF708F9F8
:10AA200000280CD1174CD4E9062110462A4001EA2F
:10AA300006031A4305D0A843B143C4E90601BDE8A3
:10AA4000F081404600F04AFE30B1D4E904012843C9
:10AA50003143C4E9040105E0D4E90410A943B0433B
:10AA6000C4E90410D4E9060128433143C4E90601CE
:10AA7000A1683868BDE8F0410022FFF795B80000F2
:10AA8000B0D10100982F0020084A002101EB81037A
:10AA900032F82330834204D101EB810002EB8000C5
:10AAA0007047491C0429F1D3002070475C31002015
:10AAB0002DE9FC5F0E008346DDE90C47C6F100007E
:10AAC00098469246814600D40846012503E000BF1F
:10AAD00090FBFAF06D1C5045FADAA84500D94546BE
:10AAE00024B1002E01DB780700D5641EB80702D51B
:10AAF000B8F1000F0AD0F80708D13CB1A54205D241
:10AB000020215846641EFFF71FFDF6E7002E02DAEB
:10AB10004E462D2102E0780703D52B215846FFF73A
:10AB200013FD07F0030002280BD1B8F1000F08D184
:10AB30003CB1A54205D230215846641EFFF704FD02
:10AB4000F6E7CDE90047434652463146584602F003
:10AB500009FABDE8FC9FF0B58488A518944200D896
:10AB60002246A41AC288D6189A4200D81346D21A8E
:10AB70004B880788BB420CD34088834209D8888819
:10AB8000A04206D3A84204D8C888904201D3B0425C
:10AB900001D90020F0BD0120F0BD30B58FB00546D1
:10ABA0001C216846FEF711FC00249DF8000001946A
:10ABB00040F00A008DF80000039404940594069474
:10ABC000A87C8DF8360041F22550ADF834000C9485
:10ABD0009DF83000142120F00F00401C20F0F00000
:10ABE00010308DF830009DF8310020F00F00401C2F
:10ABF00020F0F00010308DF831009DF8320020F088
:10AC00000600801C20F019008DF8320007A8FEF71E
:10AC1000DCFB0DA807900CA808900120ADF82400DB
:10AC2000ADF82640ADF828000B942888AB1C07AA85
:10AC30006946A2DF0FB030BD70B505460B4C032648
:10AC40004FF002003AB1FFF72BFC20882A4606EBB2
:10AC5000004007A106E0FFF71BFC20882A4606EB10
:10AC600000400BA1BDE8704001F0D8B97030002061
:10AC70005265636569766564204C4544204F4E20DB
:10AC800066726F6D206C696E6B20307825782100BC
:10AC90005265636569766564204C4544204F46469D
:10ACA0002066726F6D206C696E6B2030782578217C
:10ACB0000000000006490120086006480168C1F351
:10ACC00000410029FAD10449002088707047000033
:10ACD0000C00004018040040803200201721018041
:10ACE0004180002101714171704700002DE9F0475A
:10ACF000394E002780463D46DFF8E090D6F804A0A4
:10AD000057E003D00446D0F81C8035E099F80020C5
:10AD100002EB4201521CD2B289F8002009EBC101BA
:10AD200099F80230091D9A4201D189F8005048680B
:10AD30000A780446012A12D0022A02D0032A3BD103
:10AD400008E001F0D1FF00B10127257434E005745B
:10AD5000C06900E070680028F9D170602CE0207CA8
:10AD600050BB88686060C868A0600869E060486996
:10AD7000A061F07800B165606268B168184B501A44
:10AD800020F07F40984202D2A168084406E0881A69
:10AD9000A16820F07F40814202D9081A206000E0BB
:10ADA000256065600120A56020742046E56101F002
:10ADB0007DFFB8F10000A4D199F8001099F80100C6
:10ADC0008142A3D117B97168514502D00120BDE875
:10ADD000F0870020FBE70000B82F00202833002078
:10ADE000FFFF7F0070B588B0214800F0F5F92048DA
:10ADF000001F064600F0F0F91E4DD5E9014105E0BF
:10AE0000C0F3891202EB9050641C044404EA010070
:10AE100005EB8000C0688207F2D000200DF1080227
:10AE200004EA010305EB8303641CDB6842F820306D
:10AE3000401C0228F4D3029800F00300012808D037
:10AE400002280AD10298032101EB905004EB9004F0
:10AE500003E00298C0F3831004443046002101AAA5
:10AE6000FEF73FFA002800D06C6008B070BD00000B
:10AE70005839002040350020A0B0FFF719FBFEF73D
:10AE800069FE08B1FEF748FE002001F02DF908B177
:10AE9000FEF742FE00F0C4FF40F266620121504816
:10AEA000FEF7C4FD08B1FEF737FE01F061FB08B103
:10AEB000FEF732FE002469460120009401F042FAB8
:10AEC00008B1FEF729FE684601F0BEFA08B1FEF7A8
:10AED00023FE9DF8080043A120F00F00401C20F045
:10AEE000F00010308DF808000D2202A87CDF08B1B8
:10AEF000FEF712FE00945020ADF80000A02001944F
:10AF0000ADF80200ADF804404FF4C870ADF806008B
:10AF100068467ADF08B1FEF7FFFD0021354800F0F2
:10AF2000BCF908B1FEF7F8FD334800903148694696
:10AF30001838FFF74FFA08B1FEF7EEFDFFF748F8B3
:10AF40002E483C2100681E902A481838807C8DF8D5
:10AF50007A006846FEF739FA02208DF800000125D4
:10AF60008DF8025006208DF803003C210FA8FEF753
:10AF70002CFA1EA81490ADF84C500FA96846FEF7A5
:10AF8000B0FF08B1FEF7C8FD1C216846FEF71DFAA8
:10AF90004FF42020CDE9004080100290032618488D
:10AFA0008DF80C600690ADF80E408DF81050684694
:10AFB000FEF7CCFF08B1FEF7AFFD124812A10088E2
:10AFC00006EB004001F026F8FEF7EDFC00F036FF3E
:10AFD0000028FBD13EDF0028F8D0FEF79DFDF5E705
:10AFE000882F00204E6F726469635F426C696E6BDC
:10AFF00079000000B830002039AC010080D1010098
:10B00000C9A80100703000204D756C7469706572BC
:10B010006970686572616C206578616D706C65201F
:10B02000737461727465642E0000000070B514467C
:10B0300082880E4605462088111D0144921C9942C3
:10B0400001D8FE2A01D90C2070BD521C3254208830
:10B05000FF21401C80B2208031542088401C80B2E7
:10B0600020808119288801F077FF2188084480B268
:10B070002080AA8842B1A96841B13044FEF78CF91A
:10B080002088A98808442080002070BD072070BD5A
:10B090002DE9F047C7880446181D16468946B0FBBF
:10B0A000F7F1B0FBF7F207FB12009A193A44D21CF1
:10B0B000B2FBF7F2DDF820A001E02468491E002968
:10B0C000FBD13D1A8846B54216D818E0BAF1000FF8
:10B0D00005D0211809EB08002A46091D04E0204488
:10B0E00009EB08012A46001DFEF756F900202468E6
:10B0F000761BA844B74201D9354600E03D46002EF4
:10B10000E4D1BDE8F087000030B5024669B101F036
:10B1100019F80021084C0BE001EB410304EB830319
:10B1200015685B88AB4202D11160002030BD491C1C
:10B130008142F1D3052030BD34300020F8B50E46F1
:10B14000017814460546012901D1687830B120887C
:10B15000821C9A422DD8012902D006E00720F8BDB2
:10B1600069780144891C994223D8181A801E87B235
:10B17000ADF800702188B01C084469467DDF0028C6
:10B18000EDD12878022805D1BDF80010B94201D8C8
:10B1900009210AE00821012805D16878B84202D8BF
:10B1A000ADF8000001E0ADF80070BDF80000FE2829
:10B1B00001D90C20F8BD2288401CB0542088401CC6
:10B1C00080B2208031542088401C2080BDF80010BF
:10B1D000084420800020F8BD08B501216A46FEF72A
:10B1E00073F8009808BD38B5044600258DF8005066
:10B1F0006846FEF72DFD21686268086890420ED906
:10B20000401E08600178238AE26801FB0325227A48
:10B210002168101AC0B20A79824200D208719DF8E2
:10B220000000FEF739FD284638BD38B50546002038
:10B230008DF800000C466846FEF70AFDE868298A8A
:10B24000201AB0FBF1F12A681068431C13600170EA
:10B250009DF80000FEF720FD38BD10B530B1017A31
:10B2600042680368891AC9B21A6006E00E2010BD50
:10B2700003681A68541C1C601170491EC9B2F7D2C9
:10B28000006800210171084610BDC20800F00703E4
:10B290000120895C98400840704770B5040012D0C6
:10B2A00017202162208060801B202071002505EB83
:10B2B000450004EB4000801DFFF710FD6D1C042DC0
:10B2C000F5D3002070BD0E2070BD00002DE9FC47B5
:10B2D0000C46014680880746042879D20A88012650
:10B2E000DFF8F0904FF00008102A06D0112A23D082
:10B2F0003A2A29D0552A50D14CE000EB400204EB09
:10B300004205C97BAD1D012901D1218829802988E9
:10B310006A88914241D99EDF020009D0112A09D0E2
:10B32000B9F800002C4906EB004000F077FE34E04D
:10B330006E7132E02E7130E007EB470004EB400005
:10B34000801DFFF7CBFC28E0488907EB470104EBA1
:10B35000410535F8061F814200D808466880172845
:10B3600000D217206880206A78B1687968B11B49DB
:10B37000D1E90001CDE90001ADF802706888ADF8AF
:10B380000400226A20466946904785F8058085F8C2
:10B39000048002E0204601F0B1F907EB470004EB1E
:10B3A0004004A07A002813D0E18838469EDF0200CE
:10B3B0000BD0112A0CD0B9F8000002B006EB004007
:10B3C000BDE8F047044900F029BE84F80A80E6721F
:10B3D000BDE8FC873430002038D401008CD1010056
:10B3E00000F180400068002800D00120704708B5B7
:10B3F00000F18040002101600068009008BD00005D
:10B4000000283ED01F49204A096800BF00BF00BF86
:10B4100000BF00BF00BF00BF00BF91422FD000BFE0
:10B4200000BF00BF00BF00BF00BF00BF00BF00BF24
:10B4300000BF00BF00BF00BF00BF00BF00BF00BF14
:10B4400000BF00BF00BF00BF00BF00BF00BF00BF04
:10B4500000BF00BF00BF00BF00BF00BF00BF00BFF4
:10B4600000BF00BF00BF00BF00BF00BF00BF00BFE4
:10B4700000BF00BF00BF00BF00BF00BF00BF01385A
:10B48000C3D17047303000200024F40070B50F4C59
:10B490000025207808B1852516E00021A1606160B3
:10B4A0002161E1604FF0E020D0F80001012610F0AA
:10B4B000010F03D10721002000F022F801F0A0F8CD
:10B4C00008B9034806602670284670BD8032002007
:10B4D0001805004008B500208DF800006846FEF70A
:10B4E000B7FB0648C168491EC160C06808B9FFF7CC
:10B4F000E1FB9DF80000FEF7CFFB08BD8032002085
:10B500004907090E002806DA00F00F0202F1E022D6
:10B5100082F8141D03E000F1E02282F8001400F02C
:10B520001F02012191404009800000F1E020C0F895
:10B530008012C0F80011704710B5044601F01AF9E6
:10B5400028B12046BDE81040002100F065BB204630
:10B5500001F01CF900280FD02046FFF7FFF8074A3A
:10B5600002EB8001D1F8103523F00103C1F810354A
:10B5700001218140C2F8081310BD000000600040A6
:10B580002DE9F0418846054601F0F4F8234E0028E5
:10B5900028461AD0FFF7E2F8304490F848008009B6
:10B5A000032802D001280ED007E04FF0A040D0F8C9
:10B5B0001005E84010F0010F05D003212846BDE832
:10B5C000F04100F029BB0221F8E701F0DFF8002884
:10B5D00022D02846FFF7C2F804464FF4807000EBF3
:10B5E00084000F4F81B207EB8400D0F8102542F0A1
:10B5F0000102C0F81025084600F03EFBB8F1000F2C
:10B600000AD02846FFF7AAF856F82000002803D0F1
:10B610000120A040C7F80403BDE8F0819432002067
:10B62000006000402DE9FC41DFF8A480044608EBEF
:10B630000400002790F930001346C0170E46401C46
:10B6400001D0082741E0F27819462046FFF762F85A
:10B650000546401C38D0B07850B14FF0A04000EB08
:10B660008400D0F8001721F00201C0F8001707E0AD
:10B6700000217378204600910A46019100F08CFA6F
:10B68000F078C0B11348317800EB8500D0F8102570
:10B69000114B1A40C0F810254FF4F8524FF44033C4
:10B6A00002EA042203EA01410A43D0F810150A43D2
:10B6B000C0F8102509E008EB0500327810F8481FA3
:10B6C00041EA8211017000E004273846BDE8FC81A0
:10B6D0009432002000600040FFE0FCFF4FF0A041EA
:10B6E000D1F81015C14011F0010000D001207047C1
:10B6F00070B5144D95F8540008B1082070BD0020B5
:10B70000411E2A18401CC0B282F830102028F8D3FD
:10B7100000242046FEF7F0FF641CE4B20C2CF8D3A2
:10B7200007210620FFF7ECFE4FF4BE7000F0A4FAEC
:10B7300005494FF00040C1F80403012085F854008A
:10B74000002070BD9432002000600040034890F853
:10B750005400002800D001207047000094320020DF
:10B760000121B1EB507F01D10120704700207047CB
:10B770002DE9F04105460F4600791F49C0EBC00096
:10B7800001EB80041646E07E10B10820BDE8F08190
:10B7900039462846FEF79AFA666038692060F6B1A5
:10B7A0003E7F4FF48871286800F0A1FF4FF490713C
:10B7B000286800F09CFF4FF49271286800F097FF12
:10B7C0004FF4A271286800F092FF28680B49C0F876
:10B7D000041328683146000B40B2FFF791FE286839
:10B7E0000821C0F800150020E0752076A075012121
:10B7F000E176A076CAE70000EC32002010030200D8
:10B800002DE9F04704460079254FC0EBC00007EB57
:10B81000800590460E460846FFF7A2FF30B120464D
:10B8200000F040F820B11120BDE8F0871020FBE7C0
:10B8300085F816804FF00008AE60A5F814802079D6
:10B840004FF49079C0EBC00007EB800546464946AF
:10B85000206800F04CFF4FF4AC773946206800F0C8
:10B8600046FF2068A97DAA68C0F84425C0F848159D
:10B87000206801218160686880B9CA46B94651468E
:10B88000206800F02FFF07464946206800F02AFF95
:10B890000743F4D000B10F2685F816803046C3E781
:10B8A000EC32002000790549C0EBC00001EB8000BC
:10B8B000807D002800D0012070470000EC3200207D
:10B8C0002DE9F041024600792549C0EBC00001EBAB
:10B8D000800710684FF00008C0F80085786880B1D4
:10B8E00010682049C0F8081310680121000B40B20D
:10B8F00000F01F0399404009800000F1E020C0F8EB
:10B9000080111068D0F80C35D0F81465D0F80855BF
:10B91000D0F810454FF0FF31C0F80C15C0F81415E1
:10B920001068C0F80815C0F81015581C02D0184649
:10B9300000F056F9701C02D0304600F051F9601C3E
:10B9400002D0204600F04CF9681C02D0284600F0D6
:10B9500047F987F81B80C7F80480BDE8F081000034
:10B96000EC320020100302000FB408B5039900293F
:10B9700004D004AA00926A4600F00FF801B05DF806
:10B9800014FB10B582680446002A05D0D4E90403EC
:10B99000216898470020A06010BD2DE9FC47914622
:10B9A0000C00804676D014F8011B39B125290ED041
:10B9B0004046FEF7C9FD20780028F4D198F80C0025
:10B9C000002867D04046BDE8FC47FFF7DABF0020FB
:10B9D000012221782B291BD02D2902D0302908D112
:10B9E00002E040F0010001E040F00200641C002A87
:10B9F000EFD100252A290ED02178A1F130020A2AA0
:10BA000011D205EB850201EB4205641C303DF1E7E4
:10BA100040F00400EAE7D9F800100B1DC9F8003027
:10BA20000968641C0D44217800232E290BD114F8D9
:10BA3000011FA1F130020A2A05D203EB830201EBB8
:10BA40004203303BF3E76C290DD068290BD06929FC
:10BA500021D00BDC252918D0582931D063290ED0EC
:10BA6000642915D117E014F8011FECE7702969D09B
:10BA7000732932D075291BD0782909D120E0D9F853
:10BA80000000011DC9F8001001784046FEF75CFD7A
:10BA9000641C90E76CE0D9F800100A1DC9F800207A
:10BAA0000968CDE900500A224046FFF701F8EFE7A8
:10BAB000D9F800100A1DC9F8002009680A2206E01A
:10BAC000D9F800100A1DC9F8002009681022CDE934
:10BAD0000050404601F046FADAE7D9F80010002796
:10BAE0000A1DC9F800200E68C00705D112E04046C3
:10BAF000761C7F1CFEF728FD31780029F7D104E081
:10BB0000202140466D1EFEF71FFDBD42C0D9002D0D
:10BB1000F6D1BDE74EB13046FDF762FC074604E0C2
:10BB2000202140466D1EFEF70FFDBD4206D9002DB7
:10BB3000F6D103E04046761CFEF706FD3178002979
:10BB4000F8D1A5E7D9F80000011DC9F80010056873
:10BB500030214046FEF7F8FC78214046FEF7F4FC21
:10BB600008200021CDE90001034610222946B0E754
:10BB7000BDE8FC8770B541EA4201DDE904564FF0AB
:10BB8000A04441EA830141EA052104EB800041EA37
:10BB90000641C0F8001770BD70B541EA4201DDE909
:10BBA00004564FF0A04441EA830141EA052104EB29
:10BBB000800041EA0641C0F8001770BD70B541EA47
:10BBC0004201DDE904564FF0A04441EA830141EA15
:10BBD000052104EB800041EA0641C0F8001770BD62
:10BBE0001CB5002100910B4601220191FFF7E6FFF1
:10BBF0001CBD1CB500220B46009211460192FFF7B6
:10BC0000DDFF1CBD1CB5002100910B4601220191F6
:10BC10001146FFF7D3FF1CBD4FF0A04202EB80009E
:10BC2000D0F8002722F44032C0F80027D0F80027CF
:10BC300042EA0141C0F80017704701224FF0A043CB
:10BC4000824011B1C3F808257047C3F80C2570472E
:10BC500018B5084B6C4601441B68009306E000BF12
:10BC600054F82030D3F81035401C08C28142F7D870
:10BC700018BD0000ACD10100034908B508440021FB
:10BC800001600068009008BD006000400249405813
:10BC9000012800D0002070470060004030B5124BF2
:10BCA00001460020D3F81044224609E0157A854267
:10BCB00005D1401C0A28F7DB4FF0FF3030BD526839
:10BCC000002AF3D1421CF9D00872D3F810242AB10B
:10BCD00052684A60D3F81024516030BD0022C3F886
:10BCE00010144A6030BD000040350020F0B595B01A
:10BCF0001C4615460F4608461A9E00F0F3FA182116
:10BD000009A8FDF762FB0E96CDE90954002308222D
:10BD100003A9384600F000FB059806900498ADF89A
:10BD20001C0000208DF820000398082600F0030076
:10BD3000012802D002281DD03CE003983346850A32
:10BD4000C0F3C2008DF81E0003980FA9C0F3800055
:10BD50008DF81F000398C0F38314A200384600F04A
:10BD6000DBFA09A8009006AB22460FA9284600F08E
:10BD700015FA1FE00398840DC0F3C2008DF81E0071
:10BD80000398C0F380008DF81F00082C01D22546CF
:10BD900000E0082533462A460FA9384600F0BCFAD1
:10BDA0002E44641B09AB06AA29460FA800F046F9E9
:10BDB000002CEAD1384600F09EFA15B0F0BD70476D
:10BDC000012001F025B8000010B50448FFF778FD08
:10BDD000BDE81040002001F01BB80000D02F00206B
:10BDE00008B5034A00924023024AFFF77FFF08BDCF
:10BDF00081CA010040340020084A012902EBC0003A
:10BE000005D0022903D0032903D0042903D0002040
:10BE100070470079704740797047000028DA0100C8
:10BE200010B5FFF7CDFF04210348FFF737FF0249A4
:10BE30000120487210BD0000D82F00202DE9F04FDE
:10BE40008DB0FEF791FB18B100200DB0BDE8F08F6A
:10BE50006E480021C0F81814BFF34F8FD0E9014697
:10BE600004EA060100EB81014FF000090AE000BF7F
:10BE7000C1F3891202EB9151641C0C4404EA0601DF
:10BE800000EB8101C9688A07F2D0002103AA80462D
:10BE900004EA060008EB8000641CC06842F8210038
:10BEA000491C0229F4D3039800F00300022802D0B1
:10BEB00001284BD0A4E003985022810D8A46B2EBB2
:10BEC000905F00D850210D4665F39F5003900831D4
:10BED0004F4800F0BEF9070075D000F003FA4B465A
:10BEE000082203A9384600F01DFA04EA0601701A78
:10BEF0008000001D09F1080B854220D9434E0C3605
:10BF000030B1C2B208EB8101281A91460C3104E02D
:10BF10003146EAB2002691463046C5B25B46384605
:10BF200000F000FA0BEB090326B12A4631463846E9
:10BF300000F0F8F90AF1030004EB90043AE008EB92
:10BF400081015B462A4638460C31F1E70398C0F37D
:10BF50008310062800D30620039960F38911C1F3EA
:10BF60008310801C03918100294800F072F90700BA
:10BF700046D000F0B7F94B46082203A9384600F036
:10BF8000D1F909F1080900250EE000BF04EA060016
:10BF900008EB80014B46042238460C31641C00F04B
:10BFA000C1F909F104096D1C0398C0F38310A8427C
:10BFB000ECD847B1D8F81054D8F81804464660B108
:10BFC000384600F098F91BE0687A012804D12A6805
:10BFD00028463946126890476D68002DF4D13846DE
:10BFE00000F089F900208DF800006846FDF730FE6A
:10BFF000D6F8180400B974609DF80000FDF74CFEF7
:10C00000FEF7B2FA80F001001FE700004035002083
:10C01000F8D2010000231A4600F0BEBD08B5012386
:10C0200000926A4600F0B8FD08BD1CB5CDE90023BA
:10C0300002236A4600F0B0FD1CBD00002DE9F04768
:10C040000E4680461C46924608293ED894F80C902D
:10C05000002020731946104600F0C2FB0025B542AF
:10C0600006D218F805201AA12046FFF77DFC03E050
:10C0700019A12046FFF778FC6D1C082DEFD317A1FE
:10C080002046FFF771FC0025B54210D218F8057064
:10C09000FDF77EF90068C05D10F03E0F01D03A4612
:10C0A00000E02E220EA12046FFF75EFC03E00DA16A
:10C0B0002046FFF759FC6D1C082DE5D301222146CF
:10C0C000504600F06FFB84F80C90BDE8F08700004C
:10C0D0002025303278000000202020007C00000065
:10C0E0002563000020000000114810B5FF21816089
:10C0F000002101604160C0F81814C0F8141480F8E1
:10C100001C140C4800F0F5F800280FD10A480B4920
:10C110000B4B401AC108002005E000BF00EB4002B5
:10C1200023F82200401C8842F8D3002010BD0000F4
:10C1300040350020F8D2010070DA010028DA010051
:10C140003430002002480349401AC00870470000FC
:10C1500070DA010028DA010013B56846FEF7D4FF53
:10C1600008B100201CBD0248009950F831001CBDE8
:10C1700028DA010070B508480125D0F8104480F88D
:10C180001C5405E065722168204649688847646848
:10C19000002CF7D170BD0000403500202DE9FF478D
:10C1A00081460C9D00200C462F7B2873984616462E
:10C1B0002946184600F014FB072E42D2DFE806F0AD
:10C1C00004090F161F2A360049462846FFF7CCFB04
:10C1D00037E0494628462268FFF7C6FB31E0D4E93C
:10C1E000002349462846FFF7BFFB2AE0A0680090DD
:10C1F000D4E9002349462846FFF7B6FB21E0D4E9FD
:10C200000201CDE90001D4E9002349462846FFF7A1
:10C21000ABFB16E004F1080007C88DE80700D4E97D
:10C22000002349462846FFF79FFB0AE004F1080077
:10C230000FC88DE80F00D4E9002349462846FFF7D0
:10C2400093FB00222946404600F0ACFA2F73BDE86C
:10C25000FF872DE9F041058A80462D1F4819C01C33
:10C26000B0FBF5F0C6B24046FEF7BDFF041E19D084
:10C270000020207101206071E58000272546761E90
:10C28000C4F800800BE04046FEF7ADFF60B1617975
:10C29000491C6171286005467F1CC0F80080B742C8
:10C2A000F1D32046BDE8F081204600F002F80020DE
:10C2B000F8E72DE9F041457901466B1E002201E0C7
:10C2C0000968521C9A42FBD30F680146002605E01C
:10C2D00038460C68FEF7A9FF2146761CAE42F7D31C
:10C2E000BDE8F08108B501216A46001DFCF7C5FFD5
:10C2F00008BDFEF7B2BF38B50446001D01216A46ED
:10C30000FCF7C8FF009810F0FF0F04D12046BDE8ED
:10C310003840FFF7CEBF38BD38B501240094FEF792
:10C32000B7FE38BD38B500240094FEF7B1FE38BD25
:10C3300020B1034909680160002070470E20704752
:10C3400084D301002DE9FE4302460D460846FFF75F
:10C35000EFFF002869D100240094019403208DF898
:10C3600000204FF00408ADF8040002948DF802801C
:10C37000694620202A6869DF2D4F012640B100F070
:10C38000A7F9024638882B4906EB0040FFF746FE26
:10C390000094019402948DF80080694640202A6838
:10C3A00069DF40B100F094F902463888224906EB73
:10C3B0000040FFF733FE0094019402948DF8006072
:10C3C000694601202A6869DF40B100F081F9024620
:10C3D00038881A4906EB0040FFF720FE4FF4B060A2
:10C3E0000090019402946946A1202A6869DF40B157
:10C3F00000F06EF902463888114906EB0040FFF75D
:10C400000DFE0094019402948DF800406946A0202E
:10C410002A6869DF40B100F05BF9024638880949B3
:10C4200006EB0040FFF7FAFD0020BDE8FE830000A8
:10C430008830002024D901006CD9010084D8010083
:10C44000D0D8010030D801002DE9F0410446D0F8E1
:10C4500000E060DF2368144D0646734515D0288838
:10C46000022707EB0040724610A1FFF7DEFDF80639
:10C47000D0F80C012168800200F10050421A28888F
:10C4800016A107EB0040FFF7C9FD56B1304600F09A
:10C490001FF902462888012101EB004018A1FFF78F
:10C4A000BDFD3046BDE8F0818830002052414D206E
:10C4B00073746172747320617420307825782C2035
:10C4C00063616E2062652061646A757374656420BF
:10C4D000746F20307825782E0000000052414D20E6
:10C4E00073697A652063616E2062652061646A7594
:10C4F0007374656420746F20307825782E000000F6
:10C5000073645F626C655F656E61626C652829208B
:10C5100072657475726E65642025732E00000000CC
:10C5200030B593B05FF03805ADF8445011A903A8B9
:10C5300061DF30B1052816D013B0BDE83040FDF7FB
:10C54000EBBA03AC0949684600F07EF807E000BF8B
:10C55000D0E9002120469047684600F08CF8029808
:10C560000028E1D0F4E713B030BD000088D301000B
:10C5700038B5174C207808B1082038BD0125A570C2
:10C58000002000F0D1F9112820D0002000F0E4F9BB
:10C590001048114900680090684610DF0028ECD16F
:10C5A0002570A07060700721162000F071F908B1A5
:10C5B000FDF7B2FA0721152000F06AF908B1FDF77E
:10C5C000ABFA00F0C1FA012000F0C6F9002038BD36
:10C5D0002C3000201CD30100A19A01000EB50749A0
:10C5E000684600F031F805E0D0E900108847684659
:10C5F00000F041F802980028F6D10EBD38D30100B2
:10C6000001480078704700002C3000201FB56846B4
:10C6100048DF30B1052814D004B0BDE81040FDF764
:10C620007BBA084901A800F00FF806E0D0E9002124
:10C630000098904701A800F01EF803980028E6D063
:10C64000F4E71FBDA4D30100016009684160AFF3A6
:10C65000008010B5D0E900215368994201D1002132
:10C6600004E0D1E90034A34202D01946816010BD34
:10C6700008314160F0E7816800290BD002689268B8
:10C680000A44826041684B689A4203D10831416094
:10C69000FFF7DFBF704700000C4A10B502F1F0034E
:10C6A0000EE0991AC91001EBD171491002EBC101DA
:10C6B0000C68844201D90B4602E005D201F1080260
:10C6C0009A42EED3002010BD486810BDDCD10100B5
:10C6D00000B5FFF7E1FF002800D1014800BD0000D0
:10C6E000C8D101004058002800D00120704708B58B
:10C6F000002242504058009008BD00007CB506461C
:10C700008D88C88805EB450106EB4104A41D172858
:10C7100000D217202188814200D80846608000207E
:10C72000207121882846ADDF020007D00E48012184
:10C73000008801EB00400D49FFF770FC607900288C
:10C7400010D1306A00280DD00949D1E90201CDE9A4
:10C750000001ADF802506088ADF80400326A694605
:10C76000304690477CBD0000343000207CD401006E
:10C770008CD101000449084490F93000082801DBFD
:10C78000012070470020704794320020044908447B
:10C7900090F93000082801D201207047002070472E
:10C7A0009432002010B50C46C17949B11AB109A1E3
:10C7B0002046FFF7D9F82046BDE81040FFF7E1B862
:10C7C000007A0028F3D0044804A102682046FFF74D
:10C7D000CBF8ECE70D0A00000830002025730000BC
:10C7E00070B50446C0790D4600281CD1207A50B19E
:10C7F000A179A088FFF700FB0B4951F820200BA17D
:10C800002846FFF7B1F8A0880021FFF7A5FC0346F2
:10C810000549A079143951F820202846BDE8704018
:10C8200003A1FFF7A1B870BD0830002025730000F8
:10C830003C25733E2025733A2000000070B5012688
:10C8400070044FF0E0210025C1F88001084C401031
:10C85000C4F84803C4F8080366602F20FEF7D0FD33
:10C86000A660044C2F20A560FEF7CAFDA57070BD20
:10C8700000100140B82F00201FB501238DF80030B3
:10C880008DF808100192D0E90012684690471FBD4C
:10C8900070B50D460446FDF769F870B12846FDF7FE
:10C8A00077F868B16807000E002C0CDA04F00F016D
:10C8B00001F1E02181F8140D09E042F2010070BDA0
:10C8C00042F2020070BD04F1E02484F8000400206C
:10C8D00070BD000038B50021012558B101280ED0E7
:10C8E00003280BD107210020FEF70AFEBDE83840DF
:10C8F000FEF7F0BD4FF0E020C0F8805138BD8DF854
:10C9000000106846FDF7A4F9064C207808B9FEF738
:10C91000BDFDE068401CE060A5709DF80000FDF7DB
:10C92000BBF938BD803200203EB50446094968464F
:10C93000FFF78AFE08E000BFD0E9002120469047BB
:10C9400030B16846FFF797FE02980028F4D13EBD4B
:10C9500011203EBD20D301003EB50446084968467B
:10C96000FFF772FE07E000BFD0E9002120469047A4
:10C970006846FFF780FE02980028F5D13EBD000012
:10C980002CD3010070B50028049D18D0002916D0C2
:10C99000002A14D05FF0000430F814609E420FD1DA
:10C9A00000200123A34008E001EB800426680DB1BC
:10C9B0001E4300E09E43401C26609042F4D370BDAD
:10C9C000641C202CE8D370BD70B5054600242146B8
:10C9D000284600F00AF808B1204670BD641CA4B2D5
:10C9E000202CF4D34FF6FF7070BD01228A40024222
:10C9F00001D001207047002070472DE9F04192B02E
:10CA000080464FF0000017460D00009012D0002421
:10CA10006E46A1B23846FFF7E8FF40B1009935F8FD
:10CA2000140006EB410188800098401C0090641CB3
:10CA3000202CEED3442269464046FCF7ADFC12B0F0
:10CA4000BDE8F08170B5002506462C46A1B23046FF
:10CA5000FFF7CBFF00B16D1C641C202CF6D32846D9
:10CA600070BD08B5009313460122FFF78BFF08BD88
:10CA700002498969002900D008477047AC3100207D
:10CA800010B5084C0020D2B22070201DFEF7B8FE71
:10CA900008B1FDF741F86078002802D0217800291C
:10CAA000FAD010BDCC2F00202DE9F0410746806A56
:10CAB00014468846C8B3002531E000BFB96A05EBCB
:10CAC000450001EB8006B088801CFE2802D90C20AE
:10CAD000BDE8F0812288401C08F802002088162258
:10CAE000401C80B2208008F800202088401C80B2C2
:10CAF000208000EB0801308800F02EFA21880844DD
:10CB000080B22080B28842B1B16871B14044FCF774
:10CB100043FC2088B188084420806D1CEDB297F852
:10CB20002C00A842CAD80020D2E7FFE70720CFE7B1
:10CB3000002805D10349012048700020FDF716BEEA
:10CB4000704700008032002010B51620FCF70EFF61
:10CB500080B10F4890F800044009FCF719FF60B15C
:10CB60000C4882684FF480016AB1016841F4800189
:10CB7000016010BD42F2010001E042F20200BDE896
:10CB80001040FCF7C9BF4FF0E020C0F8001110BD05
:10CB900016E000E0343400202DE9F843224C8846AA
:10CBA000054691461F4669461846A668FDF7A0FC53
:10CBB00088B3009800EA060104EB810252F80C1FCA
:10CBC00021F00301491C401C11605FEAC56C02D5CD
:10CBD00041F0040101E021F0040165F3C50167F3B0
:10CBE000891168F39F21116000EA0602290C04EB09
:10CBF0008202401CD160009000200AE0009959F8A0
:10CC0000203001EA060204EB8202491CD360401C7A
:10CC10000091B842F2D394F81C0401E0FFF70EF93A
:10CC20000028FBD1BDE8F883403500202DE9F84FFE
:10CC30001D4C00256846D4E901A6FDF7C3FE002778
:10CC400038B30023009A61681CE0D1F800C00846A0
:10CC5000944503D9ACEB02020A6015E0A2EB0C028A
:10CC600063440760D0F80CC0C1698146BCF1000F75
:10CC700008D006EB030828F07F48C0E9018CC9F80A
:10CC80001C5005460029E0D128466160FEF72EF8C9
:10CC900003E02846FEF72AF810B15046FDF77AFD6A
:10CCA000E770BDE8F88F0000B82F00200D4B10B5DD
:10CCB000596831B102680C68A24204D8A21A0A600D
:10CCC000C161586010BD0B4603E00B46C969121BD9
:10CCD00021B10C689442F8D3A41A0C600260C161BF
:10CCE000D86110BDB82F00202DE9F041144E7768AF
:10CCF0003D462C4603E0844204D02546E469002CDE
:10CD0000F9D11BE0D4B1A5420BD1F869706040B9EC
:10CD10000C49012088600021B160F0702F20FEF7DF
:10CD20006FFB2168E069E86110B10268114401609D
:10CD30007068874202D00120BDE8F0810020FBE747
:10CD4000B82F0020001001407CB5064600240D4697
:10CD50008DF800406846FCF77BFF01A800F090F9D1
:10CD600070B10570094946609DF8040048709DF84F
:10CD70000000FCF791FF1420FCF71CFC20467CBD52
:10CD800004249DF80000FCF787FFF7E72833002014
:10CD90002DE9F041194D6C68002C2CD01848002763
:10CDA0000068A968B846401A20F07F462068B04263
:10CDB0000CD82146361A0744E469087C20B181F872
:10CDC0001080886949698847002CEFD129786878F4
:10CDD000814206D1401CC0B26870022801D185F89A
:10CDE0000180064869780C3040F82170BDE8F041B8
:10CDF0001420FCF7DFBBBDE8F0810000B82F002055
:10CE0000041501400149012008707047CC2F002013
:10CE100010B588B0044620220E496846FCF7BCFADB
:10CE200006200090C01F0190029003904FF0EB701D
:10CE300006900CB1084A00E0002269460748FEF758
:10CE400097FC08B1FCF768FE0448001F447008B066
:10CE500010BD0000D8D2010005CE0100D02F002067
:10CE60002DE9FF410C464FF4927706463946FFF70D
:10CE700039FC0025C0B139463046FFF738FC0220A6
:10CE80008DF80000D6F88004C6F880040390D6F828
:10CE90003C058DF80800E0680190E5752576D4E939
:10CEA00000126846904724E04FF4887739463046B0
:10CEB000FFF718FCE8B139463046FFF718FCD6F802
:10CEC0003C05C1B2E07D884213D1207E60B1E268AA
:10CED000D6F8000220F02000C6F80002207EE0759F
:10CEE0002069E060257601E0E575E2682046FFF7FD
:10CEF000C3FC4FF4A27739463046FFF7F3FB68B125
:10CF000039463046FFF7F3FBE07D38B1E575D6F8DA
:10CF10003C05E268C1B22046FFF7AEFC4FF49077C3
:10CF200039463046FFF7DEFB002813D0394630463D
:10CF3000FFF7DDFBA07D00280CD0D6F84C058DF85E
:10CF400000508DF80800A0680190A575D4E9001282
:10CF500068469047BDE8FF810870000A48700220CB
:10CF6000704700002DE9F05F8346DDE90A4A9946E3
:10CF700090460D460846012703E000BFB0FBF8F0DD
:10CF80007F1C4045FAD2B94500D94F465FEACA70C6
:10CF900012D18CB15FEA8A7002D5B9F1000F01D0CD
:10CFA000202607E0302605E031465846641EFDF78E
:10CFB000CBFA0CB1A742F7D35FF00106B9F1010F2C
:10CFC00002D9A9F1010903E0B5FBF6F0404502D30F
:10CFD00006FB08F6F2E7DFF83C9000BFB5FBF6F081
:10CFE00000FB165519F800105846FDF7ADFAB6FBD0
:10CFF000F8F6002EF2D15FEACA7009D0002C07D0F3
:10D00000A74205D220215846641EFDF79DFAF5E798
:10D01000BDE8F09FB8D10100F8B5054680B2FDF734
:10D0200033FD040013D0154E207A0027317B88424F
:10D030000ED2A8B204F10A0175DF28B1112806D07A
:10D04000BDE8F840FFF714BD207A401C2072F8BDFF
:10D050002772307C38B1A8B23B2176DF18B108289E
:10D0600001D0FFF705FD71690029F0D08DF800703F
:10D07000ADF8025068468847F8BD0000AC3100208A
:10D080000A494A788B78521CD2B2934200D10022CE
:10D090000B78934201D1002070470270487800EB72
:10D0A000400001EBC000001D704700002833002045
:10D0B0002DE9FC411646DDE90854CDE900541F4630
:10D0C0008046022200F00CF8002807D1CDE9005478
:10D0D0003B4610223146404600F002F8BDE8FC8194
:10D0E0002DE9FC5F0026DDE90C4B994692468E4601
:10D0F00080462788354630E0D8F80400002200EB4F
:10D10000850069460068019001A864DF002830D1DD
:10D110009DF8000050451FD10EB1002100E0022112
:10D12000228808441118594522D846B9521C90B299
:10D13000208009F800E02088401C208001262188FA
:10D1400001A801EB0902694664DF002811D120889B
:10D150009DF80010084420806D1CB8F80000A8421B
:10D16000CADC56B12088C01B401E80B2FF2802D9FD
:10D170000C20BDE8FC9F09F807000020F9E700003B
:10D1800023150000111213140D0E0F10770A000062
:10D1900000000000770A00000000000023D1BCEA74
:10D1A0005F782315DEEF121200000000000000502F
:10D1B0000833002003000000303132333435363775
:10D1C0003839414243444546556E6B6E6F776E2049
:10D1D0006572726F7220636F64650000000000006A
:10D1E00098D701000100000058D60100020000009D
:10D1F000D8D4010003000000CCD6010004000000D8
:10D2000020D701000500000018D60100060000002C
:10D21000B8D501000700000008D701000800000091
:10D220002CD601000900000078D601000A00000099
:10D2300080D701000B000000C0D401000C000000EA
:10D2400044D601000D000000A4D701000E0000002C
:10D25000F8D601000F00000034D7010010000000D4
:10D2600068D7010011000000B8D70100800000005D
:10D27000F8D50100810000007CD50100820000008B
:10D280003CD50100830000001CD501008400000093
:10D2900058D5010085000000D0D5010086000000AF
:10D2A000E0D601009000000098D501009100000038
:10D2B000FCD401000082000048D701000182000078
:10D2C00094D6010002820000B0D60100E1BD010049
:10D2D000C9BD0100BFBD0100FFFFFFFFFFFFFFFF52
:10D2E000FFFFFFFFFFFFFFFF000000000000000046
:10D2F0000000D60107010000EC2F0020E42F0020E1
:10D30000EC2F0020803400201800000000000000F6
:10D310000000000000000000000000000100000705
:10D320000CD301001CD301000800000044D301000D
:10D3300054D301000800000054D3010064D301005D
:10D3400008000000B0DA0100B8DA010000000000B7
:10D3500000000000A0DA0100B0DA010000000000C7
:10D360000000000070DA010078DA010078DA0100CC
:10D3700088DA010088DA010090DA010090DA010011
:10D3800098DA0100882F002064D3010084D30100C3
:10D390000800000098DA0100A0DA01000000000097
:10D3A0000000000094D30100A4D301000800000095
:10D3B00000404040404040404040414141414140A8
:10D3C000404040404040404040404040404040405D
:10D3D00040050202020202020202020202020202EC
:10D3E00002202020202020202020200202020202F1
:10D3F0000202909090909090101010101010101049
:10D400001010101010101010101010100202020254
:10D410000202888888888888080808080808080898
:10D420000808080808080808080808080202020294
:10D4300040000000B1D3010073645F626C655F67F8
:10D44000617474635F65786368616E67655F6D744E
:10D45000755F7265717565737428292072657475BE
:10D46000726E656420756E6578706563746564209E
:10D4700076616C756520307825782E0073645F6264
:10D480006C655F67617474735F65786368616E670C
:10D49000655F6D74755F7265706C7928292072659F
:10D4A0007475726E656420756E65787065637465F9
:10D4B000642076616C756520307825782E00000038
:10D4C0004E52465F4552524F525F494E56414C496B
:10D4D000445F4441544100004E52465F4552524F12
:10D4E000525F534F46544445564943455F4E4F544F
:10D4F0005F454E41424C4544000000004E52465F9D
:10D500004552524F525F464541545552455F4E4F2A
:10D51000545F454E41424C45440000004E52465F28
:10D520004552524F525F4D555445585F554E4C4FE2
:10D53000434B5F4641494C45440000004E52465F14
:10D540004552524F525F4D555445585F4C4F434BD7
:10D550005F4641494C4544004E52465F4552524F4A
:10D56000525F4D555445585F434F4E445F494E49B5
:10D57000545F4641494C4544000000004E52465F0E
:10D580004552524F525F4D555445585F494E49548C
:10D590005F4641494C4544004E52465F4552524F0A
:10D5A000525F4150495F4E4F545F494D504C454D7D
:10D5B000454E5445440000004E52465F4552524F7E
:10D5C000525F4E4F545F535550504F525445440094
:10D5D0004E52465F4552524F525F4D4F44554C4557
:10D5E0005F414C52454144595F494E495449414C71
:10D5F000495A4544000000004E52465F4552524F82
:10D60000525F4D4F44554C455F4E4F545F494E4914
:10D610005449414C5A4544004E52465F4552524F80
:10D62000525F4E4F545F464F554E44004E52465F38
:10D630004552524F525F494E56414C49445F5354F4
:10D64000415445004E52465F4552524F525F44414D
:10D6500054415F53495A45004E52465F4552524F1E
:10D66000525F5356435F48414E444C45525F4D49CB
:10D670005353494E470000004E52465F4552524FA9
:10D68000525F494E56414C49445F4C454E475448C1
:10D69000000000004E52465F4552524F525F4452C6
:10D6A000565F5457495F4552525F414E41434B00CC
:10D6B0004E52465F4552524F525F4452565F545746
:10D6C000495F4552525F444E41434B004E52465FC4
:10D6D0004552524F525F494E5445524E414C000004
:10D6E0004E52465F4552524F525F53544F5241473C
:10D6F000455F46554C4C00004E52465F4552524FD6
:10D70000525F4E554C4C00004E52465F4552524FB0
:10D71000525F494E56414C49445F504152414D0081
:10D720004E52465F4552524F525F4E4F5F4D454DF0
:10D73000000000004E52465F4552524F525F464F26
:10D740005242494444454E004E52465F4552524F64
:10D75000525F4452565F5457495F4552525F4F568D
:10D76000455252554E0000004E52465F4552524FB0
:10D77000525F494E56414C49445F41444452000077
:10D780004E52465F4552524F525F494E56414C49A8
:10D79000445F464C414753004E52465F5355434306
:10D7A000455353004E52465F4552524F525F5449C3
:10D7B0004D454F55540000004E52465F4552524F62
:10D7C000525F4255535900007761726E696E67006F
:10D7D00064656275670000001B5B313B33306D0090
:10D7E0001B5B306D000000001B5B313B33316D0073
:10D7F0001B5B313B33326D001B5B313B33336D00C0
:10D800001B5B313B33346D001B5B313B33356D00AB
:10D810001B5B313B33366D001B5B313B33376D0097
:10D82000696E666F000000006572726F7200000022
:10D8300073645F626C655F6366675F7365742829F4
:10D840002072657475726E65642025732077686533
:10D850006E20617474656D7074696E6720746F20DA
:10D8600073657420424C455F47415454535F4346AF
:10D87000475F534552564943455F4348414E4745EC
:10D88000442E000073645F626C655F6366675F735C
:10D89000657428292072657475726E65642025731D
:10D8A000207768656E20617474656D7074696E6749
:10D8B00020746F2073657420424C455F434F4D4D7B
:10D8C0004F4E5F4346475F56535F555549442E00C0
:10D8D00073645F626C655F6366675F736574282954
:10D8E0002072657475726E65642025732077686593
:10D8F0006E20617474656D7074696E6720746F203A
:10D9000073657420424C455F47415454535F43460E
:10D91000475F415454525F5441425F53495A452E28
:10D920000000000073645F626C655F6366675F732D
:10D93000657428292072657475726E65642025737C
:10D94000207768656E20617474656D7074696E67A8
:10D9500020746F2073657420424C455F434F4E4ED8
:10D960005F4346475F4741502E00000073645F628B
:10D970006C655F6366675F736574282920726574E0
:10D9800075726E6564202573207768656E206174FA
:10D9900074656D7074696E6720746F207365742090
:10D9A000424C455F4741505F4346475F524F4C45AD
:10D9B0005F434F554E542E00626C655F676174740F
:10D9C00000000000636C6F636B0000006770696F9C
:10D9D00074650000756172740000000062616C6C17
:10D9E0006F630000617070006E72665F7364680040
:10D9F0006E72665F7364685F626C65006E72665F0C
:10DA00007364685F736F6300B8DA0100882F0020C9
:10DA1000180100004C990100D0DB0100A03000206B
:10DA2000C01000005C990100B8D90100000003009B
:10DA3000C4D9010000000000CCD9010000000000A2
:10DA4000D4D9010000000000DCD901000000000072
:10DA5000E4D9010000000300E8D901000000030040
:10DA6000F0D9010000000300FCD901000000030010
:10DA7000E1A2010000000000CDB20100B83000209A
:10DA8000E5A10100000000002DA40100A03000204D
:10DA900059A001000000000031CB0100000000008F
:10DAA00021C50100000000000DC6010000000000BB
:10DAB000D5C80100000000000D00030051A60100C0
:10DAC0000000000000000000000000000000000056
:10DAD0000000000000000000000000000000000046
:10DAE0000000000000000000000000000000000036
:10DAF0000000000000000000000000000000000026
:10DB00000020004000000000CCD201000000000016
:10DB10000000000000000000000000000000000005
:10DB2000000000000000000028D80100C8D7010054
:10DB300020D80100D0D70100E0D70100D8D70100DC
:10DB4000E8D70100F0D70100F8D7010000D80100A4
:10DB500008D8010010D8010018D80100000000000A
:10DB60000090D00300000000000000000000000052
:10DB700000000000000000000000000000000000A5
:10DB80000000000000000000000000000000000095
:10DB90000000000000000000000000000000000085
:10DBA0000000000000000000000000000000000075
:10DBB0000000000000000000000000000000000065
:10DBC0000000000000000000000000000000000055
:040000050001920163
:00000001FF
