:020000040001F9
:10900000B0270020159201001D9201001F9201005F
:10901000219201002392010025920100000000002E
:109020000000000000000000000000002792010086
:1090300029920100000000002B9201002D920100F6
:109040001D9501002F9201002F9201002F92010027
:109050002F92010000000000459301002F920100B3
:109060002F9201002F9201002F9201002F920100F8
:109070002F9201002F9201002F9201002F920100E8
:109080002F920100759501002F9201002F9201008F
:10909000999501002F9201009D9501002F920100EA
:1090A0002F9201002F92010000000000000000003C
:1090B0002F9201002F92010000000000000000002C
:1090C00000000000000000000000000000000000A0
:1090D0000000000000000000000000000000000090
:1090E0000000000000000000000000000000000080
:1090F0000000000000000000000000000000000070
:10910000000000000000000000000000000000005F
:10911000000000000000000000000000000000004F
:10912000000000000000000000000000000000003F
:10913000000000000000000000000000000000002F
:10914000000000000000000000000000000000001F
:10915000000000000000000000000000000000000F
:1091600000000000000000000000000000000000FF
:1091700000000000000000000000000000000000EF
:1091800000000000000000000000000000000000DF
:1091900000000000000000000000000000000000CF
:1091A00000000000000000000000000000000000BF
:1091B00000000000000000000000000000000000AF
:1091C000000000000000000000000000000000009F
:1091D000000000000000000000000000000000008F
:1091E000000000000000000000000000000000007F
:1091F000000000000000000000000000000000006F
:10920000DFF80CD000F08CF800480047DDA8010022
:10921000B02700200648804706480047FEE7FEE7E3
:10922000FEE7FEE7FEE7FEE7FEE7FEE7FEE7FEE716
:10923000A1950100019201002DE9F05F0546002093
:1092400092469B4688460646814640241BE02846B7
:1092500041464746224600F053F853465A46C01A44
:10926000914110D311461846224600F016F82D1AE7
:1092700067EB01084F4622460120002100F00DF85F
:1092800017EB00094E41201EA4F10104DFDC484623
:1092900031462A464346BDE8F09F202A04DB203AA7
:1092A00000FA02F1002070479140C2F1200320FA39
:1092B00003F319439040704740EA01039B0703D032
:1092C00009E008C9121F08C0042AFAD203E011F805
:1092D000013B00F8013B521EF9D27047D2B201E0C7
:1092E00000F8012B491EFBD270470022F6E710B5AB
:1092F00013460A4604461946FFF7F0FF204610BD04
:10930000202A04DB203A21FA02F00021704721FADA
:1093100002F3D040C2F12002914008431946704741
:10932000064C074D06E0E06840F0010394E80700B2
:1093300098471034AC42F6D3FFF766FFA4B901009A
:10934000C4B901002DE9F04700268CB0DFF8609128
:10935000B0464FF48075012437460696284601F042
:10936000C1FE38B1D9F80403204203D0284601F0E9
:10937000AFFE26432D1D64007F1CADB2082FEDD338
:109380004FF4BE74204601F0ADFE48B1204601F016
:109390009FFE46F0004606AA0121002001F084FE4F
:1093A000444D16F0FF0F15D00127002437420DD091
:1093B00009EB8401D1F81005D1F81015C0F3042091
:1093C00055F82420C1F3014102B190477F00641C8D
:1093D000082CEBD3002E67DA4FF0FF30CDE9088080
:1093E00000263446281910F8507F90F9000027F025
:1093F000C008401C44D009A9404601F0D9FB58B32D
:109400004FEA9719404600F095FF55F820701FB1BC
:10941000B9F1030F03D00FE0B9F1030F30D108A861
:109420004FEAD80208F00703815C4FF0010C0CFAF8
:1094300003FC41EA0C0181544FF0A04101EB88008C
:10944000D0F8000706A9C0F3014A404601F0B0FB7E
:1094500018B1BAF1020F03D012E0BAF1030F0FD125
:10946000B9F1030F08D1BAF1020F1BD00221404617
:1094700001F0FEFD761CF6B217B149464046B847EA
:10948000641C042CAED3002E0ED06A4601210020AD
:1094900001F00AFE06990098884205D006900898C7
:1094A00009909DE70321E2E70CB0BDE8F0870000DA
:1094B00000600040201E002000F01F0201219140AA
:1094C0004009800000F1E020C0F88012704700F0F1
:1094D0001F02012191404009800000F1E020C0F806
:1094E0000011704700F01F020121914040098000E7
:1094F00000F1E020C0F8001270474907090E00286B
:1095000006DA00F00F0000F1E02080F8141D70472B
:1095100000F1E02080F80014704700002DE9F041D0
:109520004FF48077384601F0E3FB0124104EA50785
:1095300048B1384601F0E3FB0120C5F80803747018
:10954000002000F0A7FF4FF48277384601F0D0FBEF
:1095500000280BD0384601F0D2FB0220C5F80803E2
:10956000B470BDE8F041012000F094BFBDE8F08187
:109570000C1E002007480021C0F84011C0F844111B
:10958000C0F84811C0F84C11C0F80011C0F804111F
:1095900002F0C2B80010014002F00CB801F052BE57
:1095A000F0B5A1480127031D01783A07181D0629C7
:1095B0000BD11C78240708D10478C4F30314032CBE
:1095C00006D0042C04D0052C02D0062907D011E0C7
:1095D000B2F82443954DC4F304242C6002E01C78B7
:1095E000240707D10478C4F30314032C02D1914D4E
:1095F0008F4C6C67D2F844428F4DC4F342342C60D8
:1096000006290CD11C78240709D10478C4F303146B
:10961000032C04D1894C256825F0807525604FF016
:1096200080440025C4F80C51C4F81051824C241F0A
:109630002560062907D11C78240704D10478C4F3D7
:109640000314032C02D0062908D01FE0DFF8E8C17C
:1096500003240CF1640CCCF8004007E01C782407CC
:1096600014D10478C4F30314032C0FD1DFF8D0C154
:109670000524CCF80040724C78342760704C0834D4
:1096800025600CF1040C3F24CCF800406D4C24689C
:10969000DFF8B4C1CCF800406A4C241D24680CF1FA
:1096A000040CCCF80040674C083424680CF1040C1E
:1096B000CCF80040634C0C3424680CF1040CCCF85A
:1096C0000040604C103424680CF1040CCCF80040CD
:1096D0005C4C143424680CF1040CCCF80040594C58
:1096E00018342468DFF860C10CF1200CCCF800407D
:1096F000544C1C3424680CF1040CCCF80040514C40
:10970000203424680CF1040CCCF800404D4C243477
:1097100024680CF1040CCCF800404A4C283424682E
:109720000CF1040CCCF80040464C2C3424680CF1AD
:10973000040CCCF80040434C30342468DFF808C1F6
:109740000CF1400CCCF800403E4C343424680CF151
:10975000040CCCF800403B4C383424680CF1040C69
:10976000CCF80040374C3C3424680CF1040CCCF8A5
:109770000040344C403424680CF1040CCCF8004018
:10978000DFF8C8C0FB24CCF80040062913D11C78B0
:10979000240710D10478C4F30314032C03D0042C41
:1097A00001D0052C07D1D2F85842DFF8A4C004F04C
:1097B0004F04CCF8004027480168C90702D06FF079
:1097C000010101604FF01021D1F80002002803DBF5
:1097D000D1F80402002822DA1F4A17601F480368E4
:1097E000002BFCD01523C1F800320468002CFCD0FB
:1097F000C1F8043201680029FCD015600168002915
:10980000FCD0BFF34F8F0D48F0380168144A01F4C3
:10981000E06111430160BFF34F8F00BFFDE71249C4
:1098200010480860F0BD0000E00F00F04035014036
:109830000DF0ADBA00C007403C050040FCED00E073
:10984000105600400404001020C5004018F50040E8
:10985000E40E00400004004004E5014000E4014043
:109860000400FA050090D003101D002002E008C893
:10987000121F08C1002AFAD170477047002001E08A
:1098800001C1121F002AFBD17047000001212028CE
:1098900003DA81400548014003E0402802DA20381D
:1098A000814009B10120704700207047FC06FFBDD0
:1098B000082806D228B1012803D0042801D00120AD
:1098C000704700207047022000F002BB70B50024F2
:1098D000064D06E06868012110F8340001F0B4FA82
:1098E000641C28788442F5D3002070BDD81C002069
:1098F000F8B515460C460646052A01D20720F8BDE4
:1099000001F088FB18B901F057FB0028F7D1114985
:1099100000224E600C708D60C1E90422C1E906226C
:109920000D4D0DE006EBC4006968009181788DF85B
:1099300001100078094A694601F0D8FA0028DED102
:10994000641EE4B2EED2BDE8F840054A00210248A8
:1099500000F02CB8D81C0020F8B80100E5A60100E2
:10996000F5A5010009480068C00700D000BEBFF39C
:109970004F8F0648E4380168054A01F4E06111435D
:109980000160BFF34F8F00BFFDE70000F0ED00E086
:109990000400FA050EB500210091CDE901106A46D8
:1099A00044F20100FFF7DEFF0EBD0000074B9B787D
:1099B00023B12AB120B10068037C1BB10820704795
:1099C000072070474174426100207047981E0020B4
:1099D00070B501F0DFFC104800240B2104704470C6
:1099E0000E4D817014206C602C706C70FFF764FD5C
:1099F00007211420FFF781FD1420FFF768FD0848B8
:109A0000046007211120FFF778FD0548001F00685A
:109A1000A860002070BD0000981E0020F81C0020E7
:109A2000081501402DE9FC47DFF8789099F80230DD
:109A300073B368B3052902D20720BDE8FC874369E8
:109A400033B3437C012B25D00027044600258846EC
:109A500016468DF80050684600F038F801A801F06D
:109A60009BFEC8B1012101700F4944600968C0E93B
:109A70000218C0E904769DF8040089F801009DF8F9
:109A8000000000F047F81420FFF72CFD2846D4E72B
:109A90000820D2E70F46D8E704259DF8000000F023
:109AA00039F8F3E7981E002004150140064989782B
:109AB00039B130B1416921B100210174022101F0B5
:109AC00007BE082070470000981E002030B5EFF355
:109AD000108172B60D4A9468012324B103700029E5
:109AE00000D162B630BD93604FF0E023D3F88051CF
:109AF000074C25401560C3F88041D3F88441546079
:109B00005A17C3F8842100220270E8E7A41F00203E
:109B1000FC06FFBD0B498A68002A11D000280FD12E
:109B2000EFF3108072B60B684FF0E022C2F80031FC
:109B30004B68C2F8043100228A60002800D162B666
:109B400070470000A41F002010B5084C6068FFF7A4
:109B5000ADFF08B1FFF71EFF2068FFF7A7FF002841
:109B600003D0BDE81040FFF715BF10BD98B8010045
:109B70002DE9FC47002517880646158090F82D0032
:109B80001446894630B13A462146484600F0E5F889
:109B9000050009D1B0784FF00C0A18B32088C846E8
:109BA000001DB84202D95046BDE8FC87684679DFFF
:109BB0000028F9D12088032108F8001020881921F5
:109BC000401C80B2208008F800102088401C80B221
:109BD000208000EB0801BDF8000001F0D7FD2188CE
:109BE00008442080F0780222C8B1218896F9033019
:109BF00001F1030C4846BC45D5D8425421884FF0AA
:109C0000010C491C89B2218000F801C02188491C3F
:109C100089B2218009F801302088401C20807068BA
:109C2000B8B1218890F9003001F1030C4846BC45D9
:109C3000B9D8425421880A22491C89B22180425451
:109C40002188491C89B2218009F801302088401CF4
:109C50002080308950B1CDE900474B4606220221D1
:109C600006F1080001F0B0FD05009DD1308A50B129
:109C7000CDE900474B460722032106F1100001F011
:109C8000A3FD050090D1308B50B1CDE900474B4684
:109C90001522142106F1180001F096FD050083D16C
:109CA000306A30B13B462246494600F05DFC050073
:109CB000DBD1706A30B13B462246494600F0E0FEF7
:109CC0000500D2D196F82C0038B13B4622464946D1
:109CD000304601F0F7FB0500C7D1307838B13B467C
:109CE00022464946304600F0FDFE0500BDD128461B
:109CF0005AE7F0B50C4693B01F210726ADF80010C7
:109D0000ADF80410002750B1C17849070DD56A4657
:109D100002A9FFF72DFF002808D102AD02E00025BF
:109D2000ADF800706CB1E07810B1304613B0F0BD02
:109D300001AA0AA92046FFF71BFF0028F6D10AAAAC
:109D400002E00022ADF80470BDF80400C3B2BDF813
:109D50000000C1B2284672DFE8E77CB505460888F6
:109D60000C460930904201D90C207CBD68466DDF5D
:109D70000028FAD121880820685420881B21401C23
:109D800080B2208029542088401C80B22080284442
:109D9000DDF801100160BDF8051081802088801D6C
:109DA00080B220809DF80010490800D0012129547C
:109DB0002088401C208000207CBD000030B5044677
:109DC0000088384D89B03B283CD014DC11281ED0C7
:109DD00007DC012840D0102801D1A088688009B094
:109DE00030BD1B2829D02128F9D100200090A0885F
:109DF00069468FDF51E0502828D0512830D05228B2
:109E00000FD05628EBD1A088132176DF0EE04FF655
:109E1000FF706880FFF798FE32DF07E0FFF7BAFDBA
:109E2000DDE70323002211466888A9DF0028D6D089
:109E300009B0BDE83040FFF7ADBD207A0028CED193
:109E400032DFF3E7A088132176DFEFE709B0204681
:109E5000BDE8304001F054BAA088002166DFE5E794
:109E60001022A11D04A8FFF727FA9DF81010002961
:109E7000B5D09DF81800042803D0062801D0052885
:109E8000ADD102290CD001208DF800004FF4C17033
:109E9000ADF80400A0886946A8DF0028BED19EE77F
:109EA0000220F1E7B81C0020007800F001007047A4
:109EB0000649095C4FF0A040D0F81005C84010F0EA
:109EC000010000D0012080F001007047B4B801000B
:109ED00007490B5C4FF0A041D1F8042501209840C0
:109EE00020EA0203C1F808351040C1F80C0570479C
:109EF000B0B801000249085C012101F0CAB80000B5
:109F0000B0B801000249085C002101F0C2B80000AD
:109F1000B0B801000649095C4FF0A040D0F8040534
:109F2000C84010F0010000D0012080F0010070470F
:109F3000B0B801007CB50024084E25460122305DF2
:109F4000009500231146019501F06EF8641C042C65
:109F5000F4D3BDE87C4000F003B80000B0B80100C5
:109F600010B500242046FFF7C5FF641C042CF9D36C
:109F700010BD10B500242046FFF7C4FF641C042C5C
:109F8000F9D310BD10B50246064B4FF0FF3000214B
:109F90005C5C944201D1084610BD491C0429F7D3EA
:109FA00010BD0000B4B801002DE9F0470D46814610
:109FB000FFF7E8FF0446042836D2DFF874801B4818
:109FC0001C4EA8F10C0725B3012D0ED0022D2BD16C
:109FD00004EB440030444578002D25D0B9680029B1
:109FE00022D02846BDE8F047084704EB4401755CE1
:109FF0000E44717849B10E4A4FF40041093A806825
:10A00000FFF710FD08B987F80390B17808F804103D
:10A01000E2E78068FFF74AFD04EB4401314418F899
:10A0200004008D78A842D7D0BDE8F087B8B8010009
:10A03000D41C0020E01D002070B50023042810D29D
:10A040000D4D00EB4004012A02D101290CD0002261
:10A05000094E00EB4000304461B1012906D00229CD
:10A0600006D00723184670BD0E30C2B22A55F9E754
:10A070004270F7E78270F5E7E01D002070B50646F4
:10A080001E480024C0E90161B00720D50025012247
:10A0900011462846FFF7D0FF6D1C0446042D02D25E
:10A0A000002CF4D013E094B940F266620421144805
:10A0B000FFF71EFC04000AD1FFF708FC040006D1DC
:10A0C0000F48104A0021001FFFF770FC0446F007FC
:10A0D00001D0FFF72FFF74B909480B4A00210C3853
:10A0E000FFF764FC040006D10548084A012108383E
:10A0F000FFF75CFC0446204670BD0000C81C002031
:10A10000C4B80100C9A2010099A70100C7980100C5
:10A110002DE9F05F6A4C054600266078B34618B119
:10A1200084F801B000F020FB664F4FF47A694FF4D9
:10A13000C87A4FF00108182D62D2DFE805F0AC0CA8
:10A140000C31404D62676B746B74BE7D7D7D7D7D8F
:10A15000ACAFB2B5BEBE0020FFF7DCFE00284FF06A
:10A16000000008D0FFF7C6FE022D02D14FF4E160D7
:10A1700008E0484606E0FFF7C5FE022D01D1C820E1
:10A1800000E05046410CC0034FF4FA72801841F1D0
:10A190000001257052000023FFF74EF801462AE027
:10A1A0000020FFF7B7FE00284FF0000004D0FFF7B3
:10A1B000A1FE4FF44870E5E7FFF7A4FEDFE70020BB
:10A1C000FFF7A8FE00284FF0000002D0FFF792FE34
:10A1D000CFE7FFF797FED4E70020FFF79BFE0028AC
:10A1E0004FF0000002D0FFF785FE01E0FFF78AFE86
:10A1F000257041F69A1100223868FFF713FC0646D5
:10A2000046E00020FFF764FE257008E0002051E0E2
:10A2100025703DE084F801800120FFF759FE0022FF
:10A2200040F6CD41E8E784F801800120FFF750FEB9
:10A2300000224FF48041DFE77868FFF737FC0646DD
:10A24000D5F1110000D02EB10220FFF753FE84F8A3
:10A2500002B01DE0012816D980B2C8214843C117B9
:10A26000C90341EA5041C0034FF4FA72801841F12A
:10A27000000152000023FEF7DFFF0146002278684C
:10A28000FFF7D0FB06460220FFF73CFE84F8028071
:10A290003046BDE8F09F00F067FAB9E700F064FAD5
:10A2A000B4E700F061FA04E000F05EFA0020FFF786
:10A2B00029FE0120FFF726FEAAE7FFF75AFEA7E7CF
:10A2C000C81C0020B8B8010000780221FFF76CBE5E
:10A2D00005494FF0FF32082841F8202002D30844F6
:10A2E00080F8482070470000201E0020F0B54FF095
:10A2F000FF3512B10023082601E008230C260C4C80
:10A3000005E000BF54F823707F1C04D05B1CB342EF
:10A31000F8D32846F0BD26185DB286F8305044F8D0
:10A320002310002AF5D1E11881F84800F1E7000078
:10A33000201E00200249084490F9300070470000B8
:10A34000201E002030B58FB00024054607949DF8EC
:10A350001E001C2120F00600801C8DF81E009DF8B8
:10A360001C0020F00F00401C20F0F00010308DF891
:10A370001C009DF81D0020F00F00401C20F0F00094
:10A3800010308DF81D006846FEF7AFFF9DF8000005
:10A39000039440F012008DF8000007A8CDE90440B6
:10A3A0008DF83A5041F22450ADF838000D949DF8E4
:10A3B0003400019420F00F00401C20F0F000103019
:10A3C0008DF834009DF83500069420F0FF008DF8DC
:10A3D00035009DF83600142120F00600801C20F086
:10A3E00019008DF8360008A8FEF77FFF0EA8089028
:10A3F0000DA809901420ADF82800ADF82C000848ED
:10A40000084B0C90981FADF82A4008AA694680882E
:10A41000A2DF002801D0FFF7BDFA0FB030BD000069
:10A42000741D0020BE1C002000B585B01749142003
:10A43000ADF810004888A0F57F42FF3A23D0097894
:10A44000002920D00021114B01229B1D0091019178
:10A45000ADF810201B88ADF8041004A902910C4936
:10A46000ADF8003003918DF802206946A6DF002880
:10A4700009D0082807D0132805D043F201418842AB
:10A4800001D0FFF787FA05B000BD0000B81C00201E
:10A49000741D002070B5084C050009D010342168E7
:10A4A000002907D008682060496828468847F6E7F1
:10A4B0000834F4E770BD00000C1E00202DE9F05FA9
:10A4C00026484168F1B3DFF898B00E688146DBF8A2
:10A4D000004087688078E11B21F07F45ED1CB0B912
:10A4E000DFF880804FF48030C8F84403C8F80403D4
:10A4F0001120FEF7E1FF1120FEF7E9FF4FF0010AFE
:10A50000C8F800A02F2000F003FC89F802A0B54293
:10A5100000D23546124BE8193C3320F07F401860DA
:10A52000DBF800105A46091B21F07F41001B20F088
:10A530007F40C91C81420FD9106818602F2000F09D
:10A54000E7FB00E004E0BDE8F05F1120FEF7CABFC2
:10A55000BDE8F05F00F01EBFBDE8F09FF81C0020D2
:10A5600004150140001001402DE9F041178806460E
:10A57000B81D14460D46984202D90C20BDE8F08162
:10A580003188072206290AD34FF4486C4FF6FF732F
:10A59000614501D9994202D17088062801D210463E
:10A5A000ECE7604501D99842F9D1994203D098422D
:10A5B00001D08142F3D80520E85520881221401CA3
:10A5C00080B2208029542088401C80B2208041190C
:10A5D000308801F0DBF82188084480B220804119DE
:10A5E000708801F0D3F82188084420800020C5E756
:10A5F000FFF71ABF2DE9F05F0025DFF8A48043E0E4
:10A600006068002100EBC506012032789146FEF714
:10A6100044FED4E9062300EA020701EA030C57EAE4
:10A620000C072FD0C7433A408B434846C4E9062362
:10A6300000F0B8FC32784FF0000A814693460120C2
:10A640005146FEF72AFED4E9042300EA020401EA97
:10A6500003075A4648465146FEF71FFE44404F4006
:10A660003C430FD17078012815D0002289EA0200FE
:10A670008AEAE271084310D00020726812B1C1B2B8
:10A68000584690476D1CEDB298F80000444685424C
:10A69000B6D3BDE8F09F0122E8E70120EDE7000016
:10A6A000D81C00200E4910B50A784C780023A2422D
:10A6B00012D0521CD2B20A70022A00D10B70084A82
:10A6C0000B780C3252F8232002608868104420F086
:10A6D0007F408860012010BD0360002010BD000095
:10A6E000F81C00202DE9F04180460246012000219F
:10A6F000FEF7D3FD1A4F05460E463868FFF7D6F928
:10A7000000280CD1174CD4E9062110462A4001EA52
:10A7100006031A4305D0A843B143C4E90601BDE8C6
:10A72000F081404600F03EFC30B1D4E904012843FA
:10A730003143C4E9040105E0D4E90410A943B0435E
:10A74000C4E90410D4E9060128433143C4E90601F1
:10A75000A1683868BDE8F0410022FFF763B9000046
:10A76000F8B80100D81C00200A4810B5807860B104
:10A77000002401E0022C06D02046FFF7BBFB641C3E
:10A78000042CF7D310BD0324F6E7BDE81040FFF713
:10A79000E7BB0000C81C002003480179C90702D0AC
:10A7A0000078FFF7B5BC7047C81C0020064901209F
:10A7B000086006480168C1F300410029FAD1044944
:10A7C00000208870704700000C0000401804004012
:10A7D0000C1E002017210180418000210171417170
:10A7E000704700002DE9F047394E002780463D466E
:10A7F000DFF8E090D6F804A057E003D00446D0F884
:10A800001C8035E099F8002002EB4201521CD2B2C4
:10A8100089F8002009EBC10199F80230091D9A421C
:10A8200001D189F8005048680A780446012A12D0FC
:10A83000022A02D0032A3BD108E000F019FF00B140
:10A840000127257434E00574C06900E070680028B1
:10A85000F9D170602CE0207C50BB88686060C868CB
:10A86000A0600869E0604869A061F07800B16560A7
:10A870006268B168184B501A20F07F40984202D2AB
:10A88000A168084406E0881AA16820F07F40814250
:10A8900002D9081A206000E0256065600120A560EB
:10A8A00020742046E56100F0C5FEB8F10000A4D197
:10A8B00099F8001099F801008142A3D117B9716885
:10A8C000514502D00120BDE8F0870020FBE70000E1
:10A8D000F81C0020981E0020FFFF7F0092B0002689
:10A8E000FFF776F808B1FFF755F85B4A01215B489E
:10A8F000FFF75CF808B1FFF74DF85848584A0021B7
:10A90000001DFFF753F808B1FFF744F800210320BA
:10A91000FFF7B4FB08B1FFF73DF80020FFF7C8FAD6
:10A92000050003D10120FFF7C3FA064600F054FCEE
:10A9300008B1FFF72FF8002403A90120039400F0C9
:10A94000E3FB08B1FFF726F803A800F01BFC08B1F1
:10A95000FFF720F855EA060003D132DF08B1FFF710
:10A9600019F89DF810003FA120F00F00401C20F0C6
:10A97000F00010308DF81000112204A87CDF08B11F
:10A98000FFF708F801941020ADF804000294ADF828
:10A990000600ADF808404FF4C870ADF80A0001A8F1
:10A9A0007ADF08B1FEF7F6FF0021334800F008F91E
:10A9B00008B1FEF7EFFF304A1E2102F110001461CA
:10A9C00054619461D461E5B1047004722022428123
:10A9D000818141F22350ADF8000020480DF10201C1
:10A9E000083062DF08B1FEF7D5FF244A694601202E
:10A9F000A0DF08B1FEF7CEFF9DF80200FFF7A2FC32
:10AA000005E0032202700472A022428181810524A4
:10AA10003C216846FEF769FC5920ADF83C0018203F
:10AA2000ADF8400014488DF80340343011900FA861
:10AA3000099000216846FFF75CF908B1FEF7AAFF0C
:10AA40000D480121103073DF00E03EDF0028FCD00C
:10AA5000FEF7A0FFF9E70000F1A5010098B801009A
:10AA600081AB01004E6F726469635F506F776572EE
:10AA70005F4D676D74000000541D0020BC1C002059
:10AA800070B5144682880E4605462088111D014483
:10AA9000921C994201D8FE2A01D90C2070BD521C8B
:10AAA00032542088FF21401C80B2208031542088FD
:10AAB000401C80B220808119288800F067FE218820
:10AAC000084480B22080AA8842B1A96841B13044CC
:10AAD000FEF7F2FB2088A98808442080002070BD82
:10AAE000072070BDF8B50E460178144605460129C9
:10AAF00001D1687830B12088821C9A422DD8012972
:10AB000002D006E00720F8BD69780144891C99420B
:10AB100023D8181A801E87B2ADF800702188B01CA7
:10AB2000084469467DDF0028EDD12878022805D148
:10AB3000BDF80010B94201D809210AE00821012816
:10AB400005D16878B84202D8ADF8000001E0ADF850
:10AB50000070BDF80000FE2801D90C20F8BD228845
:10AB6000401CB0542088401C80B220803154208882
:10AB7000401C2080BDF80010084420800020F8BD53
:10AB8000094810B50068FEF791FF08B1FEF702FF13
:10AB900006481321408876DF002803D0BDE8104026
:10ABA000FEF7F8BE10BD000098B80100B81C0020E8
:10ABB000C20800F007030120895C984008407047F4
:10ABC00010B560B1C160172120F8021B20F8021BEC
:10ABD0001B2100F8021BFFF7FDFD002010BD0E2019
:10ABE00010BD00002DE9FC4786880C46002E4AD196
:10ABF000018801270025102908D0112920D0DFF86D
:10AC0000EC903A2920D0552965D13EE0C07B04F173
:10AC10000608012802D12088A8F80000B8F8001022
:10AC2000B8F80200814256D930469EDF10B1112893
:10AC300003D050E088F805704DE088F804704DE0CE
:10AC4000A01DFFF7C7FD46E02246408934F8061FE5
:10AC5000814200D808466080172800D21720608003
:10AC6000D06870B1607960B1D9E90010CDE9001009
:10AC7000ADF802606088ADF80400D36869461046FC
:10AC8000984765712571BDE8FC87C08804F1060806
:10AC9000172800D21720B8F80010814200D80846C3
:10ACA000A8F8020088F804502846B8F80010ADDF74
:10ACB00098F8050078B9E06868B1D9E90210CDE9E3
:10ACC0000010ADF80260B8F80200ADF80400E268C8
:10ACD000204669469047A07A0028D4D02846E188CB
:10ACE0009EDF0028CFD1A572E772CCE7E4B801005F
:10ACF00000F180400068002800D00120704708B5AE
:10AD000000F18040002101600068009008BD000053
:10AD100000283ED01F49204A096800BF00BF00BF7D
:10AD200000BF00BF00BF00BF00BF91422FD000BFD7
:10AD300000BF00BF00BF00BF00BF00BF00BF00BF1B
:10AD400000BF00BF00BF00BF00BF00BF00BF00BF0B
:10AD500000BF00BF00BF00BF00BF00BF00BF00BFFB
:10AD600000BF00BF00BF00BF00BF00BF00BF00BFEB
:10AD700000BF00BF00BF00BF00BF00BF00BF00BFDB
:10AD800000BF00BF00BF00BF00BF00BF00BF013851
:10AD9000C3D17047101D00200024F40070B50F4C83
:10ADA0000025207808B1852516E00021A1606160AA
:10ADB0002161E1604FF0E020D0F80001012610F0A1
:10ADC000010F03D10721002000F022F800F04CFA17
:10ADD00008B9034806602670284670BD0C1E002086
:10ADE0001805004008B500208DF800006846FEF701
:10ADF0006DFE0648C168491EC160C06808B9FFF70A
:10AE0000D5FC9DF80000FEF785FE08BD0C1E002055
:10AE10004907090E002806DA00F00F0202F1E022CD
:10AE200082F8141D03E000F1E02282F8001400F023
:10AE30001F02012191404009800000F1E020C0F88C
:10AE40008012C0F8001170472DE9F0418846054690
:10AE500000F088FA234E002828461AD0FFF76AFA35
:10AE6000304490F848008009032802D001280ED011
:10AE700007E04FF0A040D0F81005E84010F0010FB7
:10AE800005D003212846BDE8F04100F0F1B80221C9
:10AE9000F8E700F073FA002822D02846FFF74AFAB4
:10AEA00004464FF4807000EB84000F4F81B207EB33
:10AEB0008400D0F8102542F00102C0F810250846A1
:10AEC00000F006F9B8F1000F0AD02846FFF732FA71
:10AED00056F82000002803D00120A040C7F8040342
:10AEE000BDE8F081201E0020006000402DE9FC41FB
:10AEF000DFF8A480044608EB0400002790F9300036
:10AF00001346C0170E46401C01D0082741E0F278D6
:10AF100019462046FFF7EAF90546401C38D0B078BC
:10AF200050B14FF0A04000EB8400D0F8001721F0A2
:10AF30000201C0F8001707E0002173782046009155
:10AF40000A46019100F082F8F078C0B113483178D8
:10AF500000EB8500D0F81025114B1A40C0F81025E1
:10AF60004FF4F8524FF4403302EA042203EA01415D
:10AF70000A43D0F810150A43C0F8102509E008EB81
:10AF80000500327810F8481F41EA8211017000E094
:10AF900004273846BDE8FC81201E002000600040E8
:10AFA000FFE0FCFF4FF0A041D1F81015C14011F0B7
:10AFB000010000D00120704770B5144D95F8540081
:10AFC00008B1082070BD0020411E2A18401CC0B2E4
:10AFD00082F830102028F8D300242046FFF778F9B3
:10AFE000641CE4B20C2CF8D307210620FFF710FFF5
:10AFF0004FF4BE7000F06CF805494FF00040C1F806
:10B000000403012085F85400002070BD201E00209C
:10B0100000600040034890F85400002800D0012050
:10B0200070470000201E002070B541EA4201DDE9B2
:10B0300004564FF0A04441EA830141EA052104EBA4
:10B04000800041EA0641C0F8001770BD70B541EAC2
:10B050004201DDE904564FF0A04441EA830141EA90
:10B06000052104EB800041EA0641C0F8001770BDDD
:10B070004FF0A04202EB8000D0F8002722F44032CB
:10B08000C0F80027D0F8002742EA0141C0F80017B5
:10B09000704701224FF0A043824011B1C3F8082548
:10B0A0007047C3F80C25704718B5084B6C4601442F
:10B0B0001B68009306E000BF54F82030D3F8103529
:10B0C000401C08C28142F7D818BD0000F4B8010046
:10B0D000034908B50844002101600068009008BDDC
:10B0E0000060004002494058012800D0002070470D
:10B0F0000060004020B103490968016000207047EA
:10B100000E20704778B90100FEB502460C4608468D
:10B11000FFF7F0FF002834D10025009501950126A6
:10B1200003208DF80020ADF8040002958DF8026030
:10B1300069462020226869DF0095019502958DF807
:10B14000006069464020226869DF009501950295FC
:10B150008DF8006069460120226869DF4FF4B06015
:10B160000090019502956946A120226869DF00954B
:10B17000019502958DF800506946A020226869DF8C
:10B180000020FEBD60DF704730B593B05FF038053A
:10B19000ADF8445011A903A861DF30B1052816D0DD
:10B1A00013B0BDE83040FEF7F5BB03AC0949684673
:10B1B00000F07EF807E000BFD0E90021204690476C
:10B1C000684600F08CF802980028E1D0F4E713B04C
:10B1D00030BD00007CB9010038B5174C207808B1AB
:10B1E000082038BD0125A570002000F03DF9112888
:10B1F00020D0002000F050F910481149006800905C
:10B20000684610DF0028ECD12570A070607007211F
:10B21000162000F0DDF808B1FEF7BCFB0721152071
:10B2200000F0D6F808B1FEF7B5FB00F09BF901205D
:10B2300000F032F9002038BD0C1D002010B90100CB
:10B24000659901000EB50749684600F031F805E040
:10B25000D0E900108847684600F041F802980028BD
:10B26000F6D10EBD2CB901000148007870470000EE
:10B270000C1D00201FB5684648DF30B1052814D0EA
:10B2800004B0BDE81040FEF785BB084901A800F0F6
:10B290000FF806E0D0E900210098904701A800F0DF
:10B2A0001EF803980028E6D0F4E71FBD98B9010006
:10B2B000016009684160AFF3008010B5D0E900215A
:10B2C0005368994201D1002104E0D1E90034A3423E
:10B2D00002D01946816010BD08314160F0E78168F5
:10B2E00000290BD0026892680A44826041684B686A
:10B2F0009A4203D108314160FFF7DFBF7047000079
:10B3000010B5164A30F8061F9288914224D141891F
:10B31000022921D10C30FEF7C7FD1049891F0870A2
:10B32000B0B10F4C002240F28F212068FEF77AFB6B
:10B3300008B1FEF72FFB00224FF420316068FEF7C2
:10B3400071FB08B1FEF726FBBDE81040FFF76CB8B3
:10B35000BDE81040FEF7F8BB10BD0000BE1C002089
:10B3600098B801000449084490F93000082801DB2E
:10B370000120704700207047201E00200449084427
:10B3800090F93000082801D2012070470020704752
:10B39000201E002070B5012670044FF0E02100252A
:10B3A000C1F88001084C4010C4F84803C4F80803F1
:10B3B00066602F20FFF7ACFCA660044C2F20A56030
:10B3C000FFF7A6FCA57070BD00100140F81C00201E
:10B3D00070B50D460446FEF759FA70B12846FEF7DF
:10B3E00067FA68B16807000E002C0CDA04F00F0150
:10B3F00001F1E02181F8140D09E042F2010070BD75
:10B4000042F2020070BD04F1E02484F80004002040
:10B4100070BD000038B50021012558B101280ED0BB
:10B4200003280BD107210020FFF7F2FCBDE83840CC
:10B43000FFF7D8BC4FF0E020C0F8805138BD8DF840
:10B4400000106846FEF742FB064C207808B9FFF76B
:10B45000A5FCE068401CE060A5709DF80000FEF7C8
:10B4600059FB38BD0C1E00203EB50446094968460C
:10B47000FFF71EFF08E000BFD0E9002120469047FB
:10B4800030B16846FFF72BFF02980028F4D13EBD8B
:10B4900011203EBD14B901003EB504460849684676
:10B4A000FFF706FF07E000BFD0E9002120469047E4
:10B4B0006846FFF714FF02980028F5D13EBD000052
:10B4C00020B901002DE9F0410746806A14468846FC
:10B4D000C8B3002531E000BFB96A05EB450001EBB8
:10B4E0008006B088801CFE2802D90C20BDE8F081BF
:10B4F0002288401C08F8020020881622401C80B2D6
:10B50000208008F800202088401C80B2208000EBBA
:10B510000801308800F03AF92188084480B2208080
:10B52000B28842B1B16871B14044FDF7C5FE2088D0
:10B53000B188084420806D1CEDB297F82C00A84219
:10B54000CAD80020D2E7FFE70720CFE7002805D1BF
:10B550000349012048700020FEF79CBF704700009F
:10B560000C1E002010B51620FEF790F980B10F4890
:10B5700090F800044009FEF79BF960B10C4882681E
:10B580004FF480016AB1016841F48001016010BD8F
:10B5900042F2010001E042F20200BDE81040FEF775
:10B5A000F9B94FF0E020C0F8001110BD16E000E03E
:10B5B000A41F00202DE9F84F1D4C00256846D4E952
:10B5C00001A6FFF76FF8002738B30023009A6168DF
:10B5D0001CE0D1F800C00846944503D9ACEB020248
:10B5E0000A6015E0A2EB0C0263440760D0F80CC0BF
:10B5F000C1698146BCF1000F08D006EB030828F0B2
:10B600007F48C0E9018CC9F81C5005460029E0D1EB
:10B6100028466160FFF7E6F803E02846FFF7E2F806
:10B6200010B15046FEF74AFFE770BDE8F88F000002
:10B63000F81C00200D4B10B5596831B102680C6838
:10B64000A24204D8A21A0A60C161586010BD0B461C
:10B6500003E00B46C969121B21B10C689442F8D370
:10B66000A41A0C600260C161D86110BDF81C0020F2
:10B670002DE9F041144E77683D462C4603E08442A4
:10B6800004D02546E469002CF9D11BE0D4B1A542D1
:10B690000BD1F869706040B90C4901208860002125
:10B6A000B160F0702F20FFF733FB2168E069E8619B
:10B6B00010B10268114401607068874202D0012015
:10B6C000BDE8F0810020FBE7F81C002000100140DD
:10B6D0007CB5064600240D468DF800406846FEF70E
:10B6E000F5F901A800F058F870B1057009494660F5
:10B6F0009DF8040048709DF80000FEF70BFA142036
:10B70000FDF7F0FE20467CBD04249DF80000FEF706
:10B7100001FAF7E7981E00202DE9F041194D6C68F9
:10B72000002C2CD0184800270068A968B846401A99
:10B7300020F07F462068B0420CD82146361A0744D4
:10B74000E469087C20B181F81080886949698847DC
:10B75000002CEFD129786878814206D1401CC0B214
:10B760006870022801D185F80180064869780C309C
:10B7700040F82170BDE8F0411420FDF7B3BEBDE8EC
:10B78000F0810000F81C0020041501400870000A38
:10B7900048700220704700000A494A788B78521C92
:10B7A000D2B2934200D100220B78934201D1002003
:10B7B00070470270487800EB400001EBC000001DAC
:10B7C00070470000981E00202DE9FC411646DDE977
:10B7D0000854CDE900541F468046022200F00CF8C0
:10B7E000002807D1CDE900543B461022314640469F
:10B7F00000F002F8BDE8FC812DE9FC5F0026DDE9E0
:10B800000C4B994692468E4680462788354630E056
:10B81000D8F80400002200EB85006946006801901A
:10B8200001A864DF002830D19DF8000050451FD1E9
:10B830000EB1002100E00221228808441118594568
:10B8400022D846B9521C90B2208009F800E0208826
:10B85000401C20800126218801A801EB09026946CD
:10B8600064DF002811D120889DF800100844208052
:10B870006D1CB8F80000A842CADC56B12088C01B75
:10B88000401E80B2FF2802D90C20BDE8FC9F09F8B9
:10B8900007000020F9E70000141D0020341D0020DF
:10B8A00023D1BCEA5F782315DEEF121200000000FE
:10B8B000111213140D0E0F10A01D0020C01D00202A
:10B8C000EC1D00200D000300A99F01000E000300E5
:10B8D000A99F01000F000300A99F010010000300B1
:10B8E000A99F0100770A000000000000770A00000D
:10B8F0000000000000000050781E0020030000003F
:10B900000000000000000000000000000000000037
:10B910000100000700B9010010B901000800000093
:10B9200038B9010048B901000800000048B9010019
:10B9300058B9010008000000ECB90100F4B9010099
:10B940000000000000000000DCB90100ECB90100BB
:10B9500000000000000000000000000000000000E7
:10B96000C4B90100CCB901000000000000000000D3
:10B97000CCB90100D4B90100B81C002058B90100AD
:10B9800078B9010008000000D4B90100DCB9010059
:10B99000000000000000000088B9010098B9010013
:10B9A00008000000F4B90100B81C00205C00000091
:10B9B0006C98010050BA0100141D00209C0A000080
:10B9C0007C980100E5AB0100541D0020BD9D0100E5
:10B9D000000000004DB501000000000089B1010029
:10B9E0000000000075B201000000000015B4010065
:10B9F000000000000000FFFF000000000000000049
:10BA00000000000000000000000000000000000036
:10BA10000000000000000000000000000000000026
:10BA20000000000000000000000000000000000016
:10BA30000000000000000000000000000000000006
:10BA40000000000000000000000000000090D00393
:040000050001920163
:00000001FF
