:020000022000DC
:1020000000000420298D0200518D0200538D020032
:10201000558D0200578D0200598D0200000000000E
:102020000000000000000000000000005B8D0200C6
:102030005D8D0200000000005F8D0200618D0200D6
:10204000614F0200638D020015E90300638D0200F9
:10205000638D0200638D0200A1530200638D0200B4
:10206000638D0200638D0200638D0200638D0200A8
:10207000638D0200638D0200638D0200638D020098
:10208000638D0200F1310200638D0200638D020056
:1020900091320200638D0200196F0200E115040005
:1020A000638D0200638D0200638D0200638D020068
:1020B000638D0200638D020000000000000000003C
:1020C000638D0200638D0200638D0200638D020048
:1020D000E9E00300638D0200638D0200638D02005E
:1020E0008D5A0200638D0200638D02000000000023
:1020F00000000000638D020000000000638D0200FC
:1021000000000000000000000000000000000000CF
:1021100000000000000000000000000000000000BF
:1021200000000000000000000000000000000000AF
:10213000000000000000000000000000000000009F
:10214000000000000000000000000000000000008F
:10215000000000000000000000000000000000007F
:10216000000000000000000000000000000000006F
:10217000000000000000000000000000000000005F
:10218000000000000000000000000000000000004F
:10219000000000000000000000000000000000003F
:1021A000000000000000000000000000000000002F
:1021B000000000000000000000000000000000001F
:1021C000000000000000000000000000000000000F
:1021D00000000000000000000000000000000000FF
:1021E00000000000000000000000000000000000EF
:1021F00000000000000000000000000000000000DF
:1022000010B5054C237833B9044B13B10448AFF330
:1022100000800123237010BD902B002000000000DF
:10222000DCBD0500084B10B51BB108480849AFF3E9
:1022300000800848036803B910BD074B002BFBD092
:10224000BDE81040184700BF00000000DCBD0500DD
:10225000942B0020142B002000000000154B002BB5
:1022600008BF134B9D46A3F5803A00218B460F46CD
:102270001348144A121A2FF031FB0F4B002B00D0D9
:1022800098470E4B002B00D09847002000210400F7
:102290000D000D48002802D00C48AFF300802FF04D
:1022A000C1FA2000290004F007FC2FF095FA00BFC6
:1022B00000000800000004200000000000000000F2
:1022C000902B0020F0F6002000000000000000002D
:1022D000704700BF704700BF00B583B0044B009348
:1022E000044A402300F01EF803B05DF804FB00BF71
:1022F000F9220200AC2B0020F8B5144672B10F464B
:102300000A26002579192246002004F081FF0544A1
:10231000241A08B9013E01D0002CF3D1F8BD00BF4A
:1023200005F0B4B8F0B595B0002415460F46084640
:102330001E4602F04DFA3846234605A908220895A4
:102340001A9D09960D950A948DF82C400C9402F074
:102350009DFA9DF81430079806998DF8104003F007
:102360000302012A0290ADF80C102CD0022A04D0EE
:10237000384602F03DFA15B0F0BDBDF81650C3F373
:10238000C202C3F38003C5F389158DF80E208DF8C2
:102390000F300826082D2C4628BF08243346224635
:1023A00038460EA902F072FA2D1B21460EA802AA89
:1023B00008AB264400F0BCFC002DEBD1384602F0FF
:1023C00017FA15B0F0BDBDF81460059DC6F383166D
:1023D000C3F3C20EB2000EA9C3F38004384608232B
:1023E000C5F395258DF80EE08DF80F4002F04EFAFA
:1023F00008AB0093284632460EA902AB00F000FC61
:10240000B6E700BF10B5054CFFF78AFF2046042150
:1024100000F0B6FB0123637210BD00BF182A002034
:1024200008B5104B10480022FF21C3F8182499600A
:102430001A605A60C3F8142483F81C2402F080F94F
:1024400070B90A4B0A4A9A1AD20807D009490346BA
:102450000B520133934200F10C00F9D1002008BD6A
:1024600008BD00BFEC2B0020DC33050058BE050082
:1024700008BE0500182B002021B9124A02EBC0004B
:102480000068704730B410490E4D491BC9080ED082
:102490000E4B5A88824218BF002205D10FE0DC891A
:1024A000844203F10C0305D001328A42F7D10020A7
:1024B00030BC704705EBC200006830BC704728464E
:1024C000FAE700BF08BE050058BE0500182B002023
:1024D000064B032903EBC00005D0042901D1407944
:1024E0007047002070470079704700BF08BE0500A4
:1024F0002DE9F04F844C626823689A4285B03CD045
:102500000023C4F81834BFF34F8F6068A56805EA4C
:102510000003023304EB8302111D127912F0030F42
:10252000024610D10B884988C3F3891303EB91133A
:1025300001331A4402EA0503023304EB8306311D1A
:102540003679B607EED004EB8303511C5E68019622
:10255000294004EB810306F00306DB680293022E98
:1025600002F10208684F0CD0012E67D02368181AB8
:1025700018BF012005B0BDE8F08F002005B0BDE810
:10258000F08FBDF806306148C3F38919B9F1500FD7
:10259000CA46A8BF4FF0500A6AF38F130AF1080128
:1025A000ADF8063002F0CEF80646002800F087802D
:1025B00025EA080B0BF1010B02F00AF94FEA8B0B2D
:1025C000304601A90822002302F038F9DA4540F22A
:1025D0008E80BBF1000F74D107F10C0152463046DA
:1025E000082302F02BF909F1030708EB9707D4F849
:1025F0001834DFF81481D4F81054002B59D14DB1A0
:102600006B7A2846314613B12B681B6898476D6872
:10261000002DF5D1304602F0EBF804A8002300F8B5
:102620000D3D01F0F1FAD4F81834374A03B9576078
:102630009DF8030001F010FB606897E7BDF80430D7
:102640003248C3F38312062A28BF0622911C62F384
:1026500089138900ADF8043002F074F8064670B3AF
:1026600002F0B6F80023304601A9082202F0E6F88D
:10267000BDF8043013F4707F44D04FF0000A4FF0DF
:10268000080908EA050104EB81014B460C3130468C
:10269000042202F0D3F8BDF804300AF1010AC3F3B2
:1026A000831308F10107534509F10409B846E8D836
:1026B0009DE7304602F09CF8D8F8040056E77868A9
:1026C00054E708EA050107EB8101CBEB0A05304628
:1026D0005A460C31EDB2082302F0B0F830462A46D3
:1026E00007F10C010BF1080302F0A8F87BE708EAF8
:1026F000050107EB81010C3152463046082302F0F8
:102700009DF870E7474672E7EC2B0020DC330500AC
:102710002DE9F04F89B008AB0026564C03F80D6D3B
:1027200002901846A3680391019301F06DFAA56821
:102730006168D4F800806B180133C8EB0303032BE6
:102740005ED805F10109B646C8EB090904F5836CAA
:1027500004F214470126A2465CE8003F43EA060261
:102760004CE8002090F0000FF6D157E8003F43EA14
:10277000060247E8002090F0000FF6D101EA0503B9
:10278000023304EB8302101D127912F0030F0A4684
:1027900013D103884088C3F3891303EB90130133EB
:1027A0001A4402EA0503023304EB830B0BF1040025
:1027B0009BF804B01BF0030FEBD004EB8303023251
:1027C0005B68059303F00303012B4CD0022B06D169
:1027D000BDF81630C3F38913033302EB930257E8B5
:1027E000003F03EA0E0047E8000B9BF0000FF6D114
:1027F00013B1CAF80420114609EB0103032BABD92E
:1028000008F102039DF81300236001F025FA019EF0
:10281000029D08EA0603023304EB830301211A79BF
:1028200061F30102C5F3001161F3820265F3C50291
:102830001A719A886FF389129A805968039808F17F
:10284000010260F39F215960324004EB820394F847
:102850001C24290CD9601AB1FFF74AFE0028FBD1CD
:1028600009B0BDE8F08FBDF81430C3F383131A44E8
:10287000B5E700BFEC2B00202DE9F04F89B008AB85
:1028800000265B4C03F80D6D01901846A368029179
:102890000093039201F0B8F9A5686168D4F800804C
:1028A0006B180133C8EB0303042B5ED805F1010953
:1028B000B646C8EB090904F5836C04F214470126F7
:1028C000A2465CE8003F43EA06024CE8002090F094
:1028D000000FF6D157E8003F43EA060247E8002020
:1028E00090F0000FF6D101EA0503023304EB8302F6
:1028F000101D127912F0030F0A4613D10388408885
:10290000C3F3891303EB901301331A4402EA05035E
:10291000023304EB830B0BF104009BF804B01BF0B3
:10292000030FEBD004EB830302325B68059303F0E3
:102930000303012B55D0022B06D1BDF81630C3F38B
:102940008913033302EB930257E8003F03EA0E00BA
:1029500047E8000B9BF0000FF6D113B1CAF8042032
:10296000114609EB0103042BABD908F103039DF8D1
:102970001300236001F070F9009D019E08EA050331
:10298000023304EB830301211A79C6F3001061F3CB
:10299000010260F3820266F3C5021A719A8861F33C
:1029A00089129A8059683046029E08F1010266F346
:1029B0009F2108F102082A40596004EB820208EACC
:1029C000050304EB8303000C94F81C14D060039AF5
:1029D000DA6019B1FFF78CFD0028FBD109B0BDE822
:1029E000F08FBDF81430C3F383131A44ACE700BF73
:1029F000EC2B00202DE9F04F8BB00AAD00265F4C88
:102A000005F80D6D029005932846A3680391019384
:102A1000049201F0F9F8A5686168D4F800806B1899
:102A20000133C8EB0303052B5ED805F10109B64657
:102A3000C8EB090904F5836C04F214470126A24689
:102A40005CE8003F43EA06024CE8002090F0000FEB
:102A5000F6D157E8003F43EA060247E8002090F02D
:102A6000000FF6D101EA0503023304EB8302101DC7
:102A7000127912F0030F0A4613D103884088C3F37A
:102A8000891303EB901301331A4402EA050302335E
:102A900004EB830B0BF104009BF804B01BF0030F55
:102AA000EBD004EB830302325B68079303F003036C
:102AB000012B5CD0022B06D1BDF81E30C3F3891365
:102AC000033302EB930257E8003F03EA0E0047E8A6
:102AD000000B9BF0000FF6D113B1CAF80420114689
:102AE00009EB0103052BABD908F104039DF81B008A
:102AF000236001F0B1F8019D029E08EA050302334C
:102B000004EB830301211A7961F30102C6F300117A
:102B100061F3820266F3C5021A719A88022161F399
:102B200089129A805868039A08F1010162F39F2084
:102B3000294008F1020208F10308586004EB810102
:102B400008EA05032A4004EB820294F81C0404EB13
:102B50008304330CCB60049BD360059BE36018B106
:102B6000FFF7C6FC0028FBD10BB0BDE8F08FBDF825
:102B70001C30C3F383131A44A5E700BFEC2B0020DD
:102B800030B4144DD5F81044002154B1237A8B424F
:102B900014D0234602E01A7A8A420FD05B68002BD9
:102BA000F9D10172D5F810340A4A7BB15B684360F1
:102BB000D2F810345860084630BC704701310A29F9
:102BC000E3D14FF0FF31084630BC7047C2F8100423
:102BD0004360F0E7EC2B002038B5084BD3F81044E5
:102BE000012583F81C543CB12368657220465B685C
:102BF00098476468002CF7D138BD00BFEC2B00204B
:102C00002DE9F04784B01D460C9C002394F80C80FD
:102C10002373EB7981460E4617460BB3062F0FD868
:102C2000DFE807F0363B414804515E00B168F068C8
:102C300096E80C00009101904946204601F0D0F83A
:102C4000EB792BB92B7AEBB92046334901F0C8F860
:102C5000204601F0B9F884F80C8004B0BDE8F08794
:102C60002B7A002B4BD1AA792C4BA88853F822A0A1
:102C70000021FFF701FC524603462949204601F096
:102C8000AFF8CBE720462749274A01F0A9F8DBE750
:102C90004946204601F0A4F8D2E74946326820466A
:102CA00001F09EF8CCE74946204696E80C0001F07A
:102CB00097F8C5E7B16896E80C00204600914946B0
:102CC00001F08EF8BCE7B1683069F76896E80C004F
:102CD0000091029049460197204601F081F8AFE744
:102CE00096E80C00B168F068376976690396009140
:102CF000019049460297204601F072F8A0E7A979B1
:102D0000A888FFF7E5FB094B064953F82020204629
:102D100001F066F8A7E700BF2C400500F03305007E
:102D20002C3405002834050038340500043405002F
:102D3000082951D82DE9F0471D46002395F80C903D
:102D40002B73D379904607460E46002B45D00024BE
:102D500005E03A5D013401F043F8082C0AD0A642A0
:102D600028463049F5D828462F49013401F038F873
:102D7000082CF4D128462D49DFF8D4A001F030F812
:102D800000240DE03A5DDAF80030134401345B783A
:102D900013F0970F08BF2E2201F022F8082C0AD05A
:102DA000A64228462249EDD828462249013401F09E
:102DB00017F8082CF4D198F8073013B998F80830B0
:102DC000F3B928461C4901F00BF8284600F0FCFF37
:102DD00085F80C90BDE8F0877047137AB3B998F87E
:102DE0000620164BB8F8040053F822400021FFF7E4
:102DF00043FB224603461249284600F0F1FFA6E7AE
:102E000028461049104A00F0EBFFDAE791799088E4
:102E1000FFF75EFB0D4B0B4953F82020284600F0CE
:102E2000DFFFDCE740340500483405004C34050082
:102E300050340500343405002C400500F033050003
:102E40002C3405002834050038340500043405000E
:102E5000A42A00204B4B1978002900F091802DE91D
:102E6000F04F87B0DFF828C104910024012504E069
:102E70000134049BE4B29C4265D227B2DCF80060C6
:102E800016F83700A0F1200305FA03F93E4BC0F114
:102E9000200ED3E9002325FA0EFE49EA0E0905FAB1
:102EA00000F808EA020A09EA030B06EBC7015AEA2E
:102EB0000B0E0591DCD03449CDF810C022EA08028F
:102EC00023EA0903C1E9002302F05AFA16F8376031
:102ED000DDF810C0A6F1200205FA02F20192019974
:102EE000C6F120035FFA80FA25FA03F3A6F1200267
:102EF00019430AFA02F30393019105FA06F10091CE
:102F0000C6F120070399214B2AFA07F739430391A9
:102F10000AFA06F1D3E900230291DDE9000110402D
:102F2000194002460B46DDE902018B4208BF82428E
:102F30004FF0000B0AD0134B1B7804930134049B11
:102F4000E4B29C4299D307B0BDE8F08F059A576868
:102F500052780023A2F10102B2FA82F25209002F44
:102F6000E9D05B4506BF5245012100213046CDF82E
:102F700014C0B847034BDDF814C01B78049377E7FF
:102F8000704700BFE43000201031002008310020DD
:102F9000E03000202DE9F8430746204800F0B6FD58
:102FA000D0B91F4E0123A7F1200103FA01F5C7F1A3
:102FB0002002D6E9000123FA02F2154303FA07F4CE
:102FC00004EA000205EA0103134307D020EA0404DF
:102FD00021EA0505C6E90045BDE8F883384602F058
:102FE000CFF9104FD7E9002398B144EA020845EA27
:102FF0000309D6E9002314431D43C7E90089C6E944
:1030000000450949054809680022BDE8F84300F079
:1030100023BD22EA040823EA0509EAE7E830002094
:103020001031002008310020DC300020F0B5042AE7
:1030300083B0164602D8072003B0F0BD05460F4600
:1030400002F03EF8002836D01D4BDFF88CC0DFF8C8
:103050008CE01C481C491D60002200237C1E8CF85B
:103060000070CEF80060C0E90023C1E90023E4B29B
:10307000DFB10327002600E01C4623B205EBC302A4
:1030800015F833009378114A8DF8053001A98DF8B1
:1030900004708DF806608DF8076002F01BF8631E5F
:1030A0000028C9D1DBB2002CE6D1094A0948002129
:1030B00000F0C0FCC0E701F0BDFF0028C4D0BBE7B2
:1030C000E03000200831002010310020952F020050
:1030D000552E0200B4340500E4300020DC3000201E
:1030E00070B5084D2B785BB1074E00243368012181
:1030F00013F8340002F0C8F82B780134A342F5D855
:10310000002070BDE4300020E030002000B585B024
:1031100000230390194644F2010001AAADF80430DF
:10312000029300F003F805B05DF804FB10B5FFF75B
:1031300053FDFFF7DDF90028FBD1104C1049208822
:10314000000440F00100FFF7E3FA0E4B1B68DB07B9
:1031500000D5FFDE20880C49000440F00200FFF794
:10316000D7FABFF34F8F0949094BCA6802F4E062EE
:103170001343CB60BFF34F8F00BFFDE7182B002038
:10318000B8340500F0ED00E0C434050000ED00E0C7
:103190000400FA0510B48468C26803468088121BD4
:1031A000904203D204205DF8044B7047DA681C6833
:1031B00002400020A154DA680132DA605DF8044B65
:1031C000704700BF03468068DA6890420DD010B4A3
:1031D0009A6898881C6802400020A25C0A709A686D
:1031E00001329A605DF8044B70470520704700BFBC
:1031F000F8B5204A204B0025C2F84051C2F844518E
:10320000C2F84851C2F84C51C2F80051C2F80451FA
:103210001B6813B31949D2F804250C68141B1A68EB
:1032200024F07F44A2422F4609D8197CDE69A41AF3
:10323000154499B91EB133461A68A242F5D9104B0C
:1032400010491A780B789A420DD00F490F4A41F86D
:1032500023504FF48013C2F80031F8BD1F745A692F
:1032600098699047E6E7531CDBB2022B08BF0023A6
:103270000B70EAE7001001401C31002018310020DB
:1032800020310020213100203032002000E100E018
:103290002DE9F04F7D4A7E49137809787D4899429F
:1032A00087B0066800F0E8810133DBB2022B08BF6B
:1032B000002379491370794A0291084652F8231085
:1032C000036874488A19002522F07F420260AE46E6
:1032D0002846A3B11A688A4200F2D681DC68C3F896
:1032E00000E0891A1044DA6934B1871927F07F4762
:1032F000DD619C605F601D461346002BEAD1029A97
:1033000004931360049C01230593654BDFF89481BB
:103310001B7801935F4BDFF890C1D3F800A0029BAC
:103320001F680023BB462F460093C1461E464FF040
:10333000010E37B37A68B9683D46FF69CAEB0203EC
:1033400023F07F4363453CD80B442B606E60AE6036
:1033500085F810E0EE61002C67D021688B4242D9DD
:10336000204603E01168994244D21046C2695B1AB4
:10337000002AF7D12B60EA612346C5611C46002F65
:10338000D8D198F8003098F801209A4200F08E8049
:103390005A1C03EB430308EBC30399F802109D6822
:1033A000D2B2914289F800201A7908BF89F80070DA
:1033B000022A48D0032A3CD0012A22D023461C46A8
:1033C000DDE7C2EB0A0222F07F428A4202D28B1A68
:1033D0002B60BBE72E606E60AE6085F810E0EE619A
:1033E0001CB321680023CB1A23602B46EC61AB464B
:1033F0001C46C4E7C91A11602B60EA612346C56107
:10340000BCE72A7C0392002AD8D1DA686A6019697D
:10341000A9605869E86010339B68AB61019B002B81
:103420008CD0039B6B601A4688E72B46AB461C4644
:10343000A5E70CB9C2E71C46E3692674002BFAD154
:103440009B461C469BE754B1A54200F008812346E9
:1034500002E0954207D01346DA69002AF9D12346E3
:103460002E741C468BE7AB4200F0FA80E9692868AD
:10347000D9610029F3D023460A6802440A60009A01
:103480002E749C4218BF01220092EAE720310020EE
:1034900021310020183100201C3100203032002062
:1034A0002231002024310020FEFF7F00029B9DF886
:1034B0000420C3F800B0764BC3F800A0754B1A7017
:1034C000009B1BB9049BA34200F0D081002C00F0AC
:1034D0003C81714D6E4BD5F804051B686F4ED4F8D6
:1034E00000C03178C21A22F07F420332002952D143
:1034F0006B4FDFF8B091DFF8B0814FF480314FF4BB
:10350000003E0124C5F84413C5F80413C7F880E150
:10351000C7F800E02C602F21D9F8005000BF00BF91
:1035200000BF00BF00BF00BF00BF00BF45452FD098
:1035300000BF00BF00BF00BF00BF00BF00BF00BF93
:1035400000BF00BF00BF00BF00BF00BF00BF00BF83
:1035500000BF00BF00BF00BF00BF00BF00BF00BF73
:1035600000BF00BF00BF00BF00BF00BF00BF00BF63
:1035700000BF00BF00BF00BF00BF00BF00BF00BF53
:1035800000BF00BF00BF00BF00BF00BF00BF00BF43
:103590000139C3D1347062452CBF9A1803EB0C0279
:1035A0003D4922F07F43C1F84035D1F80425121A75
:1035B0001B1A22F07F4223F07F4303329A4248D9FC
:1035C000D1F80435374AC1F84035126836492F23FF
:1035D00000BF00BF00BF00BF00BF00BF00BF00BFF3
:1035E0008A422FD000BF00BF00BF00BF00BF00BF96
:1035F00000BF00BF00BF00BF00BF00BF00BF00BFD3
:1036000000BF00BF00BF00BF00BF00BF00BF00BFC2
:1036100000BF00BF00BF00BF00BF00BF00BF00BFB2
:1036200000BF00BF00BF00BF00BF00BF00BF00BFA2
:1036300000BF00BF00BF00BF00BF00BF00BF00BF92
:1036400000BF00BF013BC3D1154B4FF40032C3F89C
:103650000021104A0023137007B0BDE8F08F224606
:10366000D4F81CB0BBF1000F22D0D16910685B46C2
:1036700000297FF401AF02E70C4B02931B6804930F
:10368000002505951C4640E6521A1A6037E600BF31
:103690001831002022310020001001403832002073
:1036A00000E100E0342A00200024F4001C31002056
:1036B0007549764BC1F808E075492F20096800BFAD
:1036C00000BF00BF00BF00BF00BF00BF00BF9942E6
:1036D0002FD000BF00BF00BF00BF00BF00BF00BFB2
:1036E00000BF00BF00BF00BF00BF00BF00BF00BFE2
:1036F00000BF00BF00BF00BF00BF00BF00BF00BFD2
:1037000000BF00BF00BF00BF00BF00BF00BF00BFC1
:1037100000BF00BF00BF00BF00BF00BF00BF00BFB1
:1037200000BF00BF00BF00BF00BF00BF00BF00BFA1
:1037300000BF0138C3D1D1691068002900F09B8017
:103740000122DA465B46019296E64F4A514B504EB3
:103750004E484FF480314FF400370125C3F8807094
:10376000C2F848132F23C2F80813556031681E466B
:1037700000BF00BF00BF00BF00BF00BF00BF00BF51
:1037800081422FD000BF00BF00BF00BF00BF00BFFD
:1037900000BF00BF00BF00BF00BF00BF00BF00BF31
:1037A00000BF00BF00BF00BF00BF00BF00BF00BF21
:1037B00000BF00BF00BF00BF00BF00BF00BF00BF11
:1037C00000BF00BF00BF00BF00BF00BF00BF00BF01
:1037D00000BF00BF00BF00BF00BF00BF00BF00BFF1
:1037E00000BF00BF013EC3D195602B4A146000BFEB
:1037F00000BF00BF00BF00BF00BF00BF00BF8142CD
:103800002FD000BF00BF00BF00BF00BF00BF00BF80
:1038100000BF00BF00BF00BF00BF00BF00BF00BFB0
:1038200000BF00BF00BF00BF00BF00BF00BF00BFA0
:1038300000BF00BF00BF00BF00BF00BF00BF00BF90
:1038400000BF00BF00BF00BF00BF00BF00BF00BF80
:1038500000BF00BF00BF00BF00BF00BF00BF00BF70
:1038600000BF013BC3D10D4B1C70F2E6059B002B42
:103870003FF4EFAE2AE601231A4601938A468B46AF
:103880000B4600922E74ECE5001001400024F40079
:10389000342A002000E100E01831002038320020F6
:1038A0002DE9F041594B5A4A5A4D5B4E4FF4803442
:1038B0004FF400310120C2F88010C3F848432F2193
:1038C000C3F8084358602D680C4600BF00BF00BF16
:1038D00000BF00BF00BF00BF00BFB5422FD000BF78
:1038E00000BF00BF00BF00BF00BF00BF00BF00BFE0
:1038F00000BF00BF00BF00BF00BF00BF00BF00BFD0
:1039000000BF00BF00BF00BF00BF00BF00BF00BFBF
:1039100000BF00BF00BF00BF00BF00BF00BF00BFAF
:1039200000BF00BF00BF00BF00BF00BF00BF00BF9F
:1039300000BF00BF00BF00BF00BF00BF00BF013C11
:10394000C3D1364C98600020206000BF00BF00BF8C
:1039500000BF00BF00BF00BF00BFB5422FD000BFF7
:1039600000BF00BF00BF00BF00BF00BF00BF00BF5F
:1039700000BF00BF00BF00BF00BF00BF00BF00BF4F
:1039800000BF00BF00BF00BF00BF00BF00BF00BF3F
:1039900000BF00BF00BF00BF00BF00BF00BF00BF2F
:1039A00000BF00BF00BF00BF00BF00BF00BF00BF1F
:1039B00000BF00BF00BF00BF00BF00BF00BF013994
:1039C000C3D1174D1749DFF86080DFF860C0DFF81A
:1039D00060E028704FF48016E0250B27C8F800003F
:1039E0008CF800008EF80000087048708F70C2F8E4
:1039F000806182F814531660C3F8080582F81153E9
:103A0000D3F804352360BDE8F08100BF0010014009
:103A100000E100E0342A00200024F40018310020E6
:103A200038320020243100201C31002020310020B9
:103A300021310020074B9B780BB9082070473AB121
:103A400030B10368187C0028F7D159745A61704767
:103A500007207047243100202DE9F043284CA3783B
:103A600083B01BB9082003B0BDE8F0830028F9D06B
:103A7000042903D8072003B0BDE8F0834369002B75
:103A8000F0D0064602A8737C0025012B00F8015DEA
:103A90000CBF8946A94690460F4600F0B5F86378FA
:103AA000A07821785A1CD2B2904208BF2A4691428F
:103AB0001FD003EB430304EBC30319464FF0010E81
:103AC00041F8086F0F4883F804E0D0F804654E60B1
:103AD0008F609DF80700C3F81490C3F818806270D7
:103AE00000F0BAF8084B4FF480122846C3F80021C2
:103AF000B9E79DF8070000F0AFF80420B3E700BF76
:103B0000243100200010014000E100E070B51B4CA2
:103B1000A37882B013B9082002B070BD0028FAD093
:103B20004369002BF7D0064602A8002500F8015D86
:103B3000357400F069F86278A0782178531CDBB204
:103B4000984208BF2B46994212D002EB420204EB86
:103B5000C20202219DF8070096601171637000F0A7
:103B60007BF8074B4FF480122846C3F80021D3E7B7
:103B70009DF8070000F070F80420CDE72431002004
:103B800000E100E070B50B4C01460B482678FFF7CA
:103B900019FB05460EB9284670BD002307480849A1
:103BA0002370012201F048FE0028F4D0FFF7AEFA9E
:103BB000284670BD5432002058320020242A0020AC
:103BC0004032002010B501460C48FFF7E3FA0446E6
:103BD00008B1204610BD0A4801F022FE0028F8D1A5
:103BE00006480849FFF7EEFA0028F2D104480549D3
:103BF0000122BDE8104001F059BD00BF4432002051
:103C0000242A00203C320020F0B4EFF3108472B676
:103C10000E4B9A68B2B90E4901259D60D1F88070AB
:103C20000C4D2E463D401D60C1F88060D1F8845097
:103C30005D604FF0FF33C1F88430027004B962B6A2
:103C4000F0BC704701230370F8E700BF84D5002063
:103C500000E100E0FC06FFBD094B9A6872B168B94B
:103C600010B4EFF3108272B606491C680C605C68F1
:103C70004C60986002B962B65DF8044B704700BFB3
:103C800084D5002000E100E030B482B050E8023F6B
:103C90001FFAA3F5C488A54202BFBFF32F8F0022ED
:103CA0000DE0C48925448489A54228BF2D1BC3EAA1
:103CB000054540E80254002CE8D14FF001028DF890
:103CC00003200193019B9DF803200B6002F0FF038A
:103CD0002AB14B880068184402B030BC70471846BF
:103CE00002B030BC704700BF0A884B889A4201D0AE
:103CF0000020704750E8022FC2EA224240E8022327
:103D0000002BF7D101207047B8B130B44168826808
:103D10000468521AD2B2531E2160DBB242B101686C
:103D20000A685C1E551C0D601370E3B2FF2BF6D1C0
:103D300003680020187130BC70470E20704700BF28
:103D400070B582B002AB002503F8015D0446184649
:103D5000FFF75AFF236861681A688A4210D9511E1A
:103D600019602168A3680E68087912F8015C228A3C
:103D7000E4689B1BDBB2984205FB024538BF0B7120
:103D80009DF80700FFF768FF284602B070BD00BF2E
:103D900030B583B002AB002203F8012D054618466A
:103DA0000C46FFF731FF2A681368591C1160E96857
:103DB0002A8A641AB4FBF2F41C709DF80700FFF71E
:103DC0004BFF03B030BD00BF826802B9704710B529
:103DD000044643692168006998470023A36010BD29
:103DE0000EB400B582B0039929B102AA04AB42F81F
:103DF000043D00F089F802B05DF804EB03B07047B1
:103E00002DE9F84F1746B9428A4606461D46DDF8A9
:103E100028B00B9A73D30B464FF00108B3FBF7F3AE
:103E20009F4208F10108F9D9A84538BFA84612F009
:103E3000010902D1BBF1000F41D1B168012402E0B8
:103E4000013D07FB04F4012DFAD8BAFBF4F39F42BD
:103E5000F7D92C4D02E0B168BAFBF4F34A1CB2600A
:103E60003268E85C5054B0687268904204FB13AA50
:103E700002D33046FFF7A8FFB4FBF7F4002CEAD1D9
:103E8000B9F1000F15D0BBF1000F12D0C34510D906
:103E90002024B3683268591CB160D454B268736886
:103EA0009A420BF1FF3B06D2BBF1000F01D0C34594
:103EB000EFD8BDE8F88F3046FFF786FFF4E79307A9
:103EC00018D42024C345B8D9B16833684A1CB260FD
:103ED0005C54B168736899420BF1FF3B05D2BBF1AA
:103EE000000FABD0C345F0D8A8E73046FFF76CFF12
:103EF000B168F4E7002D14BF20243024E2E74FF02E
:103F0000010891E7DC3405002DE9F04F0D4685B03E
:103F1000002900F0B2800B78DFF8E8A4064691464D
:103F20000135002B00F0A580252B40F0A281294609
:103F30004FF000080D4611F8013B2D2B00F0938146
:103F4000302B00F093812B2B00F085812A2B00F081
:103F50009E81A3F13002092A00F2BE816A1C00246E
:103F600004EB840403EB44042A2BA4F1300415462B
:103F700000F08E811378A3F13001092905F10102C7
:103F8000EED91A462E2A00F09081002701E015F89C
:103F9000012F02F0FB03682BF9D0253A532A63D88E
:103FA000DFE812F027016200620062006200620036
:103FB00062006200620062006200620062006200F1
:103FC00062006200620062006200620062006200E1
:103FD00062006200620062006200620062006200D1
:103FE00062006200620062006200620062006200C1
:103FF00062006200620062006200620062006200B1
:10400000620062006200620062004A0162006200B7
:104010006200620062006200620062006200620090
:104020003601CE006200620062006200CE006200D3
:1040300062006200620062006200A9006200620029
:104040006E0062005400620062004A01D9F800303C
:104050001A1DC9F80020196800943B46CDF8048069
:1040600030460A22FFF7CCFE01352B78002B7FF477
:1040700057AF337B002B40F06C8105B0BDE8F08F6B
:10408000D9F800301A1DC9F8002018F0010F1F6878
:1040900040F02581002F00F0A58138462DF0F9FF72
:1040A0008046444515D9A4B14FF0200B00E084B1FF
:1040B000B2683368511CB16003F802B0B26873682B
:1040C0009A4204F1FF3402D33046FFF77DFE4445A7
:1040D000EDD8013F17F8013F002BC5D0B268316819
:1040E000501CB0608B54B26873689A42F2D3304669
:1040F000FFF76AFEEEE7D9F80020131DC9F800307B
:10410000B36831681468581C3022B060CA54B36870
:104110007268934280F018813268581C7821B06030
:10412000D154B26873689A4280F00A810823002251
:1041300001922146009330461022FFF761FE93E77B
:10414000D9F800301A1DC9F80020D3F800B08BEA66
:10415000EB73A3EBEB73092B4FF0010108DD8AFB36
:104160000302DB17C3EBA203092B01F10101F6DC0B
:10417000B94238BF394634B1BBF1000F02DB18F049
:10418000040F00D0013C18F0020F40F0D58018F069
:10419000010F18D1002C00F006818C4213D94FF08A
:1041A000200CB2683368501CB06003F802C0B268DB
:1041B00073689A4204F1FF3480F0F780002C00F01D
:1041C000F2808C42EDD8BBF1000FC0F20D8118F0E7
:1041D000040F40F0F48008F00303022B00F0BF80CE
:1041E0008DE8100159463B4630460A22FFF708FE8B
:1041F0003AE7B3683268581C2521B060D154B268E0
:1042000073689A42FFF430AF3046FFF7DDFD2BE7CD
:10421000D9F80020131DC9F80030B368316812784E
:10422000581CB060CA54B26873689A42FFF41CAF5D
:104230003046FFF7C9FD17E7D9F800301A1DC9F855
:104240000020196800943B46CDF8048030461022C7
:10425000FFF7D6FD08E70D4611F8013B2D2B48F07E
:1042600004087FF46DAE48F0010863E648F00208E8
:1042700060E6B2683168501CB0608B54B2687368F5
:104280009A42FFF4F2AE3046FFF79EFDEDE60024C1
:10429000D9F800301A1DC9F800206A781B682E2A48
:1042A0001C4405F101057FF470AE6A78A2F1300379
:1042B000092B05F101054FF000073FF66AAE07EB49
:1042C000870702EB470715F8012FA2F13003092BEE
:1042D000A7F13007F3D95CE61A46002452E6B84647
:1042E000C7EB080B18F8012B8AB1B1683368481C7A
:1042F000B0605A54B26873689A42F1D33046FFF7FF
:1043000063FDC7EB080B18F8012B002AEDD15C45C3
:104310007FF6AAAE2027B3683268591CB160D75423
:10432000B26873689A4204F1FF3402D33046FFF753
:104330004BFD5C45EFD897E6002F3FF444AF26E7EE
:104340003046FFF741FDF1E63046FFF73DFDB3682B
:10435000E2E6304605B0BDE8F04FFFF735BD002F6F
:104360007FF43EAF002C3BD08C427FF639AF4FF04C
:10437000300CB2683368501CB06003F802C0B268F9
:1043800073689A4204F1FF3403D24CB38C42F0D8E4
:1043900026E73046CDF80CC00291FFF715FDDDF899
:1043A0000CC00299F1E700240DE73046CDF80CC0AF
:1043B0000291FFF709FDDDF80CC00299FEE6B26834
:1043C000531CB36033682B209854B26873689A42C8
:1043D000FFF401AF30460291FFF7F6FC0299FAE6CE
:1043E0000024FDE6B8465CE6B268531CB36033684F
:1043F0002D209854B26873689A42CBF1000BFFF4F9
:10440000EAAEE7E76766666670B528B103681BB178
:10441000DB69BDE8704018470B4C0C4B0C4D1B1B67
:10442000A5FB03352D090CD005EB850504EB8505AF
:1044300023682046143413B1DB69984718B9AC429D
:10444000F6D1002070BD70BD182B0020182B002065
:10445000CDCCCCCC29DF704728DF7047034B01223D
:10446000187A5A74B0FA80F0400970478032002000
:1044700030B5354D2B7A87B0002B51D0334B1C68AB
:1044800002232B722379002B2ED0012B20D02268FF
:104490009368C3B100230593019303930493A36826
:1044A0000593032302932379002B44D0012B07D1DA
:1044B000E368616904911B03022103938DF80410E2
:1044C000936801A8984700232B726B6007B030BD3A
:1044D0002069E3681844FFF7BFFFC8B11128D6D19F
:1044E00001232B7207B030BDA16962692069E368BE
:1044F000521AB2F5805F28BF4FF480529208012A09
:1045000038BF012208441944FFF7A4FF0028E5D171
:104510002B7C002BE6D10146022000F01DF8E1E7DC
:104520000B480C49FFF7B0FB084B04461860002805
:10453000A6D16860D6E70120216963698DF804007F
:1045400003910493BCE700BF803200207C3200203E
:10455000683200207832002010B5354C237A012BC8
:1045600086B00AD0022B0CD1022810D0032804D127
:10457000E3680133082B1CD8E360637C1BB102F0B5
:1045800035FC06B010BDFFF773FF06B010BD294B18
:1045900000221B68E2601A79002A3BD0012AECD184
:1045A0001A69596901328A421A61E6D100202072E3
:1045B00005E0204B00221B68E26022720D20196882
:1045C0008A6872B1002205920192039204929A685D
:1045D000029005921A79AAB1012A0AD08B6801A823
:1045E000984715481549FFF77FFB637C002BC6D120
:1045F000C9E7DA685B6904931303022203938DF819
:104600000420EBE71A695B69039201208DF804002E
:104610000493E3E79A695969881AB0F5805F94BFFB
:10462000121802F5805291429A61A6D1BEE700BFEE
:10463000803200207C320020683200207832002056
:1046400000F0FD03012B00D0704730B5384C237AC1
:10465000A0F101000022B0FA80F0400987B0207478
:104660006274002B48D0334B1D68022323722B79D0
:10467000002B2ED0012B18D02A68936883B1002319
:104680000593019303930493AB680593032302936B
:104690002B79002B44D0012B39D0936801A898477F
:1046A00000232372636007B030BD2869EB681844AB
:1046B000FFF7D2FE28B11128DED10123237207B003
:1046C00030BD237C002BFAD101460220FFF744FFC6
:1046D000F5E7A9696A692869EB68521AB2F5805F43
:1046E00028BF4FF480529208012A38BF01220844A3
:1046F0001944FFF7AFFEDDE70F481049FFF7C4FA92
:104700000C4B054618600028AFD16060D7E7EB6816
:10471000696904911B03022103938DF80410BCE71F
:10472000012029696B698DF8040003910493B4E7B3
:10473000803200207C320020683200207832002055
:10474000FFF7E2BA2DE9F041B0F81080A8F10408B3
:104750004144CF1C0646FFF7F3FAB7FBF8F70446CF
:1047600078B3FFB200250123013FA0F80680066060
:104770000571437128D0804609E06379AF4203F1A7
:1047800001036371C8F80000066080461CD0304603
:10479000FFF7D6FA01350028EFD16679721E23465D
:1047A00003D0013082421B68FBD81F684EB1002540
:1047B00023682146013538461C46FFF7E9FAAE4228
:1047C000F6D10020BDE8F0812046BDE8F08100BFB1
:1047D00010B40430012350E8002F02EB030140E83D
:1047E000001494F0000FF6D15DF8044B704700BF41
:1047F0000146021DF8B5012052E8004FA4EB00036A
:1048000042E8003595F0000FF6D113F0FF0300D019
:10481000F8BD4E79701E0A4603D0013398421268E3
:10482000FBD81768002EF3D000240D6801343846F9
:10483000FFF7AEFAA6422946F7D1F8BD2DE9F041BF
:104840000446181DE688B0FBF6F30F46154606FB36
:10485000130013B1013B2468FCD1321AAA4228BFCD
:104860002A468DB14FF000082044AD1A07EB08012D
:10487000043090442DF00CF8B5422A46246828BF35
:1048800032460020002DEFD1BDE8F0812DE9F04146
:10489000C688043304460F46B3FBF6F0154606FB04
:1048A000103110B101382468FCD1721AAA4228BF15
:1048B0002A468DB14FF000082144AD1A043107EBB0
:1048C000080090442CF0E4FFB5422A46246828BF33
:1048D00032460021002DEFD1BDE8F08101600B6868
:1048E00043604A68934204BF00234360704700BF9F
:1048F000426842B101688B68134443604A6893423E
:1049000004BF002343607047184A30B402F1F00539
:10491000AB1ADB1003EBD3735B1002EBC30152F84D
:104920003330984228BF0C4605D311E052F833309B
:1049300098420CD221468B1ADB1003EBD3735B1029
:10494000914202EBC304F1D8094830BC70470D46D0
:10495000984204D904F10802AA42D9D3F4E7606866
:10496000034B002808BF1846EFE700BF00380500DA
:10497000F038050070B5161E07DD0C468D1914F8C9
:10498000010BFFF71FF9AC42F9D1304670BD00BFF3
:1049900010B50C462046FFF7F5F80528FAD001209F
:1049A00010BD00BF10B40023012401E0202B0AD069
:1049B00004FA03F2024299B203F10103F6D0084669
:1049C0005DF8044B70474FF6FF705DF8044B70477D
:1049D00090B189B130B40238002402E00134202CB7
:1049E00009D030F8025F9542F8D133B10A6801234B
:1049F000A34013430B6030BC70470B680122A240F8
:104A000023EA02030B6030BCF6E700BF70B49DF8E8
:104A10000C60B8B1B1B1AAB10238002402E001348F
:104A2000202C0FD030F8025F9D42F8D10120A04029
:104A300001EB820246B9C0430B68034041F8043BD6
:104A40009142F9D170BC70470B68034341F8043BB5
:104A50009142F7D00B68034341F8043B9142F3D1F4
:104A6000F0E700BFF0B491B100252B46012606FA0D
:104A700003F4144205D000EB450431F81370A7800D
:104A800001350133202BF2D10560F0BC70470D4693
:104A90000560F0BC704700BF084B1B5C1F2B8ABF32
:104AA000074A4FF0A04203F01F03D2F80405D84094
:104AB00000F0010080F00100704700BF08390500D8
:104AC00000030050074B1B5C1F2B86BF03F01F0326
:104AD00005494FF0A041012202FA03F3C1F80C3559
:104AE000704700BF0839050000030050064B1A5CF0
:104AF0001F2A86BF02F01F0204494FF0A041012384
:104B00009340C1F80835704708390500000300508C
:104B10004FF0A04310B44FF480404FF400544FF4D2
:104B200000414FF48032C3F80845C3F80805C3F8C4
:104B30000815C3F808255DF8044B70474FF0A043F3
:104B400010B44FF480404FF400544FF400414FF440
:104B50008032C3F80C45C3F80C05C3F80C15C3F834
:104B60000C255DF8044B70470A4B195C1F298ABF5E
:104B700009484FF0A04001F01F01D0F80435012290
:104B80008A4022EA03011340C0F80815C0F80C352A
:104B9000704700BF083905000003005030B44FF0E3
:104BA000A04303224FF400554FF480444FF40040DB
:104BB0004FF48031C3F83427C3F83827C3F83C27B3
:104BC000C3F84027C3F80855C3F80845C3F80805DB
:104BD000C3F8081530BC7047084B1B5C1F2B8ABFFD
:104BE000074A4FF0A04203F01F03D2F81005D84047
:104BF00000F0010080F00100704700BF043905009B
:104C0000000300500B2809D00C2809D0182809D01F
:104C1000192814BF4FF0FF30032070470020704761
:104C200001207047022070473FDF704740DF704728
:104C300000B1704710B5074CA368012262703BB108
:104C40001A68A2605B6800209847A368002BF7D120
:104C500010BD00BF9432002010B5012882B02AD0C8
:104C600023D303281FD10020072100F0BBF902A89D
:104C70000023264C00F8013DFEF7C6FFE368013B28
:104C8000E360E3685BB9224B01221A604FF0804277
:104C9000D2F81834C3F30043002BF9D1A3709DF868
:104CA0000700FEF7D9FF02B010BD1A4B0122C3F86E
:104CB000802002B010BD02A80023144C00F8013D72
:104CC000FEF7A2FF237893B9124A6360A3602361C1
:104CD000E360106810F0010014D002F017F920B959
:104CE0004FF080430122C3F8182501232370E368A5
:104CF0009DF8070001330122E360A270FEF7ACFFCC
:104D000002B010BD072100F06DF9E6E794320020F3
:104D10000C00004000E100E010B50E4C23780BB110
:104D2000852010BD0C4A6360E3601068A36010F03A
:104D30000100236102D1072100F054F902F0E6F8E6
:104D400020B94FF080430122C3F8182501232370B6
:104D5000002010BD9432002000E100E030B5224D6B
:104D6000AB7883B0044603F0FF0293B110B14368FF
:104D70000120984702A8002300F8043DFEF744FFF5
:104D8000EB689DF804000133EB60FEF765FF03B0AC
:104D900030BD02A800F8052DFEF736FF64B12A6980
:104DA00042B1944208D0134601E09C4204D01B68F3
:104DB000002BFAD122602C61EB6863B90B4A0C49D5
:104DC0001360136801934FF0804202200123019C7D
:104DD000C2F804030B60EB689DF803000133EB603D
:104DE000FEF73AFF03B030BD9432002004010040CA
:104DF0000800004000B583B002A8002300F8013D80
:104E0000FEF702FF0C49CB68013BCB60CB685BB976
:104E10000A4B01221A604FF08042D2F81834C3F3D3
:104E20000043002BF9D18B709DF80700FEF714FFAB
:104E300003B05DF804FB00BF943200200C0000407A
:104E400008B502F063F828B94FF08043D3F818048E
:104E5000C0F3004008BD00BF30B5254D6B7883B06E
:104E6000044603F0FF0293B110B143680020984755
:104E700002A8002300F8043DFEF7C6FE6B689DF80B
:104E8000040001336B60FEF7E7FE03B030BD02A8FB
:104E900000F8052DFEF7B8FE64B1AA6842B194424D
:104EA00008D0134601E09C4204D01B68002BFAD1C5
:104EB0002260AC606B6843B16B689DF803000133FE
:104EC0006B60FEF7C9FE03B030BD02F01FF858B9A1
:104ED000084B18601B6801934FF080430122019931
:104EE000C3F804231A60E7E7FFF79EFEE4E700BF7C
:104EF000943200200001004030B583B002A80023A6
:104F0000154C00F8013DFEF77FFE6368013B6360CE
:104F100065682DB19DF80700FEF79EFE03B030BD19
:104F200001F0F4FF98B90D4B01221A604FF0804256
:104F3000D2F80C3403F00113B3F1011FF8D00023B1
:104F40009DF807006370FEF787FE03B030BDFFF7E2
:104F50006DFE6570DEE700BF943200200400004063
:104F600010B51D4B1A6882B0F2B91C4B1A680AB909
:104F700002B010BD00221A601B6801934FF08043FD
:104F80000222174C0199C3F8082323690122A27059
:104F9000002BEDD01A6822615B68012098472369D5
:104FA000002BF7D102B010BD00221A601B680093DD
:104FB0004FF0804301220A4C0099C3F80823A368EC
:104FC0006270002BD1D01A68A2605B6800209847FD
:104FD000A368002BF7D1C8E700010040040100409E
:104FE00094320020002810B418DB00F1604303F570
:104FF00061434901C9B283F80013C3B2400980007C
:1050000000F1604000F5614003F01F02012393406E
:10501000C0F8803103605DF8044B7047C3B2044AA6
:1050200003F00F0449012244C9B21176E6E700BF3C
:10503000FCEC00E030B51F4C94F8645083B015B11F
:10504000082003B030BD4FF0FF33FF2206200721B8
:1050500023636363A363E36323646364A364E3641C
:1050600023656365A365E36523606360A360E36014
:1050700023616361A361E361236284F8603063624A
:10508000A36284F86230E36284F8633084F86120BC
:10509000FFF7A8FF084B094A1D601B6801930198A0
:1050A0004FF000430121284684F86410C2F804330D
:1050B00003B030BDA83200207C6100400060004099
:1050C000034B93F86400003018BF0120704700BF05
:1050D000A8320020F0B56A4C251895F93030002B25
:1050E00001DB0820F0BD91F803E09446BEF1000F0B
:1050F00056D02368013300F0BB80082600256B1CC6
:105100005F4F54F82320013251D0AB1C9E4245D949
:1051100057F8232001324AD0EB1C9E423ED957F863
:105120002320013243D02B1D9E4237D957F823202C
:1051300001323CD06B1D9E4230D957F823700137A5
:1051400035D0AB1D9E4229D954F823204C4F013253
:105150002DD0EB1D9E4221D957F82320013226D0B5
:1051600005F108039E4219D957F8232001321ED0B9
:1051700005F109039E4211D957F82320013216D0B8
:1051800005F10A039E4209D957F8237001370ED062
:105190000B35AE4202D9E36A013307D00420F0BDDB
:1051A000236A01335CD00C260825A8E70B232618B8
:1051B000DDB244F823C0324686F83050BEF1000F0D
:1051C00002D1234483F858008B78DBB91F284A7832
:1051D00087BF2C4E00F01F0303464FF0A04603F597
:1051E000E073920046F82320CB78E3B96AB2083A1C
:1051F0001444097894F8602042EA811284F860200F
:105200001846F0BD1F2887BF1E4B00F01F02024644
:105210004FF0A04303EB8203D3F8002722F00202F1
:10522000C3F80027E0E76BB29B0003F1804303F56E
:10523000C0430A78D3F8101521F44F3121F440719E
:10524000C3F810151204000202F44031D3F81045DF
:1052500000F47C520A432243C3F810250020F0BD1D
:10526000082685F830603346C4F820C03546A8E7E4
:10527000002385F83030C4F800C01D46A4E700BF05
:10528000A832002000030050F0B43A4D2E1882B02E
:1052900096F8302053B2072B20DD2B4493F858307A
:1052A0009B09032B44D0012B0CBF4FF400324FF469
:1052B00040321F2849D900F01F002F4B03EB80001C
:1052C000D0F8003723F44033C0F80037D0F8003767
:1052D0001A43C0F8002702B0F0BC7047072AFAD87A
:1052E000980000F1804000F5C04003F140029200B8
:1052F000D0F8104592B202F18042002744F0010438
:1053000002F5C042C0F810450197019817600029C6
:10531000E1D096F9302055F82220002ADBD0012276
:10532000164902FA03F3C1F8043302B0F0BC704727
:105330001F280DD9104BD3F8103500F01F00C340C3
:10534000DB0713D54FF44032B7E74FF0A043B5E782
:105350004FF0A0421346D2F81025C24012F0010FC0
:105360000CBF4FF400324FF44032A7E74FF4003245
:10537000A3E700BFA83200200003005000600040F7
:105380001F288ABF054B4FF0A04300F01F00D3F841
:10539000103523FA00F000F00100704700030050C0
:1053A0002DE9F04F89B00025B24B029503951A689C
:1053B000012A00F05081B04B1A68012A00F03D81AB
:1053C000AE4B1A68012A00F02A81AD4B1A68012AF7
:1053D00000F01781AB4B1A68012A00F00481AA4B38
:1053E0001A68012A00F0F180A84B1A68012A00F01F
:1053F000DE80A74B1A68012A00F0CB80A54B1A6803
:10540000012A00F0B58015F0FF0F1AD0A24F012637
:105410000024A30003F180432E4203F5C0434FEA6A
:1054200046060BD0D3F8100557F82420D3F81015F2
:10543000C0F30520C1F3014102B190470134082CAB
:10544000E7D1002D02DB09B0BDE8F08F934F0022B9
:105450004FF0FF33A7F16309049205920693079377
:105460008F4C4FF0000A4FF0010814F8013FFF2B5A
:1054700030D0DBB223F0C00008AAC608951903F0AB
:10548000070215F8081C08FA02F2114222D009EBB3
:10549000000E99099EF930E059F82EC0BCF1000FBA
:1054A00056D0032956D01F288ABF03F01F06064690
:1054B000DFF8F0E115F818BC98BF4FF0A04E06F5E4
:1054C000E0761BEA020F5EF82650C5F301451AD1BB
:1054D000032D48D0BC42C8D1BAF1000FB3D04FF071
:1054E000A0430299D3F810356E4A9942D2F810259C
:1054F00002D103999142A6D0049805990293039290
:1055000006900791ACE7022DE4D1032904D0BCF149
:10551000000FDFD0E047DDE74FF440321F288BBF9C
:10552000604D4FF0A04503F01F03034605EB8303D6
:105530000AF1010AD3F8005725F44035C3F80057A3
:10554000D3F800572A435FFA8AFAC3F80027DEE748
:105550000329BFD10DF1100B1BF806E04EEA020E35
:105560000BF806E09FE70329D1D14FF40032D5E7CD
:1055700000221A601B6801934FF0A042019BD2F8F1
:105580001025484B0292D3F81035039345F000459F
:1055900039E7454AD2F8042312067FF52FAF0022DF
:1055A0001A601B680093009B45F0800526E73E4A81
:1055B000D2F8042351067FF51CAF00221A601B6845
:1055C0000093009B45F0400513E7374AD2F80423C7
:1055D00090067FF509AF00221A601B680093009BBC
:1055E00045F0200500E7304AD2F80423D4067FF5C1
:1055F000F6AE00221A601B680093009B45F0100570
:10560000EDE6294AD2F8042316077FF5E3AE00221F
:105610001A601B680093009B45F00805DAE6224AF1
:10562000D2F8042357077FF5D0AE00221A601B681A
:105630000093009B45F00405C7E61B4AD2F80423FB
:1056400092077FF5BDAE00221A601B680093009B95
:1056500045F00205B4E61449D1F8041311F0010134
:1056600005D01D601B680093009B1546A3E60D4600
:10567000A1E600BF006100400461004008610040F5
:105680000C6100401061004014610040186100404E
:105690001C6100407C610040A83200200B330020D8
:1056A0000733002000030050006000402DE9F04166
:1056B00003795A4D5B01EC1886B0247F44B101F0A8
:1056C0006044B4F1005F03D0102006B0BDE8F08163
:1056D0002B44DFF848E19F7D1FB1112006B0BDE8E3
:1056E000F08199609A759F82067976010EEB06012A
:1056F0000B7F2BBB0268C2F81C31D2F81C41026838
:1057000005940124059F94600468D1F808C0C4F88A
:105710001C31D4F81C310493049B8F8A8B8AD1F8F6
:1057200004E0BFB201331CF807709BB28B82C4F84F
:105730001C75BEF1000F33D0002006B0BDE8F0812B
:1057400003688A68C3F82071D3F820410368029483
:10575000029CC3F85871D3F85841036801948C7DBA
:10576000019FC3F84425C3F84845036801229A60A5
:105770004B68002BE0D1026801E0002B4CD1D2F83D
:105780002011D2F85831003318BF01230029F4D07A
:10579000002B0CBF00200F20AB1900229A7594E754
:1057A0008F7D8B8A01F110029BB2BB4226D2046826
:1057B00004E093889BB2B3F5807F05D0D4F81C3108
:1057C00001F11002002BF4D001F1100293889BB27A
:1057D000B3F5807FE5D0C4F81CE1D4F81C31039305
:1057E000039BB2F8048093881FFA88F801331CF8F1
:1057F00008809BB29380C4F81C85D2E793889BB243
:10580000B3F5807F08D00268D2F81C31002BFBD0A2
:105810000123D3600020BFE70F20BDE71033002035
:105820000279044B03EB4213987D003018BF01202E
:10583000704700BF10330020F0B50379924C5B0134
:10584000E51889B02E7F3EB101F06046B6F1005FE9
:1058500052D0102009B0F0BD6F6827B105684FF431
:105860000176C5F80863234403F11006F579DFF8E3
:1058700018E255BBF271D9601D765D760679760126
:10588000A31918331F79002F47D19B788BB985B99D
:105890000368C3F82451D3F8242103680492049ABE
:1058A000C3F80851D3F80821036803920122039931
:1058B0001A60A5196B68002B64D003684FF401725D
:1058C0000020C3F8042309B0F0BD1D7E85B1002F70
:1058D00000F0AC8003790EEB431E9EF81C30002BC9
:1058E00049D003684FF40472C3F804231120B1E7D0
:1058F00019611A760125C1E76F68002FB3D00568DA
:10590000DFF884E14FF404762344C5F8086303F11B
:105910001006F579002DADD0D7E703680026C3F84F
:105920001061D3F8107103680297029FC3F84461B5
:10593000D3F8446103680196019EC3F83415C3F897
:10594000382585B9036801221A6005796D0163194C
:105950005B68002B6CD003684FF404720020C3F81E
:10596000042309B0F0BD0268D2F8003243F02003EE
:10597000C2F80032E9E703684FF40172C3F8042368
:10598000112067E70268C2F84431D2F84431059328
:10599000059B0168D1F82421D1F80871D1F8443170
:1059A000003218BF0122003318BF012347B9002B72
:1059B00035D1002AEED0A3190022DA75032049E779
:1059C000002AF8D16BBBEA7D02B3C1F80831D1F8E7
:1059D00008310693069A6F7EEA68D1F81815D155FA
:1059E0006A7E0132D2B26A7605F1180305F110021F
:1059F0005978D7798F42CCD89B780021D171002B70
:105A00003CD00368012208461A6023E7C1F8082148
:105A1000D1F808310793079BD1F81835E4E7002A3D
:105A2000C9D1A3190022DA750F2013E7112011E75D
:105A3000016801E0D3B9EAB9D1F81061D1F8443175
:105A4000D1F82421003318BF0123003218BF0122EE
:105A5000002EEFD0002A4FF000012C4414BF032089
:105A600008468B42E17518BF0F20F3E62C440F2047
:105A7000E675EFE62C440320E375EBE602680121AE
:105A800018465160E6E600BF10330020F0B59B4C8D
:105A9000237F8FB0002B75D1994AD2F80413890562
:105AA00048D4974BD3F80423520704D5D3F80821E0
:105AB000002A40F0CA80924BD3F81C21C2B1A28ABE
:105AC000A07D8E4992B282424FF00002C3F81C21A1
:105AD00080F0A980D3F81C210692069A888A8A8AC7
:105AE0008D6880B20132285C92B28A82C3F81C05AC
:105AF000834BD3F84421DAB10022C3F84421D3F810
:105B00004411A27E04910499002A40F08980E27D2C
:105B10007A4B6AB10022587ED968DA7501228DF875
:105B200030000B918DF828200AA893E806009047D2
:105B30000FB0F0BDD2F824110029B2D0C2F8243140
:105B4000D2F82411A37E07914FF401710798C2F88F
:105B500008130BB901235360694A02238DF82830DA
:105B6000D2F88034C2F88034E07DE2680D930023DF
:105B70008DF83000E375237621680B9263680AA8DC
:105B8000984798E75E4BD3F82421002A40F0938091
:105B9000D3F8101161B1C3F81021D3F8101103919B
:105BA0000399D3F83C15E07DC9B2884200F0AA8081
:105BB000534BD3F84421B2B10022C3F84421D3F8A7
:105BC0004411E07D019101994C4960B1D3F83C3515
:105BD000C8688DF830300123CA750B908DF82830D5
:105BE0000AA80AC99847464BD3F82021002A9FD01B
:105BF0000022C3F82021D3F82011A07D0091009944
:105C00003E49002894D0D3F84C058B688DF83000BD
:105C10008A750B938DF828200AC90AA8984787E748
:105C200001221A6073E7D3F81C310593059B002805
:105C30003FF45EAF8B688DF830008A750B938DF85A
:105C400028200AC90AA8984752E7E17D2B4A002973
:105C500070D00021C3F80811D3F8081108910899F1
:105C6000D068517ED3F818354354537ED17D01332B
:105C7000DBB25376627E214B8A427FF41CAF1A7EE0
:105C8000002A6DD19B7E13B91D4B01225A601C4A1C
:105C9000E06863684FF40171C2F80813627E8DF802
:105CA0003020002501220B902168E5758DF8282011
:105CB0000AA89847FFE60022C3F82421D3F824114C
:105CC000029102218DF828100299D3F88014C3F8AC
:105CD00080140D91D3F83C15E368E27522768DF8B7
:105CE00030100B93216863680AA89847044BD3F8D7
:105CF0004421002A3FF477AF5EE700BF1033002055
:105D000000800240217EF1B1D3F80072E17527F0E6
:105D10002001E6682569C3F8001201238DF83000E0
:105D20008DF82830227621680B96E56063680AA812
:105D300098473DE7C3F80811D3F808210992099A5A
:105D4000D3F8183596E7E268E17501238DF8300045
:105D50008DF828300B9294E80A000AA8984727E7A4
:105D6000DE685D7E1869DA7501210022D8601A7636
:105D70005A768DF828100B968DF8305093E806006F
:105D80000AA8904797E600BF0220FEF7EDBE00BFCD
:105D90002DE9F0470D460646FEF734FF032804467A
:105DA0001DD8012D1FD00ED3022D1AD11C4B00EB94
:105DB00040041C44657895B11A4B1B687BB128469A
:105DC000BDE8F04718471848FDF7A0FE1449174AE8
:105DD00004EB44030B44155D9B789D42EBD0BDE87A
:105DE000F087BDE8F087DFF8388047003B1808EB04
:105DF000030218F8035053782BB9274447440B4B40
:105E0000BA781A55D7E7DFF8289007484A464FF482
:105E10000041FDF721FE0028EFD189F80060ECE792
:105E2000A83300208033002084330020503300202A
:105E3000A533002010B50078FEF7E4FE03280BD848
:105E4000064B00EB40001844407828B1044B1B6817
:105E500013B1BDE81040184710BD00BFA8330020A3
:105E600080330020B34B1B68DB0700D4704770B54C
:105E7000B14EB24D33782C78FBB9172C1CD8DFE823
:105E800014F0F10014011401630076008300960001
:105E90005D0039002C0039002C00A300A800A800E8
:105EA000A800A800A800CE00DE00010146001800EE
:105EB0001800FEF743FE2C7070BDA14B1B7800202C
:105EC0003070002B00F00581FEF710FE0120FEF778
:105ED0000DFE0320FEF70AFECFE7012318463370BC
:105EE000FEF742FE97484FF480410022BDE8704023
:105EF000FDF7B2BD012318463370FEF735FE914819
:105F000040F6CD410022BDE87040FDF7A5BD8C4BA9
:105F10001B78002B00F0FE800020FEF7E7FD01203B
:105F2000FEF7E4FD0320FEF7E1FD0020FEF7CAFDC9
:105F30000120FEF7C7FD15232B7070BD0020FEF772
:105F4000C1FD07232B7070BD0020FEF7A5FD0028C2
:105F500000F0D3800020FEF7C9FD46F266610323FE
:105F60002B7078480022BDE87040FDF775BD002019
:105F7000FEF792FD002800F0C5800020FEF7B6FD78
:105F80004FF400310423EBE70020FEF785FD0028E5
:105F900000F0BD800020FEF7A9FD05232B706948A5
:105FA00041F69A110022BDE87040FDF755BD002072
:105FB000FEF7DAFD06232B70624840F6CD41002241
:105FC000BDE87040FDF748BDFEF7B8FD0C232B700F
:105FD00070BD5D48FDF79AFDD4F1110405467BD0F4
:105FE000002879D1012C13D0C82303FB04F44FF40B
:105FF000FA704FF400430021C3FB04014FF47A729E
:1060000000232CF009FF2A4601464F48FDF724FDE6
:106010000220FEF757FD4A4B01221A7070BD484B13
:106020001B78002B79D00020FEF760FD0120FEF7E1
:106030005DFD0320FEF75AFD12232B7070BD404B0F
:106040001B78002B6FD00020FEF750FD0120FEF7DB
:106050004DFD0320FEF74AFD0020FEF733FD13231C
:106060002B7070BD364B1B78002B59D00020FEF7EB
:106070003DFD0120FEF73AFD0320FEF737FD00232A
:106080002B7070BD2E4B1B78002B4FD00020FEF7DD
:106090002DFD0120FEF72AFD0320FEF727FD01203C
:1060A000FEF710FD14232B7070BD0020FEF7F4FCEA
:1060B000C8B10020FEF71AFD022C4EF2666118BF2F
:1060C0004FF400312C701F480022BDE87040FDF7EE
:1060D000C3BCFEF71DFDD0E60220FEF707FD184BFE
:1060E00000221A7070BDFEF7EDFC41F69A1343F2E0
:1060F0003331022C08BF1946E4E7FEF7E3FC41F612
:106100009A112CE7FEF7DEFC43F233313AE7FEF753
:10611000D9FC42E7FEF7FCFC07E7FEF7F9FC8BE74A
:10612000FEF7F6FCABE7FEF7F3FC95E7FEF7F0FCB5
:10613000B5E700BF783300207C330020A433002073
:10614000743300203033002054330020FEF744BD68
:1061500038B5C44B1B6813F0010401D1204638BD8B
:10616000C14C23780546E3B9172D00F27881DFE8AA
:1061700015F00B013101310169007D009100A5008E
:106180005B003500280035002800B300BA00BA00D3
:10619000BA00BA00BA00E300F6001C014200630036
:1061A0006300B24B1B7800202070002B00F0278189
:1061B000FEF79CFC0120FEF799FC0320FEF796FCFD
:1061C000D2E7012318462370FEF7CEFCA8484FF40F
:1061D00080410022BDE83840FDF73EBC012318464F
:1061E0002370FEF7C1FCA24840F6CD410022BDE875
:1061F0003840FDF731BC9D4B1B78002B00F020810F
:106200000020FEF773FC0120FEF770FC0320FEF770
:106210006DFC0020FEF756FC0120FEF753FC954B69
:1062200015221A70002499E70020FEF74BFC914BD1
:1062300007221A70002491E7FEF780FC8D4B0024A2
:106240001D708BE70020FEF727FC002800F0E1809E
:106250000020FEF74BFC46F26661864B844803241F
:106260001C700022BDE83840FDF7F6BB0020FEF7A9
:1062700013FC002800F0DC800020FEF737FC4FF410
:1062800000317C4B7A4804241C700022BDE8384061
:10629000FDF7E2BB0020FEF7FFFB002800F0CD80F9
:1062A0000020FEF723FC734B714805241C7041F657
:1062B0009A110022BDE83840FDF7CEBB0020FEF762
:1062C00053FC6C4B6A4806241C7040F6CD410022FA
:1062D000BDE83840FDF7C0BBFEF730FC654B0C2233
:1062E0001A7000243AE76448FDF710FCD5F1110557
:1062F000044600F08780002840F08480012D14D0EF
:10630000C82303FB05F54FF4FA704FF40043002156
:10631000C3FB05014FF47A7200232CF07DFD224669
:1063200001465548FDF798FB04460220FEF7CAFBDC
:106330004E4B01221A7011E74C4B1B78002B00F0DA
:1063400082800020FEF7D2FB0120FEF7CFFB032066
:10635000FEF7CCFB474B12221A700024FEE6434B9B
:106360001B78002B75D00020FEF7C0FB0120FEF744
:10637000BDFB0320FEF7BAFB0020FEF7A3FB3D4B5D
:1063800013221A700024E9E6384B1B78002B5DD0ED
:106390000020FEF7ABFB0120FEF7A8FB0320FEF771
:1063A000A5FB344B00241C70D8E6304B1B78002B27
:1063B00052D00020FEF79AFB0120FEF797FB032046
:1063C000FEF794FB0120FEF77DFB2A4B14221A7086
:1063D0000024C3E60020FEF75FFBF8B10020FEF7C3
:1063E00085FB022D4EF2666118BF4FF40031214B40
:1063F0001F481D700022BDE83840FDF72DBBFEF799
:1064000087FBB1E60220FEF771FB184B00221A70E1
:10641000A4E6FEF757FB41F69A111EE7FEF752FB82
:1064200041F69A1343F23331022D08BF1946DEE7D5
:10643000FEF748FB43F2333123E7FEF743FB32E735
:10644000FEF766FBE5E6FEF763FB83E7FEF760FB1E
:10645000A7E7FEF75DFB8FE7FEF75AFBB2E70024E4
:106460007CE600BF783300207C33002074330020AA
:1064700030330020A433002054330020F0B5214AEB
:10648000214B1060044610F0020083B0196015D053
:106490001E4B1F484FF00E0E0F271026112504210A
:1064A00040F2666283F800E0DF709E715D72FCF777
:1064B000BDFDA0B1E3071DD403B0F0BDE20719D4C0
:1064C0001448154A0021FDF7B5FA0028F4D1134805
:1064D000134A012103B0BDE8F040FDF7ABBAFCF769
:1064E000FFFD0028E6D101460E4A0F48FDF7A2FA4B
:1064F000E10703D50190FEF751FB01980028DFD09A
:1065000003B0F0BD7833002080330020A833002092
:106510002839050024390500655E02004C39050064
:10652000895D0200355E020048390500032801D963
:1065300007207047012A12D0012917D008D3022959
:10654000F6D10D4B00EB4000034400205A70704719
:10655000094B00EB4000034400209A70704701296A
:1065600001D00022E8E700F10E02D2B200EB4003B6
:1065700001490020CA547047A833002010B5038891
:10658000102B08D0112B05D1264B18680138186044
:1065900038B110BD10BD234C206880B1013020609F
:1065A00010BD02210122FFF7C1FF48B3072827D001
:1065B0001D4B1B68002BECD0BDE81040184701466E
:1065C0000122FFF7B3FF48B1072807D0164B1B681D
:1065D00003B1984720680130206010BD01200221DE
:1065E0000722FFF7A3FF08B10728EFD100200221FF
:1065F0000422FFF79BFF0028ECD00728E6D1E9E74B
:10660000012002210722FFF791FF08B10728CFD10F
:10661000002001460A22FFF789FF0028B9D0072889
:10662000C6D110BDB8330020B43300201A4B10B5CA
:106630000C46186029B10120FFF788FD30B1022314
:106640002370164B186848B1002010BDFFF77EFD7F
:10665000F8B9124B207018680028F5D102210122E8
:10666000FFF764FF10B1072800D010BD0120022100
:106670000722FFF75BFF08B10728F6D1002001468B
:106680000A22FFF753FF0028DED0072808BF0020AA
:10669000EBE70B232370D4E7B4330020B83300209A
:1066A0003EDF704776DF70477ADF70477CDF7047E8
:1066B0007FDF704790DF7047A8DF7047A9DF704722
:1066C00066DF7047FCF722BD043810B50D280ED8E0
:1066D000DFE800F0140D0D070D0D0D0D0D0D202739
:1066E000370E2B4B1A884FF6FF739A4249D010BDD4
:1066F00003F024F9BDE8104002F078BF244B1321C9
:106700001888FFF7CFFF30F00803F0D0BDE8104045
:10671000FCF7FCBC03F012F93221BDE8104002F096
:106720008FBE02F085FE02F07DFE002814BF3124EA
:10673000302403F003F921460122BDE8104002F0A5
:10674000F1BE03F0FBF806F026FC044614F001014C
:106750004FF0A0424FF400430DD00021C2F808359D
:106760000B46C2F80C1563F3000403F0E7F821466A
:1067700006F039FC10BDC2F80C350123C2F808152B
:10678000F1E7044801F060FE30F00803AFD0BDE748
:10679000302A00201C34002010B50388013B84B04F
:1067A0000446552B3DD8DFE803F0773C3C3C3C3CAD
:1067B0003C3C3C3C3C3C3C3C3C2B7E3C923C3C3C92
:1067C0003C3C3C3C3C3C3C3C3C3C3C483C3C3C3CFD
:1067D0003C3C3C3C3C3C3C3C3C3C3C3C3C3C3C3CF9
:1067E0003C3C3C3C3E3C3C3C3C3C3C3C3C3C3C3CE7
:1067F0003C3C3C3C3C3C3C3C3C3C556D3C3C3C3E8D
:10680000384B39491888000440F00300FBF780FF3B
:106810000720FFF79DFC08B1FCF778FC334BA288FA
:106820001A8004B010BD80881321FFF73BFF0028B9
:10683000F7D0FCF76BFC04B010BD002108226846BD
:106840002BF04CF86946A0880022FFF733FF0028A0
:10685000E7D0EEE78279837B002AE2D0043B022B6B
:10686000DFD8022A0CBF022201224FF4C1738088B4
:106870008DF800206946ADF80430FFF71DFF0028B1
:10688000CFD0D6E7194B002118880A460B46FFF7F0
:1068900015FF0028C5D0CCE780880021FFF710FF46
:1068A0000028BED0C5E70F4B11491888000440F0FE
:1068B0000300FBF72DFF0020FFF74AFC08B1FCF7AF
:1068C00025FC0A4B4FF6FF721A8004B010BD074B2F
:1068D0000022188885211346FFF7EAFE0028A0D081
:1068E000A7E700BF182B002050390500302A0020F0
:1068F0005C3905001AF088BB70B50E46410782B0BE
:10690000054620D42A061BD4AB0508D503F016F89B
:10691000002300931049114B042206F008F9104B94
:1069200030461C8806F0D8FB240444F003040D49CB
:1069300003462A46204602B0BDE87040FCF75AB82C
:1069400002F066FDE0E7304606F0C6FB023802289A
:10695000D8D902F05DFDD5E7BC33002033CB02006F
:10696000182B00206C3905000D4B4A881B889A4271
:1069700000D070470A8840F677239A42F9D130B4A4
:10698000084B8C881888084D0849033CA4B20004C1
:10699000224623462C8040F0030030BCFCF72AB886
:1069A000302A0020182B0020322A00209C390500B4
:1069B00008B5037803B108BD054B3B211888FFF7E4
:1069C00071FE0028F7D0BDE80840FCF79FBB00BF70
:1069D000302A002008B530B1032803D10220FFF788
:1069E000B7FB30B908BD0548032101F0D7FA0028EC
:1069F000F8D0BDE80840FCF789BB00BF1C3400207C
:106A0000037803B1704710B584681C482BF041FB34
:106A10002146024619482BF044FB10B318482BF0CE
:106A200038FB2146024616482BF03BFB48B115487F
:106A30002BF02FFB2146024612482BF032FBB8B157
:106A400010BD02F0F5FC02F0EDFC002814BF31246B
:106A5000302402F073FF21460122BDE8104002F00D
:106A600061BD02F06BFF3221BDE8104002F0E8BCCE
:106A700002F064FFBDE8104002F0B8BDB83905006F
:106A8000BC390500C039050008B50948094902F0BC
:106A90001FF848B90648402102F030F800B908BD97
:106AA000BDE80840FCF732BBFCF730FBF2E700BF63
:106AB000F434002069690200F0B50020ABB0FBF7A8
:106AC000AFFC08B1FCF722FBFBF79CFCFCF7E8FEEF
:106AD00008B1FCF71BFB03207049FFF7CFFC08B19E
:106AE000FCF714FB02A90020FFF7A0FD08B1FCF79A
:106AF0000DFB00F033F908B1FCF708FB002301207F
:106B000002A9029300F04AFA08B1FCF7FFFA02A8C2
:106B100000F01CFB08B1FCF7F9FA9DF8043060485E
:106B2000012262F303032AAC62F3071304F8A43DC5
:106B30002BF0AFFA5A4982B22046FFF7B7FD08B1F1
:106B4000FCF7E4FA0021082202A82AF0C7FE50242C
:106B5000A02100224FF4C87302A8ADF80840ADF898
:106B60000A10ADF80C20ADF80E30FFF79DFD08B10E
:106B7000FCF7CCFAFFF788FF002102A804222AF0D4
:106B8000ADFE484B4848029302A902F01DFA08B135
:106B9000FCF7BCFA0021A02202A82AF09FFE0221E5
:106BA00001234FF0000E0527404E414A8DF8081092
:106BB0004FF4A075B4243F488DF80AE002A98DF87F
:106BC0000B70ADF854308DF88430169624952594CA
:106BD000289201F033F908B1FCF798FA3548012101
:106BE00001F028F900211C2202A82AF077FE4FF4B8
:106BF000203600234FF4702503242F492F4A029397
:106C000002A8ADF816308DF81830039604958DF86B
:106C100014400791089201F089FE08B1FCF776FA5A
:106C200040F6C4120A230024012502A8039204930B
:106C300002948DF808508DF80A5002F0C5FD2048E6
:106C400002F082FE02A88DF809508DF808408DF8F8
:106C50000A408DF80B4002F0ADFB1A4B1A49188818
:106C6000000440F00300FBF753FD1248032101F03C
:106C700095F978B902F056FEFBF73AFC0028F9D1F5
:106C800002F05CFE06F041F90028F3D1FFF708FDA1
:106C90000028EFD0FCF73AFAECE700BFC966020023
:106CA000C4390500016A0200083500202C2A0020A2
:106CB000D56902001C340020B1690200C5660200DB
:106CC000F9680200182B0020D039050010DF70474A
:106CD00011DF704730B51B491B4C1C481C4A002370
:106CE00001250B702570037092F816335B09991E0D
:106CF000052983B009D8043BAB4206D9154B9968E6
:106D0000D1B94FF48003136003E042F20200FCF7B4
:106D1000FDF968461049FDF7E1FD019B4BB11A688A
:106D20005968012090476846FDF7E2FD019B002B62
:106D3000F5D1002003B030BD1A6842F480021A6019
:106D4000E7E700BF26350020243500202535002048
:106D500000E100E084D50020143A05001D4B1B78AB
:106D60000BB10820704700B51B4B1C4983B00122B2
:106D700068461A70FDF7B2FD019B2BB90DE068461D
:106D8000FDF7B6FD019B43B11A6859680020904792
:106D90000028F4D103B05DF804FB68461049FDF704
:106DA0009DFD019B4BB11A685968002090476846C9
:106DB000FDF79EFD019B002BF5D10A4B0A4918688F
:106DC00000906846FFF782FF0028E3D1FFF782FFBB
:106DD000E0E700BF2435002025350020083A0500F3
:106DE000143A0500043A05002D31020070B53F4CFD
:106DF000237882B013B9082002B070BD3C4E3D49E3
:106E000033786D466846002B2BD1FDF767FD019B5B
:106E10005BB11A685968002090470028ECD02846DA
:106E2000FDF766FD019B002BF3D128463249FDF7A3
:106E300055FD019B4BB11A685968002090472846C0
:106E4000FDF756FD019B002BF5D12C4B2C49186802
:106E500000902846FFF73AFF0028CDD1FFF73AFF10
:106E6000CAE7FDF73BFD019B5BB11A685968012039
:106E700090470028C0D02846FDF73AFD019B002B23
:106E8000F3D128461C49FDF729FD019B4BB11A6837
:106E90005968022090472846FDF72AFD019B002BE8
:106EA000F5D1FFF715FF0028A6D1164B30709A6870
:106EB0002070B2B9144B4FF48002C3F880202846EA
:106EC0000D49FDF70BFD019B4BB11A685968032072
:106ED00090472846FDF70CFD019B002BF5D10020C3
:106EE0008AE71A6822F480021A60E8E72535002054
:106EF00024350020083A0500143A0500043A05003C
:106F00002D31020084D5002000E100E0014B18780B
:106F1000704700BF2435002000B583B0684608499B
:106F2000FDF7DCFC019B43B158681A68904768463E
:106F3000FDF7DEFC019B002BF6D103B05DF804FBEE
:106F4000283A050060DF704769DF704761DF7047EE
:106F500010B54FF4CE74EAB003A80DF10201ADF8FC
:106F60000240FFF7F3FF88B901A80B49FDF7B6FC13
:106F7000029B002BF0D01A68596803A8904701A81B
:106F8000FDF7B6FC029B002BF5D1E5E7052801D003
:106F9000FCF7BCF86AB010BD343A050070B50C4679
:106FA00084B0002900F08A80604B0B600546002108
:106FB0000C2201A82AF092FC0126032301A920201B
:106FC00022688DF804508DF80660ADF80830FFF7A0
:106FD000BBFF002840F0828000210C2201A82AF08B
:106FE0007DFC01260023402001A922688DF8046061
:106FF0008DF805308DF80630FFF7A6FF002841D147
:1070000000210C2201A82AF069FCF723232001A902
:1070100022688DF80450ADF80630FFF795FF002880
:1070200076D100210C2201A82AF058FC0123184631
:1070300001A922688DF80430FFF786FF00285AD195
:1070400000210C2201A82AF049FC4FF4B063A120D2
:1070500001A922680193FFF777FF002831D10021B1
:107060000C2201A82AF03AFC9DF8043022686FF344
:10707000000301A9A0208DF80430FFF765FF70B967
:1070800004B070BD2A4B1E88FDF73EFC360446F066
:107090000106024627493046FBF7EEFBB0E7244BDA
:1070A0001C88FDF731FC240444F001040246224907
:1070B0002046FBF7E1FB002004B070BD0E2004B0B9
:1070C00070BD1B4B1D88FDF71FFC2D0445F001050D
:1070D00002461A492846FBF7CFFBC0E7144B1E882F
:1070E000FDF712FC360446F001060246144930460C
:1070F000FBF7C2FB70E70E4B1D88FDF705FC2D0466
:1071000045F0010502460F492846FBF7B5FB97E716
:10711000074B1D88FDF7F8FB2D0445F001050246DD
:1071200009492846FBF7A8FB7BE700BF182A002087
:107130006C2B0020883A0500BC3B0500683B05002D
:10714000403A05001C3B0500D43A0500F8B504465A
:107150000668FFF7F7FE2368B342054618D0144FC0
:10716000144938880004324640F00200FBF742FC24
:107170004FF080533888D3F80C3122680E499B02B7
:10718000000403F1005340F002009A1AFBF774FB6D
:1071900065B1074B28461C88FDF7B6FB240444F074
:1071A0000104024605492046FBF766FB2846F8BD68
:1071B0006C2B0020103C0500403C0500643C0500A1
:1071C00048DF704700B585B001A8FFF7F9FFA8B9FF
:1071D00002A80E49FDF782FB039B002BF4D01A682E
:1071E00059680198904702A8FDF782FB039B002B8A
:1071F000F5D101A8FFF7E4FF0028E9D0052801D068
:10720000FBF784FF05B05DF804FB00BF903C050070
:107210002DE9F84F440004EB0008DFF87CB14FEA99
:10722000C8080BEB08038946D96A0129824616462D
:1072300043D034D302293CD100F1010A0AEB4A0AB7
:107240005D6A0BEBCA0A00271DE0126A641BB44298
:107250002346A2EB050428BF33469C42DAF804001B
:1072600028BF1C462246284449462AF011FB0BEB56
:10727000080325441A6A954208BF0025361B274497
:10728000A1445D6216D00BEB0802936AAB4203F196
:10729000FF34DAD8126A1344013B5C1BD7E79A6AC1
:1072A0005D6AAA429CBF1B6AD218013A521B9642E1
:1072B00032D900273846BDE8F88F9A6A5D6AAA423B
:1072C00025D9571E1B6A7F1BB74228BF37465E1B56
:1072D000B74241D30AF1010808EB48080BEBC80894
:1072E000A244D8F804004946324628440BEBCA0BA6
:1072F000BD1B2AF0CDFAD8F8040009EB06012A4696
:107300002AF0C6FACBF824503846BDE8F88F1B6A3D
:10731000D718013F7F1BD7E704440BEBC40B00F1E8
:10732000010ADBF820701C4B7F1BBE420AEB4A0AA5
:1073300025D303EBCA043A46606849462844F51B46
:107340002AF0A6FA09EB070160682A462AF0A0FA9B
:107350003746CBF82450ADE70AF1010303EB4303B2
:107360000BEBC303A24458680BEBCA0B28444946F5
:107370003A463D442AF08CFACBF824509AE703EBC6
:10738000CA03494658683246284435442AF080FAF0
:107390003746CBF824508DE790D500202DE9F04FEB
:1073A000344C94F800E083B00546884617461E46E4
:1073B000BEF1000F2ED02369DFF8B8A0AB4256D93A
:1073C00002A84FF0000900F8019DFCF71DFC6DB903
:1073D00029460D4404EBC5040C9B9DF80700E362AD
:1073E000FCF73AFC002003B0BDE8F08F6B1C69008D
:1073F00003EB4303DB004A190AEBC2020AEB030E5C
:107400004AF80380CEF804701662C2F82890C2F8D9
:107410002490DEE7184BDFF86CB0DFF86C90C4F80E
:1074200028E04FF0100C4FF4007A0222A361A3640D
:107430001249C4F824E0C4F82CE0C4F858E0C4F8B9
:1074400054E0C4F85CE0C4F850C0E01DC4F81CB0BF
:10745000C4F820A0C4F84C90226162612AF0FCFDBF
:10746000204607492AF0F8FD2023A371A3E74FF037
:10747000FF30B8E790D50020A83C0500B43C0500DB
:10748000B83C05003835002028350020F8B5114CEF
:10749000114B124AE3614FF4007E0023104FA362A8
:1074A00010266362E362A3656365E3650D49C4F872
:1074B00020E00225A261A264E01DE7642665256143
:1074C00065612AF0C9FD204607492AF0C5FD202341
:1074D000A371F8BD90D5002038350020A83C0500E8
:1074E00028350020B43C0500B83C05006DDF70472E
:1074F00072DF704779DF70477DDF704764DF704768
:10750000F0B50488012C83B007D0148804F1020E72
:107510009E4505D90C2003B0F0BD072003B0F0BD97
:107520000578012D04D1457802352544AB42F1D3CD
:10753000023B0F461C1B02A9A4B2054621F8024DCE
:1075400007EB0E001646FFF7D7FF0028E3D12B7894
:10755000022B17D0012B11D023460821FE2BD9D89E
:107560003288581CB8543288013292B23280B954F1
:1075700032880132134433800020CCE76B789C4280
:10758000EBD2E9E7BDF806309C42E5D30921E5E7F7
:107590002DE9F04F85B083460E9D00882C8801941C
:1075A000BDF83C9000284ED000278A4616469846E3
:1075B0003C4604E0BBF800300134A34226DDDBF892
:1075C000043053F8240003900DF10B0103A80022AE
:1075D000FFF794FF18BB9DF80B30B342EAD10FB30D
:1075E0002A8893194B4519DC424403A80DF10B017D
:1075F0000127FFF783FF90B92B889DF80B201344D8
:107600002B80BBF800300134A342D8DCDFB12B88DB
:10761000019A013B9B1A9BB2FF2B12D90C2005B09B
:10762000BDE8F08F2B885A1C334402334B4592B28D
:10763000F4DC2A8008F802A02A88013292B22A805B
:10764000D2E708F80230002005B0BDE8F08F00BF97
:107650002DE9F04700231788138090F82D3086B06D
:10766000144605460E46002B40F0C880AA78002A32
:1076700040F0F080EA78002A2CD1696899B1DA1CD0
:10768000BA42097822D80222F254238801339BB2ED
:107690000A222380F254238801339BB22380F154C1
:1076A0002388013323802B89002B40F0F7802B8A1D
:1076B000002B40F00C812B8B002B40F021812B6A9A
:1076C000002B5CD02288911DB94218D90C2006B03D
:1076D000BDE8F087D91CB942F8D80221F1542388BB
:1076E00001339BB201212380F15423880B449BB2C8
:1076F0002380F25423880B449BB22380BDE7198872
:10770000052940F2C9806FF4486801EB080080B297
:107710004FF27D3E704540F2BF805888052840F208
:10772000BB806FF4486C84441FFA8CFCF44540F233
:10773000B3804FF6FF7E714504D0704502D0814280
:1077400000F2AA800521B1542288013292B212219E
:107750002280B1542288013292B222801988B15419
:107760003244090A51702288023292B222805B8828
:10777000B35432441B0A53702388023323806B6A4C
:10778000002B2BD0998820880A1D0244BA429DD82C
:107790008A1CFE2A9AD8033131542288013292B2CF
:1077A000FF212280B1542288013292B222801988AE
:1077B000B1543244090A51702088023080B22080CE
:1077C0009A885AB199680393002965D030442AF009
:1077D0005FF8039B22889B881344238095F82C3004
:1077E000002B40F0A680287800283FF470AF284690
:1077F000314622463B46FFF783FE68E7082F7FF6B7
:1078000065AF04A8FFF772FE00287FF460AF2388FD
:107810000822F254238801339BB21B222380F254A6
:107820002088013080B22080062230440DF1110101
:107830002AF02EF823889DF8102006339BB212F010
:10784000FE0218BF01222380F254238801339BB229
:1078500023800BE70433BB423FF638AF04A8FFF7A1
:1078600049FE00287FF433AF2388BDF810200321A0
:10787000F154238801339BB219212380F1542388CA
:1078800001339BB2F1182380100AF2544870238808
:1078900002339BB22380EDE6072018E705F10808C4
:1078A00002218DE8900040460A463346FFF770FEFD
:1078B00000287FF40CAF8DE890004046062110228E
:1078C0003346FFF765FE00287FF401AFEFE605F1D0
:1078D00010088DE890004046032102223346FFF74E
:1078E00057FE00287FF4F3AE8DE890004046072154
:1078F00010223346FFF74CFE00287FF4E8AEDAE6AC
:1079000005F118088DE89000404614210222334604
:10791000FFF73EFE00287FF4DAAE8DE89000404687
:10792000152110223346FFF733FE00287FF4CFAE37
:10793000C5E6D5F82880B8F1000FADD0B8F804201E
:107940000232FE2A3FF6C2AE23884FF000094FF004
:10795000160A0132F254238801339BB2238006F8C1
:1079600003A0238801339BB22380B8F80020F2548F
:107970003344120A5A70238802339BB22380B8F82A
:107980000410F0180A4661B1D8F808301946002BE7
:1079900082D029F07DFFB8F80430228813449BB2CE
:1079A000238009F1010995F82C205FFA89F94A45ED
:1079B00009EB49087FF617AFAA6A02EB8808B8F806
:1079C00004200232FE2AC4D980E600BF2DE9F04728
:1079D00094B01F230D46ADF80E30044600285AD04F
:1079E000C278530753D590F82D300021ADF80C1014
:1079F000002B6BD18378002B40F0AB80184603211D
:107A000014AE5F1C0233304416FA87F716FA83F679
:107A10004FF0020E8BB2012100F840ECADF80C30B3
:107A200007F8401C06F8402C6268B2B1D91C1F2927
:107A3000167828D814AF581C9A1C17FA80F03B44CB
:107A400017FA82F24FF0020E0A2703F840ECADF865
:107A50000C1000F8407C02F8406C2389002B40F0A9
:107A60008581238A002B40F09F81238B002B40F0DF
:107A7000B981236A002B00F0D880BDF80C20911D3D
:107A80001F2940F28F800C2014B0BDE8F08707203A
:107A900014B0BDE8F087ADF80C00002D00F00481B3
:107AA000EB78002BF3D128460CA90DF10E02FFF75D
:107AB000CFFD0028ECD19DF80E300CAA20469DF891
:107AC0000C10FFF715FD14B0BDE8F0870CAF384679
:107AD000FFF70CFD0028DBD1BDF80C3014AA03F130
