:020000040000FA
:10000000E02900204D0300005503000057030000C5
:10001000590300005B0300005D03000000000000C6
:100020000000000000000000000000005F0300006E
:10003000610300000000000063030000650300008E
:10004000C506000067030000710A00006703000096
:100050006703000067030000ED0400006703000071
:1000600067030000670300006703000067030000E8
:1000700067030000670300006703000067030000D8
:10008000670300004D0700006703000067030000DE
:1000900071070000670300006703000067030000AA
:1000A00067030000670300006703000067030000A8
:1000B0001D070000670300000000000000000000B2
:1000C000670300002D0700003D07000067030000E4
:1000D00067030000670300006703000000000000E2
:1000E0000000000000000000000000000000000010
:1000F0000000000000000000000000000000000000
:1001000000000000000000000000000000000000EF
:1001100000000000000000000000000000000000DF
:1001200000000000000000000000000000000000CF
:1001300000000000000000000000000000000000BF
:1001400000000000000000000000000000000000AF
:10015000000000000000000000000000000000009F
:10016000000000000000000000000000000000008F
:10017000000000000000000000000000000000007F
:10018000000000000000000000000000000000006F
:10019000000000000000000000000000000000005F
:1001A000000000000000000000000000000000004F
:1001B000000000000000000000000000000000003F
:1001C000000000000000000000000000000000002F
:1001D000000000000000000000000000000000001F
:1001E000000000000000000000000000000000000F
:1001F00000000000000000000000000000000000FF
:10020000DFF80CD000F034F900480047551D00001D
:10021000E029002030B4044654E8000F0D4644E8BD
:100220000053002BF8D1156030BC704730B4044641
:1002300054E8000F40EA010544E80053002BF7D1D1
:10024000156030BC704730B4044654E8000F00EA33
:10025000010544E80053002BF7D1156030BC70470E
:1002600030B4044654E8000F80EA010544E8005326
:10027000002BF7D1156030BC704730B4044654E809
:10028000000F00EB010544E80053002BF7D1156087
:1002900030BC704730B4044654E8000FA0EB0105B1
:1002A00044E80053002BF7D1156030BC70470000C4
:1002B00030B4044654E8000F0D4644E80053002BC8
:1002C000F8D1156030BC704730B4044654E8000FD4
:1002D00040EA010544E80053002BF7D1156030BC1B
:1002E000704730B4044654E8000F00EA010544E8C2
:1002F0000053002BF7D1156030BC704730B4044672
:1003000054E8000F80EA010544E80053002BF7D1C0
:10031000156030BC704730B4044654E8000F00EB61
:10032000010544E80053002BF7D1156030BC70473D
:1003300030B4044654E8000FA0EB010544E8005334
:10034000002BF7D1156030BC70470000064880478D
:1003500006480047FEE7FEE7FEE7FEE7FEE7FEE7AA
:10036000FEE7FEE7FEE7FEE775070000010200007A
:100370002DE9F05F0546002092469B4688460646DA
:10038000814640241BE0284641464746224600F06D
:100390005EF853465A46C01A914110D3114618468A
:1003A000224600F016F82D1A67EB01084F46224648
:1003B0000120002100F00DF817EB00094E41201E2E
:1003C000A4F10104DFDC484631462A464346BDE835
:1003D000F09F202A04DB203A00FA02F10020704747
:1003E0009140C2F1200320FA03F319439040704773
:1003F00000487047583A000040EA01039B0703D0C9
:1004000009E008C9121F08C0042AFAD203E011F853
:10041000013B00F8013B521EF9D27047D2B201E015
:1004200000F8012B491EFBD270470022F6E710B5F9
:1004300013460A4604461946FFF7F0FF204610BD52
:10044000421C10F8011B0029FBD1801A7047202A9A
:1004500004DB203A21FA02F00021704721FA02F36E
:10046000D040C2F120029140084319467047000075
:10047000064C074D06E0E06840F0010394E80700F1
:1004800098471034AC42F6D3FFF7BEFEEC3A0000BA
:100490000C3B000070B58C1810F8015B15F00703D9
:1004A00001D110F8013B2A1106D110F8012B03E00D
:1004B00010F8016B01F8016B5B1EF9D12B0705D415
:1004C0000023521E0DD401F8013BFAE710F8013B5E
:1004D000CB1A921C03E013F8015B01F8015B521E7A
:1004E000F9D5A142D8D3002070BD00002DE9F04716
:1004F00000268CB0DFF86091B0464FF4807501247F
:1005000037460696284602F02FFA38B1D9F8040388
:10051000204203D0284602F01DFA26432D1D640018
:100520007F1CADB2082FEDD34FF4BE74204602F00D
:100530001BFA48B1204602F00DFA46F0004606AA22
:100540000121002002F0F2F9444D16F0FF0F15D002
:100550000127002437420DD009EB8401D1F81005A2
:10056000D1F81015C0F3042055F82420C1F301413F
:1005700002B190477F00641C082CEBD3002E67DA91
:100580004FF0FF30CDE9088000263446281910F8D6
:10059000507F90F9000027F0C008401C44D009A902
:1005A000404601F0BEFC58B34FEA9719404600F0B0
:1005B000C7FE55F820701FB1B9F1030F03D00FE04B
:1005C000B9F1030F30D108A84FEAD80208F00703A9
:1005D000815C4FF0010C0CFA03FC41EA0C018154E0
:1005E0004FF0A04101EB8800D0F8000706A9C0F346
:1005F000014A404601F095FC18B1BAF1020F03D050
:1006000012E0BAF1030F0FD1B9F1030F08D1BAF11B
:10061000020F1BD00221404602F06CF9761CF6B2A4
:1006200017B149464046B847641C042CAED3002E8F
:100630000ED06A460121002002F078F90699009850
:10064000884205D00690089809909DE70321E2E7CB
:100650000CB0BDE8F087000000600040E002002020
:1006600000F01F02012191404009800000F1E020CC
:10067000C0F88012704700F01F020121914040092C
:10068000800000F1E020C0F80011704700F01F0268
:10069000012191404009800000F1E020C0F80012E3
:1006A00070474907090E002806DA00F00F0000F134
:1006B000E02080F8141D704700F1E02080F800145D
:1006C000704700002DE9F0414FF48077384601F083
:1006D00030FC0124104EA50748B1384601F030FC2B
:1006E0000120C5F808037470002000F031FE4FF4BB
:1006F0008277384601F01DFC00280BD0384601F007
:100700001FFC0220C5F80803B470BDE8F0410120C9
:1007100000F01EBEBDE8F081CC0200200149024875
:1007200001F0D6B93803002000C001400149024859
:1007300001F0CEB9400300200010024001490248F8
:1007400001F0C6B9480300200020024007480021FC
:10075000C0F84011C0F84411C0F84811C0F84C115D
:10076000C0F80011C0F8041102F074BE001001407E
:1007700002F0C2BDF0B5AE480023021D017801258C
:10078000101D4FF0805406290BD11678360708D17A
:100790000678C6F30316032E06D0042E04D0052EC9
:1007A00002D0062907D00EE0B4F82463A14FC6F3A7
:1007B00004263E6002E01678360704D10678C6F3B8
:1007C0000316032E02D0062904D00FE09B4F9A4E49
:1007D0007E670EE01678360708D10678C6F3031652
:1007E000032E06D0042E04D0052E02D0062907D0F1
:1007F0000EE0D4F84462924FC6F342363E6002E007
:100800001678360704D10678C6F30316032E02D0F5
:10081000062906D011E08B4E376827F080773760C5
:100820000EE01678360708D10678C6F30316032EB5
:1008300006D0042E04D0052E02D006290AD011E0DD
:100840004FF08046C6F80C31C6F810317C4E361F8A
:10085000336002E01678360704D10678C6F3031633
:10086000032E02D0062905D00CE0754F032664370D
:100870003E600AE01678360704D10678C6F3031600
:10088000032E02D006290DD014E06F4F05263E60DE
:100890006D4E783635606C4E083633603F263F1D0E
:1008A0003E6002E01678360704D10678C6F30316D8
:1008B000052E02D0062957D062E0644E3668644F98
:1008C0003E60624E361D36683F1D3E605F4E083604
:1008D00036683F1D3E605D4E0C3636683F1D3E60FB
:1008E0005A4E103636683F1D3E60584E14363668F4
:1008F0003F1D3E60554E18363668554F20373E60D6
:10090000524E1C3636683F1D3E60504E20363668CB
:100910003F1D3E604D4E243636683F1D3E604B4EB7
:10092000283636683F1D3E60484E2C3636683F1DDF
:100930003E60464E30363668454F40373E60434E47
:10094000343636683F1D3E60404E383636683F1DAF
:100950003E603E4E3C3636683F1D3E603B4E403664
:1009600036683F1D3E6002E01678360708D10678EB
:10097000C6F30316032E06D0042E04D0052E02D093
:10098000062907D019E0D4F85812324A01F04F0175
:10099000116002E0117809070FD10078C0F303104D
:1009A000032803D0042801D0052806D12A4801686D
:1009B000C90702D06FF00101016022487438016854
:1009C00041F470010160BFF34F8FBFF36F8F4FF0A1
:1009D0001021D1F80002002803DBD1F8040200281E
:1009E00022DA1E4A15601E480468002CFCD015242B
:1009F000C1F800420568002DFCD0C1F8044201682E
:100A00000029FCD0136001680029FCD0BFF34F8F90
:100A10000C48F0380168134A01F4E06111430160A9
:100A2000BFF34F8F00BFFDE710490F480860F0BDCE
:100A3000E00F00F0403501400DF0ADBA00C00740B6
:100A40003C050040FCED00E010560040040400109E
:100A500020C50040E40E00400004004004E50140D1
:100A600000E401400400FA050090D00318010020C2
:100A70000448017F04480029024901D002F0FFBD6B
:100A800002F06EBD500300200020004002E008C8C4
:100A9000121F08C1002AFAD170477047002001E0F8
:100AA00001C1121F002AFBD17047022000F094B947
:100AB00070B50024064D06E06868012110F8340086
:100AC00001F008FB641C28788442F5D3002070BD37
:100AD00080000020F8B515460C460646052A01D2CE
:100AE0000720F8BD01F0DCFB18B901F0ABFB0028D2
:100AF000F7D1114900224E600C708D60C1E90422CB
:100B0000C1E906220D4D0DE006EBC40069680091B5
:100B100081788DF801100078094A694601F02CFBB4
:100B20000028DED1641EE4B2EED2BDE8F840054AEA
:100B30000021024800F052B8800000207C390000FB
:100B40002D1900003D18000070B514460D460646EC
:100B500000F093F9224629463046BDE8704000F087
:100B60000BB80EB500210091CDE901106A4644F2A0
:100B70000100FFF7E9FF0EBD08B501238DF8003035
:100B80009DF80030144B186059609A606FF48041F2
:100B9000401807D001280FD1DA60D8680088986122
:100BA000D86807E01A611869806858611869008878
:100BB000986118694068D861186858689868D8685A
:100BC000186958699869D86972B600BF9DF8000025
:100BD0000028FBD162B608BD90030020074B9B782C
:100BE00023B12AB120B10068037C1BB108207047F3
:100BF000072070474174426100207047B003002015
:100C000070B502F0B1FA104800240B210470447052
:100C10000E4D817014206C602C706C70FFF720FDFD
:100C200007211420FFF73DFD1420FFF724FD08489D
:100C3000046007211120FFF734FD0548001F0068FC
:100C4000A860002070BD0000B0030020A0000020BC
:100C5000081501402DE9F843DFF8709099F802304B
:100C60005BB350B3052902D20720BDE8F88343697E
:100C70001BB3437C012B22D0002704460025884665
:100C80001646284600F036F8684602F0CBFDC0B1A3
:100C9000012101700E4944600968C0E90218C0E9E9
:100CA00004769DF8000089F80100002000F024F887
:100CB0001420FFF7EBFC2846D7E70820D5E70F46BE
:100CC000DBE70425002000F017F8F4E7B00300206C
:100CD000041501400649897839B130B1416921B123
:100CE00000210174022102F095BB0820704700002A
:100CF000B003002000F002B800F008B872B6024855
:100D00000168491C01607047B4000020034908686D
:100D1000401E086000D162B670470000B400002099
:100D20002DE9F041064608680C46411C4FF0A047EB
:100D30004FF0010506D005FA00F1C7F80815206844
:100D400001F0CEFD6068411C02D0002101F0BFFD22
:100D50003079204901EB4010A169007F00283068FC
:100D6000C0F8241525D0607D227D31681043C1F87C
:100D70006C05D4E900123068C0F80C15C0F81425D1
:100D800024E0A068411C02D0002101F0A0FDE06831
:100D9000411C05D08540C7F80855E06801F0A0FD6A
:100DA000D4E902123068C0F80825C0F81015BDE873
:100DB000F081607D217D32680843C2F86C05D4E97A
:100DC00000123068C0F81425C0F80C15207D0128E9
:100DD000D7D0ECE75003002007490B5C4FF0A0414F
:100DE000D1F804250120984020EA0203C1F8083513
:100DF0001040C1F80C057047443900000249085CF6
:100E0000012101F088BD0000443900000249085C5E
:100E1000002101F080BD0000443900000649095C52
:100E20004FF0A040D0F80405C84010F0010000D0F9
:100E3000012080F001007047443900007CB5002497
:100E4000084E25460122305D00950023114601958C
:100E500001F0FEFC641C042CF4D3BDE87C4000F0DF
:100E600003B800004439000010B500242046FFF705
:100E7000C5FF641C042CF9D310BD10B50024204616
:100E8000FFF7C4FF641C042CF9D310BD10B5024653
:100E9000064B4FF0FF3000215C5C944201D10846C4
:100EA00010BD491C0429F7D310BD000048390000CB
:100EB0002DE9F0470D468146FFF7E8FF0446042878
:100EC00036D2DFF874801B481C4EA8F10C0725B3FE
:100ED000012D0ED0022D2BD104EB44003044457877
:100EE000002D25D0B968002922D02846BDE8F0475A
:100EF000084704EB4401755C0E44717849B10E4A11
:100F00004FF40041093A8068FFF7A4FE08B987F85A
:100F10000390B17808F80410E2E78068FFF7DAFE82
:100F200004EB4401314418F804008D78A842D7D06E
:100F3000BDE8F0874C3900007C000020A0020020B2
:100F4000FFF7B6BD70B50023042810D20D4D00EB9D
:100F50004004012A02D101290CD00022094E00EBE5
:100F60004000304461B1012906D0022906D0072390
:100F7000184670BD0E30C2B22A55F9E74270F7E745
:100F80008270F5E7A002002070B586B006461422F4
:100F900019496846FFF730FA184C00250E2E617883
:100FA00006D00F2E25D1042908D2491C617006E015
:100FB00009B1491EFAE70420607000E065702078EE
:100FC000C00703D00D48001D01F032FA20788007D9
:100FD00003D50A480C3001F02BFA2078400703D5DE
:100FE0000648143001F024FA257061785DF821007C
:100FF000804706B070BD00003039000000000020BE
:1010000070B506461E480024C0E90161B00720D52E
:101010000025012211462846FFF794FF6D1C044667
:10102000042D02D2002CF4D013E094B940F2666291
:1010300004211448FFF74EFD04000AD1FFF738FDE4
:10104000040006D10F48104A0021001FFFF7C6FD1B
:101050000446F00701D0FFF7F1FE74B909480B4AC6
:1010600000210C38FFF7BAFD040006D10548084AF4
:1010700001210838FFF7B2FD0446204670BD00008C
:101080007000002058390000D5120000B51B000088
:10109000AB0A00002DE9F05F6A4C05460026607837
:1010A000B34618B184F801B000F06CFD664F4FF400
:1010B0007A694FF4C87A4FF00108182D62D2DFE840
:1010C00005F0AC0C0C31404D62676B746B74BE7DE7
:1010D0007D7D7D7DACAFB2B5BEBE0020FFF79EFE2C
:1010E00000284FF0000008D0FFF788FE022D02D143
:1010F0004FF4E16008E0484606E0FFF787FE022D66
:1011000001D1C82000E05046410CC0034FF4FA72F0
:10111000801841F10001257052000023FFF728F9E3
:1011200001462AE00020FFF779FE00284FF000007A
:1011300004D0FFF763FE4FF44870E5E7FFF766FE63
:10114000DFE70020FFF76AFE00284FF0000002D022
:10115000FFF754FECFE7FFF759FED4E70020FFF773
:101160005DFE00284FF0000002D0FFF747FE01E0CF
:10117000FFF74CFE257041F69A1100223868FFF700
:1011800069FD064646E00020FFF726FE257008E0D0
:10119000002051E025703DE084F801800120FFF738
:1011A0001BFE002240F6CD41E8E784F801800120D3
:1011B000FFF712FE00224FF48041DFE77868FFF767
:1011C00089FD0646D5F1110000D02EB10220FFF7AF
:1011D00015FE84F802B01DE0012816D980B2C8219E
:1011E0004843C117C90341EA5041C0034FF4FA72A2
:1011F000801841F1000152000023FFF7B9F80146C1
:1012000000227868FFF726FD06460220FFF7FEFD64
:1012100084F802803046BDE8F09F00F0B3FCB9E7E7
:1012200000F0B0FCB4E700F0ADFC04E000F0AAFC74
:101230000020FFF7EBFD0120FFF7E8FDAAE7FFF72D
:101240001CFEA7E7700000204C3900002DE9F0419A
:10125000861C0C4601270020FFF74CFD0F48016853
:101260002160D0E90012891A82680446511AB51C1F
:1012700007E000BF00F024FDD4E90001401AA16896
:10128000091A491C8D42F5D820683044206000209E
:10129000FFF732FD3846BDE8F0810000BC050020B4
:1012A00030B482680468531C8360A154D0E90112F1
:1012B0008A4202D330BC01F0D2B930BC7047000082
:1012C000034803C8814201D10120704700207047C4
:1012D000BC05002000780221FFF7EABD05494FF068
:1012E000FF32082841F8202002D3084480F8482023
:1012F00070470000E0020020F0B54FF0FF3512B15A
:101300000023082601E008230C260C4C05E000BF52
:1013100054F823707F1C04D05B1CB342F8D32846DA
:10132000F0BD26185DB286F8305044F82310002A2C
:10133000F5D1E11881F84800F1E70000E002002053
:101340000249084490F9300070470000E002002094
:1013500070B5084C050009D010342168002907D069
:1013600008682060496828468847F6E70834F4E7AB
:1013700070BD0000CC0200202DE9F05F26484168D6
:10138000F1B3DFF898B00E688146DBF8004087685B
:101390008078E11B21F07F45ED1CB0B9DFF880803B
:1013A0004FF48030C8F84403C8F804031120FFF755
:1013B00057F91120FFF75FF94FF0010AC8F800A0B4
:1013C0002F2000F0C5FD89F802A0B54200D23546B5
:1013D000124BE8193C3320F07F401860DBF8001016
:1013E0005A46091B21F07F41001B20F07F40C91C99
:1013F00081420FD9106818602F2000F0A9FD00E08D
:1014000004E0BDE8F05F1120FFF740B9BDE8F05FF0
:1014100001F0AABEBDE8F09FA00000200415014025
:1014200000100140FFB5002301244FF0A0456E4697
:10143000CA5CFF2A12D0D70922F0800246F8232086
:1014400004FA02F702D0C5F8087501E0C5F80C757A
:1014500005EB82020327C2F8007703E04FF0FF326A
:1014600046F823205B1CDBB2042BE1D30168324633
:101470005FF0000001EB800452F82030C4F86035C2
:10148000401CC0B20428F5D3FFBD00000EB51548BE
:101490000321008801EB004013A101F025FC144A50
:1014A00007CA8DE80700134A6946134800F038FF61
:1014B00008B1FFF756FB104A0223121F02F11C016C
:1014C000107840F00100107000200880488088806B
:1014D000C8809070064901221039074800F070FF5B
:1014E0000EBD00005801002044656D6F20310000E2
:1014F00064380000FD1400000400002070B50028CE
:1015000022D112484FF0000200F11C0483785D08DC
:1015100013F0010F34F8151004D0C8390904090C70
:1015200006D006E0C83189B242F21076B14200D34B
:10153000012224F81510002A06D05B1CD9B2817054
:10154000082901D30021817070BD00000000002037
:1015500010B5204803218CB0008801EB00401EA18B
:1015600001F0C2FB1E4C09AB04F11C0007C883E864
:101570000700002209A91B4800F0D2FE08B1FFF7BE
:10158000F0FA1848184B001F4FF4C872017841F068
:101590000101017000210846114489B223F810109E
:1015A000401CC0B21928F7D328340DF1040C0FCC1D
:1015B0008CE80F0094E80F000DF1140C8CE80F007C
:1015C00002200090012305AA01A9064800F07AFE36
:1015D0000CB010BD5801002044656D6F2032000032
:1015E00054380000040000206401002010B51548A4
:1015F000032188B0008801EB004013A101F074FBC7
:10160000134C04AB04F1480007C883E8070000222C
:1016100004A9104800F084FE08B1FFF7A2FA0D48B3
:101620005434001F017841F00101017094E80F006B
:101630008DE80F00012303226946064800F0C0FE32
:1016400008B010BD5801002044656D6F20330000C4
:101650005438000004000020F0B5574803219BB027
:10166000008801EB004055A101F03EFB554E02AB56
:1016700006F16400FF2407C883E8070091208DF875
:1016800008008DF8094092208DF80A0007208DF897
:101690000D0047F61220ADF8100001208DF8120061
:1016A0008DF80B40002202A9474800F039FE08B12E
:1016B000FFF757FA444D05AF2D1F7036287840F0DC
:1016C0000100287096E80F0087E80F0004208DF8CD
:1016D0000D00002041F28836ADF810603B4A8DF8CD
:1016E000120001466423194489B222F8101002EB5B
:1016F000400C771A401CC0B2ACF864703228F2D3A8
:101700008DF808408DF8094093208DF80A002E4886
:101710008DF80B40002202A9083000F001FE08B14C
:10172000FFF71FFA2878274E40F002008036287015
:101730000FCE09AF87E80F0096E80F000DAF103EFF
:1017400087E80F008DF808408DF809408DF80A40B1
:1017500094208DF80B001C48002202A9103000F0E4
:10176000DFFD08B1FFF7FDF92878203640F00400CE
:1017700028700FCE11AC84E80F0096E80F0015AC6E
:1017800084E80F000223012205A90F4800F018FE8B
:101790000D48022401230DAA09A90830009400F085
:1017A00091FD0948012315AA11A91030009400F0F9
:1017B00089FD1BB0F0BD00005801002044656D6F2D
:1017C000203400005438000004000020960100205E
:1017D00010B51548032188B0008801EB004013A123
:1017E00001F082FA134C04AB04F1400007C883E80F
:1017F0000700002204A9104800F092FD08B1FFF78D
:10180000B0F90D484C34001F017841F0010101701E
:1018100094E80F008DE80F00022301226946064874
:1018200000F0CEFD08B010BD5801002044656D6F7A
:1018300020350000D4380000040000202DE9F05FBE
:101840000025DFF8A48043E06068002100EBC506B6
:10185000012032789146FEF7BCFDD4E9062300EA68
:10186000020701EA030C57EA0C072FD0C7433A409E
:101870008B434846C4E9062300F0DAFC32784FF087
:10188000000A8146934601205146FEF7A2FDD4E9A5
:10189000042300EA020401EA03075A464846514677
:1018A000FEF797FD44404F403C430FD1707801282C
:1018B00015D0002289EA02008AEAE271084310D0BA
:1018C0000020726812B1C1B2584690476D1CEDB24B
:1018D00098F8000044468542B6D3BDE8F09F012247
:1018E000E8E70120EDE70000800000200E4910B578
:1018F0000A784C780023A24212D0521CD2B20A704D
:10190000022A00D10B70084A0B780C3252F82320BF
:1019100002608868104420F07F408860012010BD7C
:101920000360002010BD0000A00000202DE9F04160
:101930008046024601200021FEF74BFD1A4F054666
:101940000E463868FFF7C6F900280CD1174CD4E9C9
:10195000062110462A4001EA06031A4305D0A8438F
:10196000B143C4E90601BDE8F081404600F060FCE7
:1019700030B1D4E9040128433143C4E9040105E04E
:10198000D4E90410A943B043C4E90410D4E9060122
:1019900028433143C4E90601A1683868BDE8F04135
:1019A0000022FFF757B900007C39000080000020BA
:1019B0002DE9FC5F0E008346DDE90C47C6F100000F
:1019C00098469246814600D40846012503E000BFB0
:1019D00090FBFAF06D1C5045FADAA84500D945464F
:1019E00024B1002E01DB780700D5641EB80702D5AC
:1019F000B8F1000F0AD0F80708D13CB1A54205D2D2
:101A000020215846641EFFF74BFCF6E7002E02DA51
:101A10004E462D2102E0780703D52B215846FFF7CB
:101A20003FFC07F0030002280BD1B8F1000F08D1EA
:101A30003CB1A54205D230215846641EFFF730FC68
:101A4000F6E7CDE90047434652463146584601F095
:101A50008FFEBDE8FC9F000070B50E46044600797D
:101A600018494FF4A27501EB4010017F2068A1B125
:101A70004FF4887101F0D2FA4FF49071206801F0B0
:101A8000CDFA4FF49271206801F0C8FA2946206817
:101A900001F0C4FA0C49206809E04FF48E7101F09E
:101AA000ACFA2946206801F0A8FA08492068C0F875
:101AB0000413206800F00BFB3146BDE8704000F0D5
:101AC000EABA000050030020100302008000020068
:101AD00070B50C464FF488760546314601F06EFA33
:101AE00050B13146284601F06EFA6079400703D5BF
:101AF000216809B1012088474FF48A76314628468B
:101B000001F05CFA50B13146284601F05CFA607988
:101B1000000703D5216809B1022088474FF48E766B
:101B20003146284601F04AFA50B13146284601F0C4
:101B30004AFA6079C00603D4216809B100208847B9
:101B40004FF482763146284601F038FA00280CD04E
:101B50003146284601F037FA01202071216800291A
:101B600003D0BDE870400320084770BD02681346EB
:101B700002E08A4204D01268002AFAD10B600160A8
:101B8000704700000A4810B5807860B1002401E079
:101B9000022C06D02046FFF731F9641C042CF7D341
:101BA00010BD0324F6E7BDE81040FFF75DB9000063
:101BB0007000002003480179C90702D00078FFF7C0
:101BC00069BA7047700000202DE9F047394E0027B0
:101BD00080463D46DFF8E090D6F804A057E003D0F9
:101BE0000446D0F81C8035E099F8002002EB420151
:101BF000521CD2B289F8002009EBC10199F80230D9
:101C0000091D9A4201D189F8005048680A780446B3
:101C1000012A12D0022A02D0032A3BD108E001F0A7
:101C2000C9FB00B10127257434E00574C06900E0E8
:101C300070680028F9D170602CE0207C50BB886867
:101C40006060C868A0600869E0604869A061F078D9
:101C500000B165606268B168184B501A20F07F408F
:101C6000984202D2A168084406E0881AA16820F0D0
:101C70007F40814202D9081A206000E0256065603B
:101C80000120A56020742046E56101F075FBB8F1E4
:101C90000000A4D199F8001099F801008142A3D165
:101CA00017B97168514502D00120BDE8F0870020C6
:101CB000FBE70000A0000020B0030020FFFF7F0032
:101CC00070B588B0214800F0D9F82048001F0646BA
:101CD00000F0D4F81E4DD5E9014105E0C0F38912AA
:101CE00002EB9050641C044404EA010005EB800000
:101CF000C0688207F2D000200DF1080204EA010357
:101D000005EB8303641CDB6842F82030401C02288A
:101D1000F4D3029800F00300012808D002280AD169
:101D20000298032101EB905004EB900403E0029829
:101D3000C0F3831004443046002101AAFEF7D1FA13
:101D4000002800D06C6008B070BD0000D4090020ED
:101D5000BC05002000F042F908B1FEF702FF0020A8
:101D600000F05EF9FEF74CFF08B1FEF7FAFE1349EA
:101D70000220FFF745F908B1FEF7F3FEFFF7E0F8A0
:101D800008B1FEF7EEFE002001F008F808B1FEF7FA
:101D9000E8FE00F0B3FE0A480321008801EB004092
:101DA00008A100F0A1FFFFF771FB20BF40BF20BFDB
:101DB00000F0B2FE0028FBD1F7E70000890F000019
:101DC0005801002050574D206578616D706C65009A
:101DD0002DE9F047C7880446181D16468946B0FB12
:101DE000F7F1B0FBF7F207FB12009A193A44D21C44
:101DF000B2FBF7F2DDF820A001E02468491E0029BB
:101E0000FBD13D1A8846B54216D818E0BAF1000F4A
:101E100005D0211809EB08002A46091D04E02044DA
:101E200009EB08012A46001DFEF7E6FA00202468A7
:101E3000761BA844B74201D9354600E03D46002E46
:101E4000E4D1BDE8F087000030B5024669B100F08A
:101E5000D3FF0021084C0BE001EB410304EB8303AB
:101E600015685B88AB4202D11160002030BD491C6F
:101E70008142F1D3052030BD1C01002008B50121AD
:101E80006A46FEF721FA009808BD70B504460025A1
:101E90002846FEF72FFF21686268086890420ED935
:101EA000401E08600178238AE26801FB0325227A3C
:101EB0002168101AC0B20A79824200D2087100204B
:101EC000FEF71AFF284670BD70B505460C46002087
:101ED000FEF710FFE868298A201AB0FBF1F12A68A2
:101EE0001068431C13600170BDE870400020FEF7CD
:101EF00003BF10B530B1017A42680368891AC9B2CC
:101F00001A6006E00E2010BD03681A68541C1C609D
:101F10001170491EC9B2F7D200680021017108464C
:101F200010BDC20800F007030120895C98400840FA
:101F3000704700F180400068002800D00120704701
:101F400008B500F18040002101600068009008BDE4
:101F500000283ED01F49204A096800BF00BF00BFCB
:101F600000BF00BF00BF00BF00BF91422FD000BF25
:101F700000BF00BF00BF00BF00BF00BF00BF00BF69
:101F800000BF00BF00BF00BF00BF00BF00BF00BF59
:101F900000BF00BF00BF00BF00BF00BF00BF00BF49
:101FA00000BF00BF00BF00BF00BF00BF00BF00BF39
:101FB00000BF00BF00BF00BF00BF00BF00BF00BF29
:101FC00000BF00BF00BF00BF00BF00BF00BF01389F
:101FD000C3D17047180100200024F40070B50E4CE6
:101FE0000025207808B1852513E00021A1606160FB
:101FF0002161E1604FF0E020D0F80001012610F0EF
:10200000010F03D10721002000F045F803480660C6
:102010002670284670BD0000CC0200201805004044
:1020200070B5154D0446A87838B114B16168012027
:1020300088470020FEF75EFE15E00020FEF75AFEFE
:1020400024B10D4821461030FFF790FDE86850B9E3
:102050004FF48270FFF774FF02204107C1F80403B8
:10206000064901200860E868401CE860BDE870404F
:102070000020FEF741BE0000CC0200200800004016
:1020800000F01F02012191404009800000F1E02092
:10209000C0F8801170474907090E002806DA00F0E1
:1020A0000F0202F1E02282F8141D03E000F1E022A9
:1020B00082F8001400F01F020121914040098000C5
:1020C00000F1E020C0F88012C0F800117047000B4A
:1020D00040B270472DE9F0418846054600F0A4FF64
:1020E000234E002828461AD0FFF72AF9304490F8EA
:1020F00048008009032802D001280ED007E04FF0E5
:10210000A040D0F81005E84010F0010F05D00321E1
:102110002846BDE8F04100F0EDBB0221F8E700F0F1
:102120008FFF002822D02846FFF70AF904464FF413
:10213000807000EB84000F4F81B207EB8400D0F871
:10214000102542F00102C0F81025084600F002FCFC
:10215000B8F1000F0AD02846FFF7F2F856F8200031
:10216000002803D00120A040C7F80403BDE8F08197
:10217000E0020020006000402DE9FC41DFF8A4806F
:10218000044608EB0400002790F930001346C017FE
:102190000E46401C01D0082741E0F278194620463F
:1021A000FFF7AAF80546401C38D0B07850B14FF080
:1021B000A04000EB8400D0F8001721F00201C0F825
:1021C000001707E000217378204600910A4601912C
:1021D00000F050FBF078C0B11348317800EB850077
:1021E000D0F81025114B1A40C0F810254FF4F852C2
:1021F0004FF4403302EA042203EA01410A43D0F8D3
:1022000010150A43C0F8102509E008EB05003278E4
:1022100010F8481F41EA8211017000E00427384697
:10222000BDE8FC81E002002000600040FFE0FCFF10
:102230004FF0A041D1F81015C14011F0010000D0BD
:102240000120704770B5144D95F8540008B108206E
:1022500070BD0020411E2A18401CC0B282F8301008
:102260002028F8D300242046FFF738F8641CE4B295
:102270000C2CF8D307210620FFF70DFF4FF4BE709A
:1022800000F068FB05494FF00040C1F8040301204D
:1022900085F85400002070BDE0020020006000407E
:1022A000034890F85400002800D001207047000037
:1022B000E00200200121B1EB507F01D101207047E5
:1022C000002070472DE9F041904604460079134AFA
:1022D0001F4602EBC0060A46069D0021206800F05A
:1022E00078FE42460121206800F073FE2068C0F8A5
:1022F0001475E80701D0102004E0A80701D50420D8
:1023000000E000202168C1F80002EAB23146204610
:10231000BDE8F041082300F07FBF00003803002033
:102320002DE9F0410D4604460079244901EBC00631
:10233000307910B10820BDE8F0812946204632608E
:10234000FFF770F820680127C0F8007520686B79E6
:10235000AA792989C0F80C35C0F80425C0F80815F9
:10236000AA7AE87A216842EA0020C1F810052068BC
:102370000021C0F800122068C0F800134FF48E71DD
:10238000206800F020FE4FF48871206800F01BFEEA
:102390004FF48A71206800F016FE4FF482712068B5
:1023A00000F011FE306828B120682979000B40B296
:1023B000FFF771FE37710020BDE7000038030020F1
:1023C0002DE9F0410F46044600791849164601EB05
:1023D000C0081D463A460021206800F0FAFD3A4642
:1023E0000121206800F0F5FD206806F0010101EBF5
:1023F0005602C0F81425E80701D0102007E0A8070E
:1024000004D509B1082002E0042000E00020226881
:10241000C2F8000209B10C2300E00823EAB24146E9
:102420002046BDE8F04100F0F7BE00003803002070
:1024300010B501790A4A012302EBC1020168090BB8
:1024400049B201F01F04A3404909890001F1E021CC
:10245000C1F8803100680021C0F80015117110BD6D
:10246000380300202DE9F04105460079164F9046CB
:1024700007EB40140E46E07E10B10820BDE8F08165
:10248000707F20772846FEF74BFC5FEA080060600B
:102490003169216003D0317F2846FFF7DDFA2879C2
:1024A00007EB4010007F0028286801D0082100E0D9
:1024B0000421C0F800150020E0752076A0750121E8
:1024C000E176A076DAE70000500300202DE9F0471E
:1024D000054600793F4E904606EB40140F46207F9C
:1024E00018B10846FFF7E6FE30B1284600F074F850
:1024F00020B11120BDE8F0871020FBE784F816809A
:10250000A7600027A78228794FF0010806EB401446
:102510003E46207F0028286825D04FF49079494610
:1025200000F07CFD4FF4AC7A5146286800F076FD4F
:102530002868A17DA268C0F84425C0F8481528681D
:10254000C0F808806068F0B94946286800F061FD6D
:1025500080465146286800F05CFD58EA0001F3D03F
:1025600058BBA7750FE04FF48E7A514600F045FD39
:102570002868C0F808802146286800F0A5FF616837
:102580004FF4807089B13046B4E75146286800F0B6
:102590002FFD10B9A08A4845F7D1A08A484505D03B
:1025A0002146286800F090FF00E08146A08AA17DC6
:1025B0008842EAD3A08A484501D10F26D1E7514687
:1025C000286800F015FD0028F9D02868C0F80C80B4
:1025D000C7E70000500300200079044901EB4010D8
:1025E000807D002800D001207047000050030020AB
:1025F00070B5044600791149002601EB40152068AA
:102600002A7FC0F80065686888B1207901EB401026
:10261000007F0028206801D0094901E008498C3971
:10262000C0F808132068FFF752FDFFF729FD204688
:1026300000F012FDEE766E6070BD000050030020C9
:10264000100302000FB408B50399002904D004AAAE
:1026500000926A4600F00FF801B05DF814FB10B567
:1026600082680446002A05D0D4E90403216898470B
:102670000020A06010BD2DE9FC4791460C0080466B
:1026800076D014F8011B39B125290ED04046FEF74B
:1026900007FE20780028F4D198F80C00002867D0B5
:1026A0004046BDE8FC47FFF7DABF00200122217851
:1026B0002B291BD02D2902D0302908D102E040F06F
:1026C000010001E040F00200641C002AEFD1002567
:1026D0002A290ED02178A1F130020A2A11D205EB65
:1026E000850201EB4205641C303DF1E740F0040037
:1026F000EAE7D9F800100B1DC9F800300968641C1E
:102700000D44217800232E290BD114F8011FA1F1CB
:1027100030020A2A05D203EB830201EB4203303B6D
:10272000F3E76C290DD068290BD0692921D00BDC87
:10273000252918D0582931D063290ED0642915D104
:1027400017E014F8011FECE7702969D0732932D023
:1027500075291BD0782909D120E0D9F80000011D86
:10276000C9F8001001784046FEF79AFD641C90E716
:102770006CE0D9F800100A1DC9F800200968CDE9FD
:1027800000500A224046FFF713F9EFE7D9F800108E
:102790000A1DC9F8002009680A2206E0D9F80010CD
:1027A0000A1DC9F8002009681022CDE900504046F2
:1027B00000F0DEFFDAE7D9F8001000270A1DC9F89B
:1027C00000200E68C00705D112E04046761C7F1C31
:1027D000FEF766FD31780029F7D104E0202140465C
:1027E0006D1EFEF75DFDBD42C0D9002DF6D1BDE7DF
:1027F0004EB13046FDF724FE074604E02021404656
:102800006D1EFEF74DFDBD4206D9002DF6D103E049
:102810004046761CFEF744FD31780029F8D1A5E743
:10282000D9F80000011DC9F80010056830214046A4
:10283000FEF736FD78214046FEF732FD08200021E4
:10284000CDE90001034610222946B0E7BDE8FC8728
:1028500070B541EA4201DDE904564FF0A04441EA77
:10286000830141EA052104EB800041EA0641C0F8FA
:10287000001770BD70B541EA4201DDE904564FF022
:10288000A04441EA830141EA052104EB800041EACA
:102890000641C0F8001770BD70B541EA4201DDE99C
:1028A00004564FF0A04441EA830141EA052104EBBC
:1028B000800041EA0641C0F8001770BD1CB5002138
:1028C00000910B4601220191FFF7E6FF1CBD1CB5EC
:1028D00000220B46009211460192FFF7DDFF1CBD5E
:1028E0001CB5002100910B46012201911146FFF712
:1028F000D3FF1CBD4FF0A04202EB8000D0F80027B0
:1029000022F44032C0F80027D0F8002742EA014103
:10291000C0F80017704701224FF0A043824011B168
:10292000C3F808257047C3F80C25704718B5084B45
:102930006C4601441B68009306E000BF54F8203049
:10294000D3F81035401C08C28142F7D818BD0000EA
:1029500078390000034908B5084400210160006887
:10296000009008BD0060004002494058012800D096
:10297000002070470060004030B5124B0146002037
:10298000D3F81044224609E0157A854205D1401C4F
:102990000A28F7DB4FF0FF3030BD5268002AF3D130
:1029A000421CF9D00872D3F810242AB152684A6048
:1029B000D3F81024516030BD0022C3F810144A60CF
:1029C00030BD0000BC050020F0B595B01C46154692
:1029D0000F4608461A9E00F0CBFA182109A8FDF709
:1029E00024FD0E96CDE909540023082203A9384698
:1029F00000F0D8FA059806900498ADF81C00002065
:102A00008DF820000398082600F00300012802D06A
:102A100002281DD03CE003983346850AC0F3C2006B
:102A20008DF81E0003980FA9C0F380008DF81F00D9
:102A30000398C0F38314A200384600F0B3FA09A843
:102A4000009006AB22460FA9284600F0EDF91FE0E2
:102A50000398840DC0F3C2008DF81E000398C0F3E4
:102A600080008DF81F00082C01D2254600E00825C3
:102A700033462A460FA9384600F094FA2E44641BC8
:102A800009AB06AA29460FA800F032F9002CEAD1BA
:102A9000384600F076FA15B0F0BD7047012000F01E
:102AA00037BD000010B50448FFF7A2FDBDE8104097
:102AB000002000F02DBD0000BC00002008B5034A36
:102AC00000924023024AFFF77FFF08BDF13100006A
:102AD000BC040020084A012902EBC00005D00229ED
:102AE00003D0032903D0042903D0002070470079C4
:102AF00070474079704700000C3B000010B5FFF7AD
:102B0000CDFF04210348FFF737FF02490120487237
:102B100010BD0000C40000202DE9FE4FFEF7D0FBE1
:102B200010B10020BDE8FE8F6D480021C0F81814D8
:102B3000BFF34F8FD0E9014604EA060100EB8101A3
:102B40004FF000090AE000BFC1F3891202EB915176
:102B5000641C0C4404EA060100EB8101C9688A0781
:102B6000F2D000216A46804604EA060308EB83009F
:102B7000641CC06842F82100491C0229F4D3009863
:102B800000F00300022802D001284DD0A2E00098F6
:102B90005022810D8A46B2EB905F00D850210D463D
:102BA00065F39F50009008314E4800F098F90700F7
:102BB00077D000F0DDF94B4608226946384600F030
:102BC000F7F904EA0600311A8900091D09F1080B1A
:102BD0008D4222D9424E0C3631B1CAB208EB800088
:102BE000691A91460C3004E03046EAB2002691465C
:102BF0003146CDB201465B46384600F0D9F90BEBC1
:102C000009032EB12A4631464FEA070000F0D0F9F9
:102C10000AF1030004EB90043AE008EB80015B4604
:102C20002A4638460C31F1E70098C0F38310062895
:102C300000D30620009960F38911C1F38310801C32
:102C400000918100274800F04AF9070042D000F0C7
:102C50008FF94B4608226946384600F0A9F909F178
:102C6000080900250EE000BF04EA060008EB800119
:102C70004B46042238460C31641C00F099F909F1E6
:102C800004096D1C0098C0F38310A842ECD847B12A
:102C9000D8F81054D8F81804464660B1384600F009
:102CA00070F917E0687A012804D12A682846394665
:102CB000126890476D68002DF4D1384600F061F934
:102CC0000020FEF717F8D6F8180400B97460002049
:102CD000FEF712F8FEF7F4FA80F0010022E7000098
:102CE000BC050020C039000000231A4600F0BABA23
:102CF0002DE9F0470E4680461C46924608293ED8EC
:102D000094F80C90002020731946104600F0FEF94C
:102D10000025B54206D218F805201AA12046FFF773
:102D200091FC03E019A12046FFF78CFC6D1C082DD7
:102D3000EFD317A12046FFF785FC0025B54210D23E
:102D400018F80570FDF754FB0068C05D10F03E0FE9
:102D500001D03A4600E02E220EA12046FFF772FC79
:102D600003E00DA12046FFF76DFC6D1C082DE5D397
:102D700001222146504600F0ABF984F80C90BDE8E2
:102D8000F08700002025303278000000202020004D
:102D90007C0000002563000020000000114810B5F1
:102DA000FF218160002101604160C0F81814C0F863
:102DB000141480F81C140C4800F0E1F800280FD11E
:102DC0000A480B490B4B401AC108002005E000BF20
:102DD00000EB400223F82200401C8842F8D3002078
:102DE00010BD0000BC050020C03900003C3B0000C5
:102DF0000C3B00001C01002002480349401AC00897
:102E0000704700003C3B00000C3B000013B56846D7
:102E1000FFF71AF808B100201CBD0248009950F8CD
:102E200031001CBD0C3B00002DE9FF4781460C9D85
:102E300000200C462F7B28739846164629461846D4
:102E400000F064F9072E42D2DFE806F004090F16FD
:102E50001F2A360049462846FFF7F4FB37E049466B
:102E600028462268FFF7EEFB31E0D4E9002349460B
:102E70002846FFF7E7FB2AE0A0680090D4E900238A
:102E800049462846FFF7DEFB21E0D4E90201CDE9FF
:102E90000001D4E9002349462846FFF7D3FB16E09A
:102EA00004F1080007C88DE80700D4E9002349466B
:102EB0002846FFF7C7FB0AE004F108000FC88DE8B9
:102EC0000F00D4E9002349462846FFF7BBFB002248
:102ED0002946404600F0FCF82F73BDE8FF872DE936
:102EE000F041058A80462D1F4819C01CB0FBF5F043
:102EF000C6B24046FEF7C9FF041E19D0002020715B
:102F000001206071E58000272546761EC4F8008008
:102F10000BE04046FEF7B9FF60B16179491C617171
:102F2000286005467F1CC0F80080B742F1D32046D8
:102F3000BDE8F081204600F002F80020F8E72DE916
:102F4000F041457901466B1E002201E00968521CE0
:102F50009A42FBD30F680146002605E038460C680C
:102F6000FEF7B2FF2146761CAE42F7D3BDE8F081F2
:102F700008B501216A46001DFDF77FF908BDFEF77F
:102F8000B8BF38B50446001D01216A46FDF782F935
:102F9000009810F0FF0F04D12046BDE83840FFF73D
:102FA000CEBF38BD38B501240094FEF711FF38BDFF
:102FB00038B500240094FEF70BFF38BD40580028B8
:102FC00000D00120704708B50022425040580090C0
:102FD00008BD00EB41101368C0F820359188C0F897
:102FE00024159168C0F82815D168C0F82C157047D1
:102FF0004058002800D00120704708B500224250F8
:103000004058009008BDD0F80403084000D00120CB
:1030100070474058002800D00120704708B50022B2
:1030200042504058009008BD0449084490F93000CF
:10303000082801DB0120704700207047E0020020D3
:103040000449084490F93000082801D20120704753
:1030500000207047E002002070B5034600791B494C
:1030600001EB40101968027F4FF0FF30002AD1F8C1
:103070000C25D1F81465D1F80855D1F8104504D0C5
:10308000C1F80C05C1F8140503E0C1F81405C1F836
:103090000C051968C1F80805C1F81005501C02D0CC
:1030A0001046FFF70BFC701C02D03046FFF706FC01
:1030B000601C02D02046FFF701FC681C04D02846A3
:1030C000BDE87040FFF7FABB70BD00005003002060
:1030D00010B50C46C17949B11AB109A12046FFF7D4
:1030E000B1FA2046BDE81040FFF7B9BA007A0028CF
:1030F000F3D0044804A102682046FFF7A3FAECE7E6
:103100000D0A0000F40000202573000070B504468D
:10311000C0790D4600281CD1207A50B1A179A08831
:10312000FFF7D8FC0B4951F820200BA12846FFF7E8
:1031300089FAA0880021FFF769FE03460549A079B6
:10314000143951F820202846BDE8704003A1FFF74C
:1031500079BA70BDF4000020257300003C25733E51
:103160002025733A2000000070B5012670044FF04E
:10317000E0210025C1F88001084C4010C4F8480344
:10318000C4F8080366602F20FEF7E2FEA660044C38
:103190002F20A560FEF7DCFEA57070BD0010014079
:1031A000A000002070B50546C87D0C4600284FF4ED
:1031B000847128460AD0FFF720FFD5F81805627EF3
:1031C000E1688854607E401C607670BDFFF715FF93
:1031D000D5F8180570BD1FB501238DF800308DF8A6
:1031E00008100192D0E90012684690471FBD000008
:1031F00010B5084C0020D2B22070201DFFF766F9F0
:1032000008B1FDF7AEFC6078002802D021780029D3
:10321000FAD010BDB800002070B5054602201E4649
:10322000144608714A71086870B18221600700D5A0
:103230009221200701D541F02001E00601D521F0BF
:1032400080012868C0F800134FF482712868FFF7E6
:10325000BAFE2006286801D5304470BD0121815195
:10326000002070BD2DE9F843224C88460546914662
:103270001F4669461846A668FDF7E8FF88B3009820
:1032800000EA060104EB810252F80C1F21F0030151
:10329000491C401C11605FEAC56C02D541F0040175
:1032A00001E021F0040165F3C50167F3891168F3BA
:1032B0009F21116000EA0602290C04EB8202401CE7
:1032C000D160009000200AE0009959F8203001EA0E
:1032D000060204EB8202491CD360401C0091B842F4
:1032E000F2D394F81C0401E0FFF716FC0028FBD190
:1032F000BDE8F883BC0500202DE9F84F1D4C0025E2
:103300006846D4E901A6FEF7F1FA002738B3002396
:10331000009A61681CE0D1F800C00846944503D9C2
:10332000ACEB02020A6015E0A2EB0C0263440760FA
:10333000D0F80CC0C1698146BCF1000F08D006EB83
:10334000030828F07F48C0E9018CC9F81C500546E5
:103350000029E0D128466160FEF736FC03E02846EC
:10336000FEF732FC10B15046FEF706F8E770BDE8F4
:10337000F88F0000A00000200D4B10B5596831B146
:1033800002680C68A24204D8A21A0A60C16158609F
:1033900010BD0B4603E00B46C969121B21B10C6836
:1033A0009442F8D3A41A0C600260C161D86110BDC8
:1033B000A00000202DE9F041144E77683D462C46D0
:1033C00003E0844204D02546E469002CF9D11BE0D7
:1033D000D4B1A5420BD1F869706040B90C49012005
:1033E00088600021B160F0702F20FEF7B1FD2168E8
:1033F000E069E86110B102681144016070688742B9
:1034000002D00120BDE8F0810020FBE7A0000020F1
:1034100000100140F8B5064600240D462046FDF791
:1034200069FC684600F0FEF968B10570084946601D
:103430009DF8000048700020FDF75EFC1420FDF7A9
:1034400025F92046F8BD04240020FDF755FCF8E7D7
:10345000B00300202DE9F041194D6C68002C2CD0F0
:10346000184800270068A968B846401A20F07F462F
:103470002068B0420CD82146361A0744E469087C1B
:1034800020B181F81080886949698847002CEFD104
:1034900029786878814206D1401CC0B26870022841
:1034A00001D185F80180064869780C3040F8217018
:1034B000BDE8F0411420FDF7E9B8BDE8F081000057
:1034C000A00000200415014070B50C4605464FF4DD
:1034D0008E71FFF792FDA18AA068415CA08A401C12
:1034E000A082C5F81C1570BD1FB500228DF8002004
:1034F0008DF80810816801918275D0E90012684644
:1035000090471FBD0149012008707047B800002096
:1035100010B588B0044620220E496846FCF76CFFBF
:1035200006200090C01F0190029003904FF0EB70B6
:1035300006900CB1084A00E0002269460748FEF7F1
:1035400091FF08B1FDF70DFB0448001F447008B05F
:1035500010BD0000A039000005350000BC000020AF
:103560002DE9FF470C4605464FF40071FFF74BFD70
:1035700001274FF40178002618B34FF49279494699
:103580002846FFF735FDE0B149462846FFF735FDEF
:10359000C5F80883A07E00B96F6002208DF8000096
:1035A000D5F88004C5F880040390E07D8DF808000C
:1035B000E0680190E6752676D4E9001268469047E7
:1035C00027E004212846FFF71EFD10B34FF4847155
:1035D0002846FFF70DFDE0B121462846FFF7E2FD42
:1035E000E07D617E884214D1207E38B1617EE26840
:1035F000E0752069E0602676667607E0A07E00B977
:103600006F60C5F80883E675617EE2682046FFF7C3
:10361000E2FD4FF48E7841462846FFF7E9FC88B179
:10362000A08AA17D884204D221462846FFF74CFF9C
:1036300008E041462846FFF7E0FCA17D11B1204695
:10364000FFF752FF4FF4A27841462846FFF7D0FC1F
:10365000002812D041462846FFF7CFFCA07E00B1DB
:103660002F60E07D002808D0E675617EE26804B036
:103670002046BDE8F047FFF7AEBDBDE8FF872DE966
:10368000FF410C464FF4927705463946FFF7C1FCDF
:103690000026C0B139462846FFF7C0FC02208DF84D
:1036A0000000D5F88004C5F880040390D5F83C05E7
:1036B0008DF80800E0680190E6752676D4E90012DE
:1036C0006846904724E04FF4887739462846FFF74C
:1036D000A0FCE8B139462846FFF7A0FCD5F83C0528
:1036E000C1B2E07D884213D1207E60B1E268D5F896
:1036F000000220F02000C5F80002207EE07520695D
:10370000E060267601E0E675E2682046FFF763FD9B
:103710004FF4A27739462846FFF77BFC68B139465B
:103720002846FFF77BFCE07D38B1E675D5F83C050F
:10373000E268C1B22046FFF74EFD4FF49076314665
:103740002846FFF766FC00280FD031462846FFF7D1
:1037500065FCA07D002808D0D5F84C0504B0C1B2A6
:103760002046BDE8F041FFF7BFBEBDE8FF81000085
:103770002DE9F05F8346DDE90A4A994690460D46F9
:103780000846012703E000BFB0FBF8F07F1C40456E
:10379000FAD2B94500D94F465FEACA7012D18CB14E
:1037A0005FEA8A7002D5B9F1000F01D0202607E048
:1037B000302605E031465846641EFDF771FD0CB118
:1037C000A742F7D35FF00106B9F1010F02D9A9F1C1
:1037D000010903E0B5FBF6F0404502D306FB08F60D
:1037E000F2E7DFF83C9000BFB5FBF6F000FB1655A2
:1037F00019F800105846FDF753FDB6FBF8F6002EF9
:10380000F2D15FEACA7009D0002C07D0A74205D2D6
:1038100020215846641EFDF743FDF5E7BDE8F09F03
:10382000843900000A494A788B78521CD2B29342FC
:1038300000D100220B78934201D100207047027022
:10384000487800EB400001EBC000001D704700000D
:10385000B00300201C000020040000000000000055
:1038600000000000919294930704000010270200CA
:103870009192939407050000102700006401002036
:1038800019000000010000000000000024000020DA
:1038900006000000040000000000000091FFFFFF90
:1038A00007070000A86100003000002006000000AB
:1038B00000000000040000000000000007000000FD
:1038C000000000003C000020080000000100000093
:1038D00000000000960100206400000000000000CD
:1038E000000000004C0000200200000095000000D5
:1038F000000000004C000020020000003100000029
:10390000000000009601002064000000020000009A
:10391000000000009193949207070000093D020007
:103920005000002010000000000000000000000017
:103930008D14000051150000ED150000591600000F
:10394000D1170000111213140D0E0F106002002089
:1039500080020020AC0200200D000300B10E000028
:103960000E000300B10E00000F000300B10E0000B6
:1039700010000300B10E0000000000507003002092
:1039800003000000303132333435363738394142A4
:1039900043444546BD2A0000A52A00009B2A00009A
:1039A000FFFFFFFFFFFFFFFFFFFFFFFFFFFFFFFF27
:1039B00000000000000000000000D6010701000028
:1039C000D8000020D0000020D8000020FC040020F7
:1039D000180000000040404040404040404041410D
:1039E00041414140404040404040404040404040D4
:1039F000404040404005020202020202020202026E
:103A0000020202020220202020202020202020026A
:103A100002020202020290909090909010101010FA
:103A20001010101010101010101010101010101096
:103A3000020202020202888888888888080808082A
:103A400008080808080808080808080808080808F6
:103A50000202020240000000D53900007761726E58
:103A6000696E670064656275670000001B5B313B2F
:103A700033306D001B5B306D000000001B5B313B81
:103A800033316D001B5B313B33326D001B5B313BCF
:103A900033336D001B5B313B33346D001B5B313BBB
:103AA00033356D001B5B313B33366D001B5B313BA7
:103AB00033376D00696E666F000000006572726FCB
:103AC00072000000636C6F636B0000006770696FC9
:103AD0007465000070776D007561727400000000FD
:103AE00062616C6C6F630000617070003C3B0000B1
:103AF000000000206401000094040000943B0000DA
:103B0000640100207C2800009C0A0000C43A0000E8
:103B100000000000CC3A000000000000D43A000091
:103B200000000000D83A000000000000E03A000069
:103B300000000000E83A0000000003005154C001FA
:103B4000404510024001E5200240025A8004890AE3
:103B5000490E89162902891009200A0144122039C8
:103B6000B8031E943923BC3A1A5C041AB4041A64CC
:103B7000041A74041A6C041A7C041A84041A8C043F
:103B80001A94041A9C041AA4041AAC041104489050
:043B9000D00300005E
:0400000500000201F4
:00000001FF
