:020000040000FA
:10000000002D0020550700005D07000021050000BD
:1000100061070000630700006507000000000000A2
:100020000000000000000000000000006707000062
:1000300069070000000000006B0700006D0700006A
:10004000530B00006F070000910D00006F070000C8
:100050006F0700006F070000F10800006F07000045
:100060006F0700006F0700006F0700006F070000B8
:100070006F0700006F0700006F0700006F070000A8
:100080006F070000610B00006F0700006F070000A2
:10009000850B00006F0700006F0700006F0700006E
:1000A0006F0700006F0700006F0700006F07000078
:1000B0006F0700006F070000000000000000000054
:1000C0006F0700006F0700006F0700006F07000058
:1000D0006F0700006F0700006F070000AD0D000004
:1000E0006F0700006F0700006F07000000000000AE
:1000F000000000006F070000000000006F07000014
:1001000000000000000000000000000000000000EF
:1001100000000000000000000000000000000000DF
:1001200000000000000000000000000000000000CF
:1001300000000000000000000000000000000000BF
:1001400000000000000000000000000000000000AF
:10015000000000000000000000000000000000009F
:10016000000000000000000000000000000000008F
:10017000000000000000000000000000000000007F
:10018000000000000000000000000000000000006F
:10019000000000000000000000000000000000005F
:1001A000000000000000000000000000000000004F
:1001B000000000000000000000000000000000003F
:1001C000000000000000000000000000000000002F
:1001D000000000000000000000000000000000001F
:1001E000000000000000000000000000000000000F
:1001F00000000000000000000000000000000000FF
:10020000DFF80CD000F044FB004800472532000026
:10021000002D002030B4044654E8000F0D4644E899
:100220000053002BF8D1156030BC704730B4044641
:1002300054E8000F40EA010544E80053002BF7D1D1
:10024000156030BC704730B4044654E8000F00EA33
:10025000010544E80053002BF7D1156030BC70470E
:1002600030B4044654E8000F80EA010544E8005326
:10027000002BF7D1156030BC704730B4044654E809
:10028000000F00EB010544E80053002BF7D1156087
:1002900030BC704730B4044654E8000FA0EB0105B1
:1002A00044E80053002BF7D1156030BC70470000C4
:1002B00030B4044654E8000F0D4644E80053002BC8
:1002C000F8D1156030BC704730B4044654E8000FD4
:1002D00040EA010544E80053002BF7D1156030BC1B
:1002E000704730B4044654E8000F00EA010544E8C2
:1002F0000053002BF7D1156030BC704730B4044672
:1003000054E8000F80EA010544E80053002BF7D1C0
:10031000156030BC704730B4044654E8000F00EB61
:10032000010544E80053002BF7D1156030BC70473D
:1003300030B4044654E8000FA0EB010544E8005334
:10034000002BF7D1156030BC7047000030B4044674
:1003500054E8000F0D4644E80053002BF8D1156017
:1003600030BC704730B4044654E8000F40EA010541
:1003700044E80053002BF7D1156030BC704730B40F
:10038000044654E8000F00EA010544E80053002B3E
:10039000F7D1156030BC704730B4044654E8000F04
:1003A00080EA010544E80053002BF7D1156030BC0A
:1003B000704730B4044654E8000F00EB010544E8F0
:1003C0000053002BF7D1156030BC704730B40446A1
:1003D00054E8000FA0EB010544E80053002BF7D1CF
:1003E000156030BC7047000030B4044654E8000F7C
:1003F0000D4644E80053002BF8D1156030BC70471F
:1004000030B4044654E8000F40EA010544E80053C4
:10041000002BF7D1156030BC704730B4044654E867
:10042000000F00EA010544E80053002BF7D11560E6
:1004300030BC704730B4044654E8000F80EA010530
:1004400044E80053002BF7D1156030BC704730B43E
:10045000044654E8000F00EB010544E80053002B6C
:10046000F7D1156030BC704730B4044654E8000F33
:10047000A0EB010544E80053002BF7D1156030BC18
:100480007047000030B4044654E8000F0D4644E8BD
:100490000053002BF8D1156030BC704730B40446CF
:1004A00054E8000F40EA010544E80053002BF7D15F
:1004B000156030BC704730B4044654E8000F00EAC1
:1004C000010544E80053002BF7D1156030BC70479C
:1004D00030B4044654E8000F80EA010544E80053B4
:1004E000002BF7D1156030BC704730B4044654E897
:1004F000000F00EB010544E80053002BF7D1156015
:1005000030BC704730B4044654E8000FA0EB01053E
:1005100044E80053002BF7D1156030BC7047000051
:10052000094B1EF0040F1CBFEFF309801847EFF3CF
:1005300008800649064A884201D8904202D88D4672
:100540004FF0000018470000B50A0000002D002001
:10055000000D002030B450E8012F93B2C489234429
:100560008489A34228BF1B1B0489A34202BFBFF397
:100570002F8F002007E0C3EA020340E80134002C7B
:10058000E9D14FF001000A6030BC704750E8012FFC
:10059000C2EA024240E801210029F7D1704730B495
:1005A00050E8022F1FFAA2F3C488A34202BFBFF390
:1005B0002F8F00200DE0C48923448489A34228BFE3
:1005C0001B1BC2EA034340E80234002CE8D14FF081
:1005D00001000A6030BC704750E8022FC2EA224294
:1005E00040E802210029F7D17047034653E8022F63
:1005F000D988B2EB324F4FF0000017BF92B241EAF8
:10060000014142EA014104E05A68B2EB324F08BFAF
:10061000012043E80212002AE8D1704730B40446B2
:1006200054E8000F0D4644E80053002BF8D1156044
:1006300030BC704730B4044654E8000F40EA01056E
:1006400044E80053002BF7D1156030BC704730B43C
:10065000044654E8000F00EA010544E80053002B6B
:10066000F7D1156030BC704730B4044654E8000F31
:1006700080EA010544E80053002BF7D1156030BC37
:10068000704730B4044654E8000F00EB010544E81D
:100690000053002BF7D1156030BC704730B40446CE
:1006A00054E8000FA0EB010544E80053002BF7D1FC
:1006B000156030BC7047000030B4044654E8000FA9
:1006C0000D4644E80053002BF8D1156030BC70474C
:1006D00030B4044654E8000F40EA010544E80053F2
:1006E000002BF7D1156030BC704730B4044654E895
:1006F000000F00EA010544E80053002BF7D1156014
:1007000030BC704730B4044654E8000F80EA01055D
:1007100044E80053002BF7D1156030BC704730B46B
:10072000044654E8000F00EB010544E80053002B99
:10073000F7D1156030BC704730B4044654E8000F60
:10074000A0EB010544E80053002BF7D1156030BC45
:10075000704700000648804706480047FEE7FEE76E
:10076000FEE7FEE7FEE7FEE7FEE7FEE7FEE7FEE761
:10077000890B0000010200002DE9F05F0546002012
:1007800092469B4688460646814640241BE0284602
:1007900041464746224600F06BF853465A46C01A77
:1007A000914110D311461846224600F016F82D1A32
:1007B00067EB01084F4622460120002100F00DF8AA
:1007C00017EB00094E41201EA4F10104DFDC48466E
:1007D00031462A464346BDE8F09F202A04DB203AF2
:1007E00000FA02F1002070479140C2F1200320FA84
:1007F00003F3194390407047004870471C6600009F
:1008000040EA01039B0703D009E008C9121F08C092
:10081000042AFAD203E011F8013B00F8013B521E12
:10082000F9D27047D2B201E000F8012B491EFBD289
:1008300070470022F6E710B513460A4604461946EB
:10084000FFF7F0FF204610BD421C10F8011B0029E5
:10085000FBD1801A704730B504460020034600E003
:100860005B1C934203D2E05CCD5C401BF8D030BDF2
:10087000202A04DB203A21FA02F00021704721FAF5
:1008800002F3D040C2F1200291400843194670475C
:10089000064C074D06E0E06840F0010394E80700CD
:1008A00098471034AC42F6D3FFF7AEFCCC6600009C
:1008B000EC66000030B58C1810F8012B12F00F0315
:1008C00001D110F8013B120906D110F8012B03E009
:1008D00010F8015B01F8015B5B1EF9D101E001F842
:1008E000013B521EFBD1A142E6D3002030BD0000E7
:1008F0002DE9F04F00268FB0DFF8B081B1460296A7
:100900004FF48075012437460396284603F0BAFF5A
:1009100038B1D8F80403204203D0284603F0A8FFDA
:1009200026432D1D64007F1CADB2082FEDD34FF47C
:10093000BE74204603F0A6FF48B1204603F098FF9E
:1009400046F0004602AA0221002003F07BFF584C2B
:1009500016F0FF0F15D00127002537420DD008EB08
:100960008501D1F81005D1F81015C0F3052054F811
:100970002520C1F3014102B190477F006D1C082D75
:10098000EBD3002E7DDA0020CDF82890411E0DF12A
:10099000080B08AACDF82C9042F82010401C914674
:1009A0000228F9D300252E46A01910F8607F90F98F
:1009B000000027F0C008401C49D008A9404602F0BA
:1009C000A3FD88B34FEA971A404601F08DFD54F815
:1009D00020701FB1BAF1030F03D00FE0BAF1030F7B
:1009E00035D10AA84FEAD80208F00703815C4FF01E
:1009F000010C0CFA03FC41EA0C01815406A8CDF865
:100A0000188003F0DBFE069900EB8100D0F80007A8
:100A100002A9C0F301400690404602F075FD00288F
:100A2000069802D0022802D011E003280FD1BAF1B3
:100A3000030F08D10698022832D00221404603F065
:100A400096FE6D1CEDB217B151464046B847761C74
:100A5000042EA9D3002D20D004AA0221002003F0E7
:100A6000F1FE00205A4604A952F8206051F82030C7
:100A7000B34217D000200AAE4FEA090351F82070A4
:100A800000E00AE042F8207056F8207043F8207029
:100A9000401C0228F2D3002D84D10FB0BDE8F08FA6
:100AA0000321CBE7401C0228DED3F6E700600040BC
:100AB000F4030020044604F04DF900BF03F0BAFF30
:100AC0000028FBD1204600F001F80000BFF34F8F53
:100AD00005480168054A01F4E06111430160BFF374
:100AE0004F8F00BFFDE700000CED00E00400FA05A9
:100AF00000F01F02012191404009800000F1E02038
:100B0000C0F88012704700F01F0201219140400997
:100B1000800000F1E020C0F80011704700F01F02D3
:100B2000012191404009800000F1E020C0F800124E
:100B300070474907090E002806DA00F00F0000F19F
:100B4000E02080F8141D704700F1E02080F80014C8
:100B5000704710B502F0DEFDBDE8104002F05CBF4A
:100B600007480021C0F84011C0F84411C0F84811EE
:100B7000C0F84C11C0F80011C0F8041104F0C2BE56
:100B80000010014004F010BE30B54FF0805000223C
:100B9000D0F830110123082902D1D0F8344114B122
:100BA000082909D00BE04FF08041C1F80C21C1F8B1
:100BB000102168490A6005E0D0F8344114B10829D1
:100BC00057D059E064490968644C21606249091DA5
:100BD0000968241D2160604908310968241D2160CD
:100BE0005D490C310968241D21605B491031096899
:100BF000241D2160584914310968241D216056497B
:100C000018310968554C2034216053491C3109685A
:100C1000241D2160504920310968241D21604E495E
:100C200024310968241D21604B4928310968241D9D
:100C3000216049492C310968241D21604649303121
:100C40000968464C40342160434934310968241D09
:100C50002160414938310968241D21603E493C31F9
:100C60000968241D21603C4940310968241D216028
:100C700005E0D0F8344114B1082904D006E0394C1D
:100C80003749216005E0D0F8344114B1082904D077
:100C900006E0354CFB21216005E0D0F8344114B169
:100CA000082908D00AE090F858423048016864F3F7
:100CB0000301016005E0D0F8344114B1082905D0E2
:100CC0000EE02B494FF40070086002E0D0F83401C8
:100CD00030B928480168C90702D06FF001010160EE
:100CE0002548016841F470010160BFF34F8FBFF3E5
:100CF0006F8F4FF01021D1F80002002803DBD1F8EC
:100D00000402002822DA1D4C23601D480368002BD2
:100D1000FCD01223C1F800320568002DFCD0C1F8C8
:100D2000043201680029FCD0226001680029FCD04F
:100D3000BFF34F8F10487C380168124A01F4E0611C
:100D400011430160BFF34F8F00BFFDE70F490E480D
:100D5000086030BD380500400404001020C5004084
:100D6000488103008C56004018F50040E40E004016
:100D7000409602400004004088ED00E004E5014098
:100D800000E401400400FA050090D003280100208F
:100D90000448017F04480029024901D004F0C7BE7D
:100DA00004F036BE5C040020002000402DE9F05F16
:100DB0005448D0F8045300242E464FF0010913E0A4
:100DC00096FAA6F0B0FA80F7B80000F58070804679
:100DD00004F028F928B1404604F02CF909FA07F08C
:100DE000044309FA07F08643002EE9D103F064F9C1
:100DF000002869D0444AD078F0BBA00264D54349AA
:100E000040F2A978C1F80080081D036813F0FF0CB8
:100E100002D0036803EA0C0C40F2AA7AC1F800A0E1
:100E2000036813F0FF0301D00668334040F2AB7B48
:100E3000C1F800B0066816F0FF0601D007683E4012
:100E400040F2AC770F60076817EA0C0709D0D2F8B8
:100E500010C04CEA070CC2F810C0C1F8008007604F
:100E6000076840F2AD770F6007681F4009D013692B
:100E700043EA0743136100E026E0C1F800A00760E1
:100E8000036840F2AE730B60036833400BD0DE079B
:100E900001D044F40004DE0601D544F00104C1F899
:100EA00000B003600068106930F0011102D005F055
:100EB00080710C4310F0011F06D0690504D520F0A5
:100EC000011044F480641061C4F3C05624F400049B
:100ED0004F46DFF83C8009E094FAA4F0B0FA80F5C0
:100EE00058F82500804707FA05F08443002CF3D119
:100EF00004F09CFF002E03D0BDE8F05F01F000BDC0
:100F0000BDE8F09F007002407800002000780240A9
:100F10005064000002E008C8121F08C1002AFAD17C
:100F200070477047002001E001C1121F002AFBD169
:100F30007047022001F01AB870B50024064D06E093
:100F40006868012110F8340002F04AFC641C28781B
:100F50008442F5D3002070BD90000020F8B51546FE
:100F60000C460646052A01D20720F8BD02F01AFDFC
:100F700018B902F0E9FC0028F7D1114900224E60AF
:100F80000C708D60C1E90422C1E906220D4D0DE00F
:100F900006EBC4006968009181788DF80110007833
:100FA000094A694602F068FC0028DED1641EE4B2FA
:100FB000EED2BDE8F840054A0021024800F050B8E2
:100FC00090000020F0640000912A0000D525000068
:100FD00003F0C0FE03F02EFD0028FBD1104C0121D0
:100FE000208801EB00400FA103F00CFE10480068C0
:100FF000C00700D000BE2088022101EB00400DA1F7
:1010000003F000FEBFF34F8F0948E43801680D4A32
:1010100001F4E06111430160BFF34F8F00BFFDE7B2
:1010200080010020466174616C206572726F7200ED
:10103000F0ED00E053797374656D2072657365742B
:10104000000000000400FA050EB500210091CDE972
:1010500001106A4644F20100FFF7BAFF0EBD00001E
:10106000074B9B7823B12AB120B10068037C1BB1E8
:101070000820704707207047417442610020704784
:10108000D406002070B504F0E3F8104800240B21CA
:10109000047044700E4D817014206C602C706C7064
:1010A000FFF726FD07211420FFF743FD1420FFF76B
:1010B0002AFD0848046007211120FFF73AFD054882
:1010C000001F0068A860002070BD0000D40600204A
:1010D000B0000020081501402DE9F843DFF87090BA
:1010E00099F802305BB350B3052902D20720BDE85E
:1010F000F88343691BB3437C012B22D000270446AD
:10110000002588461646284600F0BEFE684605F0D3
:101110002DF8C0B1012101700E4944600968C0E991
:101120000218C0E904769DF8000089F8010000204B
:1011300000F0ACFE1420FFF7F1FC2846D7E70820AA
:10114000D5E70F46DBE70425002000F09FFEF4E71B
:10115000D4060020041501400649897839B130B120
:10116000416921B100210174022104F0ABBB0820C8
:1011700070470000D406002070B505460548446855
:1011800005E02946204601F0B7F920680468002CE4
:10119000F7D170BD2800002070B5094844680CE004
:1011A000267A002505E02946204600F03EFD6D1C0C
:1011B000EDB2B542F7D320680468002CF0D170BDC1
:1011C0002800002070B50A4844680DE0267A002502
:1011D00006E000222946204600F066FD6D1CEDB2B7
:1011E000B542F6D320680468002CEFD170BD000032
:1011F0002800002070B50849054606204C6807E025
:101200002946204601F078F9062803D121680C68A8
:10121000002CF5D170BD000028000020F8B5044670
:1012200000250FE0002705E0007800F023FA08B160
:101230001120F8BD3946781CC7B2304600F05EF880
:101240000028F1D12946681CC5B2204600F05FF89D
:101250000600E7D100250DE0002703E000782146D5
:1012600000F00DFA3946781CC7B2304600F046F857
:101270000028F3D12946681CC5B2204600F047F883
:101280000600E9D1074800E0086801680029FBD1A1
:10129000046005486946406900906068026820461D
:1012A0009047F8BD2C000020F86200002DE9F041C5
:1012B000164642680D461C46526819469047020081
:1012C00014D000210B4627680EE0501890F801C09A
:1012D000AC4507D19E4203D101782160BDE8F08181
:1012E0005B1CDBB2007801448F42EED80020F5E7AA
:1012F00001484068704700002800002042788A4278
:1013000001D8002070478278104408447047027A60
:101310008A4201D80020704701EB4101093008449E
:101320007047000002484078002800D00120704734
:101330002800002002484178491C41700020704775
:101340002800002002484178491E41700020704763
:1013500028000020044901E01168091D0A68002ADC
:10136000FAD10860002070473000002009490BE0E6
:10137000824207D1026852680A6000680021416019
:10138000084670471168091D0A68002AF0D1052037
:101390007047000030000020F8B50D46014628785F
:1013A000062401260B283CD2DFE800F03B060A0C9D
:1013B0003B1A2C0A1F212A00032004F0C3FC30E052
:1013C00000242EE0284800216A46FEF73CFF002852
:1013D000F6D026480660BFF36F8FBFF34F8FEFE75D
:1013E000084600F06BF804461BE0002005E02048AA
:1013F000006810F0010F03D0022004F0A3FCDFE727
:101400000120FAE71849E878091D0A6832B100237B
:101410000B6049689047040005D000E00E2402F0FC
:1014200071FF2046F8BD04F085FC10B102F02DFFDD
:10143000F7E7A8780028F4D10E480078082810D1E2
:101440000C48001D007800070BD10A4808300078CE
:1014500010F0F00F05D107480C30007810F0F00FB5
:10146000DFD002F00FFFDCE7400000205C7002409C
:1014700038040040E00F00F002494978C14001F013
:10148000010070473C000020024A0146D2E90002F8
:10149000104700002C03002070B50C46054602F0F2
:1014A000EBFEA84201D0102070BD0348D4E9001221
:1014B000C0E90212002070BD3C0000207FB5054647
:1014C00005208DF8000006240DF1010002F0F2FE67
:1014D0009DF8010010F01F0006D001280FD002284F
:1014E00026D0032833D106E06946284603F078FF6A
:1014F000044606282AD16846FFF77CFE25E09DF8C1
:10150000050003A900F0AEFB050008D06A469DF86F
:101510000C1000F086FB0446062802D016E01024CA
:1015200015E06A469DF80C10284604F083F80CE09C
:101530009DF80500010705D0694600F053F8044600
:10154000062803D1684603F0CDFF044624B102F01B
:10155000D9FE04B0204670BD04F0ECFB10B102F0DF
:1015600094FEF6E702F08EFEF3E70000FEB5C088B9
:1015700014460E46A04201D2054600E015468442BC
:1015800007D2802002F0D8FCB4FBF0F100FB114040
:1015900068B100200096CDE90150002000F074FCF5
:1015A0006946802000F078F8040002D006E00120AF
:1015B000F0E705498020FFF76FFF0446002000F0A8
:1015C00065FC2046FEBD00002863000008B14021F4
:1015D00001600148704700009003002002F0B4BB96
:1015E00002F0CCBB10B50C46010600F00F02092A30
:1015F00009D200F00BF8006828B141680A6821465A
:10160000BDE810401047102010BD0000010600F09A
:101610000F0001D5034901E00249483101EBC00048
:1016200070470000E402002010B5044600F00F00EF
:10163000082805D2204602F0F9FB204602F0ACFC57
:101640002046BDE8104002F0FFBB000070B50C461C
:10165000054602F039FC18B105480078022801D08F
:10166000082070BD21462846BDE8704002F02EBC1F
:101670002800002010B5FFF7C9FF006810BD10B5A5
:101680000C46FFF7C3FF04601CB161680968416044
:1016900010BD0021FBE7000070B50C46054602F0C6
:1016A00013FC18B105480078022801D0082070BD4D
:1016B00021462846BDE8704002F086BC2800002084
:1016C00038B50B4D04466946E86901F080FE0028F4
:1016D0000CD0216801606946E86901F099FE014675
:1016E00004480268002A01D02046904738BD000017
:1016F000F86200007403002070B50178634C054661
:10170000062975D005DC72D2DFE801F064749578A3
:10171000829E5E488229007823D011DC0B2968D094
:10172000802939D0812962D15948FFF7ADFE584848
:10173000FFF722FD092004F011FDA06850B906E072
:10174000832933D0842952D1032837D03CE0514833
:10175000007A00B1012002F0D9FDFFF71DFD012044
:1017600065E0FFF719FD02F0F5FD002003F0F0FF42
:101770004748401CFFF700FD4548401CFFF784FE2A
:101780000A2004F0EBFC207800F054FB00282ED057
:10179000BDE8704001F024BF052803D0062803D01F
:1017A000072824D1022042E0082040E003281ED16F
:1017B00002F0EEFD00281AD0042038E002F0E8FD27
:1017C00010B1042003F0C4FF02F04CFE00280ED03C
:1017D00006202CE0002004F0C1FCA46805E02946A6
:1017E000204600F089FE20684468002CF7D170BDC7
:1017F00037E02EE0FFF7D0FC022000E0052003F0E8
:10180000A7FF032004F0AAFC2846FFF73DFE23E0D3
:10181000032004F0A3FC1E48801CFFF735FE1C4883
:10182000801CFFF7A9FC20780628BBD10720BDE863
:10183000704003F08DBF032003F08AFF022004F004
:101840008DFC2846FFF798FC2846BDE87040FFF75E
:101850001BBE0B2004F082FC2846BDE87040FFF759
:101860008BBCA878FFF7D2FED0E9002329461046AA
:1018700098470028BBD0A8780107B8D000F00F0126
:101880000829B4D2BDE8704002F062BB28000020F5
:101890000963000074030020FFF712BF38B5074C3E
:1018A0006946E06901F0A9FD002806D0FFF724FF92
:1018B0006946E06901F096FD012038BDF86200003C
:1018C0000148FFF7FDBE0000F862000010B50121DD
:1018D000001D01F0C1FDBFF34F8F10BD10B50121F8
:1018E000001D01F0BFFDBFF34F8F10BD10B50021EB
:1018F000001D01F0A5FDBFF34F8F10BD10B50021F5
:10190000001D01F0A3FDBFF34F8F10BD2DE9F04185
:1019100007461878002416460D460B2830D2DFE81B
:1019200000F0060F3C3E2F111643526467005988A1
:10193000104601F07FFA002854D0A869816828E099
:10194000032156E02946384603F004FE23E0987848
:1019500000060FD5D87820B903222946384604F06E
:10196000F7FB70680028E8D00321304600F00DF93D
:10197000002437E0A869C06810B1D87810B106E03B
:1019800006242FE002222946384604F0E1FBA8692C
:10199000C16838468847044624E0022126E0022137
:1019A000104600F0F2F8C8E73846FFF7D3FC040011
:1019B00018D13846FFF7BEFC040013D10021304691
:1019C00000F0EBF80EE03846FFF7D0FC040009D138
:1019D0003846FFF7B7FC040004D100214FEA0600A7
:1019E00000F0D3F82046BDE8F08101211046E7E77A
:1019F00001211046F4E72DE9F041056880464FF0DB
:101A0000000417000E4605F10805204613D02918DA
:101A10008A7BB2422BD014B90AB901F10E04401CE2
:101A20000628F4D324B12846FFF750FF77B90CE01D
:101A30001120BDE8F0812918897BB14214D12C18FE
:101A40000E3414D02846FFF741FF002626702846A2
:101A5000FFF74CFF284600F0BEF80028E9D04046CA
:101A6000BDE8F04101F0C9B8401C0628E3D30020CE
:101A7000DFE7006890F82400084000D0012070479C
:101A80002DE9F041046807460D46207D08341646CE
:101A9000284000D00120B04202D10020BDE8F081F2
:101AA0002046FFF713FF207B0EB1284300E0A84338
:101AB00020732046FFF71AFF204600F08CF800281C
:101AC000ECD03846BDE8F04101F097B82DE9F0417F
:101AD0000746046890F830000D4608341646A842C0
:101AE00002D80720BDE8F081204600F065F838B143
:101AF000A07CE84000F00100B04203D10020F1E7F3
:101B00000820EFE72046FFF7E9FE0120A17CA8406E
:101B10000EB1014300E08143A1742046FFF7EEFEC1
:101B2000204600F06DF80028DCD03846BDE8F041D2
:101B300001F008B970B50468064608340D46204621
:101B400000F03AF840B14DB1B4F90E00294601F069
:101B5000B4F828B1112070BD082070BD002070BD00
:101B60002046FFF7BBFEA0892844A0812046FFF74E
:101B7000C5FE204600F044F80028F0D03046BDE80D
:101B8000704001F0DFB800697047012208B58A4053
:101B9000D1436A46FEF7F3FB08BD0A4608B50121AA
:101BA00091406A46FEF7DEFB08BD0068C840C043AE
:101BB00040F30000401C704710B504460021FFF7B9
:101BC000F4FF30B101212046FFF7EFFF08B10120FB
:101BD00010BD002010BD10B501686FEA910141F3FE
:101BE0000001491C03D000F03FF9002010BD00683F
:101BF0006FEAD00040F30000401C80F0010010BDEF
:101C000010B504460221FFF7D0FF18B100F02CF9FF
:101C1000002010BD03212046FFF7C7FF80F0010020
:101C200010BD114642681368184770B504464068F5
:101C30000D46C2680AB12046904720462946FFF764
:101C400066FB05464678002408E021462846FFF753
:101C500055FB007802F0C8F8641CE4B2B442F4D337
:101C600070BD00002DE9F04180460E480E464568E3
:101C700014E02F7A00240DE021462846FFF747FBA9
:101C80000178414504D106B134702846BDE8F081A1
:101C9000641CE4B2BC42EFD328680568002DE8D18B
:101CA0000020F3E72800002070B504464068154680
:101CB0000E4683681BB120469847062803D120466C
:101CC00031460DB1072070BDFFF721FB0546467870
:101CD000002408E021462846FFF710FB0078FFF7B4
:101CE000A3FC641CE4B2B442F4D3002070BD0346EC
:101CF00000205A681269002A01D018461047704720
:101D00002DE9F843284E0446042384222549F0692E
:101D100001F04AFB10B10320BDE8F88301F0A0FCFC
:101D2000224802F057FA0028F6D12148B4B194E8CD
:101D30000E00143080E80E001E4900200870486034
:101D400088601B4848217C38FEF773FD18484821FD
:101D50003438FEF76EFD184D002411E006F1200125
:101D60000EC9E6E7002703E000782946FFF787FC65
:101D70003946781CC7B24046FFF7C0FA0028F3D1B5
:101D80002146641CE4B22846FFF7C1FA5FEA000866
:101D9000E8D17068009068686946026828469047F4
:101DA000BAE7000060020020F86200009918000005
:101DB000600300202800002068630000074803E05B
:101DC000016811F0010F07D00168C1F3400100293B
:101DD000F6D00348FFF774BC704700003804004099
:101DE000FD620000034808B5806800906846FFF770
:101DF00067FC08BDF8620000074918B1052803D345
:101E00000020704708687047044A105C0028FAD028
:101E100051F82000704700005400002008640000C2
:101E2000034808B5C06800906846FFF749FC08BD44
:101E3000F8620000092808D2DFE800F0070705076C
:101E40000705050505000120704700207047092897
:101E500008D2DFE800F007070507070707070500B6
:101E6000012070470020704708B50120FFF704FBF0
:101E7000002806D00348006900906846FFF720FC60
:101E8000012008BDF862000000F002B800F008B8B8
:101E900072B602480168491C01607047C400002006
:101EA00003490868401E086000D162B67047000010
:101EB000C400002070B5054608680C46411C04D0DB
:101EC00002F0A3FC206802F048FC6068411C02D0CC
:101ED000002102F039FC28791F4901EB40102968E4
:101EE000007F0028A069C1F8240523D0607D227DF1
:101EF00029681043C1F86C05D4E900122868C0F8BD
:101F00000C15C0F8142522E0A068411C02D0002165
:101F100002F01AFCE068411C04D002F076FCE06894
:101F200002F01BFCD4E902122868C0F80825C0F8AA
:101F3000101570BD607D217D2A680843C2F86C05CC
:101F4000D4E900122868C0F81425C0F80C15207DCB
:101F50000128D9D070BD00005C040020102802D3F5
:101F60001038C0B2704740F080007047094908B58A
:101F7000085C0090684602F013FCD0F80425009B32
:101F80000121994021EA0203C0F808351140C0F848
:101F90000C1508BDC46200000249085C012102F072
:101FA0003EBC0000C46200000249085C002102F04F
:101FB00036BC0000C4620000084908B5085C009007
:101FC000684602F0EDFBD0F804050099C84010F017
:101FD000010000D0012080F0010008BDC4620000B3
:101FE0007CB50024084E25460122305D0095002373
:101FF0001146019502F054FB641C042CF4D3BDE897
:102000007C4000F003B80000C462000010B500245A
:102010002046FFF7C1FF641C042CF9D310BD10B596
:1020200000242046FFF7C0FF641C042CF9D310BD28
:1020300010B50246064B4FF0FF3000215C5C944225
:1020400001D1084610BD491C0429F7D310BD00007A
:10205000C86200002DE9F0470D468146FFF7E8FF12
:102060000446042836D2DFF874801B481C4EA8F1C1
:102070000C0725B3012D0ED0022D2BD104EB44000B
:1020800030444578002D25D0B968002922D0284653
:10209000BDE8F047084704EB4401755C0E447178D5
:1020A00049B10E4A4FF40041093A8068FFF714F82D
:1020B00008B987F80390B17808F80410E2E780685F
:1020C000FFF74AF804EB4401314418F804008D7816
:1020D000A842D7D0BDE8F087CC62000024000020E1
:1020E0003402002010B51E4C0E380C2836D2DFE822
:1020F00000F00617212B353535351219232D1848D8
:1021000003210830FFF716FD20680022BDE81040CB
:10211000A421FEF7E1BF2068BDE81040FFF71CB81E
:10212000012200E000220E480021BDE810400830E6
:10213000FFF7CCBC012200E0002209480221BDE8E3
:1021400010403C30FFF79CBC012200E00022044814
:102150000A21BDE810403C30FFF74DBC10BD000027
:10216000EC61000070B50023042810D20D4D00EB87
:102170004004012A02D101290CD00022094E00EBB3
:102180004000304461B1012906D0022906D007235E
:10219000184670BD0E30C2B22A55F9E74270F7E713
:1021A0008270F5E73402002070B506461E48002410
:1021B000C0E90161B00720D500250122114628465B
:1021C000FFF7D0FF6D1C0446042D02D2002CF4D082
:1021D00013E094B940F2666204211448FEF7BEFE93
:1021E00004000AD1FEF7A8FE040006D10F48104AE9
:1021F0000021001FFEF734FF0446F00701D0FFF76F
:10220000EFFE74B909480B4A00210C38FEF728FF8D
:10221000040006D10548084A01210838FEF720FFCE
:102220000446204670BD000018000020D86200005F
:102230007D24000085300000330F00002DE9F05FA1
:102240006A4C054600266078B34618B184F801B0A0
:1022500000F000FF664F4FF47A694FF4C87A4FF0F0
:102260000108182D62D2DFE805F0AC0C0C31404DAE
:1022700062676B746B74BE7D7D7D7D7DACAFB2B5E6
:10228000BEBE0020FFF798FE00284FF0000008D0E7
:10229000FFF782FE022D02D14FF4E16008E04846CC
:1022A00006E0FFF781FE022D01D1C82000E0504674
:1022B000410CC0034FF4FA72801841F100012570FF
:1022C00052000023FEF758FA01462AE00020FFF7EB
:1022D00073FE00284FF0000004D0FFF75DFE4FF4BE
:1022E0004870E5E7FFF760FEDFE70020FFF764FED8
:1022F00000284FF0000002D0FFF74EFECFE7FFF7B7
:1023000053FED4E70020FFF757FE00284FF00000EF
:1023100002D0FFF741FE01E0FFF746FE257041F6CF
:102320009A1100223868FEF7D7FE064646E00020E4
:10233000FFF71CFE257008E0002051E025703DE00D
:1023400084F801800120FFF711FE002240F6CD4104
:10235000E8E784F801800120FFF708FE00224FF42F
:102360008041DFE77868FEF7F7FE0646D5F11100F9
:1023700000D02EB10220FFF70FFE84F802B01DE05E
:10238000012816D980B2C8214843C117C90341EAC0
:102390005041C0034FF4FA72801841F1000152001D
:1023A0000023FEF7E9F9014600227868FEF794FE63
:1023B00006460220FFF7F8FD84F802803046BDE8AB
:1023C000F09F00F047FEB9E700F044FEB4E700F0EC
:1023D00041FE04E000F03EFE0020FFF7E5FD012095
:1023E000FFF7E2FDAAE7FFF71AFEA7E718000020B3
:1023F000CC6200002DE9F041861C0C46012700202C
:10240000FFF742FD0F4801682160D0E90012891AE8
:1024100082680446511AB51C07E000BF00F0B8FE00
:10242000D4E90001401AA168091A491C8D42F5D867
:102430002068304420600020FFF728FD3846BDE8C2
:10244000F0810000E008002030B482680468531C6A
:102450008360A154D0E901128A4202D330BC02F059
:1024600026B830BC70470000034803C8814201D140
:102470000120704700207047E0080020007802210A
:10248000FFF7E8BD05494FF0FF32082841F820204A
:1024900002D3084480F8582070470000F40300205D
:1024A000F0B54FF0FF3512B10023082601E00823F4
:1024B0000C260C4C05E000BF54F823707F1C04D0A0
:1024C0005B1CB342F8D32846F0BD26185DB286F8EF
:1024D000305044F82310002AF5D1E11881F8580053
:1024E000F1E70000F40300200249084490F93000AD
:1024F00070470000F4030020426812681047000093
:1025000070B5084C050009D010342168002907D0A7
:1025100008682060496828468847F6E70834F4E7E9
:1025200070BD0000E00300202DE9F05F26484168FF
:10253000F1B3DFF898B00E688146DBF80040876899
:102540008078E11B21F07F45ED1CB0B9DFF8808079
:102550004FF48030C8F84403C8F804031120FEF794
:10256000C7FA1120FEF7CFFA4FF0010AC8F800A011
:102570002F2000F0EFFF89F802A0B54200D23546C7
:10258000124BE8193C3320F07F401860DBF8001054
:102590005A46091B21F07F41001B20F07F40C91CD7
:1025A00081420FD9106818602F2000F0D3FF00E09F
:1025B00004E0BDE8F05F1120FEF7B0BABDE8F05FBF
:1025C00002F046BEBDE8F09FB000002004150140B7
:1025D000001001402DE9F05F0025DFF8A48043E002
:1025E0006068002100EBC506012032789146FEF7B5
:1025F000F4F8D4E9062300EA020701EA030C57EADB
:102600000C072FD0C7433A408B434846C4E9062302
:1026100001F092F932784FF0000A8146934601208A
:102620005146FEF7DAF8D4E9042300EA020401EA8D
:1026300003075A4648465146FEF7CFF844404F40FC
:102640003C430FD17078012815D0002289EA02009E
:102650008AEAE271084310D00020726812B1C1B258
:10266000584690476D1CEDB298F8000044468542EC
:10267000B6D3BDE8F09F0122E8E70120EDE70000B6
:10268000900000200E4910B50A784C780023A24231
:1026900012D0521CD2B20A70022A00D10B70084A22
:1026A0000B780C3252F8232002608868104420F026
:1026B0007F408860012010BD0360002010BD000035
:1026C000B00000206FEA0061C90F61F31F1070476E
:1026D0000106044900D5903100F00F0001EB001015
:1026E000704700007C040020704700000C4910B5C2
:1026F0000020C8708020FFF7EBFF817B01240329B5
:1027000002D0006800280AD18020FFF7DBFF844058
:10271000E1430348BDE810400C3000F08BBE10BD13
:1027200078000020812002F02DBC822002F02ABC1B
:10273000832002F027BC842002F024BC852002F014
:1027400021BC862002F01EBC872002F01BBC0000CA
:10275000F8B5154E00208825F0702846FFF7B8FF21
:10276000817B0124032914D00068002810D1284659
:10277000FFF7A8FF8440E14306F10C0000F05AFE89
:102780000A48806800908DF8025071686846884752
:10279000F8BD2846FFF796FF8440E143BDE8F840C6
:1027A00001480C3000F046BE780000201C64000098
:1027B00038B5144D0020E870FFF78AFF817B0124B3
:1027C000032902D0006868B108E00020FFF77AFF13
:1027D00084400C48E1430C3000F02CFEBDE838404A
:1027E00001F053BD0020FFF76DFF84400548E14331
:1027F0000C3000F01FFE0448C0680090696868460D
:10280000884738BD780000201C640000012002F0D9
:10281000D7BB022002F0D4BB032002F0D1BB0420BE
:1028200002F0CEBB052002F0CBBB062002F0C8BBF5
:10283000072002F0C5BB000038B5104D0020082469
:10284000E8702046FFF744FF817B032914D000681D
:10285000002811D12046FFF735FF01218140C943EF
:1028600005F10C0000F0E6FD0548406900908DF888
:10287000024069686846884738BD0000780000203B
:102880001C64000070B5154804680460BFF36F8FC6
:10289000BFF34F8FBFF36F8FBFF34F8F01F00CFC6F
:1028A00038B10F48016921F0011201F00111144300
:1028B000016101266CB194FAA4F0B0FA80F52846C3
:1028C000FFF74CFB06FA05F18C43294603F0F6FBB3
:1028D000F0E7BDE8704003F0A9BA00006C74024054
:1028E0007800002010B5054CA078FFF7EBFE0146FC
:1028F000A078BDE8104003F0E1BB000078000020A4
:10290000F8B51E48D0F8001221F00401C0F80012FA
:102910001B4800681B4DC6B2A878FFF7D3FE012400
:1029200004FA00F12889EA68C04380B210430142EA
:1029300002D0A87803F040FB06F08000A8700020C9
:10294000FFF7C0FE04FA00F68020FFF7BBFE04FA92
:1029500000F006430B48F1430C3000F06BFD802083
:10296000FFF7B0FE8440A86804430748AC60006AE3
:102970000090696868468847F8BD00000070024012
:1029800080740240780000201C64000038B50020EC
:1029900000900B480068ADF802008820FFF792FE17
:1029A000012505FA00F40820FFF78CFE0549854053
:1029B0002C43886804438C6049686846884738BD62
:1029C000207502407800002070B50B480468046050
:1029D000BFF36F8FBFF34F8F012609E094FAA4F085
:1029E000B0FA80F52846FFF7B9FA06FA05F08443F5
:1029F000002CF3D170BD000068740240F8B518488F
:102A00000568284602F022FBBFF36F8FBFF34F8F9C
:102A1000144E154CE80506D501206070706A0090D0
:102A2000616868468847A8054FF0000705D56770BC
:102A3000B06A009061686846884768050ED560787E
:102A400000280BD06770094901200860582002F067
:102A50000FFBF06A0090616868468847F8BD000087
:102A6000007402401C6400007800002008750240D9
:102A7000054908B5002048708870044840680090F7
:102A800049686846884708BD780000201C6400003B
:102A90002DE9F0418046024601200021FDF79DFE10
:102AA0001A4F05460E463868FEF756FB00280CD133
:102AB000174CD4E9062110462A4001EA06031A43BE
:102AC00005D0A843B143C4E90601BDE8F081404602
:102AD00000F032FF30B1D4E9040128433143C4E9A6
:102AE000040105E0D4E90410A943B043C4E904108B
:102AF000D4E9060128433143C4E90601A1683868D6
:102B0000BDE8F0410022FEF7E7BA0000F0640000E3
:102B100090000020054910B501200860012000F058
:102B20000BFD0028FAD10249487010BD0400004096
:102B3000E003002000F061B830B400F110040B464F
:102B40000268214630BC0832FEF7E0BE42690A60E6
:102B50000069704710B50C4600F042F8D0E9001249
:102B6000601CBDE81040FEF701BD000030B5044612
:102B7000406A85B0002102681170009101910291B4
:102B80000168491C00914068401E01900020FFF739
:102B90007BF969460020FEF77FFD050008D1074854
:102BA00003A90068CDE903040020FEF775FC054683
:102BB0000020FFF76BF905B0284630BD1C6500000A
:102BC00010B508B1032010BD4A6A084609681268AA
:102BD000527881F82420C26A02219047002010BD5B
:102BE00010B5046800F1100108460834FEF7CBFF69
:102BF00008211434C0E9004110BD2DE9F04304461A
:102C00000568007A0026083589B0002801D83046CA
:102C100001E004F109004178002901D8304601E0C3
:102C2000817808446FF0080190F8008028466A46D1
:102C3000FDF7F3FB2046FFF7D3FF07462168D7E9EE
:102C4000000214318946FDF706FE002820D0D7E99E
:102C500000024946FDF7D4FD2046FFF7C1FF039669
:102C60000496059601680391406804900020FFF7E0
:102C70000BF903A94046FEF70FFD040004D12846D6
:102C8000082101AAFDF7BCFB0020FFF7FFF8204652
:102C900009B0BDE8F08310B5022906D003290BD195
:102CA000BDE810400220FFF761B90220FFF75EF98E
:102CB000BDE8104000F0AEB910BD0844B0F5004FBB
:102CC00002DA10F5004F01DA01207047002070474A
:102CD0007F2801DD7F2070476FF07F01884201DA95
:102CE0000846704740B2704700F02CB830B400F18D
:102CF00010040B460268214630BC0832FEF706BEBF
:102D000042690A600069704710B50C4600F009F886
:102D1000D0E90012601CBDE81040FEF727BC062079
:102D2000704770B5056800F1100420460835FEF7BD
:102D30002AFF04211335C0E900512046BDE8704048
:102D4000FEF721BF2DE9F04F04460668007A0836E9
:102D50008BB04FF0000A002801D8504601E004F182
:102D600009004178002901D8504601E081780844E3
:102D70006FF008010078049030466A46FDF79BFB2F
:102D800020462568FFF7CDFF0768A87E97F800B0BA
:102D90003870B5F91400FFF79BFFA98A8046A1EBB4
:102DA0000800A88287F80180B5F91600FFF790FFA8
:102DB0008146E88AA0EB0900E88287F80290B5F91D
:102DC0001800FFF785FF0146288B401A288348EA40
:102DD0000900F970084305D13978594502D10BB083
:102DE000BDE8F08F2046FFF79CFFCDF814A0CDF88A
:102DF00018A0CDF81CA0016805914068069000203D
:102E0000FFF742F805A90498FEF746FC040004D138
:102E10003046082101AAFDF741FB0020FFF736F8F4
:102E20002046DCE7022904D0032902D10220FFF763
:102E30009DB8704710B5027A02B39200B1FBF2F36D
:102E400002FB1311D1B9416819B10321FEF79DFEB0
:102E500014E001686FEA910141F30001491C02D0BE
:102E6000FFF702F80AE000686FEAD00040F30000C4
:102E7000401C90F0010F01D0012010BD002010BDBA
:102E800010B515490220FFF78FF908B1FEF7DCF8FD
:102E9000002116220846FFF765F908B1FEF7D4F8BD
:102EA000172200210120FFF75DF908B1FEF7CCF8E9
:102EB000182200210220FFF755F908B1FEF7C4F8E7
:102EC000192200210320FFF74DF908B1FEF7BCF8E5
:102ED000BDE81040FFF784B8E52000002DE9FC5F55
:102EE0000E008346DDE90C47C6F100009846924685
:102EF000814600D40846012503E000BF90FBFAF0AC
:102F00006D1C5045FADAA84500D9454624B1002E7B
:102F100001DB780700D5641EB80702D5B8F1000FB1
:102F20000AD0F80708D13CB1A54205D22021584665
:102F3000641EFFF789FAF6E7002E02DA4E462D21CD
:102F400002E0780703D52B215846FFF77DFA07F0FA
:102F5000030002280BD1B8F1000F08D13CB1A54203
:102F600005D230215846641EFFF76EFAF6E7CDE928
:102F70000047434652463146584602F051FEBDE8EE
:102F8000FC9F000070B50E460446007918494FF4C6
:102F9000A27501EB4010017F2068A1B14FF4887148
:102FA00001F0D6FF4FF49071206801F0D1FF4FF48B
:102FB0009271206801F0CCFF2946206801F0C8FF1B
:102FC0000C49206809E04FF48E7101F0B0FF2946EA
:102FD000206801F0ACFF08492068C0F8041320689D
:102FE00000F0FBFB3146BDE8704000F0CABB0000BA
:102FF0005C040020100302008000020002681346F7
:1030000002E08A4204D01268002AFAD10B60016003
:103010007047000010B501210D48FEF72AFD002879
:103020004FF0010002D0FEF7BFFF01E0FEF7B4FF52
:1030300002210748FEF71DFD00284FF0000003D0D5
:10304000BDE81040FEF7B0BFBDE81040FEF7A4BFDA
:10305000286200000A4810B5807860B1002401E0C1
:10306000022C06D02046FEF797FF641C042CF7D3F1
:1030700010BD0324F6E7BDE81040FEF7C7BF00000F
:103080001800002003480179C90702D00078FFF733
:10309000D5B87047180000202DE9F047394E0027B9
:1030A00080463D46DFF8E090D6F804A057E003D014
:1030B0000446D0F81C8035E099F8002002EB42016C
:1030C000521CD2B289F8002009EBC10199F80230F4
:1030D000091D9A4201D189F8005048680A780446CF
:1030E000012A12D0022A02D0032A3BD108E002F0C2
:1030F000B9FB00B10127257434E00574C06900E014
:1031000070680028F9D170602CE0207C50BB886882
:103110006060C868A0600869E0604869A061F078F4
:1031200000B165606268B168184B501A20F07F40AA
:10313000984202D2A168084406E0881AA16820F0EB
:103140007F40814202D9081A206000E02560656056
:103150000120A56020742046E56102F065FBB8F10E
:103160000000A4D199F8001099F801008142A3D180
:1031700017B97168514502D00120BDE8F0870020E1
:10318000FBE70000B0000020D4060020FFFF7F0016
:1031900070B588B0214800F046F92048001F064667
:1031A00000F041F91E4DD5E9014105E0C0F3891257
:1031B00002EB9050641C044404EA010005EB80001B
:1031C000C0688207F2D000200DF1080204EA010372
:1031D00005EB8303641CDB6842F82030401C0228A6
:1031E000F4D3029800F00300012808D002280AD185
:1031F0000298032101EB905004EB900403E0029845
:10320000C0F3831004443046002101AAFDF76DFA93
:10321000002800D06C6008B070BD0000F80C0020E1
:10322000E008002000F01CFA08B1FDF70DFF0020B7
:1032300000F0CAFB08B1FDF707FF002000F03AFAE2
:1032400000F030FA0028FBD0FDF71CFF08B1FDF7B5
:10325000FBFE002001F038FD08B1FDF7F5FE01F09E
:10326000DBFB1D480321008801EB00401BA101F09E
:10327000C9FC1D4A01211D48FDF7F2FE08B1FDF70A
:10328000E3FEFFF7FDFD19486C30FEF739FD08B18C
:10329000FDF7DAFE15480830FDF7C0FF08B1FDF76D
:1032A000D3FE12483C30FDF7B9FF08B1FDF7CCFE64
:1032B0000E480024001D00F0F7FB08B1FDF7C4FE26
:1032C000FEF7ECFA0028FBD1204602F003FD04468D
:1032D00001F0B0FB20BFF3E78001002048656C6C73
:1032E0006F205553422100009D330000EC61000027
:1032F0002DE9F047C7880446181D16468946B0FBDD
:10330000F7F1B0FBF7F207FB12009A193A44D21C0E
:10331000B2FBF7F2DDF820A001E02468491E002985
:10332000FBD13D1A8846B54216D818E0BAF1000F15
:1033300005D0211809EB08002A46091D04E02044A5
:1033400009EB08012A46001DFDF75AFA00202468FF
:10335000761BA844B74201D9354600E03D46002E11
:10336000E4D1BDE8F087000030B5024669B101F054
:10337000D9FC0021084C0BE001EB410304EB830373
:1033800015685B88AB4202D11160002030BD491C3A
:103390008142F1D3052030BD2C01002003210148DA
:1033A000FEF7C8BBF461000010B531B1B2FBF3F415
:1033B00003FB14241CB1092010BD0E2010BD0160B8
:1033C0000021416081608281C381084610BD70B5D3
:1033D0000C460546FDF7BEF8002802D02188286873
:1033E000084470BD10B50A8849888A4203D1FDF7A8
:1033F000F3F8012010BD002010BD70B50C46054645
:10340000FDF7CDF8002802D061882868084470BD17
:1034100010B50A8849888A4203D1FDF7B7F8012020
:1034200010BD002010BD08B501216A46FDF750F916
:10343000009808BD08B56A46FCF753FF009808BD20
:1034400008B56A46FCF7E9FF009808BD08B56A466A
:10345000FDF731F8009808BD08B56A46FCF7D0FFC3
:10346000009808BD08B56A46FDF718F8009808BD31
:1034700070B5044600252846FEF706FD21686268FF
:10348000086890420ED9401E08600178238AE268DD
:1034900001FB0325227A2168101AC0B20A79824200
:1034A00000D208710020FEF7F1FC284670BD70B50F
:1034B00005460C460020FEF7E7FCE868298A201A3A
:1034C000B0FBF1F12A681068431C13600170BDE87D
:1034D00070400020FEF7DABC10B530B1017A4268C6
:1034E0000368891AC9B21A6006E00E2010BD03688D
:1034F0001A68541C1C601170491EC9B2F7D20068CA
:1035000000210171084610BDC20800F00703012028
:10351000895C98400840704700F1804000680028AE
:1035200000D00120704708B500F180400021016003
:103530000068009008BD00000549096840F480302B
:1035400001F00111814201D1012070470020704734
:103550000C04004000283ED01F49204A096800BFE3
:1035600000BF00BF00BF00BF00BF00BF00BF91424F
:103570002FD000BF00BF00BF00BF00BF00BF00BF13
:1035800000BF00BF00BF00BF00BF00BF00BF00BF43
:1035900000BF00BF00BF00BF00BF00BF00BF00BF33
:1035A00000BF00BF00BF00BF00BF00BF00BF00BF23
:1035B00000BF00BF00BF00BF00BF00BF00BF00BF13
:1035C00000BF00BF00BF00BF00BF00BF00BF00BF03
:1035D00000BF0138C3D17047280100200024F40047
:1035E00010B50020FEF750FC06484168491E4160B6
:1035F000406808B9FFF78EFABDE810400020FEF7DA
:1036000045BC0000E003002070B5144D0446687806
:1036100038B114B16168002088470020FEF734FCFF
:1036200013E00020FEF730FC24B10C48214608309E
:10363000FFF7E4FC686840B94FF48070FFF773FF50
:1036400001208107C1F8040308606868401C6860B5
:10365000BDE870400020FEF719BC0000E003002028
:1036600070B50E4C0025207808B1852513E00021A7
:10367000A16061602161E1604FF0E020D0F80001BD
:10368000012610F0010F03D10721002000F079F886
:10369000034806602670284670BD0000E003002045
:1036A0001805004002480068C0F300407047000061
:1036B0001804004070B5154D0446A87838B114B10F
:1036C0006168012088470020FEF7DEFB15E000203E
:1036D000FEF7DAFB24B10D4821461030FFF78EFCCF
:1036E000E86850B94FF48270FFF71DFF02204107D0
:1036F000C1F80403064901200860E868401CE8603E
:10370000BDE870400020FEF7C1BB0000E0030020D0
:10371000080000402DE9F0414FF480773846FFF76C
:10372000FBFE0124104EA50748B13846FFF7FBFE0B
:103730000120C5F8080374700020FEF7E1FE4FF485
:1037400082773846FFF7E8FE00280BD03846FFF7AF
:10375000EAFE0220C5F80803B470BDE8F04101207C
:10376000FEF7CEBEBDE8F081E003002000F01F02AE
:10377000012191404009800000F1E020C0F8801153
:1037800070474907090E002806DA00F00F0202F11F
:10379000E02282F8141D03E000F1E02282F8001418
:1037A00000F01F02012191404009800000F1E0205B
:1037B000C0F88012C0F8001170474109890001F17A
:1037C000E021D1F8001100F01F02012090400142D9
:1037D00001D00120704700207047000B40B27047B5
:1037E0002DE9F0410E46804601F04EFC204D0028A8
:1037F000404616D0FEF778FE284490F8580080091D
:10380000032802D001280AD003E0404600F0F2FF6E
:1038100028B103214046BDE8F04100F0A8BF0221D5
:10382000F8E701F03DFC002820D04046FEF75CFEA2
:103830000446104F4FF4807007EB840100EB8400C6
:10384000D1F8102580B242F00102C1F8102501F034
:103850000FF8002E0AD04046FEF746FE55F820002D
:10386000002803D00120A040C7F80403BDE8F08180
:10387000F4030020006000402DE9FC41DFF8AC803B
:10388000044608EB0400002790F930001346C017E7
:103890000E46401C01D0082744E0F2781946204625
:1038A000FEF7FEFD0546401C3BD0B07868B1684687
:1038B000009400F083FF009900EB8100D0F800171E
:1038C00021F00201C0F8001707E0002173782046BC
:1038D00000910A46019100F0FCFEF078C0B1144856
:1038E000317800EB8500D0F81025124B1A40C0F853
:1038F00010254FF47C524FF4403302EA042203EACD
:1039000001410A43D0F810150A43C0F8102509E018
:1039100008EB0500327810F8581F41EA8211017057
:1039200000E004273846BDE8FC810000F4030020D5
:1039300000600040FFC0FCFF10B500F05BFF0028F6
:1039400000D0012010BD000070B5144D95F8640042
:1039500008B1082070BD0020411E2A18401CC0B2CA
:1039600082F830103028F8D300242046FEF78AFD74
:10397000641CE4B20C2CF8D307210620FFF701FFEA
:103980004FF4BE7000F074FF05494FF00040C1F8DD
:103990000403012085F86400002070BDF4030020BA
:1039A00000600040034890F86400002800D0012027
:1039B00070470000F40300200121B1EB507F01D1DA
:1039C000012070470020704770B5104C217809B174
:1039D000852070BD00B90E480E4A0178C1F3400140
:1039E00011600C490078083900F0010008604FF0C0
:1039F000E020D0F80001012510F0010F03D10721CC
:103A00000020FFF7BEFE2570002070BD680000207A
:103A1000186400008005004070B54FF08040D0F879
:103A20000443204D600706D54FF4847001F070FA0E
:103A300008B168688047A00607D54FF48A7001F086
:103A400067FA10B1A96800208847600607D54FF4CF
:103A50008C7001F05DFA10B1A9680120884720063A
:103A600007D54FF48E7001F053FA10B1E9680020C9
:103A70008847E00507D54FF4907001F049FA10B17E
:103A8000E96801208847A0050AD54FF4927001F03B
:103A90003FFA002804D0E968BDE8704002200847DA
:103AA00070BD00006800002000B5024600F00EF86E
:103AB000106838B10449C8604FF080414FF460701D
:103AC000C1F80403002000BD680000204FF08041D1
:103AD0004FF46070C1F8080301490020C8607047C6
:103AE000680000204FF0E02291699369CB1A23F01F
:103AF0007F438342F9D3704701460448044A006873
:103B0000B0FBF2F04843FFF7EDBF000028010020B2
:103B100040420F004FF0E0206FF07F4141610521EE
:103B2000016170472DE9F04105460079164F904636
:103B300007EB40140E46E07E10B10820BDE8F0818E
:103B4000707F20772846FEF7B5F95FEA08006060CD
:103B50003169216003D0317F2846FFF713FA2879B5
:103B600007EB4010007F0028286801D0082100E002
:103B70000421C0F800150020E0752076A075012111
:103B8000E176A076DAE700005C0400202DE9F0473A
:103B9000054600793F4E904606EB40140F46207FC5
:103BA00018B10846FFF708FF30B1284600F074F856
:103BB00020B11120BDE8F0871020FBE784F81680C3
:103BC000A7600027A78228794FF0010806EB401470
:103BD0003E46207F0028286825D04FF4907949463A
:103BE00001F0B6F94FF4AC7A5146286801F0B0F90B
:103BF0002868A17DA268C0F84425C0F84815286847
:103C0000C0F808806068F0B94946286801F09BF95F
:103C100080465146286801F096F958EA0001F3D031
:103C200058BBA7750FE04FF48E7A514601F07FF92B
:103C30002868C0F808802146286801F09DFE616868
:103C40004FF4807089B13046B4E75146286801F0DE
:103C500069F910B9A08A4845F7D1A08A484505D02E
:103C60002146286801F088FE00E08146A08AA17DF7
:103C70008842EAD3A08A484501D10F26D1E75146B0
:103C8000286801F04FF90028F9D02868C0F80C80A6
:103C9000C7E700005C0400200079044901EB4010F4
:103CA000807D002800D00120704700005C040020C7
:103CB00070B5044600791149002601EB40152068D3
:103CC0002A7FC0F80065686888B1207901EB401050
:103CD000007F0028206801D0094901E008498C399B
:103CE000C0F808132068FFF778FDFFF73FFD204676
:103CF00001F0E2F9EE766E6070BD00005C04002019
:103D00001003020003490248C1F804037047000091
:103D1000041480010070024030B54C689C4204D20B
:103D2000002545600968016007E043600D68E41AFA
:103D300005604C600868184408609A4202D10CB1D2
:103D4000012030BD002030BD10B500F003FB084954
:103D5000D1F80403C1F80803064800210160BFF34D
:103D60006F8FBFF34F8F0448C1700121017010BDE8
:103D700000700240007502407800002010B54FF43A
:103D80000064204601F062F9134901200860BFF386
:103D90006F8FBFF34F8F114801680905FCD520468E
:103DA00001F054F90E4940F2E37008604020091D0B
:103DB0000860BFF36F8FBFF34F8F074980201C311E
:103DC0000860084840F2FF1181600021C160C170A5
:103DD00081700221017010BD007502400074024024
:103DE000007802407800002010B5044602F0E4F8A4
:103DF00021064FF0010004F00F0200FA02F001D595
:103E0000084901E00749091D0A6882430A60BFF3B7
:103E10006F8FBFF34F8F204600F0C8F80249C1F8FA
:103E2000080310BD1075024000700240054908608B
:103E3000BFF34F8F40F480700860BFF36F8FBFF304
:103E40004F8F70470C75024070B5044600F0AEF815
:103E50001A49C1F80403204601F080F800282BD14C
:103E600004F00F0122064FF0010505FA01F001D51B
:103E7000134A01E0124A121D136803431360BFF393
:103E80006F8FBFF34F8F200716D0200614D4082958
:103E900012D20020FDF7F8FF204600F0A7FA2046D6
:103EA000FEF710FC85400748C168A943C160BDE822
:103EB00070400020FDF7EABF70BD000000700240B6
:103EC000107502407800002001F048B82DE9F0415B
:103ED0000E460746FEF7F6FB05460020FDF7D4FF29
:103EE000144C380704D1A078874201D010241BE07D
:103EF0002089E168C04380B20843012101FA05F539
:103F0000284201D011240FE03846FEF7E1FB0021E2
:103F1000816032680260726842608173E0680543C4
:103F2000E5600C4602F0EAF80020FDF7AFFF2046FE
:103F3000BDE8F0817800002010B5FEF7C9FB80894C
:103F400010BD10B50C46FEF7C3FB848110BD000008
:103F5000044940F480700860BFF36F8FBFF34F8F48
:103F6000704700001875024000F00F01082901D3C6
:103F700000207047020607494FEA007001EB90608D
:103F800002D5D0F8200401E0D0F844040128EFD194
:103F9000704700000070024003490860BFF36F8F54
:103FA000BFF34F8F7047000018750240010601D51E
:103FB000044901E00349093100F00F00095C0120C8
:103FC00088407047DC6400002DE9F0470D46064646
:103FD000FEF778FB80460020FDF756FF254C3007A2
:103FE00004D1A078864201D0102433E02089E16812
:103FF000C04380B24FF00109084309FA08F738427C
:1040000001D0112426E03046FEF762FB06F00F01D6
:10401000330601EB41014FF0000225D5164B03EBAF
:1040200081012B68B9EB537F2B7A4FEAC37302D11E
:10403000B3B1124B01E0ABB1114B036068CD81E825
:104040006800C0E901128273E0680743E76000245A
:1040500002F054F80020FDF719FF2046BDE8F08774
:10406000084BEAE7084BE8E7034B6C3303EB8101AD
:10407000064BE2E7780000209C0500209D410000EF
:104080003541000079410000F9400000193D000071
:1040900000F00F00082805D305480068C10300D5CB
:1040A00000207047034901EB8000D0F8A00470475E
:1040B000C0740240007002400C480078082810D1FB
:1040C0000A48001D007800070BD108480830007826
:1040D00010F0F00F05D105480C30007810F0F00F0B
:1040E00001D000207047012070470000E00F00F071
:1040F00000487047740600202DE9F0414D680C4ED1
:1041000007460C46954200D915462A463046216896
:10411000FCF776FBC7E900656068401B60602068BB
:10412000284420606068002800D00120BDE8F081AC
:10413000740600202DE9F0414C680E4F06460D46EE
:10414000944200D9144634B1224638462968FCF717
:1041500057FB376001E00020306074606868001B26
:10416000686028682044286014B10120BDE8F0810F
:104170000020FBE7740600204B68934200D91346E9
:104180000A68C0E900234868C01A486008681844F3
:1041900008604868002800D0012070474B689342AF
:1041A00000D91346002B0ED0D1F80020C0E900231F
:1041B0004868A0EB0300486008681844086005D010
:1041C0004FF0010070474FF00002EFE74FF00000A2
:1041D000704700002DE9F0410446FFF76DFF08B17C
:1041E000FFF798FC2CB11E49087820B10820BDE8E3
:1041F000F0810720FBE74C60012000240870460294
:104200004FEA040544F0800707F00F00082801D3A7
:10421000314600E040213846FFF793FE3846FEF76E
:1042200057FA8573641C0560E4B28560092CE9D3F4
:104230005FF0000404F00F00082801D3314600E0CD
:1042400040212046FFF77DFE2046FEF741FA8573A8
:10425000641C0560E4B28560092CEBD30020C6E73E
:104260007800002003480078022801D3012070471D
:1042700000207047780000200148807870470000D7
:1042800078000020502000F0F3BE10B5FFF714FFB7
:1042900058B1EFF3108472B64C2000F0E9FE4C20C8
:1042A00000F0E6FE84F3108810BDBDE810404C20FD
:1042B00000F0DEBE00210160416011490968017013
:1042C0000F49091D096841700D49083109680C4AF8
:1042D0000C32126841EA0221418009491031096813
:1042E000074A1432126841EA0221818004491831D8
:1042F0000968034A1C32126841EA0221C1807047F2
:1043000080740240542000F0B3BE00000C4A10B587
:10431000002151700B4C10B9FFF7CEFE00B10A4CD2
:104320000A48C0F8044307212720FFF72AFA084962
:1043300001200860BFF36F8FBFF34F8F10BD0000E7
:10434000780000200714C0030714E0030070024047
:104350000475024010B52720FFF72FFA002810D06F
:1043600001F08CFE074900200860BFF36F8FBFF398
:104370004F8F05498020C1F8800148170349C1F8D3
:10438000080310BD0475024004E000E00070024024
:1043900010B500242046FDF777FD0C48407878B131
:1043A00001F06CFE0A480168890509D40949012217
:1043B0000A600068800502D50020086000E0012442
:1043C0000020FDF763FD204610BD000078000020AE
:1043D000007402402C75024003490248C1F80803EA
:1043E0007047000004148001007002402DE9F04184
:1043F0008046FFF761FE00270125174C002808F0D2
:104400000F06384611D0FDF73FFD4046FEF75AF93A
:104410008540A0681149A843A06040F2C57000EB38
:1044200046000860081D076011E0FDF72DFD4046BD
:10443000FEF748F98540A0680949A843A06001EB50
:104440008600C0F8A074BFF36F8FBFF34F8FBDE835
:10445000F0410020FDF71ABD7800002000780240EE
:104460000070024010B500242046FDF70DFD0748FE
:10447000407830B100F0F4FD18B105490020086023
:1044800001240020FDF702FD204610BD7800002029
:104490002C7502400FB408B50399002904D004AA72
:1044A00000926A4600F00FF801B05DF814FB10B5F9
:1044B00082680446002A05D0D4E90403216898479D
:1044C0000020A06010BD2DE9FC4791460C008046FD
:1044D00076D014F8011B39B125290ED04046FDF7DE
:1044E000B3FF20780028F4D198F80C00002867D09A
:1044F0004046BDE8FC47FFF7DABF002001222178E3
:104500002B291BD02D2902D0302908D102E040F000
:10451000010001E040F00200641C002AEFD10025F8
:104520002A290ED02178A1F130020A2A11D205EBF6
:10453000850201EB4205641C303DF1E740F00400C8
:10454000EAE7D9F800100B1DC9F800300968641CAF
:104550000D44217800232E290BD114F8011FA1F15D
:1045600030020A2A05D203EB830201EB4203303BFF
:10457000F3E76C290DD068290BD0692921D00BDC19
:10458000252918D0582931D063290ED0642915D196
:1045900017E014F8011FECE7702969D0732932D0B5
:1045A00075291BD0782909D120E0D9F80000011D18
:1045B000C9F8001001784046FDF746FF641C90E7FB
:1045C0006CE0D9F800100A1DC9F800200968CDE98F
:1045D00000500A224046FEF781FCEFE7D9F80010B0
:1045E0000A1DC9F8002009680A2206E0D9F800105F
:1045F0000A1DC9F8002009681022CDE90050404684
:1046000001F00EFBDAE7D9F8001000270A1DC9F8FF
:1046100000200E68C00705D112E04046761C7F1CC2
:10462000FDF712FF31780029F7D104E02021404640
:104630006D1EFDF709FFBD42C0D9002DF6D1BDE7C3
:104640004EB13046FCF700F9074604E02021404611
:104650006D1EFDF7F9FEBD4206D9002DF6D103E02F
:104660004046761CFDF7F0FE31780029F8D1A5E729
:10467000D9F80000011DC9F8001005683021404636
:10468000FDF7E2FE78214046FDF7DEFE082000211E
:10469000CDE90001034610222946B0E7BDE8FC87BA
:1046A0002DE9FF411C46DDE90A7815460E466846AD
:1046B00000F076F846EA450141EA840141EA072222
:1046C00042EA0841009A00EB8200C0F80017BDE8FA
:1046D000FF812DE9FF411C46DDE90A7815460E46AB
:1046E000684600F06BF846EA450141EA840141EA78
:1046F000072242EA0841009A00EB8200C0F8001746
:10470000BDE8FF812DE9FF411C46DDE90A78154629
:104710000E46684600F060F846EA450141EA840129
:1047200041EA072242EA0841009A00EB8200C0F801
:104730000017BDE8FF811CB5002100910B46012246
:104740000191FFF7DFFF1CBD1CB500220B46009254
:1047500011460192FFF7D6FF1CBD1CB50021009148
:104760000B46012201911146FFF7CCFF1CBD13B58A
:104770000C46684600F022F8009900EB8101D1F860
:10478000002722F44032C1F80027009900EB810095
:10479000D0F8001741EA0441C0F800171CBD000022
:1047A0000168202902D24FF0A040704701F01F019C
:1047B0000160014870470000000300500168202993
:1047C00002D24FF0A040704701F01F010160014884
:1047D00070470000000300500168202902D24FF00A
:1047E000A040704701F01F010160014870470000C0
:1047F0000003005001B56846FFF7E0FFD0F8100550
:104800000099C84000F0010008BD01B56846FFF7F7
:10481000E3FF009A01219140C0F8081508BD38B5A2
:1048200001240090684631B1FFF7BAFF00998C402F
:10483000C0F8084538BDFFF7B3FF00998C40C0F8B9
:104840000C4538BD1CB5094C0144D4E90034CDE910
:1048500000346C4606E000BF54F82030D3F8103521
:10486000401C08C28142F7D81CBD00001064000043
:10487000034908B50844002101600068009008BDA4
:104880000060004002494058012800D000207047D5
:104890000060004030B5124B01460020D3F81044B0
:1048A000224609E0157A854205D1401C0A28F7DB2B
:1048B0004FF0FF3030BD5268002AF3D1421CF9D0CE
:1048C0000872D3F810242AB152684A60D3F8102431
:1048D000516030BD0022C3F810144A6030BD0000A2
:1048E000E0080020F0B595B01C4615460F46084676
:1048F0001A9E00F0E7FA182109A8FBF79AFF0E9616
:10490000CDE909540023082203A9384600F0F4FA3F
:10491000059806900498ADF81C0000208DF8200042
:104920000398082600F00300012802D002281DD0B9
:104930003CE003983346850AC0F3C2008DF81E00A0
:1049400003980FA9C0F380008DF81F000398C0F3EF
:104950008314A200384600F0CFFA09A8009006ABF5
:1049600022460FA9284600F009FA1FE00398840D9B
:10497000C0F3C2008DF81E000398C0F380008DF8CC
:104980001F00082C01D2254600E0082533462A46A0
:104990000FA9384600F0B0FA2E44641B09AB06AAF2
:1049A00029460FA800F03AF9002CEAD1384600F069
:1049B00092FA15B0F0BD7047012001F001B8000077
:1049C00010B50448FFF774F9BDE81040002000F06E
:1049D000F7BF0000CC00002008B5034A0092402336
:1049E000024AFFF77FFF08BDD9520000E007002010
:1049F000084A012902EBC00005D0022903D003298F
:104A000003D0042903D00020704700797047407913
:104A100070470000EC66000010B5FFF7CDFF0421E1
:104A20000348FFF737FF02490120487210BD00001C
:104A3000D40000202DE9FE4FFDF716FD10B1002037
:104A4000BDE8FE8F6D480021C0F81814BFF34F8FEA
:104A5000D0E9014604EA060100EB81014FF00009AC
:104A60000AE000BFC1F3891202EB9151641C0C44AF
:104A700004EA060100EB8101C9688A07F2D000212F
:104A80006A46804604EA060308EB8300641CC0689B
:104A900042F82100491C0229F4D3009800F00300D9
:104AA000022802D001284DD0A2E000985022810DAA
:104AB0008A46B2EB905F00D850210D4665F39F50B7
:104AC000009008314E4800F0B4F9070077D000F0AC
:104AD000F9F94B4608226946384600F013FA04EA11
:104AE0000600311A8900091D09F1080B8D4222D9EF
:104AF000424E0C3631B1CAB208EB8000691A9146B9
:104B00000C3004E03046EAB2002691463146CDB280
:104B100001465B46384600F0F5F90BEB09032EB170
:104B20002A4631464FEA070000F0ECF90AF103008B
:104B300004EB90043AE008EB80015B462A463846D5
:104B40000C31F1E70098C0F38310062800D306204B
:104B5000009960F38911C1F38310801C00918100DA
:104B6000274800F066F9070042D000F0ABF94B4649
:104B700008226946384600F0C5F909F10809002500
:104B80000EE000BF04EA060008EB80014B46042259
:104B900038460C31641C00F0B5F909F104096D1CAC
:104BA0000098C0F38310A842ECD847B1D8F810544D
:104BB000D8F81804464660B1384600F08CF917E082
:104BC000687A012804D12A68284639461268904735
:104BD0006D68002DF4D1384600F07DF90020FDF716
:104BE00053F9D6F8180400B974600020FDF74EF9A7
:104BF000FDF73AFC80F0010022E70000E008002009
:104C00008465000000231A4600F058BD08B5012352
:104C100000926A4600F052FD08BD00002DE9F04701
:104C20000E4680461C46924608293ED894F80C90C1
:104C3000002020731946104600F0DCFA0025B5422A
:104C400006D218F805201AA12046FFF723FC03E03E
:104C500019A12046FFF71EFC6D1C082DEFD317A1EC
:104C60002046FFF717FC0025B54210D218F8057052
:104C7000FBF7C2FD0068C05D10F03E0F01D03A4660
:104C800000E02E220EA12046FFF704FC03E00DA158
:104C90002046FFF7FFFB6D1C082DE5D301222146BE
:104CA000504600F045FA84F80C90BDE8F08700000B
:104CB0002025303278000000202020007C000000F9
:104CC0002563000020000000114810B5FF2181601D
:104CD000002101604160C0F81814C0F8141480F875
:104CE0001C140C4800F0F5F800280FD10A480B49B5
:104CF0000B4B401AC108002005E000BF00EB40024A
:104D000023F82200401C8842F8D3002010BD000088
:104D1000E0080020846500002C670000EC660000BD
:104D20002C01002002480349401AC00870470000C7
:104D30002C670000EC66000013B56846FEF714FB14
:104D400008B100201CBD0248009950F831001CBD7C
:104D5000EC66000070B508480125D0F8104480F8D2
:104D60001C5405E0657221682046496888476468DC
:104D7000002CF7D170BD0000E00800202DE9FF47AE
:104D800081460C9D00200C462F7B287398461646C2
:104D90002946184600F02EFA072E42D2DFE806F028
:104DA00004090F161F2A360049462846FFF772FBF2
:104DB00037E0494628462268FFF76CFB31E0D4E92A
:104DC000002349462846FFF765FB2AE0A0680090CB
:104DD000D4E9002349462846FFF75CFB21E0D4E9EB
:104DE0000201CDE90001D4E9002349462846FFF736
:104DF00051FB16E004F1080007C88DE80700D4E96C
:104E0000002349462846FFF745FB0AE004F1080065
:104E10000FC88DE80F00D4E9002349462846FFF764
:104E200039FB00222946404600F082F92F73BDE885
:104E3000FF872DE9F041058A80462D1F4819C01CC7
:104E4000B0FBF5F0C6B24046FEF712FB041E19D0C7
:104E50000020207101206071E58000272546761E24
:104E6000C4F800800BE04046FEF702FB60B16179B8
:104E7000491C6171286005467F1CC0F80080B7425C
:104E8000F1D32046BDE8F081204600F002F8002072
:104E9000F8E72DE9F041457901466B1E002201E05B
:104EA0000968521C9A42FBD30F680146002605E0B0
:104EB00038460C68FEF7FBFA2146761CAE42F7D363
:104EC000BDE8F08108B501216A46001DFBF7D9FB5A
:104ED00008BDFEF701BB38B50446001D01216A4636
:104EE000FBF7DCFB009810F0FF0F04D12046BDE873
:104EF0003840FFF7CEBF38BD38B501240094FEF727
:104F0000F7F938BD38B500240094FEF7F1F938BD43
:104F100000F180410868002210B101200A6070474A
:104F2000104670474058002800D00120704708B54F
:104F3000002242504058009008BDD0F804030840B9
:104F400000D0012070474058002800D00120704751
:104F500008B5002242504058009008BD02064FF0AC
:104F6000010100F00F0001FA00F101D5044801E051
:104F70000348001D0068084000D001207047000071
:104F80001075024070B50D4905460020C8702846CE
:104F9000FDF79EFB817B0124032902D000680028D5
:104FA0000AD12846FDF78EFB8440E143BDE87040FE
:104FB00002480C30FEF73EBA70BD000078000020B9
:104FC000F8B5164D06460020E8703046FDF780FB28
:104FD000817B0124032902D0006850B11AE03046D9
:104FE000FDF770FB84400D48E1430C30FEF722FAD8
:104FF00010E03046FDF766FB84400848E1430C3082
:10500000FEF718FA0648006900908DF8026069689A
:1050100068468847BDE8F84000F008BF78000020E7
:105020001C64000002494058002800D0012070474D
:10503000007002400449084400210160BFF36F8FF3
:10504000BFF34F8F704700000070024003490860B3
:10505000BFF36F8FBFF34F8F7047000000740240A3
:1050600002480068002800D0012070472C750240DB
:105070000449084401210160BFF36F8FBFF34F8FD4
:1050800070470000007002400449084490F9300065
:10509000082801DB0120704700207047F40300203E
:1050A0000449084490F93000082801D201207047D3
:1050B00000207047F403002070B5034600791B49B7
:1050C00001EB40101968027F4FF0FF30002AD1F841
:1050D0000C25D1F81465D1F80855D1F8104504D045
:1050E000C1F80C05C1F8140503E0C1F81405C1F8B6
:1050F0000C051968C1F80805C1F81005501C02D04C
:105100001046FFF718FB701C02D03046FFF713FB68
:10511000601C02D02046FFF70EFB681C04D0284616
:10512000BDE87040FFF707BB70BD00005C040020C5
:1051300010B50C46C17949B11AB109A12046FFF753
:10514000A9F92046BDE81040FFF7B1B9007A002860
:10515000F3D0044804A102682046FFF79BF9ECE76E
:105160000D0A00000401002025730000124910B54B
:105170000988032202EB014258B1104C012814D0D7
:10518000022805D110460EA1FFF73CFD012020703A
:1051900010BD10460DA1FFF735FDFFF763F800289D
:1051A000F6D1BDE81040FCF71BBA10460CA1FFF782
:1051B00029FD0020EBE70000800100200000002016
:1051C00055534220726561647900000055534220B6
:1051D000706F776572206465746563746564000040
:1051E00055534220706F7765722072656D6F7665DA
:1051F0006400000070B50446C0790D4600281CD13B
:10520000207A50B1A179A088FFF7F2FB0B4951F841
:1052100020200BA12846FFF73DF9A0880021FFF7C9
:105220008BFD03460549A079143951F82020284602
:10523000BDE8704003A1FFF72DB970BD0401002047
:10524000257300003C25733E2025733A20000000A2
:1052500070B5012670044FF0E0210025C1F88001EF
:10526000084C4010C4F84803C4F8080366602F20B7
:10527000FEF770F9A660044C2F20A560FEF76AF9CE
:10528000A57070BD00100140B000002070B505464B
:10529000C87D0C4600284FF4847128460AD0FFF7D9
:1052A00046FED5F81805627EE1688854607E401C91
:1052B000607670BDFFF73BFED5F8180570BD1FB5D1
:1052C00001238DF800308DF808100192D0E900120A
:1052D000684690471FBD000010B5084C0020D2B2B0
:1052E0002070201DFEF752FC08B1FBF7ADFE607880
:1052F000002802D021780029FAD010BDC800002073
:10530000002070472DE9FC4108790C46012804D0A3
:10531000022805D003285CD14DE012222E4952E02C
:10532000B4F80700092800D909208046092600277B
:10533000FBF7DEFF05460BE06868694642682846D1
:10534000904700980644287A3844C7B22868056810
:10535000002DF1D101A8FCF739F91F490546424655
:105360001231FBF74DFA2F716E80FBF7DBFF18B19E
:10537000E87940F02000E871FBF7BAFF01461748D2
:1053800080E82201B4F80710C1600020FCF77CFD22
:10539000114980200839FCF759F9040005D10E495C
:1053A00080201039FCF778F804460020FCF76EFDE9
:1053B0002046BDE8FC81E078B4F80510FCF71CFD40
:1053C000010006D00A7802B0601CBDE8F041FCF78D
:1053D000CDB80620EDE7000038630000D0030020C0
:1053E00038B54A7812F0600F36D113063C4A8B78F4
:1053F0004FF0000432D523B1062B15D0082B2BD14A
:1054000016E00B466846FCF7E1F801460480007898
:1054100040F00100087052785208D20702D040F0E4
:1054200002000870022213E0BDE83840FFF76ABFAF
:105430000B466846FCF7CAF801461078052802D0EA
:10544000042803D008E00120087000E00C7001225D
:10545000581CFCF78BF838BD062038BD20480A2BB5
:105460000078F9D2DFE803F0051A051205060505F4
:105470000524F1E7032803D0042801D005281BD117
:10548000FBF78AFE042000F05DFC0FE0B1F803009A
:105490000128E1D1507840F0020006E0B1F80300A5
:1054A0000128D9D1507820F002005070002038BD7A
:1054B000052803D0042801D0082038BDC87818B1C9
:1054C000012805D0072038BDFBF766FE042002E066
:1054D000FBF778FE052000F035FC204638BD0000C3
:1054E0003C000020F8B50446407810F0600F27D14A
:1054F0006579A07820B101281BD0032820D10DE0C8
:105500006846FCF763F806462846FEF72DFD308016
:1055100002223146601CFCF729F8F8BD05F00F00A7
:1055200008280DD2B4F8030050B92846FEF710FD44
:105530000EE005F00F00082802D2B4F8030008B10D
:105540000620F8BD2846FEF771FC2846FEF724FD2C
:105550000020F8BDF8B5064658780D460406C0F39D
:1055600041113DD511B1012962D11CE000F01F00AD
:105570001C4601285CD1A078062859D10020009053
:10558000E27821796B463046FBF790FE010001D0AE
:10559000009A04E0207922284AD1D5E90212601C41
:1055A000FBF7E4FFF8BD11469A781846012A04D0AB
:1055B000022A0AD0032A3BD10BE00179012937D115
:1055C000A96930460A6819461EE00122581C0831B4
:1055D00002E00122581C0931BDE8F840FBF7C6BFC4
:1055E00031B3012924D119469B783046092B04D0C8
:1055F0000A2B0DD00B2B1BD10DE00A79022A17D1F3
:10560000AA691368A3B1526801B0BDE8F040104721
:10561000087910720AE0C97811F0FF01517201D0C7
:10562000012200E00022294600F092FD0020F8BD92
:105630000620F8BDF8B50B4651780646144611F021
:10564000600F25D11C480906A17800781ED511B13C
:105650000A291DD109E005281ED16846FBF7B6FFCF
:1056600001460020088002220CE0052814D168467B
:10567000FBF7ACFF054619463046FCF738FB2870AF
:1056800001222946601CFBF771FFF8BD0B2901D0F0
:105690000620F8BD052801D00820F8BDB4F80300A5
:1056A000FF2801D90720F8BDD27819463046BDE859
:1056B000F840FCF7F9BA00003C0000202DE9F8435F
:1056C000224C8846054691461F4669461846A668FC
:1056D000FCF790FE88B3009800EA060104EB810213
:1056E00052F80C1F21F00301491C401C11605FEAB5
:1056F000C56C02D541F0040101E021F0040165F31D
:10570000C50167F3891168F39F21116000EA060261
:10571000290C04EB8202401CD160009000200AE0BA
:10572000009959F8203001EA060204EB8202491C74
:10573000D360401C0091B842F2D394F81C0401E0FD
:10574000FFF778F90028FBD1BDE8F883E0080020D6
:1057500070B50546FCF76EFB124C06462078FCF748
:1057600069FB86420AD02846FCF764FB20B104F1AD
:105770000C00FDF749FF01E0FDF732FF2846FCF77A
:1057800066FB06462078FCF762FB864208D0284676
:10579000FCF75DFB10B1FEF7B5FA01E0FEF71CFE69
:1057A000257070BD280000202DE9F84F1D4C002504
:1057B0006846D4E901A6FCF765FF002738B300234B
:1057C000009A61681CE0D1F800C00846944503D9EE
:1057D000ACEB02020A6015E0A2EB0C026344076026
:1057E000D0F80CC0C1698146BCF1000F08D006EBAF
:1057F000030828F07F48C0E9018CC9F81C50054611
:105800000029E0D128466160FDF746FC03E0284608
:10581000FDF742FC10B15046FCF786FEE770BDE88C
:10582000F88F0000B00000200D4B10B5596831B161
:1058300002680C68A24204D8A21A0A60C1615860CA
:1058400010BD0B4603E00B46C969121B21B10C6861
:105850009442F8D3A41A0C600260C161D86110BDF3
:10586000B00000202DE9F041144E77683D462C46EB
:1058700003E0844204D02546E469002CF9D11BE002
:10588000D4B1A5420BD1F869706040B90C49012030
:1058900088600021B160F0702F20FDF75BFE216869
:1058A000E069E86110B102681144016070688742E4
:1058B00002D00120BDE8F0810020FBE7B00000200D
:1058C00000100140F8B5064600240D462046FCF7BE
:1058D000DBFA684600F04AFC68B10570084946608A
:1058E0009DF8000048700020FCF7D0FA1420FBF768
:1058F00015F92046F8BD04240020FCF7C7FAF8E7A4
:10590000D40600202DE9F041194D6C68002C2CD0F4
:10591000184800270068A968B846401A20F07F465A
:105920002068B0420CD82146361A0744E469087C46
:1059300020B181F81080886949698847002CEFD12F
:1059400029786878814206D1401CC0B2687002286C
:1059500001D185F80180064869780C3040F8217043
:10596000BDE8F0411420FBF7D9B8BDE8F081000094
:10597000B00000200415014070B50C4605464FF4F8
:105980008E71FFF7D4FAA18AA068415CA08A401CFE
:10599000A082C5F81C1570BD1FB500228DF800202F
:1059A0008DF80810816801918275D0E9001268466F
:1059B00090471FBD0149012008707047C8000020B2
:1059C00010B588B0044620220E496846FAF718FF41
:1059D00006200090C01F0190029003904FF0EB70E2
:1059E00006900CB1084A00E0002269460748FEF71D
:1059F00099F808B1FBF728FB0448001F447008B071
:105A000010BD000064650000B5590000CC00002006
:105A10002DE9FF470C4605464FF40071FFF78DFA5C
:105A200001274FF40178002618B34FF492794946C4
:105A30002846FFF777FAE0B149462846FFF777FA9C
:105A4000C5F80883A07E00B96F6002208DF80000C1
:105A5000D5F88004C5F880040390E07D8DF8080037
:105A6000E0680190E6752676D4E900126846904712
:105A700027E004212846FFF760FA10B34FF4847141
:105A80002846FFF74FFAE0B121462846FFF7FEFB14
:105A9000E07D617E884214D1207E38B1617EE2686B
:105AA000E0752069E0602676667607E0A07E00B9A2
:105AB0006F60C5F80883E675617EE2682046FFF7EF
:105AC000FEFB4FF48E7841462846FFF72BFA88B14B
:105AD000A08AA17D884204D221462846FFF74CFFC8
