:020000040001F9
:10900000003F00204D950100559501005795010046
:10901000599501005B9501005D950100000000007D
:109020000000000000000000000000005F9501004B
:109030006195010000000000639501006595010045
:10904000DD98010067950100499C010067950100CA
:109050006795010000000000059701006795010079
:10906000679501006795010067950100679501000C
:1090700067950100679501006795010067950100FC
:10908000679501003599010067950100679501001A
:1090900059990100679501005D99010067950100EC
:1090A00067950100679501000000000000000000C6
:1090B00067950100679501000000000000000000B6
:1090C00000000000000000000000000000000000A0
:1090D0000000000000000000000000000000000090
:1090E0000000000000000000000000000000000080
:1090F0000000000000000000000000000000000070
:10910000000000000000000000000000000000005F
:10911000000000000000000000000000000000004F
:10912000000000000000000000000000000000003F
:10913000000000000000000000000000000000002F
:10914000000000000000000000000000000000001F
:10915000000000000000000000000000000000000F
:1091600000000000000000000000000000000000FF
:1091700000000000000000000000000000000000EF
:1091800000000000000000000000000000000000DF
:1091900000000000000000000000000000000000CF
:1091A00000000000000000000000000000000000BF
:1091B00000000000000000000000000000000000AF
:1091C000000000000000000000000000000000009F
:1091D000000000000000000000000000000000008F
:1091E000000000000000000000000000000000007F
:1091F000000000000000000000000000000000006F
:10920000DFF80CD000F040FA00480047F9DE01001A
:10921000003F002030B4044654E8000F0D4644E8F7
:109220000053002BF8D1156030BC704730B40446B1
:1092300054E8000F40EA010544E80053002BF7D141
:10924000156030BC704730B4044654E8000F00EAA3
:10925000010544E80053002BF7D1156030BC70477E
:1092600030B4044654E8000F80EA010544E8005396
:10927000002BF7D1156030BC704730B4044654E879
:10928000000F00EB010544E80053002BF7D11560F7
:1092900030BC704730B4044654E8000FA0EB010521
:1092A00044E80053002BF7D1156030BC7047000034
:1092B00030B450E8012F93B2C48923448489A34277
:1092C00028BF1B1B0489A34202BFBFF32F8F0020BE
:1092D00007E0C3EA020340E80134002CE9D14FF073
:1092E00001000A6030BC704750E8012FC2EA024218
:1092F00040E801210029F7D1704730B450E8022F2F
:109300001FFAA2F3C488A34202BFBFF32F8F00202D
:109310000DE0C48923448489A34228BF1B1BC2EAF1
:10932000034340E80234002CE8D14FF001000A600A
:1093300030BC704750E8022FC2EA224240E80221C6
:109340000029F7D17047034653E8022FD988B2EBC2
:10935000324F4FF0000017BF92B241EA014142EA9A
:10936000014104E05A68B2EB324F08BF012043E8E4
:109370000212002AE8D1704730B4044654E8000FC6
:109380000D4644E80053002BF8D1156030BC7047FF
:1093900030B4044654E8000F40EA010544E80053A5
:1093A000002BF7D1156030BC704730B4044654E848
:1093B000000F00EA010544E80053002BF7D11560C7
:1093C00030BC704730B4044654E8000F80EA010511
:1093D00044E80053002BF7D1156030BC704730B41F
:1093E000044654E8000F00EB010544E80053002B4D
:1093F000F7D1156030BC704730B4044654E8000F14
:10940000A0EB010544E80053002BF7D1156030BCF8
:109410007047000030B4044654E8000F0D4644E89D
:109420000053002BF8D1156030BC704730B40446AF
:1094300054E8000F40EA010544E80053002BF7D13F
:10944000156030BC704730B4044654E8000F00EAA1
:10945000010544E80053002BF7D1156030BC70477C
:1094600030B4044654E8000F80EA010544E8005394
:10947000002BF7D1156030BC704730B4044654E877
:10948000000F00EB010544E80053002BF7D11560F5
:1094900030BC704730B4044654E8000FA0EB01051F
:1094A00044E80053002BF7D1156030BC7047000032
:1094B00030B4044654E8000F0D4644E80053002B36
:1094C000F8D1156030BC704730B4044654E8000F42
:1094D00040EA010544E80053002BF7D1156030BC89
:1094E000704730B4044654E8000F00EA010544E830
:1094F0000053002BF7D1156030BC704730B40446E0
:1095000054E8000F80EA010544E80053002BF7D12E
:10951000156030BC704730B4044654E8000F00EBCF
:10952000010544E80053002BF7D1156030BC7047AB
:1095300030B4044654E8000FA0EB010544E80053A2
:10954000002BF7D1156030BC7047000006488047FB
:1095500006480047FEE7FEE7FEE7FEE7FEE7FEE718
:10956000FEE7FEE7FEE7FEE77D99010001920100BC
:109570002DE9F05F0546002092469B468846064648
:10958000814640241BE0284641464746224600F0DB
:109590006BF853465A46C01A914110D311461846EB
:1095A000224600F016F82D1A67EB01084F462246B6
:1095B0000120002100F00DF817EB00094E41201E9C
:1095C000A4F10104DFDC484631462A464346BDE8A3
:1095D000F09F202A04DB203A00FA02F100207047B5
:1095E0009140C2F1200320FA03F3194390407047E1
:1095F000004870479838020040EA01039B0703D0F7
:1096000009E008C9121F08C0042AFAD203E011F8C1
:10961000013B00F8013B521EF9D27047D2B201E083
:1096200000F8012B491EFBD270470022F6E710B567
:1096300013460A4604461946FFF7F0FF204610BDC0
:10964000421C10F8011B0029FBD1801A704730B56D
:1096500004460020034600E05B1C934203D2E05C1A
:10966000CD5C401BF8D030BD202A04DB203A21FA23
:1096700002F00021704721FA02F3D040C2F120022B
:109680009140084319467047064C074D06E0E068D4
:1096900040F0010394E8070098471034AC42F6D339
:1096A000FFF7B2FD3C4102005C41020070B58C182E
:1096B00010F8015B15F0070301D110F8013B2A11E6
:1096C00006D110F8012B03E010F8016B01F8016BD3
:1096D0005B1EF9D12B0705D40023521E0DD401F8CF
:1096E000013BFAE710F8013BCB1A921C03E013F898
:1096F000015B01F8015B521EF9D5A142D8D30020CD
:1097000070BD00002DE9F04700268CB0DFF86091B5
:10971000B0464FF48075012437460696284605F07A
:10972000E7FD38B1D9F80403204203D0284605F0FC
:10973000D5FD26432D1D64007F1CADB2082FEDD34F
:109740004FF4BE74204605F0D3FD48B1204605F025
:10975000C5FD46F0004606AA0121002005F0AAFD3D
:10976000444D16F0FF0F15D00127002437420DD0CD
:1097700009EB8401D1F81005D1F81015C0F30420CD
:1097800055F82420C1F3014102B190477F00641CC9
:10979000082CEBD3002E67DA4FF0FF30CDE90880BC
:1097A00000263446281910F8507F90F9000027F061
:1097B000C008401C44D009A9404604F03CFF58B3FF
:1097C0004FEA9719404602F037FC55F820701FB158
:1097D000B9F1030F03D00FE0B9F1030F30D108A89E
:1097E0004FEAD80208F00703815C4FF0010C0CFA35
:1097F00003FC41EA0C0181544FF0A04101EB8800C9
:10980000D0F8000706A9C0F3014A404604F013FF50
:1098100018B1BAF1020F03D012E0BAF1030F0FD161
:10982000B9F1030F08D1BAF1020F1BD00221404653
:1098300005F024FD761CF6B217B149464046B847FC
:10984000641C042CAED3002E0ED06A4601210020E9
:1098500005F030FD06990098884205D006900898DA
:1098600009909DE70321E2E70CB0BDE8F087000016
:1098700000600040942E002000F01F020121914062
:109880004009800000F1E020C0F88012704700F02D
:109890001F02012191404009800000F1E020C0F842
:1098A0000011704700F01F02012191404009800023
:1098B00000F1E020C0F8001270474907090E0028A7
:1098C00006DA00F00F0000F1E02080F8141D704768
:1098D00000F1E02080F80014704700002DE9F0410D
:1098E0004FF48077384604F081FF0124104EA5071D
:1098F00048B1384604F081FF0120C5F808037470B0
:10990000002002F0DFFB4FF48277384604F06EFF50
:1099100000280BD0384604F070FF0220C5F8080379
:10992000B470BDE8F041012002F0CCBBBDE8F0818D
:10993000802E002007480021C0F84011C0F84411D3
:10994000C0F84811C0F84C11C0F80011C0F804115B
:1099500009F0B0B80010014008F0FABF10B50021BE
:10996000054A084600F004FD002803D0BDE8104079
:1099700000F0F2BC10BD0000A5A60100F0B5A148A2
:109980000127031D01783A07181D06290BD11C7801
:10999000240708D10478C4F30314032C06D0042C44
:1099A00004D0052C02D0062907D011E0B2F82443D8
:1099B000954DC4F304242C6002E01C78240707D1E1
:1099C0000478C4F30314032C02D1914D8F4C6C67BF
:1099D000D2F844428F4DC4F342342C6006290CD196
:1099E0001C78240709D10478C4F30314032C04D190
:1099F000894C256825F0807525604FF0804400254E
:109A0000C4F80C51C4F81051824C241F256006295B
:109A100007D11C78240704D10478C4F30314032C61
:109A200002D0062908D01FE0DFF8E8C103240CF1BA
:109A3000640CCCF8004007E01C78240714D10478AB
:109A4000C4F30314032C0FD1DFF8D0C10524CCF8E4
:109A50000040724C78342760704C083425600CF15B
:109A6000040C3F24CCF800406D4C2468DFF8B4C1EE
:109A7000CCF800406A4C241D24680CF1040CCCF88E
:109A80000040674C083424680CF1040CCCF800400A
:109A9000634C0C3424680CF1040CCCF80040604C8E
:109AA000103424680CF1040CCCF800405C4C1434E5
:109AB00024680CF1040CCCF80040594C183424688C
:109AC000DFF860C10CF1200CCCF80040544C1C3481
:109AD00024680CF1040CCCF80040514C203424686C
:109AE0000CF1040CCCF800404D4C243424680CF1EB
:109AF000040CCCF800404A4C283424680CF1040CC7
:109B0000CCF80040464C2C3424680CF1040CCCF802
:109B10000040434C30342468DFF808C10CF1400C9D
:109B2000CCF800403E4C343424680CF1040CCCF8E2
:109B300000403B4C383424680CF1040CCCF8004055
:109B4000374C3C3424680CF1040CCCF80040344C05
:109B5000403424680CF1040CCCF80040DFF8C8C095
:109B6000FB24CCF80040062913D11C78240710D11F
:109B70000478C4F30314032C03D0042C01D0052C67
:109B800007D1D2F85842DFF8A4C004F04F04CCF853
:109B9000004027480168C90702D06FF00101016049
:109BA0004FF01021D1F80002002803DBD1F80402A5
:109BB000002822DA1F4A17601F480368002BFCD0D8
:109BC0001523C1F800320468002CFCD0C1F804321F
:109BD00001680029FCD0156001680029FCD0BFF3A2
:109BE0004F8F0D48F0380168144A01F4E0611143C9
:109BF0000160BFF34F8F00BFFDE7124910480860B6
:109C0000F0BD0000E00F00F0403501400DF0ADBAAE
:109C100000C007403C050040FCED00E0105600404D
:109C20000404001020C5004018F50040E40E004078
:109C30000004004004E5014000E401400400FA058E
:109C40000090D003702100200149024809F000B8BB
:109C5000EC2E00200020004002E008C8121F08C1BE
:109C6000002AFAD170477047002001E001C1121F9D
:109C7000002AFBD1704700000121202803DA81402F
:109C80000548014003E0402802DA2038814009B14C
:109C90000120704700207047FC06FFBD082806D24F
:109CA00028B1012803D0042801D0012070470020EA
:109CB000704710B560B159B102780B785208B2EB19
:109CC000530F05D10622401C491CFFF7C0FC08B108
:109CD000002010BD012010BD800701D0002070477A
:109CE00001207047C3688B4206D811440069491EA1
:109CF000814201D8012070470020704710B5012231
:109D00000221002001F098FF08B1072810D1072296
:109D10000221012001F090FF08B1072808D100219D
:109D20000A22084601F088FF08B1072800D1002068
:109D300010BD000000B5A9B0A0216846FFF775FC72
:109D40001A494FF23140052208801948007B88707B
:109D500002208DF8000001208DF802008DF803200C
:109D600000220592ADF8180007918DF879008DF862
:109D70007C008DF87D004FF448602490ADF81020F1
:109D80002821B420229125901E210A482391269053
:109D90006946094800F088FE08B100F0DDFA0121AB
:109DA000054800F07EFE29B000BD0000C01C002068
:109DB000E82200202DFE0100582400202DE9F04764
:109DC00050B125480321008801EB004023A105F094
:109DD00053FC07F019FC37E04FF6FF78424610219C
:109DE0002248FFF71BFC224D08200446E8601F4F65
:109DF00005F10C06404607F00BFB0021B14631602F
:109E0000464608E0D9F800104B00491CC9F800107C
:109E1000F85207F0FDFAB04201D0641EF2D21348A6
:109E2000E96807F075FC08B100F096FA0F48E96898
:109E300007F0B6F9062802D008B100F08DFA0B48F9
:109E40000321D83800F036FF002803D0BDE8F047E2
:109E500000F082BABDE8F087E82100204572617306
:109E60006520626F6E6473210000000030250020C1
:109E7000B81C002070B58CB015460E4600236C4609
:109E8000C3F10F01415CE1545B1C102BF8D30D2191
:109E900004F11000FFF7C9FB0020C0F10F02315C94
:109EA0002244401C11740328F7D3684643DF002086
:109EB000C0F10F01214491F820102954401C0328BF
:109EC000F6D30CB070BD022001F04CBDD0F8D80024
:109ED00008B100207047012070470000014909794E
:109EE00001F090BA642000201AB18B5C1BB10720EE
:109EF00070470C207047002380F8DC3000F02CB94C
:109F00002DE9F84304460020052615468846082713
:109F10000090ACE094F8DC10092970D2DFE801F081
:109F200005222D406670767CA300421C009218F832
:109F3000000084F8DD0010B1012811D108E00421EF
:109F400084F8EC1004F13C00C4E93407012087E0F8
:109F500084F8EC6004F1BC000121C4E934011BE089
:109F600008207DE000EB0801001DCA78096862F353
:109F70001F61C4F80811009010E0421C009218F80C
:109F80000010D4F8E82004F586701154D4F8E800E5
:109F900021B1401CC4F8E800022061E003205FE02A
:109FA000421C009218F80000C4F80001D4F8D41044
:109FB0008842D5D20C22D4F8D01002EB00100958F8
:109FC0002046C4F80411FFF781FF0028C8D12046BD
:109FD000D0E94023D4F8FC1000F0C0FB20B1D4F845
:109FE000D800401EC4F8D800042039E0421C00927A
:109FF00018F80000A4F8FC0084F8DC6037E034E0D6
:10A000006A464146204600F0B2FB29E06A464146D6
:10A01000204600F049FB23E0B4F8E410B4F8FC203B
:10A02000914204D2491CA4F8E410401C0090B4F8FA
:10A03000E410B4F8FC00814211D12046D0E940235D
:10A04000D4F8FC1000F08AFB18B1216804F1EC0090
:10A0500088472046FFF73AFF00289FD080E7072077
:10A0600084F8DC0003E0009501E084F8DC700098DF
:10A07000A842FFF44FAFBDE8F8832DE9F84F0C4636
:10A08000DDE90B760968DDF828A01D4690464FF003
:10A09000000912290DD30095418B0089234607F052
:10A0A00067FCB8F8000021880844A8F80000C4F84C
:10A0B000009030682D1DB84207D12068421C2260F4
:10A0C00000F805903068401C3060B84207D2421C4E
:10A0D00032601AF800202068411C21604255306827
:10A0E000B84202D90220BDE8F88F0120FBE72DE934
:10A0F000F84306460868089D984617460C461228FD
:10A100000CD3CDF80080718B3089234607F030FCEA
:10A11000388821880844388000202060296809B1E7
:10A12000084612E0304600F086F858B1226808F17F
:10A1300004002978115456F8CC0F401C3060206878
:10A14000401C20602868401C2860012802D00120A3
:10A15000BDE8F8830320FBE72DE9F04F8A4693B072
:10A1600000210D910E91ADF84010119191460446D9
:10A170000D46C0F8CC1000F05EF800B10125242196
:10A1800003A80F95FFF751FA4FF0010B04AD0DF145
:10A1900044080FAE0EAF05E020B1012807D0022819
:10A1A00018D10FE00D98421C0D9200F805B0CDF8C3
:10A1B00000A0CDE9019803AB10AA0DA92046FFF736
:10A1C0005CFF07E0CDE9007603AB10AA0DA920469D
:10A1D000FFF78DFF0328DFD103A80090618B208952
:10A1E0000DAB10AA07F0C4FB03AEB4F80880678B70
:10A1F00024213046FFF719FA0020ADF82800ADF809
:10A200002A00ADF826700521ADF80C8002208DF8EB
:10A2100024108DF80E000B958DF825B0304608F00F
:10A2200095FCD4F8CC00C4F8D80008F0BFFC13B0FB
:10A230000020BDE8F08F00EB011090F8BC00012871
:10A2400000D000207047000070B50024064D06E0E5
:10A250006868012110F8340004F0BAFB641C287807
:10A260008442F5D3002070BD90200020F8B515463B
:10A270000C460646052A01D20720F8BD04F08EFCE4
:10A2800018B904F05DFC0028F7D1114900224E6096
:10A290000C708D60C1E90422C1E906220D4D0DE06C
:10A2A00006EBC4006968009181788DF80110007890
:10A2B000094A694604F0DEFB0028DED1641EE4B2E0
:10A2C000EED2BDE8F840054A0021024800F0D6B8B9
:10A2D00090200020CC35020055D101004DC4010072
:10A2E00005F082FA05F0DCF80028FBD1104C0121C2
:10A2F000208801EB00400FA105F0BEF9104800686E
:10A30000C00700D000BE2088022101EB00400DA153
:10A3100005F0B2F9BFF34F8F0948E43801680D4AE0
:10A3200001F4E06111430160BFF34F8F00BFFDE70F
:10A33000E8210020466174616C206572726F7200C2
:10A34000F0ED00E053797374656D20726573657488
:10A35000000000000400FA050EB500210091CDE9CF
:10A3600001106A4644F20100FFF7BAFF0EBD00007B
:10A370002DE9F84F254C8146924660880E46814271
:10A3800041D800274FF6FF788DF80070684600F03E
:10A3900005F922786078A188884201DA401C00E043
:10A3A0000020C0B2904204D19DF8000000F01AF9DC
:10A3B00027E065786078884201DA401C00E00020E0
:10A3C00060709DF8000000F00DF9454519D0A068B7
:10A3D000B9F1000F40F835A00DD066B16188E06892
:10A3E000324605FB01004946FFF706F9A06800EB7D
:10A3F000C500868002E000EBC50087800020BDE834
:10A40000F88F0420FBE70920F9E70000B0200020C6
:10A4100010B50E4C03E0401C00E0002020702078B6
:10A420006178814210D022786188E068A36802FBDD
:10A43000010003EBC20153F832208988904720784D
:10A44000A1888842E9DAE6E710BD0000B0200020CC
:10A4500030B5CB0008339DB293074FF0000401D014
:10A46000072030BD044B9A602A44DA605C701C708F
:10A4700058809980002030BDB0200020074B9B7889
:10A4800023B12AB120B10068037C1BB108207047BA
:10A49000072070474174426100207047282F002038
:10A4A00070B507F0CBFB104800240B2104704470FA
:10A4B0000E4D817014206C602C706C70FFF7DCF90D
:10A4C00007211420FFF7F9F91420FFF7E0F90848F5
:10A4D000046007211120FFF7F0F90548001F00680C
:10A4E000A860002070BD0000282F0020C0200020A0
:10A4F000081501402DE9FC47DFF8789099F8023003
:10A5000073B368B3052902D20720BDE8FC8743690D
:10A5100033B3437C012B25D0002704460025884611
:10A5200016468DF80050684600F038F801A808F08B
:10A53000C3FCC8B1012101700F4944600968C0E93A
:10A540000218C0E904769DF8040089F801009DF81E
:10A55000000000F047F81420FFF7A4F92846D4E7DC
:10A560000820D2E70F46D8E704259DF8000000F048
:10A5700039F8F3E7282F00200415014006498978AF
:10A5800039B130B1416921B100210174022108F0D3
:10A590006DBA082070470000282F002030B5EFF377
:10A5A000108172B60D4A9468012324B1037000290A
:10A5B00000D162B630BD93604FF0E023D3F88051F4
:10A5C000074C25401560C3F88041D3F8844154609E
:10A5D0005A17C3F8842100220270E8E734300020C3
:10A5E000FC06FFBD0B498A68002A11D000280FD154
:10A5F000EFF3108072B60B684FF0E022C2F8003122
:10A600004B68C2F8043100228A60002800D162B68B
:10A610007047000034300020FFF79EBE2DE9F04166
:10A62000064608680C46411C4FF0A0474FF0010554
:10A6300006D005FA00F1C7F80815206804F003FEFB
:10A640006068411C02D0002104F0F4FD3168A0696B
:10A65000C1F82405607D217D32680843C2F86C058D
:10A66000D4E900123068C0F80C15C0F81425207D1C
:10A67000012815D1A068411C02D0002104F0DAFDA8
:10A68000E068411C05D08540C7F80855E06804F033
:10A69000DAFDD4E902123068C0F80825C0F81015B8
:10A6A000BDE8F08105F024BB70B50446D0F8D000B9
:10A6B000D4F80051082303EB0515455BB4F8E4001A
:10A6C00085420FD9B4F8FC50A8420BD21068451C43
:10A6D00015600A5CB4F8E400D4F80451411CA4F8F5
:10A6E000E4102A54B4F8E400B4F8FC10884209D00D
:10A6F000D4F80021D4F8D01003EB0212895A491E75
:10A70000814229D1FC3494E80E00FC3C204600F044
:10A7100025F828B1B4F8E420D4F8041100208854B6
:10A72000B4F8E400B4F8FC10884201D2072070BDF0
:10A73000FC3494E80E00FC3C204600F00FF818B101
:10A74000216804F1EC0088472046FFF7BFFB08B101
:10A75000082070BD032070BD062070BDD0F8D00069
:10A7600000EB02100078012800D00020704710B5DF
:10A7700004461068431C1360085CB4F8FC1051EAEE
:10A780000020A4F8FC004FF00001A4F8E41010D061
:10A7900054F8D00F0822216B02EB0112825A32B119
:10A7A0000C2202EB0111405808B1062010BD072011
:10A7B00010BDFC3494E80E00FC3C2046FFF7CEFFB1
:10A7C00018B1216804F1EC0088472046FFF77EFBB2
:10A7D00008B1082010BD032010BD00002DE9F0478E
:10A7E000074600888EB0804600F0BCFD0646404615
:10A7F00002F098FF824604462E4800252A4601783A
:10A80000404600F015FE002E50D07879400734D530
:10A8100001254FF6FF7603AB2A460721504605F087
:10A82000E7FF010004D0404607F086FC00252BE03E
:10A83000B1463146049802F0C8FE064648450FD09E
:10A8400004460146404602F057FF4046FFF746FBEC
:10A8500030B9404607F042FC4046FFF73FFB48B1A5
:10A8600022460721504606F059F8010003D0404621
:10A8700007F062FC00254E4506D0404606F0BCF9C4
:10A8800010B1504602F03AFF02208DF81800ADF8E2
:10A890001A807879400701D5012000E002208DF868
:10A8A00020008DF8215006A801F0FEFF0EB0BDE893
:10A8B000F0870000642000202DE9FC470025178860
:10A8C0000646158090F82D001446894630B13A4668
:10A8D0002146484600F04EFE050009D1B0784FF001
:10A8E0000C0A18B32088C846001DB84202D9504649
:10A8F000BDE8FC87684679DF0028F9D1208803216C
:10A9000008F8001020881921401C80B2208008F827
:10A9100000102088401C80B2208000EB0801BDF8A8
:10A92000000008F011FA218808442080F078022203
:10A93000C8B1218896F9033001F1030C4846BC45A3
:10A94000D5D8425421884FF0010C491C89B221808E
:10A9500000F801C02188491C89B2218009F8013022
:10A960002088401C20807068B8B1218890F90030A0
:10A9700001F1030C4846BC45B9D8425421880A224B
:10A98000491C89B2218042542188491C89B2218006
:10A9900009F801302088401C2080308950B1CDE971
:10A9A00000474B460622022106F1080008F09CFAF7
:10A9B00005009DD1308A50B1CDE900474B460722B2
:10A9C000032106F1100008F08FFA050090D1308BBA
:10A9D00050B1CDE900474B461522142106F118006D
:10A9E00008F082FA050083D1306A30B13B46224636
:10A9F000494601F0D1FB0500DBD1706A30B13B461E
:10AA00002246494603F05CFB0500D2D196F82C00A3
:10AA100038B13B4622464946304607F01DFC05004A
:10AA2000C7D1307838B13B4622464946304603F01C
:10AA3000CFFB0500BDD128465AE7F0B50C4693B0D0
:10AA40001F210726ADF80010ADF80410002750B103
:10AA5000C17849070DD56A4602A9FFF72DFF0028E6
:10AA600008D102AD02E00025ADF800706CB1E078CD
:10AA700010B1304613B0F0BD01AA0AA92046FFF775
:10AA80001BFF0028F6D10AAA02E00022ADF80470EC
:10AA9000BDF80400C3B2BDF80000C1B2284672DFA1
:10AAA000E8E780F82410704770B50D00044653D0D5
:10AAB000F4B3012020700026E670202205F1780111
:10AAC000201DFEF799FD84F82460D5F89800C4F89D
:10AAD000CC00D5F89C00C4F8D0004FF6FF70A4F865
:10AAE000C800C4F82560A4F8296084F82B6004F13C
:10AAF00030003C210646FEF798FD287884F83000A7
:10AB0000A87884F83200E87884F83300687884F80C
:10AB10003100D5E90401C4E91001D5E90201C4E915
:10AB20000E01D5E90601C4E9120195F82D0000E0F7
:10AB300012E084F85D00686AD8B104F1780104F18C
:10AB40006C0061676065696A09880180686A616D87
:10AB500080888880002008E00E2070BD696A221875
:10AB60008968095C82F87810401C616D898881428F
:10AB7000F4D8A86AE8B104F1A400C4F8A0000C3825
:10AB8000A065A96A89888180A86AA16D008808806B
:10AB9000002006E0A96A22188968095C82F8A410DE
:10ABA000401CA16D89888142F4D895F82C0084F866
:10ABB0005C00286A48B104F1C4002065296A49880C
:10ABC0004180286A216D00880880686800B1606350
:10ABD00005F13C013046BDE87040FFF72EBF10B5CF
:10ABE0000288102A1AD0112A1FD01B2A1CD1007AE1
:10ABF0000C46002818D1E0780521401CB0FBF1F28A
:10AC000001FB1201204600F055F800280CD0D4F8C2
:10AC1000D010002908D0BDE810400847C27B012AA7
:10AC200002D18088A1F8C80010BD0C46002184F82C
:10AC3000D4108088B4F8C8108842F5D12079002853
:10AC4000F2D10121DEE710B50C46022801D003281D
:10AC500011D1607800280ED000206070E178204685
:10AC600000F028F8002806D0D4F8D010002902D02F
:10AC7000BDE81040084710BD10B5044674DF012040
:10AC800084F8D400002084F8D600062084F833002D
:10AC9000002104F13000FFF7D0FE002809D1E1784F
:10ACA000204600F007F818B1D4F8D01001B1884759
:10ACB000002010BD2DE9FF47044600780F4638B14B
:10ACC000E770002004F0AEF9012628B16670D2E0EA
:10ACD000082004B0BDE8F0870025C4F82550A4F88A
:10ACE000295084F82B50A07910B1E078012806D0C3
:10ACF000E07970B1E078012801D0022809D1D4F8B8
:10AD0000CC1021B184F82C600820884701E084F839
:10AD10002C5004F1260100200A5C0AB1304603E001
:10AD2000401C0628F8D300204FF002084FF0030A19
:10AD30004FF00409012F06D0022F09D0032F0CD0A9
:10AD4000042F12D10DE0A17911B108B130460DE008
:10AD5000E17911B108B1404608E0207A08B15046C7
:10AD600004E0607A08B1484600E02846E070D4F874
:10AD7000CC1041B1032801D0042804D1607910B16E
:10AD800094F8D400A8B184F8D550009502950195A7
:10AD900003958DF800508DF80850E17804F12500F6
:10ADA00004F13002052958D2DFE801F0670A131FC9
:10ADB0003B0084F8D65084F8D56007208847E4E744
:10ADC000A67001908DF80060ADF80C50ADF80A50F7
:10ADD00043E084F8028001908DF80060208AADF88D
:10ADE0000C00A089ADF80A0037E0A08AADF80A008F
:10ADF000208BADF80C00607980B194F8D40068B96C
:10AE000094F8D60050B18DF8088084F83390002172
:10AE10001046FFF712FE00BB05211AE084F802A0DD
:10AE20001BE0A08BADF80A00208CADF80C00607917
:10AE300088B194F8D40070B994F8D60058B18DF860
:10AE4000088084F8339000211046FFF7F6FD20B902
:10AE50000621A17001E084F80290E07830B194F806
:10AE60002410684673DF00287FF433AFD4F8CC1089
:10AE700009B1A078884700202BE7A570F6E790F885
:10AE8000D530009933B1002380F8D5300A4303D080
:10AE9000012102E008207047002180F8D610002030
:10AEA0007047000010B50446C28E07480321008891
:10AEB00001EB004005A104F0E3FBE18E2089BDE831
:10AEC0001040012201F05EB8A0210020456E6162B1
:10AED0006C65204461746120536F75726365206EE8
:10AEE0006F74696669636174696F6E732E2057723F
:10AEF0006974696E6720746F2068616E646C653A6E
:10AF0000202569200000000070B5040043D0E9B39B
:10AF10000868D8B3002084F8DC00C4F8E000A4F886
:10AF2000E400C4F8E80008682060486860604FF6F4
:10AF3000FF70208142F602102087208504F10A006C
:10AF400032210546FEF771FB07F0F8FD04F10C0114
:10AF5000124862DF00281FD1104804F1140110309C
:10AF600062DF002818D10D4804F11E01203062DF95
:10AF7000002811D1094804F12E01303062DF002889
:10AF80000AD14FF231406081284600E003E0BDE87D
:10AF9000704000F065BA0E2070BD000088350200D8
:10AFA00010B50446C28C07480321008801EB00401D
:10AFB000054904F065FBE18C2089BDE810400122C1
:10AFC00000F0E0BFA02100208C3B020000B502464B
:10AFD00000889DB0112838D0382814D039283BD1AA
:10AFE0000B4602F10A0091881A89914234D10188F6
:10AFF0009A8C91421ED182881DB0811D18465DF841
:10B0000004EB05F006BB08899388984224D1108987
:10B0100058B14B8B984208D106208DF80000D0889B
:10B02000ADF80C000968684688471DB05DF804EB70
:10B0300007F0BCBD9A8E91420ED182881DB0811D51
:10B0400018465DF804EBFEF75BBF088992889042D2
:10B0500002D14FF6FF7008811DB000BD2DE9F04709
:10B06000DFF804A10C460A78BAF8001007464FF042
:10B07000030909EB01409EB03CA104F001FB2078DC
:10B0800004F10E0500286AD1A088A0F57441313979
:10B0900065D1A079397B884261D1002650E000BF9C
:10B0A00006EBC60835F8180000F6F350B0F500506E
:10B0B00030D000F62430B0F5404015D000F6F65000
:10B0C000B0F5005F3BD1BAF8001009EB014034A1A4
:10B0D00004F0D2FA05EB480001681291416813911F
:10B0E0000089ADF850002AE0BAF8001009EB0140E1
:10B0F00034A104F0C1FA05EB48000168CDF86210F4
:10B100004168CDF866100189ADF86A104089ADF844
:10B110006C0014E0BAF8001009EB014032A104F011
:10B12000ABFA05EB48000168CDF852104168CDF844
:10B1300056100189ADF85A104089ADF85C00761CB4
:10B14000207AB042ACD800208DF800006088ADF8BD
:10B1500002003968684688471EB0BDE8F0870120C4
:10B160008DF80000F5E70000A02100204461746123
:10B170006261736520446973636F766572792068D4
:10B18000616E646C65722063616C6C6564207769C4
:10B190007468206576656E7420307825780000002C
:10B1A000436F6E74726F6C20506F696E74204368C9
:10B1B00061726163746572697374696320666F7527
:10B1C0006E642E004461746120536F757263652054
:10B1D0004368617261637465726973746963206640
:10B1E0006F756E642E0000004E6F7469666963614E
:10B1F00074696F6E20706F696E742043686172614C
:10B2000063746572697374696320666F756E642E0A
:10B210000000000070B58AB00E460446242168463E
:10B22000FEF703FA0020C4F8CC00618BADF81A10C9
:10B2300001A9089101218DF81810ADF81C006D4688
:10B240008DF80400691D304607F083FD00210226B9
:10B2500010F1010004EB011292F83C30012B14D1E3
:10B260002B18401C1971012903D0022901D0032990
:10B2700006D1B2F844302A1813711B0A5371801C8E
:10B28000D4F8CC20521CC4F8CC20491C0829E1D3A6
:10B29000ADF81E002089ADF800008DF80260D4F8EA
:10B2A000CC00C4F8D800684607F050FC07F07EFCDC
:10B2B0000AB0002070BD0179032902D280790C28E0
:10B2C00001D30720704700207047000070B50400CC
:10B2D00012D001461C221448FEF78EF91248134D75
:10B2E0000560206850B17ADF002806D12068016827
:10B2F00029604068686005E00E2070BD0B487BDF68
:10B300000028FAD108484FF6FF711438084A20F88F
:10B31000041B0549343901600021FFF7AFF800280C
:10B32000EBD0032070BD0000182700201020002063
:10B33000392E020002494A6C091D06F071BD000059
:10B340003427002002460248016D001D06F055BD5D
:10B350003427002002460248416D001D06F04DBD15
:10B360003427002070B5084E054600242A46301DBB
:10B37000716C06F042FD28B12A46301DF16C06F0D2
:10B380003CFD0124204670BD3427002070B50A4ED4
:10B39000054600242A46301D716C06F02EFD40B192
:10B3A0002A46301DB16C06F028FD08B1022400E0E9
:10B3B0000124204670BD00003427002010B5002471
:10B3C000204607F06DFD28B1641CE4B2182CF7D3B9
:10B3D000182010BD03480122A240016811430160FA
:10B3E000204610BD3427002010B5044607F058FD54
:10B3F000002803D0024800EB8400806D10BD0000DF
:10B400003427002070B505460C46084607F048FD75
:10B41000002809D005482A4600EB8401001D896DEB
:10B42000BDE8704006F0E9BC70BD00003427002084
:10B4300070B5064615460C46084607F031FD002853
:10B440000AD006482B4600EB84013246BDE8704026
:10B45000001D583106F009BD70BD000034270020E2
:10B4600070B540B10C4D297839B1044606F0C0FBE7
:10B4700028B1002070BD0E2070BD082070BDE868A6
:10B48000062807D20549226801EB8001401C0A60AA
:10B49000E860EEE7042070BD18200020EC270020B3
:10B4A00040B1054900220123CA600B70C1E90102C5
:10B4B000104670470E2070471820002070B5040019
:10B4C0002DD000292BD020480078002827D02088B4
:10B4D0000D46112815D0302804D0322807D0332843
:10B4E0001ED109E0211D284604F0E6FE18E0211DCA
:10B4F000284604F0A3FD13E0211D284604F028FE91
:10B500000EE0A088B5F8CA12884209D1002085F85B
:10B51000C70285F8C8024FF6FF70A5F8CA0270BDD1
:10B5200095F8C8020028FAD020883028F7D34F2891
:10B53000F5D8A088B5F8CA128842F0D12846BDE8EF
:10B54000704001F041B800001820002048B1084ABE
:10B55000137843B1D26832B190F8C7222AB11120D2
:10B5600070470E2070470820704701F02DB800008A
:10B57000182000207CB5054608880C46093090420A
:10B5800001D90C207CBD68466DDF0028FAD12188E6
:10B590000820685420881B21401C80B22080295438
:10B5A0002088401C80B220802844DDF80110016012
:10B5B000BDF8051081802088801D80B220809DF814
:10B5C0000010490800D0012129542088401C208007
:10B5D00000207CBDF8B501880546212943D01FDC39
:10B5E00026484FF00302264C0088264F02EB00400D
:10B5F000102926D0112940D123A104F03DF84FF69F
:10B60000FF7626803868FEF7B9FF041E01D0FEF7EA
:10B61000A3FE2148A988028991420CD106810AE043
:10B620003B2926D0562928D18088132176DF041E95
:10B6300023D0FEF791FE20001FD0BDE8F840FEF7B2
:10B640008BBE16A104F018F8072000F017FB08B114
:10B65000FEF782FEA888208000224FF4404138681F
:10B66000FEF748FFE3E700200090A88869468FDFD7
:10B67000DDE78088132176DFD9E7F8BDE8210020D7
:10B68000B81C0020C4330200446973636F6E6E659A
:10B69000637465642E000000E8220020436F6E6E24
:10B6A00065637465642E000010B51A4C01886068EB
:10B6B00010290ED011292BD1401E606028D1FEF731
:10B6C0001DFB002824D02168002921D0BDE81040AE
:10B6D0000847D0B900210122084600F0ADFA08B1B0
:10B6E00007280FD107220221012000F0A5FA08B196
:10B6F000072807D104220221002000F09DFA20B182
:10B70000072802D0216801B188476068401C60604A
:10B7100010BD0000082000202DE9F04701883B4EB5
:10B7200040F2F3194FF6FF7510291BD011293ED0B6
:10B73000122954D0502946D1C188F289841D9142E2
:10B7400041D1618902293ED18688304602F0EEF867
:10B75000050038D004F10C0000F0EAF8A8B329463F
:10B7600030464EE0C17B8788044601292BD1A8468C
:10B77000284602F0DBF8050017D02F800020287241
:10B78000234843464A460168C5F80A104068C5F890
:10B790000E0004F1100105F10A0002F02DF96872A3
:10B7A000F08900280FD129462AE0042013E0808880
:10B7B00002F0BCF8040006D06068FEF7DFFE08B1B6
:10B7C00006F09EFC2580BDE8F087FFE76868FEF77D
:10B7D000D5FE0028F7D0BDE8F04706F091BC878879
:10B7E0000646384602F0A2F80400ECD02B464A4642
:10B7F00006F1080104F10A0002F0FEF86072214629
:10B800003846BDE8F04700F00DBD000018270020C5
:10B81000102000202DE9F047054603883948012211
:10B82000A4B000F1480A102B09D0112B48D01A2BD4
:10B8300064D1297AB2EB111F47D2012346E0D0E947
:10B8400011218A430446011D12A806F0E9FA442298
:10B8500012A901A8FDF7D0FEDFF8A8900026374610
:10B8600009F144090DF104080AE000BF08EB4600A5
:10B870001D2283884946201D009706F083FA761C16
:10B880000198B042F2D8606CAD88C04306F09CFAD3
:10B89000A0F57F41FF390DD004EB400001238580E6
:10B8A0002A465146201D06F0E0FA01232A46494661
:10B8B000201D1EE024B00420BDE8F047FEF74CBD7B
:10B8C0000023AA885146001D13E000230D490446B9
:10B8D000AA885031001D06F0C8FA287A0221B1EB7F
:10B8E000101F01D2012300E000230649AA88543129
:10B8F000201D24B0BDE8F04706F0B7BA24B0BDE87B
:10B90000F08700003427002010B50446074800786F
:10B9100000280AD0204601F08BFD204606F070FD7D
:10B920002046BDE8104001F0EFBA10BD54200020C1
:10B93000007800F0010070470149085C7047000082
:10B94000CC3302000649095C4FF0A040D0F8100546
:10B95000C84010F0010000D0012080F001007047C5
:10B96000CC33020007490B5C4FF0A041D1F804250D
:10B970000120984020EA0203C1F808351040C1F8C0
:10B980000C057047C83302000249085C012103F02E
:10B9900086BC0000C83302000249085C002103F0A5
:10B9A0007EBC0000C83302000649095C4FF0A0408D
:10B9B000D0F80405C84010F0010000D0012080F04C
:10B9C00001007047C83302007CB50024084E2546AC
:10B9D0000122305D009500231146019503F0EBFB39
:10B9E000641C042CF4D3BDE87C4000F003B80000D4
:10B9F000C833020010B500242046FFF7C5FF641CC1
:10BA0000042CF9D310BD10B500242046FFF7C4FF65
:10BA1000641C042CF9D310BD10B50246064B4FF040
:10BA2000FF3000215C5C944201D1084610BD491CE6
:10BA30000429F7D310BD0000CC33020070B50C4EC2
:10BA40000C004FF0000530600BD0012000F06AF8C8
:10BA500008B1022004E0002000F064F800B10B20DF
:10BA60002070706810B9FEF749F90546284670BD88
:10BA70000820002010B5002000F032FA08B1062896
:10BA800006D1012000F02CFA08B1062800D10020D0
:10BA900010BD00002DE9F0470D468146FFF7BCFFC1
:10BAA0000446042836D2DFF874801B481C4EA8F1E7
:10BAB0000C0725B3012D0ED0022D2BD104EB440031
:10BAC00030444578002D25D0B968002922D0284679
:10BAD000BDE8F047084704EB4401755C0E447178FB
:10BAE00049B10E4A4FF40041093A8068FEF702FD61
:10BAF00008B987F80390B17808F80410E2E7806885
:10BB0000FEF73CFD04EB4401314418F804008D7845
:10BB1000A842D7D0BDE8F087D0330200042000202F
:10BB2000B8260020FFF70EBF011F10B52B482C4C84
:10BB3000032200880E2902EB0040627923D2DFE85D
:10BB400001F00B22221722220722222223283A4226
:10BB5000BDE8104006F040BC214813211038008891
:10BB600076DF0EE000280ED0BDE81040FEF7F4BBF3
:10BB70001C480089A0F57F41FF3904D11A48FFF71E
:10BB80007BF80828EED110BD1549164802F093FD48
:10BB9000E8E7154CF43461680029F4D121880029C4
:10BBA000F1D012A1A26803F06BFD22880D48A168B4
:10BBB00002F05CFDD6E71107E5D511A103F05CFDAD
:10BBC0000022216806E0D106DDD514A103F054FD62
:10BBD00021680122034802F051FCC3E7E82100205C
:10BBE000C81C0020E82200205824002052657175EE
:10BBF00065737420666F722025733A200000000080
:10BC0000506572666F726D696E6720506F736974EC
:10BC100069766520416374696F6E2E0050657266A7
:10BC20006F726D696E67204E656761746976652015
:10BC3000416374696F6E2E0070B50023042810D222
:10BC40000D4D00EB4004012A02D101290CD0002245
:10BC5000094E00EB4000304461B1012906D00229B1
:10BC600006D00723184670BD0E30C2B22A55F9E738
:10BC70004270F7E78270F5E7B8260020044A0146D3
:10BC800000201279D20702D0084600F04DB8704764
:10BC9000F81F002070B506461E480024C0E9016167
:10BCA000B00720D50025012211462846FFF7C4FF22
:10BCB0006D1C0446042D02D2002CF4D013E094B97C
:10BCC00040F2666204211448FEF7D0FA04000AD15B
:10BCD000FEF7BAFA040006D10F48104A0021001FEF
:10BCE000FEF7CCFB0446F00701D0FFF76DFE74B9F8
:10BCF00009480B4A00210C38FEF7C0FB040006D1AE
:10BD00000548084A01210838FEF7B8FB04462046DA
:10BD100070BD0000F81F0020DC3302007DBF010071
:10BD2000D9DA0100C79E01002DE9F05F6A4C054693
:10BD300000266078B34618B184F801B001F0B4FE73
:10BD4000664F4FF47A694FF4C87A4FF00108182D06
:10BD500062D2DFE805F0AC0C0C31404D62676B74C9
:10BD60006B74BE7D7D7D7D7DACAFB2B5BEBE002067
:10BD7000FFF71AFE00284FF0000008D0FFF704FE7E
:10BD8000022D02D14FF4E16008E0484606E0FFF7DB
:10BD900003FE022D01D1C82000E05046410CC00333
:10BDA0004FF4FA72801841F100012570520000230F
:10BDB000FDF7DEFB01462AE00020FFF7F5FD002835
:10BDC0004FF0000004D0FFF7DFFD4FF44870E5E7C7
:10BDD000FFF7E2FDDFE70020FFF7E6FD00284FF068
:10BDE000000002D0FFF7D0FDCFE7FFF7D5FDD4E785
:10BDF0000020FFF7D9FD00284FF0000002D0FFF728
:10BE0000C3FD01E0FFF7C8FD257041F69A1100223D
:10BE10003868FEF76FFB064646E00020FFF7A2FDFC
:10BE2000257008E0002051E025703DE084F8018095
:10BE30000120FFF797FD002240F6CD41E8E784F8A6
:10BE400001800120FFF78EFD00224FF48041DFE7E3
:10BE50007868FEF793FB0646D5F1110000D02EB1AD
:10BE60000220FFF791FD84F802B01DE0012816D9E9
:10BE700080B2C8214843C117C90341EA5041C003F9
:10BE80004FF4FA72801841F1000152000023FDF7CF
:10BE90006FFB014600227868FEF72CFB0646022065
:10BEA000FFF77AFD84F802803046BDE8F09F01F08C
:10BEB000FBFDB9E701F0F8FDB4E701F0F5FD04E0A2
:10BEC00001F0F2FD0020FFF767FD0120FFF764FDA0
:10BED000AAE7FFF798FDA7E7F81F0020D03302007C
:10BEE00010B5FFF729FD032103F0B7F9002010BDBD
:10BEF000F8B5861C00208DF800000C460127684626
:10BF0000FEF74CFB0F4801682160D0E90012891A46
:10BF100082680446511AB51C07E000BF01F0A2FF79
:10BF2000D4E90001401AA168091A491C8D42F5D8CC
:10BF30002068304420609DF80000FEF753FB38462F
:10BF4000F8BD0000E032002030B482680468531C61
:10BF50008360A154D0E901128A4202D330BC02F0BE
:10BF600038BF30BC70470000034803C8814201D18C
:10BF70000120704700207047E03200200078022145
:10BF8000FFF788BD70B58AB00D46064614462421D9
:10BF90006846FDF74AFB022001A9ADF81E00089192
:10BFA0000021ADF81C10ADF81A5001218DF81810C1
:10BFB000ADF800608DF80440210A8DF802008DF87C
:10BFC0000510684606F0C2FD06F0F0FD0AB000203C
:10BFD00070BD000005494FF0FF32082841F82020CD
:10BFE00002D3084480F8482070470000942E0020B7
:10BFF000F0B54FF0FF3512B10023082601E0082309
:10C000000C260C4C05E000BF54F823707F1C04D0B4
:10C010005B1CB342F8D32846F0BD26185DB286F803
:10C02000305044F82310002AF5D1E11881F8480077
:10C03000F1E70000942E00200249084490F93000F6
:10C0400070470000942E002008B5024690F8C60202
:10C050000B4600EB8001C1EB801002EB400092F830
:10C06000C52242B1521ED2B202EBC20100EB410224
:10C07000518A491C00E0C188ADF800100089ADF874
:10C0800002006946184696DF08BD70B504464FF6B3
:10C09000FF750A462846AC4208D14FF48074214609
:10C0A000104605F071F9A04209D070BDFF2CFCD8F4
:10C0B0002146104605F05BF908B1204670BD2846C0
:10C0C00070BD000070B5084C050009D0103421681F
:10C0D000002907D008682060496828468847F6E7A5
:10C0E0000834F4E770BD0000802E00202DE9F05FD9
:10C0F00026484168F1B3DFF898B00E688146DBF856
:10C10000004087688078E11B21F07F45ED1CB0B9C5
:10C11000DFF880804FF48030C8F84403C8F8040387
:10C120001120FDF7A9FB1120FDF7B1FB4FF0010A2B
:10C13000C8F800A02F2002F0AFFB89F802A0B5429A
:10C1400000D23546124BE8193C3320F07F4018608E
:10C15000DBF800105A46091B21F07F41001B20F03C
:10C160007F40C91C81420FD9106818602F2002F04F
:10C1700093FB00E004E0BDE8F05F1120FDF792BB07
:10C18000BDE8F05F05F05ABDBDE8F09FC02000207B
:10C1900004150140001001402DE9F04117880646C2
:10C1A000B81D14460D46984202D90C20BDE8F08116
:10C1B0003188072206290AD34FF4486C4FF6FF73E3
:10C1C000614501D9994202D17088062801D21046F2
:10C1D000ECE7604501D99842F9D1994203D09842E1
:10C1E00001D08142F3D80520E85520881221401C57
:10C1F00080B2208029542088401C80B220804119C0
:10C20000308806F0A1FD2188084480B220804119C1
:10C21000708806F099FD2188084420800020C5E739
:10C22000FEF79AB838B54A7A0F4B62B100220A720B
:10C230005969002906D001228DF80020ADF80200CE
:10C240006846884738BD0A7A62B19B684C680246E6
:10C2500019462046FEF74EF90028F3D0BDE83840D5
:10C2600005F04EBF5B68F1E718270020F0B585B0F8
:10C2700016460F4604461D4614220B496846FDF734
:10C28000BBF90A488DF80870ADF80240ADF80A60B5
:10C290008DF80C50017800222046FFF7C9F8684657
:10C2A00000F002FB05B0F0BD5C3502006420002008
:10C2B0002DE9F8430025441C90460E462F468DF884
:10C2C00000506846FEF76AF919480268C8F800206D
:10C2D000D0E90023D0F808C0D11AACEB0101491C09
:10C2E0008C4208D8511C01EA0C0100EB81051119A0
:10C2F000016037600AE003EA0C03A34207D913196F
:10C300004A1E1A44491E0260094D31600C35D0E9BD
:10C3100000128068891A401A401C022800D20025A9
:10C320009DF80000FEF75EF92846BDE8F88300009E
:10C33000E032002001460148FEF790BEE8220020CE
:10C340007FB50C4610B1012004B070BD20790026E5
:10C3500038B141F61D5501281BD0022826D00F20E8
:10C36000F2E70220207102960396E0680190694688
:10C3700001A805F0A3FB50B102988188E1800088F4
:10C380002081BDF80010029805F016FCDCE70A20B9
:10C39000DAE70A4B6A460021A01D05F04BFB38B1D5
:10C3A000064918398E61CE610A28CDD12846CBE7DF
:10C3B00002488188019805F0FFFBF5E7EC2000209A
:10C3C0002DE9F843054690F8C6020F4600EB8001C0
:10C3D000C1EB801005EB400695F8C542914604EB91
:10C3E000C40006EB40013279601C0A31904226D12C
:10C3F0006B460022284601F021FB18B310E0401ED6
:10C40000A04201D1002004E004EBC40006EB400090
:10C410001C30804602466B46284601F00FFB30B1C7
:10C42000002038706946484697DFBDE8F88395F8E4
:10C43000C5024146401C641C85F8C502E4B230794F
:10C44000A042DCD8012038700020EEE72DE9F05F33
:10C450000025DFF8A48043E06068002100EBC506FA
:10C46000012032789146FDF7B4F8D4E9062300EABA
:10C47000020701EA030C57EA0C072FD0C7433A40E2
:10C480008B434846C4E9062302F050FB32784FF054
:10C49000000A8146934601205146FDF79AF8D4E9F7
:10C4A000042300EA020401EA03075A4648465146BB
:10C4B000FDF78FF844404F403C430FD1707801287E
:10C4C00015D0002289EA02008AEAE271084310D0FE
:10C4D0000020726812B1C1B2584690476D1CEDB28F
:10C4E00098F8000044468542B6D3BDE8F09F01228B
:10C4F000E8E70120EDE70000902000202DE9F0475B
:10C50000894690F8C612904601EB8102C2EB811178
:10C5100000EB4107384605F06BFB06002FD0194CA5
:10C52000A06806282BD2184D762205EBC01039469C
:10C53000A0F80280001DFDF75FF80027B9F1000F99
:10C5400004D0A06805EBC010077004E0A1680220C9
:10C5500005EBC1110870A06805EBC011401CCE6747
:10C56000A060E16888420AD1002604E005EBC6100D
:10C57000C16F8847761CE0688642F7D3A760BDE8A4
:10C58000F0870000182000200428002070B50E4617
:10C5900090F8C612154601EB8102C2EB8111A0B0E2
:10C5A00000EB410005F024FB040009D07C22054982
:10C5B0006846FDF721F8ADF8025068460196A0479D
:10C5C00020B070BDFC33020070B50E4604464FF437
:10C5D0003371FDF72AF811480025A4F8CA62856076
:10C5E00084F8C9520E4884F8C65284F8C5520068CF
:10C5F000206022460121304694DF0121112806D017
:10C60000002809D184F8C71284F8C85203E084F8DE
:10C61000C71284F8C812002070BD00001820002046
:10C62000EC2700200E4910B50A784C780023A2426E
:10C6300012D0521CD2B20A70022A00D10B70084AE2
:10C640000B780C3252F8232002608868104420F0E6
:10C650007F408860012010BD0360002010BD0000F5
:10C66000C020002013460A460021FFF7FFBD00004E
:10C670002DE9F843104D0F4680461E469146694607
:10C68000286801F04DFF040014D01C21FCF7CDFFF9
:10C6900001202071C4F81490380BC4F80080C4E95C
:10C6A00002606946286801F05CFF05F04DF9002042
:10C6B000BDE8F8830420FBE7FC35020001460D4885
:10C6C0000322B1F5D07F008802EB00400AD0A1F52B
:10C6D0008071A13908D0012908D0022908D1064962
:10C6E00002F0CABF0549FBE70549F9E70549F7E745
:10C6F00070470000E82100209C38020084390200C5
:10C70000E83802002C39020010B503780022072B0C
:10C7100006D2DFE803F005040610202930000A7075
:10C7200010BD01230B7003898B818388CB81C06886
:10C7300088600A7410BD02220A7002898A81828888
:10C74000CA81C2688A60807D062802D000200874F1
:10C7500010BD0120FBE703220A70C2888A8102898A
:10C76000CA81C068886010BD04230B70C0888881AE
:10C77000CA818A6010BD0520087010BD70B5064DD5
:10C780000646002455F8241009B130468847641C39
:10C79000042CF7D370BD00004C30002030B50446A7
:10C7A000006885B00D46806800281CD014216846BA
:10C7B000FCF73BFF0195A0680490207910B1012897
:10C7C0000DD104E001208DF80000206904E0022072
:10C7D0008DF80000E0680003029060690390206813
:10C7E00081686846884705B030BD70B586B015468B
:10C7F0000C00064619D0112C17D0082C15D0142186
:10C800006846FCF712FFADF80260304600F08AFF80
:10C81000ADF804000D2C0AD0862C1CD007208DF812
:10C8200000000294684600F04DF806B070BD032089
:10C830008DF8000025B12878C00701D0012000E064
:10C8400002208DF8080000208DF80C0041F2011044
:10C85000ADF80A00E6E706208DF80000E2E70000E8
:10C8600010B50446408800F05DFFA08002480168D2
:10C870002046BDE810400847302000202DE9F04157
:10C8800007460024064E074D05E000BF56F8241069
:10C8900038468847641CE8788442F7DBBDE8F081BD
:10C8A000142D00205420002010B50446408800F0CC
:10C8B00039FFA080024801682046BDE810400847C3
:10C8C000303502000149096808470000843502003C
:10C8D00070B586B0044614216846FCF7A6FEA08910
:10C8E0000026A0F54040ADF8040020782D4D062824
:10C8F00035D2DFE800F0340303032E4EA08900F0A8
:10C90000C9F9012130B9E08943F6FE72A0F5404033
:10C91000904224D8A07B8DF808002078032810D0FE
:10C920005FF000008DF80900A0680390606850B1C6
:10C9300009208DF8000060680490684604F036F81D
:10C940000DE00120EEE708208DF800008DF81010B2
:10C95000F3E7A08900F09EF908B1E08938B1687862
:10C96000002802D06E7004F051F906B070BD606806
:10C9700038B10B208DF800006E70AE7004F046F9EF
:10C98000DBE70A208DF80000BDF8040004F0CEF9C2
:10C99000F2E713208DF800004FF6FF70ADF80400A9
:10C9A000CBE700004020002038B504460E48007850
:10C9B000A8B1A4F57F40FF380FD0684604F0FEFE12
:10C9C00078B10521017001210171C480684604F02D
:10C9D00003FF04F0A9FF002038BD042038BD022069
:10C9E00038BD082038BD0000F42000200C4808B5F0
:10C9F000007888B1684604F0E1FE78B10621017044
:10CA0000684604F0E9FE0748017809B10121017385
:10CA100004F08AFF002008BD022008BD082008BDE0
:10CA2000F420002010310020F0B589B014216846B0
:10CA3000FCF7FBFD2D4C207818B16846FFF79EFEF1
:10CA400052E0201D012105AAFCF7F0FBC8BB4FF006
:10CA5000102040694FF080510969421C02D101EB5E
:10CA600041000001224900220861A0F54050C86041
:10CA700020491F4802F0CDFA002820D11F481C236E
:10CA80008C221D49006801F038FD03F0FBFC050015
:10CA900014D0022D12D000270126062D12D006A890
:10CAA00004F08CFE88B106700C2D18D2DFE805F07A
:10CAB000170F170F17161716171113110B2009B0A0
:10CAC000F0BD11E026706760B7E70820F7E707714F
:10CAD00005E0032100E00221017100E0067106A8D3
:10CAE00004F07AFE04F020FF0020E8E7F4200020A4
:10CAF000742100200C3602005C300020D435020086
:10CB000038B5040014D0694604F0D8FFA0B1BDF8D0
:10CB1000000000EB8001094800EB8100C16849B1C9
:10CB2000A17A39B1C168491EC1600020A07238BD28
:10CB3000052038BD062038BD0A2038BDE830002069
:10CB40001FB501A9684604F075FF04B010BD07B514
:10CB500013460A466946002004F06CFF0EBD07B577
:10CB600013460A460021684604F064FF0EBD20B15A
:10CB700019B1006808600020704705207047000068
:10CB80007CB50D46040019D0C5B1694604F096FF86
:10CB9000B0B1BDF800000B4900EB800001EB800054
:10CBA000012101AA0C306668FCF767FB2E60606803
:10CBB0000C3068600120A07200207CBD05207CBD87
:10CBC0000A207CBDE830002018B10323002206F0C3
:10CBD000D1BA052070470223002206F0CBBA12B169
:10CBE000022306F0C7BA052070470000094908B5BE
:10CBF0000A69042A0BD0084A096942F8210005484D
:10CC0000012110306A46FCF738FB002008BD0C20DB
:10CC100008BD0000D42000204C30002038B5044668
:10CC200009480D46007858B164B16946284606F0B7
:10CC30009BFB002803D1BDF800102180658038BD22
:10CC4000022038BD052038BDF420002010B5044670
:10CC50000E48007898B1A4B12188022913D80C4A53
:10CC600001EB810002EB800260885289C31C934271
:10CC700009D806F06DFB00202080608010BD0220E6
:10CC800010BD052010BD042010BD0000F4200020C0
:10CC9000E830002043F6FE71A0F54040884201D8FC
:10CCA000012070470020704710B50446007818280E
:10CCB00002D1FEF783FB207010BD10B5044600784A
:10CCC000182802D1FEF77AFB207010BD70B513460C
:10CCD000002206461546862902D0112902D002E01C
:10CCE000012200E001250D4C73B1A179FEF7A0FBF4
:10CCF0002A4661793046FEF79BFB0022A178304638
:10CD0000FEF796FB002203E0A178FEF791FB2A468E
:10CD100061783046BDE87040FEF78ABB6C20002089
:10CD2000406804F061BD000070B508B1012070BD1D
:10CD3000194C0025207B08B1257301E000F0A0F814
:10CD40002078082826D2DFE800F02504080C1025FA
:10CD50001420BDE8704000F021B8BDE8704000F03C
:10CD60007DB8BDE8704000F05FB8BDE8704000F0ED
:10CD70003BB86088084900EB8000283901EB80004F
:10CD80004068BDE8704003F05DBB6560BDE8704081
:10CD900003F066BB0F2070BD103100201149F0B4C4
:10CDA0008A1C00200346A1F128050C18A67A4EB172
:10CDB000A37200EB800405EB8404E66816B9247CBA
:10CDC000012C0AD0401C80B20228EED30B704B809D
:10CDD0004B60F0BC41F61D5070471080F0BC00F075
:10CDE0003DB80000103100200C48418801EB810261
:10CDF000A0F1280101EB8201CA6852B1052101703E
:10CE0000074802218180016800230122054802F0C1
:10CE1000D9B8042202704968F6E7000010310020FA
:10CE2000FC2000207421002038B50A49084803245A
:10CE30000B684268898803EB810153880470DB1C0E
:10CE400000201B0400909B0B034802F081F938BDC1
:10CE500010310020FC20002074210020074910B56B
:10CE60004888091D04F07AFE18B1BDE81040FFF7AC
:10CE7000DBBFBDE81040FFF7B7BF00001031002056
:10CE8000F0B51F481F490125067802248B88A0F1C0
:10CE90002802082E19D2DFE806F00418181B222FEA
:10CEA0002F170189491C01810021418080F80C1055
:10CEB00001EB810312F8233043B100234418491CCD
:10CEC00089B2A3720229F3D30570F0BD0123F5E7FF
:10CED00042685288D21C1A448A800470F0BD468889
:10CEE0000D6806EB860602EB860256680E605560FA
:10CEF00013818C80062100E007210170F0BD000045
:10CF000010310020FC20002030B501888588224C9B
:10CF100085B0502924D0522902D0542932D103E0BF
:10CF2000284600F049FF2DE014221C496846FCF712
:10CF300063FBADF80250284600F0F4FBADF80400A6
:10CF400000F04AF9002261792846FEF771FA0022C2
:10CF500021792846FEF76CFA6846FFF781FC11E05C
:10CF6000017B01290ED1817A01290BD10089A0F51D
:10CF70002451023906D10121284600F051FFA07842
:10CF800003F0CCFFE07803F0C9FF207905B0BDE8DD
:10CF9000304003F0C3BF000028200020B43402005A
:10CFA00010B50446007800280FD1608800F004FF17
:10CFB000608800F0B9F9002807D004496088012290
:10CFC0000979BDE81040FEF733BA10BD28200020D3
:10CFD00010B5124C00202070FEF7F0F9A070FEF79B
:10CFE000EDF9E070FEF7EAF92071FEF7E7F96071FC
:10CFF000A17818290FD0E17818290CD021791829A7
:10D0000009D0182807D00121601C04F0A9F90120DB
:10D010002070002010BD032010BD0000282000203B
:10D020002DE9F04192B000F0EFF86846FEF782F982
:10D0300000246E460D4D4FF6FF780DE006EB4407D9
:10D04000B88800F06FFB404504D1B88801222979E7
:10D05000FEF7EEF9641CA4B20098A042EED828793D
:10D0600003F05CFF12B0BDE8F08100002820002032
:10D070007CB5044600781C4D08282FD1607A38BB57
:10D08000207A4FF6FF7601280DD0072802D0082815
:10D0900024D11EE0A08800F02FFAB0421ED001215A
:10D0A00000F0BEFE1AE0A0886A46012103F076FB7C
:10D0B00070B90198007858B1A08800F01DFAB0420C
:10D0C0000CD001222979FEF7B3F9287903F026FF65
:10D0D00004E005480021401C04F07DF9A878BDE873
:10D0E0007C4003F01BBF00002820002010B5044640
:10D0F0000A4841782046FEF785F968B108480021C2
:10D1000001EB410200EB82025288A24201D1C8B277
:10D1100010BD491C1429F3D3FF2010BD3A20002074
:10D12000042B002070B5094D094E002404EB440087
:10D1300005EB800071784088FEF764F920B1641C2B
:10D14000142CF3D3FF2070BDE0B270BD042B00207F
:10D150003A2000202DE9F0418046024601200021BE
:10D16000FCF737FA1A4F05460E463868FDF706FAFF
:10D1700000280CD1174CD4E9062110462A4001EAB8
:10D1800006031A4305D0A843B143C4E90601BDE82C
:10D19000F081404601F0CAFC30B1D4E904012843D3
:10D1A0003143C4E9040105E0D4E90410A943B043C4
:10D1B000C4E90410D4E9060128433143C4E9060157
:10D1C000A1683868BDE8F0410022FDF793B900007E
:10D1D000CC350200902000201CB5054AD2E902128D
:10D1E000CDE900120022694603F0FDFA1CBD0000E3
:10D1F000CC34020003484FF6FF7181800121017099
:10D20000002070473420002010B54FF6FF7003F067
:10D210007DFA03498880BDE8104004F0B5BF0000E6
:10D22000342000202DE9FC41804600F07BFA0024E8
:10D2300003250127A0F57F412646FF3908D06A461D
:10D24000082103F0ABFA18B90198841D8688056897
:10D2500032462B4621464046A9DF042804D0082840
:10D2600004D00B2808D002E0112000E00020002F9D
:10D2700000D10B20BDE8FC810027A80701D50125BE
:10D28000E6E73443F5D0002426460325E0E72DE900
:10D29000FC41804600F046FA0646A0F57F40FF3884
:10D2A0000ED001252A466D1C0027ADB26B46082121
:10D2B000304603F09DFA040006D0072C25D025E067
:10D2C00043F20200BDE8FC81019903230A1D0B60B3
:10D2D0004046891DAADF040004D00C2C09D0052C7F
:10D2E00009D009E032460821104603F017FB044636
:10D2F0000CE0012700E000240821304603F0FAFA90
:10D3000000B10324002FCDD100E00C242046D9E742
:10D3100004488088A0F57F41FF3901D004F034BF74
:10D3200070470000342000200EB502A9019100F0E2
:10D33000F9F96A46012103F031FA08B100200EBD67
:10D34000019800780EBD00002DE9F04107464FF628
:10D35000FF760A48ABDF10B10320BDE8F081074C2F
:10D3600043F20305A41E324661883846A7DFA8426F
:10D37000F3D16088401C6080F5E700003620002073
:10D38000428800EB82020C328A4201D902207047A7
:10D390008188A1F57F42FF3A03D0008808B10020C0
:10D3A000704701207047884204D20068401C01D0B9
:10D3B00001207047002070473EB5027802230C46DA
:10D3C000B3EB520F17D1B0F80110ADF80010C178CF
:10D3D0008DF802108188ADF8041080798DF8060070
:10D3E00002AA01A92046FCF745FD032202A96846CE
:10D3F000FCF72DF908B100203EBD01203EBD000024
:10D4000010B50C46FFF772FEFF280CD0074900EB61
:10D41000400001EB8000416821600189A180807A91
:10D42000A071002010BD052010BD0000042B0020BD
:10D4300070B5018892B0102959D1011D3422684677
:10D44000FCF7DAF89DF804004FF6FF760321344626
:10D450006D46B1EB500F2AD003F016FB9DF8040087
:10D4600040080ED001280CD0022820D118E00F99D6
:10D47000281D1131FCF71DFC18B100BFBDF8344068
:10D4800015E00EAA0DA9072003F0D2FA0028EED16C
:10D490000DE00F99281D491CFFF78EFF0028EDD1E4
:10D4A0000EAA0DA9072003F0C3FA0028F1D1BDF898
:10D4B0000000291D00F0DAFEB44218D0BDF80000CB
:10D4C000214600F019F9BDF80000ADF83600002043
:10D4D000ADF83840074E8DF834000DAD044600BF5E
:10D4E00056F8241028468847641C022CF8D312B042
:10D4F00070BD0000E0340200094A002101EB410345
:10D5000032F82330834205D101EB410002EB800069
:10D5100040887047491C1429F0D34FF6FF707047BC
:10D52000042B00202DE9F041CEB00D46070019D0A4
:10D53000C5B10DF1B8085020CDE94B80B82168463F
:10D54000FCF773F8002042A94FEA0D06C0EBC002B9
:10D5500002EB0012324441F82020401C0828F5D389
:10D5600000242BE00022114610466FDF4EB0BDE8CC
:10D57000F08150212EA8FCF758F837F814004CAB76
:10D580004AAA072103F088FA05280AD0072808D0FC
:10D590009DF8C900400806D0012804D043F20220BB
:10D5A000E4E70520E2E7C4EBC40000EB04103044DC
:10D5B000172208F10101FCF71FF8641CAC42D8D314
:10D5C000EAB2002142A86FDFD0E73EB50C4605461F
:10D5D00003F05AFA0BE0BDF80000A04207D028463D
:10D5E000029900F02FF810B1BDF800003EBD01AA6D
:10D5F0006946072003F01CFA0028ECD14FF6FF70B3
:10D600003EBD000010B50D4C18200D4A6070002082
:10D610004FF6FF7100EB400302EB8303401C59807F
:10D620001428F7D3FDF7CAFE6070182803D0012034
:10D630002070002010BD032010BD00003A20002003
:10D64000042B00202DE9F0410C46054600F111079E
:10D6500001F111061022491C401CFBF7F8FF48B9E4
:10D66000681C00F011FA28B1601C00F00DFA08B136
:10D67000012400E0002431463846FCF71AFB3B78D1
:10D680000222B2EB530F0CD00321B1EB530F08D0A1
:10D690003378B2EB530F04D0B1EB530F01D001211B
:10D6A00000E00021084201D18C4302D00120BDE8F6
:10D6B000F0810020FBE7018811B9421892780AB185
:10D6C00001207047491C0829F7D30020704710B586
:10D6D0000C460346FFF7EFFF00280AD01888218880
:10D6E000884205D10822A11C981CFBF7B0FF08B1A5
:10D6F000002010BD012010BD03F06CBB70B50446C6
:10D70000FFF7FAFE0546204603F04BF84FF6FF718F
:10D7100004468D4203D014B9284603F05BFB204633
:10D7200070BD000010B5FFF7E1FCFF2805D00449EB
:10D7300000EB400031F8200010BD4FF6FF7010BD27
:10D74000042B00203EB5044603F09EF90EE001993B
:10D7500020464631FFF7BBFF28B9019920462A3100
:10D76000FFF7B5FF10B1BDF808003EBD6A4602A93B
:10D77000072003F05DF90028E9D14FF6FF703EBDA8
:10D780007CB514460A000A49897802D015688D4292
:10D7900003D323B11D688D4201D204207CBDCDE9A5
:10D7A000004313460246034803F058FB7CBD0000CB
:10D7B0003A200020F42B002070B50C4606469AB0A3
:10D7C00010211848FBF731FF174800252EB324B36A
:10D7D0008470620031461348FBF70EFF382102A81F
:10D7E0001895FBF722FF009518AB02AA2146304698
:10D7F000019503F033FB00280DD110AA0DF10801AB
:10D80000C0EBC0030B4442F82030401C0828F7D37B
:10D81000E1B210466EDF1AB070BD85700021084677
:10D820006EDFF8E7F42B00203A20002038B50446DC
:10D830000A4801216A46FBF7ABFD68B908486060F9
:10D8400002F068FA05491C238C22087404488C39BC
:10D85000001F006800F051FE002038BDBC310020E0
:10D86000003602002DE9F0412D4F002518B17D60F2
:10D870000120BDE8F0810879012258B1294E012824
:10D880000CD0274C4FF002080834022821D003287E
:10D8900042D128E00A7102F0E3FD3BE05FF00000B6
:10D8A00000EB800116F82110022908D0401C80B23C
:10D8B0000228F5D33A707D6041F61D50D9E700EBA0
:10D8C000800006F8205006EB8000406802F0BAFDA8
:10D8D00020E00D71A4F80480002301221248216881
:10D8E00001F070FB16E00D71206802F0ABFD0D49F0
:10D8F00023682831498801EB810206EB8201D1F8C7
:10D9000004C0C4F800C04B60A3880B81A4F8048055
:10D9100006F822500028ACD07D600E20A9E7000058
:10D92000F4200020E8300020742100200146034844
:10D9300002888A4200D0002070470000042700209F
:10D940002DE9FC5F0E008346DDE90C47C6F10000BF
:10D9500098469246814600D40846012503E000BF60
:10D9600090FBFAF06D1C5045FADAA84500D94546FF
:10D9700024B1002E01DB780700D5641EB80702D55C
:10D98000B8F1000F0AD0F80708D13CB1A54205D282
:10D9900020215846641EFEF7D7FAF6E7002E02DA79
:10D9A0004E462D2102E0780703D52B215846FEF77D
:10D9B000CBFA07F0030002280BD1B8F1000F08D111
:10D9C0003CB1A54205D230215846641EFEF7BCFA90
:10D9D000F6E7CDE90047434652463146584605F042
:10D9E000D1F9BDE8FC9F00000248007A002800D071
:10D9F00001207047BC310020F0B58488A5189442FE
:10DA000000D82246A41AC288D6189A4200D81346D3
:10DA1000D21A4B880788BB420CD34088834209D86E
:10DA20008888A04206D3A84204D8C888904201D36F
:10DA3000B04201D90020F0BD0120F0BD10B5098928
:10DA40002AB1D088491C814218D1002010BD90F81D
:10DA5000C62202EB8204C4EB821200EB420212895E
:10DA60009142F2D0491C198090F8C61201EB810254
:10DA7000C2EB811100EB4100008902E01980D088DF
:10DA8000401E5880012010BD0021425C0AB10120D7
:10DA90007047491C1029F8D300207047800701D037
:10DAA00000207047012070470A4810B5807860B1A7
:10DAB000002401E0022C06D02046FDF765FF641C1F
:10DAC000042CF7D310BD0324F6E7BDE81040FDF7A2
:10DAD00091BF0000F81F002003480179C90702D058
:10DAE0000078FEF721B97047F81F00200649012091
:10DAF000086006480168C1F300410029FAD10449D1
:10DB000000208870704700000C000040180400409E
:10DB1000802E002017210180418000210171417178
:10DB2000704700002DE9FE4F2A4D984691460F00A0
:10DB3000824601D000260DE0684600F0C3FB6A462D
:10DB40000021504602F051FD2878009E10B99DF842
:10DB5000090098B14A463146504604F0A3FD0446F8
:10DB6000014600225046FFF7B1F8112C1AD008DC0C
:10DB700074B3082C2CD00D2C09D129E00520BDE868
:10DB8000FE8F862C1AD0A4F54050023820D00325F1
:10DB9000B8F1000F04D0324621465046FEF725FE6C
:10DBA0002846ECE73A4629795046FDF741FC4A46BB
:10DBB000E9785046FDF73CFC0025E9E73A4629792B
:10DBC0005046FDF735FC4A46E9785046FDF730FCF3
:10DBD0002546DDE76C2000202DE9F041204F0E4660
:10DBE000154604463978FDF70DFC002835D020464F
:10DBF00002F0D6FC50B32046FFF794FD8046204645
:10DC0000B978FDF7FFFB08B1012700E002272046A5
:10DC100002F0F2FF0028404602D0FFF76FFD0DE052
:10DC2000A8F57F41FF3909D0072102F063FE01000A
:10DC300004D0052902D0204604F07EFA2B46324655
:10DC400039462046BDE8F041FEF710BB2A46314672
:10DC50002046BDE8F041FEF705BDBDE8F0810000BB
:10DC6000642000202DE9F04391B08146FDF7BCFB14
:10DC7000002820D06846FDF75DFB00246E4617E0C3
:10DC800006EB44054946A888FDF7BCFB78B10B4F6D
:10DC9000A888F978FDF7B6FB8046A8883979FDF7A2
:10DCA000B1FB0146A88801234246FFF73BFF641CF5
:10DCB0000098A042E4D811B0BDE8F0836C200020A9
:10DCC0002DE9F047394E002780463D46DFF8E090C9
:10DCD000D6F804A057E003D00446D0F81C8035E005
:10DCE00099F8002002EB4201521CD2B289F80020C0
:10DCF00009EBC10199F80230091D9A4201D189F856
:10DD0000005048680A780446012A12D0022A02D03C
:10DD1000032A3BD108E004F079FE00B10127257405
:10DD200034E00574C06900E070680028F9D17060C3
:10DD30002CE0207C50BB88686060C868A0600869DF
:10DD4000E0604869A061F07800B165606268B16820
:10DD5000184B501A20F07F40984202D2A168084424
:10DD600006E0881AA16820F07F40814202D9081A93
:10DD7000206000E0256065600120A56020742046D9
:10DD8000E56104F025FEB8F10000A4D199F8001077
:10DD900099F801008142A3D117B97168514502D0A9
:10DDA0000120BDE8F0870020FBE70000C020002034
:10DDB000282F0020FFFF7F0030B585B005460024E6
:10DDC00014216846FBF731FCA5F57F40ADF8025001
:10DDD000FF3815D02846FFF725FA98B10B2815D043
:10DDE000112811D0A0F54051023903D00146284630
:10DDF00004F08EF909482246C1782846FDF718FB41
:10DE000005B030BD0E2002E00124F3E70F208DF8AD
:10DE100000006846FEF724FDECE700002820002003
:10DE20000A4602498978FDF703BB0000282000203C
:10DE3000F8B5054600780C46002620420FD1002098
:10DE40008DF800006846FCF7A9FB2878204202D133
:10DE50002043287001269DF80000FCF7C3FB3046E4
:10DE6000F8BD000070B588B0214800F085FB20485F
:10DE7000001F064600F080FB1E4DD5E9014105E07C
:10DE8000C0F3891202EB9050641C044404EA0100C0
:10DE900005EB8000C0688207F2D000200DF1080277
:10DEA00004EA010305EB8303641CDB6842F82030BD
:10DEB000401C0228F4D3029800F00300012808D087
:10DEC00002280AD10298032101EB905004EB900440
:10DED00003E00298C0F3831004443046002101AAF5
:10DEE000FBF7FFFA002800D06C6008B070BD00009E
:10DEF000F8360020E032002088B0002001F02EFC2F
:10DF000008B1FCF729FA01F0BDFAFCF7C9FA08B12B
:10DF1000FCF722FA514A00215148FCF7AFFA08B148
:10DF2000FCF71AFA4F490320FDF7B4FE08B1FCF7DD
:10DF300013FA69460020FDF781FD08B1FCF70CFAE1
:10DF40009DF8000002287CD00025474A0A210820BD
:10DF5000FCF77EFA08B1FCF7FFF901F093FE08B177
:10DF6000FCF7FAF9002469460120009401F058FDFD
:10DF700008B1FCF7F1F9684601F0D2FD08B1FCF7F1
:10DF8000EBF99DF8080039A120F00F00401C20F0AB
:10DF9000F00010308DF80800042202A87CDF08B1E0
:10DFA000FCF7DAF94FF4C87000940194ADF8000062
:10DFB0004100ADF80440ADF80600ADF80210684627
:10DFC0007ADF08B1FCF7C8F900212A4800F083FB8A
:10DFD00008B1FCF7C1F92848FDF762FA08B1FCF76F
:10DFE000BBF904F07DF9FBF7A5FE1C216846FBF7A1
:10DFF0001CFB4FF42030CDE900404FF4702002901C
:10E00000012003268DF810008DF80C601B48ADF838
:10E010000E40CDE905406846FDF758F908B1FCF718
:10E020009BF902F0E5FE164816A1008806EB0040B9
:10E0300001F022FB2846FBF7C1FE00BFFCF7E8F920
:10E0400000E009E001F02CFA0028F7D13EDF0028BB
:10E05000F4D0FCF781F9F1E7012576E7A120020071
:10E06000C433020029BB010038220020414E435333
:10E07000000000004824002035C3010021C2010037
:10E08000E82100204170706C65204E6F74696669EC
:10E09000636174696F6E2043656E746572205365A9
:10E0A000727669636520636C69656E74206578615A
:10E0B0006D706C6520737461727465642E0000006D
:10E0C00070B5144682880E4605462088111D01440D
:10E0D000921C994201D8FE2A01D90C2070BD521C15
:10E0E00032542088FF21401C80B220803154208887
:10E0F000401C80B220808119288804F025FE2188E8
:10E10000084480B22080AA8842B1A96841B1304455
:10E11000FBF772FA2088A98808442080002070BD8F
:10E12000072070BD2DE9F047C7880446181D164624
:10E130008946B0FBF7F1B0FBF7F207FB12009A1922
:10E140003A44D21CB2FBF7F2DDF820A001E02468CB
:10E15000491E0029FBD13D1A8846B54216D818E061
:10E16000BAF1000F05D0211809EB08002A46091D55
:10E1700004E0204409EB08012A46001DFBF73CFAA5
:10E1800000202468761BA844B74201D9354600E038
:10E190003D46002EE4D1BDE8F087000030B50246D0
:10E1A00069B101F009FB0021084C0BE001EB4103D0
:10E1B00004EB830315685B88AB4202D11160002039
:10E1C00030BD491C8142F1D3052030BD882100209B
:10E1D000F8B50E46017814460546012901D1687844
:10E1E00030B12088821C9A422DD8012902D006E045
:10E1F0000720F8BD69780144891C994223D8181A70
:10E20000801E87B2ADF800702188B01C08446946B2
:10E210007DDF0028EDD12878022805D1BDF8001057
:10E22000B94201D809210AE00821012805D16878FE
:10E23000B84202D8ADF8000001E0ADF80070BDF8BA
:10E240000000FE2801D90C20F8BD2288401CB054E3
:10E250002088401C80B2208031542088401C2080BF
:10E26000BDF80010084420800020F8BD70B50546B8
:10E270000C004FF0FF0020D04FF6FF76B5421CD0C7
:10E280000E48012241782846FDF7D2F82846FEF7CD
:10E290002DFFFF2803D1FEF745FFFF280DD0084BC7
:10E2A00000EB400203EB82014D8023F822602268DC
:10E2B0004A60A2880A81A2798A7270BD3A20002041
:10E2C000042B0020034A00219268C0E900218160EC
:10E2D000704700006C20002070B54FF6FF750E46A9
:10E2E000A84201D1002000E0401C84B208E0214691
:10E2F000304603F064F808B1204670BD641CA4B237
:10E30000FF2CF4D9284670BD70B5314E0546032464
:10E31000308830A104EB004001F0AEF92879314992
:10E3200051F82020308830A104EB004001F0A8F91A
:10E330002C49A879303951F8202030882EA104EBDF
:10E34000004001F09DF93088EA7904EB00402EA1ED
:10E3500001F096F9308830A104EB00402A6801F002
:10E360008FF9308830A104EB004001F085F968791D
:10E37000C00705D030882EA104EB004001F07CF9E5
:10E380006879800705D530882BA104EB004001F0A7
:10E3900073F96879400705D530882AA104EB00405D
:10E3A00001F06AF96879000705D5308829A104EBE6
:10E3B000004001F061F96879C00607D530882AA1CC
:10E3C00004EB0040BDE8704001F056B970BD00009C
:10E3D000E82100200D0A4E6F7469666963617469F3
:10E3E0006F6E0000CC1F00204576656E743A2020C9
:10E3F000202020202025730043617465676F7279A7
:10E400002049443A2025730043617465676F72792F
:10E4100020436E743A2575005549443A2020202047
:10E420002020202020257500466C6167733A00008B
:10E430002053696C656E740020496D706F72746151
:10E440006E740000205072652D6578697374696E72
:10E450006700000020506F7369746976652041631E
:10E4600074696F6E00000000204E65676174697604
:10E470006520416374696F6E000000002DE9F04172
:10E480008AB016460F4605002DD024216846FBF7BA
:10E49000CCF8384602278DF804704FF001080DF1D2
:10E4A000050101AC04F055FC401CC0B22654698B38
:10E4B000ADF81A1001A90891401C0021C0B2ADF8B6
:10E4C0001C108DF81880ADF81E002889ADF80000EA
:10E4D0008DF80270684604F039FB04F067FB0020F9
:10E4E0000AB0BDE8F0810E20FAE710B5FAF72BFF6D
:10E4F00008B1002010BD112010BD10B531B1B2FB24
:10E50000F3F403FB14241CB1092010BD0E2010BD30
:10E5100001600021416081608281C381084610BD95
:10E5200070B50C460546FAF7C3FE002802D02188D4
:10E530002868084470BD10B50A8849888A4203D10A
:10E54000FAF7F8FE012010BD002010BD70B50C4692
:10E550000546FAF7D2FE002802D0618828680844F0
:10E5600070BD10B50A8849888A4203D1FAF7BCFE0B
:10E57000012010BD002010BD08B501216A46FAF740
:10E58000A3FF009808BD08B56A46FAF776FE009822
:10E5900008BD38B5044600258DF800506846FBF7E5
:10E5A000FDFF21686268086890420ED9401E08602D
:10E5B0000178238AE26801FB0325227A2168101A78
:10E5C000C0B20A79824200D208719DF80000FCF7BF
:10E5D00009F8284638BD38B5054600208DF80000FA
:10E5E0000C466846FBF7DAFFE868298A201AB0FB78
:10E5F000F1F12A681068431C136001709DF8000057
:10E60000FBF7F0FF38BD10B530B1017A42680368FE
:10E61000891AC9B21A6006E00E2010BD03681A6894
:10E62000541C1C601170491EC9B2F7D20068002149
:10E630000171084610BDC20800F007030120895C83
:10E6400098400840704710B528B122B10BB1202B7B
:10E6500003D9092010BD0E2010BD00EB01100124CC
:10E6600000F8BC4F0381C260002010BDFBF73CBC2A
:10E6700010B522B10BB1202B03D9092010BD0E20FB
:10E6800010BD00EB0110012400F83C4F0381C26073
:10E69000002010BD68B101814AB1118A4183918D7A
:10E6A000C186518D8186918BC184518B81840020DC
:10E6B00070470E20704770B505460C460846FCF7BB
:10E6C000FAFD002806D128462168FCF7A3FD0021A9
:10E6D00085F8DC1070BD10B560B1C160172120F85D
:10E6E000021B20F8021B1B2100F8021BFFF712FA85
:10E6F000002010BD0E2010BD2DE9FC4182880C4683
:10E70000002A51D101880126354F0025102906D055
:10E71000112925D03A2927D055294BD146E0C07B75
:10E7200004F1060E012802D12088AEF80000BEF8E0
:10E730000010BEF8020081423CD910469EDF020064
:10E7400008D0112A09D03888264906EB004000F08D
:10E7500097FF2FE08EF805602CE08EF804602CE027
:10E76000A01DFFF7D7F925E02346408934F8061F9E
:10E77000814200D808466080172800D217206080A8
:10E78000D86878B1607968B11749D1E90001CDE95D
:10E790000001ADF802206088ADF80400DA6869462F
:10E7A0001846904765712571BDE8FC8101462046F9
:10E7B00001F046FDA07A0028F6D02846E1889EDFC9
:10E7C00002000AD0112AEFD0388802B006EB0040D0
:10E7D000BDE8F041034900F053BFA572E672E3E7DC
:10E7E00094210020043B0200E834020000F1804044
:10E7F0000068002800D00120704708B500F1804073
:10E80000002101600068009008BD000000283ED093
:10E810001F49204A096800BF00BF00BF00BF00BFFA
:10E8200000BF00BF00BF91422FD000BF00BF00BF9C
:10E8300000BF00BF00BF00BF00BF00BF00BF00BFE0
:10E8400000BF00BF00BF00BF00BF00BF00BF00BFD0
:10E8500000BF00BF00BF00BF00BF00BF00BF00BFC0
:10E8600000BF00BF00BF00BF00BF00BF00BF00BFB0
:10E8700000BF00BF00BF00BF00BF00BF00BF00BFA0
:10E8800000BF00BF00BF00BF00BF0138C3D1704749
:10E89000702100200024F40000283ED01F49204AA7
:10E8A000096800BF00BF00BF00BF00BF00BF00BFBE
:10E8B00000BF91422FD000BF00BF00BF00BF00BF0C
:10E8C00000BF00BF00BF00BF00BF00BF00BF00BF50
:10E8D00000BF00BF00BF00BF00BF00BF00BF00BF40
:10E8E00000BF00BF00BF00BF00BF00BF00BF00BF30
:10E8F00000BF00BF00BF00BF00BF00BF00BF00BF20
:10E9000000BF00BF00BF00BF00BF00BF00BF00BF0F
:10E9100000BF00BF00BF0138C3D170477021002085
:10E920000024F40070B50F4C0025207808B185252F
:10E9300016E00021A16061602161E1604FF0E020FC
:10E94000D0F80001012610F0010F03D107210020AB
:10E9500000F022F801F0DEF908B9034806602670DD
:10E96000284670BD802E00201805004008B5002004
:10E970008DF800006846FBF711FE0648C168491E85
:10E98000C160C06808B9FFF7B1F89DF80000FBF757
:10E9900029FE08BD802E00204907090E002806DA4E
:10E9A00000F00F0202F1E02282F8141D03E000F1F2
:10E9B000E02282F8001400F01F020121914040097A
:10E9C000800000F1E020C0F88012C0F8001170470C
:10E9D0002DE9F0418846054602F00CFB234E002845
:10E9E00028461AD0FDF728FB304490F848008009EB
:10E9F000032802D001280ED007E04FF0A040D0F845
:10EA00001005E84010F0010F05D003212846BDE8AD
:10EA1000F04100F033BC0221F8E702F0F7FA0028D9
:10EA200022D02846FDF708FB04464FF4807000EB27
:10EA300084000F4F81B207EB8400D0F8102542F01C
:10EA40000102C0F81025084600F048FCB8F1000F9C
:10EA50000AD02846FDF7F0FA56F82000002803D027
:10EA60000120A040C7F80403BDE8F081942E0020E7
:10EA7000006000402DE9FC41DFF8A480044608EB6B
:10EA80000400002790F930001346C0170E46401CC2
:10EA900001D0082741E0F27819462046FDF7A8FA90
:10EAA0000546401C38D0B07850B14FF0A04000EB84
:10EAB0008400D0F8001721F00201C0F8001707E029
:10EAC00000217378204600910A46019100F085FBF1
:10EAD000F078C0B11348317800EB8500D0F81025EC
